{
  "address": "0x78Fc2f8CBe43B02Beff806B4F0AEb1EEb0a11894",
  "abi": [
    {
      "inputs": [
        {
          "internalType": "string",
          "name": "name_",
          "type": "string"
        },
        {
          "internalType": "string",
          "name": "symbol_",
          "type": "string"
        },
        {
          "internalType": "address",
          "name": "_rendererAddress",
          "type": "address"
        },
        {
          "internalType": "address",
          "name": "vrfCoordinator",
          "type": "address"
        },
        {
          "internalType": "address",
          "name": "link",
          "type": "address"
        },
        {
          "internalType": "bytes32",
          "name": "keyHash",
          "type": "bytes32"
        },
        {
          "components": [
            {
              "internalType": "uint16",
              "name": "mintOutFoundersWithdrawalDelay",
              "type": "uint16"
            },
            {
              "internalType": "uint16",
              "name": "grandPrizeDelay",
              "type": "uint16"
            },
            {
              "internalType": "uint16",
              "name": "maxCobots",
              "type": "uint16"
            },
            {
              "internalType": "uint24",
              "name": "contestDuration",
              "type": "uint24"
            },
            {
              "internalType": "uint72",
              "name": "mintPublicPrice",
              "type": "uint72"
            },
            {
              "internalType": "uint72",
              "name": "cobotsV1Discount",
              "type": "uint72"
            }
          ],
          "internalType": "struct CoBotsV2.Parameters",
          "name": "_parameters",
          "type": "tuple"
        },
        {
          "components": [
            {
              "internalType": "uint16",
              "name": "checkpoint",
              "type": "uint16"
            },
            {
              "internalType": "uint72",
              "name": "amount",
              "type": "uint72"
            },
            {
              "internalType": "bool",
              "name": "isContest",
              "type": "bool"
            }
          ],
          "internalType": "struct CoBotsV2.Prize[]",
          "name": "_prizes",
          "type": "tuple[]"
        },
        {
          "internalType": "address",
          "name": "ens",
          "type": "address"
        },
        {
          "internalType": "address",
          "name": "cobotsV1",
          "type": "address"
        },
        {
          "components": [
            {
              "internalType": "uint256",
              "name": "ensId",
              "type": "uint256"
            },
            {
              "internalType": "uint256",
              "name": "value",
              "type": "uint256"
            },
            {
              "internalType": "uint8",
              "name": "prizeIndex",
              "type": "uint8"
            }
          ],
          "internalType": "struct CoBotsV2.MysteryChallenge",
          "name": "_mysteryChallenge",
          "type": "tuple"
        }
      ],
      "stateMutability": "nonpayable",
      "type": "constructor"
    },
    {
      "inputs": [],
      "name": "AllocationExceeded",
      "type": "error"
    },
    {
      "inputs": [],
      "name": "ApprovalCallerNotOwnerNorApproved",
      "type": "error"
    },
    {
      "inputs": [],
      "name": "ApprovalQueryForNonexistentToken",
      "type": "error"
    },
    {
      "inputs": [],
      "name": "ApprovalToCurrentOwner",
      "type": "error"
    },
    {
      "inputs": [],
      "name": "ApproveToCaller",
      "type": "error"
    },
    {
      "inputs": [],
      "name": "BalanceQueryForZeroAddress",
      "type": "error"
    },
    {
      "inputs": [],
      "name": "BatchLimitExceeded",
      "type": "error"
    },
    {
      "inputs": [],
      "name": "ChainlinkSubscriptionNotFound",
      "type": "error"
    },
    {
      "inputs": [],
      "name": "FailSafeWithdrawalNotEnabled",
      "type": "error"
    },
    {
      "inputs": [],
      "name": "FulfillRequestForNonExistentContest",
      "type": "error"
    },
    {
      "inputs": [],
      "name": "FulfillRequestRedrawn",
      "type": "error"
    },
    {
      "inputs": [],
      "name": "FulfillRequestWithTokenNotOwnedByWinner",
      "type": "error"
    },
    {
      "inputs": [],
      "name": "FulfillRequestWithTokenOutOfBounds",
      "type": "error"
    },
    {
      "inputs": [],
      "name": "FulfillmentAlreadyFulfilled",
      "type": "error"
    },
    {
      "inputs": [],
      "name": "InsufficientFunds",
      "type": "error"
    },
    {
      "inputs": [],
      "name": "MintToZeroAddress",
      "type": "error"
    },
    {
      "inputs": [],
      "name": "MintZeroQuantity",
      "type": "error"
    },
    {
      "inputs": [],
      "name": "MysteryChallengeSenderDoesNotOwnENS",
      "type": "error"
    },
    {
      "inputs": [],
      "name": "MysteryChallengeValueDoesNotMatch",
      "type": "error"
    },
    {
      "inputs": [],
      "name": "NoGiveawayToTrigger",
      "type": "error"
    },
    {
      "inputs": [],
      "name": "NonexistentRenderer",
      "type": "error"
    },
    {
      "inputs": [
        {
          "internalType": "address",
          "name": "have",
          "type": "address"
        },
        {
          "internalType": "address",
          "name": "want",
          "type": "address"
        }
      ],
      "name": "OnlyCoordinatorCanFulfill",
      "type": "error"
    },
    {
      "inputs": [],
      "name": "OwnerIndexOutOfBounds",
      "type": "error"
    },
    {
      "inputs": [],
      "name": "OwnerQueryForNonexistentToken",
      "type": "error"
    },
    {
      "inputs": [],
      "name": "PublicSaleNotOpen",
      "type": "error"
    },
    {
      "inputs": [],
      "name": "PublicSaleOpen",
      "type": "error"
    },
    {
      "inputs": [],
      "name": "RedeemTokenNotOwner",
      "type": "error"
    },
    {
      "inputs": [],
      "name": "ToggleMettaCallerNotOwner",
      "type": "error"
    },
    {
      "inputs": [],
      "name": "TokenIndexOutOfBounds",
      "type": "error"
    },
    {
      "inputs": [],
      "name": "TokenNotMintedOut",
      "type": "error"
    },
    {
      "inputs": [],
      "name": "TotalSupplyExceeded",
      "type": "error"
    },
    {
      "inputs": [],
      "name": "TransferCallerNotOwnerNorApproved",
      "type": "error"
    },
    {
      "inputs": [],
      "name": "TransferFailed",
      "type": "error"
    },
    {
      "inputs": [],
      "name": "TransferFromIncorrectOwner",
      "type": "error"
    },
    {
      "inputs": [],
      "name": "TransferToNonERC721ReceiverImplementer",
      "type": "error"
    },
    {
      "inputs": [],
      "name": "TransferToZeroAddress",
      "type": "error"
    },
    {
      "inputs": [],
      "name": "URIQueryForNonexistentToken",
      "type": "error"
    },
    {
      "inputs": [],
      "name": "WithdrawalFailed",
      "type": "error"
    },
    {
      "inputs": [
        {
          "internalType": "uint256",
          "name": "paidPrice",
          "type": "uint256"
        },
        {
          "internalType": "uint256",
          "name": "expectedPrice",
          "type": "uint256"
        }
      ],
      "name": "WrongPrice",
      "type": "error"
    },
    {
      "anonymous": false,
      "inputs": [
        {
          "indexed": true,
          "internalType": "address",
          "name": "owner",
          "type": "address"
        },
        {
          "indexed": true,
          "internalType": "address",
          "name": "approved",
          "type": "address"
        },
        {
          "indexed": true,
          "internalType": "uint256",
          "name": "tokenId",
          "type": "uint256"
        }
      ],
      "name": "Approval",
      "type": "event"
    },
    {
      "anonymous": false,
      "inputs": [
        {
          "indexed": true,
          "internalType": "address",
          "name": "owner",
          "type": "address"
        },
        {
          "indexed": true,
          "internalType": "address",
          "name": "operator",
          "type": "address"
        },
        {
          "indexed": false,
          "internalType": "bool",
          "name": "approved",
          "type": "bool"
        }
      ],
      "name": "ApprovalForAll",
      "type": "event"
    },
    {
      "anonymous": false,
      "inputs": [
        {
          "indexed": true,
          "internalType": "uint256",
          "name": "requestId",
          "type": "uint256"
        },
        {
          "components": [
            {
              "internalType": "uint16",
              "name": "checkpoint",
              "type": "uint16"
            },
            {
              "internalType": "uint72",
              "name": "amount",
              "type": "uint72"
            },
            {
              "internalType": "bool",
              "name": "isContest",
              "type": "bool"
            }
          ],
          "indexed": false,
          "internalType": "struct CoBotsV2.Prize",
          "name": "prize",
          "type": "tuple"
        }
      ],
      "name": "CheckpointDrawn",
      "type": "event"
    },
    {
      "anonymous": false,
      "inputs": [
        {
          "indexed": true,
          "internalType": "uint256",
          "name": "requestId",
          "type": "uint256"
        },
        {
          "components": [
            {
              "internalType": "uint16",
              "name": "checkpoint",
              "type": "uint16"
            },
            {
              "internalType": "uint72",
              "name": "amount",
              "type": "uint72"
            },
            {
              "internalType": "bool",
              "name": "isContest",
              "type": "bool"
            }
          ],
          "indexed": false,
          "internalType": "struct CoBotsV2.Prize",
          "name": "prize",
          "type": "tuple"
        },
        {
          "components": [
            {
              "internalType": "address",
              "name": "winner",
              "type": "address"
            },
            {
              "internalType": "uint16",
              "name": "tokenId",
              "type": "uint16"
            }
          ],
          "indexed": false,
          "internalType": "struct CoBotsV2.Winner",
          "name": "winner",
          "type": "tuple"
        }
      ],
      "name": "CheckpointFulfilled",
      "type": "event"
    },
    {
      "anonymous": false,
      "inputs": [],
      "name": "DrawBeforeWithdrawal",
      "type": "event"
    },
    {
      "anonymous": false,
      "inputs": [],
      "name": "GiveawayFinished",
      "type": "event"
    },
    {
      "anonymous": false,
      "inputs": [
        {
          "indexed": true,
          "internalType": "uint256",
          "name": "tokenId",
          "type": "uint256"
        },
        {
          "indexed": false,
          "internalType": "bool",
          "name": "isMetta",
          "type": "bool"
        }
      ],
      "name": "MettaToggled",
      "type": "event"
    },
    {
      "anonymous": false,
      "inputs": [
        {
          "indexed": true,
          "internalType": "address",
          "name": "previousOwner",
          "type": "address"
        },
        {
          "indexed": true,
          "internalType": "address",
          "name": "newOwner",
          "type": "address"
        }
      ],
      "name": "OwnershipTransferred",
      "type": "event"
    },
    {
      "anonymous": false,
      "inputs": [
        {
          "indexed": true,
          "internalType": "address",
          "name": "renderer",
          "type": "address"
        }
      ],
      "name": "RendererContractUpdated",
      "type": "event"
    },
    {
      "anonymous": false,
      "inputs": [
        {
          "indexed": true,
          "internalType": "address",
          "name": "from",
          "type": "address"
        },
        {
          "indexed": true,
          "internalType": "address",
          "name": "to",
          "type": "address"
        },
        {
          "indexed": true,
          "internalType": "uint256",
          "name": "tokenId",
          "type": "uint256"
        }
      ],
      "name": "Transfer",
      "type": "event"
    },
    {
      "anonymous": false,
      "inputs": [
        {
          "indexed": false,
          "internalType": "uint256",
          "name": "amount",
          "type": "uint256"
        }
      ],
      "name": "Withdrawal",
      "type": "event"
    },
    {
      "inputs": [],
      "name": "COBOTS_V1",
      "outputs": [
        {
          "internalType": "contract IERC721Enumerable",
          "name": "",
          "type": "address"
        }
      ],
      "stateMutability": "view",
      "type": "function"
    },
    {
      "inputs": [],
      "name": "COBOTS_V1_ADDRESS",
      "outputs": [
        {
          "internalType": "address",
          "name": "",
          "type": "address"
        }
      ],
      "stateMutability": "view",
      "type": "function"
    },
    {
      "inputs": [],
      "name": "COORDINATOR",
      "outputs": [
        {
          "internalType": "contract VRFCoordinatorV2Interface",
          "name": "",
          "type": "address"
        }
      ],
      "stateMutability": "view",
      "type": "function"
    },
    {
      "inputs": [],
      "name": "ENS",
      "outputs": [
        {
          "internalType": "contract IERC721",
          "name": "",
          "type": "address"
        }
      ],
      "stateMutability": "view",
      "type": "function"
    },
    {
      "inputs": [],
      "name": "LINKTOKEN",
      "outputs": [
        {
          "internalType": "contract LinkTokenInterface",
          "name": "",
          "type": "address"
        }
      ],
      "stateMutability": "view",
      "type": "function"
    },
    {
      "inputs": [],
      "name": "MINT_BATCH_LIMIT",
      "outputs": [
        {
          "internalType": "uint8",
          "name": "",
          "type": "uint8"
        }
      ],
      "stateMutability": "view",
      "type": "function"
    },
    {
      "inputs": [],
      "name": "MINT_FOUNDERS",
      "outputs": [
        {
          "internalType": "uint8",
          "name": "",
          "type": "uint8"
        }
      ],
      "stateMutability": "view",
      "type": "function"
    },
    {
      "inputs": [],
      "name": "PARAMETERS",
      "outputs": [
        {
          "internalType": "uint16",
          "name": "mintOutFoundersWithdrawalDelay",
          "type": "uint16"
        },
        {
          "internalType": "uint16",
          "name": "grandPrizeDelay",
          "type": "uint16"
        },
        {
          "internalType": "uint16",
          "name": "maxCobots",
          "type": "uint16"
        },
        {
          "internalType": "uint24",
          "name": "contestDuration",
          "type": "uint24"
        },
        {
          "internalType": "uint72",
          "name": "mintPublicPrice",
          "type": "uint72"
        },
        {
          "internalType": "uint72",
          "name": "cobotsV1Discount",
          "type": "uint72"
        }
      ],
      "stateMutability": "view",
      "type": "function"
    },
    {
      "inputs": [
        {
          "internalType": "uint256",
          "name": "",
          "type": "uint256"
        }
      ],
      "name": "PRIZES",
      "outputs": [
        {
          "internalType": "uint16",
          "name": "checkpoint",
          "type": "uint16"
        },
        {
          "internalType": "uint72",
          "name": "amount",
          "type": "uint72"
        },
        {
          "internalType": "bool",
          "name": "isContest",
          "type": "bool"
        }
      ],
      "stateMutability": "view",
      "type": "function"
    },
    {
      "inputs": [
        {
          "internalType": "uint256",
          "name": "value",
          "type": "uint256"
        },
        {
          "internalType": "uint256",
          "name": "tokenId",
          "type": "uint256"
        }
      ],
      "name": "TheAnswer",
      "outputs": [],
      "stateMutability": "nonpayable",
      "type": "function"
    },
    {
      "inputs": [
        {
          "internalType": "address",
          "name": "to",
          "type": "address"
        },
        {
          "internalType": "uint256",
          "name": "tokenId",
          "type": "uint256"
        }
      ],
      "name": "approve",
      "outputs": [],
      "stateMutability": "nonpayable",
      "type": "function"
    },
    {
      "inputs": [
        {
          "internalType": "address",
          "name": "owner",
          "type": "address"
        }
      ],
      "name": "balanceOf",
      "outputs": [
        {
          "internalType": "uint256",
          "name": "",
          "type": "uint256"
        }
      ],
      "stateMutability": "view",
      "type": "function"
    },
    {
      "inputs": [],
      "name": "cancelSubscription",
      "outputs": [],
      "stateMutability": "nonpayable",
      "type": "function"
    },
    {
      "inputs": [],
      "name": "chainlinkSubscriptionId",
      "outputs": [
        {
          "internalType": "uint64",
          "name": "",
          "type": "uint64"
        }
      ],
      "stateMutability": "view",
      "type": "function"
    },
    {
      "inputs": [
        {
          "internalType": "uint256",
          "name": "",
          "type": "uint256"
        }
      ],
      "name": "coBotsSeeds",
      "outputs": [
        {
          "internalType": "uint8",
          "name": "",
          "type": "uint8"
        }
      ],
      "stateMutability": "view",
      "type": "function"
    },
    {
      "inputs": [
        {
          "internalType": "uint256",
          "name": "",
          "type": "uint256"
        }
      ],
      "name": "coBotsV1Redeemed",
      "outputs": [
        {
          "internalType": "bool",
          "name": "",
          "type": "bool"
        }
      ],
      "stateMutability": "view",
      "type": "function"
    },
    {
      "inputs": [
        {
          "internalType": "uint96",
          "name": "amount",
          "type": "uint96"
        }
      ],
      "name": "createSubscriptionAndFund",
      "outputs": [],
      "stateMutability": "nonpayable",
      "type": "function"
    },
    {
      "inputs": [],
      "name": "draw",
      "outputs": [],
      "stateMutability": "nonpayable",
      "type": "function"
    },
    {
      "inputs": [],
      "name": "drawnAmount",
      "outputs": [
        {
          "internalType": "uint256",
          "name": "",
          "type": "uint256"
        }
      ],
      "stateMutability": "view",
      "type": "function"
    },
    {
      "inputs": [
        {
          "internalType": "uint256",
          "name": "_tokenId",
          "type": "uint256"
        }
      ],
      "name": "exists",
      "outputs": [
        {
          "internalType": "bool",
          "name": "",
          "type": "bool"
        }
      ],
      "stateMutability": "view",
      "type": "function"
    },
    {
      "inputs": [],
      "name": "failsafeWithdraw",
      "outputs": [],
      "stateMutability": "nonpayable",
      "type": "function"
    },
    {
      "inputs": [
        {
          "internalType": "uint256",
          "name": "giveawayIndex",
          "type": "uint256"
        },
        {
          "internalType": "address",
          "name": "winner",
          "type": "address"
        },
        {
          "internalType": "uint256",
          "name": "selectedToken",
          "type": "uint256"
        }
      ],
      "name": "fulfillContest",
      "outputs": [],
      "stateMutability": "nonpayable",
      "type": "function"
    },
    {
      "inputs": [
        {
          "internalType": "uint256",
          "name": "",
          "type": "uint256"
        }
      ],
      "name": "fulfillments",
      "outputs": [
        {
          "components": [
            {
              "internalType": "uint16",
              "name": "checkpoint",
              "type": "uint16"
            },
            {
              "internalType": "uint72",
              "name": "amount",
              "type": "uint72"
            },
            {
              "internalType": "bool",
              "name": "isContest",
              "type": "bool"
            }
          ],
          "internalType": "struct CoBotsV2.Prize",
          "name": "prize",
          "type": "tuple"
        },
        {
          "internalType": "bool",
          "name": "fulfilled",
          "type": "bool"
        },
        {
          "components": [
            {
              "internalType": "address",
              "name": "winner",
              "type": "address"
            },
            {
              "internalType": "uint16",
              "name": "tokenId",
              "type": "uint16"
            }
          ],
          "internalType": "struct CoBotsV2.Winner",
          "name": "winner",
          "type": "tuple"
        }
      ],
      "stateMutability": "view",
      "type": "function"
    },
    {
      "inputs": [],
      "name": "gasKeyHash",
      "outputs": [
        {
          "internalType": "bytes32",
          "name": "",
          "type": "bytes32"
        }
      ],
      "stateMutability": "view",
      "type": "function"
    },
    {
      "inputs": [
        {
          "internalType": "uint256",
          "name": "tokenId",
          "type": "uint256"
        }
      ],
      "name": "getApproved",
      "outputs": [
        {
          "internalType": "address",
          "name": "",
          "type": "address"
        }
      ],
      "stateMutability": "view",
      "type": "function"
    },
    {
      "inputs": [],
      "name": "getOrderedFulfillments",
      "outputs": [
        {
          "components": [
            {
              "components": [
                {
                  "internalType": "uint16",
                  "name": "checkpoint",
                  "type": "uint16"
                },
                {
                  "internalType": "uint72",
                  "name": "amount",
                  "type": "uint72"
                },
                {
                  "internalType": "bool",
                  "name": "isContest",
                  "type": "bool"
                }
              ],
              "internalType": "struct CoBotsV2.Prize",
              "name": "prize",
              "type": "tuple"
            },
            {
              "internalType": "bool",
              "name": "fulfilled",
              "type": "bool"
            },
            {
              "components": [
                {
                  "internalType": "address",
                  "name": "winner",
                  "type": "address"
                },
                {
                  "internalType": "uint16",
                  "name": "tokenId",
                  "type": "uint16"
                }
              ],
              "internalType": "struct CoBotsV2.Winner",
              "name": "winner",
              "type": "tuple"
            }
          ],
          "internalType": "struct CoBotsV2.Fulfillment[]",
          "name": "",
          "type": "tuple[]"
        }
      ],
      "stateMutability": "view",
      "type": "function"
    },
    {
      "inputs": [
        {
          "internalType": "address",
          "name": "owner",
          "type": "address"
        },
        {
          "internalType": "address",
          "name": "operator",
          "type": "address"
        }
      ],
      "name": "isApprovedForAll",
      "outputs": [
        {
          "internalType": "bool",
          "name": "",
          "type": "bool"
        }
      ],
      "stateMutability": "view",
      "type": "function"
    },
    {
      "inputs": [
        {
          "internalType": "uint256",
          "name": "tokenId",
          "type": "uint256"
        }
      ],
      "name": "isMettaEnabled",
      "outputs": [
        {
          "internalType": "bool",
          "name": "",
          "type": "bool"
        }
      ],
      "stateMutability": "view",
      "type": "function"
    },
    {
      "inputs": [],
      "name": "isMintedOut",
      "outputs": [
        {
          "internalType": "bool",
          "name": "",
          "type": "bool"
        }
      ],
      "stateMutability": "view",
      "type": "function"
    },
    {
      "inputs": [],
      "name": "isPublicSaleOpen",
      "outputs": [
        {
          "internalType": "bool",
          "name": "",
          "type": "bool"
        }
      ],
      "stateMutability": "view",
      "type": "function"
    },
    {
      "inputs": [
        {
          "internalType": "address",
          "name": "to",
          "type": "address"
        },
        {
          "internalType": "uint256",
          "name": "quantity",
          "type": "uint256"
        }
      ],
      "name": "mintFounders",
      "outputs": [],
      "stateMutability": "nonpayable",
      "type": "function"
    },
    {
      "inputs": [
        {
          "internalType": "uint256",
          "name": "quantity",
          "type": "uint256"
        },
        {
          "internalType": "uint256[]",
          "name": "tokenIdsV1",
          "type": "uint256[]"
        }
      ],
      "name": "mintPublicSale",
      "outputs": [],
      "stateMutability": "payable",
      "type": "function"
    },
    {
      "inputs": [],
      "name": "mintedOutTimestamp",
      "outputs": [
        {
          "internalType": "uint256",
          "name": "",
          "type": "uint256"
        }
      ],
      "stateMutability": "view",
      "type": "function"
    },
    {
      "inputs": [],
      "name": "name",
      "outputs": [
        {
          "internalType": "string",
          "name": "",
          "type": "string"
        }
      ],
      "stateMutability": "view",
      "type": "function"
    },
    {
      "inputs": [],
      "name": "openPublicSale",
      "outputs": [],
      "stateMutability": "nonpayable",
      "type": "function"
    },
    {
      "inputs": [],
      "name": "owner",
      "outputs": [
        {
          "internalType": "address",
          "name": "",
          "type": "address"
        }
      ],
      "stateMutability": "view",
      "type": "function"
    },
    {
      "inputs": [
        {
          "internalType": "uint256",
          "name": "tokenId",
          "type": "uint256"
        }
      ],
      "name": "ownerOf",
      "outputs": [
        {
          "internalType": "address",
          "name": "",
          "type": "address"
        }
      ],
      "stateMutability": "view",
      "type": "function"
    },
    {
      "inputs": [],
      "name": "publicSaleStartTimestamp",
      "outputs": [
        {
          "internalType": "uint256",
          "name": "",
          "type": "uint256"
        }
      ],
      "stateMutability": "view",
      "type": "function"
    },
    {
      "inputs": [
        {
          "internalType": "uint256",
          "name": "requestId",
          "type": "uint256"
        },
        {
          "internalType": "uint256[]",
          "name": "randomWords",
          "type": "uint256[]"
        }
      ],
      "name": "rawFulfillRandomWords",
      "outputs": [],
      "stateMutability": "nonpayable",
      "type": "function"
    },
    {
      "inputs": [],
      "name": "redrawPendingFulfillments",
      "outputs": [],
      "stateMutability": "nonpayable",
      "type": "function"
    },
    {
      "inputs": [],
      "name": "renderer",
      "outputs": [
        {
          "internalType": "contract ICoBotsRendererV2",
          "name": "",
          "type": "address"
        }
      ],
      "stateMutability": "view",
      "type": "function"
    },
    {
      "inputs": [],
      "name": "renderingContractAddress",
      "outputs": [
        {
          "internalType": "address",
          "name": "",
          "type": "address"
        }
      ],
      "stateMutability": "view",
      "type": "function"
    },
    {
      "inputs": [],
      "name": "renounceOwnership",
      "outputs": [],
      "stateMutability": "nonpayable",
      "type": "function"
    },
    {
      "inputs": [
        {
          "internalType": "uint256",
          "name": "",
          "type": "uint256"
        }
      ],
      "name": "requestIds",
      "outputs": [
        {
          "internalType": "uint256",
          "name": "",
          "type": "uint256"
        }
      ],
      "stateMutability": "view",
      "type": "function"
    },
    {
      "inputs": [
        {
          "internalType": "address",
          "name": "from",
          "type": "address"
        },
        {
          "internalType": "address",
          "name": "to",
          "type": "address"
        },
        {
          "internalType": "uint256",
          "name": "tokenId",
          "type": "uint256"
        }
      ],
      "name": "safeTransferFrom",
      "outputs": [],
      "stateMutability": "nonpayable",
      "type": "function"
    },
    {
      "inputs": [
        {
          "internalType": "address",
          "name": "from",
          "type": "address"
        },
        {
          "internalType": "address",
          "name": "to",
          "type": "address"
        },
        {
          "internalType": "uint256",
          "name": "tokenId",
          "type": "uint256"
        },
        {
          "internalType": "bytes",
          "name": "_data",
          "type": "bytes"
        }
      ],
      "name": "safeTransferFrom",
      "outputs": [],
      "stateMutability": "nonpayable",
      "type": "function"
    },
    {
      "inputs": [
        {
          "internalType": "address",
          "name": "operator",
          "type": "address"
        },
        {
          "internalType": "bool",
          "name": "approved",
          "type": "bool"
        }
      ],
      "name": "setApprovalForAll",
      "outputs": [],
      "stateMutability": "nonpayable",
      "type": "function"
    },
    {
      "inputs": [
        {
          "internalType": "address",
          "name": "_renderingContractAddress",
          "type": "address"
        }
      ],
      "name": "setRenderingContractAddress",
      "outputs": [],
      "stateMutability": "nonpayable",
      "type": "function"
    },
    {
      "inputs": [
        {
          "internalType": "bytes4",
          "name": "interfaceId",
          "type": "bytes4"
        }
      ],
      "name": "supportsInterface",
      "outputs": [
        {
          "internalType": "bool",
          "name": "",
          "type": "bool"
        }
      ],
      "stateMutability": "view",
      "type": "function"
    },
    {
      "inputs": [],
      "name": "symbol",
      "outputs": [
        {
          "internalType": "string",
          "name": "",
          "type": "string"
        }
      ],
      "stateMutability": "view",
      "type": "function"
    },
    {
      "inputs": [
        {
          "internalType": "uint256[]",
          "name": "tokenIds",
          "type": "uint256[]"
        }
      ],
      "name": "toggleMetta",
      "outputs": [],
      "stateMutability": "nonpayable",
      "type": "function"
    },
    {
      "inputs": [
        {
          "internalType": "uint256",
          "name": "index",
          "type": "uint256"
        }
      ],
      "name": "tokenByIndex",
      "outputs": [
        {
          "internalType": "uint256",
          "name": "",
          "type": "uint256"
        }
      ],
      "stateMutability": "view",
      "type": "function"
    },
    {
      "inputs": [
        {
          "internalType": "uint256",
          "name": "_tokenId",
          "type": "uint256"
        }
      ],
      "name": "tokenData",
      "outputs": [
        {
          "components": [
            {
              "internalType": "string",
              "name": "image",
              "type": "string"
            },
            {
              "internalType": "string",
              "name": "description",
              "type": "string"
            },
            {
              "internalType": "string",
              "name": "name",
              "type": "string"
            },
            {
              "components": [
                {
                  "internalType": "string",
                  "name": "trait_type",
                  "type": "string"
                },
                {
                  "internalType": "string",
                  "name": "value",
                  "type": "string"
                }
              ],
              "internalType": "struct Attribute[]",
              "name": "attributes",
              "type": "tuple[]"
            }
          ],
          "internalType": "struct TokenData",
          "name": "",
          "type": "tuple"
        }
      ],
      "stateMutability": "view",
      "type": "function"
    },
    {
      "inputs": [
        {
          "internalType": "address",
          "name": "owner",
          "type": "address"
        },
        {
          "internalType": "uint256",
          "name": "index",
          "type": "uint256"
        }
      ],
      "name": "tokenOfOwnerByIndex",
      "outputs": [
        {
          "internalType": "uint256",
          "name": "",
          "type": "uint256"
        }
      ],
      "stateMutability": "view",
      "type": "function"
    },
    {
      "inputs": [
        {
          "internalType": "uint256",
          "name": "_tokenId",
          "type": "uint256"
        }
      ],
      "name": "tokenURI",
      "outputs": [
        {
          "internalType": "string",
          "name": "",
          "type": "string"
        }
      ],
      "stateMutability": "view",
      "type": "function"
    },
    {
      "inputs": [],
      "name": "totalSupply",
      "outputs": [
        {
          "internalType": "uint256",
          "name": "",
          "type": "uint256"
        }
      ],
      "stateMutability": "view",
      "type": "function"
    },
    {
      "inputs": [
        {
          "internalType": "address",
          "name": "from",
          "type": "address"
        },
        {
          "internalType": "address",
          "name": "to",
          "type": "address"
        },
        {
          "internalType": "uint256",
          "name": "tokenId",
          "type": "uint256"
        }
      ],
      "name": "transferFrom",
      "outputs": [],
      "stateMutability": "nonpayable",
      "type": "function"
    },
    {
      "inputs": [
        {
          "internalType": "address",
          "name": "newOwner",
          "type": "address"
        }
      ],
      "name": "transferOwnership",
      "outputs": [],
      "stateMutability": "nonpayable",
      "type": "function"
    },
    {
      "inputs": [],
      "name": "withdraw",
      "outputs": [],
      "stateMutability": "nonpayable",
      "type": "function"
    },
    {
      "stateMutability": "payable",
      "type": "receive"
    }
  ],
  "transactionHash": "0x07aead8db4d887568be448c868afb5e3b5dda5fa026c89f805cde084ef0764a2",
  "args": [
    "Co-Bots 2.0",
    "CBTE",
    "0x04af8975918169Ae48B25DA78D5145BD673B2b6E",
    "0x271682DEB8C4E0901D1a1550aD2e64D568E69909",
    "0x514910771AF9Ca656af840dff83E8264EcF986CA",
    "0x9fe0eebf5e446e3c998ec9bb19951541aee00bb90ea201ae456421a2ded86805",
    {
      "cobotsV1Discount": "2",
      "mintOutFoundersWithdrawalDelay": 7200,
      "grandPrizeDelay": 3600,
      "maxCobots": 10000,
      "contestDuration": 2419200,
      "mintPublicPrice": "50000000000000000"
    },
    [
      {
        "checkpoint": 100,
        "amount": "1000000000000000000",
        "isContest": false
      },
      {
        "checkpoint": 200,
        "amount": "2000000000000000000",
        "isContest": false
      },
      {
        "checkpoint": 300,
        "amount": "3000000000000000000",
        "isContest": false
      },
      {
        "checkpoint": 400,
        "amount": "4000000000000000000",
        "isContest": false
      },
      {
        "checkpoint": 500,
        "amount": "1000000000000000000",
        "isContest": true
      },
      {
        "checkpoint": 500,
        "amount": "1000000000000000000",
        "isContest": true
      },
      {
        "checkpoint": 500,
        "amount": "1000000000000000000",
        "isContest": true
      },
      {
        "checkpoint": 500,
        "amount": "1000000000000000000",
        "isContest": true
      },
      {
        "checkpoint": 500,
        "amount": "1000000000000000000",
        "isContest": true
      },
      {
        "checkpoint": 750,
        "amount": "6000000000000000000",
        "isContest": false
      },
      {
        "checkpoint": 1000,
        "amount": "7000000000000000000",
        "isContest": false
      },
      {
        "checkpoint": 1500,
        "amount": "8000000000000000000",
        "isContest": false
      },
      {
        "checkpoint": 2000,
        "amount": "9000000000000000000",
        "isContest": false
      },
      {
        "checkpoint": 3000,
        "amount": "2000000000000000000",
        "isContest": true
      },
      {
        "checkpoint": 3000,
        "amount": "2000000000000000000",
        "isContest": true
      },
      {
        "checkpoint": 3000,
        "amount": "2000000000000000000",
        "isContest": true
      },
      {
        "checkpoint": 3000,
        "amount": "2000000000000000000",
        "isContest": true
      },
      {
        "checkpoint": 3000,
        "amount": "2000000000000000000",
        "isContest": true
      },
      {
        "checkpoint": 4000,
        "amount": "12000000000000000000",
        "isContest": false
      },
      {
        "checkpoint": 5000,
        "amount": "14000000000000000000",
        "isContest": false
      },
      {
        "checkpoint": 5000,
        "amount": "50000000000000000000",
        "isContest": true
      },
      {
        "checkpoint": 6000,
        "amount": "16000000000000000000",
        "isContest": false
      },
      {
        "checkpoint": 7000,
        "amount": "18000000000000000000",
        "isContest": false
      },
      {
        "checkpoint": 8000,
        "amount": "4000000000000000000",
        "isContest": true
      },
      {
        "checkpoint": 8000,
        "amount": "4000000000000000000",
        "isContest": true
      },
      {
        "checkpoint": 8000,
        "amount": "4000000000000000000",
        "isContest": true
      },
      {
        "checkpoint": 8000,
        "amount": "4000000000000000000",
        "isContest": true
      },
      {
        "checkpoint": 8000,
        "amount": "4000000000000000000",
        "isContest": true
      },
      {
        "checkpoint": 9000,
        "amount": "22000000000000000000",
        "isContest": false
      },
      {
        "checkpoint": 10000,
        "amount": "24000000000000000000",
        "isContest": false
      },
      {
        "checkpoint": 10000,
        "amount": "69000000000000000000",
        "isContest": false
      }
    ],
    "0x57f1887a8BF19b14fC0dF6Fd9B2acc9Af147eA85",
    "0x2eFa2743B863F3Bd6f624Ac0d58445bC5fB62bf6",
    {
      "ensId": "50339762084112735281647694152894396699789156759838299774246919152996091353870",
      "value": 42,
      "prizeIndex": 20
    }
  ],
  "numDeployments": 1,
  "solcInputHash": "3f3a7a07ba693ece650a8364d5206154",
  "bytecode": "0x6101606040523480156200001257600080fd5b5060405162005d0238038062005d028339810160408190526200003591620007e6565b878b8b81600190805190602001906200005092919062000331565b5080516200006690600290602084019062000331565b5050506001600160a01b0316608052620000803362000253565b60016008556200009089620002a5565b6001600160a01b03808916610100528716610120526101408690528451600b80546020880151604089015160608a015160808b015160a08c01516001600160481b03908116600160901b02600160901b600160d81b03199190921669010000000000000000000216600160481b600160d81b031962ffffff90931666010000000000000262ffffff60301b1961ffff958616640100000000021664ffffffffff60201b19968616620100000263ffffffff199098169590991694909417959095179390931695909517179390931617919091179055835160005b818110156200020657600c8682815181106200018a576200018a62000947565b6020908102919091018101518254600181810185556000948552938390208251910180549383015160409093015115156b0100000000000000000000000260ff60581b196001600160481b0390941662010000026001600160581b031990951661ffff909316929092179390931791909116179055016200016a565b50506001600160a01b0392831660a052911660e081905260c0528051600d556020810151600e5560400151600f805460ff191660ff90921691909117905550620009df9650505050505050565b600780546001600160a01b038381166001600160a01b0319831681179093556040519116919082907f8be0079c531659141344cd1fd0a4f28419497f9722a3daafe3b4186f6b6457e090600090a35050565b6007546001600160a01b03163314620002db5760405162461bcd60e51b8152600401620002d2906200095d565b60405180910390fd5b601080546001600160a01b0383166001600160a01b0319918216811790925560118054909116821790556040517f2926c01a1380ae82a404a8c554ad486a6842a4a320d80b770e2930d763825e4f90600090a250565b8280546200033f90620009ae565b90600052602060002090601f016020900481019282620003635760008555620003ae565b82601f106200037e57805160ff1916838001178555620003ae565b82800160010185558215620003ae579182015b82811115620003ae57825182559160200191906001019062000391565b50620003bc929150620003c0565b5090565b5b80821115620003bc5760008155600101620003c1565b634e487b7160e01b600052604160045260246000fd5b601f19601f83011681016001600160401b0381118282101715620004155762000415620003d7565b6040525050565b60006200042860405190565b9050620004368282620003ed565b919050565b60006001600160401b03821115620004575762000457620003d7565b601f19601f83011660200192915050565b60005b83811015620004855781810151838201526020016200046b565b8381111562000495576000848401525b50505050565b6000620004b2620004ac846200043b565b6200041c565b905082815260208101848484011115620004cf57620004cf600080fd5b620004dc84828562000468565b509392505050565b600082601f830112620004fa57620004fa600080fd5b81516200050c8482602086016200049b565b949350505050565b60006001600160a01b0382165b92915050565b620005328162000514565b81146200053e57600080fd5b50565b8051620005218162000527565b8062000532565b805162000521816200054e565b61ffff811662000532565b8051620005218162000562565b62ffffff811662000532565b805162000521816200057a565b6001600160481b03811662000532565b8051620005218162000593565b600060c08284031215620005c757620005c7600080fd5b620005d360c06200041c565b90506000620005e384846200056d565b908201526020620005f7848483016200056d565b9082015260406200060b848483016200056d565b9082015260606200061f8484830162000586565b9082015260806200063384848301620005a3565b9082015260a06200064784848301620005a3565b9082015292915050565b60006001600160401b038211156200066d576200066d620003d7565b5060209081020190565b80151562000532565b8051620005218162000677565b600060608284031215620006a457620006a4600080fd5b620006b060606200041c565b90506000620006c084846200056d565b908201526020620006d484848301620005a3565b908201526040620006478484830162000680565b6000620006f9620004ac8462000651565b838152905060208101606084028301858111156200071a576200071a600080fd5b835b8181101562000742576200073187826200068d565b83526020909201916060016200071c565b5050509392505050565b600082601f830112620007625762000762600080fd5b81516200050c848260208601620006e8565b60ff811662000532565b8051620005218162000774565b600060608284031215620007a257620007a2600080fd5b620007ae60606200041c565b90506000620007be848462000555565b908201526020620007d28484830162000555565b90820152604062000647848483016200077e565b60008060008060008060008060008060006102408c8e0312156200080d576200080d600080fd5b8b516001600160401b03811115620008285762000828600080fd5b620008368e828f01620004e4565b60208e0151909c5090506001600160401b03811115620008595762000859600080fd5b620008678e828f01620004e4565b9a505060406200087a8e828f0162000541565b99505060606200088d8e828f0162000541565b9850506080620008a08e828f0162000541565b97505060a0620008b38e828f0162000555565b96505060c0620008c68e828f01620005b0565b6101808e015190965090506001600160401b03811115620008ea57620008ea600080fd5b620008f88e828f016200074c565b9450506101a06200090c8e828f0162000541565b9350506101c0620009208e828f0162000541565b9250506101e0620009348e828f016200078b565b9150509295989b509295989b9093969950565b634e487b7160e01b600052603260045260246000fd5b60208082528181019081527f4f776e61626c653a2063616c6c6572206973206e6f7420746865206f776e657260408301526060820162000521565b634e487b7160e01b600052602260045260246000fd5b600281046001821680620009c357607f821691505b60208210811415620009d957620009d962000998565b50919050565b60805160a05160c05160e05161010051610120516101405161526d62000a9560003960008181610c680152818161125701526123ac0152600081816107860152612d8201526000818161069d0152818161122a0152818161191b0152818161237f01528181612c3601528181612d010152612dab01526000610b64015260008181610c3401528181611c050152612fbf0152600081816105550152610f680152600081816116bb01526116e3015261526d6000f3fe6080604052600436106103905760003560e01c80635a08cae5116101dc578063a9b5898f11610102578063d7822c99116100a0578063e985e9c51161006f578063e985e9c514610bb9578063f2fde38b14610c02578063fef490f314610c22578063ffae2b5614610c5657600080fd5b8063d7822c9914610b3c578063dce6c25914610b52578063dfc7e2c914610b86578063e10a64dd14610ba657600080fd5b8063b88d4fde116100dc578063b88d4fde14610abc578063c074f41214610adc578063c87b56dd14610afc578063cf62c8ab14610b1c57600080fd5b8063a9b5898f146109f6578063b4b5b48f14610a7a578063b585209b14610aa757600080fd5b806386758e711161017a57806395d89b411161014957806395d89b41146109895780639a14f79d1461099e578063a22cb465146109b4578063a715b15b146109d457600080fd5b806386758e711461090b5780638796ba8c1461092b5780638ada6b0f1461094b5780638da5cb5b1461096b57600080fd5b806370a08231116101b657806370a0823114610891578063715018a6146108b157806372c64f16146108c657806381870fd1146108f657600080fd5b80635a08cae5146107a85780636352211e1461085a57806368d99f7c1461087a57600080fd5b80631fd9d081116102c15780633b2bcbf11161025f5780634e02099f1161022e5780634e02099f146107145780634f558e79146107345780634f6ccce71461075457806355380dfb1461077457600080fd5b80633b2bcbf11461068b5780633ccfd60b146106bf57806342842e0e146106d457806349cae612146106f457600080fd5b806321e182081161029b57806321e182081461062157806323b872dd1461063657806324e9edb0146106565780632f745c591461066b57600080fd5b80631fd9d081146105a45780631fe543e3146105d357806320c5780c146105f357600080fd5b80630f8236081161032e57806318160ddd1161030857806318160ddd146104f25780631a6949e31461052e5780631d2e2cc4146105435780631fafadbc1461058457600080fd5b80630f8236081461049b57806312b40a9f146104bd578063143a3f92146104dd57600080fd5b8063081812fc1161036a578063081812fc14610417578063095ea7b3146104445780630badbd07146104665780630eecae211461048657600080fd5b806301ffc9a71461039c57806304035a92146103d257806306fdde03146103f557600080fd5b3661039757005b600080fd5b3480156103a857600080fd5b506103bc6103b7366004614054565b610c8a565b6040516103c9919061407f565b60405180910390f35b3480156103de57600080fd5b506103e8600a5481565b6040516103c99190614093565b34801561040157600080fd5b5061040a610d5b565b6040516103c991906140ff565b34801561042357600080fd5b50610437610432366004614128565b610ded565b6040516103c99190614163565b34801561045057600080fd5b5061046461045f366004614185565b610e4a565b005b34801561047257600080fd5b506104646104813660046141c2565b610f0a565b34801561049257600080fd5b50610464611082565b3480156104a757600080fd5b506104b0600381565b6040516103c991906141ed565b3480156104c957600080fd5b506104646104d83660046141fb565b61158a565b3480156104e957600080fd5b506104b0602081565b3480156104fe57600080fd5b506103e86000546001600160801b0370010000000000000000000000000000000082048116918116919091031690565b34801561053a57600080fd5b506103bc611617565b34801561054f57600080fd5b506105777f000000000000000000000000000000000000000000000000000000000000000081565b6040516103c9919061425e565b34801561059057600080fd5b506104b061059f366004614128565b611632565b3480156105b057600080fd5b506105c46105bf366004614128565b611666565b6040516103c993929190614287565b3480156105df57600080fd5b506104646105ee3660046143b4565b6116b0565b3480156105ff57600080fd5b506015546106149067ffffffffffffffff1681565b6040516103c99190614412565b34801561062d57600080fd5b50610464611744565b34801561064257600080fd5b50610464610651366004614420565b6118b3565b34801561066257600080fd5b506104646118be565b34801561067757600080fd5b506103e8610686366004614185565b6119a0565b34801561069757600080fd5b506105777f000000000000000000000000000000000000000000000000000000000000000081565b3480156106cb57600080fd5b50610464611ab6565b3480156106e057600080fd5b506104646106ef366004614420565b611f69565b34801561070057600080fd5b5061046461070f366004614470565b611f84565b34801561072057600080fd5b5061046461072f366004614185565b611ff9565b34801561074057600080fd5b506103bc61074f366004614128565b6120df565b34801561076057600080fd5b506103e861076f366004614128565b6120ea565b34801561078057600080fd5b506105777f000000000000000000000000000000000000000000000000000000000000000081565b3480156107b457600080fd5b5061084b6107c3366004614128565b6016602090815260009182526040918290208251606081018452815461ffff808216835268ffffffffffffffffff620100008304168386015260ff6b0100000000000000000000009092048216151583870152600184015486518088019097526002909401546001600160a01b0381168752600160a01b900416938501939093529291169083565b6040516103c9939291906144e5565b34801561086657600080fd5b50610437610875366004614128565b6121ae565b34801561088657600080fd5b50600a5415156103bc565b34801561089d57600080fd5b506103e86108ac3660046141fb565b6121c0565b3480156108bd57600080fd5b50610464612228565b3480156108d257600080fd5b506103bc6108e1366004614128565b60136020526000908152604090205460ff1681565b34801561090257600080fd5b5061046461225e565b34801561091757600080fd5b506103bc610926366004614128565b612636565b34801561093757600080fd5b506103e8610946366004614128565b612673565b34801561095757600080fd5b50601154610577906001600160a01b031681565b34801561097757600080fd5b506007546001600160a01b0316610437565b34801561099557600080fd5b5061040a612694565b3480156109aa57600080fd5b506103e860185481565b3480156109c057600080fd5b506104646109cf366004614520565b6126a3565b3480156109e057600080fd5b506109e9612755565b6040516103c991906145e3565b348015610a0257600080fd5b50600b54610a689061ffff808216916201000081048216916401000000008204169062ffffff66010000000000008204169068ffffffffffffffffff69010000000000000000008204811691720100000000000000000000000000000000000090041686565b6040516103c9969594939291906145ff565b348015610a8657600080fd5b50610a9a610a95366004614128565b6128e7565b6040516103c9919061476a565b348015610ab357600080fd5b50610464612a40565b348015610ac857600080fd5b50610464610ad7366004614812565b612aaf565b348015610ae857600080fd5b50601054610437906001600160a01b031681565b348015610b0857600080fd5b5061040a610b17366004614128565b612ae9565b348015610b2857600080fd5b50610464610b373660046148b0565b612bfb565b348015610b4857600080fd5b506103e860095481565b348015610b5e57600080fd5b506104377f000000000000000000000000000000000000000000000000000000000000000081565b348015610b9257600080fd5b50610464610ba1366004614923565b612e54565b610464610bb43660046143b4565b612eb1565b348015610bc557600080fd5b506103bc610bd436600461496b565b6001600160a01b03918216600090815260066020908152604080832093909416825291909152205460ff1690565b348015610c0e57600080fd5b50610464610c1d3660046141fb565b613205565b348015610c2e57600080fd5b506105777f000000000000000000000000000000000000000000000000000000000000000081565b348015610c6257600080fd5b506103e87f000000000000000000000000000000000000000000000000000000000000000081565b60006001600160e01b031982167f80ac58cd000000000000000000000000000000000000000000000000000000001480610ced57506001600160e01b031982167f5b5e139f00000000000000000000000000000000000000000000000000000000145b80610d2157506001600160e01b031982167f780e9d6300000000000000000000000000000000000000000000000000000000145b80610d5557507f01ffc9a7000000000000000000000000000000000000000000000000000000006001600160e01b03198316145b92915050565b606060018054610d6a906149b4565b80601f0160208091040260200160405190810160405280929190818152602001828054610d96906149b4565b8015610de35780601f10610db857610100808354040283529160200191610de3565b820191906000526020600020905b815481529060010190602001808311610dc657829003601f168201915b5050505050905090565b6000610df882613261565b610e2e576040517fcf4700e400000000000000000000000000000000000000000000000000000000815260040160405180910390fd5b506000908152600560205260409020546001600160a01b031690565b6000610e55826121ae565b9050806001600160a01b0316836001600160a01b03161415610ea3576040517f943f7b8c00000000000000000000000000000000000000000000000000000000815260040160405180910390fd5b336001600160a01b03821614801590610ec35750610ec18133610bd4565b155b15610efa576040517fcfb3b94200000000000000000000000000000000000000000000000000000000815260040160405180910390fd5b610f05838383613295565b505050565b60026008541415610f365760405162461bcd60e51b8152600401610f2d90614a0d565b60405180910390fd5b6002600855600d546040517f6352211e00000000000000000000000000000000000000000000000000000000815233917f00000000000000000000000000000000000000000000000000000000000000006001600160a01b031691636352211e91610fa391600401614093565b602060405180830381865afa158015610fc0573d6000803e3d6000fd5b505050506040513d601f19601f82011682018060405250810190610fe49190614a28565b6001600160a01b031614611024576040517fb2c6179c00000000000000000000000000000000000000000000000000000000815260040160405180910390fd5b600e54821461105f576040517f8f6d9d6300000000000000000000000000000000000000000000000000000000815260040160405180910390fd5b600f54611079906110729060ff166132fe565b3383613339565b50506001600855565b600260085414156110a55760405162461bcd60e51b8152600401610f2d90614a0d565b600260085560175460155467ffffffffffffffff166110f0576040517f15cd15ad00000000000000000000000000000000000000000000000000000000815260040160405180910390fd5b6110f86135f9565b61112e576040517fc3a7d74d00000000000000000000000000000000000000000000000000000000815260040160405180910390fd5b600054611145906001600160801b03166001614a5f565b6001600160801b0316600c828154811061116157611161614a97565b60009182526020909120015461ffff161015611581576000600c828154811061118c5761118c614a97565b6000918252602090912001546b010000000000000000000000900460ff1680156111d35750600b546009546111d0916601000000000000900462ffffff1690614aad565b42105b806111e25750600f5460ff1682145b156111f7576111f0826132fe565b90506112dd565b6015546040517f5d3b1d300000000000000000000000000000000000000000000000000000000081526001600160a01b037f00000000000000000000000000000000000000000000000000000000000000001691635d3b1d3091611297917f00000000000000000000000000000000000000000000000000000000000000009167ffffffffffffffff909116906005906207a12090600190600401614aee565b6020604051808303816000875af11580156112b6573d6000803e3d6000fd5b505050506040513d601f19601f820116820180604052508101906112da9190614b45565b90505b600c82815481106112f0576112f0614a97565b6000918252602082200154601880546201000090920468ffffffffffffffffff1692909161131f908490614aad565b925050819055506040518060600160405280600c848154811061134457611344614a97565b6000918252602080832060408051606081018252939091015461ffff80821685526201000080830468ffffffffffffffffff908116878701526b0100000000000000000000009384900460ff161515878601529588528785018790528351808501855287815280860188905297840197909752888652601684529482902087518051825482870151928601519189166affffffffffffffffffffff199091161791909616909702969096176bff00000000000000000000001916931515029290921784558481015160018501805460ff191691151591909117905593015180516002909301805491909401516001600160a01b0390931675ffffffffffffffffffffffffffffffffffffffffffff1990911617600160a01b9290911691909102179055600c805482917fb40531e03f8d4be5f5bb24f4d1811140fbead25a449a04cdb8e941384a810702918590811061149f5761149f614a97565b906000526020600020016040516114b69190614be8565b60405180910390a2816114c881614bf6565b60178054600181810183556000929092527fc624b66cc0138b8fabc209247f72d758e1cf3343756d543badbf24212bed8c1501849055600c5491945061150f925090614c11565b821480156115355750600b54600a546115329162010000900461ffff1690614aad565b42105b15611541575050611583565b600c5482141561157b576040517fc4f545db975f34de8f12b4353fa42dd295e802239df19ebbe5fd3c245dad0a5a90600090a15050611583565b5061112e565b505b6001600855565b6007546001600160a01b031633146115b45760405162461bcd60e51b8152600401610f2d90614c5c565b601080546001600160a01b03831673ffffffffffffffffffffffffffffffffffffffff19918216811790925560118054909116821790556040517f2926c01a1380ae82a404a8c554ad486a6842a4a320d80b770e2930d763825e4f90600090a250565b600060095460001415801561162d575060095442115b905090565b6012818154811061164257600080fd5b9060005260206000209060209182820401919006915054906101000a900460ff1681565b600c818154811061167657600080fd5b60009182526020909120015461ffff8116915062010000810468ffffffffffffffffff16906b010000000000000000000000900460ff1683565b336001600160a01b037f0000000000000000000000000000000000000000000000000000000000000000161461173657337f00000000000000000000000000000000000000000000000000000000000000006040517f1cf993f4000000000000000000000000000000000000000000000000000000008152600401610f2d929190614c6c565b6117408282613699565b5050565b6007546001600160a01b0316331461176e5760405162461bcd60e51b8152600401610f2d90614c5c565b600a546117a7576040517fe5b93aca00000000000000000000000000000000000000000000000000000000815260040160405180910390fd5b600b54600a546117bb9161ffff1690614aad565b4210156117f4576040517f3e8e963c00000000000000000000000000000000000000000000000000000000815260040160405180910390fd5b6040514790600090339083908381818185875af1925050503d8060008114611838576040519150601f19603f3d011682016040523d82523d6000602084013e61183d565b606091505b5050905080611878576040517f27fcd9d100000000000000000000000000000000000000000000000000000000815260040160405180910390fd5b7f4e70a604b23a8edee2b1d0a656e9b9c00b73ad8bb1afc2c59381ee9f69197de7826040516118a79190614093565b60405180910390a15050565b610f0583838361372c565b6007546001600160a01b031633146118e85760405162461bcd60e51b8152600401610f2d90614c5c565b6015546040517fd7ae1d300000000000000000000000000000000000000000000000000000000081526001600160a01b037f0000000000000000000000000000000000000000000000000000000000000000169163d7ae1d309161195b9167ffffffffffffffff16903390600401614c87565b600060405180830381600087803b15801561197557600080fd5b505af1158015611989573d6000803e3d6000fd5b50506015805467ffffffffffffffff191690555050565b60006119ab836121c0565b82106119e3576040517f0ddac30e00000000000000000000000000000000000000000000000000000000815260040160405180910390fd5b600080546001600160801b03169080805b83811015611ab057600081815260036020908152604091829020825160608101845290546001600160a01b0381168252600160a01b810467ffffffffffffffff1692820192909252600160e01b90910460ff161580159282019290925290611a5c5750611aa8565b80516001600160a01b031615611a7157805192505b876001600160a01b0316836001600160a01b03161415611aa65786841415611a9f57509350610d5592505050565b6001909301925b505b6001016119f4565b50600080fd5b6007546001600160a01b03163314611ae05760405162461bcd60e51b8152600401610f2d90614c5c565b611ae86135f9565b15611b1e576040517fa8ad87cbcccddb5ba11ee5851b9075d95af2c88adb9ad0ae9a4f40b810b74cb590600090a1611b1e611082565b601754479060005b81811015611bc5576016600060178381548110611b4557611b45614a97565b6000918252602080832090910154835282019290925260400190206001015460ff16611bbd576016600060178381548110611b8257611b82614a97565b60009182526020808320909101548352820192909252604001902054611bba9068ffffffffffffffffff620100009091041684614c11565b92505b600101611b26565b508180611bfe576040517f356680b700000000000000000000000000000000000000000000000000000000815260040160405180910390fd5b60006014547f00000000000000000000000000000000000000000000000000000000000000006001600160a01b03166318160ddd6040518163ffffffff1660e01b8152600401602060405180830381865afa158015611c61573d6000803e3d6000fd5b505050506040513d601f19601f82011682018060405250810190611c859190614b45565b611c8f9190614c11565b600054600c546017549293506001600160801b03909116915b81811015611ea657600083600c8381548110611cc657611cc6614a97565b600091825260209091200154611ce0919061ffff16614c11565b905080851115611d5957600b54611d279068ffffffffffffffffff720100000000000000000000000000000000000082048116916901000000000000000000900416614cab565b611d3c9068ffffffffffffffffff1682614cce565b611d469089614aad565b9750611d528186614c11565b9450611df5565b600b546901000000000000000000900468ffffffffffffffffff16611d7e8683614c11565b611d889190614cce565b600b54611dc59068ffffffffffffffffff720100000000000000000000000000000000000082048116916901000000000000000000900416614cab565b611dda9068ffffffffffffffffff1687614cce565b611de49190614aad565b611dee9089614aad565b9750600094505b600c8281548110611e0857611e08614a97565b600091825260209091200154611e2f9062010000900468ffffffffffffffffff1689614c11565b97506001881015611e6c576040517f356680b700000000000000000000000000000000000000000000000000000000815260040160405180910390fd5b85881015611e78578795505b600c8281548110611e8b57611e8b614a97565b60009182526020909120015461ffff16935050600101611ca8565b50604051600090339086908381818185875af1925050503d8060008114611ee9576040519150601f19603f3d011682016040523d82523d6000602084013e611eee565b606091505b5050905080611f29576040517f27fcd9d100000000000000000000000000000000000000000000000000000000815260040160405180910390fd5b7f4e70a604b23a8edee2b1d0a656e9b9c00b73ad8bb1afc2c59381ee9f69197de785604051611f589190614093565b60405180910390a150505050505050565b610f0583838360405180602001604052806000815250612aaf565b60026008541415611fa75760405162461bcd60e51b8152600401610f2d90614a0d565b60026008556007546001600160a01b03163314611fd65760405162461bcd60e51b8152600401610f2d90614c5c565b6000611fe1846132fe565b9050611fee818484613339565b505060016008555050565b6007546001600160a01b031633146120235760405162461bcd60e51b8152600401610f2d90614c5c565b600b546000548291640100000000900461ffff169061204c9083906001600160801b0316614aad565b1115612084576040517ffd59427a00000000000000000000000000000000000000000000000000000000815260040160405180910390fd5b60005460039061209d906001600160801b031684614aad565b11156120d5576040517f74a5d1f500000000000000000000000000000000000000000000000000000000815260040160405180910390fd5b610f058383613994565b6000610d5582613261565b600080546001600160801b031681805b8281101561217b57600081815260036020908152604091829020825160608101845290546001600160a01b0381168252600160a01b810467ffffffffffffffff1692820192909252600160e01b90910460ff16151591810182905290612172578583141561216b5750949350505050565b6001909201915b506001016120fa565b506040517fa723001c00000000000000000000000000000000000000000000000000000000815260040160405180910390fd5b60006121b982613a9b565b5192915050565b60006001600160a01b038216612202576040517f8f4eb60400000000000000000000000000000000000000000000000000000000815260040160405180910390fd5b506001600160a01b031660009081526004602052604090205467ffffffffffffffff1690565b6007546001600160a01b031633146122525760405162461bcd60e51b8152600401610f2d90614c5c565b61225c6000613bd8565b565b600260085414156122815760405162461bcd60e51b8152600401610f2d90614a0d565b600260085560175460005b818110156110795760166000601783815481106122ab576122ab614a97565b6000918252602080832090910154835282019290925260400190206001015460ff16158015612344575060166000601783815481106122ec576122ec614a97565b6000918252602080832090910154835282019290925260400190205460ff6b0100000000000000000000009091041615806123445750600b54600954612341916601000000000000900462ffffff1690614aad565b42115b1561262e576015546040517f5d3b1d300000000000000000000000000000000000000000000000000000000081526000916001600160a01b037f00000000000000000000000000000000000000000000000000000000000000001691635d3b1d30916123ea917f00000000000000000000000000000000000000000000000000000000000000009167ffffffffffffffff16906005906207a12090600190600401614aee565b6020604051808303816000875af1158015612409573d6000803e3d6000fd5b505050506040513d601f19601f8201168201806040525081019061242d9190614b45565b90506040518060600160405280601660006017868154811061245157612451614a97565b600091825260208083209190910154835282810193909352604091820181208251606081018452905461ffff80821683526201000080830468ffffffffffffffffff908116858901526b0100000000000000000000009384900460ff1615158588015293885287870185905285518087018752858152808801869052978601979097528884526016808752858520895180518254828b0151928a01519186166affffffffffffffffffffff199091161791909616909902989098176bff000000000000000000000019169315159092029290921786558685015160018701805460ff1916911515919091179055959092015180516002909501805491909401516001600160a01b0390951675ffffffffffffffffffffffffffffffffffffffffffff1990911617600160a01b9490921693909302179055601780548590811061259c5761259c614a97565b60009182526020808320909101548352820192909252604001902080547fffffffffffffffffffffffffffffffffffffffff00000000000000000000000016815560018101805460ff19169055600201805475ffffffffffffffffffffffffffffffffffffffffffff19169055601780548291908490811061262057612620614a97565b600091825260209091200155505b60010161228c565b60006012828154811061264b5761264b614a97565b6000918252602091829020918104909101546001601f9092166101000a900481161492915050565b6017818154811061268357600080fd5b600091825260209091200154905081565b606060028054610d6a906149b4565b6001600160a01b0382163314156126e6576040517fb06307db00000000000000000000000000000000000000000000000000000000815260040160405180910390fd5b3360008181526006602090815260408083206001600160a01b038716808552925291829020805460ff191685151517905590519091907f17307eab39ab6107e8899845ad3d59bd9653f200f220920489ca2b5937696c319061274990859061407f565b60405180910390a35050565b60175460609060009067ffffffffffffffff811115612776576127766142af565b6040519080825280602002602001820160405280156127e657816020015b6040805160c0810182526000606082018181526080830182905260a083018290528252602080830182905283518085018552828152808201929092529282015282526000199092019101816127945790505b50905060005b6017548110156128e157601660006017838154811061280d5761280d614a97565b600091825260208083209091015483528281019390935260409182019020815160c081018352815461ffff8082166060840190815268ffffffffffffffffff62010000840416608085015260ff6b0100000000000000000000009093048316151560a085015283526001840154909116151582860152835180850185526002909301546001600160a01b0381168452600160a01b900416938201939093529082015282518390839081106128c3576128c3614a97565b602002602001018190525080806128d990614bf6565b9150506127ec565b50919050565b6129126040518060800160405280606081526020016060815260200160608152602001606081525090565b61291b82613261565b612951576040517fa14c4b5000000000000000000000000000000000000000000000000000000000815260040160405180910390fd5b6010546001600160a01b0316612993576040517f38bdd72700000000000000000000000000000000000000000000000000000000815260040160405180910390fd5b601154601280546001600160a01b03909216916344ec3631918591829081106129be576129be614a97565b90600052602060002090602091828204019190069054906101000a900460ff166040518363ffffffff1660e01b81526004016129fb929190614ced565b600060405180830381865afa158015612a18573d6000803e3d6000fd5b505050506040513d6000823e601f3d908101601f19168201604052610d559190810190614f4e565b6007546001600160a01b03163314612a6a5760405162461bcd60e51b8152600401610f2d90614c5c565b612a72611617565b15612aa9576040517fd205ec1b00000000000000000000000000000000000000000000000000000000815260040160405180910390fd5b42600955565b612aba84848461372c565b612ac684848484613c37565b612ae3576040516368d2bf6b60e11b815260040160405180910390fd5b50505050565b6060612af482613261565b612b2a576040517fa14c4b5000000000000000000000000000000000000000000000000000000000815260040160405180910390fd5b6010546001600160a01b0316612b4e57505060408051602081019091526000815290565b601154601280546001600160a01b0390921691635cc518ba91859182908110612b7957612b79614a97565b90600052602060002090602091828204019190069054906101000a900460ff166040518363ffffffff1660e01b8152600401612bb6929190614ced565b600060405180830381865afa158015612bd3573d6000803e3d6000fd5b505050506040513d6000823e601f3d908101601f19168201604052610d559190810190614f89565b60026008541415612c1e5760405162461bcd60e51b8152600401610f2d90614a0d565b600260085560155467ffffffffffffffff16612d72577f00000000000000000000000000000000000000000000000000000000000000006001600160a01b031663a21a23e46040518163ffffffff1660e01b81526004016020604051808303816000875af1158015612c94573d6000803e3d6000fd5b505050506040513d601f19601f82011682018060405250810190612cb89190614fdf565b6015805467ffffffffffffffff191667ffffffffffffffff9290921691821790556040517f7341c10c0000000000000000000000000000000000000000000000000000000081527f00000000000000000000000000000000000000000000000000000000000000006001600160a01b031691637341c10c91612d3f91903090600401614c87565b600060405180830381600087803b158015612d5957600080fd5b505af1158015612d6d573d6000803e3d6000fd5b505050505b6015546040516001600160a01b037f00000000000000000000000000000000000000000000000000000000000000001691634000aea0917f0000000000000000000000000000000000000000000000000000000000000000918591612de49167ffffffffffffffff1690602001614412565b6040516020818303038152906040526040518463ffffffff1660e01b8152600401612e1193929190615023565b6020604051808303816000875af1158015612e30573d6000803e3d6000fd5b505050506040513d601f19601f82011682018060405250810190611079919061505b565b60026008541415612e775760405162461bcd60e51b8152600401610f2d90614a0d565b60026008558060005b81811015611fee57612ea9848483818110612e9d57612e9d614a97565b90506020020135613d69565b600101612e80565b612eb9611617565b612eef576040517f63a2de0f00000000000000000000000000000000000000000000000000000000815260040160405180910390fd5b600b546000548391640100000000900461ffff1690612f189083906001600160801b0316614aad565b1115612f50576040517ffd59427a00000000000000000000000000000000000000000000000000000000815260040160405180910390fd5b60026008541415612f735760405162461bcd60e51b8152600401610f2d90614a0d565b6002600855600b54600090612fa19085906901000000000000000000900468ffffffffffffffffff16614cce565b8351909150600090815b8181101561319957336001600160a01b03167f00000000000000000000000000000000000000000000000000000000000000006001600160a01b0316636352211e888481518110612ffe57612ffe614a97565b60200260200101516040518263ffffffff1660e01b81526004016130229190614093565b602060405180830381865afa15801561303f573d6000803e3d6000fd5b505050506040513d601f19601f820116820180604052508101906130639190614a28565b6001600160a01b0316146130a3576040517f5246352300000000000000000000000000000000000000000000000000000000815260040160405180910390fd5b601360008783815181106130b9576130b9614a97565b60209081029190910181015182528101919091526040016000205460ff161580156130e357508683105b156131915760016013600088848151811061310057613100614a97565b6020026020010151815260200190815260200160002060006101000a81548160ff021916908315150217905550828061313890614bf6565b600b54909450613179915068ffffffffffffffffff720100000000000000000000000000000000000082048116916901000000000000000000900416614cab565b61318e9068ffffffffffffffffff1685614c11565b93505b600101612fab565b5081601460008282546131ac9190614aad565b90915550503483146131ee5782346040517f6871963e000000000000000000000000000000000000000000000000000000008152600401610f2d92919061507c565b6131f83387613994565b5050600160085550505050565b6007546001600160a01b0316331461322f5760405162461bcd60e51b8152600401610f2d90614c5c565b6001600160a01b0381166132555760405162461bcd60e51b8152600401610f2d90615097565b61325e81613bd8565b50565b600080546001600160801b031682108015610d55575050600090815260036020526040902054600160e01b900460ff161590565b600082815260056020526040808220805473ffffffffffffffffffffffffffffffffffffffff19166001600160a01b0387811691821790925591518593918516917f8c5be1e5ebec7d5bd14f71427d1e84f3dd0314c0f7b2291e5b200ac8c7c3b92591a4505050565b600061330b60ff836150f8565b60405160200161331b9190615124565b60408051601f19818403018152919052805160209091012092915050565b60008381526016602052604090206001015460ff1615613385576040517f636d49d300000000000000000000000000000000000000000000000000000000815260040160405180910390fd5b60008381526016602052604090205462010000900468ffffffffffffffffff166133db576040517f8e1773d800000000000000000000000000000000000000000000000000000000815260040160405180910390fd5b816001600160a01b03166133ee826121ae565b6001600160a01b03161461342e576040517f03e21ec200000000000000000000000000000000000000000000000000000000815260040160405180910390fd5b60008381526016602052604090205461344d9060019061ffff16615136565b61ffff1681111561348a576040517f518af55d00000000000000000000000000000000000000000000000000000000815260040160405180910390fd5b60008381526016602081815260408084206001818101805460ff19169091179055815180830183526001600160a01b0380891680835261ffff808a168488019081528c8a529790965282516002850180549851909716600160a01b0275ffffffffffffffffffffffffffffffffffffffffffff19909816921691909117959095179093555490519193929168ffffffffffffffffff62010000909204919091169060006040518083038185875af1925050503d8060008114613568576040519150601f19603f3d011682016040523d82523d6000602084013e61356d565b606091505b50509050806135a8576040517f90b8ec1800000000000000000000000000000000000000000000000000000000815260040160405180910390fd5b60008581526016602052604090819020905186917f7d2db4ed55b360e8ea7d70390d6f63a1404136410fa6f3f94a41d1cf99488a7f916135ea91908690615144565b60405180910390a25050505050565b600c54601754600091141561360e5750600090565b600c5461361d90600190614c11565b6017541480156136455750600b54600a546136429162010000900461ffff1690614aad565b42105b156136505750600090565b600054601754600c80546001600160801b0390931692909190811061367757613677614a97565b60009182526020909120015461ffff1611156136935750600090565b50600190565b60008281526016602052604090205461ffff16806136e3576040517f018bd28900000000000000000000000000000000000000000000000000000000815260040160405180910390fd5b600081836000815181106136f9576136f9614a97565b602002602001015161370b91906150f8565b90506000613718826121ae565b9050613725858284613339565b5050505050565b600061373782613a9b565b80519091506000906001600160a01b0316336001600160a01b03161480613765575081516137659033610bd4565b8061378057503361377584610ded565b6001600160a01b0316145b9050806137b9576040517f59c896be00000000000000000000000000000000000000000000000000000000815260040160405180910390fd5b846001600160a01b031682600001516001600160a01b031614613808576040517fa114810000000000000000000000000000000000000000000000000000000000815260040160405180910390fd5b6001600160a01b038416613848576040517fea553b3400000000000000000000000000000000000000000000000000000000815260040160405180910390fd5b6138586000848460000151613295565b6001600160a01b038581166000908152600460209081526040808320805467ffffffffffffffff1980821667ffffffffffffffff92831660001901831617909255898616808652838620805493841693831660019081018416949094179055898652600390945282852080546001600160e01b031916909417600160a01b42909216919091021790925590860180835291205490911661394d576000546001600160801b031681101561394d578251600082815260036020908152604090912080549186015167ffffffffffffffff16600160a01b026001600160e01b03199092166001600160a01b03909316929092171790555b5082846001600160a01b0316866001600160a01b03167fddf252ad1be2c89b69c2b068fc378daa952ba7f163c4a11628f55a4df523b3ef60405160405180910390a4613725565b60208111156139cf576040517f359fd04400000000000000000000000000000000000000000000000000000000815260040160405180910390fd5b600081333442446040516020016139ea959493929190615187565b60405160208183030381529060405280519060200120905060005b82811015613a635760126001838360208110613a2357613a23614a97565b83546001808201865560009586526020958690209582049095018054601f9092166101000a60ff818102199093169490931a90941b160217905501613a05565b50613a6e8383613e29565b600b5460005464010000000090910461ffff166001600160801b039091161415610f055742600a55505050565b60408051606081018252600080825260208201819052918101829052905482906001600160801b0316811015613ba657600081815260036020908152604091829020825160608101845290546001600160a01b0381168252600160a01b810467ffffffffffffffff1692820192909252600160e01b90910460ff16151591810182905290613ba45780516001600160a01b031615613b3a579392505050565b5060001901600081815260036020908152604091829020825160608101845290546001600160a01b038116808352600160a01b820467ffffffffffffffff1693830193909352600160e01b900460ff1615159281019290925215613b9f579392505050565b613b3a565b505b6040517fdf2d9b4200000000000000000000000000000000000000000000000000000000815260040160405180910390fd5b600780546001600160a01b0383811673ffffffffffffffffffffffffffffffffffffffff19831681179093556040519116919082907f8be0079c531659141344cd1fd0a4f28419497f9722a3daafe3b4186f6b6457e090600090a35050565b60006001600160a01b0384163b15613d5d576040517f150b7a020000000000000000000000000000000000000000000000000000000081526001600160a01b0385169063150b7a0290613c949033908990889088906004016151d1565b6020604051808303816000875af1925050508015613ccf575060408051601f3d908101601f19168201909252613ccc91810190615216565b60015b613d2a573d808015613cfd576040519150601f19603f3d011682016040523d82523d6000602084013e613d02565b606091505b508051613d22576040516368d2bf6b60e11b815260040160405180910390fd5b805181602001fd5b6001600160e01b0319167f150b7a0200000000000000000000000000000000000000000000000000000000149050613d61565b5060015b949350505050565b33613d73826121ae565b6001600160a01b031614613db3576040517fff68d35d00000000000000000000000000000000000000000000000000000000815260040160405180910390fd5b60128181548110613dc657613dc6614a97565b90600052602060002090602091828204019190069054906101000a900460ff1660011860128281548110613dfc57613dfc614a97565b90600052602060002090602091828204019190066101000a81548160ff021916908360ff16021790555050565b611740828260405180602001604052806000815250610f0583838360016000546001600160801b03166001600160a01b038516613e92576040517f2e07630000000000000000000000000000000000000000000000000000000000815260040160405180910390fd5b83613ec9576040517fb562e8dd00000000000000000000000000000000000000000000000000000000815260040160405180910390fd5b6001600160a01b038516600081815260046020908152604080832080547fffffffffffffffffffffffffffffffff00000000000000000000000000000000811667ffffffffffffffff8083168c0181169182176801000000000000000067ffffffffffffffff1990941690921783900481168c018116909202179091558584526003909252822080546001600160e01b031916909317600160a01b42909216919091021790915581905b85811015613ff45760405182906001600160a01b038916906000907fddf252ad1be2c89b69c2b068fc378daa952ba7f163c4a11628f55a4df523b3ef908290a4838015613fca5750613fc86000888488613c37565b155b15613fe8576040516368d2bf6b60e11b815260040160405180910390fd5b60019182019101613f73565b50600080547fffffffffffffffffffffffffffffffff00000000000000000000000000000000166001600160801b0392909216919091179055613725565b6001600160e01b031981165b811461325e57600080fd5b8035610d5581614032565b60006020828403121561406957614069600080fd5b6000613d618484614049565b8015155b82525050565b60208101610d558284614075565b80614079565b60208101610d55828461408d565b60005b838110156140bc5781810151838201526020016140a4565b83811115612ae35750506000910152565b60006140d7825190565b8084526020840193506140ee8185602086016140a1565b601f01601f19169290920192915050565b6020808252810161411081846140cd565b9392505050565b8061403e565b8035610d5581614117565b60006020828403121561413d5761413d600080fd5b6000613d61848461411d565b60006001600160a01b038216610d55565b61407981614149565b60208101610d55828461415a565b61403e81614149565b8035610d5581614171565b6000806040838503121561419b5761419b600080fd5b60006141a7858561417a565b92505060206141b88582860161411d565b9150509250929050565b600080604083850312156141d8576141d8600080fd5b60006141a7858561411d565b60ff8116614079565b60208101610d5582846141e4565b60006020828403121561421057614210600080fd5b6000613d61848461417a565b6000610d556001600160a01b038316614233565b90565b6001600160a01b031690565b6000610d558261421c565b6000610d558261423f565b6140798161424a565b60208101610d558284614255565b61ffff8116614079565b68ffffffffffffffffff8116614079565b60608101614295828661426c565b6142a26020830185614276565b613d616040830184614075565b634e487b7160e01b600052604160045260246000fd5b601f19601f830116810181811067ffffffffffffffff821117156142eb576142eb6142af565b6040525050565b60006142fd60405190565b905061430982826142c5565b919050565b600067ffffffffffffffff821115614328576143286142af565b5060209081020190565b60006143456143408461430e565b6142f2565b8381529050602080820190840283018581111561436457614364600080fd5b835b8181101561438657614378878261411d565b835260209283019201614366565b5050509392505050565b600082601f8301126143a4576143a4600080fd5b8135613d61848260208601614332565b600080604083850312156143ca576143ca600080fd5b60006143d6858561411d565b925050602083013567ffffffffffffffff8111156143f6576143f6600080fd5b6141b885828601614390565b67ffffffffffffffff8116614079565b60208101610d558284614402565b60008060006060848603121561443857614438600080fd5b6000614444868661417a565b93505060206144558682870161417a565b92505060406144668682870161411d565b9150509250925092565b60008060006060848603121561448857614488600080fd5b6000614444868661411d565b80516144a0838261426c565b5060208101516144b36020840182614276565b506040810151610f056040840182614075565b80516144d2838261415a565b506020810151610f05602084018261426c565b60c081016144f38286614494565b6145006060830185614075565b613d6160808301846144c6565b80151561403e565b8035610d558161450d565b6000806040838503121561453657614536600080fd5b6000614542858561417a565b92505060206141b885828601614515565b805161455f8382614494565b5060208101516145726060840182614075565b506040810151610f0560808401826144c6565b61458f8282614553565b5060c00190565b60200190565b60006145a6825190565b808452602093840193830160005b828110156145d95781516145c88782614585565b9650506020820191506001016145b4565b5093949350505050565b60208082528101614110818461459c565b62ffffff8116614079565b60c0810161460d828961426c565b61461a602083018861426c565b614627604083018761426c565b61463460608301866145f4565b6146416080830185614276565b61464e60a0830184614276565b979650505050505050565b805160408084526000919084019061467182826140cd565b9150506020830151848203602086015261468b82826140cd565b95945050505050565b60006141108383614659565b60006146aa825190565b808452602084019350836020820285016146c48560200190565b60005b848110156146f857838303885281516146e08482614694565b935050602082016020989098019791506001016146c7565b50909695505050505050565b805160808084526000919084019061471c82826140cd565b9150506020830151848203602086015261473682826140cd565b9150506040830151848203604086015261475082826140cd565b9150506060830151848203606086015261468b82826146a0565b602080825281016141108184614704565b600067ffffffffffffffff821115614795576147956142af565b601f19601f83011660200192915050565b82818337506000910152565b60006147c06143408461477b565b9050828152602081018484840111156147db576147db600080fd5b6147e68482856147a6565b509392505050565b600082601f83011261480257614802600080fd5b8135613d618482602086016147b2565b6000806000806080858703121561482b5761482b600080fd5b6000614837878761417a565b94505060206148488782880161417a565b93505060406148598782880161411d565b925050606085013567ffffffffffffffff81111561487957614879600080fd5b614885878288016147ee565b91505092959194509250565b6bffffffffffffffffffffffff811661403e565b8035610d5581614891565b6000602082840312156148c5576148c5600080fd5b6000613d6184846148a5565b60008083601f8401126148e6576148e6600080fd5b50813567ffffffffffffffff81111561490157614901600080fd5b60208301915083602082028301111561491c5761491c600080fd5b9250929050565b6000806020838503121561493957614939600080fd5b823567ffffffffffffffff81111561495357614953600080fd5b61495f858286016148d1565b92509250509250929050565b6000806040838503121561498157614981600080fd5b600061498d858561417a565b92505060206141b88582860161417a565b634e487b7160e01b600052602260045260246000fd5b6002810460018216806149c857607f821691505b602082108114156128e1576128e161499e565b601f8152602081017f5265656e7472616e637947756172643a207265656e7472616e742063616c6c0081529050614596565b60208082528101610d55816149db565b8051610d5581614171565b600060208284031215614a3d57614a3d600080fd5b6000613d618484614a1d565b634e487b7160e01b600052601160045260246000fd5b6001600160801b03811690506001600160801b03821691506000826001600160801b0303821115614a9257614a92614a49565b500190565b634e487b7160e01b600052603260045260246000fd5b60008219821115614a9257614a92614a49565b6000610d55825b61ffff1690565b61407981614ac0565b600063ffffffff8216610d55565b61407981614ad7565b60a08101614afc828861408d565b614b096020830187614402565b614b166040830186614ace565b614b236060830185614ae5565b614b306080830184614ae5565b9695505050505050565b8051610d5581614117565b600060208284031215614b5a57614b5a600080fd5b6000613d618484614b3a565b6000610d5582614ac7565b6000610d55614b808360101c90565b68ffffffffffffffffff1690565b6000610d55614b9d8360581c90565b60ff1690565b8054614bae81614b66565b614bb8848261426c565b50614bc281614b71565b614bcf6020850182614276565b50614bd981614b8e565b9050610f056040840182614075565b60608101610d558284614ba3565b6000600019821415614c0a57614c0a614a49565b5060010190565b815b9150600082821015614c2757614c27614a49565b500390565b60208082527f4f776e61626c653a2063616c6c6572206973206e6f7420746865206f776e65729101908152614596565b60208082528101610d5581614c2c565b60408101614c7a828561415a565b614110602083018461415a565b60408101614c7a8285614402565b634e487b7160e01b600052601260045260246000fd5b68ffffffffffffffffff9182169116600082614cc957614cc9614c95565b500490565b6000816000190483118215151615614ce857614ce8614a49565b500290565b60408101614cfb828561408d565b61411060208301846141e4565b6000614d166143408461477b565b905082815260208101848484011115614d3157614d31600080fd5b6147e68482856140a1565b600082601f830112614d5057614d50600080fd5b8151613d61848260208601614d08565b600060408284031215614d7557614d75600080fd5b614d7f60406142f2565b825190915067ffffffffffffffff811115614d9c57614d9c600080fd5b614da884828501614d3c565b825250602082015167ffffffffffffffff811115614dc857614dc8600080fd5b614dd484828501614d3c565b60208301525092915050565b6000614dee6143408461430e565b83815290506020808201908402830185811115614e0d57614e0d600080fd5b835b8181101561438657805167ffffffffffffffff811115614e3157614e31600080fd5b8501614e3d8882614d60565b84525060209283019201614e0f565b600082601f830112614e6057614e60600080fd5b8151613d61848260208601614de0565b600060808284031215614e8557614e85600080fd5b614e8f60806142f2565b825190915067ffffffffffffffff811115614eac57614eac600080fd5b614eb884828501614d3c565b825250602082015167ffffffffffffffff811115614ed857614ed8600080fd5b614ee484828501614d3c565b602083015250604082015167ffffffffffffffff811115614f0757614f07600080fd5b614f1384828501614d3c565b604083015250606082015167ffffffffffffffff811115614f3657614f36600080fd5b614f4284828501614e4c565b60608301525092915050565b600060208284031215614f6357614f63600080fd5b815167ffffffffffffffff811115614f7d57614f7d600080fd5b613d6184828501614e70565b600060208284031215614f9e57614f9e600080fd5b815167ffffffffffffffff811115614fb857614fb8600080fd5b613d6184828501614d3c565b67ffffffffffffffff811661403e565b8051610d5581614fc4565b600060208284031215614ff457614ff4600080fd5b6000613d618484614fd4565b6000610d556142306bffffffffffffffffffffffff841681565b61407981615000565b60608101615031828661415a565b61503e602083018561501a565b818103604083015261468b81846140cd565b8051610d558161450d565b60006020828403121561507057615070600080fd5b6000613d618484615050565b6040810161508a828561408d565b614110602083018461408d565b60208082528101610d5581602681527f4f776e61626c653a206e6577206f776e657220697320746865207a65726f206160208201527f6464726573730000000000000000000000000000000000000000000000000000604082015260600190565b60008261510757615107614c95565b500690565b6000610d558260f81b90565b61407960ff821661510c565b61512e8183615118565b600101919050565b61ffff908116908216614c13565b60a081016151528285614ba3565b61411060608301846144c6565b6000610d558260601b90565b6000610d558261515f565b61407961518282614149565b61516b565b615191818761408d565b60200161519e8186615176565b6014016151ab818561408d565b6020016151b8818461408d565b6020016151c5818361408d565b60200195945050505050565b608081016151df828761415a565b6151ec602083018661415a565b6151f9604083018561408d565b8181036060830152614b3081846140cd565b8051610d5581614032565b60006020828403121561522b5761522b600080fd5b6000613d61848461520b56fea26469706673582212207dd66c8d317298ce56e6a7158ceeab1e7aba2a50e9aee48f85e7c4089ad87e4864736f6c634300080c0033",
  "devdoc": {
    "kind": "dev",
    "methods": {
      "TheAnswer(uint256,uint256)": {
        "params": {
          "tokenId": "The selected token to be displayed on the website. This should be owned by the winner.",
          "value": "Word biggest mysteries are solved with this single value."
        }
      },
      "approve(address,uint256)": {
        "details": "See {IERC721-approve}."
      },
      "balanceOf(address)": {
        "details": "See {IERC721-balanceOf}."
      },
      "fulfillContest(uint256,address,uint256)": {
        "params": {
          "giveawayIndex": "The index of the giveaway to fulfill, 0 based (the first giveaway is index 0).",
          "selectedToken": "The selected token to be displayed on the website.",
          "winner": "The selected winner address."
        }
      },
      "getApproved(uint256)": {
        "details": "See {IERC721-getApproved}."
      },
      "isApprovedForAll(address,address)": {
        "details": "See {IERC721-isApprovedForAll}."
      },
      "isMettaEnabled(uint256)": {
        "params": {
          "tokenId": "The Co-Bot token ID"
        }
      },
      "mintPublicSale(uint256,uint256[])": {
        "details": "The tokenIdsV1 parameter can be empty. The call will revert only if the sender pretends to own some      Co-Bots V1 that they actually don't. However it accepts already redeemed token and just ignore them silently.      This is to make it easier for people using etherscan to copy a bunch of token Ids without having to      manually check if they are redeemed or not. However, it is optimal in terms of gas fees to only give      tokenIds if they can actually be redeemed.",
        "params": {
          "quantity": "The number of COBOTS to mint.",
          "tokenIdsV1": "A list of V1 Co-Bots token Ids owned by the sender, used to determine the discount."
        }
      },
      "name()": {
        "details": "See {IERC721Metadata-name}."
      },
      "owner()": {
        "details": "Returns the address of the current owner."
      },
      "ownerOf(uint256)": {
        "details": "See {IERC721-ownerOf}."
      },
      "renounceOwnership()": {
        "details": "Leaves the contract without owner. It will not be possible to call `onlyOwner` functions anymore. Can only be called by the current owner. NOTE: Renouncing ownership will leave the contract without an owner, thereby removing any functionality that is only available to the owner."
      },
      "safeTransferFrom(address,address,uint256)": {
        "details": "See {IERC721-safeTransferFrom}."
      },
      "safeTransferFrom(address,address,uint256,bytes)": {
        "details": "See {IERC721-safeTransferFrom}."
      },
      "setApprovalForAll(address,bool)": {
        "details": "See {IERC721-setApprovalForAll}."
      },
      "supportsInterface(bytes4)": {
        "details": "See {IERC165-supportsInterface}."
      },
      "symbol()": {
        "details": "See {IERC721Metadata-symbol}."
      },
      "tokenByIndex(uint256)": {
        "details": "See {IERC721Enumerable-tokenByIndex}. This read function is O(totalSupply). If calling from a separate contract, be sure to test gas first. It may also degrade with extremely large collection sizes (e.g >> 10000), test for your use case."
      },
      "tokenOfOwnerByIndex(address,uint256)": {
        "details": "See {IERC721Enumerable-tokenOfOwnerByIndex}. This read function is O(totalSupply). If calling from a separate contract, be sure to test gas first. It may also degrade with extremely large collection sizes (e.g >> 10000), test for your use case."
      },
      "totalSupply()": {
        "details": "See {IERC721Enumerable-totalSupply}."
      },
      "transferFrom(address,address,uint256)": {
        "details": "See {IERC721-transferFrom}."
      },
      "transferOwnership(address)": {
        "details": "Transfers ownership of the contract to a new account (`newOwner`). Can only be called by the current owner."
      }
    },
    "version": 1
  },
  "userdoc": {
    "kind": "user",
    "methods": {
      "TheAnswer(uint256,uint256)": {
        "notice": "Call this when, you know, you probably know what you're doing here.         revert."
      },
      "draw()": {
        "notice": "This function can be called at any time by anyone to trigger the unlocked giveaways. It will         revert if there is nothing to unlock to prevent anon from making useless tx. (Usually wallet, e.g.         metamask, warn this before signing).         Giveaways that use Chainlink VRF oracle will be fulfilled automatically by Chainlink. Giveaways that         require founders to unlock will be fulfilled by the founders."
      },
      "failsafeWithdraw()": {
        "notice": "A very basic function to act as a failsafe if the contract has a bug somewhere in the fulfill functions."
      },
      "fulfillContest(uint256,address,uint256)": {
        "notice": "This function lets the owner fulfill a giveaway. If the giveaway has not been unlocked, this will         revert."
      },
      "getOrderedFulfillments()": {
        "notice": "Use this to retrieve the ordered list of winners with their corresponding prizes and token Id.          Pending fulfillments are included (no winner drawn yet, probably waiting for Chainlink to fulfill)."
      },
      "isMettaEnabled(uint256)": {
        "notice": "Return true if the Co-Bot displays metta screen"
      },
      "mintPublicSale(uint256,uint256[])": {
        "notice": "Mints a batch of Co-Bots to the sender."
      },
      "redrawPendingFulfillments()": {
        "notice": "This function is a failsafe in case a Chainlink VRF request does not resolve          (behaviour experimented on rinkeby).          The new draws will override the previous ones."
      },
      "withdraw()": {
        "notice": "At any point in time, founders can withdraw only up to the required balance to insure that the giveaways          will be paid. We take a conservative approach considering that all the remaining discounted bots will be minted          as soon as possible."
      }
    },
    "version": 1
  },
  "storageLayout": {
    "storage": [
      {
        "astId": 12490,
        "contract": "contracts/co-bots/CoBotsV2.sol:CoBotsV2",
        "label": "_currentIndex",
        "offset": 0,
        "slot": "0",
        "type": "t_uint128"
      },
      {
        "astId": 12492,
        "contract": "contracts/co-bots/CoBotsV2.sol:CoBotsV2",
        "label": "_burnCounter",
        "offset": 16,
        "slot": "0",
        "type": "t_uint128"
      },
      {
        "astId": 12494,
        "contract": "contracts/co-bots/CoBotsV2.sol:CoBotsV2",
        "label": "_name",
        "offset": 0,
        "slot": "1",
        "type": "t_string_storage"
      },
      {
        "astId": 12496,
        "contract": "contracts/co-bots/CoBotsV2.sol:CoBotsV2",
        "label": "_symbol",
        "offset": 0,
        "slot": "2",
        "type": "t_string_storage"
      },
      {
        "astId": 12501,
        "contract": "contracts/co-bots/CoBotsV2.sol:CoBotsV2",
        "label": "_ownerships",
        "offset": 0,
        "slot": "3",
        "type": "t_mapping(t_uint256,t_struct(TokenOwnership)12481_storage)"
      },
      {
        "astId": 12506,
        "contract": "contracts/co-bots/CoBotsV2.sol:CoBotsV2",
        "label": "_addressData",
        "offset": 0,
        "slot": "4",
        "type": "t_mapping(t_address,t_struct(AddressData)12488_storage)"
      },
      {
        "astId": 12510,
        "contract": "contracts/co-bots/CoBotsV2.sol:CoBotsV2",
        "label": "_tokenApprovals",
        "offset": 0,
        "slot": "5",
        "type": "t_mapping(t_uint256,t_address)"
      },
      {
        "astId": 12516,
        "contract": "contracts/co-bots/CoBotsV2.sol:CoBotsV2",
        "label": "_operatorApprovals",
        "offset": 0,
        "slot": "6",
        "type": "t_mapping(t_address,t_mapping(t_address,t_bool))"
      },
      {
        "astId": 6106,
        "contract": "contracts/co-bots/CoBotsV2.sol:CoBotsV2",
        "label": "_owner",
        "offset": 0,
        "slot": "7",
        "type": "t_address"
      },
      {
        "astId": 6214,
        "contract": "contracts/co-bots/CoBotsV2.sol:CoBotsV2",
        "label": "_status",
        "offset": 0,
        "slot": "8",
        "type": "t_uint256"
      },
      {
        "astId": 11942,
        "contract": "contracts/co-bots/CoBotsV2.sol:CoBotsV2",
        "label": "publicSaleStartTimestamp",
        "offset": 0,
        "slot": "9",
        "type": "t_uint256"
      },
      {
        "astId": 11944,
        "contract": "contracts/co-bots/CoBotsV2.sol:CoBotsV2",
        "label": "mintedOutTimestamp",
        "offset": 0,
        "slot": "10",
        "type": "t_uint256"
      },
      {
        "astId": 10428,
        "contract": "contracts/co-bots/CoBotsV2.sol:CoBotsV2",
        "label": "PARAMETERS",
        "offset": 0,
        "slot": "11",
        "type": "t_struct(Parameters)10419_storage"
      },
      {
        "astId": 10432,
        "contract": "contracts/co-bots/CoBotsV2.sol:CoBotsV2",
        "label": "PRIZES",
        "offset": 0,
        "slot": "12",
        "type": "t_array(t_struct(Prize)10399_storage)dyn_storage"
      },
      {
        "astId": 10435,
        "contract": "contracts/co-bots/CoBotsV2.sol:CoBotsV2",
        "label": "MYSTERY_CHALLENGE",
        "offset": 0,
        "slot": "13",
        "type": "t_struct(MysteryChallenge)10406_storage"
      },
      {
        "astId": 10445,
        "contract": "contracts/co-bots/CoBotsV2.sol:CoBotsV2",
        "label": "renderingContractAddress",
        "offset": 0,
        "slot": "16",
        "type": "t_address"
      },
      {
        "astId": 10448,
        "contract": "contracts/co-bots/CoBotsV2.sol:CoBotsV2",
        "label": "renderer",
        "offset": 0,
        "slot": "17",
        "type": "t_contract(ICoBotsRendererV2)12104"
      },
      {
        "astId": 10451,
        "contract": "contracts/co-bots/CoBotsV2.sol:CoBotsV2",
        "label": "coBotsSeeds",
        "offset": 0,
        "slot": "18",
        "type": "t_array(t_uint8)dyn_storage"
      },
      {
        "astId": 10455,
        "contract": "contracts/co-bots/CoBotsV2.sol:CoBotsV2",
        "label": "coBotsV1Redeemed",
        "offset": 0,
        "slot": "19",
        "type": "t_mapping(t_uint256,t_bool)"
      },
      {
        "astId": 10457,
        "contract": "contracts/co-bots/CoBotsV2.sol:CoBotsV2",
        "label": "_redeemedCount",
        "offset": 0,
        "slot": "20",
        "type": "t_uint256"
      },
      {
        "astId": 11248,
        "contract": "contracts/co-bots/CoBotsV2.sol:CoBotsV2",
        "label": "chainlinkSubscriptionId",
        "offset": 0,
        "slot": "21",
        "type": "t_uint64"
      },
      {
        "astId": 11328,
        "contract": "contracts/co-bots/CoBotsV2.sol:CoBotsV2",
        "label": "fulfillments",
        "offset": 0,
        "slot": "22",
        "type": "t_mapping(t_uint256,t_struct(Fulfillment)11323_storage)"
      },
      {
        "astId": 11331,
        "contract": "contracts/co-bots/CoBotsV2.sol:CoBotsV2",
        "label": "requestIds",
        "offset": 0,
        "slot": "23",
        "type": "t_array(t_uint256)dyn_storage"
      },
      {
        "astId": 11333,
        "contract": "contracts/co-bots/CoBotsV2.sol:CoBotsV2",
        "label": "drawnAmount",
        "offset": 0,
        "slot": "24",
        "type": "t_uint256"
      }
    ],
    "types": {
      "t_address": {
        "encoding": "inplace",
        "label": "address",
        "numberOfBytes": "20"
      },
      "t_array(t_struct(Prize)10399_storage)dyn_storage": {
        "base": "t_struct(Prize)10399_storage",
        "encoding": "dynamic_array",
        "label": "struct CoBotsV2.Prize[]",
        "numberOfBytes": "32"
      },
      "t_array(t_uint256)dyn_storage": {
        "base": "t_uint256",
        "encoding": "dynamic_array",
        "label": "uint256[]",
        "numberOfBytes": "32"
      },
      "t_array(t_uint8)dyn_storage": {
        "base": "t_uint8",
        "encoding": "dynamic_array",
        "label": "uint8[]",
        "numberOfBytes": "32"
      },
      "t_bool": {
        "encoding": "inplace",
        "label": "bool",
        "numberOfBytes": "1"
      },
      "t_contract(ICoBotsRendererV2)12104": {
        "encoding": "inplace",
        "label": "contract ICoBotsRendererV2",
        "numberOfBytes": "20"
      },
      "t_mapping(t_address,t_bool)": {
        "encoding": "mapping",
        "key": "t_address",
        "label": "mapping(address => bool)",
        "numberOfBytes": "32",
        "value": "t_bool"
      },
      "t_mapping(t_address,t_mapping(t_address,t_bool))": {
        "encoding": "mapping",
        "key": "t_address",
        "label": "mapping(address => mapping(address => bool))",
        "numberOfBytes": "32",
        "value": "t_mapping(t_address,t_bool)"
      },
      "t_mapping(t_address,t_struct(AddressData)12488_storage)": {
        "encoding": "mapping",
        "key": "t_address",
        "label": "mapping(address => struct ERC721A.AddressData)",
        "numberOfBytes": "32",
        "value": "t_struct(AddressData)12488_storage"
      },
      "t_mapping(t_uint256,t_address)": {
        "encoding": "mapping",
        "key": "t_uint256",
        "label": "mapping(uint256 => address)",
        "numberOfBytes": "32",
        "value": "t_address"
      },
      "t_mapping(t_uint256,t_bool)": {
        "encoding": "mapping",
        "key": "t_uint256",
        "label": "mapping(uint256 => bool)",
        "numberOfBytes": "32",
        "value": "t_bool"
      },
      "t_mapping(t_uint256,t_struct(Fulfillment)11323_storage)": {
        "encoding": "mapping",
        "key": "t_uint256",
        "label": "mapping(uint256 => struct CoBotsV2.Fulfillment)",
        "numberOfBytes": "32",
        "value": "t_struct(Fulfillment)11323_storage"
      },
      "t_mapping(t_uint256,t_struct(TokenOwnership)12481_storage)": {
        "encoding": "mapping",
        "key": "t_uint256",
        "label": "mapping(uint256 => struct ERC721A.TokenOwnership)",
        "numberOfBytes": "32",
        "value": "t_struct(TokenOwnership)12481_storage"
      },
      "t_string_storage": {
        "encoding": "bytes",
        "label": "string",
        "numberOfBytes": "32"
      },
      "t_struct(AddressData)12488_storage": {
        "encoding": "inplace",
        "label": "struct ERC721A.AddressData",
        "members": [
          {
            "astId": 12483,
            "contract": "contracts/co-bots/CoBotsV2.sol:CoBotsV2",
            "label": "balance",
            "offset": 0,
            "slot": "0",
            "type": "t_uint64"
          },
          {
            "astId": 12485,
            "contract": "contracts/co-bots/CoBotsV2.sol:CoBotsV2",
            "label": "numberMinted",
            "offset": 8,
            "slot": "0",
            "type": "t_uint64"
          },
          {
            "astId": 12487,
            "contract": "contracts/co-bots/CoBotsV2.sol:CoBotsV2",
            "label": "numberBurned",
            "offset": 16,
            "slot": "0",
            "type": "t_uint64"
          }
        ],
        "numberOfBytes": "32"
      },
      "t_struct(Fulfillment)11323_storage": {
        "encoding": "inplace",
        "label": "struct CoBotsV2.Fulfillment",
        "members": [
          {
            "astId": 11317,
            "contract": "contracts/co-bots/CoBotsV2.sol:CoBotsV2",
            "label": "prize",
            "offset": 0,
            "slot": "0",
            "type": "t_struct(Prize)10399_storage"
          },
          {
            "astId": 11319,
            "contract": "contracts/co-bots/CoBotsV2.sol:CoBotsV2",
            "label": "fulfilled",
            "offset": 0,
            "slot": "1",
            "type": "t_bool"
          },
          {
            "astId": 11322,
            "contract": "contracts/co-bots/CoBotsV2.sol:CoBotsV2",
            "label": "winner",
            "offset": 0,
            "slot": "2",
            "type": "t_struct(Winner)11314_storage"
          }
        ],
        "numberOfBytes": "96"
      },
      "t_struct(MysteryChallenge)10406_storage": {
        "encoding": "inplace",
        "label": "struct CoBotsV2.MysteryChallenge",
        "members": [
          {
            "astId": 10401,
            "contract": "contracts/co-bots/CoBotsV2.sol:CoBotsV2",
            "label": "ensId",
            "offset": 0,
            "slot": "0",
            "type": "t_uint256"
          },
          {
            "astId": 10403,
            "contract": "contracts/co-bots/CoBotsV2.sol:CoBotsV2",
            "label": "value",
            "offset": 0,
            "slot": "1",
            "type": "t_uint256"
          },
          {
            "astId": 10405,
            "contract": "contracts/co-bots/CoBotsV2.sol:CoBotsV2",
            "label": "prizeIndex",
            "offset": 0,
            "slot": "2",
            "type": "t_uint8"
          }
        ],
        "numberOfBytes": "96"
      },
      "t_struct(Parameters)10419_storage": {
        "encoding": "inplace",
        "label": "struct CoBotsV2.Parameters",
        "members": [
          {
            "astId": 10408,
            "contract": "contracts/co-bots/CoBotsV2.sol:CoBotsV2",
            "label": "mintOutFoundersWithdrawalDelay",
            "offset": 0,
            "slot": "0",
            "type": "t_uint16"
          },
          {
            "astId": 10410,
            "contract": "contracts/co-bots/CoBotsV2.sol:CoBotsV2",
            "label": "grandPrizeDelay",
            "offset": 2,
            "slot": "0",
            "type": "t_uint16"
          },
          {
            "astId": 10412,
            "contract": "contracts/co-bots/CoBotsV2.sol:CoBotsV2",
            "label": "maxCobots",
            "offset": 4,
            "slot": "0",
            "type": "t_uint16"
          },
          {
            "astId": 10414,
            "contract": "contracts/co-bots/CoBotsV2.sol:CoBotsV2",
            "label": "contestDuration",
            "offset": 6,
            "slot": "0",
            "type": "t_uint24"
          },
          {
            "astId": 10416,
            "contract": "contracts/co-bots/CoBotsV2.sol:CoBotsV2",
            "label": "mintPublicPrice",
            "offset": 9,
            "slot": "0",
            "type": "t_uint72"
          },
          {
            "astId": 10418,
            "contract": "contracts/co-bots/CoBotsV2.sol:CoBotsV2",
            "label": "cobotsV1Discount",
            "offset": 18,
            "slot": "0",
            "type": "t_uint72"
          }
        ],
        "numberOfBytes": "32"
      },
      "t_struct(Prize)10399_storage": {
        "encoding": "inplace",
        "label": "struct CoBotsV2.Prize",
        "members": [
          {
            "astId": 10394,
            "contract": "contracts/co-bots/CoBotsV2.sol:CoBotsV2",
            "label": "checkpoint",
            "offset": 0,
            "slot": "0",
            "type": "t_uint16"
          },
          {
            "astId": 10396,
            "contract": "contracts/co-bots/CoBotsV2.sol:CoBotsV2",
            "label": "amount",
            "offset": 2,
            "slot": "0",
            "type": "t_uint72"
          },
          {
            "astId": 10398,
            "contract": "contracts/co-bots/CoBotsV2.sol:CoBotsV2",
            "label": "isContest",
            "offset": 11,
            "slot": "0",
            "type": "t_bool"
          }
        ],
        "numberOfBytes": "32"
      },
      "t_struct(TokenOwnership)12481_storage": {
        "encoding": "inplace",
        "label": "struct ERC721A.TokenOwnership",
        "members": [
          {
            "astId": 12476,
            "contract": "contracts/co-bots/CoBotsV2.sol:CoBotsV2",
            "label": "addr",
            "offset": 0,
            "slot": "0",
            "type": "t_address"
          },
          {
            "astId": 12478,
            "contract": "contracts/co-bots/CoBotsV2.sol:CoBotsV2",
            "label": "startTimestamp",
            "offset": 20,
            "slot": "0",
            "type": "t_uint64"
          },
          {
            "astId": 12480,
            "contract": "contracts/co-bots/CoBotsV2.sol:CoBotsV2",
            "label": "burned",
            "offset": 28,
            "slot": "0",
            "type": "t_bool"
          }
        ],
        "numberOfBytes": "32"
      },
      "t_struct(Winner)11314_storage": {
        "encoding": "inplace",
        "label": "struct CoBotsV2.Winner",
        "members": [
          {
            "astId": 11311,
            "contract": "contracts/co-bots/CoBotsV2.sol:CoBotsV2",
            "label": "winner",
            "offset": 0,
            "slot": "0",
            "type": "t_address"
          },
          {
            "astId": 11313,
            "contract": "contracts/co-bots/CoBotsV2.sol:CoBotsV2",
            "label": "tokenId",
            "offset": 20,
            "slot": "0",
            "type": "t_uint16"
          }
        ],
        "numberOfBytes": "32"
      },
      "t_uint128": {
        "encoding": "inplace",
        "label": "uint128",
        "numberOfBytes": "16"
      },
      "t_uint16": {
        "encoding": "inplace",
        "label": "uint16",
        "numberOfBytes": "2"
      },
      "t_uint24": {
        "encoding": "inplace",
        "label": "uint24",
        "numberOfBytes": "3"
      },
      "t_uint256": {
        "encoding": "inplace",
        "label": "uint256",
        "numberOfBytes": "32"
      },
      "t_uint64": {
        "encoding": "inplace",
        "label": "uint64",
        "numberOfBytes": "8"
      },
      "t_uint72": {
        "encoding": "inplace",
        "label": "uint72",
        "numberOfBytes": "9"
      },
      "t_uint8": {
        "encoding": "inplace",
        "label": "uint8",
        "numberOfBytes": "1"
      }
    }
  }
}