{
  "address": "0xeef93673eebf4C3d8d8d88b747694ece8240ad6C",
  "abi": [
    {
      "inputs": [
        {
          "internalType": "address",
          "name": "link",
          "type": "address"
        },
        {
          "internalType": "address",
          "name": "blockhashStore",
          "type": "address"
        },
        {
          "internalType": "address",
          "name": "linkEthFeed",
          "type": "address"
        }
      ],
      "stateMutability": "nonpayable",
      "type": "constructor"
    },
    {
      "inputs": [
        {
          "internalType": "uint256",
          "name": "internalBalance",
          "type": "uint256"
        },
        {
          "internalType": "uint256",
          "name": "externalBalance",
          "type": "uint256"
        }
      ],
      "name": "BalanceInvariantViolated",
      "type": "error"
    },
    {
      "inputs": [
        {
          "internalType": "uint256",
          "name": "blockNum",
          "type": "uint256"
        }
      ],
      "name": "BlockhashNotInStore",
      "type": "error"
    },
    {
      "inputs": [
        {
          "internalType": "uint32",
          "name": "have",
          "type": "uint32"
        },
        {
          "internalType": "uint32",
          "name": "want",
          "type": "uint32"
        }
      ],
      "name": "GasLimitTooBig",
      "type": "error"
    },
    {
      "inputs": [],
      "name": "IncorrectCommitment",
      "type": "error"
    },
    {
      "inputs": [],
      "name": "InsufficientBalance",
      "type": "error"
    },
    {
      "inputs": [
        {
          "internalType": "uint256",
          "name": "have",
          "type": "uint256"
        },
        {
          "internalType": "uint256",
          "name": "want",
          "type": "uint256"
        }
      ],
      "name": "InsufficientGasForConsumer",
      "type": "error"
    },
    {
      "inputs": [],
      "name": "InvalidCalldata",
      "type": "error"
    },
    {
      "inputs": [
        {
          "internalType": "uint64",
          "name": "subId",
          "type": "uint64"
        },
        {
          "internalType": "address",
          "name": "consumer",
          "type": "address"
        }
      ],
      "name": "InvalidConsumer",
      "type": "error"
    },
    {
      "inputs": [
        {
          "internalType": "int256",
          "name": "linkWei",
          "type": "int256"
        }
      ],
      "name": "InvalidLinkWeiPrice",
      "type": "error"
    },
    {
      "inputs": [
        {
          "internalType": "uint16",
          "name": "have",
          "type": "uint16"
        },
        {
          "internalType": "uint16",
          "name": "min",
          "type": "uint16"
        },
        {
          "internalType": "uint16",
          "name": "max",
          "type": "uint16"
        }
      ],
      "name": "InvalidRequestConfirmations",
      "type": "error"
    },
    {
      "inputs": [],
      "name": "InvalidSubscription",
      "type": "error"
    },
    {
      "inputs": [
        {
          "internalType": "address",
          "name": "proposedOwner",
          "type": "address"
        }
      ],
      "name": "MustBeRequestedOwner",
      "type": "error"
    },
    {
      "inputs": [
        {
          "internalType": "address",
          "name": "owner",
          "type": "address"
        }
      ],
      "name": "MustBeSubOwner",
      "type": "error"
    },
    {
      "inputs": [],
      "name": "NoCorrespondingRequest",
      "type": "error"
    },
    {
      "inputs": [
        {
          "internalType": "bytes32",
          "name": "keyHash",
          "type": "bytes32"
        }
      ],
      "name": "NoSuchProvingKey",
      "type": "error"
    },
    {
      "inputs": [
        {
          "internalType": "uint32",
          "name": "have",
          "type": "uint32"
        },
        {
          "internalType": "uint32",
          "name": "want",
          "type": "uint32"
        }
      ],
      "name": "NumWordsTooBig",
      "type": "error"
    },
    {
      "inputs": [],
      "name": "OnlyCallableFromLink",
      "type": "error"
    },
    {
      "inputs": [],
      "name": "PaymentTooLarge",
      "type": "error"
    },
    {
      "inputs": [],
      "name": "PendingRequestExists",
      "type": "error"
    },
    {
      "inputs": [
        {
          "internalType": "bytes32",
          "name": "keyHash",
          "type": "bytes32"
        }
      ],
      "name": "ProvingKeyAlreadyRegistered",
      "type": "error"
    },
    {
      "inputs": [],
      "name": "Reentrant",
      "type": "error"
    },
    {
      "inputs": [],
      "name": "TooManyConsumers",
      "type": "error"
    },
    {
      "anonymous": false,
      "inputs": [
        {
          "indexed": false,
          "internalType": "uint16",
          "name": "minimumRequestConfirmations",
          "type": "uint16"
        },
        {
          "indexed": false,
          "internalType": "uint32",
          "name": "maxGasLimit",
          "type": "uint32"
        },
        {
          "indexed": false,
          "internalType": "uint32",
          "name": "stalenessSeconds",
          "type": "uint32"
        },
        {
          "indexed": false,
          "internalType": "uint32",
          "name": "gasAfterPaymentCalculation",
          "type": "uint32"
        },
        {
          "indexed": false,
          "internalType": "int256",
          "name": "fallbackWeiPerUnitLink",
          "type": "int256"
        },
        {
          "components": [
            {
              "internalType": "uint32",
              "name": "fulfillmentFlatFeeLinkPPMTier1",
              "type": "uint32"
            },
            {
              "internalType": "uint32",
              "name": "fulfillmentFlatFeeLinkPPMTier2",
              "type": "uint32"
            },
            {
              "internalType": "uint32",
              "name": "fulfillmentFlatFeeLinkPPMTier3",
              "type": "uint32"
            },
            {
              "internalType": "uint32",
              "name": "fulfillmentFlatFeeLinkPPMTier4",
              "type": "uint32"
            },
            {
              "internalType": "uint32",
              "name": "fulfillmentFlatFeeLinkPPMTier5",
              "type": "uint32"
            },
            {
              "internalType": "uint24",
              "name": "reqsForTier2",
              "type": "uint24"
            },
            {
              "internalType": "uint24",
              "name": "reqsForTier3",
              "type": "uint24"
            },
            {
              "internalType": "uint24",
              "name": "reqsForTier4",
              "type": "uint24"
            },
            {
              "internalType": "uint24",
              "name": "reqsForTier5",
              "type": "uint24"
            }
          ],
          "indexed": false,
          "internalType": "struct VRFCoordinatorV2.FeeConfig",
          "name": "feeConfig",
          "type": "tuple"
        }
      ],
      "name": "ConfigSet",
      "type": "event"
    },
    {
      "anonymous": false,
      "inputs": [
        {
          "indexed": false,
          "internalType": "address",
          "name": "to",
          "type": "address"
        },
        {
          "indexed": false,
          "internalType": "uint256",
          "name": "amount",
          "type": "uint256"
        }
      ],
      "name": "FundsRecovered",
      "type": "event"
    },
    {
      "anonymous": false,
      "inputs": [
        {
          "indexed": true,
          "internalType": "address",
          "name": "from",
          "type": "address"
        },
        {
          "indexed": true,
          "internalType": "address",
          "name": "to",
          "type": "address"
        }
      ],
      "name": "OwnershipTransferRequested",
      "type": "event"
    },
    {
      "anonymous": false,
      "inputs": [
        {
          "indexed": true,
          "internalType": "address",
          "name": "from",
          "type": "address"
        },
        {
          "indexed": true,
          "internalType": "address",
          "name": "to",
          "type": "address"
        }
      ],
      "name": "OwnershipTransferred",
      "type": "event"
    },
    {
      "anonymous": false,
      "inputs": [
        {
          "indexed": false,
          "internalType": "bytes32",
          "name": "keyHash",
          "type": "bytes32"
        },
        {
          "indexed": true,
          "internalType": "address",
          "name": "oracle",
          "type": "address"
        }
      ],
      "name": "ProvingKeyDeregistered",
      "type": "event"
    },
    {
      "anonymous": false,
      "inputs": [
        {
          "indexed": false,
          "internalType": "bytes32",
          "name": "keyHash",
          "type": "bytes32"
        },
        {
          "indexed": true,
          "internalType": "address",
          "name": "oracle",
          "type": "address"
        }
      ],
      "name": "ProvingKeyRegistered",
      "type": "event"
    },
    {
      "anonymous": false,
      "inputs": [
        {
          "indexed": true,
          "internalType": "uint256",
          "name": "requestId",
          "type": "uint256"
        },
        {
          "indexed": false,
          "internalType": "uint256",
          "name": "outputSeed",
          "type": "uint256"
        },
        {
          "indexed": false,
          "internalType": "uint96",
          "name": "payment",
          "type": "uint96"
        },
        {
          "indexed": false,
          "internalType": "bool",
          "name": "success",
          "type": "bool"
        }
      ],
      "name": "RandomWordsFulfilled",
      "type": "event"
    },
    {
      "anonymous": false,
      "inputs": [
        {
          "indexed": true,
          "internalType": "bytes32",
          "name": "keyHash",
          "type": "bytes32"
        },
        {
          "indexed": false,
          "internalType": "uint256",
          "name": "requestId",
          "type": "uint256"
        },
        {
          "indexed": false,
          "internalType": "uint256",
          "name": "preSeed",
          "type": "uint256"
        },
        {
          "indexed": true,
          "internalType": "uint64",
          "name": "subId",
          "type": "uint64"
        },
        {
          "indexed": false,
          "internalType": "uint16",
          "name": "minimumRequestConfirmations",
          "type": "uint16"
        },
        {
          "indexed": false,
          "internalType": "uint32",
          "name": "callbackGasLimit",
          "type": "uint32"
        },
        {
          "indexed": false,
          "internalType": "uint32",
          "name": "numWords",
          "type": "uint32"
        },
        {
          "indexed": true,
          "internalType": "address",
          "name": "sender",
          "type": "address"
        }
      ],
      "name": "RandomWordsRequested",
      "type": "event"
    },
    {
      "anonymous": false,
      "inputs": [
        {
          "indexed": true,
          "internalType": "uint64",
          "name": "subId",
          "type": "uint64"
        },
        {
          "indexed": false,
          "internalType": "address",
          "name": "to",
          "type": "address"
        },
        {
          "indexed": false,
          "internalType": "uint256",
          "name": "amount",
          "type": "uint256"
        }
      ],
      "name": "SubscriptionCanceled",
      "type": "event"
    },
    {
      "anonymous": false,
      "inputs": [
        {
          "indexed": true,
          "internalType": "uint64",
          "name": "subId",
          "type": "uint64"
        },
        {
          "indexed": false,
          "internalType": "address",
          "name": "consumer",
          "type": "address"
        }
      ],
      "name": "SubscriptionConsumerAdded",
      "type": "event"
    },
    {
      "anonymous": false,
      "inputs": [
        {
          "indexed": true,
          "internalType": "uint64",
          "name": "subId",
          "type": "uint64"
        },
        {
          "indexed": false,
          "internalType": "address",
          "name": "consumer",
          "type": "address"
        }
      ],
      "name": "SubscriptionConsumerRemoved",
      "type": "event"
    },
    {
      "anonymous": false,
      "inputs": [
        {
          "indexed": true,
          "internalType": "uint64",
          "name": "subId",
          "type": "uint64"
        },
        {
          "indexed": false,
          "internalType": "address",
          "name": "owner",
          "type": "address"
        }
      ],
      "name": "SubscriptionCreated",
      "type": "event"
    },
    {
      "anonymous": false,
      "inputs": [
        {
          "indexed": true,
          "internalType": "uint64",
          "name": "subId",
          "type": "uint64"
        },
        {
          "indexed": false,
          "internalType": "uint256",
          "name": "oldBalance",
          "type": "uint256"
        },
        {
          "indexed": false,
          "internalType": "uint256",
          "name": "newBalance",
          "type": "uint256"
        }
      ],
      "name": "SubscriptionFunded",
      "type": "event"
    },
    {
      "anonymous": false,
      "inputs": [
        {
          "indexed": true,
          "internalType": "uint64",
          "name": "subId",
          "type": "uint64"
        },
        {
          "indexed": false,
          "internalType": "address",
          "name": "from",
          "type": "address"
        },
        {
          "indexed": false,
          "internalType": "address",
          "name": "to",
          "type": "address"
        }
      ],
      "name": "SubscriptionOwnerTransferRequested",
      "type": "event"
    },
    {
      "anonymous": false,
      "inputs": [
        {
          "indexed": true,
          "internalType": "uint64",
          "name": "subId",
          "type": "uint64"
        },
        {
          "indexed": false,
          "internalType": "address",
          "name": "from",
          "type": "address"
        },
        {
          "indexed": false,
          "internalType": "address",
          "name": "to",
          "type": "address"
        }
      ],
      "name": "SubscriptionOwnerTransferred",
      "type": "event"
    },
    {
      "inputs": [],
      "name": "BLOCKHASH_STORE",
      "outputs": [
        {
          "internalType": "contract BlockhashStoreInterface",
          "name": "",
          "type": "address"
        }
      ],
      "stateMutability": "view",
      "type": "function"
    },
    {
      "inputs": [],
      "name": "LINK",
      "outputs": [
        {
          "internalType": "contract LinkTokenInterface",
          "name": "",
          "type": "address"
        }
      ],
      "stateMutability": "view",
      "type": "function"
    },
    {
      "inputs": [],
      "name": "LINK_ETH_FEED",
      "outputs": [
        {
          "internalType": "contract AggregatorV3Interface",
          "name": "",
          "type": "address"
        }
      ],
      "stateMutability": "view",
      "type": "function"
    },
    {
      "inputs": [],
      "name": "MAX_CONSUMERS",
      "outputs": [
        {
          "internalType": "uint16",
          "name": "",
          "type": "uint16"
        }
      ],
      "stateMutability": "view",
      "type": "function"
    },
    {
      "inputs": [],
      "name": "MAX_NUM_WORDS",
      "outputs": [
        {
          "internalType": "uint32",
          "name": "",
          "type": "uint32"
        }
      ],
      "stateMutability": "view",
      "type": "function"
    },
    {
      "inputs": [],
      "name": "MAX_REQUEST_CONFIRMATIONS",
      "outputs": [
        {
          "internalType": "uint16",
          "name": "",
          "type": "uint16"
        }
      ],
      "stateMutability": "view",
      "type": "function"
    },
    {
      "inputs": [],
      "name": "acceptOwnership",
      "outputs": [],
      "stateMutability": "nonpayable",
      "type": "function"
    },
    {
      "inputs": [
        {
          "internalType": "uint64",
          "name": "subId",
          "type": "uint64"
        }
      ],
      "name": "acceptSubscriptionOwnerTransfer",
      "outputs": [],
      "stateMutability": "nonpayable",
      "type": "function"
    },
    {
      "inputs": [
        {
          "internalType": "uint64",
          "name": "subId",
          "type": "uint64"
        },
        {
          "internalType": "address",
          "name": "consumer",
          "type": "address"
        }
      ],
      "name": "addConsumer",
      "outputs": [],
      "stateMutability": "nonpayable",
      "type": "function"
    },
    {
      "inputs": [
        {
          "internalType": "uint256",
          "name": "gasAfterPaymentCalculation",
          "type": "uint256"
        },
        {
          "internalType": "uint32",
          "name": "fulfillmentFlatFeeLinkPPM",
          "type": "uint32"
        },
        {
          "internalType": "uint256",
          "name": "weiPerUnitGas",
          "type": "uint256"
        }
      ],
      "name": "calculatePaymentAmountTest",
      "outputs": [],
      "stateMutability": "nonpayable",
      "type": "function"
    },
    {
      "inputs": [
        {
          "internalType": "uint64",
          "name": "subId",
          "type": "uint64"
        },
        {
          "internalType": "address",
          "name": "to",
          "type": "address"
        }
      ],
      "name": "cancelSubscription",
      "outputs": [],
      "stateMutability": "nonpayable",
      "type": "function"
    },
    {
      "inputs": [],
      "name": "createSubscription",
      "outputs": [
        {
          "internalType": "uint64",
          "name": "",
          "type": "uint64"
        }
      ],
      "stateMutability": "nonpayable",
      "type": "function"
    },
    {
      "inputs": [
        {
          "internalType": "uint256[2]",
          "name": "publicProvingKey",
          "type": "uint256[2]"
        }
      ],
      "name": "deregisterProvingKey",
      "outputs": [],
      "stateMutability": "nonpayable",
      "type": "function"
    },
    {
      "inputs": [
        {
          "components": [
            {
              "internalType": "uint256[2]",
              "name": "pk",
              "type": "uint256[2]"
            },
            {
              "internalType": "uint256[2]",
              "name": "gamma",
              "type": "uint256[2]"
            },
            {
              "internalType": "uint256",
              "name": "c",
              "type": "uint256"
            },
            {
              "internalType": "uint256",
              "name": "s",
              "type": "uint256"
            },
            {
              "internalType": "uint256",
              "name": "seed",
              "type": "uint256"
            },
            {
              "internalType": "address",
              "name": "uWitness",
              "type": "address"
            },
            {
              "internalType": "uint256[2]",
              "name": "cGammaWitness",
              "type": "uint256[2]"
            },
            {
              "internalType": "uint256[2]",
              "name": "sHashWitness",
              "type": "uint256[2]"
            },
            {
              "internalType": "uint256",
              "name": "zInv",
              "type": "uint256"
            }
          ],
          "internalType": "struct VRF.Proof",
          "name": "proof",
          "type": "tuple"
        },
        {
          "components": [
            {
              "internalType": "uint64",
              "name": "blockNum",
              "type": "uint64"
            },
            {
              "internalType": "uint64",
              "name": "subId",
              "type": "uint64"
            },
            {
              "internalType": "uint32",
              "name": "callbackGasLimit",
              "type": "uint32"
            },
            {
              "internalType": "uint32",
              "name": "numWords",
              "type": "uint32"
            },
            {
              "internalType": "address",
              "name": "sender",
              "type": "address"
            }
          ],
          "internalType": "struct VRFCoordinatorV2.RequestCommitment",
          "name": "rc",
          "type": "tuple"
        }
      ],
      "name": "fulfillRandomWords",
      "outputs": [
        {
          "internalType": "uint96",
          "name": "",
          "type": "uint96"
        }
      ],
      "stateMutability": "nonpayable",
      "type": "function"
    },
    {
      "inputs": [
        {
          "internalType": "uint256",
          "name": "requestId",
          "type": "uint256"
        }
      ],
      "name": "getCommitment",
      "outputs": [
        {
          "internalType": "bytes32",
          "name": "",
          "type": "bytes32"
        }
      ],
      "stateMutability": "view",
      "type": "function"
    },
    {
      "inputs": [],
      "name": "getConfig",
      "outputs": [
        {
          "internalType": "uint16",
          "name": "minimumRequestConfirmations",
          "type": "uint16"
        },
        {
          "internalType": "uint32",
          "name": "maxGasLimit",
          "type": "uint32"
        },
        {
          "internalType": "uint32",
          "name": "stalenessSeconds",
          "type": "uint32"
        },
        {
          "internalType": "uint32",
          "name": "gasAfterPaymentCalculation",
          "type": "uint32"
        }
      ],
      "stateMutability": "view",
      "type": "function"
    },
    {
      "inputs": [],
      "name": "getCurrentSubId",
      "outputs": [
        {
          "internalType": "uint64",
          "name": "",
          "type": "uint64"
        }
      ],
      "stateMutability": "view",
      "type": "function"
    },
    {
      "inputs": [],
      "name": "getFallbackWeiPerUnitLink",
      "outputs": [
        {
          "internalType": "int256",
          "name": "",
          "type": "int256"
        }
      ],
      "stateMutability": "view",
      "type": "function"
    },
    {
      "inputs": [],
      "name": "getFeeConfig",
      "outputs": [
        {
          "internalType": "uint32",
          "name": "fulfillmentFlatFeeLinkPPMTier1",
          "type": "uint32"
        },
        {
          "internalType": "uint32",
          "name": "fulfillmentFlatFeeLinkPPMTier2",
          "type": "uint32"
        },
        {
          "internalType": "uint32",
          "name": "fulfillmentFlatFeeLinkPPMTier3",
          "type": "uint32"
        },
        {
          "internalType": "uint32",
          "name": "fulfillmentFlatFeeLinkPPMTier4",
          "type": "uint32"
        },
        {
          "internalType": "uint32",
          "name": "fulfillmentFlatFeeLinkPPMTier5",
          "type": "uint32"
        },
        {
          "internalType": "uint24",
          "name": "reqsForTier2",
          "type": "uint24"
        },
        {
          "internalType": "uint24",
          "name": "reqsForTier3",
          "type": "uint24"
        },
        {
          "internalType": "uint24",
          "name": "reqsForTier4",
          "type": "uint24"
        },
        {
          "internalType": "uint24",
          "name": "reqsForTier5",
          "type": "uint24"
        }
      ],
      "stateMutability": "view",
      "type": "function"
    },
    {
      "inputs": [
        {
          "internalType": "uint64",
          "name": "reqCount",
          "type": "uint64"
        }
      ],
      "name": "getFeeTier",
      "outputs": [
        {
          "internalType": "uint32",
          "name": "",
          "type": "uint32"
        }
      ],
      "stateMutability": "view",
      "type": "function"
    },
    {
      "inputs": [],
      "name": "getGasStart",
      "outputs": [
        {
          "internalType": "uint256",
          "name": "",
          "type": "uint256"
        }
      ],
      "stateMutability": "view",
      "type": "function"
    },
    {
      "inputs": [],
      "name": "getPaymentAmount",
      "outputs": [
        {
          "internalType": "uint96",
          "name": "",
          "type": "uint96"
        }
      ],
      "stateMutability": "view",
      "type": "function"
    },
    {
      "inputs": [],
      "name": "getRequestConfig",
      "outputs": [
        {
          "internalType": "uint16",
          "name": "",
          "type": "uint16"
        },
        {
          "internalType": "uint32",
          "name": "",
          "type": "uint32"
        },
        {
          "internalType": "bytes32[]",
          "name": "",
          "type": "bytes32[]"
        }
      ],
      "stateMutability": "view",
      "type": "function"
    },
    {
      "inputs": [
        {
          "internalType": "uint64",
          "name": "subId",
          "type": "uint64"
        }
      ],
      "name": "getSubscription",
      "outputs": [
        {
          "internalType": "uint96",
          "name": "balance",
          "type": "uint96"
        },
        {
          "internalType": "uint64",
          "name": "reqCount",
          "type": "uint64"
        },
        {
          "internalType": "address",
          "name": "owner",
          "type": "address"
        },
        {
          "internalType": "address[]",
          "name": "consumers",
          "type": "address[]"
        }
      ],
      "stateMutability": "view",
      "type": "function"
    },
    {
      "inputs": [],
      "name": "getTotalBalance",
      "outputs": [
        {
          "internalType": "uint256",
          "name": "",
          "type": "uint256"
        }
      ],
      "stateMutability": "view",
      "type": "function"
    },
    {
      "inputs": [
        {
          "internalType": "uint256[2]",
          "name": "publicKey",
          "type": "uint256[2]"
        }
      ],
      "name": "hashOfKey",
      "outputs": [
        {
          "internalType": "bytes32",
          "name": "",
          "type": "bytes32"
        }
      ],
      "stateMutability": "pure",
      "type": "function"
    },
    {
      "inputs": [
        {
          "internalType": "address",
          "name": "",
          "type": "address"
        },
        {
          "internalType": "uint256",
          "name": "amount",
          "type": "uint256"
        },
        {
          "internalType": "bytes",
          "name": "data",
          "type": "bytes"
        }
      ],
      "name": "onTokenTransfer",
      "outputs": [],
      "stateMutability": "nonpayable",
      "type": "function"
    },
    {
      "inputs": [
        {
          "internalType": "address",
          "name": "recipient",
          "type": "address"
        },
        {
          "internalType": "uint96",
          "name": "amount",
          "type": "uint96"
        }
      ],
      "name": "oracleWithdraw",
      "outputs": [],
      "stateMutability": "nonpayable",
      "type": "function"
    },
    {
      "inputs": [],
      "name": "owner",
      "outputs": [
        {
          "internalType": "address",
          "name": "",
          "type": "address"
        }
      ],
      "stateMutability": "view",
      "type": "function"
    },
    {
      "inputs": [
        {
          "internalType": "uint64",
          "name": "subId",
          "type": "uint64"
        }
      ],
      "name": "ownerCancelSubscription",
      "outputs": [],
      "stateMutability": "nonpayable",
      "type": "function"
    },
    {
      "inputs": [
        {
          "internalType": "uint64",
          "name": "subId",
          "type": "uint64"
        }
      ],
      "name": "pendingRequestExists",
      "outputs": [
        {
          "internalType": "bool",
          "name": "",
          "type": "bool"
        }
      ],
      "stateMutability": "view",
      "type": "function"
    },
    {
      "inputs": [
        {
          "internalType": "address",
          "name": "to",
          "type": "address"
        }
      ],
      "name": "recoverFunds",
      "outputs": [],
      "stateMutability": "nonpayable",
      "type": "function"
    },
    {
      "inputs": [
        {
          "internalType": "address",
          "name": "oracle",
          "type": "address"
        },
        {
          "internalType": "uint256[2]",
          "name": "publicProvingKey",
          "type": "uint256[2]"
        }
      ],
      "name": "registerProvingKey",
      "outputs": [],
      "stateMutability": "nonpayable",
      "type": "function"
    },
    {
      "inputs": [
        {
          "internalType": "uint64",
          "name": "subId",
          "type": "uint64"
        },
        {
          "internalType": "address",
          "name": "consumer",
          "type": "address"
        }
      ],
      "name": "removeConsumer",
      "outputs": [],
      "stateMutability": "nonpayable",
      "type": "function"
    },
    {
      "inputs": [
        {
          "internalType": "bytes32",
          "name": "keyHash",
          "type": "bytes32"
        },
        {
          "internalType": "uint64",
          "name": "subId",
          "type": "uint64"
        },
        {
          "internalType": "uint16",
          "name": "requestConfirmations",
          "type": "uint16"
        },
        {
          "internalType": "uint32",
          "name": "callbackGasLimit",
          "type": "uint32"
        },
        {
          "internalType": "uint32",
          "name": "numWords",
          "type": "uint32"
        }
      ],
      "name": "requestRandomWords",
      "outputs": [
        {
          "internalType": "uint256",
          "name": "",
          "type": "uint256"
        }
      ],
      "stateMutability": "nonpayable",
      "type": "function"
    },
    {
      "inputs": [
        {
          "internalType": "uint64",
          "name": "subId",
          "type": "uint64"
        },
        {
          "internalType": "address",
          "name": "newOwner",
          "type": "address"
        }
      ],
      "name": "requestSubscriptionOwnerTransfer",
      "outputs": [],
      "stateMutability": "nonpayable",
      "type": "function"
    },
    {
      "inputs": [
        {
          "internalType": "uint16",
          "name": "minimumRequestConfirmations",
          "type": "uint16"
        },
        {
          "internalType": "uint32",
          "name": "maxGasLimit",
          "type": "uint32"
        },
        {
          "internalType": "uint32",
          "name": "stalenessSeconds",
          "type": "uint32"
        },
        {
          "internalType": "uint32",
          "name": "gasAfterPaymentCalculation",
          "type": "uint32"
        },
        {
          "internalType": "int256",
          "name": "fallbackWeiPerUnitLink",
          "type": "int256"
        },
        {
          "components": [
            {
              "internalType": "uint32",
              "name": "fulfillmentFlatFeeLinkPPMTier1",
              "type": "uint32"
            },
            {
              "internalType": "uint32",
              "name": "fulfillmentFlatFeeLinkPPMTier2",
              "type": "uint32"
            },
            {
              "internalType": "uint32",
              "name": "fulfillmentFlatFeeLinkPPMTier3",
              "type": "uint32"
            },
            {
              "internalType": "uint32",
              "name": "fulfillmentFlatFeeLinkPPMTier4",
              "type": "uint32"
            },
            {
              "internalType": "uint32",
              "name": "fulfillmentFlatFeeLinkPPMTier5",
              "type": "uint32"
            },
            {
              "internalType": "uint24",
              "name": "reqsForTier2",
              "type": "uint24"
            },
            {
              "internalType": "uint24",
              "name": "reqsForTier3",
              "type": "uint24"
            },
            {
              "internalType": "uint24",
              "name": "reqsForTier4",
              "type": "uint24"
            },
            {
              "internalType": "uint24",
              "name": "reqsForTier5",
              "type": "uint24"
            }
          ],
          "internalType": "struct VRFCoordinatorV2.FeeConfig",
          "name": "feeConfig",
          "type": "tuple"
        }
      ],
      "name": "setConfig",
      "outputs": [],
      "stateMutability": "nonpayable",
      "type": "function"
    },
    {
      "inputs": [
        {
          "internalType": "address",
          "name": "to",
          "type": "address"
        }
      ],
      "name": "transferOwnership",
      "outputs": [],
      "stateMutability": "nonpayable",
      "type": "function"
    },
    {
      "inputs": [],
      "name": "typeAndVersion",
      "outputs": [
        {
          "internalType": "string",
          "name": "",
          "type": "string"
        }
      ],
      "stateMutability": "pure",
      "type": "function"
    },
    {
      "stateMutability": "payable",
      "type": "receive"
    }
  ],
  "transactionHash": "0x048421c3b424cd338a8324016d0755d03f1ba33526abd072e6166a4de991fac1",
  "args": [
    "0x01BE23585060835E02B77ef475b0Cc51aA1e0709",
    "0x0000000000000000000000000000000000000000",
    "0xFABe80711F3ea886C3AC102c81ffC9825E16162E"
  ],
  "numDeployments": 1,
  "solcInputHash": "90a7cb7607280d8963f4df1899916970",
  "bytecode": "0x60e06040523480156200001157600080fd5b506040516200599e3803806200599e833981016040819052620000349162000178565b8282828282823380600081620000675760405162461bcd60e51b81526004016200005e9062000204565b60405180910390fd5b600080546001600160a01b0319166001600160a01b03848116919091179091558116156200009a576200009a81620000c1565b5050506001600160a01b03928316608052821660a0521660c052506200025b945050505050565b6001600160a01b038116331415620000ed5760405162461bcd60e51b81526004016200005e9062000249565b600180546001600160a01b0319166001600160a01b0383811691821790925560008054604051929316917fed8889f560326eb138920d842192f0eb3dd22b4f139c87a2c57538e05bae12789190a350565b60006001600160a01b0382165b92915050565b6200015c816200013e565b81146200016857600080fd5b50565b80516200014b8162000151565b600080600060608486031215620001925762000192600080fd5b6000620001a086866200016b565b9350506020620001b3868287016200016b565b9250506040620001c6868287016200016b565b9150509250925092565b60188152602081017f43616e6e6f7420736574206f776e657220746f207a65726f0000000000000000815290505b60200190565b602080825281016200014b81620001d0565b60178152602081017f43616e6e6f74207472616e7366657220746f2073656c6600000000000000000081529050620001fe565b602080825281016200014b8162000216565b60805160a05160c0516156e2620002bc600039600081816105e0015261330e015260008181610796015261351d0152600081816104190152818161144f01528181612033015281816128fa01528181612a100152612f0501526156e26000f3fe6080604052600436106102a35760003560e01c80636f64f03f1161016e578063a4c0ed36116100cb578063d2f9f9a71161007f578063e72f6e3011610064578063e72f6e301461088b578063e82ad7d4146108ab578063f2fde38b146108d857600080fd5b8063d2f9f9a71461084b578063d7ae1d301461086b57600080fd5b8063af198b97116100b0578063af198b97146107b8578063c3f909d4146107d8578063caf70c4a1461082b57600080fd5b8063a4c0ed3614610764578063ad1783611461078457600080fd5b806382359740116101225780639f87fad7116101075780639f87fad7146106ff578063a21a23e41461071f578063a47c76961461073457600080fd5b806382359740146106b95780638da5cb5b146106d957600080fd5b80637697bc18116101535780637697bc181461066f578063775de59d1461068457806379ba5097146106a457600080fd5b80636f64f03f1461062f5780637341c10c1461064f57600080fd5b8063356dac711161021c5780635fbbc0d2116101d057806366316d8d116101b557806366316d8d146105ae578063689c4517146105ce57806369bcdb7d1461060257600080fd5b80635fbbc0d2146104e757806364d51a2a1461059957600080fd5b806340d6bb821161020157806340d6bb82146104845780634cb48a54146104a75780635d3b1d30146104c757600080fd5b8063356dac71146104485780633e8817aa1461045d57600080fd5b806308821d581161027357806315c48b841161025857806315c48b8414610399578063181f5a77146103bb5780631b6b6d231461040757600080fd5b806308821d581461034657806312b583491461036657600080fd5b8062012291146102af57806302bcc5b6146102dc57806304c357cb146102fe57806306bfa6371461031e57600080fd5b366102aa57005b600080fd5b3480156102bb57600080fd5b506102c46108f8565b6040516102d393929190613f97565b60405180910390f35b3480156102e857600080fd5b506102fc6102f7366004613fe6565b610974565b005b34801561030a57600080fd5b506102fc61031936600461402c565b6109ed565b34801561032a57600080fd5b5060055467ffffffffffffffff165b6040516102d39190614079565b34801561035257600080fd5b506102fc61036136600461409b565b610b37565b34801561037257600080fd5b506005546801000000000000000090046001600160601b03165b6040516102d391906140bc565b3480156103a557600080fd5b506103ae60c881565b6040516102d391906140ca565b3480156103c757600080fd5b50604080518082018252601681527f565246436f6f7264696e61746f72563220312e302e3000000000000000000000602082015290516102d39190614136565b34801561041357600080fd5b5061043b7f000000000000000000000000000000000000000000000000000000000000000081565b6040516102d39190614189565b34801561045457600080fd5b50600a5461038c565b34801561046957600080fd5b50600d546001600160601b03165b6040516102d391906141a6565b34801561049057600080fd5b5061049a6101f481565b6040516102d391906141b4565b3480156104b357600080fd5b506102fc6104c2366004614339565b610ce1565b3480156104d357600080fd5b5061038c6104e23660046143c4565b611079565b3480156104f357600080fd5b50600c546040516102d39163ffffffff808216926401000000008304821692680100000000000000008104831692600160601b820481169270010000000000000000000000000000000083049091169162ffffff740100000000000000000000000000000000000000008204811692770100000000000000000000000000000000000000000000008304821692600160d01b8104831692600160e81b9091041690614447565b3480156105a557600080fd5b506103ae606481565b3480156105ba57600080fd5b506102fc6105c93660046144e7565b61134f565b3480156105da57600080fd5b5061043b7f000000000000000000000000000000000000000000000000000000000000000081565b34801561060e57600080fd5b5061038c61061d36600461451a565b60009081526009602052604090205490565b34801561063b57600080fd5b506102fc61064a36600461453b565b6114ff565b34801561065b57600080fd5b506102fc61066a36600461402c565b611616565b34801561067b57600080fd5b50600e5461038c565b34801561069057600080fd5b506102fc61069f36600461456e565b6117e1565b3480156106b057600080fd5b506102fc61182a565b3480156106c557600080fd5b506102fc6106d4366004613fe6565b6118ab565b3480156106e557600080fd5b506000546001600160a01b03166040516102d391906145c7565b34801561070b57600080fd5b506102fc61071a36600461402c565b611a23565b34801561072b57600080fd5b50610339611d56565b34801561074057600080fd5b5061075461074f366004613fe6565b611efe565b6040516102d3949392919061461c565b34801561077057600080fd5b506102fc61077f3660046146b2565b611ffa565b34801561079057600080fd5b5061043b7f000000000000000000000000000000000000000000000000000000000000000081565b3480156107c457600080fd5b506104776107d3366004614907565b6121fa565b3480156107e457600080fd5b50600b5461ffff81169063ffffffff62010000820481169167010000000000000081048216916b010000000000000000000000909104166040516102d3949392919061493c565b34801561083757600080fd5b5061038c610846366004614971565b6125ee565b34801561085757600080fd5b5061049a610866366004613fe6565b61261e565b34801561087757600080fd5b506102fc61088636600461402c565b6127d9565b34801561089757600080fd5b506102fc6108a6366004614992565b6128bf565b3480156108b757600080fd5b506108cb6108c6366004613fe6565b612acb565b6040516102d391906149bb565b3480156108e457600080fd5b506102fc6108f3366004614992565b612c78565b600b546007805460408051602080840282018101909252828152600094859460609461ffff8316946201000090930463ffffffff1693919283919083018282801561096257602002820191906000526020600020905b81548152602001906001019080831161094e575b50505050509050925092509250909192565b61097c612c89565b67ffffffffffffffff81166000908152600360205260409020546001600160a01b03166109bc57604051630fb532db60e11b815260040160405180910390fd5b67ffffffffffffffff81166000908152600360205260409020546109ea9082906001600160a01b0316612cb5565b50565b67ffffffffffffffff821660009081526003602052604090205482906001600160a01b031680610a3057604051630fb532db60e11b815260040160405180910390fd5b336001600160a01b03821614610a645780604051636c51fda960e11b8152600401610a5b91906145c7565b60405180910390fd5b600b546601000000000000900460ff1615610a925760405163769dd35360e11b815260040160405180910390fd5b67ffffffffffffffff84166000908152600360205260409020600101546001600160a01b03848116911614610b315767ffffffffffffffff84166000818152600360205260409081902060010180546001600160a01b0319166001600160a01b038716179055517f69436ea6df009049404f564eff6622cd00522b0bd6a89efd9e52a355c4a879be90610b2890339087906149c9565b60405180910390a25b50505050565b610b3f612c89565b604080518082018252600091610b6e9190849060029083908390808284376000920191909152506125ee915050565b6000818152600660205260409020549091506001600160a01b031680610bc257816040517f77f5b84c000000000000000000000000000000000000000000000000000000008152600401610a5b91906140bc565b600082815260066020526040812080546001600160a01b03191690555b600754811015610c9a578260078281548110610bfd57610bfd6149e4565b90600052602060002001541415610c88576007805460009190610c2290600190614a10565b81548110610c3257610c326149e4565b906000526020600020015490508060078381548110610c5357610c536149e4565b6000918252602090912001556007805480610c7057610c70614a2b565b60019003818190600052602060002001600090559055505b80610c9281614a41565b915050610bdf565b50806001600160a01b03167f72be339577868f868798bac2c93e52d6f034fef4689a9848996c14ebb7416c0d83604051610cd491906140bc565b60405180910390a2505050565b610ce9612c89565b60c861ffff87161115610d2f57858660c86040517fa7386976000000000000000000000000000000000000000000000000000000008152600401610a5b93929190614a5c565b60008213610d6b57816040517f43d4cf66000000000000000000000000000000000000000000000000000000008152600401610a5b91906140bc565b6040805160a0808201835261ffff891680835263ffffffff89811660208086018290526000868801528a831660608088018290528b85166080988901819052600b80547fffffffffffffffffffffffffffffffffffffffffffffffffffff0000000000001690971762010000909502949094177fffffffffffffffffffffffffffffffffff000000000000000000ffffffffffff166701000000000000009092027fffffffffffffffffffffffffffffffffff00000000ffffffffffffffffffffff16919091176b010000000000000000000000909302929092179093558651600c80549489015189890151938a0151978a0151968a015160c08b015160e08c01516101008d015195881667ffffffffffffffff199099169890981764010000000093881693909302929092177fffffffffffffffffffffffffffffffff0000000000000000ffffffffffffffff1668010000000000000000958716959095027fffffffffffffffffffffffffffffffff00000000ffffffffffffffffffffffff1694909417600160601b98861698909802979097177fffffffffffffffffff00000000000000ffffffffffffffffffffffffffffffff1670010000000000000000000000000000000096909416959095027fffffffffffffffffff000000ffffffffffffffffffffffffffffffffffffffff16929092177401000000000000000000000000000000000000000062ffffff92831602177fffffff000000000000ffffffffffffffffffffffffffffffffffffffffffffff1677010000000000000000000000000000000000000000000000958216959095027fffffff000000ffffffffffffffffffffffffffffffffffffffffffffffffffff1694909417600160d01b92851692909202919091177cffffffffffffffffffffffffffffffffffffffffffffffffffffffffff16600160e81b9390911692909202919091178155600a84905590517fc21e3bd2e0b339d2848f0dd956947a88966c242c0c0c582a33137a5c1ceb5cb291611069918991899189918991899190614be4565b60405180910390a1505050505050565b600b546000906601000000000000900460ff16156110aa5760405163769dd35360e11b815260040160405180910390fd5b67ffffffffffffffff85166000908152600360205260409020546001600160a01b03166110ea57604051630fb532db60e11b815260040160405180910390fd5b33600090815260026020908152604080832067ffffffffffffffff808a168552925290912054168061114c5785336040517ff0019fe6000000000000000000000000000000000000000000000000000000008152600401610a5b929190614c34565b600b5461ffff9081169086161080611168575060c861ffff8616115b156111ae57600b546040517fa7386976000000000000000000000000000000000000000000000000000000008152610a5b91879161ffff9091169060c890600401614a5c565b600b5463ffffffff620100009091048116908516111561120d57600b546040517ff5d7e01e000000000000000000000000000000000000000000000000000000008152610a5b9186916201000090910463ffffffff1690600401614c42565b6101f463ffffffff8416111561125557826101f46040517f47386bec000000000000000000000000000000000000000000000000000000008152600401610a5b929190614c42565b6000611262826001614c5d565b90506000806112738a338b86613005565b9150915081438a89893360405160200161129296959493929190614c98565b60408051601f1981840301815282825280516020918201206000868152600990925291902055339067ffffffffffffffff8b16908c907f63373d1c4696214b898952999c9aaec57dac1ee2723cec59bea6888f489a9772906112fd90879087908f908f908f90614ce7565b60405180910390a45033600090815260026020908152604080832067ffffffffffffffff808d168552925290912080549190931667ffffffffffffffff19909116179091559150505b95945050505050565b600b546601000000000000900460ff161561137d5760405163769dd35360e11b815260040160405180910390fd5b336000908152600860205260409020546001600160601b03808316911610156113b957604051631e9acf1760e31b815260040160405180910390fd5b33600090815260086020526040812080548392906113e19084906001600160601b0316614d29565b92506101000a8154816001600160601b0302191690836001600160601b0316021790555080600560088282829054906101000a90046001600160601b03166114299190614d29565b92506101000a8154816001600160601b0302191690836001600160601b031602179055507f00000000000000000000000000000000000000000000000000000000000000006001600160a01b031663a9059cbb83836040518363ffffffff1660e01b815260040161149b929190614d5a565b6020604051808303816000875af11580156114ba573d6000803e3d6000fd5b505050506040513d601f19601f820116820180604052508101906114de9190614d88565b6114fb57604051631e9acf1760e31b815260040160405180910390fd5b5050565b611507612c89565b6040805180820182526000916115369190849060029083908390808284376000920191909152506125ee915050565b6000818152600660205260409020549091506001600160a01b03161561158a57806040517f4a0b8fa7000000000000000000000000000000000000000000000000000000008152600401610a5b91906140bc565b60008181526006602052604080822080546001600160a01b0319166001600160a01b0387169081179091556007805460018101825593527fa66cc928b5edb82af9bd49922954155ab7b0942694bea4ce44661d9a8736c688909201839055517fe729ae16526293f74ade739043022254f1489f616295a25bf72dfb4511ed73b890610cd49084906140bc565b67ffffffffffffffff821660009081526003602052604090205482906001600160a01b03168061165957604051630fb532db60e11b815260040160405180910390fd5b336001600160a01b038216146116845780604051636c51fda960e11b8152600401610a5b91906145c7565b600b546601000000000000900460ff16156116b25760405163769dd35360e11b815260040160405180910390fd5b67ffffffffffffffff841660009081526003602052604090206002015460641415611709576040517f05a48e0f00000000000000000000000000000000000000000000000000000000815260040160405180910390fd5b6001600160a01b038316600090815260026020908152604080832067ffffffffffffffff8089168552925290912054161561174357610b31565b6001600160a01b038316600081815260026020818152604080842067ffffffffffffffff8a16808652908352818520805467ffffffffffffffff19166001908117909155600384528286209094018054948501815585529190932090910180546001600160a01b031916909317909255517f43dc749a04ac8fb825cbd514f7c0e13f13bc6f2ee66043b76629d51776cff8e090610b289086906145c7565b6117ed5a84848461306e565b600d80547fffffffffffffffffffffffffffffffffffffffff000000000000000000000000166001600160601b0392909216919091179055505050565b6001546001600160a01b031633146118545760405162461bcd60e51b8152600401610a5b90614ddb565b60008054336001600160a01b0319808316821784556001805490911690556040516001600160a01b0390921692909183917f8be0079c531659141344cd1fd0a4f28419497f9722a3daafe3b4186f6b6457e091a350565b600b546601000000000000900460ff16156118d95760405163769dd35360e11b815260040160405180910390fd5b67ffffffffffffffff81166000908152600360205260409020546001600160a01b031661191957604051630fb532db60e11b815260040160405180910390fd5b67ffffffffffffffff81166000908152600360205260409020600101546001600160a01b0316331461199f5767ffffffffffffffff8116600090815260036020526040908190206001015490517fd084e975000000000000000000000000000000000000000000000000000000008152610a5b916001600160a01b0316906004016145c7565b67ffffffffffffffff81166000818152600360205260409081902080546001600160a01b031980821633908117845560019093018054909116905591516001600160a01b0390921692917f6f1dc65165ffffedfd8e507b4a0f1fcfdada045ed11f6c26ba27cedfe87802f091611a17918591906149c9565b60405180910390a25050565b67ffffffffffffffff821660009081526003602052604090205482906001600160a01b031680611a6657604051630fb532db60e11b815260040160405180910390fd5b336001600160a01b03821614611a915780604051636c51fda960e11b8152600401610a5b91906145c7565b600b546601000000000000900460ff1615611abf5760405163769dd35360e11b815260040160405180910390fd5b6001600160a01b038316600090815260026020908152604080832067ffffffffffffffff808916855292529091205416611b295783836040517ff0019fe6000000000000000000000000000000000000000000000000000000008152600401610a5b929190614c34565b67ffffffffffffffff8416600090815260036020908152604080832060020180548251818502810185019093528083529192909190830182828015611b9757602002820191906000526020600020905b81546001600160a01b03168152600190910190602001808311611b79575b50505050509050600060018251611bae9190614a10565b905060005b8251811015611cd857856001600160a01b0316838281518110611bd857611bd86149e4565b60200260200101516001600160a01b03161415611cc6576000838381518110611c0357611c036149e4565b6020026020010151905080600360008a67ffffffffffffffff1667ffffffffffffffff1681526020019081526020016000206002018381548110611c4957611c496149e4565b600091825260208083209190910180546001600160a01b0319166001600160a01b03949094169390931790925567ffffffffffffffff8a168152600390915260409020600201805480611c9e57611c9e614a2b565b600082815260209020810160001990810180546001600160a01b031916905501905550611cd8565b80611cd081614a41565b915050611bb3565b506001600160a01b038516600090815260026020908152604080832067ffffffffffffffff8a16808552925291829020805467ffffffffffffffff1916905590517f182bff9831466789164ca77075fffd84916d35a8180ba73c27e45634549b445b90611d469088906145c7565b60405180910390a2505050505050565b600b546000906601000000000000900460ff1615611d875760405163769dd35360e11b815260040160405180910390fd5b6005805467ffffffffffffffff16906000611da183614deb565b82546101009290920a67ffffffffffffffff818102199093169183160217909155600554169050600080604051908082528060200260200182016040528015611df4578160200160208202803683370190505b506040805180820182526000808252602080830182815267ffffffffffffffff888116808552600484528685209551865493516001600160601b039091166001600160a01b031994851617600160601b919093160291909117909455845160608101865233815280830184815281870188815295855260038452959093208351815483166001600160a01b0391821617825595516001820180549093169616959095179055915180519495509093611eb29260028501920190613e29565b509050508167ffffffffffffffff167f464722b4166576d3dcbba877b999bc35cf911f4eaf434b7eba68fa113951d0bf33604051611ef091906145c7565b60405180910390a250905090565b67ffffffffffffffff8116600090815260036020526040812054819081906060906001600160a01b0316611f4557604051630fb532db60e11b815260040160405180910390fd5b67ffffffffffffffff80861660009081526004602090815260408083205460038352928190208054600290910180548351818602810186019094528084526001600160601b03861696600160601b909604909516946001600160a01b03909216939092918391830182828015611fe457602002820191906000526020600020905b81546001600160a01b03168152600190910190602001808311611fc6575b5050505050905093509350935093509193509193565b600b546601000000000000900460ff16156120285760405163769dd35360e11b815260040160405180910390fd5b336001600160a01b037f0000000000000000000000000000000000000000000000000000000000000000161461208a576040517f44b0e3c300000000000000000000000000000000000000000000000000000000815260040160405180910390fd5b602081146120c4576040517f8129bbcd00000000000000000000000000000000000000000000000000000000815260040160405180910390fd5b60006120d282840184613fe6565b67ffffffffffffffff81166000908152600360205260409020549091506001600160a01b031661211557604051630fb532db60e11b815260040160405180910390fd5b67ffffffffffffffff8116600090815260046020526040812080546001600160601b0316918691906121478385614e12565b92506101000a8154816001600160601b0302191690836001600160601b0316021790555084600560088282829054906101000a90046001600160601b031661218f9190614e12565b92506101000a8154816001600160601b0302191690836001600160601b031602179055508167ffffffffffffffff167fd39ec07f4e209f627a4c427971473820dc129761ba28de8906bd56f57101d4f88287846121ec9190614e45565b604051611d46929190614e58565b600b546000906601000000000000900460ff161561222b5760405163769dd35360e11b815260040160405180910390fd5b60005a9050600080600061223f8787613177565b9250925092506000866060015163ffffffff1667ffffffffffffffff81111561226a5761226a6141ff565b604051908082528060200260200182016040528015612293578160200160208202803683370190505b50905060005b876060015163ffffffff168110156123065782816040516020016122be929190614e58565b6040516020818303038152906040528051906020012060001c8282815181106122e9576122e96149e4565b6020908102919091010152806122fe81614a41565b915050612299565b506000838152600960205260408082208290555181907f1fe543e3000000000000000000000000000000000000000000000000000000009061234e9087908690602401614eb0565b60408051601f198184030181529181526020820180517bffffffffffffffffffffffffffffffffffffffffffffffffffffffff167fffffffff0000000000000000000000000000000000000000000000000000000090941693909317909252600b805466ff00000000000019166601000000000000179055908a015160808b01519192506000916123e69163ffffffff16908461340a565b600b805466ff000000000000191690556020808c01805167ffffffffffffffff908116600090815260049093526040808420549251821684529092208054939450600160601b918290048316936001939192600c92612449928692900416614c5d565b92506101000a81548167ffffffffffffffff021916908367ffffffffffffffff16021790555060006124a08a600b600001600b9054906101000a900463ffffffff1663ffffffff1661249a8561261e565b3a61306e565b6020808e015167ffffffffffffffff166000908152600490915260409020549091506001600160601b03808316911610156124ee57604051631e9acf1760e31b815260040160405180910390fd5b6020808d015167ffffffffffffffff16600090815260049091526040812080548392906125259084906001600160601b0316614d29565b82546101009290920a6001600160601b0381810219909316918316021790915560008b8152600660209081526040808320546001600160a01b03168352600890915281208054859450909261257c91859116614e12565b92506101000a8154816001600160601b0302191690836001600160601b03160217905550877f7dffc5ae5ee4e2e4df1651cf6ad329a73cebdb728f37ea0187b9b17e036756e48883866040516125d493929190614ed0565b60405180910390a299505050505050505050505b92915050565b6000816040516020016126019190614f2a565b604051602081830303815290604052805190602001209050919050565b6040805161012081018252600c5463ffffffff8082168352640100000000820481166020840152680100000000000000008204811693830193909352600160601b8104831660608301527001000000000000000000000000000000008104909216608082015262ffffff740100000000000000000000000000000000000000008304811660a08301819052770100000000000000000000000000000000000000000000008404821660c0840152600160d01b8404821660e0840152600160e81b9093041661010082015260009167ffffffffffffffff841611612702575192915050565b8267ffffffffffffffff168160a0015162ffffff1610801561273757508060c0015162ffffff168367ffffffffffffffff1611155b15612746576020015192915050565b8267ffffffffffffffff168160c0015162ffffff1610801561277b57508060e0015162ffffff168367ffffffffffffffff1611155b1561278a576040015192915050565b8267ffffffffffffffff168160e0015162ffffff161080156127c0575080610100015162ffffff168367ffffffffffffffff1611155b156127cf576060015192915050565b6080015192915050565b67ffffffffffffffff821660009081526003602052604090205482906001600160a01b03168061281c57604051630fb532db60e11b815260040160405180910390fd5b336001600160a01b038216146128475780604051636c51fda960e11b8152600401610a5b91906145c7565b600b546601000000000000900460ff16156128755760405163769dd35360e11b815260040160405180910390fd5b61287e84612acb565b156128b5576040517fb42f66e800000000000000000000000000000000000000000000000000000000815260040160405180910390fd5b610b318484612cb5565b6128c7612c89565b6040517f70a082310000000000000000000000000000000000000000000000000000000081526000906001600160a01b037f000000000000000000000000000000000000000000000000000000000000000016906370a082319061292f9030906004016145c7565b602060405180830381865afa15801561294c573d6000803e3d6000fd5b505050506040513d601f19601f820116820180604052508101906129709190614f43565b6005549091506801000000000000000090046001600160601b0316818111156129c95780826040517fa99da302000000000000000000000000000000000000000000000000000000008152600401610a5b929190614e58565b81811015612ac65760006129dd8284614a10565b6040517fa9059cbb0000000000000000000000000000000000000000000000000000000081529091506001600160a01b037f0000000000000000000000000000000000000000000000000000000000000000169063a9059cbb90612a479087908590600401614f64565b6020604051808303816000875af1158015612a66573d6000803e3d6000fd5b505050506040513d601f19601f82011682018060405250810190612a8a9190614d88565b507f59bfc682b673f8cbf945f1e454df9334834abf7dfe7f92237ca29ecb9b4366008482604051612abc929190614f64565b60405180910390a1505b505050565b67ffffffffffffffff81166000908152600360209081526040808320815160608101835281546001600160a01b0390811682526001830154168185015260028201805484518187028101870186528181528796939586019390929190830182828015612b6057602002820191906000526020600020905b81546001600160a01b03168152600190910190602001808311612b42575b505050505081525050905060005b816040015151811015612c6e5760005b600754811015612c5b576000612c2460078381548110612ba057612ba06149e4565b906000526020600020015485604001518581518110612bc157612bc16149e4565b6020026020010151886002600089604001518981518110612be457612be46149e4565b6020908102919091018101516001600160a01b03168252818101929092526040908101600090812067ffffffffffffffff808f1683529352205416613005565b5060008181526009602052604090205490915015612c485750600195945050505050565b5080612c5381614a41565b915050612b7e565b5080612c6681614a41565b915050612b6e565b5060009392505050565b612c80612c89565b6109ea81613458565b6000546001600160a01b03163314612cb35760405162461bcd60e51b8152600401610a5b90614fa4565b565b600b546601000000000000900460ff1615612ce35760405163769dd35360e11b815260040160405180910390fd5b67ffffffffffffffff82166000908152600360209081526040808320815160608101835281546001600160a01b03908116825260018301541681850152600282018054845181870281018701865281815292959394860193830182828015612d7457602002820191906000526020600020905b81546001600160a01b03168152600190910190602001808311612d56575b5050509190925250505067ffffffffffffffff80851660009081526004602090815260408083208151808301909252546001600160601b038116808352600160601b909104909416918101919091529293505b836040015151811015612e49576002600085604001518381518110612dee57612dee6149e4565b6020908102919091018101516001600160a01b03168252818101929092526040908101600090812067ffffffffffffffff8a1682529092529020805467ffffffffffffffff1916905580612e4181614a41565b915050612dc7565b5067ffffffffffffffff8516600090815260036020526040812080546001600160a01b03199081168255600182018054909116905590612e8c6002830182613e8e565b505067ffffffffffffffff8516600090815260046020526040902080546001600160a01b031916905560058054829190600890612edf9084906801000000000000000090046001600160601b0316614d29565b92506101000a8154816001600160601b0302191690836001600160601b031602179055507f00000000000000000000000000000000000000000000000000000000000000006001600160a01b031663a9059cbb85836001600160601b03166040518363ffffffff1660e01b8152600401612f5a929190614f64565b6020604051808303816000875af1158015612f79573d6000803e3d6000fd5b505050506040513d601f19601f82011682018060405250810190612f9d9190614d88565b612fba57604051631e9acf1760e31b815260040160405180910390fd5b8467ffffffffffffffff167fe8ed5b475a5b5987aa9165e8731bb78043f39eee32ec5a1169a89e27fcd498158583604051612ff6929190614d5a565b60405180910390a25050505050565b6000806000868686866040516020016130219493929190614fb4565b60408051601f19818403018152908290528051602091820120925061304a918991849101614e58565b60408051808303601f19018152919052805160209091012097909650945050505050565b6000806130796134d2565b9050600081136130b757806040517f43d4cf66000000000000000000000000000000000000000000000000000000008152600401610a5b91906140bc565b6000815a6130c58989614e45565b6130cf9190614a10565b6130e186670de0b6b3a7640000614fe9565b6130eb9190614fe9565b6130f5919061501e565b9050600061310e63ffffffff871664e8d4a51000614fe9565b9050613126816b033b2e3c9fd0803ce8000000614a10565b82111561315f576040517fe80fa38100000000000000000000000000000000000000000000000000000000815260040160405180910390fd5b6131698183614e45565b93505050505b949350505050565b600080600061318985600001516125ee565b6000818152600660205260409020549093506001600160a01b0316806131dd57836040517f77f5b84c000000000000000000000000000000000000000000000000000000008152600401610a5b91906140bc565b60808601516040516131f3918691602001614e58565b60408051601f1981840301815291815281516020928301206000818152600990935291205490935080613252576040517f3688124a00000000000000000000000000000000000000000000000000000000815260040160405180910390fd5b85516020808801516040808a015160608b015160808c0151925161327c968b969095949101615032565b6040516020818303038152906040528051906020012081146132ca576040517fd529142c00000000000000000000000000000000000000000000000000000000815260040160405180910390fd5b855167ffffffffffffffff1640806133bf5786516040517fe9413d380000000000000000000000000000000000000000000000000000000081526001600160a01b037f0000000000000000000000000000000000000000000000000000000000000000169163e9413d3891613342919060040161506c565b602060405180830381865afa15801561335f573d6000803e3d6000fd5b505050506040513d601f19601f820116820180604052508101906133839190614f43565b9050806133bf5786516040517f175dadad000000000000000000000000000000000000000000000000000000008152610a5b919060040161506c565b60008860800151826040516020016133d892919061507a565b6040516020818303038152906040528051906020012060001c90506133fd89826135c9565b9450505050509250925092565b60005a61138881101561341c57600080fd5b61138881039050846040820482031161343457600080fd5b50823b61344057600080fd5b60008083516020850160008789f190505b9392505050565b6001600160a01b0381163314156134815760405162461bcd60e51b8152600401610a5b906150cc565b600180546001600160a01b0319166001600160a01b0383811691821790925560008054604051929316917fed8889f560326eb138920d842192f0eb3dd22b4f139c87a2c57538e05bae12789190a350565b600b54604080517ffeaf968c0000000000000000000000000000000000000000000000000000000081529051600092670100000000000000900463ffffffff169182151591849182917f00000000000000000000000000000000000000000000000000000000000000006001600160a01b03169163feaf968c9160048083019260a09291908290030181865afa158015613570573d6000803e3d6000fd5b505050506040513d601f19601f8201168201806040525081019061359491906150f9565b5094509092508491505080156135b857506135af8242614a10565b8463ffffffff16105b1561316f5750600a54949350505050565b60006135fd8360000151846020015185604001518660600151868860a001518960c001518a60e001518b6101000151613634565b60038360200151604051602001613615929190615164565b60408051601f1981840301815291905280516020909101209392505050565b61363d8961374f565b6136595760405162461bcd60e51b8152600401610a5b906151b1565b6136628861374f565b61367e5760405162461bcd60e51b8152600401610a5b906151f3565b6136878361374f565b6136a35760405162461bcd60e51b8152600401610a5b90615235565b6136ac8261374f565b6136c85760405162461bcd60e51b8152600401610a5b90615277565b6136d4878a88876137c8565b6136f05760405162461bcd60e51b8152600401610a5b906152b9565b60006136fc8a876138be565b9050600061370f898b878b86898961391f565b90506000613720838d8d8a866139bd565b9050808a146137415760405162461bcd60e51b8152600401610a5b906152fb565b505050505050505050505050565b80516000906401000003d019116137785760405162461bcd60e51b8152600401610a5b9061533d565b60208201516401000003d019116137a15760405162461bcd60e51b8152600401610a5b9061537f565b60208201516401000003d0199080096137c18360005b60200201516139fd565b1492915050565b60006001600160a01b0382166137f05760405162461bcd60e51b8152600401610a5b906153c1565b60208401516000906001161561380757601c61380a565b601b5b9050600070014551231950b75fc4402da1732fc9bebe1985876000602002015109865170014551231950b75fc4402da1732fc9bebe1991820392506000919089098751604080516000808252602090910191829052929350600191613874918691889187906153da565b6020604051602081039080840390855afa158015613896573d6000803e3d6000fd5b5050604051601f1901516001600160a01b039081169088161495505050505050949350505050565b6138c6613eac565b6138f3600184846040516020016138df9392919061543a565b604051602081830303815290604052613a21565b90505b6138ff8161374f565b6125e8578051604051613918916138df91602001615468565b90506138f6565b613927613eac565b825186516401000003d01990819006910614156139565760405162461bcd60e51b8152600401610a5b906154ac565b613961878988613a70565b61397d5760405162461bcd60e51b8152600401610a5b906154ee565b613988848685613a70565b6139a45760405162461bcd60e51b8152600401610a5b90615530565b6139af868484613b6d565b90505b979650505050505050565b6000600286868685876040516020016139db96959493929190615568565b60408051601f1981840301815291905280516020909101209695505050505050565b6000806401000003d01980848509840990506401000003d019600782089392505050565b613a29613eac565b613a3282613c04565b8152613a47613a428260006137b7565b613c4a565b602082018190526002900660011415613a6b576020810180516401000003d0190390525b919050565b600082613a8f5760405162461bcd60e51b8152600401610a5b906155f2565b83516020850151600090613aa590600290615602565b15613ab157601c613ab4565b601b5b9050600070014551231950b75fc4402da1732fc9bebe19838709604080516000808252602090910191829052919250600190613af79083908690889087906153da565b6020604051602081039080840390855afa158015613b19573d6000803e3d6000fd5b505050602060405103519050600086604051602001613b389190615616565b60408051601f1981840301815291905280516020909101206001600160a01b0392831692169190911498975050505050505050565b613b75613eac565b835160208086015185519186015160009384938493613b9693909190613c6a565b919450925090506401000003d019858209600114613bc65760405162461bcd60e51b8152600401610a5b9061565a565b60405180604001604052806401000003d01980613be557613be5615008565b87860981526020016401000003d0198785099052979650505050505050565b805160208201205b6401000003d0198110613a6b5780604051602001613c2a9190615468565b6040516020818303038152906040528051906020012060001c9050613c0c565b60006125e8826002613c636401000003d0196001614e45565b901c613d4a565b60008080600180826401000003d019896401000003d019038808905060006401000003d0198b6401000003d019038a0890506000613caa83838585613dbc565b9098509050613cbb88828e88613de0565b9098509050613ccc88828c87613de0565b90985090506000613cdf8d878b85613de0565b9098509050613cf088828686613dbc565b9098509050613d0188828e89613de0565b9098509050818114613d36576401000003d019818a0998506401000003d01982890997506401000003d0198183099650613d3a565b8196505b5050505050509450945094915050565b600080613d55613eca565b6020808252818101819052604082015260608101859052608081018490526401000003d01960a0820152613d87613ee8565b60208160c0846005600019fa925082613db25760405162461bcd60e51b8152600401610a5b9061569c565b5195945050505050565b6000806401000003d0198487096401000003d0198487099097909650945050505050565b600080806401000003d019878509905060006401000003d01987876401000003d019030990506401000003d0198183086401000003d01986890990999098509650505050505050565b828054828255906000526020600020908101928215613e7e579160200282015b82811115613e7e57825182546001600160a01b0319166001600160a01b03909116178255602090920191600190910190613e49565b50613e8a929150613f06565b5090565b50805460008255906000526020600020908101906109ea9190613f06565b60405180604001604052806002906020820280368337509192915050565b6040518060c001604052806006906020820280368337509192915050565b60405180602001604052806001906020820280368337509192915050565b5b80821115613e8a5760008155600101613f07565b61ffff81165b82525050565b63ffffffff8116613f21565b80613f21565b613f438282613f33565b5060200190565b60200190565b6000613f5a825190565b808452602093840193830160005b82811015613f8d578151613f7c8782613f39565b965050602082019150600101613f68565b5093949350505050565b60608101613fa58286613f1b565b613fb26020830185613f27565b81810360408301526113468184613f50565b67ffffffffffffffff81165b81146109ea57600080fd5b80356125e881613fc4565b600060208284031215613ffb57613ffb600080fd5b600061316f8484613fdb565b60006001600160a01b0382166125e8565b613fd081614007565b80356125e881614018565b6000806040838503121561404257614042600080fd5b600061404e8585613fdb565b925050602061405f85828601614021565b9150509250929050565b67ffffffffffffffff8116613f21565b602081016125e88284614069565b80604081018310156125e8576125e8600080fd5b6000604082840312156140b0576140b0600080fd5b600061316f8484614087565b602081016125e88284613f33565b602081016125e88284613f1b565b60005b838110156140f35781810151838201526020016140db565b83811115610b315750506000910152565b600061410e825190565b8084526020840193506141258185602086016140d8565b601f01601f19169290920192915050565b602080825281016134518184614104565b60006125e86001600160a01b03831661415e565b90565b6001600160a01b031690565b60006125e882614147565b60006125e88261416a565b613f2181614175565b602081016125e88284614180565b6001600160601b038116613f21565b602081016125e88284614197565b602081016125e88284613f27565b61ffff8116613fd0565b80356125e8816141c2565b63ffffffff8116613fd0565b80356125e8816141d7565b80613fd0565b80356125e8816141ee565b634e487b7160e01b600052604160045260246000fd5b601f19601f830116810181811067ffffffffffffffff8211171561423b5761423b6141ff565b6040525050565b600061424d60405190565b9050613a6b8282614215565b62ffffff8116613fd0565b80356125e881614259565b6000610120828403121561428557614285600080fd5b614290610120614242565b9050600061429e84846141e3565b9082015260206142b0848483016141e3565b9082015260406142c2848483016141e3565b9082015260606142d4848483016141e3565b9082015260806142e6848483016141e3565b9082015260a06142f884848301614264565b9082015260c061430a84848301614264565b9082015260e061431c84848301614264565b9082015261010061432f84848301614264565b9082015292915050565b6000806000806000806101c0878903121561435657614356600080fd5b600061436289896141cc565b965050602061437389828a016141e3565b955050604061438489828a016141e3565b945050606061439589828a016141e3565b93505060806143a689828a016141f4565b92505060a06143b789828a0161426f565b9150509295509295509295565b600080600080600060a086880312156143df576143df600080fd5b60006143eb88886141f4565b95505060206143fc88828901613fdb565b945050604061440d888289016141cc565b935050606061441e888289016141e3565b925050608061442f888289016141e3565b9150509295509295909350565b62ffffff8116613f21565b6101208101614456828c613f27565b614463602083018b613f27565b614470604083018a613f27565b61447d6060830189613f27565b61448a6080830188613f27565b61449760a083018761443c565b6144a460c083018661443c565b6144b160e083018561443c565b6144bf61010083018461443c565b9a9950505050505050505050565b6001600160601b038116613fd0565b80356125e8816144cd565b600080604083850312156144fd576144fd600080fd5b60006145098585614021565b925050602061405f858286016144dc565b60006020828403121561452f5761452f600080fd5b600061316f84846141f4565b6000806060838503121561455157614551600080fd5b600061455d8585614021565b925050602061405f85828601614087565b60008060006060848603121561458657614586600080fd5b600061459286866141f4565b93505060206145a3868287016141e3565b92505060406145b4868287016141f4565b9150509250925092565b613f2181614007565b602081016125e882846145be565b613f4382826145be565b60006145e9825190565b808452602093840193830160005b82811015613f8d57815161460b87826145d5565b9650506020820191506001016145f7565b6080810161462a8287614197565b6146376020830186614069565b61464460408301856145be565b818103606083015261465681846145df565b9695505050505050565b60008083601f84011261467557614675600080fd5b50813567ffffffffffffffff81111561469057614690600080fd5b6020830191508360018202830111156146ab576146ab600080fd5b9250929050565b600080600080606085870312156146cb576146cb600080fd5b60006146d78787614021565b94505060206146e8878288016141f4565b935050604085013567ffffffffffffffff81111561470857614708600080fd5b61471487828801614660565b95989497509550505050565b600067ffffffffffffffff82111561473a5761473a6141ff565b5060200290565b600061475461474f84614720565b614242565b9050806020840283018581111561476d5761476d600080fd5b835b8181101561478f5761478187826141f4565b83526020928301920161476f565b5050509392505050565b600082601f8301126147ad576147ad600080fd5b600261316f848285614741565b60006101a082840312156147d0576147d0600080fd5b6147db610120614242565b905060006147e98484614799565b9082015260406147fb84848301614799565b6020830152608061480e858286016141f4565b8284015260a09150614822858386016141f4565b606084015260c0614835868287016141f4565b8285015260e0915061484986838701614021565b83850152610100925061485e86848701614799565b9084015261014061487186868301614799565b828501525050610180614886858286016141f4565b82840152505092915050565b600060a082840312156148a7576148a7600080fd5b6148b160a0614242565b905060006148bf8484613fdb565b9082015260206148d184848301613fdb565b9082015260406148e3848483016141e3565b9082015260606148f5848483016141e3565b90820152608061432f84848301614021565b600080610240838503121561491e5761491e600080fd5b600061492a85856147ba565b9250506101a061405f85828601614892565b6080810161494a8287613f1b565b6149576020830186613f27565b6149646040830185613f27565b6113466060830184613f27565b60006040828403121561498657614986600080fd5b600061316f8484614799565b6000602082840312156149a7576149a7600080fd5b600061316f8484614021565b801515613f21565b602081016125e882846149b3565b604081016149d782856145be565b61345160208301846145be565b634e487b7160e01b600052603260045260246000fd5b634e487b7160e01b600052601160045260246000fd5b815b9150600082821015614a2657614a266149fa565b500390565b634e487b7160e01b600052603160045260246000fd5b6000600019821415614a5557614a556149fa565b5060010190565b60608101614a6a8286613f1b565b614a776020830185613f1b565b61316f6040830184613f1b565b60006125e8825b63ffffffff1690565b60006125e8614a8b8360201c90565b60006125e8614a8b8360401c90565b60006125e8614a8b8360601c90565b60006125e8614a8b8360801c90565b60006125e8614adf8360a01c90565b62ffffff1690565b60006125e8614adf8360b81c90565b60006125e8614adf8360d01c90565b60006125e8614adf8360e81c90565b8054614b1f81614a84565b614b298482613f27565b50614b3381614a94565b614b406020850182613f27565b50614b4a81614aa3565b614b576040850182613f27565b50614b6181614ab2565b614b6e6060850182613f27565b50614b7881614ac1565b614b856080850182613f27565b50614b8f81614ad0565b614b9c60a085018261443c565b50614ba681614ae7565b614bb360c085018261443c565b50614bbd81614af6565b614bca60e085018261443c565b50614bd481614b05565b9050612ac661010084018261443c565b6101c08101614bf38289613f1b565b614c006020830188613f27565b614c0d6040830187613f27565b614c1a6060830186613f27565b614c276080830185613f33565b6139b260a0830184614b14565b604081016149d78285614069565b60408101614c508285613f27565b6134516020830184613f27565b67ffffffffffffffff8116905067ffffffffffffffff8216915060008267ffffffffffffffff03821115614c9357614c936149fa565b500190565b60c08101614ca68289613f33565b614cb36020830188613f33565b614cc06040830187614069565b614ccd6060830186613f27565b614cda6080830185613f27565b6139b260a08301846145be565b60a08101614cf58288613f33565b614d026020830187613f33565b614d0f6040830186613f1b565b614d1c6060830185613f27565b6146566080830184613f27565b6001600160601b03908116908216614a12565b60006125e861415b6001600160601b03841681565b613f2181614d3c565b60408101614d6882856145be565b6134516020830184614d51565b801515613fd0565b80516125e881614d75565b600060208284031215614d9d57614d9d600080fd5b600061316f8484614d7d565b60168152602081017f4d7573742062652070726f706f736564206f776e65720000000000000000000081529050613f4a565b602080825281016125e881614da9565b67ffffffffffffffff81169050600067ffffffffffffffff821415614a5557614a556149fa565b6001600160601b03811690506001600160601b03821691506000826001600160601b0303821115614c9357614c936149fa565b60008219821115614c9357614c936149fa565b60408101614e668285613f33565b6134516020830184613f33565b6000614e7d825190565b808452602093840193830160005b82811015613f8d578151614e9f8782613f39565b965050602082019150600101614e8b565b60408101614ebe8285613f33565b818103602083015261316f8184614e73565b60608101614ede8286613f33565b614eeb6020830185614197565b61316f60408301846149b3565b60028160005b82811015614f23578151614f128682613f39565b955050602082019150600101614efe565b5050505050565b604081016125e88284614ef8565b80516125e8816141ee565b600060208284031215614f5857614f58600080fd5b600061316f8484614f38565b60408101614e6682856145be565b60168152602081017f4f6e6c792063616c6c61626c65206279206f776e65720000000000000000000081529050613f4a565b602080825281016125e881614f72565b60808101614fc28287613f33565b614fcf60208301866145be565b614fdc6040830185614069565b6113466060830184614069565b6000816000190483118215151615615003576150036149fa565b500290565b634e487b7160e01b600052601260045260246000fd5b60008261502d5761502d615008565b500490565b60c081016150408289613f33565b614cb36020830188614069565b60006125e861415b67ffffffffffffffff841681565b613f218161504d565b602081016125e88284615063565b6150848184613f33565b6020016150918183613f33565b60200192915050565b60178152602081017f43616e6e6f74207472616e7366657220746f2073656c6600000000000000000081529050613f4a565b602080825281016125e88161509a565b69ffffffffffffffffffff8116613fd0565b80516125e8816150dc565b600080600080600060a0868803121561511457615114600080fd5b600061512088886150ee565b955050602061513188828901614f38565b945050604061514288828901614f38565b935050606061515388828901614f38565b925050608061442f888289016150ee565b606081016151728285613f33565b6134516020830184614ef8565b601a8152602081017f7075626c6963206b6579206973206e6f74206f6e20637572766500000000000081529050613f4a565b602080825281016125e88161517f565b60158152602081017f67616d6d61206973206e6f74206f6e206375727665000000000000000000000081529050613f4a565b602080825281016125e8816151c1565b601d8152602081017f6347616d6d615769746e657373206973206e6f74206f6e20637572766500000081529050613f4a565b602080825281016125e881615203565b601c8152602081017f73486173685769746e657373206973206e6f74206f6e2063757276650000000081529050613f4a565b602080825281016125e881615245565b60198152602081017f6164647228632a706b2b732a6729213d5f755769746e6573730000000000000081529050613f4a565b602080825281016125e881615287565b600d8152602081017f696e76616c69642070726f6f660000000000000000000000000000000000000081529050613f4a565b602080825281016125e8816152c9565b60128152602081017f696e76616c696420782d6f7264696e617465000000000000000000000000000081529050613f4a565b602080825281016125e88161530b565b60128152602081017f696e76616c696420792d6f7264696e617465000000000000000000000000000081529050613f4a565b602080825281016125e88161534d565b600b8152602081017f626164207769746e65737300000000000000000000000000000000000000000081529050613f4a565b602080825281016125e88161538f565b60ff8116613f21565b608081016153e88287613f33565b6153f560208301866153d1565b6154026040830185613f33565b6113466060830184613f33565b60028160005b82811015614f235781516154298682613f39565b955050602082019150600101615415565b6154448185613f33565b602001615451818461540f565b60400161545e8183613f33565b6020019392505050565b6154728183613f33565b602001919050565b601e8152602081017f706f696e747320696e2073756d206d7573742062652064697374696e6374000081529050613f4a565b602080825281016125e88161547a565b60168152602081017f4669727374206d756c20636865636b206661696c65640000000000000000000081529050613f4a565b602080825281016125e8816154bc565b60178152602081017f5365636f6e64206d756c20636865636b206661696c656400000000000000000081529050613f4a565b602080825281016125e8816154fe565b60006125e88260601b90565b60006125e882615540565b613f2161556382614007565b61554c565b6155728188613f33565b60200161557f818761540f565b60400161558c818661540f565b604001615599818561540f565b6040016155a6818461540f565b6040016155b38183615557565b6014019695505050505050565b600b8152602081017f7a65726f207363616c617200000000000000000000000000000000000000000081529050613f4a565b602080825281016125e8816155c0565b60008261561157615611615008565b500690565b615620818361540f565b604001919050565b60198152602081017f696e765a206d75737420626520696e7665727365206f66207a0000000000000081529050613f4a565b602080825281016125e881615628565b60128152602081017f6269674d6f64457870206661696c75726521000000000000000000000000000081529050613f4a565b602080825281016125e88161566a56fea2646970667358221220407e368c0ba88e3a90be3ef4cd6a9c7cb83067964a7c130460f81963b15bb47e64736f6c634300080c0033",
  "devdoc": {
    "kind": "dev",
    "methods": {
      "acceptSubscriptionOwnerTransfer(uint64)": {
        "details": "will revert if original owner of subId has not requested that msg.sender become the new owner.",
        "params": {
          "subId": "- ID of the subscription"
        }
      },
      "addConsumer(uint64,address)": {
        "params": {
          "consumer": "- New consumer which can use the subscription",
          "subId": "- ID of the subscription"
        }
      },
      "cancelSubscription(uint64,address)": {
        "params": {
          "subId": "- ID of the subscription",
          "to": "- Where to send the remaining LINK to"
        }
      },
      "createSubscription()": {
        "details": "You can manage the consumer set dynamically with addConsumer/removeConsumer.Note to fund the subscription, use transferAndCall. For exampleLINKTOKEN.transferAndCall(address(COORDINATOR),amount,abi.encode(subId));",
        "returns": {
          "_0": "- A unique subscription id."
        }
      },
      "deregisterProvingKey(uint256[2])": {
        "params": {
          "publicProvingKey": "key that oracle can use to submit vrf fulfillments"
        }
      },
      "getCommitment(uint256)": {
        "details": "used to determine if a request is fulfilled or not",
        "params": {
          "requestId": "id of request"
        }
      },
      "getRequestConfig()": {
        "returns": {
          "_0": "minimumRequestConfirmations global min for request confirmations",
          "_1": "maxGasLimit global max for request gas limit",
          "_2": "s_provingKeyHashes list of registered key hashes"
        }
      },
      "getSubscription(uint64)": {
        "params": {
          "subId": "- ID of the subscription"
        },
        "returns": {
          "balance": "- LINK balance of the subscription in juels.",
          "consumers": "- list of consumer address which are able to use this subscription.",
          "owner": "- owner of the subscription.",
          "reqCount": "- number of requests for this subscription, determines fee tier."
        }
      },
      "hashOfKey(uint256[2])": {
        "params": {
          "publicKey": "the key to return the hash of"
        }
      },
      "ownerCancelSubscription(uint64)": {
        "details": "notably can be called even if there are pending requests, outstanding ones may fail onchain",
        "params": {
          "subId": "subscription id"
        }
      },
      "recoverFunds(address)": {
        "params": {
          "to": "address to send link to"
        }
      },
      "registerProvingKey(address,uint256[2])": {
        "params": {
          "oracle": "address of the oracle",
          "publicProvingKey": "key that oracle can use to submit vrf fulfillments"
        }
      },
      "removeConsumer(uint64,address)": {
        "params": {
          "consumer": "- Consumer to remove from the subscription",
          "subId": "- ID of the subscription"
        }
      },
      "requestRandomWords(bytes32,uint64,uint16,uint32,uint32)": {
        "params": {
          "callbackGasLimit": "- How much gas you'd like to receive in your fulfillRandomWords callback. Note that gasleft() inside fulfillRandomWords may be slightly less than this amount because of gas used calling the function (argument decoding etc.), so you may need to request slightly more than you expect to have inside fulfillRandomWords. The acceptable range is [0, maxGasLimit]",
          "keyHash": "- Corresponds to a particular oracle job which uses that key for generating the VRF proof. Different keyHash's have different gas price ceilings, so you can select a specific one to bound your maximum per request cost.",
          "minimumRequestConfirmations": "- How many blocks you'd like the oracle to wait before responding to the request. See SECURITY CONSIDERATIONS for why you may want to request more. The acceptable range is [minimumRequestBlockConfirmations, 200].",
          "numWords": "- The number of uint256 random values you'd like to receive in your fulfillRandomWords callback. Note these numbers are expanded in a secure way by the VRFCoordinator from a single random value supplied by the oracle.",
          "subId": "- The ID of the VRF subscription. Must be funded with the minimum subscription balance required for the selected keyHash."
        },
        "returns": {
          "_0": "- A unique identifier of the request. Can be used to match a request to a response in fulfillRandomWords."
        }
      },
      "requestSubscriptionOwnerTransfer(uint64,address)": {
        "params": {
          "newOwner": "- proposed new owner of the subscription",
          "subId": "- ID of the subscription"
        }
      },
      "setConfig(uint16,uint32,uint32,uint32,int256,(uint32,uint32,uint32,uint32,uint32,uint24,uint24,uint24,uint24))": {
        "params": {
          "fallbackWeiPerUnitLink": "fallback eth/link price in the case of a stale feed",
          "feeConfig": "fee tier configuration",
          "gasAfterPaymentCalculation": "gas used in doing accounting after completing the gas measurement",
          "maxGasLimit": "global max for request gas limit",
          "minimumRequestConfirmations": "global min for request confirmations",
          "stalenessSeconds": "if the eth/link feed is more stale then this, use the fallback price"
        }
      },
      "typeAndVersion()": {
        "returns": {
          "_0": "Type and version string"
        }
      }
    },
    "version": 1
  },
  "userdoc": {
    "kind": "user",
    "methods": {
      "acceptOwnership()": {
        "notice": "Allows an ownership transfer to be completed by the recipient."
      },
      "acceptSubscriptionOwnerTransfer(uint64)": {
        "notice": "Request subscription owner transfer."
      },
      "addConsumer(uint64,address)": {
        "notice": "Add a consumer to a VRF subscription."
      },
      "cancelSubscription(uint64,address)": {
        "notice": "Cancel a subscription"
      },
      "createSubscription()": {
        "notice": "Create a VRF subscription."
      },
      "deregisterProvingKey(uint256[2])": {
        "notice": "Deregisters a proving key to an oracle."
      },
      "getCommitment(uint256)": {
        "notice": "Get request commitment"
      },
      "getRequestConfig()": {
        "notice": "Get configuration relevant for making requests"
      },
      "getSubscription(uint64)": {
        "notice": "Get a VRF subscription."
      },
      "hashOfKey(uint256[2])": {
        "notice": "Returns the proving key hash key associated with this public key"
      },
      "owner()": {
        "notice": "Get the current owner"
      },
      "ownerCancelSubscription(uint64)": {
        "notice": "Owner cancel subscription, sends remaining link directly to the subscription owner."
      },
      "recoverFunds(address)": {
        "notice": "Recover link sent with transfer instead of transferAndCall."
      },
      "registerProvingKey(address,uint256[2])": {
        "notice": "Registers a proving key to an oracle."
      },
      "removeConsumer(uint64,address)": {
        "notice": "Remove a consumer from a VRF subscription."
      },
      "requestRandomWords(bytes32,uint64,uint16,uint32,uint32)": {
        "notice": "Request a set of random words."
      },
      "requestSubscriptionOwnerTransfer(uint64,address)": {
        "notice": "Request subscription owner transfer."
      },
      "setConfig(uint16,uint32,uint32,uint32,int256,(uint32,uint32,uint32,uint32,uint32,uint24,uint24,uint24,uint24))": {
        "notice": "Sets the configuration of the vrfv2 coordinator"
      },
      "transferOwnership(address)": {
        "notice": "Allows an owner to begin transferring ownership to a new address, pending."
      },
      "typeAndVersion()": {
        "notice": "The type and version of this contract"
      }
    },
    "version": 1
  },
  "storageLayout": {
    "storage": [
      {
        "astId": 245,
        "contract": "contracts/test/VRFCoordinatorV2TestHelper.sol:VRFCoordinatorV2TestHelper",
        "label": "s_owner",
        "offset": 0,
        "slot": "0",
        "type": "t_address"
      },
      {
        "astId": 247,
        "contract": "contracts/test/VRFCoordinatorV2TestHelper.sol:VRFCoordinatorV2TestHelper",
        "label": "s_pendingOwner",
        "offset": 0,
        "slot": "1",
        "type": "t_address"
      },
      {
        "astId": 1645,
        "contract": "contracts/test/VRFCoordinatorV2TestHelper.sol:VRFCoordinatorV2TestHelper",
        "label": "s_consumers",
        "offset": 0,
        "slot": "2",
        "type": "t_mapping(t_address,t_mapping(t_uint64,t_uint64))"
      },
      {
        "astId": 1650,
        "contract": "contracts/test/VRFCoordinatorV2TestHelper.sol:VRFCoordinatorV2TestHelper",
        "label": "s_subscriptionConfigs",
        "offset": 0,
        "slot": "3",
        "type": "t_mapping(t_uint64,t_struct(SubscriptionConfig)1639_storage)"
      },
      {
        "astId": 1655,
        "contract": "contracts/test/VRFCoordinatorV2TestHelper.sol:VRFCoordinatorV2TestHelper",
        "label": "s_subscriptions",
        "offset": 0,
        "slot": "4",
        "type": "t_mapping(t_uint64,t_struct(Subscription)1631_storage)"
      },
      {
        "astId": 1657,
        "contract": "contracts/test/VRFCoordinatorV2TestHelper.sol:VRFCoordinatorV2TestHelper",
        "label": "s_currentSubId",
        "offset": 0,
        "slot": "5",
        "type": "t_uint64"
      },
      {
        "astId": 1659,
        "contract": "contracts/test/VRFCoordinatorV2TestHelper.sol:VRFCoordinatorV2TestHelper",
        "label": "s_totalBalance",
        "offset": 8,
        "slot": "5",
        "type": "t_uint96"
      },
      {
        "astId": 1783,
        "contract": "contracts/test/VRFCoordinatorV2TestHelper.sol:VRFCoordinatorV2TestHelper",
        "label": "s_provingKeys",
        "offset": 0,
        "slot": "6",
        "type": "t_mapping(t_bytes32,t_address)"
      },
      {
        "astId": 1786,
        "contract": "contracts/test/VRFCoordinatorV2TestHelper.sol:VRFCoordinatorV2TestHelper",
        "label": "s_provingKeyHashes",
        "offset": 0,
        "slot": "7",
        "type": "t_array(t_bytes32)dyn_storage"
      },
      {
        "astId": 1790,
        "contract": "contracts/test/VRFCoordinatorV2TestHelper.sol:VRFCoordinatorV2TestHelper",
        "label": "s_withdrawableTokens",
        "offset": 0,
        "slot": "8",
        "type": "t_mapping(t_address,t_uint96)"
      },
      {
        "astId": 1794,
        "contract": "contracts/test/VRFCoordinatorV2TestHelper.sol:VRFCoordinatorV2TestHelper",
        "label": "s_requestCommitments",
        "offset": 0,
        "slot": "9",
        "type": "t_mapping(t_uint256,t_bytes32)"
      },
      {
        "astId": 1847,
        "contract": "contracts/test/VRFCoordinatorV2TestHelper.sol:VRFCoordinatorV2TestHelper",
        "label": "s_fallbackWeiPerUnitLink",
        "offset": 0,
        "slot": "10",
        "type": "t_int256"
      },
      {
        "astId": 1850,
        "contract": "contracts/test/VRFCoordinatorV2TestHelper.sol:VRFCoordinatorV2TestHelper",
        "label": "s_config",
        "offset": 0,
        "slot": "11",
        "type": "t_struct(Config)1845_storage"
      },
      {
        "astId": 1853,
        "contract": "contracts/test/VRFCoordinatorV2TestHelper.sol:VRFCoordinatorV2TestHelper",
        "label": "s_feeConfig",
        "offset": 0,
        "slot": "12",
        "type": "t_struct(FeeConfig)1872_storage"
      },
      {
        "astId": 4123,
        "contract": "contracts/test/VRFCoordinatorV2TestHelper.sol:VRFCoordinatorV2TestHelper",
        "label": "s_paymentAmount",
        "offset": 0,
        "slot": "13",
        "type": "t_uint96"
      },
      {
        "astId": 4125,
        "contract": "contracts/test/VRFCoordinatorV2TestHelper.sol:VRFCoordinatorV2TestHelper",
        "label": "s_gasStart",
        "offset": 0,
        "slot": "14",
        "type": "t_uint256"
      }
    ],
    "types": {
      "t_address": {
        "encoding": "inplace",
        "label": "address",
        "numberOfBytes": "20"
      },
      "t_array(t_address)dyn_storage": {
        "base": "t_address",
        "encoding": "dynamic_array",
        "label": "address[]",
        "numberOfBytes": "32"
      },
      "t_array(t_bytes32)dyn_storage": {
        "base": "t_bytes32",
        "encoding": "dynamic_array",
        "label": "bytes32[]",
        "numberOfBytes": "32"
      },
      "t_bool": {
        "encoding": "inplace",
        "label": "bool",
        "numberOfBytes": "1"
      },
      "t_bytes32": {
        "encoding": "inplace",
        "label": "bytes32",
        "numberOfBytes": "32"
      },
      "t_int256": {
        "encoding": "inplace",
        "label": "int256",
        "numberOfBytes": "32"
      },
      "t_mapping(t_address,t_mapping(t_uint64,t_uint64))": {
        "encoding": "mapping",
        "key": "t_address",
        "label": "mapping(address => mapping(uint64 => uint64))",
        "numberOfBytes": "32",
        "value": "t_mapping(t_uint64,t_uint64)"
      },
      "t_mapping(t_address,t_uint96)": {
        "encoding": "mapping",
        "key": "t_address",
        "label": "mapping(address => uint96)",
        "numberOfBytes": "32",
        "value": "t_uint96"
      },
      "t_mapping(t_bytes32,t_address)": {
        "encoding": "mapping",
        "key": "t_bytes32",
        "label": "mapping(bytes32 => address)",
        "numberOfBytes": "32",
        "value": "t_address"
      },
      "t_mapping(t_uint256,t_bytes32)": {
        "encoding": "mapping",
        "key": "t_uint256",
        "label": "mapping(uint256 => bytes32)",
        "numberOfBytes": "32",
        "value": "t_bytes32"
      },
      "t_mapping(t_uint64,t_struct(Subscription)1631_storage)": {
        "encoding": "mapping",
        "key": "t_uint64",
        "label": "mapping(uint64 => struct VRFCoordinatorV2.Subscription)",
        "numberOfBytes": "32",
        "value": "t_struct(Subscription)1631_storage"
      },
      "t_mapping(t_uint64,t_struct(SubscriptionConfig)1639_storage)": {
        "encoding": "mapping",
        "key": "t_uint64",
        "label": "mapping(uint64 => struct VRFCoordinatorV2.SubscriptionConfig)",
        "numberOfBytes": "32",
        "value": "t_struct(SubscriptionConfig)1639_storage"
      },
      "t_mapping(t_uint64,t_uint64)": {
        "encoding": "mapping",
        "key": "t_uint64",
        "label": "mapping(uint64 => uint64)",
        "numberOfBytes": "32",
        "value": "t_uint64"
      },
      "t_struct(Config)1845_storage": {
        "encoding": "inplace",
        "label": "struct VRFCoordinatorV2.Config",
        "members": [
          {
            "astId": 1836,
            "contract": "contracts/test/VRFCoordinatorV2TestHelper.sol:VRFCoordinatorV2TestHelper",
            "label": "minimumRequestConfirmations",
            "offset": 0,
            "slot": "0",
            "type": "t_uint16"
          },
          {
            "astId": 1838,
            "contract": "contracts/test/VRFCoordinatorV2TestHelper.sol:VRFCoordinatorV2TestHelper",
            "label": "maxGasLimit",
            "offset": 2,
            "slot": "0",
            "type": "t_uint32"
          },
          {
            "astId": 1840,
            "contract": "contracts/test/VRFCoordinatorV2TestHelper.sol:VRFCoordinatorV2TestHelper",
            "label": "reentrancyLock",
            "offset": 6,
            "slot": "0",
            "type": "t_bool"
          },
          {
            "astId": 1842,
            "contract": "contracts/test/VRFCoordinatorV2TestHelper.sol:VRFCoordinatorV2TestHelper",
            "label": "stalenessSeconds",
            "offset": 7,
            "slot": "0",
            "type": "t_uint32"
          },
          {
            "astId": 1844,
            "contract": "contracts/test/VRFCoordinatorV2TestHelper.sol:VRFCoordinatorV2TestHelper",
            "label": "gasAfterPaymentCalculation",
            "offset": 11,
            "slot": "0",
            "type": "t_uint32"
          }
        ],
        "numberOfBytes": "32"
      },
      "t_struct(FeeConfig)1872_storage": {
        "encoding": "inplace",
        "label": "struct VRFCoordinatorV2.FeeConfig",
        "members": [
          {
            "astId": 1855,
            "contract": "contracts/test/VRFCoordinatorV2TestHelper.sol:VRFCoordinatorV2TestHelper",
            "label": "fulfillmentFlatFeeLinkPPMTier1",
            "offset": 0,
            "slot": "0",
            "type": "t_uint32"
          },
          {
            "astId": 1857,
            "contract": "contracts/test/VRFCoordinatorV2TestHelper.sol:VRFCoordinatorV2TestHelper",
            "label": "fulfillmentFlatFeeLinkPPMTier2",
            "offset": 4,
            "slot": "0",
            "type": "t_uint32"
          },
          {
            "astId": 1859,
            "contract": "contracts/test/VRFCoordinatorV2TestHelper.sol:VRFCoordinatorV2TestHelper",
            "label": "fulfillmentFlatFeeLinkPPMTier3",
            "offset": 8,
            "slot": "0",
            "type": "t_uint32"
          },
          {
            "astId": 1861,
            "contract": "contracts/test/VRFCoordinatorV2TestHelper.sol:VRFCoordinatorV2TestHelper",
            "label": "fulfillmentFlatFeeLinkPPMTier4",
            "offset": 12,
            "slot": "0",
            "type": "t_uint32"
          },
          {
            "astId": 1863,
            "contract": "contracts/test/VRFCoordinatorV2TestHelper.sol:VRFCoordinatorV2TestHelper",
            "label": "fulfillmentFlatFeeLinkPPMTier5",
            "offset": 16,
            "slot": "0",
            "type": "t_uint32"
          },
          {
            "astId": 1865,
            "contract": "contracts/test/VRFCoordinatorV2TestHelper.sol:VRFCoordinatorV2TestHelper",
            "label": "reqsForTier2",
            "offset": 20,
            "slot": "0",
            "type": "t_uint24"
          },
          {
            "astId": 1867,
            "contract": "contracts/test/VRFCoordinatorV2TestHelper.sol:VRFCoordinatorV2TestHelper",
            "label": "reqsForTier3",
            "offset": 23,
            "slot": "0",
            "type": "t_uint24"
          },
          {
            "astId": 1869,
            "contract": "contracts/test/VRFCoordinatorV2TestHelper.sol:VRFCoordinatorV2TestHelper",
            "label": "reqsForTier4",
            "offset": 26,
            "slot": "0",
            "type": "t_uint24"
          },
          {
            "astId": 1871,
            "contract": "contracts/test/VRFCoordinatorV2TestHelper.sol:VRFCoordinatorV2TestHelper",
            "label": "reqsForTier5",
            "offset": 29,
            "slot": "0",
            "type": "t_uint24"
          }
        ],
        "numberOfBytes": "32"
      },
      "t_struct(Subscription)1631_storage": {
        "encoding": "inplace",
        "label": "struct VRFCoordinatorV2.Subscription",
        "members": [
          {
            "astId": 1628,
            "contract": "contracts/test/VRFCoordinatorV2TestHelper.sol:VRFCoordinatorV2TestHelper",
            "label": "balance",
            "offset": 0,
            "slot": "0",
            "type": "t_uint96"
          },
          {
            "astId": 1630,
            "contract": "contracts/test/VRFCoordinatorV2TestHelper.sol:VRFCoordinatorV2TestHelper",
            "label": "reqCount",
            "offset": 12,
            "slot": "0",
            "type": "t_uint64"
          }
        ],
        "numberOfBytes": "32"
      },
      "t_struct(SubscriptionConfig)1639_storage": {
        "encoding": "inplace",
        "label": "struct VRFCoordinatorV2.SubscriptionConfig",
        "members": [
          {
            "astId": 1633,
            "contract": "contracts/test/VRFCoordinatorV2TestHelper.sol:VRFCoordinatorV2TestHelper",
            "label": "owner",
            "offset": 0,
            "slot": "0",
            "type": "t_address"
          },
          {
            "astId": 1635,
            "contract": "contracts/test/VRFCoordinatorV2TestHelper.sol:VRFCoordinatorV2TestHelper",
            "label": "requestedOwner",
            "offset": 0,
            "slot": "1",
            "type": "t_address"
          },
          {
            "astId": 1638,
            "contract": "contracts/test/VRFCoordinatorV2TestHelper.sol:VRFCoordinatorV2TestHelper",
            "label": "consumers",
            "offset": 0,
            "slot": "2",
            "type": "t_array(t_address)dyn_storage"
          }
        ],
        "numberOfBytes": "96"
      },
      "t_uint16": {
        "encoding": "inplace",
        "label": "uint16",
        "numberOfBytes": "2"
      },
      "t_uint24": {
        "encoding": "inplace",
        "label": "uint24",
        "numberOfBytes": "3"
      },
      "t_uint256": {
        "encoding": "inplace",
        "label": "uint256",
        "numberOfBytes": "32"
      },
      "t_uint32": {
        "encoding": "inplace",
        "label": "uint32",
        "numberOfBytes": "4"
      },
      "t_uint64": {
        "encoding": "inplace",
        "label": "uint64",
        "numberOfBytes": "8"
      },
      "t_uint96": {
        "encoding": "inplace",
        "label": "uint96",
        "numberOfBytes": "12"
      }
    }
  }
}