{
  "address": "0xAF035f284f79719bbCCCe5eAC6408DC47A736A61",
  "abi": [
    {
      "inputs": [
        {
          "internalType": "string",
          "name": "name_",
          "type": "string"
        },
        {
          "internalType": "string",
          "name": "symbol_",
          "type": "string"
        },
        {
          "internalType": "address",
          "name": "_rendererAddress",
          "type": "address"
        },
        {
          "internalType": "address",
          "name": "_opensea",
          "type": "address"
        },
        {
          "internalType": "address",
          "name": "_looksrare",
          "type": "address"
        },
        {
          "internalType": "address",
          "name": "vrfCoordinator",
          "type": "address"
        },
        {
          "internalType": "address",
          "name": "link",
          "type": "address"
        },
        {
          "internalType": "bytes32",
          "name": "keyHash",
          "type": "bytes32"
        }
      ],
      "stateMutability": "nonpayable",
      "type": "constructor"
    },
    {
      "inputs": [],
      "name": "ApprovalCallerNotOwnerNorApproved",
      "type": "error"
    },
    {
      "inputs": [],
      "name": "ApprovalQueryForNonexistentToken",
      "type": "error"
    },
    {
      "inputs": [],
      "name": "ApprovalToCurrentOwner",
      "type": "error"
    },
    {
      "inputs": [],
      "name": "ApproveToCaller",
      "type": "error"
    },
    {
      "inputs": [],
      "name": "BalanceQueryForZeroAddress",
      "type": "error"
    },
    {
      "inputs": [],
      "name": "MintToZeroAddress",
      "type": "error"
    },
    {
      "inputs": [],
      "name": "MintZeroQuantity",
      "type": "error"
    },
    {
      "inputs": [
        {
          "internalType": "address",
          "name": "have",
          "type": "address"
        },
        {
          "internalType": "address",
          "name": "want",
          "type": "address"
        }
      ],
      "name": "OnlyCoordinatorCanFulfill",
      "type": "error"
    },
    {
      "inputs": [],
      "name": "OwnerIndexOutOfBounds",
      "type": "error"
    },
    {
      "inputs": [],
      "name": "OwnerQueryForNonexistentToken",
      "type": "error"
    },
    {
      "inputs": [],
      "name": "TokenIndexOutOfBounds",
      "type": "error"
    },
    {
      "inputs": [],
      "name": "TransferCallerNotOwnerNorApproved",
      "type": "error"
    },
    {
      "inputs": [],
      "name": "TransferFromIncorrectOwner",
      "type": "error"
    },
    {
      "inputs": [],
      "name": "TransferToNonERC721ReceiverImplementer",
      "type": "error"
    },
    {
      "inputs": [],
      "name": "TransferToZeroAddress",
      "type": "error"
    },
    {
      "anonymous": false,
      "inputs": [
        {
          "indexed": true,
          "internalType": "address",
          "name": "owner",
          "type": "address"
        },
        {
          "indexed": true,
          "internalType": "address",
          "name": "approved",
          "type": "address"
        },
        {
          "indexed": true,
          "internalType": "uint256",
          "name": "tokenId",
          "type": "uint256"
        }
      ],
      "name": "Approval",
      "type": "event"
    },
    {
      "anonymous": false,
      "inputs": [
        {
          "indexed": true,
          "internalType": "address",
          "name": "owner",
          "type": "address"
        },
        {
          "indexed": true,
          "internalType": "address",
          "name": "operator",
          "type": "address"
        },
        {
          "indexed": false,
          "internalType": "bool",
          "name": "approved",
          "type": "bool"
        }
      ],
      "name": "ApprovalForAll",
      "type": "event"
    },
    {
      "anonymous": false,
      "inputs": [
        {
          "indexed": true,
          "internalType": "address",
          "name": "previousOwner",
          "type": "address"
        },
        {
          "indexed": true,
          "internalType": "address",
          "name": "newOwner",
          "type": "address"
        }
      ],
      "name": "OwnershipTransferred",
      "type": "event"
    },
    {
      "anonymous": false,
      "inputs": [
        {
          "indexed": true,
          "internalType": "address",
          "name": "from",
          "type": "address"
        },
        {
          "indexed": true,
          "internalType": "address",
          "name": "to",
          "type": "address"
        },
        {
          "indexed": true,
          "internalType": "uint256",
          "name": "tokenId",
          "type": "uint256"
        }
      ],
      "name": "Transfer",
      "type": "event"
    },
    {
      "inputs": [],
      "name": "COBOTS_MINT_DURATION",
      "outputs": [
        {
          "internalType": "uint256",
          "name": "",
          "type": "uint256"
        }
      ],
      "stateMutability": "view",
      "type": "function"
    },
    {
      "inputs": [],
      "name": "COBOTS_MINT_RAFFLE_DELAY",
      "outputs": [
        {
          "internalType": "uint256",
          "name": "",
          "type": "uint256"
        }
      ],
      "stateMutability": "view",
      "type": "function"
    },
    {
      "inputs": [],
      "name": "COBOTS_REFUND_DURATION",
      "outputs": [
        {
          "internalType": "uint256",
          "name": "",
          "type": "uint256"
        }
      ],
      "stateMutability": "view",
      "type": "function"
    },
    {
      "inputs": [],
      "name": "COORDINATION_RAFFLE_PRIZE",
      "outputs": [
        {
          "internalType": "uint256",
          "name": "",
          "type": "uint256"
        }
      ],
      "stateMutability": "view",
      "type": "function"
    },
    {
      "inputs": [],
      "name": "COORDINATION_RAFFLE_THRESHOLD",
      "outputs": [
        {
          "internalType": "uint16",
          "name": "",
          "type": "uint16"
        }
      ],
      "stateMutability": "view",
      "type": "function"
    },
    {
      "inputs": [],
      "name": "COORDINATION_RAFFLE_WINNERS_COUNT",
      "outputs": [
        {
          "internalType": "uint8",
          "name": "",
          "type": "uint8"
        }
      ],
      "stateMutability": "view",
      "type": "function"
    },
    {
      "inputs": [],
      "name": "MAIN_RAFFLE_PRIZE",
      "outputs": [
        {
          "internalType": "uint256",
          "name": "",
          "type": "uint256"
        }
      ],
      "stateMutability": "view",
      "type": "function"
    },
    {
      "inputs": [],
      "name": "MAIN_RAFFLE_WINNERS_COUNT",
      "outputs": [
        {
          "internalType": "uint8",
          "name": "",
          "type": "uint8"
        }
      ],
      "stateMutability": "view",
      "type": "function"
    },
    {
      "inputs": [],
      "name": "MAX_COBOTS",
      "outputs": [
        {
          "internalType": "uint256",
          "name": "",
          "type": "uint256"
        }
      ],
      "stateMutability": "view",
      "type": "function"
    },
    {
      "inputs": [],
      "name": "MAX_MINT_PER_ADDRESS",
      "outputs": [
        {
          "internalType": "uint8",
          "name": "",
          "type": "uint8"
        }
      ],
      "stateMutability": "view",
      "type": "function"
    },
    {
      "inputs": [],
      "name": "MINT_FOUNDERS_AND_GIVEAWAYS",
      "outputs": [
        {
          "internalType": "uint8",
          "name": "",
          "type": "uint8"
        }
      ],
      "stateMutability": "view",
      "type": "function"
    },
    {
      "inputs": [],
      "name": "MINT_GIVEAWAYS",
      "outputs": [
        {
          "internalType": "uint8",
          "name": "",
          "type": "uint8"
        }
      ],
      "stateMutability": "view",
      "type": "function"
    },
    {
      "inputs": [],
      "name": "MINT_PUBLIC_PRICE",
      "outputs": [
        {
          "internalType": "uint256",
          "name": "",
          "type": "uint256"
        }
      ],
      "stateMutability": "view",
      "type": "function"
    },
    {
      "inputs": [],
      "name": "RAFFLE_DRAW_DELAY",
      "outputs": [
        {
          "internalType": "uint256",
          "name": "",
          "type": "uint256"
        }
      ],
      "stateMutability": "view",
      "type": "function"
    },
    {
      "inputs": [
        {
          "internalType": "address",
          "name": "to",
          "type": "address"
        },
        {
          "internalType": "uint256",
          "name": "tokenId",
          "type": "uint256"
        }
      ],
      "name": "approve",
      "outputs": [],
      "stateMutability": "nonpayable",
      "type": "function"
    },
    {
      "inputs": [
        {
          "internalType": "address",
          "name": "owner",
          "type": "address"
        }
      ],
      "name": "balanceOf",
      "outputs": [
        {
          "internalType": "uint256",
          "name": "",
          "type": "uint256"
        }
      ],
      "stateMutability": "view",
      "type": "function"
    },
    {
      "inputs": [],
      "name": "cancelSubscription",
      "outputs": [],
      "stateMutability": "nonpayable",
      "type": "function"
    },
    {
      "inputs": [
        {
          "internalType": "uint256[]",
          "name": "tokenIds",
          "type": "uint256[]"
        }
      ],
      "name": "claimRefund",
      "outputs": [],
      "stateMutability": "nonpayable",
      "type": "function"
    },
    {
      "inputs": [],
      "name": "coBotsColorAgreement",
      "outputs": [
        {
          "internalType": "uint16",
          "name": "",
          "type": "uint16"
        }
      ],
      "stateMutability": "view",
      "type": "function"
    },
    {
      "inputs": [
        {
          "internalType": "uint256",
          "name": "",
          "type": "uint256"
        }
      ],
      "name": "coBotsColors",
      "outputs": [
        {
          "internalType": "bool",
          "name": "",
          "type": "bool"
        }
      ],
      "stateMutability": "view",
      "type": "function"
    },
    {
      "inputs": [
        {
          "internalType": "uint256",
          "name": "",
          "type": "uint256"
        }
      ],
      "name": "coBotsRefunded",
      "outputs": [
        {
          "internalType": "bool",
          "name": "",
          "type": "bool"
        }
      ],
      "stateMutability": "view",
      "type": "function"
    },
    {
      "inputs": [
        {
          "internalType": "uint256",
          "name": "",
          "type": "uint256"
        }
      ],
      "name": "coBotsSeeds",
      "outputs": [
        {
          "internalType": "uint8",
          "name": "",
          "type": "uint8"
        }
      ],
      "stateMutability": "view",
      "type": "function"
    },
    {
      "inputs": [
        {
          "internalType": "uint256",
          "name": "",
          "type": "uint256"
        }
      ],
      "name": "coBotsStatusDisabled",
      "outputs": [
        {
          "internalType": "bool",
          "name": "",
          "type": "bool"
        }
      ],
      "stateMutability": "view",
      "type": "function"
    },
    {
      "inputs": [],
      "name": "cooperativeRaffleEnabled",
      "outputs": [
        {
          "internalType": "bool",
          "name": "",
          "type": "bool"
        }
      ],
      "stateMutability": "view",
      "type": "function"
    },
    {
      "inputs": [
        {
          "internalType": "uint96",
          "name": "amount",
          "type": "uint96"
        }
      ],
      "name": "createSubscriptionAndFund",
      "outputs": [],
      "stateMutability": "nonpayable",
      "type": "function"
    },
    {
      "inputs": [],
      "name": "draw",
      "outputs": [
        {
          "internalType": "uint256",
          "name": "",
          "type": "uint256"
        }
      ],
      "stateMutability": "nonpayable",
      "type": "function"
    },
    {
      "inputs": [],
      "name": "drawCount",
      "outputs": [
        {
          "internalType": "uint16",
          "name": "",
          "type": "uint16"
        }
      ],
      "stateMutability": "view",
      "type": "function"
    },
    {
      "inputs": [
        {
          "internalType": "uint256",
          "name": "_tokenId",
          "type": "uint256"
        }
      ],
      "name": "exists",
      "outputs": [
        {
          "internalType": "bool",
          "name": "",
          "type": "bool"
        }
      ],
      "stateMutability": "view",
      "type": "function"
    },
    {
      "inputs": [
        {
          "internalType": "address",
          "name": "proxyAddress",
          "type": "address"
        }
      ],
      "name": "flipProxyState",
      "outputs": [],
      "stateMutability": "nonpayable",
      "type": "function"
    },
    {
      "inputs": [
        {
          "internalType": "uint256",
          "name": "tokenId",
          "type": "uint256"
        }
      ],
      "name": "getApproved",
      "outputs": [
        {
          "internalType": "address",
          "name": "",
          "type": "address"
        }
      ],
      "stateMutability": "view",
      "type": "function"
    },
    {
      "inputs": [
        {
          "internalType": "address",
          "name": "owner",
          "type": "address"
        },
        {
          "internalType": "address",
          "name": "operator",
          "type": "address"
        }
      ],
      "name": "isApprovedForAll",
      "outputs": [
        {
          "internalType": "bool",
          "name": "",
          "type": "bool"
        }
      ],
      "stateMutability": "view",
      "type": "function"
    },
    {
      "inputs": [],
      "name": "isDrawOpen",
      "outputs": [
        {
          "internalType": "bool",
          "name": "",
          "type": "bool"
        }
      ],
      "stateMutability": "view",
      "type": "function"
    },
    {
      "inputs": [],
      "name": "isMintedOut",
      "outputs": [
        {
          "internalType": "bool",
          "name": "",
          "type": "bool"
        }
      ],
      "stateMutability": "view",
      "type": "function"
    },
    {
      "inputs": [],
      "name": "isPublicSaleOpen",
      "outputs": [
        {
          "internalType": "bool",
          "name": "",
          "type": "bool"
        }
      ],
      "stateMutability": "view",
      "type": "function"
    },
    {
      "inputs": [],
      "name": "lastDrawTimestamp",
      "outputs": [
        {
          "internalType": "uint256",
          "name": "",
          "type": "uint256"
        }
      ],
      "stateMutability": "view",
      "type": "function"
    },
    {
      "inputs": [],
      "name": "looksrare",
      "outputs": [
        {
          "internalType": "address",
          "name": "",
          "type": "address"
        }
      ],
      "stateMutability": "view",
      "type": "function"
    },
    {
      "inputs": [
        {
          "internalType": "address",
          "name": "to",
          "type": "address"
        },
        {
          "internalType": "uint256",
          "name": "quantity",
          "type": "uint256"
        }
      ],
      "name": "mintFoundersAndGiveaways",
      "outputs": [],
      "stateMutability": "nonpayable",
      "type": "function"
    },
    {
      "inputs": [
        {
          "internalType": "uint256",
          "name": "quantity",
          "type": "uint256"
        }
      ],
      "name": "mintPublicSale",
      "outputs": [],
      "stateMutability": "payable",
      "type": "function"
    },
    {
      "inputs": [],
      "name": "mintedOutTimestamp",
      "outputs": [
        {
          "internalType": "uint256",
          "name": "",
          "type": "uint256"
        }
      ],
      "stateMutability": "view",
      "type": "function"
    },
    {
      "inputs": [],
      "name": "name",
      "outputs": [
        {
          "internalType": "string",
          "name": "",
          "type": "string"
        }
      ],
      "stateMutability": "view",
      "type": "function"
    },
    {
      "inputs": [],
      "name": "openPublicSale",
      "outputs": [],
      "stateMutability": "nonpayable",
      "type": "function"
    },
    {
      "inputs": [],
      "name": "opensea",
      "outputs": [
        {
          "internalType": "address",
          "name": "",
          "type": "address"
        }
      ],
      "stateMutability": "view",
      "type": "function"
    },
    {
      "inputs": [],
      "name": "owner",
      "outputs": [
        {
          "internalType": "address",
          "name": "",
          "type": "address"
        }
      ],
      "stateMutability": "view",
      "type": "function"
    },
    {
      "inputs": [
        {
          "internalType": "uint256",
          "name": "tokenId",
          "type": "uint256"
        }
      ],
      "name": "ownerOf",
      "outputs": [
        {
          "internalType": "address",
          "name": "",
          "type": "address"
        }
      ],
      "stateMutability": "view",
      "type": "function"
    },
    {
      "inputs": [
        {
          "internalType": "address",
          "name": "",
          "type": "address"
        }
      ],
      "name": "prizePerAddress",
      "outputs": [
        {
          "internalType": "uint256",
          "name": "",
          "type": "uint256"
        }
      ],
      "stateMutability": "view",
      "type": "function"
    },
    {
      "inputs": [
        {
          "internalType": "uint256",
          "name": "",
          "type": "uint256"
        }
      ],
      "name": "prizePerDraw",
      "outputs": [
        {
          "internalType": "uint256",
          "name": "",
          "type": "uint256"
        }
      ],
      "stateMutability": "view",
      "type": "function"
    },
    {
      "inputs": [],
      "name": "publicSaleStartTimestamp",
      "outputs": [
        {
          "internalType": "uint256",
          "name": "",
          "type": "uint256"
        }
      ],
      "stateMutability": "view",
      "type": "function"
    },
    {
      "inputs": [
        {
          "internalType": "uint256",
          "name": "requestId",
          "type": "uint256"
        },
        {
          "internalType": "uint256[]",
          "name": "randomWords",
          "type": "uint256[]"
        }
      ],
      "name": "rawFulfillRandomWords",
      "outputs": [],
      "stateMutability": "nonpayable",
      "type": "function"
    },
    {
      "inputs": [],
      "name": "renderingContractAddress",
      "outputs": [
        {
          "internalType": "address",
          "name": "",
          "type": "address"
        }
      ],
      "stateMutability": "view",
      "type": "function"
    },
    {
      "inputs": [],
      "name": "renounceOwnership",
      "outputs": [],
      "stateMutability": "nonpayable",
      "type": "function"
    },
    {
      "inputs": [],
      "name": "s_subId",
      "outputs": [
        {
          "internalType": "uint64",
          "name": "",
          "type": "uint64"
        }
      ],
      "stateMutability": "view",
      "type": "function"
    },
    {
      "inputs": [
        {
          "internalType": "address",
          "name": "from",
          "type": "address"
        },
        {
          "internalType": "address",
          "name": "to",
          "type": "address"
        },
        {
          "internalType": "uint256",
          "name": "tokenId",
          "type": "uint256"
        }
      ],
      "name": "safeTransferFrom",
      "outputs": [],
      "stateMutability": "nonpayable",
      "type": "function"
    },
    {
      "inputs": [
        {
          "internalType": "address",
          "name": "from",
          "type": "address"
        },
        {
          "internalType": "address",
          "name": "to",
          "type": "address"
        },
        {
          "internalType": "uint256",
          "name": "tokenId",
          "type": "uint256"
        },
        {
          "internalType": "bytes",
          "name": "_data",
          "type": "bytes"
        }
      ],
      "name": "safeTransferFrom",
      "outputs": [],
      "stateMutability": "nonpayable",
      "type": "function"
    },
    {
      "inputs": [
        {
          "internalType": "address",
          "name": "operator",
          "type": "address"
        },
        {
          "internalType": "bool",
          "name": "approved",
          "type": "bool"
        }
      ],
      "name": "setApprovalForAll",
      "outputs": [],
      "stateMutability": "nonpayable",
      "type": "function"
    },
    {
      "inputs": [
        {
          "internalType": "address",
          "name": "looksrare_",
          "type": "address"
        }
      ],
      "name": "setLooksrare",
      "outputs": [],
      "stateMutability": "nonpayable",
      "type": "function"
    },
    {
      "inputs": [
        {
          "internalType": "address",
          "name": "opensea_",
          "type": "address"
        }
      ],
      "name": "setOpensea",
      "outputs": [],
      "stateMutability": "nonpayable",
      "type": "function"
    },
    {
      "inputs": [
        {
          "internalType": "address",
          "name": "_renderingContractAddress",
          "type": "address"
        }
      ],
      "name": "setRenderingContractAddress",
      "outputs": [],
      "stateMutability": "nonpayable",
      "type": "function"
    },
    {
      "inputs": [
        {
          "internalType": "bytes4",
          "name": "interfaceId",
          "type": "bytes4"
        }
      ],
      "name": "supportsInterface",
      "outputs": [
        {
          "internalType": "bool",
          "name": "",
          "type": "bool"
        }
      ],
      "stateMutability": "view",
      "type": "function"
    },
    {
      "inputs": [],
      "name": "symbol",
      "outputs": [
        {
          "internalType": "string",
          "name": "",
          "type": "string"
        }
      ],
      "stateMutability": "view",
      "type": "function"
    },
    {
      "inputs": [
        {
          "internalType": "uint256",
          "name": "tokenId",
          "type": "uint256"
        }
      ],
      "name": "toggleColor",
      "outputs": [],
      "stateMutability": "nonpayable",
      "type": "function"
    },
    {
      "inputs": [
        {
          "internalType": "uint256[]",
          "name": "tokenIds",
          "type": "uint256[]"
        }
      ],
      "name": "toggleColors",
      "outputs": [],
      "stateMutability": "nonpayable",
      "type": "function"
    },
    {
      "inputs": [
        {
          "internalType": "uint256",
          "name": "tokenId",
          "type": "uint256"
        }
      ],
      "name": "toggleStatus",
      "outputs": [],
      "stateMutability": "nonpayable",
      "type": "function"
    },
    {
      "inputs": [
        {
          "internalType": "uint256[]",
          "name": "tokenIds",
          "type": "uint256[]"
        }
      ],
      "name": "toggleStatuses",
      "outputs": [],
      "stateMutability": "nonpayable",
      "type": "function"
    },
    {
      "inputs": [
        {
          "internalType": "uint256",
          "name": "index",
          "type": "uint256"
        }
      ],
      "name": "tokenByIndex",
      "outputs": [
        {
          "internalType": "uint256",
          "name": "",
          "type": "uint256"
        }
      ],
      "stateMutability": "view",
      "type": "function"
    },
    {
      "inputs": [
        {
          "internalType": "address",
          "name": "owner",
          "type": "address"
        },
        {
          "internalType": "uint256",
          "name": "index",
          "type": "uint256"
        }
      ],
      "name": "tokenOfOwnerByIndex",
      "outputs": [
        {
          "internalType": "uint256",
          "name": "",
          "type": "uint256"
        }
      ],
      "stateMutability": "view",
      "type": "function"
    },
    {
      "inputs": [
        {
          "internalType": "uint256",
          "name": "_tokenId",
          "type": "uint256"
        }
      ],
      "name": "tokenURI",
      "outputs": [
        {
          "internalType": "string",
          "name": "",
          "type": "string"
        }
      ],
      "stateMutability": "view",
      "type": "function"
    },
    {
      "inputs": [],
      "name": "totalSupply",
      "outputs": [
        {
          "internalType": "uint256",
          "name": "",
          "type": "uint256"
        }
      ],
      "stateMutability": "view",
      "type": "function"
    },
    {
      "inputs": [
        {
          "internalType": "address",
          "name": "from",
          "type": "address"
        },
        {
          "internalType": "address",
          "name": "to",
          "type": "address"
        },
        {
          "internalType": "uint256",
          "name": "tokenId",
          "type": "uint256"
        }
      ],
      "name": "transferFrom",
      "outputs": [],
      "stateMutability": "nonpayable",
      "type": "function"
    },
    {
      "inputs": [
        {
          "internalType": "address",
          "name": "newOwner",
          "type": "address"
        }
      ],
      "name": "transferOwnership",
      "outputs": [],
      "stateMutability": "nonpayable",
      "type": "function"
    },
    {
      "inputs": [
        {
          "internalType": "uint256",
          "name": "",
          "type": "uint256"
        }
      ],
      "name": "winners",
      "outputs": [
        {
          "internalType": "address",
          "name": "",
          "type": "address"
        }
      ],
      "stateMutability": "view",
      "type": "function"
    },
    {
      "inputs": [],
      "name": "withdraw",
      "outputs": [],
      "stateMutability": "nonpayable",
      "type": "function"
    },
    {
      "stateMutability": "payable",
      "type": "receive"
    }
  ],
  "transactionHash": "0xb688cdd28eede1a6eb7692ead4073974569f34f624dbaeffe660cbf988319f89",
  "args": [
    "Co-Bots",
    "CBTS",
    "0x9Fc33D7377c65e4D96f8E5Dd07ea93a21c1F2f03",
    "0xa5409ec958c83c3f309868babaca7c86dcb077c1",
    "0xf42aa99f011a1fa7cda90e5e98b277e306bca83e",
    "0x6168499c0cFfCaCD319c818142124B7A15E857ab",
    "0x01BE23585060835E02B77ef475b0Cc51aA1e0709",
    "0xd89b2bf150e3b9e13446986e571fb9cab24b13cea0a43ea20a6049a85cc807cc"
  ],
  "numDeployments": 13,
  "solcInputHash": "41158309e52425f77d8fed041b3df296",
  "bytecode": "0x60a06040526104ed805461ffff19166113881790553480156200002157600080fd5b5060405162004a2738038062004a278339810160408190526200004491620003e6565b82888881600190805190602001906200005f929190620001b5565b50805162000075906002906020840190620001b5565b5050506001600160a01b03166080526200008f33620000ff565b60016008556200009f8662000151565b6104f080546001600160a01b03199081166001600160a01b03978816179091556104f180548216958716959095179094556104f580548516938616939093179092556104f6805490931693169290921790556104f7555062000566915050565b600780546001600160a01b038381166001600160a01b0319831681179093556040519116919082907f8be0079c531659141344cd1fd0a4f28419497f9722a3daafe3b4186f6b6457e090600090a35050565b6007546001600160a01b03163314620001875760405162461bcd60e51b81526004016200017e90620004e4565b60405180910390fd5b6104f380546001600160a01b039092166001600160a01b031992831681179091556104f48054909216179055565b828054620001c39062000535565b90600052602060002090601f016020900481019282620001e7576000855562000232565b82601f106200020257805160ff191683800117855562000232565b8280016001018555821562000232579182015b828111156200023257825182559160200191906001019062000215565b506200024092915062000244565b5090565b5b8082111562000240576000815560010162000245565b634e487b7160e01b600052604160045260246000fd5b601f19601f83011681016001600160401b03811182821017156200029957620002996200025b565b6040525050565b6000620002ac60405190565b9050620002ba828262000271565b919050565b60006001600160401b03821115620002db57620002db6200025b565b601f19601f83011660200192915050565b60005b8381101562000309578181015183820152602001620002ef565b8381111562000319576000848401525b50505050565b6000620003366200033084620002bf565b620002a0565b905082815260208101848484011115620003535762000353600080fd5b62000360848285620002ec565b509392505050565b600082601f8301126200037e576200037e600080fd5b8151620003908482602086016200031f565b949350505050565b60006001600160a01b0382165b92915050565b620003b68162000398565b8114620003c257600080fd5b50565b8051620003a581620003ab565b80620003b6565b8051620003a581620003d2565b600080600080600080600080610100898b031215620004085762000408600080fd5b88516001600160401b03811115620004235762000423600080fd5b620004318b828c0162000368565b60208b015190995090506001600160401b03811115620004545762000454600080fd5b620004628b828c0162000368565b9750506040620004758b828c01620003c5565b9650506060620004888b828c01620003c5565b95505060806200049b8b828c01620003c5565b94505060a0620004ae8b828c01620003c5565b93505060c0620004c18b828c01620003c5565b92505060e0620004d48b828c01620003d9565b9150509295985092959890939650565b60208082528181019081527f4f776e61626c653a2063616c6c6572206973206e6f7420746865206f776e6572604083015260608201620003a5565b634e487b7160e01b600052602260045260246000fd5b6002810460018216806200054a57607f821691505b602082108114156200056057620005606200051f565b50919050565b60805161449e62000589600039600081816112a201526112ca015261449e6000f3fe6080604052600436106104845760003560e01c806368d99f7c1161025e578063adb19dc311610143578063c87b56dd116100bb578063e985e9c51161008a578063f54a6f831161006f578063f54a6f8314610c79578063f73c814b14610c99578063fc749b3c14610cb957600080fd5b8063e985e9c514610c39578063f2fde38b14610c5957600080fd5b8063c87b56dd14610bc1578063cef46f0d14610be1578063cf62c8ab14610c02578063d7822c9914610c2257600080fd5b8063b776c8a611610112578063c074f412116100f7578063c074f41214610b80578063c45ca31014610ba1578063c79945101461099957600080fd5b8063b776c8a614610b40578063b88d4fde14610b6057600080fd5b8063adb19dc314610aef578063b06a01f41461077f578063b4b294d914610b0f578063b585209b14610b2b57600080fd5b806395d89b41116101d6578063a3b1763f116101a5578063a8e90b571161018a578063a8e90b5714610aa3578063abb7a28f14610ac4578063ac483b9314610ada57600080fd5b8063a3b1763f14610a6a578063a747338314610a8657600080fd5b806395d89b41146109fa5780639c51792a14610a0f578063a22cb46514610a2a578063a2fb117514610a4a57600080fd5b806373cd7d881161022d57806378af6b851161021257806378af6b85146109b05780638c21460b146109c55780638da5cb5b146109dc57600080fd5b806373cd7d8814610984578063743521e41461099957600080fd5b806368d99f7c146108fd578063706da1ca1461092057806370a082311461094f578063715018a61461096f57600080fd5b806323b872dd116103845780634f558e79116102fc57806351db2e76116102cb5780635dad667c116102b05780635dad667c1461089d5780636352211e146108bd5780636445b238146108dd57600080fd5b806351db2e761461086a5780635a5e5d581461088a57600080fd5b80634f558e79146107e95780634f6ccce7146108095780634fb9462a14610829578063511ed3821461084957600080fd5b806330d1bda1116103535780633ccfd60b116103385780633ccfd60b1461079457806342842e0e146107a957806347a3650b146107c957600080fd5b806330d1bda1146107515780633acd6cb21461077f57600080fd5b806323b872dd146106e757806324e9edb0146107075780632f745c591461071c5780632fd573a51461073c57600080fd5b80630bb4d0421161041757806318160ddd116103e65780631e8858fb116103cb5780631e8858fb146106875780631fafadbc146106a75780631fe543e3146106c757600080fd5b806318160ddd146106365780631a6949e31461067257600080fd5b80630bb4d042146105d45780630eecae21146105ea57806312b40a9f146105ff57806316d870c21461061f57600080fd5b806306fdde031161045357806306fdde031461053a578063081812fc1461055c57806308222d5814610589578063095ea7b3146105b257600080fd5b806301d2a00b1461049057806301ffc9a7146104d457806303e48f661461050157806304035a921461052357600080fd5b3661048b57005b600080fd5b34801561049c57600080fd5b506104be6104ab36600461327e565b6104fc6020526000908152604090205481565b6040516104cb91906132a7565b60405180910390f35b3480156104e057600080fd5b506104f46104ef3660046132d0565b610cd9565b6040516104cb91906132f9565b34801561050d57600080fd5b50610516603281565b6040516104cb9190613310565b34801561052f57600080fd5b506104be6104ef5481565b34801561054657600080fd5b5061054f610daa565b6040516104cb919061337c565b34801561056857600080fd5b5061057c61057736600461327e565b610e3c565b6040516104cb91906133a7565b34801561059557600080fd5b506104fd546105a59061ffff1681565b6040516104cb91906133bf565b3480156105be57600080fd5b506105d26105cd3660046133e1565b610e99565b005b3480156105e057600080fd5b506104be61271081565b3480156105f657600080fd5b506104be610f59565b34801561060b57600080fd5b506105d261061a36600461341e565b611174565b34801561062b57600080fd5b506104be6201518081565b34801561064257600080fd5b506104be6000546001600160801b0370010000000000000000000000000000000082048116918116919091031690565b34801561067e57600080fd5b506104f46111d9565b34801561069357600080fd5b506105d26106a236600461341e565b611212565b3480156106b357600080fd5b506105166106c236600461327e565b61126c565b3480156106d357600080fd5b506105d26106e2366004613544565b611297565b3480156106f357600080fd5b506105d2610702366004613592565b61132b565b34801561071357600080fd5b506105d2611336565b34801561072857600080fd5b506104be6107373660046133e1565b611401565b34801561074857600080fd5b506104be603c81565b34801561075d57600080fd5b506104be61076c36600461341e565b6104fa6020526000908152604090205481565b34801561078b57600080fd5b50610516601481565b3480156107a057600080fd5b506105d2611517565b3480156107b557600080fd5b506105d26107c4366004613592565b611621565b3480156107d557600080fd5b506105d26107e4366004613634565b61163c565b3480156107f557600080fd5b506104f461080436600461327e565b6116ac565b34801561081557600080fd5b506104be61082436600461327e565b6116b7565b34801561083557600080fd5b506104f461084436600461327e565b61177b565b34801561085557600080fd5b506104f05461057c906001600160a01b031681565b34801561087657600080fd5b506105d261088536600461327e565b61178d565b6105d261089836600461327e565b611850565b3480156108a957600080fd5b506105d26108b836600461327e565b611973565b3480156108c957600080fd5b5061057c6108d836600461327e565b611a96565b3480156108e957600080fd5b506104f46108f836600461327e565b611aa8565b34801561090957600080fd5b506104f46000546001600160801b03166127101490565b34801561092c57600080fd5b506104f9546109429067ffffffffffffffff1681565b6040516104cb919061368c565b34801561095b57600080fd5b506104be61096a36600461341e565b611aba565b34801561097b57600080fd5b506105d2611b22565b34801561099057600080fd5b50610516600a81565b3480156109a557600080fd5b506104be62093a8081565b3480156109bc57600080fd5b50610516601e81565b3480156109d157600080fd5b506104be6104f85481565b3480156109e857600080fd5b506007546001600160a01b031661057c565b348015610a0657600080fd5b5061054f611b58565b348015610a1b57600080fd5b506104be66b1a2bc2ec5000081565b348015610a3657600080fd5b506105d2610a453660046136ad565b611b67565b348015610a5657600080fd5b5061057c610a6536600461327e565b611c19565b348015610a7657600080fd5b506104be6722b1c8c1227a000081565b348015610a9257600080fd5b506104be68015af1d78b58c4000081565b348015610aaf57600080fd5b506104f15461057c906001600160a01b031681565b348015610ad057600080fd5b506105a561251c81565b348015610ae657600080fd5b506104f4611c44565b348015610afb57600080fd5b506105d2610b0a366004613634565b611c7c565b348015610b1b57600080fd5b506104ed546105a59061ffff1681565b348015610b3757600080fd5b506105d2611e84565b348015610b4c57600080fd5b506105d2610b5b36600461341e565b611eb5565b348015610b6c57600080fd5b506105d2610b7b366004613777565b611f0f565b348015610b8c57600080fd5b506104f35461057c906001600160a01b031681565b348015610bad57600080fd5b506105d2610bbc3660046133e1565b611f49565b348015610bcd57600080fd5b5061054f610bdc36600461327e565b611fd8565b348015610bed57600080fd5b506104fd546104f49062010000900460ff1681565b348015610c0e57600080fd5b506105d2610c1d366004613815565b61211c565b348015610c2e57600080fd5b506104be6104ee5481565b348015610c4557600080fd5b506104f4610c54366004613836565b61231e565b348015610c6557600080fd5b506105d2610c7436600461341e565b612432565b348015610c8557600080fd5b506105d2610c94366004613634565b61248b565b348015610ca557600080fd5b506105d2610cb436600461341e565b6126c9565b348015610cc557600080fd5b506104f4610cd436600461327e565b61271d565b60006001600160e01b031982167f80ac58cd000000000000000000000000000000000000000000000000000000001480610d3c57506001600160e01b031982167f5b5e139f00000000000000000000000000000000000000000000000000000000145b80610d7057506001600160e01b031982167f780e9d6300000000000000000000000000000000000000000000000000000000145b80610da457507f01ffc9a7000000000000000000000000000000000000000000000000000000006001600160e01b03198316145b92915050565b606060018054610db99061387f565b80601f0160208091040260200160405190810160405280929190818152602001828054610de59061387f565b8015610e325780601f10610e0757610100808354040283529160200191610e32565b820191906000526020600020905b815481529060010190602001808311610e1557829003601f168201915b5050505050905090565b6000610e478261272f565b610e7d576040517fcf4700e400000000000000000000000000000000000000000000000000000000815260040160405180910390fd5b506000908152600560205260409020546001600160a01b031690565b6000610ea482611a96565b9050806001600160a01b0316836001600160a01b03161415610ef2576040517f943f7b8c00000000000000000000000000000000000000000000000000000000815260040160405180910390fd5b336001600160a01b03821614801590610f125750610f10813361231e565b155b15610f49576040517fcfb3b94200000000000000000000000000000000000000000000000000000000815260040160405180910390fd5b610f54838383612763565b505050565b600060026008541415610f875760405162461bcd60e51b8152600401610f7e906138e0565b60405180910390fd5b6002600855610f94611c44565b610fb05760405162461bcd60e51b8152600401610f7e90613922565b6104fd5462010000900460ff16610fc857600a610fd4565b610fd46014600a613948565b6104fd5460ff9190911661ffff909116106110015760405162461bcd60e51b8152600401610f7e906139a0565b42603c6104f85461101291906139b0565b11158061102457506104fd5461ffff16155b6110405760405162461bcd60e51b8152600401610f7e906139f3565b426104f8556104fd54600090600a61ffff90911610611067576722b1c8c1227a0000611072565b68015af1d78b58c400005b6104fd805491925061ffff90911690600061108c83613a03565b825461ffff9182166101009390930a9283029190920219909116179055506104f5546104f7546104f9546040517f5d3b1d300000000000000000000000000000000000000000000000000000000081526000936001600160a01b031692635d3b1d30926111139267ffffffffffffffff909116906005906207a12090600190600401613a5a565b6020604051808303816000875af1158015611132573d6000803e3d6000fd5b505050506040513d601f19601f820116820180604052508101906111569190613ab1565b60008181526104fc6020526040902092909255509050600160085590565b6007546001600160a01b0316331461119e5760405162461bcd60e51b8152600401610f7e90613b02565b6104f380546001600160a01b0390921673ffffffffffffffffffffffffffffffffffffffff1992831681179091556104f48054909216179055565b60006104ee546000141580156111f157506104ee5442115b801561120d575062093a806104ee5461120a91906139b0565b42105b905090565b6007546001600160a01b0316331461123c5760405162461bcd60e51b8152600401610f7e90613b02565b6104f1805473ffffffffffffffffffffffffffffffffffffffff19166001600160a01b0392909216919091179055565b600981612710811061127d57600080fd5b60209182820401919006915054906101000a900460ff1681565b336001600160a01b037f0000000000000000000000000000000000000000000000000000000000000000161461131d57337f00000000000000000000000000000000000000000000000000000000000000006040517f1cf993f4000000000000000000000000000000000000000000000000000000008152600401610f7e929190613b12565b61132782826127cc565b5050565b610f54838383612954565b6007546001600160a01b031633146113605760405162461bcd60e51b8152600401610f7e90613b02565b6104f5546104f9546040517fd7ae1d300000000000000000000000000000000000000000000000000000000081526001600160a01b039092169163d7ae1d30916113bb9167ffffffffffffffff909116903390600401613b2d565b600060405180830381600087803b1580156113d557600080fd5b505af11580156113e9573d6000803e3d6000fd5b50506104f9805467ffffffffffffffff191690555050565b600061140c83611aba565b8210611444576040517f0ddac30e00000000000000000000000000000000000000000000000000000000815260040160405180910390fd5b600080546001600160801b03169080805b8381101561151157600081815260036020908152604091829020825160608101845290546001600160a01b0381168252600160a01b810467ffffffffffffffff1692820192909252600160e01b90910460ff1615801592820192909252906114bd5750611509565b80516001600160a01b0316156114d257805192505b876001600160a01b0316836001600160a01b03161415611507578684141561150057509350610da492505050565b6001909301925b505b600101611455565b50600080fd5b6007546001600160a01b031633146115415760405162461bcd60e51b8152600401610f7e90613b02565b6104fd5462010000900460ff1661155957600a611565565b6115656014600a613948565b6104fd5461ffff1660ff91909116148061159a575062093a80806104ee5461158d91906139b0565b61159791906139b0565b42115b6115b65760405162461bcd60e51b8152600401610f7e90613b95565b604051600090339047908381818185875af1925050503d80600081146115f8576040519150601f19603f3d011682016040523d82523d6000602084013e6115fd565b606091505b505090508061161e5760405162461bcd60e51b8152600401610f7e90613bd7565b50565b610f5483838360405180602001604052806000815250611f0f565b6002600854141561165f5760405162461bcd60e51b8152600401610f7e906138e0565b600260085560005b818110156116a25761169083838381811061168457611684613be7565b9050602002013561178d565b8061169a81613bfd565b915050611667565b5050600160085550565b6000610da48261272f565b600080546001600160801b031681805b8281101561174857600081815260036020908152604091829020825160608101845290546001600160a01b0381168252600160a01b810467ffffffffffffffff1692820192909252600160e01b90910460ff1615159181018290529061173f57858314156117385750949350505050565b6001909201915b506001016116c7565b506040517fa723001c00000000000000000000000000000000000000000000000000000000815260040160405180910390fd5b61027b81612710811061127d57600080fd5b600260085414156117b05760405162461bcd60e51b8152600401610f7e906138e0565b6002600855336117bf82611a96565b6001600160a01b0316146117e55760405162461bcd60e51b8152600401610f7e90613c43565b6101428161271081106117fa576117fa613be7565b602081049091015460ff601f9092166101000a9004161561014282612710811061182657611826613be7565b602091828204019190066101000a81548160ff021916908315150217905550600160088190555050565b6118586111d9565b6118745760405162461bcd60e51b8152600401610f7e90613c85565b600260085414156118975760405162461bcd60e51b8152600401610f7e906138e0565b60026008556118ad8166b1a2bc2ec50000613c95565b34146118cb5760405162461bcd60e51b8152600401610f7e90613ce6565b6118d861271060016139b0565b6000546118ef9083906001600160801b03166139b0565b1061190c5760405162461bcd60e51b8152600401610f7e90613d4e565b60148161191833611aba565b61192291906139b0565b11156119405760405162461bcd60e51b8152600401610f7e90613db6565b61194a3382612bbc565b6119606000546001600160801b03166127101490565b1561196b57426104ef555b506001600855565b600260085414156119965760405162461bcd60e51b8152600401610f7e906138e0565b6002600855336119a582611a96565b6001600160a01b0316146119cb5760405162461bcd60e51b8152600401610f7e90613df8565b61027b8161271081106119e0576119e0613be7565b602081049091015460ff601f9092166101000a9004161561027b826127108110611a0c57611a0c613be7565b602091828204019190066101000a81548160ff02191690831515021790555061027b816127108110611a4057611a40613be7565b602081049091015460ff601f9092166101000a900416611a6b576104ed5461ffff1660001901611a77565b6104ed5461ffff166001015b6104ed805461ffff191661ffff9290921691909117905561196b612cdc565b6000611aa182612d8f565b5192915050565b6103b481612710811061127d57600080fd5b60006001600160a01b038216611afc576040517f8f4eb60400000000000000000000000000000000000000000000000000000000815260040160405180910390fd5b506001600160a01b031660009081526004602052604090205467ffffffffffffffff1690565b6007546001600160a01b03163314611b4c5760405162461bcd60e51b8152600401610f7e90613b02565b611b566000612ecc565b565b606060028054610db99061387f565b6001600160a01b038216331415611baa576040517fb06307db00000000000000000000000000000000000000000000000000000000815260040160405180910390fd5b3360008181526006602090815260408083206001600160a01b038716808552925291829020805460ff191685151517905590519091907f17307eab39ab6107e8899845ad3d59bd9653f200f220920489ca2b5937696c3190611c0d9085906132f9565b60405180910390a35050565b6104fb8181548110611c2a57600080fd5b6000918252602090912001546001600160a01b0316905081565b6000611c5c6000546001600160801b03166127101490565b801561120d5750620151806104ef54611c7591906139b0565b4211905090565b60026008541415611c9f5760405162461bcd60e51b8152600401610f7e906138e0565b6002600855600061027b83838381611cb957611cb9613be7565b905060200201356127108110611cd157611cd1613be7565b602081049091015460ff601f9092166101000a900416905060005b82811015611e445733611d16858584818110611d0a57611d0a613be7565b90506020020135611a96565b6001600160a01b031614611d3c5760405162461bcd60e51b8152600401610f7e90613df8565b61027b848483818110611d5157611d51613be7565b905060200201356127108110611d6957611d69613be7565b602091828204019190069054906101000a900460ff16151582151514611da15760405162461bcd60e51b8152600401610f7e90613e60565b61027b848483818110611db657611db6613be7565b905060200201356127108110611dce57611dce613be7565b602081049091015460ff601f9092166101000a9004161561027b858584818110611dfa57611dfa613be7565b905060200201356127108110611e1257611e12613be7565b602091828204019190066101000a81548160ff0219169083151502179055508080611e3c90613bfd565b915050611cec565b5080611e5a576104ed5461ffff16829003611e65565b6104ed5461ffff1682015b6104ed805461ffff191661ffff929092169190911790556116a2612cdc565b6007546001600160a01b03163314611eae5760405162461bcd60e51b8152600401610f7e90613b02565b426104ee55565b6007546001600160a01b03163314611edf5760405162461bcd60e51b8152600401610f7e90613b02565b6104f0805473ffffffffffffffffffffffffffffffffffffffff19166001600160a01b0392909216919091179055565b611f1a848484612954565b611f2684848484612f2b565b611f43576040516368d2bf6b60e11b815260040160405180910390fd5b50505050565b6007546001600160a01b03163314611f735760405162461bcd60e51b8152600401610f7e90613b02565b600054603290611f8c906001600160801b0316836139b0565b1115611faa5760405162461bcd60e51b8152600401610f7e90613ec8565b611fb48282612bbc565b611fca6000546001600160801b03166127101490565b1561132757426104ef555050565b6060611fe38261272f565b611fff5760405162461bcd60e51b8152600401610f7e90613f30565b6104f3546001600160a01b031661202457505060408051602081019091526000815290565b6104f4546001600160a01b0316632da7b4e983600981612710811061204b5761204b613be7565b602081049091015460ff601f9092166101000a90041661014286612710811061207657612076613be7565b602081049091015460ff601f9092166101000a9004161561027b8761271081106120a2576120a2613be7565b602091828204019190069054906101000a900460ff166040518563ffffffff1660e01b81526004016120d79493929190613f40565b600060405180830381865afa1580156120f4573d6000803e3d6000fd5b505050506040513d6000823e601f3d908101601f19168201604052610da49190810190613fd6565b6007546001600160a01b031633146121465760405162461bcd60e51b8152600401610f7e90613b02565b6104f95467ffffffffffffffff16612272576104f560009054906101000a90046001600160a01b03166001600160a01b031663a21a23e46040518163ffffffff1660e01b81526004016020604051808303816000875af11580156121ae573d6000803e3d6000fd5b505050506040513d601f19601f820116820180604052508101906121d2919061402c565b6104f9805467ffffffffffffffff191667ffffffffffffffff9290921691821790556104f5546040517f7341c10c0000000000000000000000000000000000000000000000000000000081526001600160a01b0390911691637341c10c9161223f91903090600401613b2d565b600060405180830381600087803b15801561225957600080fd5b505af115801561226d573d6000803e3d6000fd5b505050505b6104f6546104f5546104f9546040516001600160a01b0393841693634000aea093169185916122ae9167ffffffffffffffff169060200161368c565b6040516020818303038152906040526040518463ffffffff1660e01b81526004016122db93929190614070565b6020604051808303816000875af11580156122fa573d6000803e3d6000fd5b505050506040513d601f19601f8201168201806040525081019061132791906140a8565b6104f0546040517fc45527910000000000000000000000000000000000000000000000000000000081526000916001600160a01b03169063c4552791906123699086906004016133a7565b602060405180830381865afa158015612386573d6000803e3d6000fd5b505050506040513d601f19601f820116820180604052508101906123aa91906140e8565b6001600160a01b0316826001600160a01b031614806123d757506104f1546001600160a01b038381169116145b806123fb57506001600160a01b03821660009081526104f2602052604090205460ff165b8061242b57506001600160a01b0380841660009081526006602090815260408083209386168352929052205460ff165b9392505050565b6007546001600160a01b0316331461245c5760405162461bcd60e51b8152600401610f7e90613b02565b6001600160a01b0381166124825760405162461bcd60e51b8152600401610f7e90614161565b61161e81612ecc565b600260085414156124ae5760405162461bcd60e51b8152600401610f7e906138e0565b60026008556104ee546124c59062093a80906139b0565b421180156124ee575062093a80806104ee546124e191906139b0565b6124eb91906139b0565b42105b61250a5760405162461bcd60e51b8152600401610f7e906141a3565b6125206000546001600160801b03166127101490565b1561253d5760405162461bcd60e51b8152600401610f7e906141e5565b6000805b8281101561263557600084848381811061255d5761255d613be7565b905060200201359050603260ff168110156125785750612623565b3361258282611a96565b6001600160a01b0316146125a85760405162461bcd60e51b8152600401610f7e9061424d565b6103b48161271081106125bd576125bd613be7565b602081049091015460ff601f9092166101000a900416612621576125e866b1a2bc2ec50000846139b0565b925060016103b482612710811061260157612601613be7565b602091828204019190066101000a81548160ff0219169083151502179055505b505b8061262d81613bfd565b915050612541565b50600081116126565760405162461bcd60e51b8152600401610f7e9061428f565b604051600090339083908381818185875af1925050503d8060008114612698576040519150601f19603f3d011682016040523d82523d6000602084013e61269d565b606091505b50509050806126be5760405162461bcd60e51b8152600401610f7e90613bd7565b505060016008555050565b6007546001600160a01b031633146126f35760405162461bcd60e51b8152600401610f7e90613b02565b6001600160a01b031660009081526104f260205260409020805460ff19811660ff90911615179055565b61014281612710811061127d57600080fd5b600080546001600160801b031682108015610da4575050600090815260036020526040902054600160e01b900460ff161590565b600082815260056020526040808220805473ffffffffffffffffffffffffffffffffffffffff19166001600160a01b0387811691821790925591518593918516917f8c5be1e5ebec7d5bd14f71427d1e84f3dd0314c0f7b2291e5b200ac8c7c3b92591a4505050565b6000816000815181106127e1576127e1613be7565b6020026020010151905060006127fe612710836108d891906142b5565b90505b6001600160a01b03811660009081526104fa602052604090205415158061284a5750601e612831612710846142b5565b1015801561284a57506032612848612710846142b5565b105b1561286c5760019190911c906128656108d8612710846142b5565b9050612801565b6104fb8054600181019091557f200df897059037f9a7cc5cc28e6528fd97d128146c0f27be9a2e550363fd553701805473ffffffffffffffffffffffffffffffffffffffff19166001600160a01b03831690811790915560008581526104fc60208181526040808420548585526104fa835281852081905589855292909152519192918381818185875af1925050503d8060008114612927576040519150601f19603f3d011682016040523d82523d6000602084013e61292c565b606091505b505090508061294d5760405162461bcd60e51b8152600401610f7e906142fb565b5050505050565b600061295f82612d8f565b80519091506000906001600160a01b0316336001600160a01b0316148061298d5750815161298d903361231e565b806129a857503361299d84610e3c565b6001600160a01b0316145b9050806129e1576040517f59c896be00000000000000000000000000000000000000000000000000000000815260040160405180910390fd5b846001600160a01b031682600001516001600160a01b031614612a30576040517fa114810000000000000000000000000000000000000000000000000000000000815260040160405180910390fd5b6001600160a01b038416612a70576040517fea553b3400000000000000000000000000000000000000000000000000000000815260040160405180910390fd5b612a806000848460000151612763565b6001600160a01b038581166000908152600460209081526040808320805467ffffffffffffffff1980821667ffffffffffffffff92831660001901831617909255898616808652838620805493841693831660019081018416949094179055898652600390945282852080546001600160e01b031916909417600160a01b429092169190910217909255908601808352912054909116612b75576000546001600160801b0316811015612b75578251600082815260036020908152604090912080549186015167ffffffffffffffff16600160a01b026001600160e01b03199092166001600160a01b03909316929092171790555b5082846001600160a01b0316866001600160a01b03167fddf252ad1be2c89b69c2b068fc378daa952ba7f163c4a11628f55a4df523b3ef60405160405180910390a461294d565b60208110612bdc5760405162461bcd60e51b8152600401610f7e90614363565b60008133344244604051602001612bf79594939291906143a1565b60405160208183030381529060405280519060200120905060005b82811015612cd15760008054612c329083906001600160801b03166139b0565b9050828260208110612c4657612c46613be7565b1a6009826127108110612c5b57612c5b613be7565b602091828204019190066101000a81548160ff021916908360ff160217905550600281612c8891906142b5565b1561027b826127108110612c9e57612c9e613be7565b602091828204019190066101000a81548160ff021916908315150217905550508080612cc990613bfd565b915050612c12565b50610f54838361305d565b620151806104ef54612cee91906139b0565b421080612d2557506104ef54158015612d2557506201518062093a806104ee54612d1891906139b0565b612d2291906139b0565b42105b8015612d5a57506104ed5461251c61ffff909116101580612d5a5750612d4f61251c6127106143eb565b6104ed5461ffff1611155b15611b56576104fd80547fffffffffffffffffffffffffffffffffffffffffffffffffffffffffff00ffff1662010000179055565b60408051606081018252600080825260208201819052918101829052905482906001600160801b0316811015612e9a57600081815260036020908152604091829020825160608101845290546001600160a01b0381168252600160a01b810467ffffffffffffffff1692820192909252600160e01b90910460ff16151591810182905290612e985780516001600160a01b031615612e2e579392505050565b5060001901600081815260036020908152604091829020825160608101845290546001600160a01b038116808352600160a01b820467ffffffffffffffff1693830193909352600160e01b900460ff1615159281019290925215612e93579392505050565b612e2e565b505b6040517fdf2d9b4200000000000000000000000000000000000000000000000000000000815260040160405180910390fd5b600780546001600160a01b0383811673ffffffffffffffffffffffffffffffffffffffff19831681179093556040519116919082907f8be0079c531659141344cd1fd0a4f28419497f9722a3daafe3b4186f6b6457e090600090a35050565b60006001600160a01b0384163b15613051576040517f150b7a020000000000000000000000000000000000000000000000000000000081526001600160a01b0385169063150b7a0290612f88903390899088908890600401614402565b6020604051808303816000875af1925050508015612fc3575060408051601f3d908101601f19168201909252612fc091810190614447565b60015b61301e573d808015612ff1576040519150601f19603f3d011682016040523d82523d6000602084013e612ff6565b606091505b508051613016576040516368d2bf6b60e11b815260040160405180910390fd5b805181602001fd5b6001600160e01b0319167f150b7a0200000000000000000000000000000000000000000000000000000000149050613055565b5060015b949350505050565b611327828260405180602001604052806000815250610f5483838360016000546001600160801b03166001600160a01b0385166130c6576040517f2e07630000000000000000000000000000000000000000000000000000000000815260040160405180910390fd5b836130fd576040517fb562e8dd00000000000000000000000000000000000000000000000000000000815260040160405180910390fd5b6001600160a01b038516600081815260046020908152604080832080547fffffffffffffffffffffffffffffffff00000000000000000000000000000000811667ffffffffffffffff8083168c0181169182176801000000000000000067ffffffffffffffff1990941690921783900481168c018116909202179091558584526003909252822080546001600160e01b031916909317600160a01b42909216919091021790915581905b858110156132285760405182906001600160a01b038916906000907fddf252ad1be2c89b69c2b068fc378daa952ba7f163c4a11628f55a4df523b3ef908290a48380156131fe57506131fc6000888488612f2b565b155b1561321c576040516368d2bf6b60e11b815260040160405180910390fd5b600191820191016131a7565b50600080547fffffffffffffffffffffffffffffffff00000000000000000000000000000000166001600160801b039290921691909117905561294d565b805b811461161e57600080fd5b8035610da481613266565b60006020828403121561329357613293600080fd5b60006130558484613273565b805b82525050565b60208101610da4828461329f565b6001600160e01b03198116613268565b8035610da4816132b5565b6000602082840312156132e5576132e5600080fd5b600061305584846132c5565b8015156132a1565b60208101610da482846132f1565b60ff81166132a1565b60208101610da48284613307565b60005b83811015613339578181015183820152602001613321565b83811115611f435750506000910152565b6000613354825190565b80845260208401935061336b81856020860161331e565b601f01601f19169290920192915050565b6020808252810161242b818461334a565b60006001600160a01b038216610da4565b6132a18161338d565b60208101610da4828461339e565b61ffff81166132a1565b60208101610da482846133b5565b6132688161338d565b8035610da4816133cd565b600080604083850312156133f7576133f7600080fd5b600061340385856133d6565b925050602061341485828601613273565b9150509250929050565b60006020828403121561343357613433600080fd5b600061305584846133d6565b634e487b7160e01b600052604160045260246000fd5b601f19601f830116810181811067ffffffffffffffff8211171561347b5761347b61343f565b6040525050565b600061348d60405190565b90506134998282613455565b919050565b600067ffffffffffffffff8211156134b8576134b861343f565b5060209081020190565b60006134d56134d08461349e565b613482565b838152905060208082019084028301858111156134f4576134f4600080fd5b835b81811015613516576135088782613273565b8352602092830192016134f6565b5050509392505050565b600082601f83011261353457613534600080fd5b81356130558482602086016134c2565b6000806040838503121561355a5761355a600080fd5b60006135668585613273565b925050602083013567ffffffffffffffff81111561358657613586600080fd5b61341485828601613520565b6000806000606084860312156135aa576135aa600080fd5b60006135b686866133d6565b93505060206135c7868287016133d6565b92505060406135d886828701613273565b9150509250925092565b60008083601f8401126135f7576135f7600080fd5b50813567ffffffffffffffff81111561361257613612600080fd5b60208301915083602082028301111561362d5761362d600080fd5b9250929050565b6000806020838503121561364a5761364a600080fd5b823567ffffffffffffffff81111561366457613664600080fd5b613670858286016135e2565b92509250509250929050565b67ffffffffffffffff81166132a1565b60208101610da4828461367c565b801515613268565b8035610da48161369a565b600080604083850312156136c3576136c3600080fd5b60006136cf85856133d6565b9250506020613414858286016136a2565b600067ffffffffffffffff8211156136fa576136fa61343f565b601f19601f83011660200192915050565b82818337506000910152565b60006137256134d0846136e0565b90508281526020810184848401111561374057613740600080fd5b61374b84828561370b565b509392505050565b600082601f83011261376757613767600080fd5b8135613055848260208601613717565b6000806000806080858703121561379057613790600080fd5b600061379c87876133d6565b94505060206137ad878288016133d6565b93505060406137be87828801613273565b925050606085013567ffffffffffffffff8111156137de576137de600080fd5b6137ea87828801613753565b91505092959194509250565b6bffffffffffffffffffffffff8116613268565b8035610da4816137f6565b60006020828403121561382a5761382a600080fd5b6000613055848461380a565b6000806040838503121561384c5761384c600080fd5b600061385885856133d6565b9250506020613414858286016133d6565b634e487b7160e01b600052602260045260246000fd5b60028104600182168061389357607f821691505b602082108114156138a6576138a6613869565b50919050565b601f8152602081017f5265656e7472616e637947756172643a207265656e7472616e742063616c6c00815290505b60200190565b60208082528101610da4816138ac565b600f8152602081017f44726177206e6f74206163746976650000000000000000000000000000000000815290506138da565b60208082528101610da4816138f0565b634e487b7160e01b600052601160045260246000fd5b60ff8116905060ff8216915060008260ff0382111561396957613969613932565b500190565b60128152602081017f44726177206c696d697420726561636865640000000000000000000000000000815290506138da565b60208082528101610da48161396e565b6000821982111561396957613969613932565b60208082527f44726177732074616b6520706c616365206f6e636520706572206d696e75746591019081526138da565b60208082528101610da4816139c3565b61ffff81169050600061ffff821415613a1e57613a1e613932565b5060010190565b6000610da482613a33565b90565b61ffff1690565b6132a181613a25565b600063ffffffff8216610da4565b6132a181613a43565b60a08101613a68828861329f565b613a75602083018761367c565b613a826040830186613a3a565b613a8f6060830185613a51565b613a9c6080830184613a51565b9695505050505050565b8051610da481613266565b600060208284031215613ac657613ac6600080fd5b60006130558484613aa6565b60208082527f4f776e61626c653a2063616c6c6572206973206e6f7420746865206f776e657291019081526138da565b60208082528101610da481613ad2565b60408101613b20828561339e565b61242b602083018461339e565b60408101613b20828561367c565b602e8152602081017f4465762063616e6e6f74207769746864726177206265666f726520746865206581527f6e64206f66207468652067616d65000000000000000000000000000000000000602082015290505b60400190565b60208082528101610da481613b3b565b60118152602081017f5769746864726177616c206661696c6564000000000000000000000000000000815290506138da565b60208082528101610da481613ba5565b634e487b7160e01b600052603260045260246000fd5b6000600019821415613a1e57613a1e613932565b601c8152602081017f4f6e6c79206f776e65722063616e20746f67676c652073746174757300000000815290506138da565b60208082528101610da481613c11565b60148152602081017f5075626c69632073616c65206e6f74206f70656e000000000000000000000000815290506138da565b60208082528101610da481613c53565b6000816000190483118215151615613caf57613caf613932565b500290565b60148152602081017f507269636520646f6573206e6f74206d61746368000000000000000000000000815290506138da565b60208082528101610da481613cb4565b60358152602081017f546865726520617265206e6f7420656e6f75676820436f2d426f7473206c656681527f7420746f206d696e74207468617420616d6f756e74000000000000000000000060208201529050613b8f565b60208082528101610da481613cf6565b603b8152602081017f436f2d426f74733a2074686520726571756573746564207175616e746974792081527f6578636565647320746865206d6178696d756d20616c6c6f776564000000000060208201529050613b8f565b60208082528101610da481613d5e565b601b8152602081017f4f6e6c79206f776e65722063616e20746f67676c6520636f6c6f720000000000815290506138da565b60208082528101610da481613dc6565b60288152602081017f546f67676c696e6720636f6c6f727320696e2074776f20646966666572656e7481527f20636f6c6f72732100000000000000000000000000000000000000000000000060208201529050613b8f565b60208082528101610da481613e08565b60318152602081017f5175616e74697479206578636565647320666f756e6465727320616e6420676981527f7665617761797320616c6c6f77616e636500000000000000000000000000000060208201529050613b8f565b60208082528101610da481613e70565b60278152602081017f4552433732313a2055524920717565727920666f72206e6f6e6578697374656e81527f7420746f6b656e0000000000000000000000000000000000000000000000000060208201529050613b8f565b60208082528101610da481613ed8565b60808101613f4e828761329f565b613f5b6020830186613307565b613f6860408301856132f1565b613f7560608301846132f1565b95945050505050565b6000613f8c6134d0846136e0565b905082815260208101848484011115613fa757613fa7600080fd5b61374b84828561331e565b600082601f830112613fc657613fc6600080fd5b8151613055848260208601613f7e565b600060208284031215613feb57613feb600080fd5b815167ffffffffffffffff81111561400557614005600080fd5b61305584828501613fb2565b67ffffffffffffffff8116613268565b8051610da481614011565b60006020828403121561404157614041600080fd5b60006130558484614021565b6000610da4613a306bffffffffffffffffffffffff841681565b6132a18161404d565b6060810161407e828661339e565b61408b6020830185614067565b8181036040830152613f75818461334a565b8051610da48161369a565b6000602082840312156140bd576140bd600080fd5b6000613055848461409d565b6000610da48261338d565b613268816140c9565b8051610da4816140d4565b6000602082840312156140fd576140fd600080fd5b600061305584846140dd565b60268152602081017f4f776e61626c653a206e6577206f776e657220697320746865207a65726f206181527f646472657373000000000000000000000000000000000000000000000000000060208201529050613b8f565b60208082528101610da481614109565b60168152602081017f526566756e6420706572696f64206e6f74206f70656e00000000000000000000815290506138da565b60208082528101610da481614171565b60168152602081017f436f2d426f747320617265206d696e746564206f757400000000000000000000815290506138da565b60208082528101610da4816141b3565b60348152602081017f596f752063616e6e6f7420636c61696d206120726566756e6420666f7220612081527f746f6b656e20796f7520646f206e6f74206f776e00000000000000000000000060208201529050613b8f565b60208082528101610da4816141f5565b60148152602081017f4e6f20436f2d426f747320746f20726566756e64000000000000000000000000815290506138da565b60208082528101610da48161425d565b634e487b7160e01b600052601260045260246000fd5b6000826142c4576142c461429f565b500690565b60108152602081017f5472616e73666572206661696c65642e00000000000000000000000000000000815290506138da565b60208082528101610da4816142c9565b60258152602081017f546f6f206d616e7920436f2d426f747320746f206d696e7420696e206f6e652081527f626174636800000000000000000000000000000000000000000000000000000060208201529050613b8f565b60208082528101610da48161430b565b806132a1565b6000610da48260601b90565b6000610da482614379565b6132a161439c8261338d565b614385565b6143ab8187614373565b6020016143b88186614390565b6014016143c58185614373565b6020016143d28184614373565b6020016143df8183614373565b60200195945050505050565b6000828210156143fd576143fd613932565b500390565b60808101614410828761339e565b61441d602083018661339e565b61442a604083018561329f565b8181036060830152613a9c818461334a565b8051610da4816132b5565b60006020828403121561445c5761445c600080fd5b6000613055848461443c56fea2646970667358221220a220a510dbf967fa78486af825c0e3b0a1cf337bcfb10a71a2acb211997fd3cb64736f6c634300080c0033",
  "devdoc": {
    "kind": "dev",
    "methods": {
      "approve(address,uint256)": {
        "details": "See {IERC721-approve}."
      },
      "balanceOf(address)": {
        "details": "See {IERC721-balanceOf}."
      },
      "getApproved(uint256)": {
        "details": "See {IERC721-getApproved}."
      },
      "isApprovedForAll(address,address)": {
        "details": "Modified for opensea and looksrare pre-approve."
      },
      "name()": {
        "details": "See {IERC721Metadata-name}."
      },
      "owner()": {
        "details": "Returns the address of the current owner."
      },
      "ownerOf(uint256)": {
        "details": "See {IERC721-ownerOf}."
      },
      "renounceOwnership()": {
        "details": "Leaves the contract without owner. It will not be possible to call `onlyOwner` functions anymore. Can only be called by the current owner. NOTE: Renouncing ownership will leave the contract without an owner, thereby removing any functionality that is only available to the owner."
      },
      "safeTransferFrom(address,address,uint256)": {
        "details": "See {IERC721-safeTransferFrom}."
      },
      "safeTransferFrom(address,address,uint256,bytes)": {
        "details": "See {IERC721-safeTransferFrom}."
      },
      "setApprovalForAll(address,bool)": {
        "details": "See {IERC721-setApprovalForAll}."
      },
      "supportsInterface(bytes4)": {
        "details": "See {IERC165-supportsInterface}."
      },
      "symbol()": {
        "details": "See {IERC721Metadata-symbol}."
      },
      "tokenByIndex(uint256)": {
        "details": "See {IERC721Enumerable-tokenByIndex}. This read function is O(totalSupply). If calling from a separate contract, be sure to test gas first. It may also degrade with extremely large collection sizes (e.g >> 10000), test for your use case."
      },
      "tokenOfOwnerByIndex(address,uint256)": {
        "details": "See {IERC721Enumerable-tokenOfOwnerByIndex}. This read function is O(totalSupply). If calling from a separate contract, be sure to test gas first. It may also degrade with extremely large collection sizes (e.g >> 10000), test for your use case."
      },
      "totalSupply()": {
        "details": "See {IERC721Enumerable-totalSupply}."
      },
      "transferFrom(address,address,uint256)": {
        "details": "See {IERC721-transferFrom}."
      },
      "transferOwnership(address)": {
        "details": "Transfers ownership of the contract to a new account (`newOwner`). Can only be called by the current owner."
      }
    },
    "version": 1
  },
  "userdoc": {
    "kind": "user",
    "methods": {
      "flipProxyState(address)": {
        "notice": "Approve the communication and interaction with cross-collection interactions."
      },
      "setLooksrare(address)": {
        "notice": "Set looksrare to `looksrare_`."
      },
      "setOpensea(address)": {
        "notice": "Set opensea to `opensea_`."
      }
    },
    "version": 1
  },
  "storageLayout": {
    "storage": [
      {
        "astId": 8128,
        "contract": "contracts/co-bots/CoBots.sol:CoBots",
        "label": "_currentIndex",
        "offset": 0,
        "slot": "0",
        "type": "t_uint128"
      },
      {
        "astId": 8130,
        "contract": "contracts/co-bots/CoBots.sol:CoBots",
        "label": "_burnCounter",
        "offset": 16,
        "slot": "0",
        "type": "t_uint128"
      },
      {
        "astId": 8132,
        "contract": "contracts/co-bots/CoBots.sol:CoBots",
        "label": "_name",
        "offset": 0,
        "slot": "1",
        "type": "t_string_storage"
      },
      {
        "astId": 8134,
        "contract": "contracts/co-bots/CoBots.sol:CoBots",
        "label": "_symbol",
        "offset": 0,
        "slot": "2",
        "type": "t_string_storage"
      },
      {
        "astId": 8139,
        "contract": "contracts/co-bots/CoBots.sol:CoBots",
        "label": "_ownerships",
        "offset": 0,
        "slot": "3",
        "type": "t_mapping(t_uint256,t_struct(TokenOwnership)8119_storage)"
      },
      {
        "astId": 8144,
        "contract": "contracts/co-bots/CoBots.sol:CoBots",
        "label": "_addressData",
        "offset": 0,
        "slot": "4",
        "type": "t_mapping(t_address,t_struct(AddressData)8126_storage)"
      },
      {
        "astId": 8148,
        "contract": "contracts/co-bots/CoBots.sol:CoBots",
        "label": "_tokenApprovals",
        "offset": 0,
        "slot": "5",
        "type": "t_mapping(t_uint256,t_address)"
      },
      {
        "astId": 8154,
        "contract": "contracts/co-bots/CoBots.sol:CoBots",
        "label": "_operatorApprovals",
        "offset": 0,
        "slot": "6",
        "type": "t_mapping(t_address,t_mapping(t_address,t_bool))"
      },
      {
        "astId": 4185,
        "contract": "contracts/co-bots/CoBots.sol:CoBots",
        "label": "_owner",
        "offset": 0,
        "slot": "7",
        "type": "t_address"
      },
      {
        "astId": 4293,
        "contract": "contracts/co-bots/CoBots.sol:CoBots",
        "label": "_status",
        "offset": 0,
        "slot": "8",
        "type": "t_uint256"
      },
      {
        "astId": 5140,
        "contract": "contracts/co-bots/CoBots.sol:CoBots",
        "label": "coBotsSeeds",
        "offset": 0,
        "slot": "9",
        "type": "t_array(t_uint8)10000_storage"
      },
      {
        "astId": 5144,
        "contract": "contracts/co-bots/CoBots.sol:CoBots",
        "label": "coBotsStatusDisabled",
        "offset": 0,
        "slot": "322",
        "type": "t_array(t_bool)10000_storage"
      },
      {
        "astId": 5148,
        "contract": "contracts/co-bots/CoBots.sol:CoBots",
        "label": "coBotsColors",
        "offset": 0,
        "slot": "635",
        "type": "t_array(t_bool)10000_storage"
      },
      {
        "astId": 5152,
        "contract": "contracts/co-bots/CoBots.sol:CoBots",
        "label": "coBotsRefunded",
        "offset": 0,
        "slot": "948",
        "type": "t_array(t_bool)10000_storage"
      },
      {
        "astId": 5155,
        "contract": "contracts/co-bots/CoBots.sol:CoBots",
        "label": "coBotsColorAgreement",
        "offset": 0,
        "slot": "1261",
        "type": "t_uint16"
      },
      {
        "astId": 5157,
        "contract": "contracts/co-bots/CoBots.sol:CoBots",
        "label": "publicSaleStartTimestamp",
        "offset": 0,
        "slot": "1262",
        "type": "t_uint256"
      },
      {
        "astId": 5159,
        "contract": "contracts/co-bots/CoBots.sol:CoBots",
        "label": "mintedOutTimestamp",
        "offset": 0,
        "slot": "1263",
        "type": "t_uint256"
      },
      {
        "astId": 5246,
        "contract": "contracts/co-bots/CoBots.sol:CoBots",
        "label": "opensea",
        "offset": 0,
        "slot": "1264",
        "type": "t_address"
      },
      {
        "astId": 5248,
        "contract": "contracts/co-bots/CoBots.sol:CoBots",
        "label": "looksrare",
        "offset": 0,
        "slot": "1265",
        "type": "t_address"
      },
      {
        "astId": 5252,
        "contract": "contracts/co-bots/CoBots.sol:CoBots",
        "label": "proxyToApproved",
        "offset": 0,
        "slot": "1266",
        "type": "t_mapping(t_address,t_bool)"
      },
      {
        "astId": 5337,
        "contract": "contracts/co-bots/CoBots.sol:CoBots",
        "label": "renderingContractAddress",
        "offset": 0,
        "slot": "1267",
        "type": "t_address"
      },
      {
        "astId": 5340,
        "contract": "contracts/co-bots/CoBots.sol:CoBots",
        "label": "renderer",
        "offset": 0,
        "slot": "1268",
        "type": "t_contract(ICoBotsRenderer)7742"
      },
      {
        "astId": 5925,
        "contract": "contracts/co-bots/CoBots.sol:CoBots",
        "label": "COORDINATOR",
        "offset": 0,
        "slot": "1269",
        "type": "t_contract(VRFCoordinatorV2Interface)4116"
      },
      {
        "astId": 5928,
        "contract": "contracts/co-bots/CoBots.sol:CoBots",
        "label": "LINKTOKEN",
        "offset": 0,
        "slot": "1270",
        "type": "t_contract(LinkTokenInterface)4003"
      },
      {
        "astId": 5930,
        "contract": "contracts/co-bots/CoBots.sol:CoBots",
        "label": "gasKeyHash",
        "offset": 0,
        "slot": "1271",
        "type": "t_bytes32"
      },
      {
        "astId": 5932,
        "contract": "contracts/co-bots/CoBots.sol:CoBots",
        "label": "lastDrawTimestamp",
        "offset": 0,
        "slot": "1272",
        "type": "t_uint256"
      },
      {
        "astId": 5934,
        "contract": "contracts/co-bots/CoBots.sol:CoBots",
        "label": "s_subId",
        "offset": 0,
        "slot": "1273",
        "type": "t_uint64"
      },
      {
        "astId": 5938,
        "contract": "contracts/co-bots/CoBots.sol:CoBots",
        "label": "prizePerAddress",
        "offset": 0,
        "slot": "1274",
        "type": "t_mapping(t_address,t_uint256)"
      },
      {
        "astId": 5941,
        "contract": "contracts/co-bots/CoBots.sol:CoBots",
        "label": "winners",
        "offset": 0,
        "slot": "1275",
        "type": "t_array(t_address)dyn_storage"
      },
      {
        "astId": 5945,
        "contract": "contracts/co-bots/CoBots.sol:CoBots",
        "label": "prizePerDraw",
        "offset": 0,
        "slot": "1276",
        "type": "t_mapping(t_uint256,t_uint256)"
      },
      {
        "astId": 5947,
        "contract": "contracts/co-bots/CoBots.sol:CoBots",
        "label": "drawCount",
        "offset": 0,
        "slot": "1277",
        "type": "t_uint16"
      },
      {
        "astId": 5949,
        "contract": "contracts/co-bots/CoBots.sol:CoBots",
        "label": "cooperativeRaffleEnabled",
        "offset": 2,
        "slot": "1277",
        "type": "t_bool"
      }
    ],
    "types": {
      "t_address": {
        "encoding": "inplace",
        "label": "address",
        "numberOfBytes": "20"
      },
      "t_array(t_address)dyn_storage": {
        "base": "t_address",
        "encoding": "dynamic_array",
        "label": "address[]",
        "numberOfBytes": "32"
      },
      "t_array(t_bool)10000_storage": {
        "base": "t_bool",
        "encoding": "inplace",
        "label": "bool[10000]",
        "numberOfBytes": "10016"
      },
      "t_array(t_uint8)10000_storage": {
        "base": "t_uint8",
        "encoding": "inplace",
        "label": "uint8[10000]",
        "numberOfBytes": "10016"
      },
      "t_bool": {
        "encoding": "inplace",
        "label": "bool",
        "numberOfBytes": "1"
      },
      "t_bytes32": {
        "encoding": "inplace",
        "label": "bytes32",
        "numberOfBytes": "32"
      },
      "t_contract(ICoBotsRenderer)7742": {
        "encoding": "inplace",
        "label": "contract ICoBotsRenderer",
        "numberOfBytes": "20"
      },
      "t_contract(LinkTokenInterface)4003": {
        "encoding": "inplace",
        "label": "contract LinkTokenInterface",
        "numberOfBytes": "20"
      },
      "t_contract(VRFCoordinatorV2Interface)4116": {
        "encoding": "inplace",
        "label": "contract VRFCoordinatorV2Interface",
        "numberOfBytes": "20"
      },
      "t_mapping(t_address,t_bool)": {
        "encoding": "mapping",
        "key": "t_address",
        "label": "mapping(address => bool)",
        "numberOfBytes": "32",
        "value": "t_bool"
      },
      "t_mapping(t_address,t_mapping(t_address,t_bool))": {
        "encoding": "mapping",
        "key": "t_address",
        "label": "mapping(address => mapping(address => bool))",
        "numberOfBytes": "32",
        "value": "t_mapping(t_address,t_bool)"
      },
      "t_mapping(t_address,t_struct(AddressData)8126_storage)": {
        "encoding": "mapping",
        "key": "t_address",
        "label": "mapping(address => struct ERC721A.AddressData)",
        "numberOfBytes": "32",
        "value": "t_struct(AddressData)8126_storage"
      },
      "t_mapping(t_address,t_uint256)": {
        "encoding": "mapping",
        "key": "t_address",
        "label": "mapping(address => uint256)",
        "numberOfBytes": "32",
        "value": "t_uint256"
      },
      "t_mapping(t_uint256,t_address)": {
        "encoding": "mapping",
        "key": "t_uint256",
        "label": "mapping(uint256 => address)",
        "numberOfBytes": "32",
        "value": "t_address"
      },
      "t_mapping(t_uint256,t_struct(TokenOwnership)8119_storage)": {
        "encoding": "mapping",
        "key": "t_uint256",
        "label": "mapping(uint256 => struct ERC721A.TokenOwnership)",
        "numberOfBytes": "32",
        "value": "t_struct(TokenOwnership)8119_storage"
      },
      "t_mapping(t_uint256,t_uint256)": {
        "encoding": "mapping",
        "key": "t_uint256",
        "label": "mapping(uint256 => uint256)",
        "numberOfBytes": "32",
        "value": "t_uint256"
      },
      "t_string_storage": {
        "encoding": "bytes",
        "label": "string",
        "numberOfBytes": "32"
      },
      "t_struct(AddressData)8126_storage": {
        "encoding": "inplace",
        "label": "struct ERC721A.AddressData",
        "members": [
          {
            "astId": 8121,
            "contract": "contracts/co-bots/CoBots.sol:CoBots",
            "label": "balance",
            "offset": 0,
            "slot": "0",
            "type": "t_uint64"
          },
          {
            "astId": 8123,
            "contract": "contracts/co-bots/CoBots.sol:CoBots",
            "label": "numberMinted",
            "offset": 8,
            "slot": "0",
            "type": "t_uint64"
          },
          {
            "astId": 8125,
            "contract": "contracts/co-bots/CoBots.sol:CoBots",
            "label": "numberBurned",
            "offset": 16,
            "slot": "0",
            "type": "t_uint64"
          }
        ],
        "numberOfBytes": "32"
      },
      "t_struct(TokenOwnership)8119_storage": {
        "encoding": "inplace",
        "label": "struct ERC721A.TokenOwnership",
        "members": [
          {
            "astId": 8114,
            "contract": "contracts/co-bots/CoBots.sol:CoBots",
            "label": "addr",
            "offset": 0,
            "slot": "0",
            "type": "t_address"
          },
          {
            "astId": 8116,
            "contract": "contracts/co-bots/CoBots.sol:CoBots",
            "label": "startTimestamp",
            "offset": 20,
            "slot": "0",
            "type": "t_uint64"
          },
          {
            "astId": 8118,
            "contract": "contracts/co-bots/CoBots.sol:CoBots",
            "label": "burned",
            "offset": 28,
            "slot": "0",
            "type": "t_bool"
          }
        ],
        "numberOfBytes": "32"
      },
      "t_uint128": {
        "encoding": "inplace",
        "label": "uint128",
        "numberOfBytes": "16"
      },
      "t_uint16": {
        "encoding": "inplace",
        "label": "uint16",
        "numberOfBytes": "2"
      },
      "t_uint256": {
        "encoding": "inplace",
        "label": "uint256",
        "numberOfBytes": "32"
      },
      "t_uint64": {
        "encoding": "inplace",
        "label": "uint64",
        "numberOfBytes": "8"
      },
      "t_uint8": {
        "encoding": "inplace",
        "label": "uint8",
        "numberOfBytes": "1"
      }
    }
  }
}