{
  "address": "0x152a943eB7fd392891D42e8143443De44E3FF8B1",
  "abi": [
    {
      "inputs": [
        {
          "internalType": "string",
          "name": "name_",
          "type": "string"
        },
        {
          "internalType": "string",
          "name": "symbol_",
          "type": "string"
        },
        {
          "internalType": "address",
          "name": "_rendererAddress",
          "type": "address"
        },
        {
          "internalType": "address",
          "name": "_opensea",
          "type": "address"
        },
        {
          "internalType": "address",
          "name": "_looksrare",
          "type": "address"
        },
        {
          "internalType": "uint64",
          "name": "subscriptionId",
          "type": "uint64"
        },
        {
          "internalType": "address",
          "name": "vrfCoordinator",
          "type": "address"
        },
        {
          "internalType": "address",
          "name": "link",
          "type": "address"
        },
        {
          "internalType": "bytes32",
          "name": "keyHash",
          "type": "bytes32"
        }
      ],
      "stateMutability": "nonpayable",
      "type": "constructor"
    },
    {
      "inputs": [],
      "name": "ApprovalCallerNotOwnerNorApproved",
      "type": "error"
    },
    {
      "inputs": [],
      "name": "ApprovalQueryForNonexistentToken",
      "type": "error"
    },
    {
      "inputs": [],
      "name": "ApprovalToCurrentOwner",
      "type": "error"
    },
    {
      "inputs": [],
      "name": "ApproveToCaller",
      "type": "error"
    },
    {
      "inputs": [],
      "name": "BalanceQueryForZeroAddress",
      "type": "error"
    },
    {
      "inputs": [],
      "name": "MintToZeroAddress",
      "type": "error"
    },
    {
      "inputs": [],
      "name": "MintZeroQuantity",
      "type": "error"
    },
    {
      "inputs": [
        {
          "internalType": "address",
          "name": "have",
          "type": "address"
        },
        {
          "internalType": "address",
          "name": "want",
          "type": "address"
        }
      ],
      "name": "OnlyCoordinatorCanFulfill",
      "type": "error"
    },
    {
      "inputs": [],
      "name": "OwnerIndexOutOfBounds",
      "type": "error"
    },
    {
      "inputs": [],
      "name": "OwnerQueryForNonexistentToken",
      "type": "error"
    },
    {
      "inputs": [],
      "name": "TokenIndexOutOfBounds",
      "type": "error"
    },
    {
      "inputs": [],
      "name": "TransferCallerNotOwnerNorApproved",
      "type": "error"
    },
    {
      "inputs": [],
      "name": "TransferFromIncorrectOwner",
      "type": "error"
    },
    {
      "inputs": [],
      "name": "TransferToNonERC721ReceiverImplementer",
      "type": "error"
    },
    {
      "inputs": [],
      "name": "TransferToZeroAddress",
      "type": "error"
    },
    {
      "anonymous": false,
      "inputs": [
        {
          "indexed": true,
          "internalType": "address",
          "name": "owner",
          "type": "address"
        },
        {
          "indexed": true,
          "internalType": "address",
          "name": "approved",
          "type": "address"
        },
        {
          "indexed": true,
          "internalType": "uint256",
          "name": "tokenId",
          "type": "uint256"
        }
      ],
      "name": "Approval",
      "type": "event"
    },
    {
      "anonymous": false,
      "inputs": [
        {
          "indexed": true,
          "internalType": "address",
          "name": "owner",
          "type": "address"
        },
        {
          "indexed": true,
          "internalType": "address",
          "name": "operator",
          "type": "address"
        },
        {
          "indexed": false,
          "internalType": "bool",
          "name": "approved",
          "type": "bool"
        }
      ],
      "name": "ApprovalForAll",
      "type": "event"
    },
    {
      "anonymous": false,
      "inputs": [
        {
          "indexed": true,
          "internalType": "address",
          "name": "previousOwner",
          "type": "address"
        },
        {
          "indexed": true,
          "internalType": "address",
          "name": "newOwner",
          "type": "address"
        }
      ],
      "name": "OwnershipTransferred",
      "type": "event"
    },
    {
      "anonymous": false,
      "inputs": [
        {
          "indexed": true,
          "internalType": "address",
          "name": "from",
          "type": "address"
        },
        {
          "indexed": true,
          "internalType": "address",
          "name": "to",
          "type": "address"
        },
        {
          "indexed": true,
          "internalType": "uint256",
          "name": "tokenId",
          "type": "uint256"
        }
      ],
      "name": "Transfer",
      "type": "event"
    },
    {
      "inputs": [],
      "name": "COBOTS_MINT_DURATION",
      "outputs": [
        {
          "internalType": "uint256",
          "name": "",
          "type": "uint256"
        }
      ],
      "stateMutability": "view",
      "type": "function"
    },
    {
      "inputs": [],
      "name": "COBOTS_MINT_RAFFLE_DELAY",
      "outputs": [
        {
          "internalType": "uint256",
          "name": "",
          "type": "uint256"
        }
      ],
      "stateMutability": "view",
      "type": "function"
    },
    {
      "inputs": [],
      "name": "COBOTS_REFUND_DURATION",
      "outputs": [
        {
          "internalType": "uint256",
          "name": "",
          "type": "uint256"
        }
      ],
      "stateMutability": "view",
      "type": "function"
    },
    {
      "inputs": [],
      "name": "COORDINATION_RAFFLE_PRIZE",
      "outputs": [
        {
          "internalType": "uint256",
          "name": "",
          "type": "uint256"
        }
      ],
      "stateMutability": "view",
      "type": "function"
    },
    {
      "inputs": [],
      "name": "COORDINATION_RAFFLE_THRESHOLD",
      "outputs": [
        {
          "internalType": "uint16",
          "name": "",
          "type": "uint16"
        }
      ],
      "stateMutability": "view",
      "type": "function"
    },
    {
      "inputs": [],
      "name": "COORDINATION_RAFFLE_WINNERS_COUNT",
      "outputs": [
        {
          "internalType": "uint8",
          "name": "",
          "type": "uint8"
        }
      ],
      "stateMutability": "view",
      "type": "function"
    },
    {
      "inputs": [],
      "name": "MAIN_RAFFLE_PRIZE",
      "outputs": [
        {
          "internalType": "uint256",
          "name": "",
          "type": "uint256"
        }
      ],
      "stateMutability": "view",
      "type": "function"
    },
    {
      "inputs": [],
      "name": "MAIN_RAFFLE_WINNERS_COUNT",
      "outputs": [
        {
          "internalType": "uint8",
          "name": "",
          "type": "uint8"
        }
      ],
      "stateMutability": "view",
      "type": "function"
    },
    {
      "inputs": [],
      "name": "MAX_COBOTS",
      "outputs": [
        {
          "internalType": "uint256",
          "name": "",
          "type": "uint256"
        }
      ],
      "stateMutability": "view",
      "type": "function"
    },
    {
      "inputs": [],
      "name": "MAX_MINT_PER_ADDRESS",
      "outputs": [
        {
          "internalType": "uint8",
          "name": "",
          "type": "uint8"
        }
      ],
      "stateMutability": "view",
      "type": "function"
    },
    {
      "inputs": [],
      "name": "MINT_FOUNDERS_AND_GIVEAWAYS",
      "outputs": [
        {
          "internalType": "uint8",
          "name": "",
          "type": "uint8"
        }
      ],
      "stateMutability": "view",
      "type": "function"
    },
    {
      "inputs": [],
      "name": "MINT_GIVEAWAYS",
      "outputs": [
        {
          "internalType": "uint8",
          "name": "",
          "type": "uint8"
        }
      ],
      "stateMutability": "view",
      "type": "function"
    },
    {
      "inputs": [],
      "name": "MINT_PUBLIC_PRICE",
      "outputs": [
        {
          "internalType": "uint256",
          "name": "",
          "type": "uint256"
        }
      ],
      "stateMutability": "view",
      "type": "function"
    },
    {
      "inputs": [
        {
          "internalType": "address",
          "name": "to",
          "type": "address"
        },
        {
          "internalType": "uint256",
          "name": "tokenId",
          "type": "uint256"
        }
      ],
      "name": "approve",
      "outputs": [],
      "stateMutability": "nonpayable",
      "type": "function"
    },
    {
      "inputs": [
        {
          "internalType": "address",
          "name": "owner",
          "type": "address"
        }
      ],
      "name": "balanceOf",
      "outputs": [
        {
          "internalType": "uint256",
          "name": "",
          "type": "uint256"
        }
      ],
      "stateMutability": "view",
      "type": "function"
    },
    {
      "inputs": [],
      "name": "claimRefund",
      "outputs": [],
      "stateMutability": "nonpayable",
      "type": "function"
    },
    {
      "inputs": [],
      "name": "coBotsColorAgreement",
      "outputs": [
        {
          "internalType": "uint16",
          "name": "",
          "type": "uint16"
        }
      ],
      "stateMutability": "view",
      "type": "function"
    },
    {
      "inputs": [
        {
          "internalType": "uint256",
          "name": "",
          "type": "uint256"
        }
      ],
      "name": "coBotsColors",
      "outputs": [
        {
          "internalType": "bool",
          "name": "",
          "type": "bool"
        }
      ],
      "stateMutability": "view",
      "type": "function"
    },
    {
      "inputs": [
        {
          "internalType": "uint256",
          "name": "",
          "type": "uint256"
        }
      ],
      "name": "coBotsRefunded",
      "outputs": [
        {
          "internalType": "bool",
          "name": "",
          "type": "bool"
        }
      ],
      "stateMutability": "view",
      "type": "function"
    },
    {
      "inputs": [
        {
          "internalType": "uint256",
          "name": "",
          "type": "uint256"
        }
      ],
      "name": "coBotsSeeds",
      "outputs": [
        {
          "internalType": "uint8",
          "name": "",
          "type": "uint8"
        }
      ],
      "stateMutability": "view",
      "type": "function"
    },
    {
      "inputs": [
        {
          "internalType": "uint256",
          "name": "",
          "type": "uint256"
        }
      ],
      "name": "coBotsStatusDisabled",
      "outputs": [
        {
          "internalType": "bool",
          "name": "",
          "type": "bool"
        }
      ],
      "stateMutability": "view",
      "type": "function"
    },
    {
      "inputs": [],
      "name": "cooperativeRaffleEnabled",
      "outputs": [
        {
          "internalType": "bool",
          "name": "",
          "type": "bool"
        }
      ],
      "stateMutability": "view",
      "type": "function"
    },
    {
      "inputs": [],
      "name": "draw",
      "outputs": [],
      "stateMutability": "nonpayable",
      "type": "function"
    },
    {
      "inputs": [],
      "name": "drawCount",
      "outputs": [
        {
          "internalType": "uint16",
          "name": "",
          "type": "uint16"
        }
      ],
      "stateMutability": "view",
      "type": "function"
    },
    {
      "inputs": [
        {
          "internalType": "uint256",
          "name": "_tokenId",
          "type": "uint256"
        }
      ],
      "name": "exists",
      "outputs": [
        {
          "internalType": "bool",
          "name": "",
          "type": "bool"
        }
      ],
      "stateMutability": "view",
      "type": "function"
    },
    {
      "inputs": [
        {
          "internalType": "address",
          "name": "proxyAddress",
          "type": "address"
        }
      ],
      "name": "flipProxyState",
      "outputs": [],
      "stateMutability": "nonpayable",
      "type": "function"
    },
    {
      "inputs": [
        {
          "internalType": "uint256",
          "name": "tokenId",
          "type": "uint256"
        }
      ],
      "name": "getApproved",
      "outputs": [
        {
          "internalType": "address",
          "name": "",
          "type": "address"
        }
      ],
      "stateMutability": "view",
      "type": "function"
    },
    {
      "inputs": [
        {
          "internalType": "address",
          "name": "owner",
          "type": "address"
        },
        {
          "internalType": "address",
          "name": "operator",
          "type": "address"
        }
      ],
      "name": "isApprovedForAll",
      "outputs": [
        {
          "internalType": "bool",
          "name": "",
          "type": "bool"
        }
      ],
      "stateMutability": "view",
      "type": "function"
    },
    {
      "inputs": [],
      "name": "isDrawOpen",
      "outputs": [
        {
          "internalType": "bool",
          "name": "",
          "type": "bool"
        }
      ],
      "stateMutability": "view",
      "type": "function"
    },
    {
      "inputs": [],
      "name": "isMintedOut",
      "outputs": [
        {
          "internalType": "bool",
          "name": "",
          "type": "bool"
        }
      ],
      "stateMutability": "view",
      "type": "function"
    },
    {
      "inputs": [],
      "name": "isPublicSaleOpen",
      "outputs": [
        {
          "internalType": "bool",
          "name": "",
          "type": "bool"
        }
      ],
      "stateMutability": "view",
      "type": "function"
    },
    {
      "inputs": [],
      "name": "lastDrawTimestamp",
      "outputs": [
        {
          "internalType": "uint256",
          "name": "",
          "type": "uint256"
        }
      ],
      "stateMutability": "view",
      "type": "function"
    },
    {
      "inputs": [],
      "name": "looksrare",
      "outputs": [
        {
          "internalType": "address",
          "name": "",
          "type": "address"
        }
      ],
      "stateMutability": "view",
      "type": "function"
    },
    {
      "inputs": [
        {
          "internalType": "address",
          "name": "to",
          "type": "address"
        },
        {
          "internalType": "uint256",
          "name": "quantity",
          "type": "uint256"
        }
      ],
      "name": "mintFoundersAndGiveaways",
      "outputs": [],
      "stateMutability": "nonpayable",
      "type": "function"
    },
    {
      "inputs": [
        {
          "internalType": "uint256",
          "name": "quantity",
          "type": "uint256"
        }
      ],
      "name": "mintPublicSale",
      "outputs": [],
      "stateMutability": "payable",
      "type": "function"
    },
    {
      "inputs": [],
      "name": "name",
      "outputs": [
        {
          "internalType": "string",
          "name": "",
          "type": "string"
        }
      ],
      "stateMutability": "view",
      "type": "function"
    },
    {
      "inputs": [],
      "name": "opensea",
      "outputs": [
        {
          "internalType": "address",
          "name": "",
          "type": "address"
        }
      ],
      "stateMutability": "view",
      "type": "function"
    },
    {
      "inputs": [],
      "name": "owner",
      "outputs": [
        {
          "internalType": "address",
          "name": "",
          "type": "address"
        }
      ],
      "stateMutability": "view",
      "type": "function"
    },
    {
      "inputs": [
        {
          "internalType": "uint256",
          "name": "tokenId",
          "type": "uint256"
        }
      ],
      "name": "ownerOf",
      "outputs": [
        {
          "internalType": "address",
          "name": "",
          "type": "address"
        }
      ],
      "stateMutability": "view",
      "type": "function"
    },
    {
      "inputs": [
        {
          "internalType": "address",
          "name": "",
          "type": "address"
        }
      ],
      "name": "prizePerAddress",
      "outputs": [
        {
          "internalType": "uint256",
          "name": "",
          "type": "uint256"
        }
      ],
      "stateMutability": "view",
      "type": "function"
    },
    {
      "inputs": [],
      "name": "publicSaleStartTimestamp",
      "outputs": [
        {
          "internalType": "uint256",
          "name": "",
          "type": "uint256"
        }
      ],
      "stateMutability": "view",
      "type": "function"
    },
    {
      "inputs": [
        {
          "internalType": "uint256",
          "name": "requestId",
          "type": "uint256"
        },
        {
          "internalType": "uint256[]",
          "name": "randomWords",
          "type": "uint256[]"
        }
      ],
      "name": "rawFulfillRandomWords",
      "outputs": [],
      "stateMutability": "nonpayable",
      "type": "function"
    },
    {
      "inputs": [],
      "name": "renderingContractAddress",
      "outputs": [
        {
          "internalType": "address",
          "name": "",
          "type": "address"
        }
      ],
      "stateMutability": "view",
      "type": "function"
    },
    {
      "inputs": [],
      "name": "renounceOwnership",
      "outputs": [],
      "stateMutability": "nonpayable",
      "type": "function"
    },
    {
      "inputs": [
        {
          "internalType": "address",
          "name": "from",
          "type": "address"
        },
        {
          "internalType": "address",
          "name": "to",
          "type": "address"
        },
        {
          "internalType": "uint256",
          "name": "tokenId",
          "type": "uint256"
        }
      ],
      "name": "safeTransferFrom",
      "outputs": [],
      "stateMutability": "nonpayable",
      "type": "function"
    },
    {
      "inputs": [
        {
          "internalType": "address",
          "name": "from",
          "type": "address"
        },
        {
          "internalType": "address",
          "name": "to",
          "type": "address"
        },
        {
          "internalType": "uint256",
          "name": "tokenId",
          "type": "uint256"
        },
        {
          "internalType": "bytes",
          "name": "_data",
          "type": "bytes"
        }
      ],
      "name": "safeTransferFrom",
      "outputs": [],
      "stateMutability": "nonpayable",
      "type": "function"
    },
    {
      "inputs": [
        {
          "internalType": "address",
          "name": "operator",
          "type": "address"
        },
        {
          "internalType": "bool",
          "name": "approved",
          "type": "bool"
        }
      ],
      "name": "setApprovalForAll",
      "outputs": [],
      "stateMutability": "nonpayable",
      "type": "function"
    },
    {
      "inputs": [
        {
          "internalType": "address",
          "name": "looksrare_",
          "type": "address"
        }
      ],
      "name": "setLooksrare",
      "outputs": [],
      "stateMutability": "nonpayable",
      "type": "function"
    },
    {
      "inputs": [
        {
          "internalType": "address",
          "name": "opensea_",
          "type": "address"
        }
      ],
      "name": "setOpensea",
      "outputs": [],
      "stateMutability": "nonpayable",
      "type": "function"
    },
    {
      "inputs": [
        {
          "internalType": "uint256",
          "name": "timestamp",
          "type": "uint256"
        }
      ],
      "name": "setPublicSaleTimestamp",
      "outputs": [],
      "stateMutability": "nonpayable",
      "type": "function"
    },
    {
      "inputs": [
        {
          "internalType": "address",
          "name": "_renderingContractAddress",
          "type": "address"
        }
      ],
      "name": "setRenderingContractAddress",
      "outputs": [],
      "stateMutability": "nonpayable",
      "type": "function"
    },
    {
      "inputs": [
        {
          "internalType": "bytes4",
          "name": "interfaceId",
          "type": "bytes4"
        }
      ],
      "name": "supportsInterface",
      "outputs": [
        {
          "internalType": "bool",
          "name": "",
          "type": "bool"
        }
      ],
      "stateMutability": "view",
      "type": "function"
    },
    {
      "inputs": [],
      "name": "symbol",
      "outputs": [
        {
          "internalType": "string",
          "name": "",
          "type": "string"
        }
      ],
      "stateMutability": "view",
      "type": "function"
    },
    {
      "inputs": [
        {
          "internalType": "uint256",
          "name": "tokenId",
          "type": "uint256"
        }
      ],
      "name": "toggleColor",
      "outputs": [],
      "stateMutability": "nonpayable",
      "type": "function"
    },
    {
      "inputs": [
        {
          "internalType": "uint256[]",
          "name": "tokenIds",
          "type": "uint256[]"
        }
      ],
      "name": "toggleColors",
      "outputs": [],
      "stateMutability": "nonpayable",
      "type": "function"
    },
    {
      "inputs": [
        {
          "internalType": "uint256",
          "name": "tokenId",
          "type": "uint256"
        }
      ],
      "name": "toggleStatus",
      "outputs": [],
      "stateMutability": "nonpayable",
      "type": "function"
    },
    {
      "inputs": [
        {
          "internalType": "uint256[]",
          "name": "tokenIds",
          "type": "uint256[]"
        }
      ],
      "name": "toggleStatuses",
      "outputs": [],
      "stateMutability": "nonpayable",
      "type": "function"
    },
    {
      "inputs": [
        {
          "internalType": "uint256",
          "name": "index",
          "type": "uint256"
        }
      ],
      "name": "tokenByIndex",
      "outputs": [
        {
          "internalType": "uint256",
          "name": "",
          "type": "uint256"
        }
      ],
      "stateMutability": "view",
      "type": "function"
    },
    {
      "inputs": [
        {
          "internalType": "address",
          "name": "owner",
          "type": "address"
        },
        {
          "internalType": "uint256",
          "name": "index",
          "type": "uint256"
        }
      ],
      "name": "tokenOfOwnerByIndex",
      "outputs": [
        {
          "internalType": "uint256",
          "name": "",
          "type": "uint256"
        }
      ],
      "stateMutability": "view",
      "type": "function"
    },
    {
      "inputs": [
        {
          "internalType": "uint256",
          "name": "_tokenId",
          "type": "uint256"
        }
      ],
      "name": "tokenURI",
      "outputs": [
        {
          "internalType": "string",
          "name": "",
          "type": "string"
        }
      ],
      "stateMutability": "view",
      "type": "function"
    },
    {
      "inputs": [],
      "name": "totalSupply",
      "outputs": [
        {
          "internalType": "uint256",
          "name": "",
          "type": "uint256"
        }
      ],
      "stateMutability": "view",
      "type": "function"
    },
    {
      "inputs": [
        {
          "internalType": "address",
          "name": "from",
          "type": "address"
        },
        {
          "internalType": "address",
          "name": "to",
          "type": "address"
        },
        {
          "internalType": "uint256",
          "name": "tokenId",
          "type": "uint256"
        }
      ],
      "name": "transferFrom",
      "outputs": [],
      "stateMutability": "nonpayable",
      "type": "function"
    },
    {
      "inputs": [
        {
          "internalType": "address",
          "name": "newOwner",
          "type": "address"
        }
      ],
      "name": "transferOwnership",
      "outputs": [],
      "stateMutability": "nonpayable",
      "type": "function"
    },
    {
      "inputs": [],
      "name": "withdraw",
      "outputs": [],
      "stateMutability": "nonpayable",
      "type": "function"
    },
    {
      "stateMutability": "payable",
      "type": "receive"
    }
  ],
  "transactionHash": "0xb310411700001e93afb5bc1f7253036bad5976e38c64c60ce46394f62fde1df8",
  "args": [
    "CoBots",
    "CBTS",
    "0xfA03f0233bcAf122D304A2A6f8c6bD9eE44cc3Bd",
    "0xa5409ec958c83c3f309868babaca7c86dcb077c1",
    "0xf42aa99f011a1fa7cda90e5e98b277e306bca83e",
    781,
    "0x6168499c0cFfCaCD319c818142124B7A15E857ab",
    "0x01BE23585060835E02B77ef475b0Cc51aA1e0709",
    "0xd89b2bf150e3b9e13446986e571fb9cab24b13cea0a43ea20a6049a85cc807cc"
  ],
  "numDeployments": 2,
  "solcInputHash": "16c51d45c6a564483cea80ac924c9232",
  "bytecode": "0x60a06040526104ed805461ffff19166113881790553480156200002157600080fd5b506040516200434338038062004343833981016040819052620000449162000424565b82898981600190805190602001906200005f929190620001d6565b50805162000075906002906020840190620001d6565b5050506001600160a01b03166080526200008f3362000120565b60016008556200009f8762000172565b6104ef80546001600160a01b039788166001600160a01b0319918216179091556104f08054968816968216969096179095556104f4805493871693909516929092179093556104f580546001600160401b03909316600160a01b026001600160e01b03199093169390941692909217179091556104f65550620005ba915050565b600780546001600160a01b038381166001600160a01b0319831681179093556040519116919082907f8be0079c531659141344cd1fd0a4f28419497f9722a3daafe3b4186f6b6457e090600090a35050565b6007546001600160a01b03163314620001a85760405162461bcd60e51b81526004016200019f9062000538565b60405180910390fd5b6104f280546001600160a01b039092166001600160a01b031992831681179091556104f38054909216179055565b828054620001e49062000589565b90600052602060002090601f01602090048101928262000208576000855562000253565b82601f106200022357805160ff191683800117855562000253565b8280016001018555821562000253579182015b828111156200025357825182559160200191906001019062000236565b506200026192915062000265565b5090565b5b8082111562000261576000815560010162000266565b634e487b7160e01b600052604160045260246000fd5b601f19601f83011681016001600160401b0381118282101715620002ba57620002ba6200027c565b6040525050565b6000620002cd60405190565b9050620002db828262000292565b919050565b60006001600160401b03821115620002fc57620002fc6200027c565b601f19601f83011660200192915050565b60005b838110156200032a57818101518382015260200162000310565b838111156200033a576000848401525b50505050565b6000620003576200035184620002e0565b620002c1565b905082815260208101848484011115620003745762000374600080fd5b620003818482856200030d565b509392505050565b600082601f8301126200039f576200039f600080fd5b8151620003b184826020860162000340565b949350505050565b60006001600160a01b0382165b92915050565b620003d781620003b9565b8114620003e357600080fd5b50565b8051620003c681620003cc565b6001600160401b038116620003d7565b8051620003c681620003f3565b80620003d7565b8051620003c68162000410565b60008060008060008060008060006101208a8c031215620004485762000448600080fd5b89516001600160401b03811115620004635762000463600080fd5b620004718c828d0162000389565b60208c0151909a5090506001600160401b03811115620004945762000494600080fd5b620004a28c828d0162000389565b9850506040620004b58c828d01620003e6565b9750506060620004c88c828d01620003e6565b9650506080620004db8c828d01620003e6565b95505060a0620004ee8c828d0162000403565b94505060c0620005018c828d01620003e6565b93505060e0620005148c828d01620003e6565b925050610100620005288c828d0162000417565b9150509295985092959850929598565b60208082528181019081527f4f776e61626c653a2063616c6c6572206973206e6f7420746865206f776e6572604083015260608201620003c6565b634e487b7160e01b600052602260045260246000fd5b6002810460018216806200059e57607f821691505b60208210811415620005b457620005b462000573565b50919050565b608051613d66620005dd6000396000818161113901526111610152613d666000f3fe6080604052600436106103c75760003560e01c806368d99f7c116101f2578063adb19dc31161010d578063c7994510116100a0578063e985e9c51161006f578063e985e9c514610abe578063f2fde38b14610ade578063f73c814b14610afe578063fc749b3c14610b1e57600080fd5b8063c79945101461085e578063c87b56dd14610a66578063cef46f0d14610a86578063d7822c9914610aa757600080fd5b8063b776c8a6116100dc578063b776c8a6146109e5578063b88d4fde14610a05578063c074f41214610a25578063c45ca31014610a4657600080fd5b8063adb19dc314610994578063b06a01f414610653578063b4b294d9146109b4578063b5545a3c146109d057600080fd5b806395d89b4111610185578063a747338311610154578063a74733831461092b578063a8e90b5714610948578063abb7a28f14610969578063ac483b931461097f57600080fd5b806395d89b41146108bf5780639c51792a146108d4578063a22cb465146108ef578063a3b1763f1461090f57600080fd5b8063743521e4116101c1578063743521e41461085e57806378af6b85146108755780638c21460b1461088a5780638da5cb5b146108a157600080fd5b806368d99f7c146107f157806370a0823114610814578063715018a61461083457806373cd7d881461084957600080fd5b80632f745c59116102e25780634fb9462a116102755780635a5e5d58116102445780635a5e5d581461077e5780635dad667c146107915780636352211e146107b15780636445b238146107d157600080fd5b80634fb9462a146106fd578063511a96051461071d578063511ed3821461073d57806351db2e761461075e57600080fd5b806342842e0e116102b157806342842e0e1461067d57806347a3650b1461069d5780634f558e79146106bd5780634f6ccce7146106dd57600080fd5b80632f745c591461060557806330d1bda1146106255780633acd6cb2146106535780633ccfd60b1461066857600080fd5b806312b40a9f1161035a5780631e8858fb116103295780631e8858fb146105855780631fafadbc146105a55780631fe543e3146105c557806323b872dd146105e557600080fd5b806312b40a9f146104fd57806316d870c21461051d57806318160ddd146105345780631a6949e31461057057600080fd5b806308222d581161039657806308222d581461047a578063095ea7b3146104a35780630bb4d042146104c55780630eecae21146104e857600080fd5b806301ffc9a7146103d357806303e48f661461040957806306fdde031461042b578063081812fc1461044d57600080fd5b366103ce57005b600080fd5b3480156103df57600080fd5b506103f36103ee366004612d01565b610b3e565b6040516104009190612d2c565b60405180910390f35b34801561041557600080fd5b5061041e603281565b6040516104009190612d43565b34801561043757600080fd5b50610440610c0f565b6040516104009190612daf565b34801561045957600080fd5b5061046d610468366004612dd1565b610ca1565b6040516104009190612e0c565b34801561048657600080fd5b506104fa546104969061ffff1681565b6040516104009190612e24565b3480156104af57600080fd5b506104c36104be366004612e46565b610cfe565b005b3480156104d157600080fd5b506104db61271081565b6040516104009190612e89565b3480156104f457600080fd5b506104c3610dbe565b34801561050957600080fd5b506104c3610518366004612e97565b61100d565b34801561052957600080fd5b506104db6201518081565b34801561054057600080fd5b506104db6000546001600160801b0370010000000000000000000000000000000082048116918116919091031690565b34801561057c57600080fd5b506103f3611072565b34801561059157600080fd5b506104c36105a0366004612e97565b6110a9565b3480156105b157600080fd5b5061041e6105c0366004612dd1565b611103565b3480156105d157600080fd5b506104c36105e0366004612fbd565b61112e565b3480156105f157600080fd5b506104c361060036600461300b565b6111c2565b34801561061157600080fd5b506104db610620366004612e46565b6111cd565b34801561063157600080fd5b506104db610640366004612e97565b6104f86020526000908152604090205481565b34801561065f57600080fd5b5061041e601481565b34801561067457600080fd5b506104c36112e3565b34801561068957600080fd5b506104c361069836600461300b565b6113ed565b3480156106a957600080fd5b506104c36106b83660046130ad565b611408565b3480156106c957600080fd5b506103f36106d8366004612dd1565b611478565b3480156106e957600080fd5b506104db6106f8366004612dd1565b611483565b34801561070957600080fd5b506103f3610718366004612dd1565b611547565b34801561072957600080fd5b506104c3610738366004612dd1565b611559565b34801561074957600080fd5b506104ef5461046d906001600160a01b031681565b34801561076a57600080fd5b506104c3610779366004612dd1565b611589565b6104c361078c366004612dd1565b61164c565b34801561079d57600080fd5b506104c36107ac366004612dd1565b61174e565b3480156107bd57600080fd5b5061046d6107cc366004612dd1565b611871565b3480156107dd57600080fd5b506103f36107ec366004612dd1565b611883565b3480156107fd57600080fd5b506103f36000546001600160801b03166127101490565b34801561082057600080fd5b506104db61082f366004612e97565b611895565b34801561084057600080fd5b506104c36118fd565b34801561085557600080fd5b5061041e600a81565b34801561086a57600080fd5b506104db62093a8081565b34801561088157600080fd5b5061041e601e81565b34801561089657600080fd5b506104db6104f75481565b3480156108ad57600080fd5b506007546001600160a01b031661046d565b3480156108cb57600080fd5b50610440611933565b3480156108e057600080fd5b506104db66b1a2bc2ec5000081565b3480156108fb57600080fd5b506104c361090a366004613108565b611942565b34801561091b57600080fd5b506104db6722b1c8c1227a000081565b34801561093757600080fd5b506104db68015af1d78b58c4000081565b34801561095457600080fd5b506104f05461046d906001600160a01b031681565b34801561097557600080fd5b5061049661251c81565b34801561098b57600080fd5b506103f36119f4565b3480156109a057600080fd5b506104c36109af3660046130ad565b611a2d565b3480156109c057600080fd5b506104ed546104969061ffff1681565b3480156109dc57600080fd5b506104c3611c35565b3480156109f157600080fd5b506104c3610a00366004612e97565b611e09565b348015610a1157600080fd5b506104c3610a203660046131d2565b611e63565b348015610a3157600080fd5b506104f25461046d906001600160a01b031681565b348015610a5257600080fd5b506104c3610a61366004612e46565b611e9d565b348015610a7257600080fd5b50610440610a81366004612dd1565b611f08565b348015610a9257600080fd5b506104fa546103f39062010000900460ff1681565b348015610ab357600080fd5b506104db6104ee5481565b348015610aca57600080fd5b506103f3610ad9366004613251565b61204c565b348015610aea57600080fd5b506104c3610af9366004612e97565b612160565b348015610b0a57600080fd5b506104c3610b19366004612e97565b6121b9565b348015610b2a57600080fd5b506103f3610b39366004612dd1565b61220d565b60006001600160e01b031982167f80ac58cd000000000000000000000000000000000000000000000000000000001480610ba157506001600160e01b031982167f5b5e139f00000000000000000000000000000000000000000000000000000000145b80610bd557506001600160e01b031982167f780e9d6300000000000000000000000000000000000000000000000000000000145b80610c0957507f01ffc9a7000000000000000000000000000000000000000000000000000000006001600160e01b03198316145b92915050565b606060018054610c1e9061329a565b80601f0160208091040260200160405190810160405280929190818152602001828054610c4a9061329a565b8015610c975780601f10610c6c57610100808354040283529160200191610c97565b820191906000526020600020905b815481529060010190602001808311610c7a57829003601f168201915b5050505050905090565b6000610cac8261221f565b610ce2576040517fcf4700e400000000000000000000000000000000000000000000000000000000815260040160405180910390fd5b506000908152600560205260409020546001600160a01b031690565b6000610d0982611871565b9050806001600160a01b0316836001600160a01b03161415610d57576040517f943f7b8c00000000000000000000000000000000000000000000000000000000815260040160405180910390fd5b336001600160a01b03821614801590610d775750610d75813361204c565b155b15610dae576040517fcfb3b94200000000000000000000000000000000000000000000000000000000815260040160405180910390fd5b610db9838383612253565b505050565b60026008541415610dea5760405162461bcd60e51b8152600401610de1906132fb565b60405180910390fd5b6002600855610df76119f4565b610e135760405162461bcd60e51b8152600401610de19061333d565b610e296000546001600160801b03166127101490565b610e455760405162461bcd60e51b8152600401610de19061337f565b6104fa5462010000900460ff16610e5d57600a610e69565b610e696014600a6133a5565b6104fa5460ff9190911661ffff90911610610e965760405162461bcd60e51b8152600401610de1906133fd565b426104f754603c610ea7919061340d565b111580610eb957506104fa5461ffff16155b610ed55760405162461bcd60e51b8152600401610de190613450565b426104f7556104fa54600090600a61ffff90911610610efc576722b1c8c1227a0000610f07565b68015af1d78b58c400005b6104fa805491925061ffff909116906000610f2183613460565b82546101009290920a61ffff818102199093169190921691909102179055506104f4546104f6546104f5546040517f5d3b1d300000000000000000000000000000000000000000000000000000000081526000936001600160a01b031692635d3b1d3092610faf92600160a01b90910467ffffffffffffffff16906005906207a120906001906004016134be565b6020604051808303816000875af1158015610fce573d6000803e3d6000fd5b505050506040513d601f19601f82011682018060405250810190610ff29190613515565b60009081526104f96020526040902091909155506001600855565b6007546001600160a01b031633146110375760405162461bcd60e51b8152600401610de190613566565b6104f280546001600160a01b0390921673ffffffffffffffffffffffffffffffffffffffff1992831681179091556104f38054909216179055565b60006104ee544211801561108857506104ee5415155b80156110a4575062093a806104ee546110a1919061340d565b42105b905090565b6007546001600160a01b031633146110d35760405162461bcd60e51b8152600401610de190613566565b6104f0805473ffffffffffffffffffffffffffffffffffffffff19166001600160a01b0392909216919091179055565b600981612710811061111457600080fd5b60209182820401919006915054906101000a900460ff1681565b336001600160a01b037f000000000000000000000000000000000000000000000000000000000000000016146111b457337f00000000000000000000000000000000000000000000000000000000000000006040517f1cf993f4000000000000000000000000000000000000000000000000000000008152600401610de1929190613576565b6111be82826122bc565b5050565b610db98383836123f4565b60006111d883611895565b8210611210576040517f0ddac30e00000000000000000000000000000000000000000000000000000000815260040160405180910390fd5b600080546001600160801b03169080805b838110156112dd57600081815260036020908152604091829020825160608101845290546001600160a01b0381168252600160a01b810467ffffffffffffffff1692820192909252600160e01b90910460ff16158015928201929092529061128957506112d5565b80516001600160a01b03161561129e57805192505b876001600160a01b0316836001600160a01b031614156112d357868414156112cc57509350610c0992505050565b6001909301925b505b600101611221565b50600080fd5b6007546001600160a01b0316331461130d5760405162461bcd60e51b8152600401610de190613566565b6104fa5462010000900460ff1661132557600a611331565b6113316014600a6133a5565b6104fa5461ffff1660ff919091161480611366575062093a80806104ee54611359919061340d565b611363919061340d565b42115b6113825760405162461bcd60e51b8152600401610de1906135eb565b604051600090339047908381818185875af1925050503d80600081146113c4576040519150601f19603f3d011682016040523d82523d6000602084013e6113c9565b606091505b50509050806113ea5760405162461bcd60e51b8152600401610de19061362d565b50565b610db983838360405180602001604052806000815250611e63565b6002600854141561142b5760405162461bcd60e51b8152600401610de1906132fb565b600260085560005b8181101561146e5761145c8383838181106114505761145061363d565b90506020020135611589565b8061146681613653565b915050611433565b5050600160085550565b6000610c098261221f565b600080546001600160801b031681805b8281101561151457600081815260036020908152604091829020825160608101845290546001600160a01b0381168252600160a01b810467ffffffffffffffff1692820192909252600160e01b90910460ff1615159181018290529061150b57858314156115045750949350505050565b6001909201915b50600101611493565b506040517fa723001c00000000000000000000000000000000000000000000000000000000815260040160405180910390fd5b61027b81612710811061111457600080fd5b6007546001600160a01b031633146115835760405162461bcd60e51b8152600401610de190613566565b6104ee55565b600260085414156115ac5760405162461bcd60e51b8152600401610de1906132fb565b6002600855336115bb82611871565b6001600160a01b0316146115e15760405162461bcd60e51b8152600401610de190613699565b6101428161271081106115f6576115f661363d565b602081049091015460ff601f9092166101000a900416156101428261271081106116225761162261363d565b602091828204019190066101000a81548160ff021916908315150217905550600160088190555050565b611654611072565b6116705760405162461bcd60e51b8152600401610de1906136db565b600260085414156116935760405162461bcd60e51b8152600401610de1906132fb565b60026008556116a98166b1a2bc2ec500006136eb565b34146116c75760405162461bcd60e51b8152600401610de19061373c565b6116d4612710600161340d565b6000546116eb9083906001600160801b031661340d565b106117085760405162461bcd60e51b8152600401610de19061377e565b60148161171433611895565b61171e919061340d565b111561173c5760405162461bcd60e51b8152600401610de1906137e6565b611746338261265c565b506001600855565b600260085414156117715760405162461bcd60e51b8152600401610de1906132fb565b60026008553361178082611871565b6001600160a01b0316146117a65760405162461bcd60e51b8152600401610de190613699565b61027b8161271081106117bb576117bb61363d565b602081049091015460ff601f9092166101000a9004161561027b8261271081106117e7576117e761363d565b602091828204019190066101000a81548160ff02191690831515021790555061027b81612710811061181b5761181b61363d565b602081049091015460ff601f9092166101000a900416611846576104ed5461ffff1660001901611852565b6104ed5461ffff166001015b6104ed805461ffff191661ffff9290921691909117905561174661277c565b600061187c82612808565b5192915050565b6103b481612710811061111457600080fd5b60006001600160a01b0382166118d7576040517f8f4eb60400000000000000000000000000000000000000000000000000000000815260040160405180910390fd5b506001600160a01b031660009081526004602052604090205467ffffffffffffffff1690565b6007546001600160a01b031633146119275760405162461bcd60e51b8152600401610de190613566565b6119316000612945565b565b606060028054610c1e9061329a565b6001600160a01b038216331415611985576040517fb06307db00000000000000000000000000000000000000000000000000000000815260040160405180910390fd5b3360008181526006602090815260408083206001600160a01b038716808552925291829020805460ff191685151517905590519091907f17307eab39ab6107e8899845ad3d59bd9653f200f220920489ca2b5937696c31906119e8908590612d2c565b60405180910390a35050565b60006119fe611072565b1580156110a457506201518062093a806104ee54611a1c919061340d565b611a26919061340d565b4211905090565b60026008541415611a505760405162461bcd60e51b8152600401610de1906132fb565b6002600855600061027b83838381611a6a57611a6a61363d565b905060200201356127108110611a8257611a8261363d565b602081049091015460ff601f9092166101000a900416905060005b82811015611bf55733611ac7858584818110611abb57611abb61363d565b90506020020135611871565b6001600160a01b031614611aed5760405162461bcd60e51b8152600401610de190613699565b61027b848483818110611b0257611b0261363d565b905060200201356127108110611b1a57611b1a61363d565b602091828204019190069054906101000a900460ff16151582151514611b525760405162461bcd60e51b8152600401610de19061384e565b61027b848483818110611b6757611b6761363d565b905060200201356127108110611b7f57611b7f61363d565b602081049091015460ff601f9092166101000a9004161561027b858584818110611bab57611bab61363d565b905060200201356127108110611bc357611bc361363d565b602091828204019190066101000a81548160ff0219169083151502179055508080611bed90613653565b915050611a9d565b5080611c0b576104ed5461ffff16829003611c16565b6104ed5461ffff1682015b6104ed805461ffff191661ffff9290921691909117905561146e61277c565b60026008541415611c585760405162461bcd60e51b8152600401610de1906132fb565b60026008556104ee54611c6f9062093a809061340d565b42118015611c98575062093a80806104ee54611c8b919061340d565b611c95919061340d565b42105b611cb45760405162461bcd60e51b8152600401610de190613890565b611cca6000546001600160801b03166127101490565b15611ce75760405162461bcd60e51b8152600401610de1906138d2565b6000805b611cf433611895565b811015611d77576000611d0733836111cd565b90506032811015611d185750611d65565b60016103b4826127108110611d2f57611d2f61363d565b602091828204019190066101000a81548160ff02191690831515021790555066b1a2bc2ec5000083611d61919061340d565b9250505b80611d6f81613653565b915050611ceb565b5060008111611d985760405162461bcd60e51b8152600401610de190613914565b604051600090339083908381818185875af1925050503d8060008114611dda576040519150601f19603f3d011682016040523d82523d6000602084013e611ddf565b606091505b5050905080611e005760405162461bcd60e51b8152600401610de19061362d565b50506001600855565b6007546001600160a01b03163314611e335760405162461bcd60e51b8152600401610de190613566565b6104ef805473ffffffffffffffffffffffffffffffffffffffff19166001600160a01b0392909216919091179055565b611e6e8484846123f4565b611e7a848484846129a4565b611e97576040516368d2bf6b60e11b815260040160405180910390fd5b50505050565b6007546001600160a01b03163314611ec75760405162461bcd60e51b8152600401610de190613566565b600054603290611ee0906001600160801b03168361340d565b1115611efe5760405162461bcd60e51b8152600401610de19061397c565b6111be828261265c565b6060611f138261221f565b611f2f5760405162461bcd60e51b8152600401610de1906139e4565b6104f2546001600160a01b0316611f5457505060408051602081019091526000815290565b6104f3546001600160a01b0316632da7b4e9836009816127108110611f7b57611f7b61363d565b602081049091015460ff601f9092166101000a900416610142866127108110611fa657611fa661363d565b602081049091015460ff601f9092166101000a9004161561027b876127108110611fd257611fd261363d565b602091828204019190069054906101000a900460ff166040518563ffffffff1660e01b815260040161200794939291906139f4565b600060405180830381865afa158015612024573d6000803e3d6000fd5b505050506040513d6000823e601f3d908101601f19168201604052610c099190810190613a8a565b6104ef546040517fc45527910000000000000000000000000000000000000000000000000000000081526000916001600160a01b03169063c455279190612097908690600401612e0c565b602060405180830381865afa1580156120b4573d6000803e3d6000fd5b505050506040513d601f19601f820116820180604052508101906120d89190613ae4565b6001600160a01b0316826001600160a01b0316148061210557506104f0546001600160a01b038381169116145b8061212957506001600160a01b03821660009081526104f1602052604090205460ff165b8061215957506001600160a01b0380841660009081526006602090815260408083209386168352929052205460ff165b9392505050565b6007546001600160a01b0316331461218a5760405162461bcd60e51b8152600401610de190613566565b6001600160a01b0381166121b05760405162461bcd60e51b8152600401610de190613b5d565b6113ea81612945565b6007546001600160a01b031633146121e35760405162461bcd60e51b8152600401610de190613566565b6001600160a01b031660009081526104f160205260409020805460ff19811660ff90911615179055565b61014281612710811061111457600080fd5b600080546001600160801b031682108015610c09575050600090815260036020526040902054600160e01b900460ff161590565b600082815260056020526040808220805473ffffffffffffffffffffffffffffffffffffffff19166001600160a01b0387811691821790925591518593918516917f8c5be1e5ebec7d5bd14f71427d1e84f3dd0314c0f7b2291e5b200ac8c7c3b92591a4505050565b6000816000815181106122d1576122d161363d565b6020026020010151905060006122ee612710836107cc9190613b83565b90505b6001600160a01b03811660009081526104f8602052604090205415158061233a5750601e61232161271084613b83565b1015801561233a5750603261233861271084613b83565b105b1561235c5760019190911c906123556107cc61271084613b83565b90506122f1565b60008481526104f960208181526040808420546001600160a01b0386168086526104f8845282862082905589865293909252518381818185875af1925050503d80600081146123c7576040519150601f19603f3d011682016040523d82523d6000602084013e6123cc565b606091505b50509050806123ed5760405162461bcd60e51b8152600401610de190613bc9565b5050505050565b60006123ff82612808565b80519091506000906001600160a01b0316336001600160a01b0316148061242d5750815161242d903361204c565b8061244857503361243d84610ca1565b6001600160a01b0316145b905080612481576040517f59c896be00000000000000000000000000000000000000000000000000000000815260040160405180910390fd5b846001600160a01b031682600001516001600160a01b0316146124d0576040517fa114810000000000000000000000000000000000000000000000000000000000815260040160405180910390fd5b6001600160a01b038416612510576040517fea553b3400000000000000000000000000000000000000000000000000000000815260040160405180910390fd5b6125206000848460000151612253565b6001600160a01b038581166000908152600460209081526040808320805467ffffffffffffffff1980821667ffffffffffffffff92831660001901831617909255898616808652838620805493841693831660019081018416949094179055898652600390945282852080546001600160e01b031916909417600160a01b429092169190910217909255908601808352912054909116612615576000546001600160801b0316811015612615578251600082815260036020908152604090912080549186015167ffffffffffffffff16600160a01b026001600160e01b03199092166001600160a01b03909316929092171790555b5082846001600160a01b0316866001600160a01b03167fddf252ad1be2c89b69c2b068fc378daa952ba7f163c4a11628f55a4df523b3ef60405160405180910390a46123ed565b6020811061267c5760405162461bcd60e51b8152600401610de190613c31565b60008133344244604051602001612697959493929190613c69565b60405160208183030381529060405280519060200120905060005b8281101561277157600080546126d29083906001600160801b031661340d565b90508282602081106126e6576126e661363d565b1a60098261271081106126fb576126fb61363d565b602091828204019190066101000a81548160ff021916908360ff1602179055506002816127289190613b83565b1561027b82612710811061273e5761273e61363d565b602091828204019190066101000a81548160ff02191690831515021790555050808061276990613653565b9150506126b2565b50610db98383612ad6565b426201518062093a806104ee54612793919061340d565b61279d919061340d565b1180156127d357506104ed5461251c61ffff9091161015806127d357506127c861251c612710613cb3565b6104ed5461ffff1611155b15611931576104fa80547fffffffffffffffffffffffffffffffffffffffffffffffffffffffffff00ffff1662010000179055565b60408051606081018252600080825260208201819052918101829052905482906001600160801b031681101561291357600081815260036020908152604091829020825160608101845290546001600160a01b0381168252600160a01b810467ffffffffffffffff1692820192909252600160e01b90910460ff161515918101829052906129115780516001600160a01b0316156128a7579392505050565b5060001901600081815260036020908152604091829020825160608101845290546001600160a01b038116808352600160a01b820467ffffffffffffffff1693830193909352600160e01b900460ff161515928101929092521561290c579392505050565b6128a7565b505b6040517fdf2d9b4200000000000000000000000000000000000000000000000000000000815260040160405180910390fd5b600780546001600160a01b0383811673ffffffffffffffffffffffffffffffffffffffff19831681179093556040519116919082907f8be0079c531659141344cd1fd0a4f28419497f9722a3daafe3b4186f6b6457e090600090a35050565b60006001600160a01b0384163b15612aca576040517f150b7a020000000000000000000000000000000000000000000000000000000081526001600160a01b0385169063150b7a0290612a01903390899088908890600401613cca565b6020604051808303816000875af1925050508015612a3c575060408051601f3d908101601f19168201909252612a3991810190613d0f565b60015b612a97573d808015612a6a576040519150601f19603f3d011682016040523d82523d6000602084013e612a6f565b606091505b508051612a8f576040516368d2bf6b60e11b815260040160405180910390fd5b805181602001fd5b6001600160e01b0319167f150b7a0200000000000000000000000000000000000000000000000000000000149050612ace565b5060015b949350505050565b6111be828260405180602001604052806000815250610db983838360016000546001600160801b03166001600160a01b038516612b3f576040517f2e07630000000000000000000000000000000000000000000000000000000000815260040160405180910390fd5b83612b76576040517fb562e8dd00000000000000000000000000000000000000000000000000000000815260040160405180910390fd5b6001600160a01b038516600081815260046020908152604080832080547fffffffffffffffffffffffffffffffff00000000000000000000000000000000811667ffffffffffffffff8083168c0181169182176801000000000000000067ffffffffffffffff1990941690921783900481168c018116909202179091558584526003909252822080546001600160e01b031916909317600160a01b42909216919091021790915581905b85811015612ca15760405182906001600160a01b038916906000907fddf252ad1be2c89b69c2b068fc378daa952ba7f163c4a11628f55a4df523b3ef908290a4838015612c775750612c7560008884886129a4565b155b15612c95576040516368d2bf6b60e11b815260040160405180910390fd5b60019182019101612c20565b50600080547fffffffffffffffffffffffffffffffff00000000000000000000000000000000166001600160801b03929092169190911790556123ed565b6001600160e01b031981165b81146113ea57600080fd5b8035610c0981612cdf565b600060208284031215612d1657612d16600080fd5b6000612ace8484612cf6565b8015155b82525050565b60208101610c098284612d22565b60ff8116612d26565b60208101610c098284612d3a565b60005b83811015612d6c578181015183820152602001612d54565b83811115611e975750506000910152565b6000612d87825190565b808452602084019350612d9e818560208601612d51565b601f01601f19169290920192915050565b602080825281016121598184612d7d565b80612ceb565b8035610c0981612dc0565b600060208284031215612de657612de6600080fd5b6000612ace8484612dc6565b60006001600160a01b038216610c09565b612d2681612df2565b60208101610c098284612e03565b61ffff8116612d26565b60208101610c098284612e1a565b612ceb81612df2565b8035610c0981612e32565b60008060408385031215612e5c57612e5c600080fd5b6000612e688585612e3b565b9250506020612e7985828601612dc6565b9150509250929050565b80612d26565b60208101610c098284612e83565b600060208284031215612eac57612eac600080fd5b6000612ace8484612e3b565b634e487b7160e01b600052604160045260246000fd5b601f19601f830116810181811067ffffffffffffffff82111715612ef457612ef4612eb8565b6040525050565b6000612f0660405190565b9050612f128282612ece565b919050565b600067ffffffffffffffff821115612f3157612f31612eb8565b5060209081020190565b6000612f4e612f4984612f17565b612efb565b83815290506020808201908402830185811115612f6d57612f6d600080fd5b835b81811015612f8f57612f818782612dc6565b835260209283019201612f6f565b5050509392505050565b600082601f830112612fad57612fad600080fd5b8135612ace848260208601612f3b565b60008060408385031215612fd357612fd3600080fd5b6000612fdf8585612dc6565b925050602083013567ffffffffffffffff811115612fff57612fff600080fd5b612e7985828601612f99565b60008060006060848603121561302357613023600080fd5b600061302f8686612e3b565b935050602061304086828701612e3b565b925050604061305186828701612dc6565b9150509250925092565b60008083601f84011261307057613070600080fd5b50813567ffffffffffffffff81111561308b5761308b600080fd5b6020830191508360208202830111156130a6576130a6600080fd5b9250929050565b600080602083850312156130c3576130c3600080fd5b823567ffffffffffffffff8111156130dd576130dd600080fd5b6130e98582860161305b565b92509250509250929050565b801515612ceb565b8035610c09816130f5565b6000806040838503121561311e5761311e600080fd5b600061312a8585612e3b565b9250506020612e79858286016130fd565b600067ffffffffffffffff82111561315557613155612eb8565b601f19601f83011660200192915050565b82818337506000910152565b6000613180612f498461313b565b90508281526020810184848401111561319b5761319b600080fd5b6131a6848285613166565b509392505050565b600082601f8301126131c2576131c2600080fd5b8135612ace848260208601613172565b600080600080608085870312156131eb576131eb600080fd5b60006131f78787612e3b565b945050602061320887828801612e3b565b935050604061321987828801612dc6565b925050606085013567ffffffffffffffff81111561323957613239600080fd5b613245878288016131ae565b91505092959194509250565b6000806040838503121561326757613267600080fd5b60006132738585612e3b565b9250506020612e7985828601612e3b565b634e487b7160e01b600052602260045260246000fd5b6002810460018216806132ae57607f821691505b602082108114156132c1576132c1613284565b50919050565b601f8152602081017f5265656e7472616e637947756172643a207265656e7472616e742063616c6c00815290505b60200190565b60208082528101610c09816132c7565b600f8152602081017f44726177206e6f74206163746976650000000000000000000000000000000000815290506132f5565b60208082528101610c098161330b565b601a8152602081017f436f2d426f747320617265206e6f74206d696e746564206f7574000000000000815290506132f5565b60208082528101610c098161334d565b634e487b7160e01b600052601160045260246000fd5b60ff8116905060ff8216915060008260ff038211156133c6576133c661338f565b500190565b60128152602081017f44726177206c696d697420726561636865640000000000000000000000000000815290506132f5565b60208082528101610c09816133cb565b600082198211156133c6576133c661338f565b60208082527f44726177732074616b6520706c616365206f6e636520706572206d696e75746591019081526132f5565b60208082528101610c0981613420565b61ffff81169050600061ffff82141561347b5761347b61338f565b5060010190565b67ffffffffffffffff8116612d26565b600061ffff8216610c09565b612d2681613492565b600063ffffffff8216610c09565b612d26816134a7565b60a081016134cc8288612e83565b6134d96020830187613482565b6134e6604083018661349e565b6134f360608301856134b5565b61350060808301846134b5565b9695505050505050565b8051610c0981612dc0565b60006020828403121561352a5761352a600080fd5b6000612ace848461350a565b60208082527f4f776e61626c653a2063616c6c6572206973206e6f7420746865206f776e657291019081526132f5565b60208082528101610c0981613536565b604081016135848285612e03565b6121596020830184612e03565b602e8152602081017f4465762063616e6e6f74207769746864726177206265666f726520746865206581527f6e64206f66207468652067616d65000000000000000000000000000000000000602082015290505b60400190565b60208082528101610c0981613591565b60118152602081017f5769746864726177616c206661696c6564000000000000000000000000000000815290506132f5565b60208082528101610c09816135fb565b634e487b7160e01b600052603260045260246000fd5b600060001982141561347b5761347b61338f565b601b8152602081017f4f6e6c79206f776e65722063616e20746f67676c6520636f6c6f720000000000815290506132f5565b60208082528101610c0981613667565b60148152602081017f5075626c69632073616c65206e6f74206f70656e000000000000000000000000815290506132f5565b60208082528101610c09816136a9565b60008160001904831182151516156137055761370561338f565b500290565b60148152602081017f507269636520646f6573206e6f74206d61746368000000000000000000000000815290506132f5565b60208082528101610c098161370a565b60178152602081017f546f6f206d616e7920436f426f747320746f206d696e74000000000000000000815290506132f5565b60208082528101610c098161374c565b603b8152602081017f436f2d426f74733a2074686520726571756573746564207175616e746974792081527f6578636565647320746865206d6178696d756d20616c6c6f7765640000000000602082015290506135e5565b60208082528101610c098161378e565b60288152602081017f546f67676c696e6720636f6c6f727320696e2074776f20646966666572656e7481527f20636f6c6f727321000000000000000000000000000000000000000000000000602082015290506135e5565b60208082528101610c09816137f6565b60168152602081017f526566756e6420706572696f64206e6f74206f70656e00000000000000000000815290506132f5565b60208082528101610c098161385e565b60168152602081017f436f2d426f747320617265206d696e746564206f757400000000000000000000815290506132f5565b60208082528101610c09816138a0565b60148152602081017f4e6f20436f2d426f747320746f20726566756e64000000000000000000000000815290506132f5565b60208082528101610c09816138e2565b60318152602081017f5175616e74697479206578636565647320666f756e6465727320616e6420676981527f7665617761797320616c6c6f77616e6365000000000000000000000000000000602082015290506135e5565b60208082528101610c0981613924565b60278152602081017f4552433732313a2055524920717565727920666f72206e6f6e6578697374656e81527f7420746f6b656e00000000000000000000000000000000000000000000000000602082015290506135e5565b60208082528101610c098161398c565b60808101613a028287612e83565b613a0f6020830186612d3a565b613a1c6040830185612d22565b613a296060830184612d22565b95945050505050565b6000613a40612f498461313b565b905082815260208101848484011115613a5b57613a5b600080fd5b6131a6848285612d51565b600082601f830112613a7a57613a7a600080fd5b8151612ace848260208601613a32565b600060208284031215613a9f57613a9f600080fd5b815167ffffffffffffffff811115613ab957613ab9600080fd5b612ace84828501613a66565b6000610c0982612df2565b612ceb81613ac5565b8051610c0981613ad0565b600060208284031215613af957613af9600080fd5b6000612ace8484613ad9565b60268152602081017f4f776e61626c653a206e6577206f776e657220697320746865207a65726f206181527f6464726573730000000000000000000000000000000000000000000000000000602082015290506135e5565b60208082528101610c0981613b05565b634e487b7160e01b600052601260045260246000fd5b600082613b9257613b92613b6d565b500690565b60108152602081017f5472616e73666572206661696c65642e00000000000000000000000000000000815290506132f5565b60208082528101610c0981613b97565b60258152602081017f546f6f206d616e7920436f2d426f747320746f206d696e7420696e206f6e652081527f6261746368000000000000000000000000000000000000000000000000000000602082015290506135e5565b60208082528101610c0981613bd9565b6000610c098260601b90565b6000610c0982613c41565b612d26613c6482612df2565b613c4d565b613c738187612e83565b602001613c808186613c58565b601401613c8d8185612e83565b602001613c9a8184612e83565b602001613ca78183612e83565b60200195945050505050565b600082821015613cc557613cc561338f565b500390565b60808101613cd88287612e03565b613ce56020830186612e03565b613cf26040830185612e83565b81810360608301526135008184612d7d565b8051610c0981612cdf565b600060208284031215613d2457613d24600080fd5b6000612ace8484613d0456fea26469706673582212201e9a6da1789f20922cdaced13b9eca296e3342423c0233cf55bbcca54ba10ed864736f6c634300080c0033",
  "devdoc": {
    "kind": "dev",
    "methods": {
      "approve(address,uint256)": {
        "details": "See {IERC721-approve}."
      },
      "balanceOf(address)": {
        "details": "See {IERC721-balanceOf}."
      },
      "getApproved(uint256)": {
        "details": "See {IERC721-getApproved}."
      },
      "isApprovedForAll(address,address)": {
        "details": "Modified for opensea and looksrare pre-approve."
      },
      "name()": {
        "details": "See {IERC721Metadata-name}."
      },
      "owner()": {
        "details": "Returns the address of the current owner."
      },
      "ownerOf(uint256)": {
        "details": "See {IERC721-ownerOf}."
      },
      "renounceOwnership()": {
        "details": "Leaves the contract without owner. It will not be possible to call `onlyOwner` functions anymore. Can only be called by the current owner. NOTE: Renouncing ownership will leave the contract without an owner, thereby removing any functionality that is only available to the owner."
      },
      "safeTransferFrom(address,address,uint256)": {
        "details": "See {IERC721-safeTransferFrom}."
      },
      "safeTransferFrom(address,address,uint256,bytes)": {
        "details": "See {IERC721-safeTransferFrom}."
      },
      "setApprovalForAll(address,bool)": {
        "details": "See {IERC721-setApprovalForAll}."
      },
      "supportsInterface(bytes4)": {
        "details": "See {IERC165-supportsInterface}."
      },
      "symbol()": {
        "details": "See {IERC721Metadata-symbol}."
      },
      "tokenByIndex(uint256)": {
        "details": "See {IERC721Enumerable-tokenByIndex}. This read function is O(totalSupply). If calling from a separate contract, be sure to test gas first. It may also degrade with extremely large collection sizes (e.g >> 10000), test for your use case."
      },
      "tokenOfOwnerByIndex(address,uint256)": {
        "details": "See {IERC721Enumerable-tokenOfOwnerByIndex}. This read function is O(totalSupply). If calling from a separate contract, be sure to test gas first. It may also degrade with extremely large collection sizes (e.g >> 10000), test for your use case."
      },
      "totalSupply()": {
        "details": "See {IERC721Enumerable-totalSupply}."
      },
      "transferFrom(address,address,uint256)": {
        "details": "See {IERC721-transferFrom}."
      },
      "transferOwnership(address)": {
        "details": "Transfers ownership of the contract to a new account (`newOwner`). Can only be called by the current owner."
      }
    },
    "version": 1
  },
  "userdoc": {
    "kind": "user",
    "methods": {
      "flipProxyState(address)": {
        "notice": "Approve the communication and interaction with cross-collection interactions."
      },
      "setLooksrare(address)": {
        "notice": "Set looksrare to `looksrare_`."
      },
      "setOpensea(address)": {
        "notice": "Set opensea to `opensea_`."
      }
    },
    "version": 1
  },
  "storageLayout": {
    "storage": [
      {
        "astId": 4271,
        "contract": "contracts/co-bots/CoBots.sol:CoBots",
        "label": "_currentIndex",
        "offset": 0,
        "slot": "0",
        "type": "t_uint128"
      },
      {
        "astId": 4273,
        "contract": "contracts/co-bots/CoBots.sol:CoBots",
        "label": "_burnCounter",
        "offset": 16,
        "slot": "0",
        "type": "t_uint128"
      },
      {
        "astId": 4275,
        "contract": "contracts/co-bots/CoBots.sol:CoBots",
        "label": "_name",
        "offset": 0,
        "slot": "1",
        "type": "t_string_storage"
      },
      {
        "astId": 4277,
        "contract": "contracts/co-bots/CoBots.sol:CoBots",
        "label": "_symbol",
        "offset": 0,
        "slot": "2",
        "type": "t_string_storage"
      },
      {
        "astId": 4282,
        "contract": "contracts/co-bots/CoBots.sol:CoBots",
        "label": "_ownerships",
        "offset": 0,
        "slot": "3",
        "type": "t_mapping(t_uint256,t_struct(TokenOwnership)4262_storage)"
      },
      {
        "astId": 4287,
        "contract": "contracts/co-bots/CoBots.sol:CoBots",
        "label": "_addressData",
        "offset": 0,
        "slot": "4",
        "type": "t_mapping(t_address,t_struct(AddressData)4269_storage)"
      },
      {
        "astId": 4291,
        "contract": "contracts/co-bots/CoBots.sol:CoBots",
        "label": "_tokenApprovals",
        "offset": 0,
        "slot": "5",
        "type": "t_mapping(t_uint256,t_address)"
      },
      {
        "astId": 4297,
        "contract": "contracts/co-bots/CoBots.sol:CoBots",
        "label": "_operatorApprovals",
        "offset": 0,
        "slot": "6",
        "type": "t_mapping(t_address,t_mapping(t_address,t_bool))"
      },
      {
        "astId": 467,
        "contract": "contracts/co-bots/CoBots.sol:CoBots",
        "label": "_owner",
        "offset": 0,
        "slot": "7",
        "type": "t_address"
      },
      {
        "astId": 575,
        "contract": "contracts/co-bots/CoBots.sol:CoBots",
        "label": "_status",
        "offset": 0,
        "slot": "8",
        "type": "t_uint256"
      },
      {
        "astId": 1419,
        "contract": "contracts/co-bots/CoBots.sol:CoBots",
        "label": "coBotsSeeds",
        "offset": 0,
        "slot": "9",
        "type": "t_array(t_uint8)10000_storage"
      },
      {
        "astId": 1423,
        "contract": "contracts/co-bots/CoBots.sol:CoBots",
        "label": "coBotsStatusDisabled",
        "offset": 0,
        "slot": "322",
        "type": "t_array(t_bool)10000_storage"
      },
      {
        "astId": 1427,
        "contract": "contracts/co-bots/CoBots.sol:CoBots",
        "label": "coBotsColors",
        "offset": 0,
        "slot": "635",
        "type": "t_array(t_bool)10000_storage"
      },
      {
        "astId": 1431,
        "contract": "contracts/co-bots/CoBots.sol:CoBots",
        "label": "coBotsRefunded",
        "offset": 0,
        "slot": "948",
        "type": "t_array(t_bool)10000_storage"
      },
      {
        "astId": 1434,
        "contract": "contracts/co-bots/CoBots.sol:CoBots",
        "label": "coBotsColorAgreement",
        "offset": 0,
        "slot": "1261",
        "type": "t_uint16"
      },
      {
        "astId": 1436,
        "contract": "contracts/co-bots/CoBots.sol:CoBots",
        "label": "publicSaleStartTimestamp",
        "offset": 0,
        "slot": "1262",
        "type": "t_uint256"
      },
      {
        "astId": 1524,
        "contract": "contracts/co-bots/CoBots.sol:CoBots",
        "label": "opensea",
        "offset": 0,
        "slot": "1263",
        "type": "t_address"
      },
      {
        "astId": 1526,
        "contract": "contracts/co-bots/CoBots.sol:CoBots",
        "label": "looksrare",
        "offset": 0,
        "slot": "1264",
        "type": "t_address"
      },
      {
        "astId": 1530,
        "contract": "contracts/co-bots/CoBots.sol:CoBots",
        "label": "proxyToApproved",
        "offset": 0,
        "slot": "1265",
        "type": "t_mapping(t_address,t_bool)"
      },
      {
        "astId": 1615,
        "contract": "contracts/co-bots/CoBots.sol:CoBots",
        "label": "renderingContractAddress",
        "offset": 0,
        "slot": "1266",
        "type": "t_address"
      },
      {
        "astId": 1618,
        "contract": "contracts/co-bots/CoBots.sol:CoBots",
        "label": "renderer",
        "offset": 0,
        "slot": "1267",
        "type": "t_contract(ICoBotsRenderer)3911"
      },
      {
        "astId": 2177,
        "contract": "contracts/co-bots/CoBots.sol:CoBots",
        "label": "COORDINATOR",
        "offset": 0,
        "slot": "1268",
        "type": "t_contract(VRFCoordinatorV2Interface)459"
      },
      {
        "astId": 2180,
        "contract": "contracts/co-bots/CoBots.sol:CoBots",
        "label": "LINKTOKEN",
        "offset": 0,
        "slot": "1269",
        "type": "t_contract(LinkTokenInterface)370"
      },
      {
        "astId": 2182,
        "contract": "contracts/co-bots/CoBots.sol:CoBots",
        "label": "s_subscriptionId",
        "offset": 20,
        "slot": "1269",
        "type": "t_uint64"
      },
      {
        "astId": 2184,
        "contract": "contracts/co-bots/CoBots.sol:CoBots",
        "label": "gasKeyHash",
        "offset": 0,
        "slot": "1270",
        "type": "t_bytes32"
      },
      {
        "astId": 2186,
        "contract": "contracts/co-bots/CoBots.sol:CoBots",
        "label": "lastDrawTimestamp",
        "offset": 0,
        "slot": "1271",
        "type": "t_uint256"
      },
      {
        "astId": 2190,
        "contract": "contracts/co-bots/CoBots.sol:CoBots",
        "label": "prizePerAddress",
        "offset": 0,
        "slot": "1272",
        "type": "t_mapping(t_address,t_uint256)"
      },
      {
        "astId": 2194,
        "contract": "contracts/co-bots/CoBots.sol:CoBots",
        "label": "prizePerDraw",
        "offset": 0,
        "slot": "1273",
        "type": "t_mapping(t_uint256,t_uint256)"
      },
      {
        "astId": 2196,
        "contract": "contracts/co-bots/CoBots.sol:CoBots",
        "label": "drawCount",
        "offset": 0,
        "slot": "1274",
        "type": "t_uint16"
      },
      {
        "astId": 2198,
        "contract": "contracts/co-bots/CoBots.sol:CoBots",
        "label": "cooperativeRaffleEnabled",
        "offset": 2,
        "slot": "1274",
        "type": "t_bool"
      }
    ],
    "types": {
      "t_address": {
        "encoding": "inplace",
        "label": "address",
        "numberOfBytes": "20"
      },
      "t_array(t_bool)10000_storage": {
        "base": "t_bool",
        "encoding": "inplace",
        "label": "bool[10000]",
        "numberOfBytes": "10016"
      },
      "t_array(t_uint8)10000_storage": {
        "base": "t_uint8",
        "encoding": "inplace",
        "label": "uint8[10000]",
        "numberOfBytes": "10016"
      },
      "t_bool": {
        "encoding": "inplace",
        "label": "bool",
        "numberOfBytes": "1"
      },
      "t_bytes32": {
        "encoding": "inplace",
        "label": "bytes32",
        "numberOfBytes": "32"
      },
      "t_contract(ICoBotsRenderer)3911": {
        "encoding": "inplace",
        "label": "contract ICoBotsRenderer",
        "numberOfBytes": "20"
      },
      "t_contract(LinkTokenInterface)370": {
        "encoding": "inplace",
        "label": "contract LinkTokenInterface",
        "numberOfBytes": "20"
      },
      "t_contract(VRFCoordinatorV2Interface)459": {
        "encoding": "inplace",
        "label": "contract VRFCoordinatorV2Interface",
        "numberOfBytes": "20"
      },
      "t_mapping(t_address,t_bool)": {
        "encoding": "mapping",
        "key": "t_address",
        "label": "mapping(address => bool)",
        "numberOfBytes": "32",
        "value": "t_bool"
      },
      "t_mapping(t_address,t_mapping(t_address,t_bool))": {
        "encoding": "mapping",
        "key": "t_address",
        "label": "mapping(address => mapping(address => bool))",
        "numberOfBytes": "32",
        "value": "t_mapping(t_address,t_bool)"
      },
      "t_mapping(t_address,t_struct(AddressData)4269_storage)": {
        "encoding": "mapping",
        "key": "t_address",
        "label": "mapping(address => struct ERC721A.AddressData)",
        "numberOfBytes": "32",
        "value": "t_struct(AddressData)4269_storage"
      },
      "t_mapping(t_address,t_uint256)": {
        "encoding": "mapping",
        "key": "t_address",
        "label": "mapping(address => uint256)",
        "numberOfBytes": "32",
        "value": "t_uint256"
      },
      "t_mapping(t_uint256,t_address)": {
        "encoding": "mapping",
        "key": "t_uint256",
        "label": "mapping(uint256 => address)",
        "numberOfBytes": "32",
        "value": "t_address"
      },
      "t_mapping(t_uint256,t_struct(TokenOwnership)4262_storage)": {
        "encoding": "mapping",
        "key": "t_uint256",
        "label": "mapping(uint256 => struct ERC721A.TokenOwnership)",
        "numberOfBytes": "32",
        "value": "t_struct(TokenOwnership)4262_storage"
      },
      "t_mapping(t_uint256,t_uint256)": {
        "encoding": "mapping",
        "key": "t_uint256",
        "label": "mapping(uint256 => uint256)",
        "numberOfBytes": "32",
        "value": "t_uint256"
      },
      "t_string_storage": {
        "encoding": "bytes",
        "label": "string",
        "numberOfBytes": "32"
      },
      "t_struct(AddressData)4269_storage": {
        "encoding": "inplace",
        "label": "struct ERC721A.AddressData",
        "members": [
          {
            "astId": 4264,
            "contract": "contracts/co-bots/CoBots.sol:CoBots",
            "label": "balance",
            "offset": 0,
            "slot": "0",
            "type": "t_uint64"
          },
          {
            "astId": 4266,
            "contract": "contracts/co-bots/CoBots.sol:CoBots",
            "label": "numberMinted",
            "offset": 8,
            "slot": "0",
            "type": "t_uint64"
          },
          {
            "astId": 4268,
            "contract": "contracts/co-bots/CoBots.sol:CoBots",
            "label": "numberBurned",
            "offset": 16,
            "slot": "0",
            "type": "t_uint64"
          }
        ],
        "numberOfBytes": "32"
      },
      "t_struct(TokenOwnership)4262_storage": {
        "encoding": "inplace",
        "label": "struct ERC721A.TokenOwnership",
        "members": [
          {
            "astId": 4257,
            "contract": "contracts/co-bots/CoBots.sol:CoBots",
            "label": "addr",
            "offset": 0,
            "slot": "0",
            "type": "t_address"
          },
          {
            "astId": 4259,
            "contract": "contracts/co-bots/CoBots.sol:CoBots",
            "label": "startTimestamp",
            "offset": 20,
            "slot": "0",
            "type": "t_uint64"
          },
          {
            "astId": 4261,
            "contract": "contracts/co-bots/CoBots.sol:CoBots",
            "label": "burned",
            "offset": 28,
            "slot": "0",
            "type": "t_bool"
          }
        ],
        "numberOfBytes": "32"
      },
      "t_uint128": {
        "encoding": "inplace",
        "label": "uint128",
        "numberOfBytes": "16"
      },
      "t_uint16": {
        "encoding": "inplace",
        "label": "uint16",
        "numberOfBytes": "2"
      },
      "t_uint256": {
        "encoding": "inplace",
        "label": "uint256",
        "numberOfBytes": "32"
      },
      "t_uint64": {
        "encoding": "inplace",
        "label": "uint64",
        "numberOfBytes": "8"
      },
      "t_uint8": {
        "encoding": "inplace",
        "label": "uint8",
        "numberOfBytes": "1"
      }
    }
  }
}