{
  "address": "0xc9A489180Add3d7C4b6518EE253CC22e94bcfC03",
  "abi": [
    {
      "inputs": [
        {
          "internalType": "string",
          "name": "name_",
          "type": "string"
        },
        {
          "internalType": "string",
          "name": "symbol_",
          "type": "string"
        },
        {
          "internalType": "address",
          "name": "_rendererAddress",
          "type": "address"
        },
        {
          "internalType": "address",
          "name": "_opensea",
          "type": "address"
        },
        {
          "internalType": "address",
          "name": "_looksrare",
          "type": "address"
        },
        {
          "internalType": "uint64",
          "name": "subscriptionId",
          "type": "uint64"
        },
        {
          "internalType": "address",
          "name": "vrfCoordinator",
          "type": "address"
        },
        {
          "internalType": "address",
          "name": "link",
          "type": "address"
        },
        {
          "internalType": "bytes32",
          "name": "keyHash",
          "type": "bytes32"
        }
      ],
      "stateMutability": "nonpayable",
      "type": "constructor"
    },
    {
      "inputs": [],
      "name": "ApprovalCallerNotOwnerNorApproved",
      "type": "error"
    },
    {
      "inputs": [],
      "name": "ApprovalQueryForNonexistentToken",
      "type": "error"
    },
    {
      "inputs": [],
      "name": "ApprovalToCurrentOwner",
      "type": "error"
    },
    {
      "inputs": [],
      "name": "ApproveToCaller",
      "type": "error"
    },
    {
      "inputs": [],
      "name": "BalanceQueryForZeroAddress",
      "type": "error"
    },
    {
      "inputs": [],
      "name": "MintToZeroAddress",
      "type": "error"
    },
    {
      "inputs": [],
      "name": "MintZeroQuantity",
      "type": "error"
    },
    {
      "inputs": [
        {
          "internalType": "address",
          "name": "have",
          "type": "address"
        },
        {
          "internalType": "address",
          "name": "want",
          "type": "address"
        }
      ],
      "name": "OnlyCoordinatorCanFulfill",
      "type": "error"
    },
    {
      "inputs": [],
      "name": "OwnerIndexOutOfBounds",
      "type": "error"
    },
    {
      "inputs": [],
      "name": "OwnerQueryForNonexistentToken",
      "type": "error"
    },
    {
      "inputs": [],
      "name": "TokenIndexOutOfBounds",
      "type": "error"
    },
    {
      "inputs": [],
      "name": "TransferCallerNotOwnerNorApproved",
      "type": "error"
    },
    {
      "inputs": [],
      "name": "TransferFromIncorrectOwner",
      "type": "error"
    },
    {
      "inputs": [],
      "name": "TransferToNonERC721ReceiverImplementer",
      "type": "error"
    },
    {
      "inputs": [],
      "name": "TransferToZeroAddress",
      "type": "error"
    },
    {
      "anonymous": false,
      "inputs": [
        {
          "indexed": true,
          "internalType": "address",
          "name": "owner",
          "type": "address"
        },
        {
          "indexed": true,
          "internalType": "address",
          "name": "approved",
          "type": "address"
        },
        {
          "indexed": true,
          "internalType": "uint256",
          "name": "tokenId",
          "type": "uint256"
        }
      ],
      "name": "Approval",
      "type": "event"
    },
    {
      "anonymous": false,
      "inputs": [
        {
          "indexed": true,
          "internalType": "address",
          "name": "owner",
          "type": "address"
        },
        {
          "indexed": true,
          "internalType": "address",
          "name": "operator",
          "type": "address"
        },
        {
          "indexed": false,
          "internalType": "bool",
          "name": "approved",
          "type": "bool"
        }
      ],
      "name": "ApprovalForAll",
      "type": "event"
    },
    {
      "anonymous": false,
      "inputs": [
        {
          "indexed": true,
          "internalType": "address",
          "name": "previousOwner",
          "type": "address"
        },
        {
          "indexed": true,
          "internalType": "address",
          "name": "newOwner",
          "type": "address"
        }
      ],
      "name": "OwnershipTransferred",
      "type": "event"
    },
    {
      "anonymous": false,
      "inputs": [
        {
          "indexed": true,
          "internalType": "address",
          "name": "from",
          "type": "address"
        },
        {
          "indexed": true,
          "internalType": "address",
          "name": "to",
          "type": "address"
        },
        {
          "indexed": true,
          "internalType": "uint256",
          "name": "tokenId",
          "type": "uint256"
        }
      ],
      "name": "Transfer",
      "type": "event"
    },
    {
      "inputs": [],
      "name": "COBOTS_MINT_DURATION",
      "outputs": [
        {
          "internalType": "uint256",
          "name": "",
          "type": "uint256"
        }
      ],
      "stateMutability": "view",
      "type": "function"
    },
    {
      "inputs": [],
      "name": "COBOTS_MINT_RAFFLE_DELAY",
      "outputs": [
        {
          "internalType": "uint256",
          "name": "",
          "type": "uint256"
        }
      ],
      "stateMutability": "view",
      "type": "function"
    },
    {
      "inputs": [],
      "name": "COBOTS_REFUND_DURATION",
      "outputs": [
        {
          "internalType": "uint256",
          "name": "",
          "type": "uint256"
        }
      ],
      "stateMutability": "view",
      "type": "function"
    },
    {
      "inputs": [],
      "name": "COORDINATION_RAFFLE_PRIZE",
      "outputs": [
        {
          "internalType": "uint256",
          "name": "",
          "type": "uint256"
        }
      ],
      "stateMutability": "view",
      "type": "function"
    },
    {
      "inputs": [],
      "name": "COORDINATION_RAFFLE_THRESHOLD",
      "outputs": [
        {
          "internalType": "uint16",
          "name": "",
          "type": "uint16"
        }
      ],
      "stateMutability": "view",
      "type": "function"
    },
    {
      "inputs": [],
      "name": "COORDINATION_RAFFLE_WINNERS_COUNT",
      "outputs": [
        {
          "internalType": "uint8",
          "name": "",
          "type": "uint8"
        }
      ],
      "stateMutability": "view",
      "type": "function"
    },
    {
      "inputs": [],
      "name": "MAIN_RAFFLE_PRIZE",
      "outputs": [
        {
          "internalType": "uint256",
          "name": "",
          "type": "uint256"
        }
      ],
      "stateMutability": "view",
      "type": "function"
    },
    {
      "inputs": [],
      "name": "MAIN_RAFFLE_WINNERS_COUNT",
      "outputs": [
        {
          "internalType": "uint8",
          "name": "",
          "type": "uint8"
        }
      ],
      "stateMutability": "view",
      "type": "function"
    },
    {
      "inputs": [],
      "name": "MAX_COBOTS",
      "outputs": [
        {
          "internalType": "uint256",
          "name": "",
          "type": "uint256"
        }
      ],
      "stateMutability": "view",
      "type": "function"
    },
    {
      "inputs": [],
      "name": "MAX_MINT_PER_ADDRESS",
      "outputs": [
        {
          "internalType": "uint8",
          "name": "",
          "type": "uint8"
        }
      ],
      "stateMutability": "view",
      "type": "function"
    },
    {
      "inputs": [],
      "name": "MINT_FOUNDERS_AND_GIVEAWAYS",
      "outputs": [
        {
          "internalType": "uint8",
          "name": "",
          "type": "uint8"
        }
      ],
      "stateMutability": "view",
      "type": "function"
    },
    {
      "inputs": [],
      "name": "MINT_GIVEAWAYS",
      "outputs": [
        {
          "internalType": "uint8",
          "name": "",
          "type": "uint8"
        }
      ],
      "stateMutability": "view",
      "type": "function"
    },
    {
      "inputs": [],
      "name": "MINT_PUBLIC_PRICE",
      "outputs": [
        {
          "internalType": "uint256",
          "name": "",
          "type": "uint256"
        }
      ],
      "stateMutability": "view",
      "type": "function"
    },
    {
      "inputs": [
        {
          "internalType": "address",
          "name": "to",
          "type": "address"
        },
        {
          "internalType": "uint256",
          "name": "tokenId",
          "type": "uint256"
        }
      ],
      "name": "approve",
      "outputs": [],
      "stateMutability": "nonpayable",
      "type": "function"
    },
    {
      "inputs": [
        {
          "internalType": "address",
          "name": "owner",
          "type": "address"
        }
      ],
      "name": "balanceOf",
      "outputs": [
        {
          "internalType": "uint256",
          "name": "",
          "type": "uint256"
        }
      ],
      "stateMutability": "view",
      "type": "function"
    },
    {
      "inputs": [],
      "name": "claimRefund",
      "outputs": [],
      "stateMutability": "nonpayable",
      "type": "function"
    },
    {
      "inputs": [],
      "name": "coBotsColorAgreement",
      "outputs": [
        {
          "internalType": "uint16",
          "name": "",
          "type": "uint16"
        }
      ],
      "stateMutability": "view",
      "type": "function"
    },
    {
      "inputs": [
        {
          "internalType": "uint256",
          "name": "",
          "type": "uint256"
        }
      ],
      "name": "coBotsColors",
      "outputs": [
        {
          "internalType": "bool",
          "name": "",
          "type": "bool"
        }
      ],
      "stateMutability": "view",
      "type": "function"
    },
    {
      "inputs": [
        {
          "internalType": "uint256",
          "name": "",
          "type": "uint256"
        }
      ],
      "name": "coBotsRefunded",
      "outputs": [
        {
          "internalType": "bool",
          "name": "",
          "type": "bool"
        }
      ],
      "stateMutability": "view",
      "type": "function"
    },
    {
      "inputs": [
        {
          "internalType": "uint256",
          "name": "",
          "type": "uint256"
        }
      ],
      "name": "coBotsSeeds",
      "outputs": [
        {
          "internalType": "uint8",
          "name": "",
          "type": "uint8"
        }
      ],
      "stateMutability": "view",
      "type": "function"
    },
    {
      "inputs": [
        {
          "internalType": "uint256",
          "name": "",
          "type": "uint256"
        }
      ],
      "name": "coBotsStatusDisabled",
      "outputs": [
        {
          "internalType": "bool",
          "name": "",
          "type": "bool"
        }
      ],
      "stateMutability": "view",
      "type": "function"
    },
    {
      "inputs": [],
      "name": "cooperativeRaffleEnabled",
      "outputs": [
        {
          "internalType": "bool",
          "name": "",
          "type": "bool"
        }
      ],
      "stateMutability": "view",
      "type": "function"
    },
    {
      "inputs": [],
      "name": "currentPrizeMoney",
      "outputs": [
        {
          "internalType": "uint256",
          "name": "",
          "type": "uint256"
        }
      ],
      "stateMutability": "view",
      "type": "function"
    },
    {
      "inputs": [],
      "name": "draw",
      "outputs": [],
      "stateMutability": "nonpayable",
      "type": "function"
    },
    {
      "inputs": [],
      "name": "drawCount",
      "outputs": [
        {
          "internalType": "uint16",
          "name": "",
          "type": "uint16"
        }
      ],
      "stateMutability": "view",
      "type": "function"
    },
    {
      "inputs": [
        {
          "internalType": "uint256",
          "name": "_tokenId",
          "type": "uint256"
        }
      ],
      "name": "exists",
      "outputs": [
        {
          "internalType": "bool",
          "name": "",
          "type": "bool"
        }
      ],
      "stateMutability": "view",
      "type": "function"
    },
    {
      "inputs": [
        {
          "internalType": "address",
          "name": "proxyAddress",
          "type": "address"
        }
      ],
      "name": "flipProxyState",
      "outputs": [],
      "stateMutability": "nonpayable",
      "type": "function"
    },
    {
      "inputs": [
        {
          "internalType": "uint256",
          "name": "tokenId",
          "type": "uint256"
        }
      ],
      "name": "getApproved",
      "outputs": [
        {
          "internalType": "address",
          "name": "",
          "type": "address"
        }
      ],
      "stateMutability": "view",
      "type": "function"
    },
    {
      "inputs": [
        {
          "internalType": "address",
          "name": "owner",
          "type": "address"
        },
        {
          "internalType": "address",
          "name": "operator",
          "type": "address"
        }
      ],
      "name": "isApprovedForAll",
      "outputs": [
        {
          "internalType": "bool",
          "name": "",
          "type": "bool"
        }
      ],
      "stateMutability": "view",
      "type": "function"
    },
    {
      "inputs": [],
      "name": "isDrawOpen",
      "outputs": [
        {
          "internalType": "bool",
          "name": "",
          "type": "bool"
        }
      ],
      "stateMutability": "view",
      "type": "function"
    },
    {
      "inputs": [],
      "name": "isMintedOut",
      "outputs": [
        {
          "internalType": "bool",
          "name": "",
          "type": "bool"
        }
      ],
      "stateMutability": "view",
      "type": "function"
    },
    {
      "inputs": [],
      "name": "isPublicSaleOpen",
      "outputs": [
        {
          "internalType": "bool",
          "name": "",
          "type": "bool"
        }
      ],
      "stateMutability": "view",
      "type": "function"
    },
    {
      "inputs": [],
      "name": "lastDrawTimestamp",
      "outputs": [
        {
          "internalType": "uint256",
          "name": "",
          "type": "uint256"
        }
      ],
      "stateMutability": "view",
      "type": "function"
    },
    {
      "inputs": [],
      "name": "looksrare",
      "outputs": [
        {
          "internalType": "address",
          "name": "",
          "type": "address"
        }
      ],
      "stateMutability": "view",
      "type": "function"
    },
    {
      "inputs": [
        {
          "internalType": "address",
          "name": "to",
          "type": "address"
        },
        {
          "internalType": "uint256",
          "name": "quantity",
          "type": "uint256"
        }
      ],
      "name": "mintFoundersAndGiveaways",
      "outputs": [],
      "stateMutability": "nonpayable",
      "type": "function"
    },
    {
      "inputs": [
        {
          "internalType": "uint256",
          "name": "quantity",
          "type": "uint256"
        }
      ],
      "name": "mintPublicSale",
      "outputs": [],
      "stateMutability": "payable",
      "type": "function"
    },
    {
      "inputs": [],
      "name": "name",
      "outputs": [
        {
          "internalType": "string",
          "name": "",
          "type": "string"
        }
      ],
      "stateMutability": "view",
      "type": "function"
    },
    {
      "inputs": [],
      "name": "opensea",
      "outputs": [
        {
          "internalType": "address",
          "name": "",
          "type": "address"
        }
      ],
      "stateMutability": "view",
      "type": "function"
    },
    {
      "inputs": [],
      "name": "owner",
      "outputs": [
        {
          "internalType": "address",
          "name": "",
          "type": "address"
        }
      ],
      "stateMutability": "view",
      "type": "function"
    },
    {
      "inputs": [
        {
          "internalType": "uint256",
          "name": "tokenId",
          "type": "uint256"
        }
      ],
      "name": "ownerOf",
      "outputs": [
        {
          "internalType": "address",
          "name": "",
          "type": "address"
        }
      ],
      "stateMutability": "view",
      "type": "function"
    },
    {
      "inputs": [
        {
          "internalType": "address",
          "name": "",
          "type": "address"
        }
      ],
      "name": "prizePerAddress",
      "outputs": [
        {
          "internalType": "uint256",
          "name": "",
          "type": "uint256"
        }
      ],
      "stateMutability": "view",
      "type": "function"
    },
    {
      "inputs": [],
      "name": "publicSaleStartTimestamp",
      "outputs": [
        {
          "internalType": "uint256",
          "name": "",
          "type": "uint256"
        }
      ],
      "stateMutability": "view",
      "type": "function"
    },
    {
      "inputs": [
        {
          "internalType": "uint256",
          "name": "requestId",
          "type": "uint256"
        },
        {
          "internalType": "uint256[]",
          "name": "randomWords",
          "type": "uint256[]"
        }
      ],
      "name": "rawFulfillRandomWords",
      "outputs": [],
      "stateMutability": "nonpayable",
      "type": "function"
    },
    {
      "inputs": [],
      "name": "renderingContractAddress",
      "outputs": [
        {
          "internalType": "address",
          "name": "",
          "type": "address"
        }
      ],
      "stateMutability": "view",
      "type": "function"
    },
    {
      "inputs": [],
      "name": "renounceOwnership",
      "outputs": [],
      "stateMutability": "nonpayable",
      "type": "function"
    },
    {
      "inputs": [],
      "name": "s_requestId",
      "outputs": [
        {
          "internalType": "uint256",
          "name": "",
          "type": "uint256"
        }
      ],
      "stateMutability": "view",
      "type": "function"
    },
    {
      "inputs": [
        {
          "internalType": "address",
          "name": "from",
          "type": "address"
        },
        {
          "internalType": "address",
          "name": "to",
          "type": "address"
        },
        {
          "internalType": "uint256",
          "name": "tokenId",
          "type": "uint256"
        }
      ],
      "name": "safeTransferFrom",
      "outputs": [],
      "stateMutability": "nonpayable",
      "type": "function"
    },
    {
      "inputs": [
        {
          "internalType": "address",
          "name": "from",
          "type": "address"
        },
        {
          "internalType": "address",
          "name": "to",
          "type": "address"
        },
        {
          "internalType": "uint256",
          "name": "tokenId",
          "type": "uint256"
        },
        {
          "internalType": "bytes",
          "name": "_data",
          "type": "bytes"
        }
      ],
      "name": "safeTransferFrom",
      "outputs": [],
      "stateMutability": "nonpayable",
      "type": "function"
    },
    {
      "inputs": [
        {
          "internalType": "address",
          "name": "operator",
          "type": "address"
        },
        {
          "internalType": "bool",
          "name": "approved",
          "type": "bool"
        }
      ],
      "name": "setApprovalForAll",
      "outputs": [],
      "stateMutability": "nonpayable",
      "type": "function"
    },
    {
      "inputs": [
        {
          "internalType": "address",
          "name": "looksrare_",
          "type": "address"
        }
      ],
      "name": "setLooksrare",
      "outputs": [],
      "stateMutability": "nonpayable",
      "type": "function"
    },
    {
      "inputs": [
        {
          "internalType": "address",
          "name": "opensea_",
          "type": "address"
        }
      ],
      "name": "setOpensea",
      "outputs": [],
      "stateMutability": "nonpayable",
      "type": "function"
    },
    {
      "inputs": [
        {
          "internalType": "uint256",
          "name": "timestamp",
          "type": "uint256"
        }
      ],
      "name": "setPublicSaleTimestamp",
      "outputs": [],
      "stateMutability": "nonpayable",
      "type": "function"
    },
    {
      "inputs": [
        {
          "internalType": "address",
          "name": "_renderingContractAddress",
          "type": "address"
        }
      ],
      "name": "setRenderingContractAddress",
      "outputs": [],
      "stateMutability": "nonpayable",
      "type": "function"
    },
    {
      "inputs": [
        {
          "internalType": "bytes4",
          "name": "interfaceId",
          "type": "bytes4"
        }
      ],
      "name": "supportsInterface",
      "outputs": [
        {
          "internalType": "bool",
          "name": "",
          "type": "bool"
        }
      ],
      "stateMutability": "view",
      "type": "function"
    },
    {
      "inputs": [],
      "name": "symbol",
      "outputs": [
        {
          "internalType": "string",
          "name": "",
          "type": "string"
        }
      ],
      "stateMutability": "view",
      "type": "function"
    },
    {
      "inputs": [
        {
          "internalType": "uint256",
          "name": "tokenId",
          "type": "uint256"
        }
      ],
      "name": "toggleColor",
      "outputs": [],
      "stateMutability": "nonpayable",
      "type": "function"
    },
    {
      "inputs": [
        {
          "internalType": "uint256[]",
          "name": "tokenIds",
          "type": "uint256[]"
        }
      ],
      "name": "toggleColors",
      "outputs": [],
      "stateMutability": "nonpayable",
      "type": "function"
    },
    {
      "inputs": [
        {
          "internalType": "uint256",
          "name": "tokenId",
          "type": "uint256"
        }
      ],
      "name": "toggleStatus",
      "outputs": [],
      "stateMutability": "nonpayable",
      "type": "function"
    },
    {
      "inputs": [
        {
          "internalType": "uint256[]",
          "name": "tokenIds",
          "type": "uint256[]"
        }
      ],
      "name": "toggleStatuses",
      "outputs": [],
      "stateMutability": "nonpayable",
      "type": "function"
    },
    {
      "inputs": [
        {
          "internalType": "uint256",
          "name": "index",
          "type": "uint256"
        }
      ],
      "name": "tokenByIndex",
      "outputs": [
        {
          "internalType": "uint256",
          "name": "",
          "type": "uint256"
        }
      ],
      "stateMutability": "view",
      "type": "function"
    },
    {
      "inputs": [
        {
          "internalType": "address",
          "name": "owner",
          "type": "address"
        },
        {
          "internalType": "uint256",
          "name": "index",
          "type": "uint256"
        }
      ],
      "name": "tokenOfOwnerByIndex",
      "outputs": [
        {
          "internalType": "uint256",
          "name": "",
          "type": "uint256"
        }
      ],
      "stateMutability": "view",
      "type": "function"
    },
    {
      "inputs": [
        {
          "internalType": "uint256",
          "name": "_tokenId",
          "type": "uint256"
        }
      ],
      "name": "tokenURI",
      "outputs": [
        {
          "internalType": "string",
          "name": "",
          "type": "string"
        }
      ],
      "stateMutability": "view",
      "type": "function"
    },
    {
      "inputs": [],
      "name": "totalSupply",
      "outputs": [
        {
          "internalType": "uint256",
          "name": "",
          "type": "uint256"
        }
      ],
      "stateMutability": "view",
      "type": "function"
    },
    {
      "inputs": [
        {
          "internalType": "address",
          "name": "from",
          "type": "address"
        },
        {
          "internalType": "address",
          "name": "to",
          "type": "address"
        },
        {
          "internalType": "uint256",
          "name": "tokenId",
          "type": "uint256"
        }
      ],
      "name": "transferFrom",
      "outputs": [],
      "stateMutability": "nonpayable",
      "type": "function"
    },
    {
      "inputs": [
        {
          "internalType": "address",
          "name": "newOwner",
          "type": "address"
        }
      ],
      "name": "transferOwnership",
      "outputs": [],
      "stateMutability": "nonpayable",
      "type": "function"
    },
    {
      "inputs": [],
      "name": "withdraw",
      "outputs": [],
      "stateMutability": "nonpayable",
      "type": "function"
    },
    {
      "stateMutability": "payable",
      "type": "receive"
    }
  ],
  "transactionHash": "0x671921171f64363a483916e854728e7fd5de63a3d5b94cf178247530637c3638",
  "args": [
    "CoBots",
    "CBTS",
    "0xfA03f0233bcAf122D304A2A6f8c6bD9eE44cc3Bd",
    "0xa5409ec958c83c3f309868babaca7c86dcb077c1",
    "0xf42aa99f011a1fa7cda90e5e98b277e306bca83e",
    755,
    "0x6168499c0cFfCaCD319c818142124B7A15E857ab",
    "0x01BE23585060835E02B77ef475b0Cc51aA1e0709",
    "0xd89b2bf150e3b9e13446986e571fb9cab24b13cea0a43ea20a6049a85cc807cc"
  ],
  "numDeployments": 1,
  "solcInputHash": "d152cbf2bf3fea73e6ef44cf32183178",
  "bytecode": "0x60a06040526104ed805461ffff19166113881790553480156200002157600080fd5b506040516200434f3803806200434f833981016040819052620000449162000424565b82898981600190805190602001906200005f929190620001d6565b50805162000075906002906020840190620001d6565b5050506001600160a01b03166080526200008f3362000120565b60016008556200009f8762000172565b6104ef80546001600160a01b039788166001600160a01b0319918216179091556104f08054968816968216969096179095556104f4805493871693909516929092179093556104f580546001600160401b03909316600160a01b026001600160e01b03199093169390941692909217179091556104f65550620005ba915050565b600780546001600160a01b038381166001600160a01b0319831681179093556040519116919082907f8be0079c531659141344cd1fd0a4f28419497f9722a3daafe3b4186f6b6457e090600090a35050565b6007546001600160a01b03163314620001a85760405162461bcd60e51b81526004016200019f9062000538565b60405180910390fd5b6104f280546001600160a01b039092166001600160a01b031992831681179091556104f38054909216179055565b828054620001e49062000589565b90600052602060002090601f01602090048101928262000208576000855562000253565b82601f106200022357805160ff191683800117855562000253565b8280016001018555821562000253579182015b828111156200025357825182559160200191906001019062000236565b506200026192915062000265565b5090565b5b8082111562000261576000815560010162000266565b634e487b7160e01b600052604160045260246000fd5b601f19601f83011681016001600160401b0381118282101715620002ba57620002ba6200027c565b6040525050565b6000620002cd60405190565b9050620002db828262000292565b919050565b60006001600160401b03821115620002fc57620002fc6200027c565b601f19601f83011660200192915050565b60005b838110156200032a57818101518382015260200162000310565b838111156200033a576000848401525b50505050565b6000620003576200035184620002e0565b620002c1565b905082815260208101848484011115620003745762000374600080fd5b620003818482856200030d565b509392505050565b600082601f8301126200039f576200039f600080fd5b8151620003b184826020860162000340565b949350505050565b60006001600160a01b0382165b92915050565b620003d781620003b9565b8114620003e357600080fd5b50565b8051620003c681620003cc565b6001600160401b038116620003d7565b8051620003c681620003f3565b80620003d7565b8051620003c68162000410565b60008060008060008060008060006101208a8c031215620004485762000448600080fd5b89516001600160401b03811115620004635762000463600080fd5b620004718c828d0162000389565b60208c0151909a5090506001600160401b03811115620004945762000494600080fd5b620004a28c828d0162000389565b9850506040620004b58c828d01620003e6565b9750506060620004c88c828d01620003e6565b9650506080620004db8c828d01620003e6565b95505060a0620004ee8c828d0162000403565b94505060c0620005018c828d01620003e6565b93505060e0620005148c828d01620003e6565b925050610100620005288c828d0162000417565b9150509295985092959850929598565b60208082528181019081527f4f776e61626c653a2063616c6c6572206973206e6f7420746865206f776e6572604083015260608201620003c6565b634e487b7160e01b600052602260045260246000fd5b6002810460018216806200059e57607f821691505b60208210811415620005b457620005b462000573565b50919050565b608051613d72620005dd6000396000818161118801526111b00152613d726000f3fe6080604052600436106103fd5760003560e01c806370a082311161020d578063adb19dc311610128578063c7994510116100bb578063e89e106a1161008a578063f2fde38b1161006f578063f2fde38b14610b42578063f73c814b14610b62578063fc749b3c14610b8257600080fd5b8063e89e106a14610b0b578063e985e9c514610b2257600080fd5b8063c799451014610894578063c87b56dd14610ab3578063cef46f0d14610ad3578063d7822c9914610af457600080fd5b8063b776c8a6116100f7578063b776c8a614610a32578063b88d4fde14610a52578063c074f41214610a72578063c45ca31014610a9357600080fd5b8063adb19dc3146109e1578063b06a01f414610689578063b4b294d914610a01578063b5545a3c14610a1d57600080fd5b806395d89b41116101a0578063a74733831161016f578063a747338314610978578063a8e90b5714610995578063abb7a28f146109b6578063ac483b93146109cc57600080fd5b806395d89b411461090c5780639c51792a14610921578063a22cb4651461093c578063a3b1763f1461095c57600080fd5b8063751046d7116101dc578063751046d7146108ab57806378af6b85146108c25780638c21460b146108d75780638da5cb5b146108ee57600080fd5b806370a082311461084a578063715018a61461086a57806373cd7d881461087f578063743521e41461089457600080fd5b80632f745c59116103185780634fb9462a116102ab5780635a5e5d581161027a5780636352211e1161025f5780636352211e146107e75780636445b2381461080757806368d99f7c1461082757600080fd5b80635a5e5d58146107b45780635dad667c146107c757600080fd5b80634fb9462a14610733578063511a960514610753578063511ed3821461077357806351db2e761461079457600080fd5b806342842e0e116102e757806342842e0e146106b357806347a3650b146106d35780634f558e79146106f35780634f6ccce71461071357600080fd5b80632f745c591461063b57806330d1bda11461065b5780633acd6cb2146106895780633ccfd60b1461069e57600080fd5b806312b40a9f116103905780631e8858fb1161035f5780631e8858fb146105bb5780631fafadbc146105db5780631fe543e3146105fb57806323b872dd1461061b57600080fd5b806312b40a9f1461053357806316d870c21461055357806318160ddd1461056a5780631a6949e3146105a657600080fd5b806308222d58116103cc57806308222d58146104b0578063095ea7b3146104d95780630bb4d042146104fb5780630eecae211461051e57600080fd5b806301ffc9a71461040957806303e48f661461043f57806306fdde0314610461578063081812fc1461048357600080fd5b3661040457005b600080fd5b34801561041557600080fd5b50610429610424366004612d24565b610ba2565b6040516104369190612d4f565b60405180910390f35b34801561044b57600080fd5b50610454603281565b6040516104369190612d66565b34801561046d57600080fd5b50610476610c73565b6040516104369190612dd2565b34801561048f57600080fd5b506104a361049e366004612df4565b610d05565b6040516104369190612e2f565b3480156104bc57600080fd5b506104fb546104cc9061ffff1681565b6040516104369190612e47565b3480156104e557600080fd5b506104f96104f4366004612e69565b610d62565b005b34801561050757600080fd5b5061051161271081565b6040516104369190612eac565b34801561052a57600080fd5b506104f9610e22565b34801561053f57600080fd5b506104f961054e366004612eba565b61105c565b34801561055f57600080fd5b506105116201518081565b34801561057657600080fd5b506105116000546001600160801b0370010000000000000000000000000000000082048116918116919091031690565b3480156105b257600080fd5b506104296110c1565b3480156105c757600080fd5b506104f96105d6366004612eba565b6110f8565b3480156105e757600080fd5b506104546105f6366004612df4565b611152565b34801561060757600080fd5b506104f9610616366004612fe0565b61117d565b34801561062757600080fd5b506104f961063636600461302e565b611211565b34801561064757600080fd5b50610511610656366004612e69565b61121c565b34801561066757600080fd5b50610511610676366004612eba565b6104fa6020526000908152604090205481565b34801561069557600080fd5b50610454601481565b3480156106aa57600080fd5b506104f9611332565b3480156106bf57600080fd5b506104f96106ce36600461302e565b61143c565b3480156106df57600080fd5b506104f96106ee3660046130d0565b611457565b3480156106ff57600080fd5b5061042961070e366004612df4565b6114c7565b34801561071f57600080fd5b5061051161072e366004612df4565b6114d2565b34801561073f57600080fd5b5061042961074e366004612df4565b611596565b34801561075f57600080fd5b506104f961076e366004612df4565b6115a8565b34801561077f57600080fd5b506104ef546104a3906001600160a01b031681565b3480156107a057600080fd5b506104f96107af366004612df4565b6115d8565b6104f96107c2366004612df4565b61169b565b3480156107d357600080fd5b506104f96107e2366004612df4565b61179d565b3480156107f357600080fd5b506104a3610802366004612df4565b6118c0565b34801561081357600080fd5b50610429610822366004612df4565b6118d2565b34801561083357600080fd5b506104296000546001600160801b03166127101490565b34801561085657600080fd5b50610511610865366004612eba565b6118e4565b34801561087657600080fd5b506104f961194c565b34801561088b57600080fd5b50610454600a81565b3480156108a057600080fd5b5061051162093a8081565b3480156108b757600080fd5b506105116104f95481565b3480156108ce57600080fd5b50610454601e81565b3480156108e357600080fd5b506105116104f85481565b3480156108fa57600080fd5b506007546001600160a01b03166104a3565b34801561091857600080fd5b50610476611982565b34801561092d57600080fd5b5061051166b1a2bc2ec5000081565b34801561094857600080fd5b506104f961095736600461312b565b611991565b34801561096857600080fd5b506105116722b1c8c1227a000081565b34801561098457600080fd5b5061051168015af1d78b58c4000081565b3480156109a157600080fd5b506104f0546104a3906001600160a01b031681565b3480156109c257600080fd5b506104cc61251c81565b3480156109d857600080fd5b50610429611a43565b3480156109ed57600080fd5b506104f96109fc3660046130d0565b611a7c565b348015610a0d57600080fd5b506104ed546104cc9061ffff1681565b348015610a2957600080fd5b506104f9611c84565b348015610a3e57600080fd5b506104f9610a4d366004612eba565b611e58565b348015610a5e57600080fd5b506104f9610a6d3660046131f5565b611eb2565b348015610a7e57600080fd5b506104f2546104a3906001600160a01b031681565b348015610a9f57600080fd5b506104f9610aae366004612e69565b611eec565b348015610abf57600080fd5b50610476610ace366004612df4565b611f57565b348015610adf57600080fd5b506104fb546104299062010000900460ff1681565b348015610b0057600080fd5b506105116104ee5481565b348015610b1757600080fd5b506105116104f75481565b348015610b2e57600080fd5b50610429610b3d366004613274565b61209b565b348015610b4e57600080fd5b506104f9610b5d366004612eba565b6121af565b348015610b6e57600080fd5b506104f9610b7d366004612eba565b612208565b348015610b8e57600080fd5b50610429610b9d366004612df4565b61225c565b60006001600160e01b031982167f80ac58cd000000000000000000000000000000000000000000000000000000001480610c0557506001600160e01b031982167f5b5e139f00000000000000000000000000000000000000000000000000000000145b80610c3957506001600160e01b031982167f780e9d6300000000000000000000000000000000000000000000000000000000145b80610c6d57507f01ffc9a7000000000000000000000000000000000000000000000000000000006001600160e01b03198316145b92915050565b606060018054610c82906132bd565b80601f0160208091040260200160405190810160405280929190818152602001828054610cae906132bd565b8015610cfb5780601f10610cd057610100808354040283529160200191610cfb565b820191906000526020600020905b815481529060010190602001808311610cde57829003601f168201915b5050505050905090565b6000610d108261226e565b610d46576040517fcf4700e400000000000000000000000000000000000000000000000000000000815260040160405180910390fd5b506000908152600560205260409020546001600160a01b031690565b6000610d6d826118c0565b9050806001600160a01b0316836001600160a01b03161415610dbb576040517f943f7b8c00000000000000000000000000000000000000000000000000000000815260040160405180910390fd5b336001600160a01b03821614801590610ddb5750610dd9813361209b565b155b15610e12576040517fcfb3b94200000000000000000000000000000000000000000000000000000000815260040160405180910390fd5b610e1d8383836122a2565b505050565b60026008541415610e4e5760405162461bcd60e51b8152600401610e459061331e565b60405180910390fd5b6002600855610e5b611a43565b610e775760405162461bcd60e51b8152600401610e4590613360565b610e8d6000546001600160801b03166127101490565b610ea95760405162461bcd60e51b8152600401610e45906133a2565b6104fb5462010000900460ff16610ec157600a610ecd565b610ecd6014600a6133c8565b6104fb5460ff9190911661ffff90911610610efa5760405162461bcd60e51b8152600401610e4590613420565b610f0542603c613430565b6104f854101580610f1b57506104fb5461ffff16155b610f375760405162461bcd60e51b8152600401610e4590613473565b426104f8556104fb54600a61ffff90911610610f5b576722b1c8c1227a0000610f66565b68015af1d78b58c400005b6104f9556104fb805461ffff16906000610f7f83613483565b82546101009290920a61ffff818102199093169190921691909102179055506104f4546104f6546104f5546040517f5d3b1d300000000000000000000000000000000000000000000000000000000081526001600160a01b0390931692635d3b1d309261100e929091600160a01b90910467ffffffffffffffff16906005906207a120906001906004016134e1565b6020604051808303816000875af115801561102d573d6000803e3d6000fd5b505050506040513d601f19601f820116820180604052508101906110519190613538565b6104f7556001600855565b6007546001600160a01b031633146110865760405162461bcd60e51b8152600401610e4590613589565b6104f280546001600160a01b0390921673ffffffffffffffffffffffffffffffffffffffff1992831681179091556104f38054909216179055565b60006104ee54421180156110d757506104ee5415155b80156110f3575062093a806104ee546110f09190613430565b42105b905090565b6007546001600160a01b031633146111225760405162461bcd60e51b8152600401610e4590613589565b6104f0805473ffffffffffffffffffffffffffffffffffffffff19166001600160a01b0392909216919091179055565b600981612710811061116357600080fd5b60209182820401919006915054906101000a900460ff1681565b336001600160a01b037f0000000000000000000000000000000000000000000000000000000000000000161461120357337f00000000000000000000000000000000000000000000000000000000000000006040517f1cf993f4000000000000000000000000000000000000000000000000000000008152600401610e45929190613599565b61120d828261230b565b5050565b610e1d838383612435565b6000611227836118e4565b821061125f576040517f0ddac30e00000000000000000000000000000000000000000000000000000000815260040160405180910390fd5b600080546001600160801b03169080805b8381101561132c57600081815260036020908152604091829020825160608101845290546001600160a01b0381168252600160a01b810467ffffffffffffffff1692820192909252600160e01b90910460ff1615801592820192909252906112d85750611324565b80516001600160a01b0316156112ed57805192505b876001600160a01b0316836001600160a01b03161415611322578684141561131b57509350610c6d92505050565b6001909301925b505b600101611270565b50600080fd5b6007546001600160a01b0316331461135c5760405162461bcd60e51b8152600401610e4590613589565b6104fb5462010000900460ff1661137457600a611380565b6113806014600a6133c8565b6104fb5461ffff1660ff9190911614806113b5575062093a80806104ee546113a89190613430565b6113b29190613430565b42115b6113d15760405162461bcd60e51b8152600401610e459061360e565b604051600090339047908381818185875af1925050503d8060008114611413576040519150601f19603f3d011682016040523d82523d6000602084013e611418565b606091505b50509050806114395760405162461bcd60e51b8152600401610e4590613650565b50565b610e1d83838360405180602001604052806000815250611eb2565b6002600854141561147a5760405162461bcd60e51b8152600401610e459061331e565b600260085560005b818110156114bd576114ab83838381811061149f5761149f613660565b905060200201356115d8565b806114b581613676565b915050611482565b5050600160085550565b6000610c6d8261226e565b600080546001600160801b031681805b8281101561156357600081815260036020908152604091829020825160608101845290546001600160a01b0381168252600160a01b810467ffffffffffffffff1692820192909252600160e01b90910460ff1615159181018290529061155a57858314156115535750949350505050565b6001909201915b506001016114e2565b506040517fa723001c00000000000000000000000000000000000000000000000000000000815260040160405180910390fd5b61027b81612710811061116357600080fd5b6007546001600160a01b031633146115d25760405162461bcd60e51b8152600401610e4590613589565b6104ee55565b600260085414156115fb5760405162461bcd60e51b8152600401610e459061331e565b60026008553361160a826118c0565b6001600160a01b0316146116305760405162461bcd60e51b8152600401610e45906136bc565b61014281612710811061164557611645613660565b602081049091015460ff601f9092166101000a9004161561014282612710811061167157611671613660565b602091828204019190066101000a81548160ff021916908315150217905550600160088190555050565b6116a36110c1565b6116bf5760405162461bcd60e51b8152600401610e45906136fe565b600260085414156116e25760405162461bcd60e51b8152600401610e459061331e565b60026008556116f88166b1a2bc2ec5000061370e565b34146117165760405162461bcd60e51b8152600401610e459061375f565b6117236127106001613430565b60005461173a9083906001600160801b0316613430565b106117575760405162461bcd60e51b8152600401610e45906137a1565b601481611763336118e4565b61176d9190613430565b111561178b5760405162461bcd60e51b8152600401610e4590613809565b611795338261269d565b506001600855565b600260085414156117c05760405162461bcd60e51b8152600401610e459061331e565b6002600855336117cf826118c0565b6001600160a01b0316146117f55760405162461bcd60e51b8152600401610e45906136bc565b61027b81612710811061180a5761180a613660565b602081049091015460ff601f9092166101000a9004161561027b82612710811061183657611836613660565b602091828204019190066101000a81548160ff02191690831515021790555061027b81612710811061186a5761186a613660565b602081049091015460ff601f9092166101000a900416611895576104ed5461ffff16600019016118a1565b6104ed5461ffff166001015b6104ed805461ffff191661ffff929092169190911790556117956127bd565b60006118cb8261282b565b5192915050565b6103b481612710811061116357600080fd5b60006001600160a01b038216611926576040517f8f4eb60400000000000000000000000000000000000000000000000000000000815260040160405180910390fd5b506001600160a01b031660009081526004602052604090205467ffffffffffffffff1690565b6007546001600160a01b031633146119765760405162461bcd60e51b8152600401610e4590613589565b6119806000612968565b565b606060028054610c82906132bd565b6001600160a01b0382163314156119d4576040517fb06307db00000000000000000000000000000000000000000000000000000000815260040160405180910390fd5b3360008181526006602090815260408083206001600160a01b038716808552925291829020805460ff191685151517905590519091907f17307eab39ab6107e8899845ad3d59bd9653f200f220920489ca2b5937696c3190611a37908590612d4f565b60405180910390a35050565b6000611a4d6110c1565b1580156110f357506201518062093a806104ee54611a6b9190613430565b611a759190613430565b4211905090565b60026008541415611a9f5760405162461bcd60e51b8152600401610e459061331e565b6002600855600061027b83838381611ab957611ab9613660565b905060200201356127108110611ad157611ad1613660565b602081049091015460ff601f9092166101000a900416905060005b82811015611c445733611b16858584818110611b0a57611b0a613660565b905060200201356118c0565b6001600160a01b031614611b3c5760405162461bcd60e51b8152600401610e45906136bc565b61027b848483818110611b5157611b51613660565b905060200201356127108110611b6957611b69613660565b602091828204019190069054906101000a900460ff16151582151514611ba15760405162461bcd60e51b8152600401610e4590613871565b61027b848483818110611bb657611bb6613660565b905060200201356127108110611bce57611bce613660565b602081049091015460ff601f9092166101000a9004161561027b858584818110611bfa57611bfa613660565b905060200201356127108110611c1257611c12613660565b602091828204019190066101000a81548160ff0219169083151502179055508080611c3c90613676565b915050611aec565b5080611c5a576104ed5461ffff16829003611c65565b6104ed5461ffff1682015b6104ed805461ffff191661ffff929092169190911790556114bd6127bd565b60026008541415611ca75760405162461bcd60e51b8152600401610e459061331e565b60026008556104ee54611cbe9062093a8090613430565b42118015611ce7575062093a80806104ee54611cda9190613430565b611ce49190613430565b42105b611d035760405162461bcd60e51b8152600401610e45906138b3565b611d196000546001600160801b03166127101490565b15611d365760405162461bcd60e51b8152600401610e45906138f5565b6000805b611d43336118e4565b811015611dc6576000611d56338361121c565b90506032811015611d675750611db4565b60016103b4826127108110611d7e57611d7e613660565b602091828204019190066101000a81548160ff02191690831515021790555066b1a2bc2ec5000083611db09190613430565b9250505b80611dbe81613676565b915050611d3a565b5060008111611de75760405162461bcd60e51b8152600401610e4590613937565b604051600090339083908381818185875af1925050503d8060008114611e29576040519150601f19603f3d011682016040523d82523d6000602084013e611e2e565b606091505b5050905080611e4f5760405162461bcd60e51b8152600401610e4590613650565b50506001600855565b6007546001600160a01b03163314611e825760405162461bcd60e51b8152600401610e4590613589565b6104ef805473ffffffffffffffffffffffffffffffffffffffff19166001600160a01b0392909216919091179055565b611ebd848484612435565b611ec9848484846129c7565b611ee6576040516368d2bf6b60e11b815260040160405180910390fd5b50505050565b6007546001600160a01b03163314611f165760405162461bcd60e51b8152600401610e4590613589565b600054603290611f2f906001600160801b031683613430565b1115611f4d5760405162461bcd60e51b8152600401610e459061399f565b61120d828261269d565b6060611f628261226e565b611f7e5760405162461bcd60e51b8152600401610e4590613a07565b6104f2546001600160a01b0316611fa357505060408051602081019091526000815290565b6104f3546001600160a01b0316632da7b4e9836009816127108110611fca57611fca613660565b602081049091015460ff601f9092166101000a900416610142866127108110611ff557611ff5613660565b602081049091015460ff601f9092166101000a9004161561027b87612710811061202157612021613660565b602091828204019190069054906101000a900460ff166040518563ffffffff1660e01b81526004016120569493929190613a17565b600060405180830381865afa158015612073573d6000803e3d6000fd5b505050506040513d6000823e601f3d908101601f19168201604052610c6d9190810190613aad565b6104ef546040517fc45527910000000000000000000000000000000000000000000000000000000081526000916001600160a01b03169063c4552791906120e6908690600401612e2f565b602060405180830381865afa158015612103573d6000803e3d6000fd5b505050506040513d601f19601f820116820180604052508101906121279190613b07565b6001600160a01b0316826001600160a01b0316148061215457506104f0546001600160a01b038381169116145b8061217857506001600160a01b03821660009081526104f1602052604090205460ff165b806121a857506001600160a01b0380841660009081526006602090815260408083209386168352929052205460ff165b9392505050565b6007546001600160a01b031633146121d95760405162461bcd60e51b8152600401610e4590613589565b6001600160a01b0381166121ff5760405162461bcd60e51b8152600401610e4590613b80565b61143981612968565b6007546001600160a01b031633146122325760405162461bcd60e51b8152600401610e4590613589565b6001600160a01b031660009081526104f160205260409020805460ff19811660ff90911615179055565b61014281612710811061116357600080fd5b600080546001600160801b031682108015610c6d575050600090815260036020526040902054600160e01b900460ff161590565b600082815260056020526040808220805473ffffffffffffffffffffffffffffffffffffffff19166001600160a01b0387811691821790925591518593918516917f8c5be1e5ebec7d5bd14f71427d1e84f3dd0314c0f7b2291e5b200ac8c7c3b92591a4505050565b60008160008151811061232057612320613660565b60200260200101519050600061233d612710836108029190613ba6565b90505b6001600160a01b03811660009081526104fa60205260409020541515806123895750601e61237061271084613ba6565b101580156123895750603261238761271084613ba6565b105b156123ab5760019190911c906123a461080261271084613ba6565b9050612340565b6104f9546001600160a01b03821660008181526104fa6020526040808220849055519092908381818185875af1925050503d8060008114612408576040519150601f19603f3d011682016040523d82523d6000602084013e61240d565b606091505b505090508061242e5760405162461bcd60e51b8152600401610e4590613bec565b5050505050565b60006124408261282b565b80519091506000906001600160a01b0316336001600160a01b0316148061246e5750815161246e903361209b565b8061248957503361247e84610d05565b6001600160a01b0316145b9050806124c2576040517f59c896be00000000000000000000000000000000000000000000000000000000815260040160405180910390fd5b846001600160a01b031682600001516001600160a01b031614612511576040517fa114810000000000000000000000000000000000000000000000000000000000815260040160405180910390fd5b6001600160a01b038416612551576040517fea553b3400000000000000000000000000000000000000000000000000000000815260040160405180910390fd5b61256160008484600001516122a2565b6001600160a01b038581166000908152600460209081526040808320805467ffffffffffffffff1980821667ffffffffffffffff92831660001901831617909255898616808652838620805493841693831660019081018416949094179055898652600390945282852080546001600160e01b031916909417600160a01b429092169190910217909255908601808352912054909116612656576000546001600160801b0316811015612656578251600082815260036020908152604090912080549186015167ffffffffffffffff16600160a01b026001600160e01b03199092166001600160a01b03909316929092171790555b5082846001600160a01b0316866001600160a01b03167fddf252ad1be2c89b69c2b068fc378daa952ba7f163c4a11628f55a4df523b3ef60405160405180910390a461242e565b602081106126bd5760405162461bcd60e51b8152600401610e4590613c54565b600081333442446040516020016126d8959493929190613c8c565b60405160208183030381529060405280519060200120905060005b828110156127b257600080546127139083906001600160801b0316613430565b905082826020811061272757612727613660565b1a600982612710811061273c5761273c613660565b602091828204019190066101000a81548160ff021916908360ff1602179055506002816127699190613ba6565b1561027b82612710811061277f5761277f613660565b602091828204019190066101000a81548160ff0219169083151502179055505080806127aa90613676565b9150506126f3565b50610e1d8383612af9565b426201518062093a806104ee546127d49190613430565b6127de9190613430565b1180156127f657506104ed5461251c61ffff90911610155b15611980576104fb80547fffffffffffffffffffffffffffffffffffffffffffffffffffffffffff00ffff1662010000179055565b60408051606081018252600080825260208201819052918101829052905482906001600160801b031681101561293657600081815260036020908152604091829020825160608101845290546001600160a01b0381168252600160a01b810467ffffffffffffffff1692820192909252600160e01b90910460ff161515918101829052906129345780516001600160a01b0316156128ca579392505050565b5060001901600081815260036020908152604091829020825160608101845290546001600160a01b038116808352600160a01b820467ffffffffffffffff1693830193909352600160e01b900460ff161515928101929092521561292f579392505050565b6128ca565b505b6040517fdf2d9b4200000000000000000000000000000000000000000000000000000000815260040160405180910390fd5b600780546001600160a01b0383811673ffffffffffffffffffffffffffffffffffffffff19831681179093556040519116919082907f8be0079c531659141344cd1fd0a4f28419497f9722a3daafe3b4186f6b6457e090600090a35050565b60006001600160a01b0384163b15612aed576040517f150b7a020000000000000000000000000000000000000000000000000000000081526001600160a01b0385169063150b7a0290612a24903390899088908890600401613cd6565b6020604051808303816000875af1925050508015612a5f575060408051601f3d908101601f19168201909252612a5c91810190613d1b565b60015b612aba573d808015612a8d576040519150601f19603f3d011682016040523d82523d6000602084013e612a92565b606091505b508051612ab2576040516368d2bf6b60e11b815260040160405180910390fd5b805181602001fd5b6001600160e01b0319167f150b7a0200000000000000000000000000000000000000000000000000000000149050612af1565b5060015b949350505050565b61120d828260405180602001604052806000815250610e1d83838360016000546001600160801b03166001600160a01b038516612b62576040517f2e07630000000000000000000000000000000000000000000000000000000000815260040160405180910390fd5b83612b99576040517fb562e8dd00000000000000000000000000000000000000000000000000000000815260040160405180910390fd5b6001600160a01b038516600081815260046020908152604080832080547fffffffffffffffffffffffffffffffff00000000000000000000000000000000811667ffffffffffffffff8083168c0181169182176801000000000000000067ffffffffffffffff1990941690921783900481168c018116909202179091558584526003909252822080546001600160e01b031916909317600160a01b42909216919091021790915581905b85811015612cc45760405182906001600160a01b038916906000907fddf252ad1be2c89b69c2b068fc378daa952ba7f163c4a11628f55a4df523b3ef908290a4838015612c9a5750612c9860008884886129c7565b155b15612cb8576040516368d2bf6b60e11b815260040160405180910390fd5b60019182019101612c43565b50600080547fffffffffffffffffffffffffffffffff00000000000000000000000000000000166001600160801b039290921691909117905561242e565b6001600160e01b031981165b811461143957600080fd5b8035610c6d81612d02565b600060208284031215612d3957612d39600080fd5b6000612af18484612d19565b8015155b82525050565b60208101610c6d8284612d45565b60ff8116612d49565b60208101610c6d8284612d5d565b60005b83811015612d8f578181015183820152602001612d77565b83811115611ee65750506000910152565b6000612daa825190565b808452602084019350612dc1818560208601612d74565b601f01601f19169290920192915050565b602080825281016121a88184612da0565b80612d0e565b8035610c6d81612de3565b600060208284031215612e0957612e09600080fd5b6000612af18484612de9565b60006001600160a01b038216610c6d565b612d4981612e15565b60208101610c6d8284612e26565b61ffff8116612d49565b60208101610c6d8284612e3d565b612d0e81612e15565b8035610c6d81612e55565b60008060408385031215612e7f57612e7f600080fd5b6000612e8b8585612e5e565b9250506020612e9c85828601612de9565b9150509250929050565b80612d49565b60208101610c6d8284612ea6565b600060208284031215612ecf57612ecf600080fd5b6000612af18484612e5e565b634e487b7160e01b600052604160045260246000fd5b601f19601f830116810181811067ffffffffffffffff82111715612f1757612f17612edb565b6040525050565b6000612f2960405190565b9050612f358282612ef1565b919050565b600067ffffffffffffffff821115612f5457612f54612edb565b5060209081020190565b6000612f71612f6c84612f3a565b612f1e565b83815290506020808201908402830185811115612f9057612f90600080fd5b835b81811015612fb257612fa48782612de9565b835260209283019201612f92565b5050509392505050565b600082601f830112612fd057612fd0600080fd5b8135612af1848260208601612f5e565b60008060408385031215612ff657612ff6600080fd5b60006130028585612de9565b925050602083013567ffffffffffffffff81111561302257613022600080fd5b612e9c85828601612fbc565b60008060006060848603121561304657613046600080fd5b60006130528686612e5e565b935050602061306386828701612e5e565b925050604061307486828701612de9565b9150509250925092565b60008083601f84011261309357613093600080fd5b50813567ffffffffffffffff8111156130ae576130ae600080fd5b6020830191508360208202830111156130c9576130c9600080fd5b9250929050565b600080602083850312156130e6576130e6600080fd5b823567ffffffffffffffff81111561310057613100600080fd5b61310c8582860161307e565b92509250509250929050565b801515612d0e565b8035610c6d81613118565b6000806040838503121561314157613141600080fd5b600061314d8585612e5e565b9250506020612e9c85828601613120565b600067ffffffffffffffff82111561317857613178612edb565b601f19601f83011660200192915050565b82818337506000910152565b60006131a3612f6c8461315e565b9050828152602081018484840111156131be576131be600080fd5b6131c9848285613189565b509392505050565b600082601f8301126131e5576131e5600080fd5b8135612af1848260208601613195565b6000806000806080858703121561320e5761320e600080fd5b600061321a8787612e5e565b945050602061322b87828801612e5e565b935050604061323c87828801612de9565b925050606085013567ffffffffffffffff81111561325c5761325c600080fd5b613268878288016131d1565b91505092959194509250565b6000806040838503121561328a5761328a600080fd5b60006132968585612e5e565b9250506020612e9c85828601612e5e565b634e487b7160e01b600052602260045260246000fd5b6002810460018216806132d157607f821691505b602082108114156132e4576132e46132a7565b50919050565b601f8152602081017f5265656e7472616e637947756172643a207265656e7472616e742063616c6c00815290505b60200190565b60208082528101610c6d816132ea565b600f8152602081017f44726177206e6f7420616374697665000000000000000000000000000000000081529050613318565b60208082528101610c6d8161332e565b601a8152602081017f436f2d426f747320617265206e6f74206d696e746564206f757400000000000081529050613318565b60208082528101610c6d81613370565b634e487b7160e01b600052601160045260246000fd5b60ff8116905060ff8216915060008260ff038211156133e9576133e96133b2565b500190565b60128152602081017f44726177206c696d69742072656163686564000000000000000000000000000081529050613318565b60208082528101610c6d816133ee565b600082198211156133e9576133e96133b2565b60208082527f44726177732074616b6520706c616365206f6e636520706572206d696e7574659101908152613318565b60208082528101610c6d81613443565b61ffff81169050600061ffff82141561349e5761349e6133b2565b5060010190565b67ffffffffffffffff8116612d49565b600061ffff8216610c6d565b612d49816134b5565b600063ffffffff8216610c6d565b612d49816134ca565b60a081016134ef8288612ea6565b6134fc60208301876134a5565b61350960408301866134c1565b61351660608301856134d8565b61352360808301846134d8565b9695505050505050565b8051610c6d81612de3565b60006020828403121561354d5761354d600080fd5b6000612af1848461352d565b60208082527f4f776e61626c653a2063616c6c6572206973206e6f7420746865206f776e65729101908152613318565b60208082528101610c6d81613559565b604081016135a78285612e26565b6121a86020830184612e26565b602e8152602081017f4465762063616e6e6f74207769746864726177206265666f726520746865206581527f6e64206f66207468652067616d65000000000000000000000000000000000000602082015290505b60400190565b60208082528101610c6d816135b4565b60118152602081017f5769746864726177616c206661696c656400000000000000000000000000000081529050613318565b60208082528101610c6d8161361e565b634e487b7160e01b600052603260045260246000fd5b600060001982141561349e5761349e6133b2565b601b8152602081017f4f6e6c79206f776e65722063616e20746f67676c6520636f6c6f72000000000081529050613318565b60208082528101610c6d8161368a565b60148152602081017f5075626c69632073616c65206e6f74206f70656e00000000000000000000000081529050613318565b60208082528101610c6d816136cc565b6000816000190483118215151615613728576137286133b2565b500290565b60148152602081017f507269636520646f6573206e6f74206d6174636800000000000000000000000081529050613318565b60208082528101610c6d8161372d565b60178152602081017f546f6f206d616e7920436f426f747320746f206d696e7400000000000000000081529050613318565b60208082528101610c6d8161376f565b603b8152602081017f436f2d426f74733a2074686520726571756573746564207175616e746974792081527f6578636565647320746865206d6178696d756d20616c6c6f776564000000000060208201529050613608565b60208082528101610c6d816137b1565b60288152602081017f546f67676c696e6720636f6c6f727320696e2074776f20646966666572656e7481527f20636f6c6f72732100000000000000000000000000000000000000000000000060208201529050613608565b60208082528101610c6d81613819565b60168152602081017f526566756e6420706572696f64206e6f74206f70656e0000000000000000000081529050613318565b60208082528101610c6d81613881565b60168152602081017f436f2d426f747320617265206d696e746564206f75740000000000000000000081529050613318565b60208082528101610c6d816138c3565b60148152602081017f4e6f20436f2d426f747320746f20726566756e6400000000000000000000000081529050613318565b60208082528101610c6d81613905565b60318152602081017f5175616e74697479206578636565647320666f756e6465727320616e6420676981527f7665617761797320616c6c6f77616e636500000000000000000000000000000060208201529050613608565b60208082528101610c6d81613947565b60278152602081017f4552433732313a2055524920717565727920666f72206e6f6e6578697374656e81527f7420746f6b656e0000000000000000000000000000000000000000000000000060208201529050613608565b60208082528101610c6d816139af565b60808101613a258287612ea6565b613a326020830186612d5d565b613a3f6040830185612d45565b613a4c6060830184612d45565b95945050505050565b6000613a63612f6c8461315e565b905082815260208101848484011115613a7e57613a7e600080fd5b6131c9848285612d74565b600082601f830112613a9d57613a9d600080fd5b8151612af1848260208601613a55565b600060208284031215613ac257613ac2600080fd5b815167ffffffffffffffff811115613adc57613adc600080fd5b612af184828501613a89565b6000610c6d82612e15565b612d0e81613ae8565b8051610c6d81613af3565b600060208284031215613b1c57613b1c600080fd5b6000612af18484613afc565b60268152602081017f4f776e61626c653a206e6577206f776e657220697320746865207a65726f206181527f646472657373000000000000000000000000000000000000000000000000000060208201529050613608565b60208082528101610c6d81613b28565b634e487b7160e01b600052601260045260246000fd5b600082613bb557613bb5613b90565b500690565b60108152602081017f5472616e73666572206661696c65642e0000000000000000000000000000000081529050613318565b60208082528101610c6d81613bba565b60258152602081017f546f6f206d616e7920436f2d426f747320746f206d696e7420696e206f6e652081527f626174636800000000000000000000000000000000000000000000000000000060208201529050613608565b60208082528101610c6d81613bfc565b6000610c6d8260601b90565b6000610c6d82613c64565b612d49613c8782612e15565b613c70565b613c968187612ea6565b602001613ca38186613c7b565b601401613cb08185612ea6565b602001613cbd8184612ea6565b602001613cca8183612ea6565b60200195945050505050565b60808101613ce48287612e26565b613cf16020830186612e26565b613cfe6040830185612ea6565b81810360608301526135238184612da0565b8051610c6d81612d02565b600060208284031215613d3057613d30600080fd5b6000612af18484613d1056fea2646970667358221220fc980aa9b77a5cb0c7c9ed56bbdcbe5c26ce0d84fe6cda01f4bedca88c8f8f5964736f6c634300080c0033",
  "devdoc": {
    "kind": "dev",
    "methods": {
      "approve(address,uint256)": {
        "details": "See {IERC721-approve}."
      },
      "balanceOf(address)": {
        "details": "See {IERC721-balanceOf}."
      },
      "getApproved(uint256)": {
        "details": "See {IERC721-getApproved}."
      },
      "isApprovedForAll(address,address)": {
        "details": "Modified for opensea and looksrare pre-approve."
      },
      "name()": {
        "details": "See {IERC721Metadata-name}."
      },
      "owner()": {
        "details": "Returns the address of the current owner."
      },
      "ownerOf(uint256)": {
        "details": "See {IERC721-ownerOf}."
      },
      "renounceOwnership()": {
        "details": "Leaves the contract without owner. It will not be possible to call `onlyOwner` functions anymore. Can only be called by the current owner. NOTE: Renouncing ownership will leave the contract without an owner, thereby removing any functionality that is only available to the owner."
      },
      "safeTransferFrom(address,address,uint256)": {
        "details": "See {IERC721-safeTransferFrom}."
      },
      "safeTransferFrom(address,address,uint256,bytes)": {
        "details": "See {IERC721-safeTransferFrom}."
      },
      "setApprovalForAll(address,bool)": {
        "details": "See {IERC721-setApprovalForAll}."
      },
      "supportsInterface(bytes4)": {
        "details": "See {IERC165-supportsInterface}."
      },
      "symbol()": {
        "details": "See {IERC721Metadata-symbol}."
      },
      "tokenByIndex(uint256)": {
        "details": "See {IERC721Enumerable-tokenByIndex}. This read function is O(totalSupply). If calling from a separate contract, be sure to test gas first. It may also degrade with extremely large collection sizes (e.g >> 10000), test for your use case."
      },
      "tokenOfOwnerByIndex(address,uint256)": {
        "details": "See {IERC721Enumerable-tokenOfOwnerByIndex}. This read function is O(totalSupply). If calling from a separate contract, be sure to test gas first. It may also degrade with extremely large collection sizes (e.g >> 10000), test for your use case."
      },
      "totalSupply()": {
        "details": "See {IERC721Enumerable-totalSupply}."
      },
      "transferFrom(address,address,uint256)": {
        "details": "See {IERC721-transferFrom}."
      },
      "transferOwnership(address)": {
        "details": "Transfers ownership of the contract to a new account (`newOwner`). Can only be called by the current owner."
      }
    },
    "version": 1
  },
  "userdoc": {
    "kind": "user",
    "methods": {
      "flipProxyState(address)": {
        "notice": "Approve the communication and interaction with cross-collection interactions."
      },
      "setLooksrare(address)": {
        "notice": "Set looksrare to `looksrare_`."
      },
      "setOpensea(address)": {
        "notice": "Set opensea to `opensea_`."
      }
    },
    "version": 1
  },
  "storageLayout": {
    "storage": [
      {
        "astId": 4252,
        "contract": "contracts/co-bots/CoBots.sol:CoBots",
        "label": "_currentIndex",
        "offset": 0,
        "slot": "0",
        "type": "t_uint128"
      },
      {
        "astId": 4254,
        "contract": "contracts/co-bots/CoBots.sol:CoBots",
        "label": "_burnCounter",
        "offset": 16,
        "slot": "0",
        "type": "t_uint128"
      },
      {
        "astId": 4256,
        "contract": "contracts/co-bots/CoBots.sol:CoBots",
        "label": "_name",
        "offset": 0,
        "slot": "1",
        "type": "t_string_storage"
      },
      {
        "astId": 4258,
        "contract": "contracts/co-bots/CoBots.sol:CoBots",
        "label": "_symbol",
        "offset": 0,
        "slot": "2",
        "type": "t_string_storage"
      },
      {
        "astId": 4263,
        "contract": "contracts/co-bots/CoBots.sol:CoBots",
        "label": "_ownerships",
        "offset": 0,
        "slot": "3",
        "type": "t_mapping(t_uint256,t_struct(TokenOwnership)4243_storage)"
      },
      {
        "astId": 4268,
        "contract": "contracts/co-bots/CoBots.sol:CoBots",
        "label": "_addressData",
        "offset": 0,
        "slot": "4",
        "type": "t_mapping(t_address,t_struct(AddressData)4250_storage)"
      },
      {
        "astId": 4272,
        "contract": "contracts/co-bots/CoBots.sol:CoBots",
        "label": "_tokenApprovals",
        "offset": 0,
        "slot": "5",
        "type": "t_mapping(t_uint256,t_address)"
      },
      {
        "astId": 4278,
        "contract": "contracts/co-bots/CoBots.sol:CoBots",
        "label": "_operatorApprovals",
        "offset": 0,
        "slot": "6",
        "type": "t_mapping(t_address,t_mapping(t_address,t_bool))"
      },
      {
        "astId": 467,
        "contract": "contracts/co-bots/CoBots.sol:CoBots",
        "label": "_owner",
        "offset": 0,
        "slot": "7",
        "type": "t_address"
      },
      {
        "astId": 575,
        "contract": "contracts/co-bots/CoBots.sol:CoBots",
        "label": "_status",
        "offset": 0,
        "slot": "8",
        "type": "t_uint256"
      },
      {
        "astId": 1419,
        "contract": "contracts/co-bots/CoBots.sol:CoBots",
        "label": "coBotsSeeds",
        "offset": 0,
        "slot": "9",
        "type": "t_array(t_uint8)10000_storage"
      },
      {
        "astId": 1423,
        "contract": "contracts/co-bots/CoBots.sol:CoBots",
        "label": "coBotsStatusDisabled",
        "offset": 0,
        "slot": "322",
        "type": "t_array(t_bool)10000_storage"
      },
      {
        "astId": 1427,
        "contract": "contracts/co-bots/CoBots.sol:CoBots",
        "label": "coBotsColors",
        "offset": 0,
        "slot": "635",
        "type": "t_array(t_bool)10000_storage"
      },
      {
        "astId": 1431,
        "contract": "contracts/co-bots/CoBots.sol:CoBots",
        "label": "coBotsRefunded",
        "offset": 0,
        "slot": "948",
        "type": "t_array(t_bool)10000_storage"
      },
      {
        "astId": 1434,
        "contract": "contracts/co-bots/CoBots.sol:CoBots",
        "label": "coBotsColorAgreement",
        "offset": 0,
        "slot": "1261",
        "type": "t_uint16"
      },
      {
        "astId": 1436,
        "contract": "contracts/co-bots/CoBots.sol:CoBots",
        "label": "publicSaleStartTimestamp",
        "offset": 0,
        "slot": "1262",
        "type": "t_uint256"
      },
      {
        "astId": 1524,
        "contract": "contracts/co-bots/CoBots.sol:CoBots",
        "label": "opensea",
        "offset": 0,
        "slot": "1263",
        "type": "t_address"
      },
      {
        "astId": 1526,
        "contract": "contracts/co-bots/CoBots.sol:CoBots",
        "label": "looksrare",
        "offset": 0,
        "slot": "1264",
        "type": "t_address"
      },
      {
        "astId": 1530,
        "contract": "contracts/co-bots/CoBots.sol:CoBots",
        "label": "proxyToApproved",
        "offset": 0,
        "slot": "1265",
        "type": "t_mapping(t_address,t_bool)"
      },
      {
        "astId": 1615,
        "contract": "contracts/co-bots/CoBots.sol:CoBots",
        "label": "renderingContractAddress",
        "offset": 0,
        "slot": "1266",
        "type": "t_address"
      },
      {
        "astId": 1618,
        "contract": "contracts/co-bots/CoBots.sol:CoBots",
        "label": "renderer",
        "offset": 0,
        "slot": "1267",
        "type": "t_contract(ICoBotsRenderer)3892"
      },
      {
        "astId": 2168,
        "contract": "contracts/co-bots/CoBots.sol:CoBots",
        "label": "COORDINATOR",
        "offset": 0,
        "slot": "1268",
        "type": "t_contract(VRFCoordinatorV2Interface)459"
      },
      {
        "astId": 2171,
        "contract": "contracts/co-bots/CoBots.sol:CoBots",
        "label": "LINKTOKEN",
        "offset": 0,
        "slot": "1269",
        "type": "t_contract(LinkTokenInterface)370"
      },
      {
        "astId": 2173,
        "contract": "contracts/co-bots/CoBots.sol:CoBots",
        "label": "s_subscriptionId",
        "offset": 20,
        "slot": "1269",
        "type": "t_uint64"
      },
      {
        "astId": 2175,
        "contract": "contracts/co-bots/CoBots.sol:CoBots",
        "label": "gasKeyHash",
        "offset": 0,
        "slot": "1270",
        "type": "t_bytes32"
      },
      {
        "astId": 2177,
        "contract": "contracts/co-bots/CoBots.sol:CoBots",
        "label": "s_requestId",
        "offset": 0,
        "slot": "1271",
        "type": "t_uint256"
      },
      {
        "astId": 2179,
        "contract": "contracts/co-bots/CoBots.sol:CoBots",
        "label": "lastDrawTimestamp",
        "offset": 0,
        "slot": "1272",
        "type": "t_uint256"
      },
      {
        "astId": 2181,
        "contract": "contracts/co-bots/CoBots.sol:CoBots",
        "label": "currentPrizeMoney",
        "offset": 0,
        "slot": "1273",
        "type": "t_uint256"
      },
      {
        "astId": 2185,
        "contract": "contracts/co-bots/CoBots.sol:CoBots",
        "label": "prizePerAddress",
        "offset": 0,
        "slot": "1274",
        "type": "t_mapping(t_address,t_uint256)"
      },
      {
        "astId": 2187,
        "contract": "contracts/co-bots/CoBots.sol:CoBots",
        "label": "drawCount",
        "offset": 0,
        "slot": "1275",
        "type": "t_uint16"
      },
      {
        "astId": 2189,
        "contract": "contracts/co-bots/CoBots.sol:CoBots",
        "label": "cooperativeRaffleEnabled",
        "offset": 2,
        "slot": "1275",
        "type": "t_bool"
      }
    ],
    "types": {
      "t_address": {
        "encoding": "inplace",
        "label": "address",
        "numberOfBytes": "20"
      },
      "t_array(t_bool)10000_storage": {
        "base": "t_bool",
        "encoding": "inplace",
        "label": "bool[10000]",
        "numberOfBytes": "10016"
      },
      "t_array(t_uint8)10000_storage": {
        "base": "t_uint8",
        "encoding": "inplace",
        "label": "uint8[10000]",
        "numberOfBytes": "10016"
      },
      "t_bool": {
        "encoding": "inplace",
        "label": "bool",
        "numberOfBytes": "1"
      },
      "t_bytes32": {
        "encoding": "inplace",
        "label": "bytes32",
        "numberOfBytes": "32"
      },
      "t_contract(ICoBotsRenderer)3892": {
        "encoding": "inplace",
        "label": "contract ICoBotsRenderer",
        "numberOfBytes": "20"
      },
      "t_contract(LinkTokenInterface)370": {
        "encoding": "inplace",
        "label": "contract LinkTokenInterface",
        "numberOfBytes": "20"
      },
      "t_contract(VRFCoordinatorV2Interface)459": {
        "encoding": "inplace",
        "label": "contract VRFCoordinatorV2Interface",
        "numberOfBytes": "20"
      },
      "t_mapping(t_address,t_bool)": {
        "encoding": "mapping",
        "key": "t_address",
        "label": "mapping(address => bool)",
        "numberOfBytes": "32",
        "value": "t_bool"
      },
      "t_mapping(t_address,t_mapping(t_address,t_bool))": {
        "encoding": "mapping",
        "key": "t_address",
        "label": "mapping(address => mapping(address => bool))",
        "numberOfBytes": "32",
        "value": "t_mapping(t_address,t_bool)"
      },
      "t_mapping(t_address,t_struct(AddressData)4250_storage)": {
        "encoding": "mapping",
        "key": "t_address",
        "label": "mapping(address => struct ERC721A.AddressData)",
        "numberOfBytes": "32",
        "value": "t_struct(AddressData)4250_storage"
      },
      "t_mapping(t_address,t_uint256)": {
        "encoding": "mapping",
        "key": "t_address",
        "label": "mapping(address => uint256)",
        "numberOfBytes": "32",
        "value": "t_uint256"
      },
      "t_mapping(t_uint256,t_address)": {
        "encoding": "mapping",
        "key": "t_uint256",
        "label": "mapping(uint256 => address)",
        "numberOfBytes": "32",
        "value": "t_address"
      },
      "t_mapping(t_uint256,t_struct(TokenOwnership)4243_storage)": {
        "encoding": "mapping",
        "key": "t_uint256",
        "label": "mapping(uint256 => struct ERC721A.TokenOwnership)",
        "numberOfBytes": "32",
        "value": "t_struct(TokenOwnership)4243_storage"
      },
      "t_string_storage": {
        "encoding": "bytes",
        "label": "string",
        "numberOfBytes": "32"
      },
      "t_struct(AddressData)4250_storage": {
        "encoding": "inplace",
        "label": "struct ERC721A.AddressData",
        "members": [
          {
            "astId": 4245,
            "contract": "contracts/co-bots/CoBots.sol:CoBots",
            "label": "balance",
            "offset": 0,
            "slot": "0",
            "type": "t_uint64"
          },
          {
            "astId": 4247,
            "contract": "contracts/co-bots/CoBots.sol:CoBots",
            "label": "numberMinted",
            "offset": 8,
            "slot": "0",
            "type": "t_uint64"
          },
          {
            "astId": 4249,
            "contract": "contracts/co-bots/CoBots.sol:CoBots",
            "label": "numberBurned",
            "offset": 16,
            "slot": "0",
            "type": "t_uint64"
          }
        ],
        "numberOfBytes": "32"
      },
      "t_struct(TokenOwnership)4243_storage": {
        "encoding": "inplace",
        "label": "struct ERC721A.TokenOwnership",
        "members": [
          {
            "astId": 4238,
            "contract": "contracts/co-bots/CoBots.sol:CoBots",
            "label": "addr",
            "offset": 0,
            "slot": "0",
            "type": "t_address"
          },
          {
            "astId": 4240,
            "contract": "contracts/co-bots/CoBots.sol:CoBots",
            "label": "startTimestamp",
            "offset": 20,
            "slot": "0",
            "type": "t_uint64"
          },
          {
            "astId": 4242,
            "contract": "contracts/co-bots/CoBots.sol:CoBots",
            "label": "burned",
            "offset": 28,
            "slot": "0",
            "type": "t_bool"
          }
        ],
        "numberOfBytes": "32"
      },
      "t_uint128": {
        "encoding": "inplace",
        "label": "uint128",
        "numberOfBytes": "16"
      },
      "t_uint16": {
        "encoding": "inplace",
        "label": "uint16",
        "numberOfBytes": "2"
      },
      "t_uint256": {
        "encoding": "inplace",
        "label": "uint256",
        "numberOfBytes": "32"
      },
      "t_uint64": {
        "encoding": "inplace",
        "label": "uint64",
        "numberOfBytes": "8"
      },
      "t_uint8": {
        "encoding": "inplace",
        "label": "uint8",
        "numberOfBytes": "1"
      }
    }
  }
}