{
  "address": "0xFBcf02E85aD43dAC539Db2dE3AdaAc313D6e4ec6",
  "abi": [
    {
      "inputs": [
        {
          "internalType": "string",
          "name": "name_",
          "type": "string"
        },
        {
          "internalType": "string",
          "name": "symbol_",
          "type": "string"
        },
        {
          "internalType": "address",
          "name": "_rendererAddress",
          "type": "address"
        },
        {
          "internalType": "address",
          "name": "vrfCoordinator",
          "type": "address"
        },
        {
          "internalType": "address",
          "name": "link",
          "type": "address"
        },
        {
          "internalType": "bytes32",
          "name": "keyHash",
          "type": "bytes32"
        },
        {
          "components": [
            {
              "internalType": "uint8",
              "name": "cobotsV1Discount",
              "type": "uint8"
            },
            {
              "internalType": "uint16",
              "name": "mintOutFoundersWithdrawalDelay",
              "type": "uint16"
            },
            {
              "internalType": "uint16",
              "name": "grandPrizeDelay",
              "type": "uint16"
            },
            {
              "internalType": "uint16",
              "name": "maxCobots",
              "type": "uint16"
            },
            {
              "internalType": "uint24",
              "name": "contestDuration",
              "type": "uint24"
            },
            {
              "internalType": "uint72",
              "name": "mintPublicPrice",
              "type": "uint72"
            }
          ],
          "internalType": "struct CoBotsV2.Parameters",
          "name": "_parameters",
          "type": "tuple"
        },
        {
          "components": [
            {
              "internalType": "uint16",
              "name": "checkpoint",
              "type": "uint16"
            },
            {
              "internalType": "uint72",
              "name": "amount",
              "type": "uint72"
            },
            {
              "internalType": "bool",
              "name": "isContest",
              "type": "bool"
            }
          ],
          "internalType": "struct CoBotsV2.Prize[]",
          "name": "_prizes",
          "type": "tuple[]"
        },
        {
          "internalType": "address",
          "name": "ens",
          "type": "address"
        },
        {
          "internalType": "address",
          "name": "cobotsV1",
          "type": "address"
        },
        {
          "components": [
            {
              "internalType": "uint256",
              "name": "ensId",
              "type": "uint256"
            },
            {
              "internalType": "uint256",
              "name": "value",
              "type": "uint256"
            },
            {
              "internalType": "uint8",
              "name": "prizeIndex",
              "type": "uint8"
            }
          ],
          "internalType": "struct CoBotsV2.MysteryChallenge",
          "name": "_mysteryChallenge",
          "type": "tuple"
        }
      ],
      "stateMutability": "nonpayable",
      "type": "constructor"
    },
    {
      "inputs": [],
      "name": "AllocationExceeded",
      "type": "error"
    },
    {
      "inputs": [],
      "name": "ApprovalCallerNotOwnerNorApproved",
      "type": "error"
    },
    {
      "inputs": [],
      "name": "ApprovalQueryForNonexistentToken",
      "type": "error"
    },
    {
      "inputs": [],
      "name": "ApprovalToCurrentOwner",
      "type": "error"
    },
    {
      "inputs": [],
      "name": "ApproveToCaller",
      "type": "error"
    },
    {
      "inputs": [],
      "name": "BalanceQueryForZeroAddress",
      "type": "error"
    },
    {
      "inputs": [],
      "name": "BatchLimitExceeded",
      "type": "error"
    },
    {
      "inputs": [],
      "name": "ChainlinkSubscriptionNotFound",
      "type": "error"
    },
    {
      "inputs": [],
      "name": "FailSafeWithdrawalNotEnabled",
      "type": "error"
    },
    {
      "inputs": [],
      "name": "FulfillRequestForNonExistentContest",
      "type": "error"
    },
    {
      "inputs": [],
      "name": "FulfillRequestRedrawn",
      "type": "error"
    },
    {
      "inputs": [],
      "name": "FulfillRequestWithTokenNotOwnedByWinner",
      "type": "error"
    },
    {
      "inputs": [],
      "name": "FulfillRequestWithTokenOutOfBounds",
      "type": "error"
    },
    {
      "inputs": [],
      "name": "FulfillmentAlreadyFulfilled",
      "type": "error"
    },
    {
      "inputs": [],
      "name": "InsufficientFunds",
      "type": "error"
    },
    {
      "inputs": [],
      "name": "MintToZeroAddress",
      "type": "error"
    },
    {
      "inputs": [],
      "name": "MintZeroQuantity",
      "type": "error"
    },
    {
      "inputs": [],
      "name": "MysteryChallengeSenderDoesNotOwnENS",
      "type": "error"
    },
    {
      "inputs": [],
      "name": "MysteryChallengeValueDoesNotMatch",
      "type": "error"
    },
    {
      "inputs": [],
      "name": "NoGiveawayToTrigger",
      "type": "error"
    },
    {
      "inputs": [
        {
          "internalType": "address",
          "name": "have",
          "type": "address"
        },
        {
          "internalType": "address",
          "name": "want",
          "type": "address"
        }
      ],
      "name": "OnlyCoordinatorCanFulfill",
      "type": "error"
    },
    {
      "inputs": [],
      "name": "OwnerIndexOutOfBounds",
      "type": "error"
    },
    {
      "inputs": [],
      "name": "OwnerQueryForNonexistentToken",
      "type": "error"
    },
    {
      "inputs": [],
      "name": "PublicSaleNotOpen",
      "type": "error"
    },
    {
      "inputs": [],
      "name": "PublicSaleOpen",
      "type": "error"
    },
    {
      "inputs": [],
      "name": "RedeemTokenNotOwner",
      "type": "error"
    },
    {
      "inputs": [],
      "name": "ToggleMettaCallerNotOwner",
      "type": "error"
    },
    {
      "inputs": [],
      "name": "TokenIndexOutOfBounds",
      "type": "error"
    },
    {
      "inputs": [],
      "name": "TokenNotMintedOut",
      "type": "error"
    },
    {
      "inputs": [],
      "name": "TotalSupplyExceeded",
      "type": "error"
    },
    {
      "inputs": [],
      "name": "TransferCallerNotOwnerNorApproved",
      "type": "error"
    },
    {
      "inputs": [],
      "name": "TransferFailed",
      "type": "error"
    },
    {
      "inputs": [],
      "name": "TransferFromIncorrectOwner",
      "type": "error"
    },
    {
      "inputs": [],
      "name": "TransferToNonERC721ReceiverImplementer",
      "type": "error"
    },
    {
      "inputs": [],
      "name": "TransferToZeroAddress",
      "type": "error"
    },
    {
      "inputs": [],
      "name": "URIQueryForNonexistentToken",
      "type": "error"
    },
    {
      "inputs": [],
      "name": "WithdrawalFailed",
      "type": "error"
    },
    {
      "inputs": [],
      "name": "WrongPrice",
      "type": "error"
    },
    {
      "anonymous": false,
      "inputs": [
        {
          "indexed": true,
          "internalType": "address",
          "name": "owner",
          "type": "address"
        },
        {
          "indexed": true,
          "internalType": "address",
          "name": "approved",
          "type": "address"
        },
        {
          "indexed": true,
          "internalType": "uint256",
          "name": "tokenId",
          "type": "uint256"
        }
      ],
      "name": "Approval",
      "type": "event"
    },
    {
      "anonymous": false,
      "inputs": [
        {
          "indexed": true,
          "internalType": "address",
          "name": "owner",
          "type": "address"
        },
        {
          "indexed": true,
          "internalType": "address",
          "name": "operator",
          "type": "address"
        },
        {
          "indexed": false,
          "internalType": "bool",
          "name": "approved",
          "type": "bool"
        }
      ],
      "name": "ApprovalForAll",
      "type": "event"
    },
    {
      "anonymous": false,
      "inputs": [
        {
          "indexed": true,
          "internalType": "uint256",
          "name": "requestId",
          "type": "uint256"
        },
        {
          "components": [
            {
              "internalType": "uint16",
              "name": "checkpoint",
              "type": "uint16"
            },
            {
              "internalType": "uint72",
              "name": "amount",
              "type": "uint72"
            },
            {
              "internalType": "bool",
              "name": "isContest",
              "type": "bool"
            }
          ],
          "indexed": false,
          "internalType": "struct CoBotsV2.Prize",
          "name": "prize",
          "type": "tuple"
        }
      ],
      "name": "CheckpointDrawn",
      "type": "event"
    },
    {
      "anonymous": false,
      "inputs": [
        {
          "indexed": true,
          "internalType": "uint256",
          "name": "requestId",
          "type": "uint256"
        },
        {
          "components": [
            {
              "internalType": "uint16",
              "name": "checkpoint",
              "type": "uint16"
            },
            {
              "internalType": "uint72",
              "name": "amount",
              "type": "uint72"
            },
            {
              "internalType": "bool",
              "name": "isContest",
              "type": "bool"
            }
          ],
          "indexed": false,
          "internalType": "struct CoBotsV2.Prize",
          "name": "prize",
          "type": "tuple"
        },
        {
          "components": [
            {
              "internalType": "address",
              "name": "winner",
              "type": "address"
            },
            {
              "internalType": "uint16",
              "name": "tokenId",
              "type": "uint16"
            }
          ],
          "indexed": false,
          "internalType": "struct CoBotsV2.Winner",
          "name": "winner",
          "type": "tuple"
        }
      ],
      "name": "CheckpointFulfilled",
      "type": "event"
    },
    {
      "anonymous": false,
      "inputs": [],
      "name": "GiveawayFinished",
      "type": "event"
    },
    {
      "anonymous": false,
      "inputs": [
        {
          "indexed": true,
          "internalType": "uint256",
          "name": "tokenId",
          "type": "uint256"
        },
        {
          "indexed": false,
          "internalType": "bool",
          "name": "isMetta",
          "type": "bool"
        }
      ],
      "name": "MettaToggled",
      "type": "event"
    },
    {
      "anonymous": false,
      "inputs": [
        {
          "indexed": true,
          "internalType": "address",
          "name": "previousOwner",
          "type": "address"
        },
        {
          "indexed": true,
          "internalType": "address",
          "name": "newOwner",
          "type": "address"
        }
      ],
      "name": "OwnershipTransferred",
      "type": "event"
    },
    {
      "anonymous": false,
      "inputs": [
        {
          "indexed": true,
          "internalType": "address",
          "name": "renderer",
          "type": "address"
        }
      ],
      "name": "RendererContractUpdated",
      "type": "event"
    },
    {
      "anonymous": false,
      "inputs": [
        {
          "indexed": true,
          "internalType": "address",
          "name": "from",
          "type": "address"
        },
        {
          "indexed": true,
          "internalType": "address",
          "name": "to",
          "type": "address"
        },
        {
          "indexed": true,
          "internalType": "uint256",
          "name": "tokenId",
          "type": "uint256"
        }
      ],
      "name": "Transfer",
      "type": "event"
    },
    {
      "anonymous": false,
      "inputs": [
        {
          "indexed": false,
          "internalType": "uint256",
          "name": "amount",
          "type": "uint256"
        }
      ],
      "name": "Withdrawal",
      "type": "event"
    },
    {
      "inputs": [],
      "name": "MINT_BATCH_LIMIT",
      "outputs": [
        {
          "internalType": "uint8",
          "name": "",
          "type": "uint8"
        }
      ],
      "stateMutability": "view",
      "type": "function"
    },
    {
      "inputs": [],
      "name": "MINT_FOUNDERS",
      "outputs": [
        {
          "internalType": "uint8",
          "name": "",
          "type": "uint8"
        }
      ],
      "stateMutability": "view",
      "type": "function"
    },
    {
      "inputs": [],
      "name": "PARAMETERS",
      "outputs": [
        {
          "internalType": "uint8",
          "name": "cobotsV1Discount",
          "type": "uint8"
        },
        {
          "internalType": "uint16",
          "name": "mintOutFoundersWithdrawalDelay",
          "type": "uint16"
        },
        {
          "internalType": "uint16",
          "name": "grandPrizeDelay",
          "type": "uint16"
        },
        {
          "internalType": "uint16",
          "name": "maxCobots",
          "type": "uint16"
        },
        {
          "internalType": "uint24",
          "name": "contestDuration",
          "type": "uint24"
        },
        {
          "internalType": "uint72",
          "name": "mintPublicPrice",
          "type": "uint72"
        }
      ],
      "stateMutability": "view",
      "type": "function"
    },
    {
      "inputs": [
        {
          "internalType": "uint256",
          "name": "",
          "type": "uint256"
        }
      ],
      "name": "PRIZES",
      "outputs": [
        {
          "internalType": "uint16",
          "name": "checkpoint",
          "type": "uint16"
        },
        {
          "internalType": "uint72",
          "name": "amount",
          "type": "uint72"
        },
        {
          "internalType": "bool",
          "name": "isContest",
          "type": "bool"
        }
      ],
      "stateMutability": "view",
      "type": "function"
    },
    {
      "inputs": [
        {
          "internalType": "uint256",
          "name": "value",
          "type": "uint256"
        },
        {
          "internalType": "uint256",
          "name": "tokenId",
          "type": "uint256"
        }
      ],
      "name": "TheAnswer",
      "outputs": [],
      "stateMutability": "nonpayable",
      "type": "function"
    },
    {
      "inputs": [
        {
          "internalType": "address",
          "name": "to",
          "type": "address"
        },
        {
          "internalType": "uint256",
          "name": "tokenId",
          "type": "uint256"
        }
      ],
      "name": "approve",
      "outputs": [],
      "stateMutability": "nonpayable",
      "type": "function"
    },
    {
      "inputs": [
        {
          "internalType": "address",
          "name": "owner",
          "type": "address"
        }
      ],
      "name": "balanceOf",
      "outputs": [
        {
          "internalType": "uint256",
          "name": "",
          "type": "uint256"
        }
      ],
      "stateMutability": "view",
      "type": "function"
    },
    {
      "inputs": [],
      "name": "cancelSubscription",
      "outputs": [],
      "stateMutability": "nonpayable",
      "type": "function"
    },
    {
      "inputs": [],
      "name": "chainlinkSubscriptionId",
      "outputs": [
        {
          "internalType": "uint64",
          "name": "",
          "type": "uint64"
        }
      ],
      "stateMutability": "view",
      "type": "function"
    },
    {
      "inputs": [
        {
          "internalType": "uint256",
          "name": "",
          "type": "uint256"
        }
      ],
      "name": "coBotsSeeds",
      "outputs": [
        {
          "internalType": "uint8",
          "name": "",
          "type": "uint8"
        }
      ],
      "stateMutability": "view",
      "type": "function"
    },
    {
      "inputs": [
        {
          "internalType": "uint256",
          "name": "",
          "type": "uint256"
        }
      ],
      "name": "coBotsV1Redeemed",
      "outputs": [
        {
          "internalType": "bool",
          "name": "",
          "type": "bool"
        }
      ],
      "stateMutability": "view",
      "type": "function"
    },
    {
      "inputs": [
        {
          "internalType": "uint96",
          "name": "amount",
          "type": "uint96"
        }
      ],
      "name": "createSubscriptionAndFund",
      "outputs": [],
      "stateMutability": "nonpayable",
      "type": "function"
    },
    {
      "inputs": [],
      "name": "draw",
      "outputs": [],
      "stateMutability": "nonpayable",
      "type": "function"
    },
    {
      "inputs": [],
      "name": "drawnAmount",
      "outputs": [
        {
          "internalType": "uint256",
          "name": "",
          "type": "uint256"
        }
      ],
      "stateMutability": "view",
      "type": "function"
    },
    {
      "inputs": [
        {
          "internalType": "uint256",
          "name": "_tokenId",
          "type": "uint256"
        }
      ],
      "name": "exists",
      "outputs": [
        {
          "internalType": "bool",
          "name": "",
          "type": "bool"
        }
      ],
      "stateMutability": "view",
      "type": "function"
    },
    {
      "inputs": [],
      "name": "failsafeWithdraw",
      "outputs": [],
      "stateMutability": "nonpayable",
      "type": "function"
    },
    {
      "inputs": [
        {
          "internalType": "uint256",
          "name": "giveawayIndex",
          "type": "uint256"
        },
        {
          "internalType": "address",
          "name": "winner",
          "type": "address"
        },
        {
          "internalType": "uint256",
          "name": "selectedToken",
          "type": "uint256"
        }
      ],
      "name": "fulfillContest",
      "outputs": [],
      "stateMutability": "nonpayable",
      "type": "function"
    },
    {
      "inputs": [
        {
          "internalType": "uint256",
          "name": "",
          "type": "uint256"
        }
      ],
      "name": "fulfillments",
      "outputs": [
        {
          "components": [
            {
              "internalType": "uint16",
              "name": "checkpoint",
              "type": "uint16"
            },
            {
              "internalType": "uint72",
              "name": "amount",
              "type": "uint72"
            },
            {
              "internalType": "bool",
              "name": "isContest",
              "type": "bool"
            }
          ],
          "internalType": "struct CoBotsV2.Prize",
          "name": "prize",
          "type": "tuple"
        },
        {
          "internalType": "bool",
          "name": "fulfilled",
          "type": "bool"
        },
        {
          "components": [
            {
              "internalType": "address",
              "name": "winner",
              "type": "address"
            },
            {
              "internalType": "uint16",
              "name": "tokenId",
              "type": "uint16"
            }
          ],
          "internalType": "struct CoBotsV2.Winner",
          "name": "winner",
          "type": "tuple"
        }
      ],
      "stateMutability": "view",
      "type": "function"
    },
    {
      "inputs": [
        {
          "internalType": "uint256",
          "name": "tokenId",
          "type": "uint256"
        }
      ],
      "name": "getApproved",
      "outputs": [
        {
          "internalType": "address",
          "name": "",
          "type": "address"
        }
      ],
      "stateMutability": "view",
      "type": "function"
    },
    {
      "inputs": [],
      "name": "getOrderedFulfillments",
      "outputs": [
        {
          "components": [
            {
              "components": [
                {
                  "internalType": "uint16",
                  "name": "checkpoint",
                  "type": "uint16"
                },
                {
                  "internalType": "uint72",
                  "name": "amount",
                  "type": "uint72"
                },
                {
                  "internalType": "bool",
                  "name": "isContest",
                  "type": "bool"
                }
              ],
              "internalType": "struct CoBotsV2.Prize",
              "name": "prize",
              "type": "tuple"
            },
            {
              "internalType": "bool",
              "name": "fulfilled",
              "type": "bool"
            },
            {
              "components": [
                {
                  "internalType": "address",
                  "name": "winner",
                  "type": "address"
                },
                {
                  "internalType": "uint16",
                  "name": "tokenId",
                  "type": "uint16"
                }
              ],
              "internalType": "struct CoBotsV2.Winner",
              "name": "winner",
              "type": "tuple"
            }
          ],
          "internalType": "struct CoBotsV2.Fulfillment[]",
          "name": "",
          "type": "tuple[]"
        }
      ],
      "stateMutability": "view",
      "type": "function"
    },
    {
      "inputs": [
        {
          "internalType": "address",
          "name": "owner",
          "type": "address"
        },
        {
          "internalType": "address",
          "name": "operator",
          "type": "address"
        }
      ],
      "name": "isApprovedForAll",
      "outputs": [
        {
          "internalType": "bool",
          "name": "",
          "type": "bool"
        }
      ],
      "stateMutability": "view",
      "type": "function"
    },
    {
      "inputs": [
        {
          "internalType": "uint256",
          "name": "tokenId",
          "type": "uint256"
        }
      ],
      "name": "isMettaEnabled",
      "outputs": [
        {
          "internalType": "bool",
          "name": "",
          "type": "bool"
        }
      ],
      "stateMutability": "view",
      "type": "function"
    },
    {
      "inputs": [],
      "name": "isMintedOut",
      "outputs": [
        {
          "internalType": "bool",
          "name": "",
          "type": "bool"
        }
      ],
      "stateMutability": "view",
      "type": "function"
    },
    {
      "inputs": [],
      "name": "isPublicSaleOpen",
      "outputs": [
        {
          "internalType": "bool",
          "name": "",
          "type": "bool"
        }
      ],
      "stateMutability": "view",
      "type": "function"
    },
    {
      "inputs": [
        {
          "internalType": "address",
          "name": "to",
          "type": "address"
        },
        {
          "internalType": "uint256",
          "name": "quantity",
          "type": "uint256"
        }
      ],
      "name": "mintFounders",
      "outputs": [],
      "stateMutability": "nonpayable",
      "type": "function"
    },
    {
      "inputs": [
        {
          "internalType": "uint256",
          "name": "quantity",
          "type": "uint256"
        },
        {
          "internalType": "uint256[]",
          "name": "tokenIdsV1",
          "type": "uint256[]"
        }
      ],
      "name": "mintPublicSale",
      "outputs": [],
      "stateMutability": "payable",
      "type": "function"
    },
    {
      "inputs": [],
      "name": "mintedOutTimestamp",
      "outputs": [
        {
          "internalType": "uint256",
          "name": "",
          "type": "uint256"
        }
      ],
      "stateMutability": "view",
      "type": "function"
    },
    {
      "inputs": [],
      "name": "name",
      "outputs": [
        {
          "internalType": "string",
          "name": "",
          "type": "string"
        }
      ],
      "stateMutability": "view",
      "type": "function"
    },
    {
      "inputs": [],
      "name": "openPublicSale",
      "outputs": [],
      "stateMutability": "nonpayable",
      "type": "function"
    },
    {
      "inputs": [],
      "name": "owner",
      "outputs": [
        {
          "internalType": "address",
          "name": "",
          "type": "address"
        }
      ],
      "stateMutability": "view",
      "type": "function"
    },
    {
      "inputs": [
        {
          "internalType": "uint256",
          "name": "tokenId",
          "type": "uint256"
        }
      ],
      "name": "ownerOf",
      "outputs": [
        {
          "internalType": "address",
          "name": "",
          "type": "address"
        }
      ],
      "stateMutability": "view",
      "type": "function"
    },
    {
      "inputs": [],
      "name": "publicSaleStartTimestamp",
      "outputs": [
        {
          "internalType": "uint256",
          "name": "",
          "type": "uint256"
        }
      ],
      "stateMutability": "view",
      "type": "function"
    },
    {
      "inputs": [
        {
          "internalType": "uint256",
          "name": "requestId",
          "type": "uint256"
        },
        {
          "internalType": "uint256[]",
          "name": "randomWords",
          "type": "uint256[]"
        }
      ],
      "name": "rawFulfillRandomWords",
      "outputs": [],
      "stateMutability": "nonpayable",
      "type": "function"
    },
    {
      "inputs": [],
      "name": "redrawPendingFulfillments",
      "outputs": [],
      "stateMutability": "nonpayable",
      "type": "function"
    },
    {
      "inputs": [],
      "name": "renderer",
      "outputs": [
        {
          "internalType": "contract ICoBotsRendererV2",
          "name": "",
          "type": "address"
        }
      ],
      "stateMutability": "view",
      "type": "function"
    },
    {
      "inputs": [],
      "name": "renderingContractAddress",
      "outputs": [
        {
          "internalType": "address",
          "name": "",
          "type": "address"
        }
      ],
      "stateMutability": "view",
      "type": "function"
    },
    {
      "inputs": [],
      "name": "renounceOwnership",
      "outputs": [],
      "stateMutability": "nonpayable",
      "type": "function"
    },
    {
      "inputs": [
        {
          "internalType": "uint256",
          "name": "",
          "type": "uint256"
        }
      ],
      "name": "requestIds",
      "outputs": [
        {
          "internalType": "uint256",
          "name": "",
          "type": "uint256"
        }
      ],
      "stateMutability": "view",
      "type": "function"
    },
    {
      "inputs": [
        {
          "internalType": "address",
          "name": "from",
          "type": "address"
        },
        {
          "internalType": "address",
          "name": "to",
          "type": "address"
        },
        {
          "internalType": "uint256",
          "name": "tokenId",
          "type": "uint256"
        }
      ],
      "name": "safeTransferFrom",
      "outputs": [],
      "stateMutability": "nonpayable",
      "type": "function"
    },
    {
      "inputs": [
        {
          "internalType": "address",
          "name": "from",
          "type": "address"
        },
        {
          "internalType": "address",
          "name": "to",
          "type": "address"
        },
        {
          "internalType": "uint256",
          "name": "tokenId",
          "type": "uint256"
        },
        {
          "internalType": "bytes",
          "name": "_data",
          "type": "bytes"
        }
      ],
      "name": "safeTransferFrom",
      "outputs": [],
      "stateMutability": "nonpayable",
      "type": "function"
    },
    {
      "inputs": [
        {
          "internalType": "address",
          "name": "operator",
          "type": "address"
        },
        {
          "internalType": "bool",
          "name": "approved",
          "type": "bool"
        }
      ],
      "name": "setApprovalForAll",
      "outputs": [],
      "stateMutability": "nonpayable",
      "type": "function"
    },
    {
      "inputs": [
        {
          "internalType": "address",
          "name": "_renderingContractAddress",
          "type": "address"
        }
      ],
      "name": "setRenderingContractAddress",
      "outputs": [],
      "stateMutability": "nonpayable",
      "type": "function"
    },
    {
      "inputs": [
        {
          "internalType": "bytes4",
          "name": "interfaceId",
          "type": "bytes4"
        }
      ],
      "name": "supportsInterface",
      "outputs": [
        {
          "internalType": "bool",
          "name": "",
          "type": "bool"
        }
      ],
      "stateMutability": "view",
      "type": "function"
    },
    {
      "inputs": [],
      "name": "symbol",
      "outputs": [
        {
          "internalType": "string",
          "name": "",
          "type": "string"
        }
      ],
      "stateMutability": "view",
      "type": "function"
    },
    {
      "inputs": [
        {
          "internalType": "uint256[]",
          "name": "tokenIds",
          "type": "uint256[]"
        }
      ],
      "name": "toggleMetta",
      "outputs": [],
      "stateMutability": "nonpayable",
      "type": "function"
    },
    {
      "inputs": [
        {
          "internalType": "uint256",
          "name": "index",
          "type": "uint256"
        }
      ],
      "name": "tokenByIndex",
      "outputs": [
        {
          "internalType": "uint256",
          "name": "",
          "type": "uint256"
        }
      ],
      "stateMutability": "view",
      "type": "function"
    },
    {
      "inputs": [
        {
          "internalType": "address",
          "name": "owner",
          "type": "address"
        },
        {
          "internalType": "uint256",
          "name": "index",
          "type": "uint256"
        }
      ],
      "name": "tokenOfOwnerByIndex",
      "outputs": [
        {
          "internalType": "uint256",
          "name": "",
          "type": "uint256"
        }
      ],
      "stateMutability": "view",
      "type": "function"
    },
    {
      "inputs": [
        {
          "internalType": "uint256",
          "name": "_tokenId",
          "type": "uint256"
        }
      ],
      "name": "tokenURI",
      "outputs": [
        {
          "internalType": "string",
          "name": "",
          "type": "string"
        }
      ],
      "stateMutability": "view",
      "type": "function"
    },
    {
      "inputs": [],
      "name": "totalSupply",
      "outputs": [
        {
          "internalType": "uint256",
          "name": "",
          "type": "uint256"
        }
      ],
      "stateMutability": "view",
      "type": "function"
    },
    {
      "inputs": [
        {
          "internalType": "address",
          "name": "from",
          "type": "address"
        },
        {
          "internalType": "address",
          "name": "to",
          "type": "address"
        },
        {
          "internalType": "uint256",
          "name": "tokenId",
          "type": "uint256"
        }
      ],
      "name": "transferFrom",
      "outputs": [],
      "stateMutability": "nonpayable",
      "type": "function"
    },
    {
      "inputs": [
        {
          "internalType": "address",
          "name": "newOwner",
          "type": "address"
        }
      ],
      "name": "transferOwnership",
      "outputs": [],
      "stateMutability": "nonpayable",
      "type": "function"
    },
    {
      "inputs": [],
      "name": "withdraw",
      "outputs": [],
      "stateMutability": "nonpayable",
      "type": "function"
    },
    {
      "stateMutability": "payable",
      "type": "receive"
    }
  ],
  "transactionHash": "0xccac90ececed4193af814b3286574d63a9c195b71ef5bc7f1e0d9879711e02db",
  "args": [
    "Co-Bots 2.0",
    "CBTE",
    "0x5c13dce454e0c49261027C426b4Ac95d65A52F6b",
    "0x6168499c0cFfCaCD319c818142124B7A15E857ab",
    "0x01BE23585060835E02B77ef475b0Cc51aA1e0709",
    "0xd89b2bf150e3b9e13446986e571fb9cab24b13cea0a43ea20a6049a85cc807cc",
    {
      "cobotsV1Discount": 2,
      "mintOutFoundersWithdrawalDelay": 7200,
      "grandPrizeDelay": 3600,
      "maxCobots": 10000,
      "contestDuration": 2419200,
      "mintPublicPrice": "50000000000000"
    },
    [
      {
        "checkpoint": 100,
        "amount": "1000000000000000",
        "isContest": false
      },
      {
        "checkpoint": 200,
        "amount": "2000000000000000",
        "isContest": false
      },
      {
        "checkpoint": 300,
        "amount": "3000000000000000",
        "isContest": false
      },
      {
        "checkpoint": 400,
        "amount": "4000000000000000",
        "isContest": false
      },
      {
        "checkpoint": 500,
        "amount": "1000000000000000",
        "isContest": true
      },
      {
        "checkpoint": 500,
        "amount": "1000000000000000",
        "isContest": true
      },
      {
        "checkpoint": 500,
        "amount": "1000000000000000",
        "isContest": true
      },
      {
        "checkpoint": 500,
        "amount": "1000000000000000",
        "isContest": true
      },
      {
        "checkpoint": 500,
        "amount": "1000000000000000",
        "isContest": true
      },
      {
        "checkpoint": 750,
        "amount": "6000000000000000",
        "isContest": false
      },
      {
        "checkpoint": 1000,
        "amount": "7000000000000000",
        "isContest": false
      },
      {
        "checkpoint": 1500,
        "amount": "8000000000000000",
        "isContest": false
      },
      {
        "checkpoint": 2000,
        "amount": "9000000000000000",
        "isContest": false
      },
      {
        "checkpoint": 3000,
        "amount": "2000000000000000",
        "isContest": true
      },
      {
        "checkpoint": 3000,
        "amount": "2000000000000000",
        "isContest": true
      },
      {
        "checkpoint": 3000,
        "amount": "2000000000000000",
        "isContest": true
      },
      {
        "checkpoint": 3000,
        "amount": "2000000000000000",
        "isContest": true
      },
      {
        "checkpoint": 3000,
        "amount": "2000000000000000",
        "isContest": true
      },
      {
        "checkpoint": 4000,
        "amount": "12000000000000000",
        "isContest": false
      },
      {
        "checkpoint": 5000,
        "amount": "14000000000000000",
        "isContest": false
      },
      {
        "checkpoint": 5000,
        "amount": "50000000000000000",
        "isContest": true
      },
      {
        "checkpoint": 6000,
        "amount": "16000000000000000",
        "isContest": false
      },
      {
        "checkpoint": 7000,
        "amount": "18000000000000000",
        "isContest": false
      },
      {
        "checkpoint": 8000,
        "amount": "4000000000000000",
        "isContest": true
      },
      {
        "checkpoint": 8000,
        "amount": "4000000000000000",
        "isContest": true
      },
      {
        "checkpoint": 8000,
        "amount": "4000000000000000",
        "isContest": true
      },
      {
        "checkpoint": 8000,
        "amount": "4000000000000000",
        "isContest": true
      },
      {
        "checkpoint": 8000,
        "amount": "4000000000000000",
        "isContest": true
      },
      {
        "checkpoint": 9000,
        "amount": "22000000000000000",
        "isContest": false
      },
      {
        "checkpoint": 10000,
        "amount": "24000000000000000",
        "isContest": false
      },
      {
        "checkpoint": 10000,
        "amount": "69000000000000000",
        "isContest": false
      }
    ],
    "0x57f1887a8BF19b14fC0dF6Fd9B2acc9Af147eA85",
    "0x1dffc87aAd86c95ca8bD611b2e63BB017578b77e",
    {
      "ensId": "50339762084112735281647694152894396699789156759838299774246919152996091353870",
      "value": 42,
      "prizeIndex": 20
    }
  ],
  "numDeployments": 7,
  "solcInputHash": "44458d1f6c63339e05c5a85dcf1a7fc0",
  "bytecode": "0x60a06040523480156200001157600080fd5b50604051620054cc380380620054cc833981016040819052620000349162000827565b878b8b81600190805190602001906200004f92919062000372565b5080516200006590600290602084019062000372565b5050506001600160a01b03166080526200007f3362000294565b60016008556200008f89620002e6565b601780546001600160a01b03808b166001600160a01b03199283161790925560188054928a169290911691909117905560198690558451600b80546020880151604089015160608a015160808b015160a08c01516001600160481b03166a010000000000000000000002600160501b600160981b031962ffffff9092166701000000000000000291909116600160381b600160981b031961ffff938416650100000000000261ffff60281b199585166301000000029590951666ffffffff00000019949096166101000262ffffff1990971660ff9099169890981795909517919091169290921717939093161791909117905560005b84518110156200022f57600c858281518110620001a657620001a662000988565b60209081029190910181015182546001810184556000938452928290208151930180549282015160409092015115156b0100000000000000000000000260ff60581b196001600160481b0390931662010000026001600160581b031990941661ffff909516949094179290921716919091179055806200022681620009b4565b91505062000185565b50601080546001600160a01b03199081166001600160a01b03958616179091556011805490911692909316919091179091558051600d556020810151600e5560400151600f805460ff191660ff9092169190911790555062000a549650505050505050565b600780546001600160a01b038381166001600160a01b0319831681179093556040519116919082907f8be0079c531659141344cd1fd0a4f28419497f9722a3daafe3b4186f6b6457e090600090a35050565b6007546001600160a01b031633146200031c5760405162461bcd60e51b81526004016200031390620009d2565b60405180910390fd5b601280546001600160a01b0383166001600160a01b0319918216811790925560138054909116821790556040517f2926c01a1380ae82a404a8c554ad486a6842a4a320d80b770e2930d763825e4f90600090a250565b828054620003809062000a23565b90600052602060002090601f016020900481019282620003a45760008555620003ef565b82601f10620003bf57805160ff1916838001178555620003ef565b82800160010185558215620003ef579182015b82811115620003ef578251825591602001919060010190620003d2565b50620003fd92915062000401565b5090565b5b80821115620003fd576000815560010162000402565b634e487b7160e01b600052604160045260246000fd5b601f19601f83011681016001600160401b038111828210171562000456576200045662000418565b6040525050565b60006200046960405190565b90506200047782826200042e565b919050565b60006001600160401b0382111562000498576200049862000418565b601f19601f83011660200192915050565b60005b83811015620004c6578181015183820152602001620004ac565b83811115620004d6576000848401525b50505050565b6000620004f3620004ed846200047c565b6200045d565b905082815260208101848484011115620005105762000510600080fd5b6200051d848285620004a9565b509392505050565b600082601f8301126200053b576200053b600080fd5b81516200054d848260208601620004dc565b949350505050565b60006001600160a01b0382165b92915050565b620005738162000555565b81146200057f57600080fd5b50565b8051620005628162000568565b8062000573565b805162000562816200058f565b60ff811662000573565b80516200056281620005a3565b61ffff811662000573565b80516200056281620005ba565b62ffffff811662000573565b80516200056281620005d2565b6001600160481b03811662000573565b80516200056281620005eb565b600060c082840312156200061f576200061f600080fd5b6200062b60c06200045d565b905060006200063b8484620005ad565b9082015260206200064f84848301620005c5565b9082015260406200066384848301620005c5565b9082015260606200067784848301620005c5565b9082015260806200068b84848301620005de565b9082015260a06200069f84848301620005fb565b9082015292915050565b60006001600160401b03821115620006c557620006c562000418565b5060209081020190565b80151562000573565b80516200056281620006cf565b600060608284031215620006fc57620006fc600080fd5b6200070860606200045d565b90506000620007188484620005c5565b9082015260206200072c84848301620005fb565b9082015260406200069f84848301620006d8565b600062000751620004ed84620006a9565b83815290506020810160608402830185811115620007725762000772600080fd5b835b818110156200079a57620007898782620006e5565b835260209092019160600162000774565b5050509392505050565b600082601f830112620007ba57620007ba600080fd5b81516200054d84826020860162000740565b600060608284031215620007e357620007e3600080fd5b620007ef60606200045d565b90506000620007ff848462000596565b908201526020620008138484830162000596565b9082015260406200069f84848301620005ad565b60008060008060008060008060008060006102408c8e0312156200084e576200084e600080fd5b8b516001600160401b03811115620008695762000869600080fd5b620008778e828f0162000525565b60208e0151909c5090506001600160401b038111156200089a576200089a600080fd5b620008a88e828f0162000525565b9a50506040620008bb8e828f0162000582565b9950506060620008ce8e828f0162000582565b9850506080620008e18e828f0162000582565b97505060a0620008f48e828f0162000596565b96505060c0620009078e828f0162000608565b6101808e015190965090506001600160401b038111156200092b576200092b600080fd5b620009398e828f01620007a4565b9450506101a06200094d8e828f0162000582565b9350506101c0620009618e828f0162000582565b9250506101e0620009758e828f01620007cc565b9150509295989b509295989b9093969950565b634e487b7160e01b600052603260045260246000fd5b634e487b7160e01b600052601160045260246000fd5b6000600019821415620009cb57620009cb6200099e565b5060010190565b60208082528181019081527f4f776e61626c653a2063616c6c6572206973206e6f7420746865206f776e657260408301526060820162000562565b634e487b7160e01b600052602260045260246000fd5b60028104600182168062000a3857607f821691505b6020821081141562000a4e5762000a4e62000a0d565b50919050565b608051614a5562000a77600039600081816114aa01526114d20152614a556000f3fe6080604052600436106103435760003560e01c80635a08cae5116101b0578063a22cb465116100ec578063c87b56dd11610095578063dfc7e2c91161006f578063dfc7e2c914610a31578063e10a64dd14610a51578063e985e9c514610a64578063f2fde38b14610aad57600080fd5b8063c87b56dd146109db578063cf62c8ab146109fb578063d7822c9914610a1b57600080fd5b8063b585209b116100c6578063b585209b14610986578063b88d4fde1461099b578063c074f412146109bb57600080fd5b8063a22cb465146108cb578063a715b15b146108eb578063a9b5898f1461090d57600080fd5b806381870fd1116101595780638ada6b0f116101335780638ada6b0f146108555780638da5cb5b1461088257806395d89b41146108a05780639a14f79d146108b557600080fd5b806381870fd11461080057806386758e71146108155780638796ba8c1461083557600080fd5b806370a082311161018a57806370a082311461079b578063715018a6146107bb57806372c64f16146107d057600080fd5b80635a08cae5146106b25780636352211e1461076457806368d99f7c1461078457600080fd5b80631fd9d0811161027f5780632f745c591161022857806349cae6121161020257806349cae612146106325780634e02099f146106525780634f558e79146106725780634f6ccce71461069257600080fd5b80632f745c59146105dd5780633ccfd60b146105fd57806342842e0e1461061257600080fd5b806321e182081161025957806321e182081461059357806323b872dd146105a857806324e9edb0146105c857600080fd5b80631fd9d081146105165780631fe543e31461054557806320c5780c1461056557600080fd5b80630eecae21116102ec578063143a3f92116102c6578063143a3f921461049057806318160ddd146104a55780631a6949e3146104e15780631fafadbc146104f657600080fd5b80630eecae21146104395780630f8236081461044e57806312b40a9f1461047057600080fd5b8063081812fc1161031d578063081812fc146103ca578063095ea7b3146103f75780630badbd071461041957600080fd5b806301ffc9a71461034f57806304035a921461038557806306fdde03146103a857600080fd5b3661034a57005b600080fd5b34801561035b57600080fd5b5061036f61036a366004613b99565b610acd565b60405161037c9190613bc4565b60405180910390f35b34801561039157600080fd5b5061039b600a5481565b60405161037c9190613bd8565b3480156103b457600080fd5b506103bd610b9e565b60405161037c9190613c44565b3480156103d657600080fd5b506103ea6103e5366004613c6d565b610c30565b60405161037c9190613ca8565b34801561040357600080fd5b50610417610412366004613cca565b610c8d565b005b34801561042557600080fd5b50610417610434366004613d07565b610d4d565b34801561044557600080fd5b50610417610ea8565b34801561045a57600080fd5b50610463600381565b60405161037c9190613d32565b34801561047c57600080fd5b5061041761048b366004613d40565b611379565b34801561049c57600080fd5b50610463602081565b3480156104b157600080fd5b5061039b6000546001600160801b0370010000000000000000000000000000000082048116918116919091031690565b3480156104ed57600080fd5b5061036f611406565b34801561050257600080fd5b50610463610511366004613c6d565b611421565b34801561052257600080fd5b50610536610531366004613c6d565b611455565b60405161037c93929190613d7c565b34801561055157600080fd5b50610417610560366004613ea9565b61149f565b34801561057157600080fd5b50601a546105869067ffffffffffffffff1681565b60405161037c9190613f07565b34801561059f57600080fd5b50610417611533565b3480156105b457600080fd5b506104176105c3366004613f15565b6116a7565b3480156105d457600080fd5b506104176116b2565b3480156105e957600080fd5b5061039b6105f8366004613cca565b61177a565b34801561060957600080fd5b50610417611890565b34801561061e57600080fd5b5061041761062d366004613f15565b611d07565b34801561063e57600080fd5b5061041761064d366004613f65565b611d22565b34801561065e57600080fd5b5061041761066d366004613cca565b611d97565b34801561067e57600080fd5b5061036f61068d366004613c6d565b611e1c565b34801561069e57600080fd5b5061039b6106ad366004613c6d565b611e27565b3480156106be57600080fd5b506107556106cd366004613c6d565b601b602090815260009182526040918290208251606081018452815461ffff808216835268ffffffffffffffffff620100008304168386015260ff6b0100000000000000000000009092048216151583870152600184015486518088019097526002909401546001600160a01b0381168752600160a01b900416938501939093529291169083565b60405161037c93929190613fda565b34801561077057600080fd5b506103ea61077f366004613c6d565b611eeb565b34801561079057600080fd5b50600a54151561036f565b3480156107a757600080fd5b5061039b6107b6366004613d40565b611efd565b3480156107c757600080fd5b50610417611f65565b3480156107dc57600080fd5b5061036f6107eb366004613c6d565b60156020526000908152604090205460ff1681565b34801561080c57600080fd5b50610417611f9b565b34801561082157600080fd5b5061036f610830366004613c6d565b612349565b34801561084157600080fd5b5061039b610850366004613c6d565b612386565b34801561086157600080fd5b50601354610875906001600160a01b031681565b60405161037c9190614044565b34801561088e57600080fd5b506007546001600160a01b03166103ea565b3480156108ac57600080fd5b506103bd6123a7565b3480156108c157600080fd5b5061039b601d5481565b3480156108d757600080fd5b506104176108e6366004614065565b6123b6565b3480156108f757600080fd5b50610900612468565b60405161037c9190614128565b34801561091957600080fd5b50600b546109749060ff81169061ffff610100820481169163010000008104821691650100000000008204169062ffffff6701000000000000008204169068ffffffffffffffffff6a01000000000000000000009091041686565b60405161037c96959493929190614144565b34801561099257600080fd5b506104176125fa565b3480156109a757600080fd5b506104176109b6366004614235565b612669565b3480156109c757600080fd5b506012546103ea906001600160a01b031681565b3480156109e757600080fd5b506103bd6109f6366004613c6d565b6126a3565b348015610a0757600080fd5b50610417610a163660046142d3565b6127b5565b348015610a2757600080fd5b5061039b60095481565b348015610a3d57600080fd5b50610417610a4c366004614346565b6129ae565b610417610a5f366004613ea9565b612a1e565b348015610a7057600080fd5b5061036f610a7f36600461438e565b6001600160a01b03918216600090815260066020908152604080832093909416825291909152205460ff1690565b348015610ab957600080fd5b50610417610ac8366004613d40565b612d67565b60006001600160e01b031982167f80ac58cd000000000000000000000000000000000000000000000000000000001480610b3057506001600160e01b031982167f5b5e139f00000000000000000000000000000000000000000000000000000000145b80610b6457506001600160e01b031982167f780e9d6300000000000000000000000000000000000000000000000000000000145b80610b9857507f01ffc9a7000000000000000000000000000000000000000000000000000000006001600160e01b03198316145b92915050565b606060018054610bad906143d7565b80601f0160208091040260200160405190810160405280929190818152602001828054610bd9906143d7565b8015610c265780601f10610bfb57610100808354040283529160200191610c26565b820191906000526020600020905b815481529060010190602001808311610c0957829003601f168201915b5050505050905090565b6000610c3b82612dc3565b610c71576040517fcf4700e400000000000000000000000000000000000000000000000000000000815260040160405180910390fd5b506000908152600560205260409020546001600160a01b031690565b6000610c9882611eeb565b9050806001600160a01b0316836001600160a01b03161415610ce6576040517f943f7b8c00000000000000000000000000000000000000000000000000000000815260040160405180910390fd5b336001600160a01b03821614801590610d065750610d048133610a7f565b155b15610d3d576040517fcfb3b94200000000000000000000000000000000000000000000000000000000815260040160405180910390fd5b610d48838383612df7565b505050565b60026008541415610d795760405162461bcd60e51b8152600401610d7090614430565b60405180910390fd5b6002600855601054600d546040517f6352211e00000000000000000000000000000000000000000000000000000000815233926001600160a01b031691636352211e91610dc99190600401613bd8565b602060405180830381865afa158015610de6573d6000803e3d6000fd5b505050506040513d601f19601f82011682018060405250810190610e0a919061444b565b6001600160a01b031614610e4a576040517fb2c6179c00000000000000000000000000000000000000000000000000000000815260040160405180910390fd5b600e548214610e85576040517f8f6d9d6300000000000000000000000000000000000000000000000000000000815260040160405180910390fd5b600f54610e9f90610e989060ff16612e60565b3383612e9b565b50506001600855565b60026008541415610ecb5760405162461bcd60e51b8152600401610d7090614430565b6002600855601c54601a5467ffffffffffffffff16610f16576040517f15cd15ad00000000000000000000000000000000000000000000000000000000815260040160405180910390fd5b610f1e61315b565b610f54576040517fc3a7d74d00000000000000000000000000000000000000000000000000000000815260040160405180910390fd5b600054610f6b906001600160801b03166001614482565b6001600160801b0316600c8281548110610f8757610f876144ba565b60009182526020909120015461ffff161015611370576000600c8281548110610fb257610fb26144ba565b6000918252602090912001546b010000000000000000000000900460ff168015610ffa5750600b54600954610ff791670100000000000000900462ffffff16906144d0565b42105b806110095750600f5460ff1682145b1561101e5761101782612e60565b90506110cb565b601754601954601a546040517f5d3b1d300000000000000000000000000000000000000000000000000000000081526001600160a01b0390931692635d3b1d309261108592909167ffffffffffffffff909116906005906207a12090600190600401614511565b6020604051808303816000875af11580156110a4573d6000803e3d6000fd5b505050506040513d601f19601f820116820180604052508101906110c89190614568565b90505b600c82815481106110de576110de6144ba565b6000918252602082200154601d80546201000090920468ffffffffffffffffff1692909161110d9084906144d0565b925050819055506040518060600160405280600c8481548110611132576111326144ba565b6000918252602080832060408051606081018252939091015461ffff80821685526201000080830468ffffffffffffffffff908116878701526b0100000000000000000000009384900460ff161515878601529588528785018790528351808501855287815280860188905297840197909752888652601b84529482902087518051825482870151928601519189166affffffffffffffffffffff199091161791909616909702969096176bff00000000000000000000001916931515029290921784558481015160018501805460ff191691151591909117905593015180516002909301805491909401516001600160a01b0390931675ffffffffffffffffffffffffffffffffffffffffffff1990911617600160a01b9290911691909102179055600c805482917fb40531e03f8d4be5f5bb24f4d1811140fbead25a449a04cdb8e941384a810702918590811061128d5761128d6144ba565b906000526020600020016040516112a4919061460b565b60405180910390a2816112b681614619565b601c8054600181810183556000929092527f0e4562a10381dec21b205ed72637e6b1b523bdd0e4d4d50af5cd23dd4500a21101849055600c549194506112fd925090614634565b821480156113245750600b54600a54611321916301000000900461ffff16906144d0565b42105b15611330575050611372565b600c5482141561136a576040517fc4f545db975f34de8f12b4353fa42dd295e802239df19ebbe5fd3c245dad0a5a90600090a15050611372565b50610f54565b505b6001600855565b6007546001600160a01b031633146113a35760405162461bcd60e51b8152600401610d709061467f565b601280546001600160a01b03831673ffffffffffffffffffffffffffffffffffffffff19918216811790925560138054909116821790556040517f2926c01a1380ae82a404a8c554ad486a6842a4a320d80b770e2930d763825e4f90600090a250565b600060095460001415801561141c575060095442115b905090565b6014818154811061143157600080fd5b9060005260206000209060209182820401919006915054906101000a900460ff1681565b600c818154811061146557600080fd5b60009182526020909120015461ffff8116915062010000810468ffffffffffffffffff16906b010000000000000000000000900460ff1683565b336001600160a01b037f0000000000000000000000000000000000000000000000000000000000000000161461152557337f00000000000000000000000000000000000000000000000000000000000000006040517f1cf993f4000000000000000000000000000000000000000000000000000000008152600401610d7092919061468f565b61152f82826131fc565b5050565b6007546001600160a01b0316331461155d5760405162461bcd60e51b8152600401610d709061467f565b600a54611596576040517fe5b93aca00000000000000000000000000000000000000000000000000000000815260040160405180910390fd5b600b54600a546115af91610100900461ffff16906144d0565b4210156115e8576040517f3e8e963c00000000000000000000000000000000000000000000000000000000815260040160405180910390fd5b6040514790600090339083908381818185875af1925050503d806000811461162c576040519150601f19603f3d011682016040523d82523d6000602084013e611631565b606091505b505090508061166c576040517f27fcd9d100000000000000000000000000000000000000000000000000000000815260040160405180910390fd5b7f4e70a604b23a8edee2b1d0a656e9b9c00b73ad8bb1afc2c59381ee9f69197de78260405161169b9190613bd8565b60405180910390a15050565b610d4883838361328f565b6007546001600160a01b031633146116dc5760405162461bcd60e51b8152600401610d709061467f565b601754601a546040517fd7ae1d300000000000000000000000000000000000000000000000000000000081526001600160a01b039092169163d7ae1d30916117359167ffffffffffffffff9091169033906004016146aa565b600060405180830381600087803b15801561174f57600080fd5b505af1158015611763573d6000803e3d6000fd5b5050601a805467ffffffffffffffff191690555050565b600061178583611efd565b82106117bd576040517f0ddac30e00000000000000000000000000000000000000000000000000000000815260040160405180910390fd5b600080546001600160801b03169080805b8381101561188a57600081815260036020908152604091829020825160608101845290546001600160a01b0381168252600160a01b810467ffffffffffffffff1692820192909252600160e01b90910460ff1615801592820192909252906118365750611882565b80516001600160a01b03161561184b57805192505b876001600160a01b0316836001600160a01b03161415611880578684141561187957509350610b9892505050565b6001909301925b505b6001016117ce565b50600080fd5b6007546001600160a01b031633146118ba5760405162461bcd60e51b8152600401610d709061467f565b6118c261315b565b156118cf576118cf610ea8565b4760005b601c5481101561197e57601b6000601c83815481106118f4576118f46144ba565b6000918252602080832090910154835282019290925260400190206001015460ff1661196c57601b6000601c8381548110611931576119316144ba565b600091825260208083209091015483528201929092526040019020546119699068ffffffffffffffffff620100009091041683614634565b91505b8061197681614619565b9150506118d3565b5080806119b7576040517f356680b700000000000000000000000000000000000000000000000000000000815260040160405180910390fd5b601654601154604080517f18160ddd0000000000000000000000000000000000000000000000000000000081529051600093926001600160a01b0316916318160ddd9160048083019260209291908290030181865afa158015611a1e573d6000803e3d6000fd5b505050506040513d601f19601f82011682018060405250810190611a429190614568565b611a4c9190614634565b600054601c549192506001600160801b0316905b600c54811015611c4657600082600c8381548110611a8057611a806144ba565b600091825260209091200154611a9a919061ffff16614634565b905080841115611b0057600b54611ace9060ff8116906a0100000000000000000000900468ffffffffffffffffff166146ce565b611ae39068ffffffffffffffffff16826146f1565b611aed90876144d0565b9550611af98185614634565b9350611b8a565b600b546a0100000000000000000000900468ffffffffffffffffff16611b268583614634565b611b3091906146f1565b600b54611b5a9060ff8116906a0100000000000000000000900468ffffffffffffffffff166146ce565b611b6f9068ffffffffffffffffff16866146f1565b611b7991906144d0565b611b8390876144d0565b9550600093505b600c8281548110611b9d57611b9d6144ba565b600091825260209091200154611bc49062010000900468ffffffffffffffffff1687614634565b95506001861015611c01576040517f356680b700000000000000000000000000000000000000000000000000000000815260040160405180910390fd5b84861015611c0d578594505b600c8281548110611c2057611c206144ba565b60009182526020909120015461ffff169250819050611c3e81614619565b915050611a60565b50604051600090339085908381818185875af1925050503d8060008114611c89576040519150601f19603f3d011682016040523d82523d6000602084013e611c8e565b606091505b5050905080611cc9576040517f27fcd9d100000000000000000000000000000000000000000000000000000000815260040160405180910390fd5b7f4e70a604b23a8edee2b1d0a656e9b9c00b73ad8bb1afc2c59381ee9f69197de784604051611cf89190613bd8565b60405180910390a15050505050565b610d4883838360405180602001604052806000815250612669565b60026008541415611d455760405162461bcd60e51b8152600401610d7090614430565b60026008556007546001600160a01b03163314611d745760405162461bcd60e51b8152600401610d709061467f565b6000611d7f84612e60565b9050611d8c818484612e9b565b505060016008555050565b6007546001600160a01b03163314611dc15760405162461bcd60e51b8152600401610d709061467f565b600054600390611dda906001600160801b0316836144d0565b1115611e12576040517f74a5d1f500000000000000000000000000000000000000000000000000000000815260040160405180910390fd5b61152f82826134f7565b6000610b9882612dc3565b600080546001600160801b031681805b82811015611eb857600081815260036020908152604091829020825160608101845290546001600160a01b0381168252600160a01b810467ffffffffffffffff1692820192909252600160e01b90910460ff16151591810182905290611eaf5785831415611ea85750949350505050565b6001909201915b50600101611e37565b506040517fa723001c00000000000000000000000000000000000000000000000000000000815260040160405180910390fd5b6000611ef6826135e0565b5192915050565b60006001600160a01b038216611f3f576040517f8f4eb60400000000000000000000000000000000000000000000000000000000815260040160405180910390fd5b506001600160a01b031660009081526004602052604090205467ffffffffffffffff1690565b6007546001600160a01b03163314611f8f5760405162461bcd60e51b8152600401610d709061467f565b611f99600061371d565b565b60026008541415611fbe5760405162461bcd60e51b8152600401610d7090614430565b600260085560005b601c5481101561137057601b6000601c8381548110611fe757611fe76144ba565b6000918252602080832090910154835282019290925260400190206001015460ff161561201357612337565b601b6000601c838154811061202a5761202a6144ba565b6000918252602080832090910154835282019290925260400190205460ff6b0100000000000000000000009091041680156120835750600b5460095461208091670100000000000000900462ffffff16906144d0565b42105b1561208d57612337565b601754601954601a546040517f5d3b1d300000000000000000000000000000000000000000000000000000000081526000936001600160a01b031692635d3b1d30926120f39267ffffffffffffffff909116906005906207a12090600190600401614511565b6020604051808303816000875af1158015612112573d6000803e3d6000fd5b505050506040513d601f19601f820116820180604052508101906121369190614568565b90506040518060600160405280601b6000601c868154811061215a5761215a6144ba565b600091825260208083209190910154835282810193909352604091820181208251606081018452905461ffff80821683526201000080830468ffffffffffffffffff908116858901526b0100000000000000000000009384900460ff161515858801529388528787018590528551808701875285815280880186905297860197909752888452601b808752858520895180518254828b0151928a01519186166affffffffffffffffffffff199091161791909616909902989098176bff000000000000000000000019169315159092029290921786558685015160018701805460ff1916911515919091179055959092015180516002909501805491909401516001600160a01b0390951675ffffffffffffffffffffffffffffffffffffffffffff1990911617600160a01b9490921693909302179055601c8054859081106122a5576122a56144ba565b60009182526020808320909101548352820192909252604001902080547fffffffffffffffffffffffffffffffffffffffff00000000000000000000000016815560018101805460ff19169055600201805475ffffffffffffffffffffffffffffffffffffffffffff19169055601c805482919084908110612329576123296144ba565b600091825260209091200155505b8061234181614619565b915050611fc6565b60006014828154811061235e5761235e6144ba565b6000918252602091829020918104909101546001601f9092166101000a900481161492915050565b601c818154811061239657600080fd5b600091825260209091200154905081565b606060028054610bad906143d7565b6001600160a01b0382163314156123f9576040517fb06307db00000000000000000000000000000000000000000000000000000000815260040160405180910390fd5b3360008181526006602090815260408083206001600160a01b038716808552925291829020805460ff191685151517905590519091907f17307eab39ab6107e8899845ad3d59bd9653f200f220920489ca2b5937696c319061245c908590613bc4565b60405180910390a35050565b601c5460609060009067ffffffffffffffff81111561248957612489613da4565b6040519080825280602002602001820160405280156124f957816020015b6040805160c0810182526000606082018181526080830182905260a083018290528252602080830182905283518085018552828152808201929092529282015282526000199092019101816124a75790505b50905060005b601c548110156125f457601b6000601c8381548110612520576125206144ba565b600091825260208083209091015483528281019390935260409182019020815160c081018352815461ffff8082166060840190815268ffffffffffffffffff62010000840416608085015260ff6b0100000000000000000000009093048316151560a085015283526001840154909116151582860152835180850185526002909301546001600160a01b0381168452600160a01b900416938201939093529082015282518390839081106125d6576125d66144ba565b602002602001018190525080806125ec90614619565b9150506124ff565b50919050565b6007546001600160a01b031633146126245760405162461bcd60e51b8152600401610d709061467f565b61262c611406565b15612663576040517fd205ec1b00000000000000000000000000000000000000000000000000000000815260040160405180910390fd5b42600955565b61267484848461328f565b6126808484848461377c565b61269d576040516368d2bf6b60e11b815260040160405180910390fd5b50505050565b60606126ae82612dc3565b6126e4576040517fa14c4b5000000000000000000000000000000000000000000000000000000000815260040160405180910390fd5b6012546001600160a01b031661270857505060408051602081019091526000815290565b601354601480546001600160a01b0390921691635cc518ba91859182908110612733576127336144ba565b90600052602060002090602091828204019190069054906101000a900460ff166040518363ffffffff1660e01b8152600401612770929190614710565b600060405180830381865afa15801561278d573d6000803e3d6000fd5b505050506040513d6000823e601f3d908101601f19168201604052610b989190810190614783565b600260085414156127d85760405162461bcd60e51b8152600401610d7090614430565b6002600855601a5467ffffffffffffffff1661290557601760009054906101000a90046001600160a01b03166001600160a01b031663a21a23e46040518163ffffffff1660e01b81526004016020604051808303816000875af1158015612843573d6000803e3d6000fd5b505050506040513d601f19601f8201168201806040525081019061286791906147d9565b601a805467ffffffffffffffff191667ffffffffffffffff9290921691821790556017546040517f7341c10c0000000000000000000000000000000000000000000000000000000081526001600160a01b0390911691637341c10c916128d2919030906004016146aa565b600060405180830381600087803b1580156128ec57600080fd5b505af1158015612900573d6000803e3d6000fd5b505050505b601854601754601a546040516001600160a01b0393841693634000aea0931691859161293e9167ffffffffffffffff1690602001613f07565b6040516020818303038152906040526040518463ffffffff1660e01b815260040161296b9392919061481d565b6020604051808303816000875af115801561298a573d6000803e3d6000fd5b505050506040513d601f19601f82011682018060405250810190610e9f919061485e565b600260085414156129d15760405162461bcd60e51b8152600401610d7090614430565b600260085560005b81811015612a1457612a028383838181106129f6576129f66144ba565b905060200201356138ae565b80612a0c81614619565b9150506129d9565b5050600160085550565b612a26611406565b612a5c576040517f63a2de0f00000000000000000000000000000000000000000000000000000000815260040160405180910390fd5b60026008541415612a7f5760405162461bcd60e51b8152600401610d7090614430565b6002600855600b546000546501000000000090910461ffff1690612aad9084906001600160801b03166144d0565b1115612ae5576040517ffd59427a00000000000000000000000000000000000000000000000000000000815260040160405180910390fd5b600b54600090612b0f9084906a0100000000000000000000900468ffffffffffffffffff166146f1565b90506000805b8351811015612cd957601154845133916001600160a01b031690636352211e90879085908110612b4757612b476144ba565b60200260200101516040518263ffffffff1660e01b8152600401612b6b9190613bd8565b602060405180830381865afa158015612b88573d6000803e3d6000fd5b505050506040513d601f19601f82011682018060405250810190612bac919061444b565b6001600160a01b031614612bec576040517f5246352300000000000000000000000000000000000000000000000000000000815260040160405180910390fd5b60156000858381518110612c0257612c026144ba565b60209081029190910181015182528101919091526040016000205460ff16158015612c2c57508482105b15612cc757600160156000868481518110612c4957612c496144ba565b6020026020010151815260200190815260200160002060006101000a81548160ff0219169083151502179055508180612c8190614619565b600b54909350612caf915060ff8116906a0100000000000000000000900468ffffffffffffffffff166146ce565b612cc49068ffffffffffffffffff1684614634565b92505b80612cd181614619565b915050612b15565b508060166000828254612cec91906144d0565b9091555050348214612d2a576040517ff7760f2500000000000000000000000000000000000000000000000000000000815260040160405180910390fd5b600b546000546501000000000090910461ffff1690612d52906001600160801b0316866144d0565b1415612d5d5742600a555b611d8c33856134f7565b6007546001600160a01b03163314612d915760405162461bcd60e51b8152600401610d709061467f565b6001600160a01b038116612db75760405162461bcd60e51b8152600401610d709061487f565b612dc08161371d565b50565b600080546001600160801b031682108015610b98575050600090815260036020526040902054600160e01b900460ff161590565b600082815260056020526040808220805473ffffffffffffffffffffffffffffffffffffffff19166001600160a01b0387811691821790925591518593918516917f8c5be1e5ebec7d5bd14f71427d1e84f3dd0314c0f7b2291e5b200ac8c7c3b92591a4505050565b6000612e6d60ff836148e0565b604051602001612e7d919061490c565b60408051601f19818403018152919052805160209091012092915050565b6000838152601b602052604090206001015460ff1615612ee7576040517f636d49d300000000000000000000000000000000000000000000000000000000815260040160405180910390fd5b6000838152601b602052604090205462010000900468ffffffffffffffffff16612f3d576040517f8e1773d800000000000000000000000000000000000000000000000000000000815260040160405180910390fd5b816001600160a01b0316612f5082611eeb565b6001600160a01b031614612f90576040517f03e21ec200000000000000000000000000000000000000000000000000000000815260040160405180910390fd5b6000838152601b6020526040902054612faf9060019061ffff1661491e565b61ffff16811115612fec576040517f518af55d00000000000000000000000000000000000000000000000000000000815260040160405180910390fd5b6000838152601b602081815260408084206001818101805460ff19169091179055815180830183526001600160a01b0380891680835261ffff808a168488019081528c8a529790965282516002850180549851909716600160a01b0275ffffffffffffffffffffffffffffffffffffffffffff19909816921691909117959095179093555490519193929168ffffffffffffffffff62010000909204919091169060006040518083038185875af1925050503d80600081146130ca576040519150601f19603f3d011682016040523d82523d6000602084013e6130cf565b606091505b505090508061310a576040517f90b8ec1800000000000000000000000000000000000000000000000000000000815260040160405180910390fd5b6000858152601b602052604090819020905186917f7d2db4ed55b360e8ea7d70390d6f63a1404136410fa6f3f94a41d1cf99488a7f9161314c9190869061492c565b60405180910390a25050505050565b600c54601c5460009114156131705750600090565b600c5461317f90600190614634565b601c541480156131a85750600b54600a546131a5916301000000900461ffff16906144d0565b42105b156131b35750600090565b600054601c54600c80546001600160801b039093169290919081106131da576131da6144ba565b60009182526020909120015461ffff1611156131f65750600090565b50600190565b6000828152601b602052604090205461ffff1680613246576040517f018bd28900000000000000000000000000000000000000000000000000000000815260040160405180910390fd5b6000818360008151811061325c5761325c6144ba565b602002602001015161326e91906148e0565b9050600061327b82611eeb565b9050613288858284612e9b565b5050505050565b600061329a826135e0565b80519091506000906001600160a01b0316336001600160a01b031614806132c8575081516132c89033610a7f565b806132e35750336132d884610c30565b6001600160a01b0316145b90508061331c576040517f59c896be00000000000000000000000000000000000000000000000000000000815260040160405180910390fd5b846001600160a01b031682600001516001600160a01b03161461336b576040517fa114810000000000000000000000000000000000000000000000000000000000815260040160405180910390fd5b6001600160a01b0384166133ab576040517fea553b3400000000000000000000000000000000000000000000000000000000815260040160405180910390fd5b6133bb6000848460000151612df7565b6001600160a01b038581166000908152600460209081526040808320805467ffffffffffffffff1980821667ffffffffffffffff92831660001901831617909255898616808652838620805493841693831660019081018416949094179055898652600390945282852080546001600160e01b031916909417600160a01b4290921691909102179092559086018083529120549091166134b0576000546001600160801b03168110156134b0578251600082815260036020908152604090912080549186015167ffffffffffffffff16600160a01b026001600160e01b03199092166001600160a01b03909316929092171790555b5082846001600160a01b0316866001600160a01b03167fddf252ad1be2c89b69c2b068fc378daa952ba7f163c4a11628f55a4df523b3ef60405160405180910390a4613288565b6020811115613532576040517f359fd04400000000000000000000000000000000000000000000000000000000815260040160405180910390fd5b6000813334424460405160200161354d95949392919061496f565b60405160208183030381529060405280519060200120905060005b828110156135d55760146001838360208110613586576135866144ba565b8354600181018555600094855260209485902094810490940180549290911a90921b60ff908116601f9094166101000a93840293021916919091179055806135cd81614619565b915050613568565b50610d48838361396e565b60408051606081018252600080825260208201819052918101829052905482906001600160801b03168110156136eb57600081815260036020908152604091829020825160608101845290546001600160a01b0381168252600160a01b810467ffffffffffffffff1692820192909252600160e01b90910460ff161515918101829052906136e95780516001600160a01b03161561367f579392505050565b5060001901600081815260036020908152604091829020825160608101845290546001600160a01b038116808352600160a01b820467ffffffffffffffff1693830193909352600160e01b900460ff16151592810192909252156136e4579392505050565b61367f565b505b6040517fdf2d9b4200000000000000000000000000000000000000000000000000000000815260040160405180910390fd5b600780546001600160a01b0383811673ffffffffffffffffffffffffffffffffffffffff19831681179093556040519116919082907f8be0079c531659141344cd1fd0a4f28419497f9722a3daafe3b4186f6b6457e090600090a35050565b60006001600160a01b0384163b156138a2576040517f150b7a020000000000000000000000000000000000000000000000000000000081526001600160a01b0385169063150b7a02906137d99033908990889088906004016149b9565b6020604051808303816000875af1925050508015613814575060408051601f3d908101601f19168201909252613811918101906149fe565b60015b61386f573d808015613842576040519150601f19603f3d011682016040523d82523d6000602084013e613847565b606091505b508051613867576040516368d2bf6b60e11b815260040160405180910390fd5b805181602001fd5b6001600160e01b0319167f150b7a02000000000000000000000000000000000000000000000000000000001490506138a6565b5060015b949350505050565b336138b882611eeb565b6001600160a01b0316146138f8576040517fff68d35d00000000000000000000000000000000000000000000000000000000815260040160405180910390fd5b6014818154811061390b5761390b6144ba565b90600052602060002090602091828204019190069054906101000a900460ff1660011860148281548110613941576139416144ba565b90600052602060002090602091828204019190066101000a81548160ff021916908360ff16021790555050565b61152f828260405180602001604052806000815250610d4883838360016000546001600160801b03166001600160a01b0385166139d7576040517f2e07630000000000000000000000000000000000000000000000000000000000815260040160405180910390fd5b83613a0e576040517fb562e8dd00000000000000000000000000000000000000000000000000000000815260040160405180910390fd5b6001600160a01b038516600081815260046020908152604080832080547fffffffffffffffffffffffffffffffff00000000000000000000000000000000811667ffffffffffffffff8083168c0181169182176801000000000000000067ffffffffffffffff1990941690921783900481168c018116909202179091558584526003909252822080546001600160e01b031916909317600160a01b42909216919091021790915581905b85811015613b395760405182906001600160a01b038916906000907fddf252ad1be2c89b69c2b068fc378daa952ba7f163c4a11628f55a4df523b3ef908290a4838015613b0f5750613b0d600088848861377c565b155b15613b2d576040516368d2bf6b60e11b815260040160405180910390fd5b60019182019101613ab8565b50600080547fffffffffffffffffffffffffffffffff00000000000000000000000000000000166001600160801b0392909216919091179055613288565b6001600160e01b031981165b8114612dc057600080fd5b8035610b9881613b77565b600060208284031215613bae57613bae600080fd5b60006138a68484613b8e565b8015155b82525050565b60208101610b988284613bba565b80613bbe565b60208101610b988284613bd2565b60005b83811015613c01578181015183820152602001613be9565b8381111561269d5750506000910152565b6000613c1c825190565b808452602084019350613c33818560208601613be6565b601f01601f19169290920192915050565b60208082528101613c558184613c12565b9392505050565b80613b83565b8035610b9881613c5c565b600060208284031215613c8257613c82600080fd5b60006138a68484613c62565b60006001600160a01b038216610b98565b613bbe81613c8e565b60208101610b988284613c9f565b613b8381613c8e565b8035610b9881613cb6565b60008060408385031215613ce057613ce0600080fd5b6000613cec8585613cbf565b9250506020613cfd85828601613c62565b9150509250929050565b60008060408385031215613d1d57613d1d600080fd5b6000613cec8585613c62565b60ff8116613bbe565b60208101610b988284613d29565b600060208284031215613d5557613d55600080fd5b60006138a68484613cbf565b61ffff8116613bbe565b68ffffffffffffffffff8116613bbe565b60608101613d8a8286613d61565b613d976020830185613d6b565b6138a66040830184613bba565b634e487b7160e01b600052604160045260246000fd5b601f19601f830116810181811067ffffffffffffffff82111715613de057613de0613da4565b6040525050565b6000613df260405190565b9050613dfe8282613dba565b919050565b600067ffffffffffffffff821115613e1d57613e1d613da4565b5060209081020190565b6000613e3a613e3584613e03565b613de7565b83815290506020808201908402830185811115613e5957613e59600080fd5b835b81811015613e7b57613e6d8782613c62565b835260209283019201613e5b565b5050509392505050565b600082601f830112613e9957613e99600080fd5b81356138a6848260208601613e27565b60008060408385031215613ebf57613ebf600080fd5b6000613ecb8585613c62565b925050602083013567ffffffffffffffff811115613eeb57613eeb600080fd5b613cfd85828601613e85565b67ffffffffffffffff8116613bbe565b60208101610b988284613ef7565b600080600060608486031215613f2d57613f2d600080fd5b6000613f398686613cbf565b9350506020613f4a86828701613cbf565b9250506040613f5b86828701613c62565b9150509250925092565b600080600060608486031215613f7d57613f7d600080fd5b6000613f398686613c62565b8051613f958382613d61565b506020810151613fa86020840182613d6b565b506040810151610d486040840182613bba565b8051613fc78382613c9f565b506020810151610d486020840182613d61565b60c08101613fe88286613f89565b613ff56060830185613bba565b6138a66080830184613fbb565b6000610b986001600160a01b038316614019565b90565b6001600160a01b031690565b6000610b9882614002565b6000610b9882614025565b613bbe81614030565b60208101610b98828461403b565b801515613b83565b8035610b9881614052565b6000806040838503121561407b5761407b600080fd5b60006140878585613cbf565b9250506020613cfd8582860161405a565b80516140a48382613f89565b5060208101516140b76060840182613bba565b506040810151610d486080840182613fbb565b6140d48282614098565b5060c00190565b60200190565b60006140eb825190565b808452602093840193830160005b8281101561411e57815161410d87826140ca565b9650506020820191506001016140f9565b5093949350505050565b60208082528101613c5581846140e1565b62ffffff8116613bbe565b60c081016141528289613d29565b61415f6020830188613d61565b61416c6040830187613d61565b6141796060830186613d61565b6141866080830185614139565b61419360a0830184613d6b565b979650505050505050565b600067ffffffffffffffff8211156141b8576141b8613da4565b601f19601f83011660200192915050565b82818337506000910152565b60006141e3613e358461419e565b9050828152602081018484840111156141fe576141fe600080fd5b6142098482856141c9565b509392505050565b600082601f83011261422557614225600080fd5b81356138a68482602086016141d5565b6000806000806080858703121561424e5761424e600080fd5b600061425a8787613cbf565b945050602061426b87828801613cbf565b935050604061427c87828801613c62565b925050606085013567ffffffffffffffff81111561429c5761429c600080fd5b6142a887828801614211565b91505092959194509250565b6bffffffffffffffffffffffff8116613b83565b8035610b98816142b4565b6000602082840312156142e8576142e8600080fd5b60006138a684846142c8565b60008083601f84011261430957614309600080fd5b50813567ffffffffffffffff81111561432457614324600080fd5b60208301915083602082028301111561433f5761433f600080fd5b9250929050565b6000806020838503121561435c5761435c600080fd5b823567ffffffffffffffff81111561437657614376600080fd5b614382858286016142f4565b92509250509250929050565b600080604083850312156143a4576143a4600080fd5b60006143b08585613cbf565b9250506020613cfd85828601613cbf565b634e487b7160e01b600052602260045260246000fd5b6002810460018216806143eb57607f821691505b602082108114156125f4576125f46143c1565b601f8152602081017f5265656e7472616e637947756172643a207265656e7472616e742063616c6c00815290506140db565b60208082528101610b98816143fe565b8051610b9881613cb6565b60006020828403121561446057614460600080fd5b60006138a68484614440565b634e487b7160e01b600052601160045260246000fd5b6001600160801b03811690506001600160801b03821691506000826001600160801b03038211156144b5576144b561446c565b500190565b634e487b7160e01b600052603260045260246000fd5b600082198211156144b5576144b561446c565b6000610b98825b61ffff1690565b613bbe816144e3565b600063ffffffff8216610b98565b613bbe816144fa565b60a0810161451f8288613bd2565b61452c6020830187613ef7565b61453960408301866144f1565b6145466060830185614508565b6145536080830184614508565b9695505050505050565b8051610b9881613c5c565b60006020828403121561457d5761457d600080fd5b60006138a6848461455d565b6000610b98826144ea565b6000610b986145a38360101c90565b68ffffffffffffffffff1690565b6000610b986145c08360581c90565b60ff1690565b80546145d181614589565b6145db8482613d61565b506145e581614594565b6145f26020850182613d6b565b506145fc816145b1565b9050610d486040840182613bba565b60608101610b9882846145c6565b600060001982141561462d5761462d61446c565b5060010190565b815b915060008282101561464a5761464a61446c565b500390565b60208082527f4f776e61626c653a2063616c6c6572206973206e6f7420746865206f776e657291019081526140db565b60208082528101610b988161464f565b6040810161469d8285613c9f565b613c556020830184613c9f565b6040810161469d8285613ef7565b634e487b7160e01b600052601260045260246000fd5b68ffffffffffffffffff91821691166000826146ec576146ec6146b8565b500490565b600081600019048311821515161561470b5761470b61446c565b500290565b6040810161471e8285613bd2565b613c556020830184613d29565b6000614739613e358461419e565b90508281526020810184848401111561475457614754600080fd5b614209848285613be6565b600082601f83011261477357614773600080fd5b81516138a684826020860161472b565b60006020828403121561479857614798600080fd5b815167ffffffffffffffff8111156147b2576147b2600080fd5b6138a68482850161475f565b67ffffffffffffffff8116613b83565b8051610b98816147be565b6000602082840312156147ee576147ee600080fd5b60006138a684846147ce565b6000610b986140166bffffffffffffffffffffffff841681565b613bbe816147fa565b6060810161482b8286613c9f565b6148386020830185614814565b818103604083015261484a8184613c12565b95945050505050565b8051610b9881614052565b60006020828403121561487357614873600080fd5b60006138a68484614853565b60208082528101610b9881602681527f4f776e61626c653a206e6577206f776e657220697320746865207a65726f206160208201527f6464726573730000000000000000000000000000000000000000000000000000604082015260600190565b6000826148ef576148ef6146b8565b500690565b6000610b988260f81b90565b613bbe60ff82166148f4565b6149168183614900565b600101919050565b61ffff908116908216614636565b60a0810161493a82856145c6565b613c556060830184613fbb565b6000610b988260601b90565b6000610b9882614947565b613bbe61496a82613c8e565b614953565b6149798187613bd2565b602001614986818661495e565b6014016149938185613bd2565b6020016149a08184613bd2565b6020016149ad8183613bd2565b60200195945050505050565b608081016149c78287613c9f565b6149d46020830186613c9f565b6149e16040830185613bd2565b81810360608301526145538184613c12565b8051610b9881613b77565b600060208284031215614a1357614a13600080fd5b60006138a684846149f356fea264697066735822122031f9195dafcc11d3dd9ef7a76e7eefdc104a3eafb74084a6713746fea6f6153564736f6c634300080c0033",
  "devdoc": {
    "kind": "dev",
    "methods": {
      "TheAnswer(uint256,uint256)": {
        "params": {
          "tokenId": "The selected token to be displayed on the website. This should be owned by the winner.",
          "value": "Word biggest mysteries are solved with this single value."
        }
      },
      "approve(address,uint256)": {
        "details": "See {IERC721-approve}."
      },
      "balanceOf(address)": {
        "details": "See {IERC721-balanceOf}."
      },
      "fulfillContest(uint256,address,uint256)": {
        "params": {
          "giveawayIndex": "The index of the giveaway to fulfill, 0 based (the first giveaway is index 0).",
          "selectedToken": "The selected token to be displayed on the website.",
          "winner": "The selected winner address."
        }
      },
      "getApproved(uint256)": {
        "details": "See {IERC721-getApproved}."
      },
      "isApprovedForAll(address,address)": {
        "details": "See {IERC721-isApprovedForAll}."
      },
      "isMettaEnabled(uint256)": {
        "params": {
          "tokenId": "The Co-Bot token ID"
        }
      },
      "mintPublicSale(uint256,uint256[])": {
        "details": "The tokenIdsV1 parameter can be empty. The call will revert only if the sender pretends to own some      Co-Bots V1 that they actually don't. However it accepts already redeemed token and just ignore them silently.      This is to make it easier for people using etherscan to copy a bunch of token Ids without having to      manually check if they are redeemed or not. However, it is optimal in terms of gas fees to only give      tokenIds if they can actually be redeemed.",
        "params": {
          "quantity": "The number of COBOTS to mint.",
          "tokenIdsV1": "A list of V1 Co-Bots token Ids owned by the sender, used to determine the discount."
        }
      },
      "name()": {
        "details": "See {IERC721Metadata-name}."
      },
      "owner()": {
        "details": "Returns the address of the current owner."
      },
      "ownerOf(uint256)": {
        "details": "See {IERC721-ownerOf}."
      },
      "renounceOwnership()": {
        "details": "Leaves the contract without owner. It will not be possible to call `onlyOwner` functions anymore. Can only be called by the current owner. NOTE: Renouncing ownership will leave the contract without an owner, thereby removing any functionality that is only available to the owner."
      },
      "safeTransferFrom(address,address,uint256)": {
        "details": "See {IERC721-safeTransferFrom}."
      },
      "safeTransferFrom(address,address,uint256,bytes)": {
        "details": "See {IERC721-safeTransferFrom}."
      },
      "setApprovalForAll(address,bool)": {
        "details": "See {IERC721-setApprovalForAll}."
      },
      "supportsInterface(bytes4)": {
        "details": "See {IERC165-supportsInterface}."
      },
      "symbol()": {
        "details": "See {IERC721Metadata-symbol}."
      },
      "tokenByIndex(uint256)": {
        "details": "See {IERC721Enumerable-tokenByIndex}. This read function is O(totalSupply). If calling from a separate contract, be sure to test gas first. It may also degrade with extremely large collection sizes (e.g >> 10000), test for your use case."
      },
      "tokenOfOwnerByIndex(address,uint256)": {
        "details": "See {IERC721Enumerable-tokenOfOwnerByIndex}. This read function is O(totalSupply). If calling from a separate contract, be sure to test gas first. It may also degrade with extremely large collection sizes (e.g >> 10000), test for your use case."
      },
      "totalSupply()": {
        "details": "See {IERC721Enumerable-totalSupply}."
      },
      "transferFrom(address,address,uint256)": {
        "details": "See {IERC721-transferFrom}."
      },
      "transferOwnership(address)": {
        "details": "Transfers ownership of the contract to a new account (`newOwner`). Can only be called by the current owner."
      }
    },
    "version": 1
  },
  "userdoc": {
    "kind": "user",
    "methods": {
      "TheAnswer(uint256,uint256)": {
        "notice": "Call this when, you know, you probably know what you're doing here.         revert."
      },
      "draw()": {
        "notice": "This function can be called at any time by anyone to trigger the unlocked giveaways. It will         revert if there is nothing to unlock to prevent anon from making useless tx. (Usually wallet, e.g.         metamask, warn this before signing).         Giveaways that use Chainlink VRF oracle will be fulfilled automatically by Chainlink. Giveaways that         require founders to unlock will be fulfilled by the founders."
      },
      "failsafeWithdraw()": {
        "notice": "A very basic function to act as a failsafe if the contract has a bug somewhere in the fulfill functions."
      },
      "fulfillContest(uint256,address,uint256)": {
        "notice": "This function lets the owner fulfill a giveaway. If the giveaway has not been unlocked, this will         revert."
      },
      "getOrderedFulfillments()": {
        "notice": "Use this to retrieve the ordered list of winners with their corresponding prizes and token Id.          Pending fulfillments are included (no winner drawn yet, probably waiting for Chainlink to fulfill)."
      },
      "isMettaEnabled(uint256)": {
        "notice": "Return true if the Co-Bot displays metta screen"
      },
      "mintPublicSale(uint256,uint256[])": {
        "notice": "Mints a batch of Co-Bots to the sender."
      },
      "redrawPendingFulfillments()": {
        "notice": "This function is a failsafe in case a Chainlink VRF request does not resolve          (behaviour experimented on rinkeby).          The new draws will override the previous ones."
      },
      "withdraw()": {
        "notice": "At any point in time, founders can withdraw only up to the required balance to insure that the giveaways          will be paid. We take a conservative approach considering that all the remaining discounted bots will be minted          as soon as possible."
      }
    },
    "version": 1
  },
  "storageLayout": {
    "storage": [
      {
        "astId": 12130,
        "contract": "contracts/co-bots/CoBotsV2.sol:CoBotsV2",
        "label": "_currentIndex",
        "offset": 0,
        "slot": "0",
        "type": "t_uint128"
      },
      {
        "astId": 12132,
        "contract": "contracts/co-bots/CoBotsV2.sol:CoBotsV2",
        "label": "_burnCounter",
        "offset": 16,
        "slot": "0",
        "type": "t_uint128"
      },
      {
        "astId": 12134,
        "contract": "contracts/co-bots/CoBotsV2.sol:CoBotsV2",
        "label": "_name",
        "offset": 0,
        "slot": "1",
        "type": "t_string_storage"
      },
      {
        "astId": 12136,
        "contract": "contracts/co-bots/CoBotsV2.sol:CoBotsV2",
        "label": "_symbol",
        "offset": 0,
        "slot": "2",
        "type": "t_string_storage"
      },
      {
        "astId": 12141,
        "contract": "contracts/co-bots/CoBotsV2.sol:CoBotsV2",
        "label": "_ownerships",
        "offset": 0,
        "slot": "3",
        "type": "t_mapping(t_uint256,t_struct(TokenOwnership)12121_storage)"
      },
      {
        "astId": 12146,
        "contract": "contracts/co-bots/CoBotsV2.sol:CoBotsV2",
        "label": "_addressData",
        "offset": 0,
        "slot": "4",
        "type": "t_mapping(t_address,t_struct(AddressData)12128_storage)"
      },
      {
        "astId": 12150,
        "contract": "contracts/co-bots/CoBotsV2.sol:CoBotsV2",
        "label": "_tokenApprovals",
        "offset": 0,
        "slot": "5",
        "type": "t_mapping(t_uint256,t_address)"
      },
      {
        "astId": 12156,
        "contract": "contracts/co-bots/CoBotsV2.sol:CoBotsV2",
        "label": "_operatorApprovals",
        "offset": 0,
        "slot": "6",
        "type": "t_mapping(t_address,t_mapping(t_address,t_bool))"
      },
      {
        "astId": 5985,
        "contract": "contracts/co-bots/CoBotsV2.sol:CoBotsV2",
        "label": "_owner",
        "offset": 0,
        "slot": "7",
        "type": "t_address"
      },
      {
        "astId": 6093,
        "contract": "contracts/co-bots/CoBotsV2.sol:CoBotsV2",
        "label": "_status",
        "offset": 0,
        "slot": "8",
        "type": "t_uint256"
      },
      {
        "astId": 11608,
        "contract": "contracts/co-bots/CoBotsV2.sol:CoBotsV2",
        "label": "publicSaleStartTimestamp",
        "offset": 0,
        "slot": "9",
        "type": "t_uint256"
      },
      {
        "astId": 11610,
        "contract": "contracts/co-bots/CoBotsV2.sol:CoBotsV2",
        "label": "mintedOutTimestamp",
        "offset": 0,
        "slot": "10",
        "type": "t_uint256"
      },
      {
        "astId": 10183,
        "contract": "contracts/co-bots/CoBotsV2.sol:CoBotsV2",
        "label": "PARAMETERS",
        "offset": 0,
        "slot": "11",
        "type": "t_struct(Parameters)10174_storage"
      },
      {
        "astId": 10187,
        "contract": "contracts/co-bots/CoBotsV2.sol:CoBotsV2",
        "label": "PRIZES",
        "offset": 0,
        "slot": "12",
        "type": "t_array(t_struct(Prize)10154_storage)dyn_storage"
      },
      {
        "astId": 10190,
        "contract": "contracts/co-bots/CoBotsV2.sol:CoBotsV2",
        "label": "MYSTERY_CHALLENGE",
        "offset": 0,
        "slot": "13",
        "type": "t_struct(MysteryChallenge)10161_storage"
      },
      {
        "astId": 10193,
        "contract": "contracts/co-bots/CoBotsV2.sol:CoBotsV2",
        "label": "ENS",
        "offset": 0,
        "slot": "16",
        "type": "t_contract(IERC721)6238"
      },
      {
        "astId": 10196,
        "contract": "contracts/co-bots/CoBotsV2.sol:CoBotsV2",
        "label": "COBOTS_V1",
        "offset": 0,
        "slot": "17",
        "type": "t_contract(IERC721Enumerable)6287"
      },
      {
        "astId": 10198,
        "contract": "contracts/co-bots/CoBotsV2.sol:CoBotsV2",
        "label": "renderingContractAddress",
        "offset": 0,
        "slot": "18",
        "type": "t_address"
      },
      {
        "astId": 10201,
        "contract": "contracts/co-bots/CoBotsV2.sol:CoBotsV2",
        "label": "renderer",
        "offset": 0,
        "slot": "19",
        "type": "t_contract(ICoBotsRendererV2)11744"
      },
      {
        "astId": 10204,
        "contract": "contracts/co-bots/CoBotsV2.sol:CoBotsV2",
        "label": "coBotsSeeds",
        "offset": 0,
        "slot": "20",
        "type": "t_array(t_uint8)dyn_storage"
      },
      {
        "astId": 10208,
        "contract": "contracts/co-bots/CoBotsV2.sol:CoBotsV2",
        "label": "coBotsV1Redeemed",
        "offset": 0,
        "slot": "21",
        "type": "t_mapping(t_uint256,t_bool)"
      },
      {
        "astId": 10210,
        "contract": "contracts/co-bots/CoBotsV2.sol:CoBotsV2",
        "label": "_redeemedCount",
        "offset": 0,
        "slot": "22",
        "type": "t_uint256"
      },
      {
        "astId": 10912,
        "contract": "contracts/co-bots/CoBotsV2.sol:CoBotsV2",
        "label": "COORDINATOR",
        "offset": 0,
        "slot": "23",
        "type": "t_contract(VRFCoordinatorV2Interface)4116"
      },
      {
        "astId": 10915,
        "contract": "contracts/co-bots/CoBotsV2.sol:CoBotsV2",
        "label": "LINKTOKEN",
        "offset": 0,
        "slot": "24",
        "type": "t_contract(LinkTokenInterface)4003"
      },
      {
        "astId": 10917,
        "contract": "contracts/co-bots/CoBotsV2.sol:CoBotsV2",
        "label": "gasKeyHash",
        "offset": 0,
        "slot": "25",
        "type": "t_bytes32"
      },
      {
        "astId": 10919,
        "contract": "contracts/co-bots/CoBotsV2.sol:CoBotsV2",
        "label": "chainlinkSubscriptionId",
        "offset": 0,
        "slot": "26",
        "type": "t_uint64"
      },
      {
        "astId": 10999,
        "contract": "contracts/co-bots/CoBotsV2.sol:CoBotsV2",
        "label": "fulfillments",
        "offset": 0,
        "slot": "27",
        "type": "t_mapping(t_uint256,t_struct(Fulfillment)10994_storage)"
      },
      {
        "astId": 11002,
        "contract": "contracts/co-bots/CoBotsV2.sol:CoBotsV2",
        "label": "requestIds",
        "offset": 0,
        "slot": "28",
        "type": "t_array(t_uint256)dyn_storage"
      },
      {
        "astId": 11004,
        "contract": "contracts/co-bots/CoBotsV2.sol:CoBotsV2",
        "label": "drawnAmount",
        "offset": 0,
        "slot": "29",
        "type": "t_uint256"
      }
    ],
    "types": {
      "t_address": {
        "encoding": "inplace",
        "label": "address",
        "numberOfBytes": "20"
      },
      "t_array(t_struct(Prize)10154_storage)dyn_storage": {
        "base": "t_struct(Prize)10154_storage",
        "encoding": "dynamic_array",
        "label": "struct CoBotsV2.Prize[]",
        "numberOfBytes": "32"
      },
      "t_array(t_uint256)dyn_storage": {
        "base": "t_uint256",
        "encoding": "dynamic_array",
        "label": "uint256[]",
        "numberOfBytes": "32"
      },
      "t_array(t_uint8)dyn_storage": {
        "base": "t_uint8",
        "encoding": "dynamic_array",
        "label": "uint8[]",
        "numberOfBytes": "32"
      },
      "t_bool": {
        "encoding": "inplace",
        "label": "bool",
        "numberOfBytes": "1"
      },
      "t_bytes32": {
        "encoding": "inplace",
        "label": "bytes32",
        "numberOfBytes": "32"
      },
      "t_contract(ICoBotsRendererV2)11744": {
        "encoding": "inplace",
        "label": "contract ICoBotsRendererV2",
        "numberOfBytes": "20"
      },
      "t_contract(IERC721)6238": {
        "encoding": "inplace",
        "label": "contract IERC721",
        "numberOfBytes": "20"
      },
      "t_contract(IERC721Enumerable)6287": {
        "encoding": "inplace",
        "label": "contract IERC721Enumerable",
        "numberOfBytes": "20"
      },
      "t_contract(LinkTokenInterface)4003": {
        "encoding": "inplace",
        "label": "contract LinkTokenInterface",
        "numberOfBytes": "20"
      },
      "t_contract(VRFCoordinatorV2Interface)4116": {
        "encoding": "inplace",
        "label": "contract VRFCoordinatorV2Interface",
        "numberOfBytes": "20"
      },
      "t_mapping(t_address,t_bool)": {
        "encoding": "mapping",
        "key": "t_address",
        "label": "mapping(address => bool)",
        "numberOfBytes": "32",
        "value": "t_bool"
      },
      "t_mapping(t_address,t_mapping(t_address,t_bool))": {
        "encoding": "mapping",
        "key": "t_address",
        "label": "mapping(address => mapping(address => bool))",
        "numberOfBytes": "32",
        "value": "t_mapping(t_address,t_bool)"
      },
      "t_mapping(t_address,t_struct(AddressData)12128_storage)": {
        "encoding": "mapping",
        "key": "t_address",
        "label": "mapping(address => struct ERC721A.AddressData)",
        "numberOfBytes": "32",
        "value": "t_struct(AddressData)12128_storage"
      },
      "t_mapping(t_uint256,t_address)": {
        "encoding": "mapping",
        "key": "t_uint256",
        "label": "mapping(uint256 => address)",
        "numberOfBytes": "32",
        "value": "t_address"
      },
      "t_mapping(t_uint256,t_bool)": {
        "encoding": "mapping",
        "key": "t_uint256",
        "label": "mapping(uint256 => bool)",
        "numberOfBytes": "32",
        "value": "t_bool"
      },
      "t_mapping(t_uint256,t_struct(Fulfillment)10994_storage)": {
        "encoding": "mapping",
        "key": "t_uint256",
        "label": "mapping(uint256 => struct CoBotsV2.Fulfillment)",
        "numberOfBytes": "32",
        "value": "t_struct(Fulfillment)10994_storage"
      },
      "t_mapping(t_uint256,t_struct(TokenOwnership)12121_storage)": {
        "encoding": "mapping",
        "key": "t_uint256",
        "label": "mapping(uint256 => struct ERC721A.TokenOwnership)",
        "numberOfBytes": "32",
        "value": "t_struct(TokenOwnership)12121_storage"
      },
      "t_string_storage": {
        "encoding": "bytes",
        "label": "string",
        "numberOfBytes": "32"
      },
      "t_struct(AddressData)12128_storage": {
        "encoding": "inplace",
        "label": "struct ERC721A.AddressData",
        "members": [
          {
            "astId": 12123,
            "contract": "contracts/co-bots/CoBotsV2.sol:CoBotsV2",
            "label": "balance",
            "offset": 0,
            "slot": "0",
            "type": "t_uint64"
          },
          {
            "astId": 12125,
            "contract": "contracts/co-bots/CoBotsV2.sol:CoBotsV2",
            "label": "numberMinted",
            "offset": 8,
            "slot": "0",
            "type": "t_uint64"
          },
          {
            "astId": 12127,
            "contract": "contracts/co-bots/CoBotsV2.sol:CoBotsV2",
            "label": "numberBurned",
            "offset": 16,
            "slot": "0",
            "type": "t_uint64"
          }
        ],
        "numberOfBytes": "32"
      },
      "t_struct(Fulfillment)10994_storage": {
        "encoding": "inplace",
        "label": "struct CoBotsV2.Fulfillment",
        "members": [
          {
            "astId": 10988,
            "contract": "contracts/co-bots/CoBotsV2.sol:CoBotsV2",
            "label": "prize",
            "offset": 0,
            "slot": "0",
            "type": "t_struct(Prize)10154_storage"
          },
          {
            "astId": 10990,
            "contract": "contracts/co-bots/CoBotsV2.sol:CoBotsV2",
            "label": "fulfilled",
            "offset": 0,
            "slot": "1",
            "type": "t_bool"
          },
          {
            "astId": 10993,
            "contract": "contracts/co-bots/CoBotsV2.sol:CoBotsV2",
            "label": "winner",
            "offset": 0,
            "slot": "2",
            "type": "t_struct(Winner)10985_storage"
          }
        ],
        "numberOfBytes": "96"
      },
      "t_struct(MysteryChallenge)10161_storage": {
        "encoding": "inplace",
        "label": "struct CoBotsV2.MysteryChallenge",
        "members": [
          {
            "astId": 10156,
            "contract": "contracts/co-bots/CoBotsV2.sol:CoBotsV2",
            "label": "ensId",
            "offset": 0,
            "slot": "0",
            "type": "t_uint256"
          },
          {
            "astId": 10158,
            "contract": "contracts/co-bots/CoBotsV2.sol:CoBotsV2",
            "label": "value",
            "offset": 0,
            "slot": "1",
            "type": "t_uint256"
          },
          {
            "astId": 10160,
            "contract": "contracts/co-bots/CoBotsV2.sol:CoBotsV2",
            "label": "prizeIndex",
            "offset": 0,
            "slot": "2",
            "type": "t_uint8"
          }
        ],
        "numberOfBytes": "96"
      },
      "t_struct(Parameters)10174_storage": {
        "encoding": "inplace",
        "label": "struct CoBotsV2.Parameters",
        "members": [
          {
            "astId": 10163,
            "contract": "contracts/co-bots/CoBotsV2.sol:CoBotsV2",
            "label": "cobotsV1Discount",
            "offset": 0,
            "slot": "0",
            "type": "t_uint8"
          },
          {
            "astId": 10165,
            "contract": "contracts/co-bots/CoBotsV2.sol:CoBotsV2",
            "label": "mintOutFoundersWithdrawalDelay",
            "offset": 1,
            "slot": "0",
            "type": "t_uint16"
          },
          {
            "astId": 10167,
            "contract": "contracts/co-bots/CoBotsV2.sol:CoBotsV2",
            "label": "grandPrizeDelay",
            "offset": 3,
            "slot": "0",
            "type": "t_uint16"
          },
          {
            "astId": 10169,
            "contract": "contracts/co-bots/CoBotsV2.sol:CoBotsV2",
            "label": "maxCobots",
            "offset": 5,
            "slot": "0",
            "type": "t_uint16"
          },
          {
            "astId": 10171,
            "contract": "contracts/co-bots/CoBotsV2.sol:CoBotsV2",
            "label": "contestDuration",
            "offset": 7,
            "slot": "0",
            "type": "t_uint24"
          },
          {
            "astId": 10173,
            "contract": "contracts/co-bots/CoBotsV2.sol:CoBotsV2",
            "label": "mintPublicPrice",
            "offset": 10,
            "slot": "0",
            "type": "t_uint72"
          }
        ],
        "numberOfBytes": "32"
      },
      "t_struct(Prize)10154_storage": {
        "encoding": "inplace",
        "label": "struct CoBotsV2.Prize",
        "members": [
          {
            "astId": 10149,
            "contract": "contracts/co-bots/CoBotsV2.sol:CoBotsV2",
            "label": "checkpoint",
            "offset": 0,
            "slot": "0",
            "type": "t_uint16"
          },
          {
            "astId": 10151,
            "contract": "contracts/co-bots/CoBotsV2.sol:CoBotsV2",
            "label": "amount",
            "offset": 2,
            "slot": "0",
            "type": "t_uint72"
          },
          {
            "astId": 10153,
            "contract": "contracts/co-bots/CoBotsV2.sol:CoBotsV2",
            "label": "isContest",
            "offset": 11,
            "slot": "0",
            "type": "t_bool"
          }
        ],
        "numberOfBytes": "32"
      },
      "t_struct(TokenOwnership)12121_storage": {
        "encoding": "inplace",
        "label": "struct ERC721A.TokenOwnership",
        "members": [
          {
            "astId": 12116,
            "contract": "contracts/co-bots/CoBotsV2.sol:CoBotsV2",
            "label": "addr",
            "offset": 0,
            "slot": "0",
            "type": "t_address"
          },
          {
            "astId": 12118,
            "contract": "contracts/co-bots/CoBotsV2.sol:CoBotsV2",
            "label": "startTimestamp",
            "offset": 20,
            "slot": "0",
            "type": "t_uint64"
          },
          {
            "astId": 12120,
            "contract": "contracts/co-bots/CoBotsV2.sol:CoBotsV2",
            "label": "burned",
            "offset": 28,
            "slot": "0",
            "type": "t_bool"
          }
        ],
        "numberOfBytes": "32"
      },
      "t_struct(Winner)10985_storage": {
        "encoding": "inplace",
        "label": "struct CoBotsV2.Winner",
        "members": [
          {
            "astId": 10982,
            "contract": "contracts/co-bots/CoBotsV2.sol:CoBotsV2",
            "label": "winner",
            "offset": 0,
            "slot": "0",
            "type": "t_address"
          },
          {
            "astId": 10984,
            "contract": "contracts/co-bots/CoBotsV2.sol:CoBotsV2",
            "label": "tokenId",
            "offset": 20,
            "slot": "0",
            "type": "t_uint16"
          }
        ],
        "numberOfBytes": "32"
      },
      "t_uint128": {
        "encoding": "inplace",
        "label": "uint128",
        "numberOfBytes": "16"
      },
      "t_uint16": {
        "encoding": "inplace",
        "label": "uint16",
        "numberOfBytes": "2"
      },
      "t_uint24": {
        "encoding": "inplace",
        "label": "uint24",
        "numberOfBytes": "3"
      },
      "t_uint256": {
        "encoding": "inplace",
        "label": "uint256",
        "numberOfBytes": "32"
      },
      "t_uint64": {
        "encoding": "inplace",
        "label": "uint64",
        "numberOfBytes": "8"
      },
      "t_uint72": {
        "encoding": "inplace",
        "label": "uint72",
        "numberOfBytes": "9"
      },
      "t_uint8": {
        "encoding": "inplace",
        "label": "uint8",
        "numberOfBytes": "1"
      }
    }
  }
}