{
  "address": "0x52c9BE33B36eBE524408adF4032816C7aA163448",
  "abi": [
    {
      "inputs": [
        {
          "internalType": "address",
          "name": "_coBotsRenderer",
          "type": "address"
        }
      ],
      "stateMutability": "nonpayable",
      "type": "constructor"
    },
    {
      "inputs": [],
      "name": "WriteError",
      "type": "error"
    },
    {
      "anonymous": false,
      "inputs": [
        {
          "indexed": false,
          "internalType": "address",
          "name": "prevPointer",
          "type": "address"
        },
        {
          "indexed": false,
          "internalType": "address",
          "name": "newPointer",
          "type": "address"
        }
      ],
      "name": "CollectionChanged",
      "type": "event"
    },
    {
      "anonymous": false,
      "inputs": [
        {
          "indexed": false,
          "internalType": "address",
          "name": "_palette",
          "type": "address"
        }
      ],
      "name": "ColorPaletteChanged",
      "type": "event"
    },
    {
      "anonymous": false,
      "inputs": [
        {
          "indexed": true,
          "internalType": "address",
          "name": "previousOwner",
          "type": "address"
        },
        {
          "indexed": true,
          "internalType": "address",
          "name": "newOwner",
          "type": "address"
        }
      ],
      "name": "OwnershipTransferred",
      "type": "event"
    },
    {
      "inputs": [
        {
          "internalType": "uint256[10]",
          "name": "items",
          "type": "uint256[10]"
        }
      ],
      "name": "getCoBotAttributes",
      "outputs": [
        {
          "internalType": "string",
          "name": "",
          "type": "string"
        }
      ],
      "stateMutability": "view",
      "type": "function"
    },
    {
      "inputs": [
        {
          "internalType": "uint256[10]",
          "name": "items",
          "type": "uint256[10]"
        }
      ],
      "name": "getCoBotBytes",
      "outputs": [
        {
          "internalType": "bytes",
          "name": "",
          "type": "bytes"
        }
      ],
      "stateMutability": "view",
      "type": "function"
    },
    {
      "inputs": [
        {
          "internalType": "uint256",
          "name": "tokenId",
          "type": "uint256"
        },
        {
          "internalType": "uint8",
          "name": "seed",
          "type": "uint8"
        }
      ],
      "name": "getCoBotItems",
      "outputs": [
        {
          "internalType": "uint256[10]",
          "name": "",
          "type": "uint256[10]"
        }
      ],
      "stateMutability": "view",
      "type": "function"
    },
    {
      "inputs": [
        {
          "internalType": "uint256[10]",
          "name": "items",
          "type": "uint256[10]"
        }
      ],
      "name": "imageURI",
      "outputs": [
        {
          "internalType": "string",
          "name": "",
          "type": "string"
        }
      ],
      "stateMutability": "view",
      "type": "function"
    },
    {
      "inputs": [],
      "name": "owner",
      "outputs": [
        {
          "internalType": "address",
          "name": "",
          "type": "address"
        }
      ],
      "stateMutability": "view",
      "type": "function"
    },
    {
      "inputs": [],
      "name": "renounceOwnership",
      "outputs": [],
      "stateMutability": "nonpayable",
      "type": "function"
    },
    {
      "inputs": [
        {
          "components": [
            {
              "internalType": "bytes",
              "name": "traits",
              "type": "bytes"
            },
            {
              "internalType": "string[][]",
              "name": "traitNames",
              "type": "string[][]"
            },
            {
              "internalType": "string[]",
              "name": "characteristicNames",
              "type": "string[]"
            },
            {
              "internalType": "string",
              "name": "description",
              "type": "string"
            }
          ],
          "internalType": "struct CollectionEncoded",
          "name": "collection",
          "type": "tuple"
        }
      ],
      "name": "storeCollection",
      "outputs": [],
      "stateMutability": "nonpayable",
      "type": "function"
    },
    {
      "inputs": [
        {
          "internalType": "bytes",
          "name": "palette",
          "type": "bytes"
        }
      ],
      "name": "storePalette",
      "outputs": [],
      "stateMutability": "nonpayable",
      "type": "function"
    },
    {
      "inputs": [
        {
          "internalType": "uint256",
          "name": "tokenId",
          "type": "uint256"
        },
        {
          "internalType": "uint8",
          "name": "seed",
          "type": "uint8"
        }
      ],
      "name": "tokenURI",
      "outputs": [
        {
          "internalType": "string",
          "name": "",
          "type": "string"
        }
      ],
      "stateMutability": "view",
      "type": "function"
    },
    {
      "inputs": [
        {
          "internalType": "address",
          "name": "newOwner",
          "type": "address"
        }
      ],
      "name": "transferOwnership",
      "outputs": [],
      "stateMutability": "nonpayable",
      "type": "function"
    }
  ],
  "transactionHash": "0x12c0139ea54b59094129ddff4590931ee076cc2547ae982dc9cff1113de83f3c",
  "args": [
    "0xAB23145aC706A2454cCAD3ED7c76569CAf3D3fAD"
  ],
  "numDeployments": 1,
  "solcInputHash": "526d079cfccc98d8684cb23b407c3de5",
  "bytecode": "0x60806040523480156200001157600080fd5b50604051620023f5380380620023f58339810160408190526200003491620000f3565b6200003f3362000069565b60018055600780546001600160a01b0319166001600160a01b039290921691909117905562000120565b600080546001600160a01b038381166001600160a01b0319831681178455604051919092169283917f8be0079c531659141344cd1fd0a4f28419497f9722a3daafe3b4186f6b6457e09190a35050565b60006001600160a01b0382165b92915050565b620000d781620000b9565b8114620000e357600080fd5b50565b8051620000c681620000cc565b6000602082840312156200010a576200010a600080fd5b6000620001188484620000e6565b949350505050565b6122c580620001306000396000f3fe608060405234801561001057600080fd5b50600436106100be5760003560e01c80638da5cb5b11610076578063ec71d0ff1161005b578063ec71d0ff14610168578063f2fde38b1461017b578063fad3492a1461018e57600080fd5b80638da5cb5b1461012f578063e50fe81e1461014857600080fd5b80635cc518ba116100a75780635cc518ba1461010157806365fafc0814610114578063715018a61461012757600080fd5b8063323cd367146100c35780634f31249b146100ec575b600080fd5b6100d66100d136600461145a565b6101a1565b6040516100e391906114de565b60405180910390f35b6100ff6100fa36600461158d565b610428565b005b6100d661010f3660046115dc565b610496565b6100d661012236600461145a565b61057c565b6100ff6107a7565b6000546001600160a01b03166040516100e39190611639565b61015b6101563660046115dc565b6107e6565b6040516100e39190611696565b6100d661017636600461145a565b61092c565b6100ff6101893660046116b9565b610f1d565b6100ff61019c3660046118fb565b610f79565b604080518082018252601381527f646174613a696d6167652f7376672b786d6c2c00000000000000000000000000602082015260075482517f480bc3c800000000000000000000000000000000000000000000000000000000815292516060936001600160a01b039092169163480bc3c89160048083019260009291908290030181865afa158015610237573d6000803e3d6000fd5b505050506040513d6000823e601f3d908101601f1916820160405261025f919081019061198e565b73F95E41C14C45798A8A60b20E8C92495C12416e6663999086e36102828661092c565b6002546040517f657fb2e100000000000000000000000000000000000000000000000000000000815273A040dB259B37219C3C18e987BE9Bc871C73408019163657fb2e1916102dd916001600160a01b031690600401611639565b600060405180830381865af41580156102fa573d6000803e3d6000fd5b505050506040513d6000823e601f3d908101601f191682016040526103229190810190611a59565b6040518363ffffffff1660e01b815260040161033f929190611b04565b600060405180830381865af415801561035c573d6000803e3d6000fd5b505050506040513d6000823e601f3d908101601f19168201604052610384919081019061198e565b600760009054906101000a90046001600160a01b03166001600160a01b0316636f5c723b6040518163ffffffff1660e01b8152600401600060405180830381865afa1580156103d7573d6000803e3d6000fd5b505050506040513d6000823e601f3d908101601f191682016040526103ff919081019061198e565b6040516020016104129493929190611b4b565b6040516020818303038152906040529050919050565b61043181611054565b6002805473ffffffffffffffffffffffffffffffffffffffff19166001600160a01b039290921691821790556040517f85b1f2b178b7000a8540a7f228e335a4d91d556bd54438839f6e821fede2b4a49161048b91611639565b60405180910390a150565b606060006104a484846107e6565b90506104af816101a1565b6040517f6900a3ae00000000000000000000000000000000000000000000000000000000815260069073FD60cDD345feB6011fDeb4Dc3d69aD2319f8508C90636900a3ae90610502908990600401611b82565b600060405180830381865af415801561051f573d6000803e3d6000fd5b505050506040513d6000823e601f3d908101601f19168201604052610547919081019061198e565b6105508461057c565b6040516020016105639493929190611c59565b6040516020818303038152906040529150505b92915050565b6040805160a081018252600681526008602082015260008183018190526007606080840191909152600960808401528351600580825260c082019095529093816020015b60608152602001906001900390816105c057905050905060005b60058110156106e95760048382600581106105f7576105f7611daa565b602002015160ff168154811061060f5761060f611daa565b90600052602060002001600584836005811061062d5761062d611daa565b602002015160ff168154811061064557610645611daa565b906000526020600020018685846005811061066257610662611daa565b602002015160ff16600a811061067a5761067a611daa565b60200201518154811061068f5761068f611daa565b906000526020600020016040516020016106aa929190611dc0565b6040516020818303038152906040528282815181106106cb576106cb611daa565b602002602001018190525080806106e190611e65565b9150506105da565b506040517ffca1c0b9000000000000000000000000000000000000000000000000000000008152731FA6A2152871D5A4D1f56511110C9a353CA483399063fca1c0b99061073a908490600401611ed0565b600060405180830381865af4158015610757573d6000803e3d6000fd5b505050506040513d6000823e601f3d908101601f1916820160405261077f919081019061198e565b60405160200161078f9190611ef4565b60405160208183030381529060405292505050919050565b6000546001600160a01b031633146107da5760405162461bcd60e51b81526004016107d190611f80565b60405180910390fd5b6107e460006110d2565b565b6107ee611145565b6000808080806107ff600288611fa6565b6007546040517f47bf48f300000000000000000000000000000000000000000000000000000000815260ff9290921692506001600160a01b0316906347bf48f390610850908b908b90600401611fce565b608060405180830381865afa15801561086d573d6000803e3d6000fd5b505050506040513d601f19601f820116820180604052508101906108919190611ff4565b929750909550935091506108a3611145565b838152600060208201526108b96103e88a612058565b6040820152600a6108cb60648b612058565b6108d5919061206c565b6060820152600a6108e6818b612058565b6108f0919061206c565b6080820152610900600a8a61206c565b60a082015260c081019590955260e0850191909152610100840192909252506101208201529392505050565b600354602082015160405163108e6af960e21b815260609273F95E41C14C45798A8A60b20E8C92495C12416e6692634239abe492610979926001600160a01b03169160019160040161208a565b600060405180830381865af4158015610996573d6000803e3d6000fd5b505050506040513d6000823e601f3d908101601f191682016040526109be919081019061198e565b600354604080850151905163108e6af960e21b815273F95E41C14C45798A8A60b20E8C92495C12416e6692634239abe492610a0b926001600160a01b03909216916002919060040161208a565b600060405180830381865af4158015610a28573d6000803e3d6000fd5b505050506040513d6000823e601f3d908101601f19168201604052610a50919081019061198e565b60038054606086015160405163108e6af960e21b815273F95E41C14C45798A8A60b20E8C92495C12416e6693634239abe493610a9a936001600160a01b039091169260040161208a565b600060405180830381865af4158015610ab7573d6000803e3d6000fd5b505050506040513d6000823e601f3d908101601f19168201604052610adf919081019061198e565b600354608086015160405163108e6af960e21b815273F95E41C14C45798A8A60b20E8C92495C12416e6692634239abe492610b2b926001600160a01b039092169160049190820161208a565b600060405180830381865af4158015610b48573d6000803e3d6000fd5b505050506040513d6000823e601f3d908101601f19168201604052610b70919081019061198e565b60035460a087015160405163108e6af960e21b815273F95E41C14C45798A8A60b20E8C92495C12416e6692634239abe492610bbd926001600160a01b03909216916005919060040161208a565b600060405180830381865af4158015610bda573d6000803e3d6000fd5b505050506040513d6000823e601f3d908101601f19168201604052610c02919081019061198e565b60035460c088015160405163108e6af960e21b815273F95E41C14C45798A8A60b20E8C92495C12416e6692634239abe492610c4f926001600160a01b03909216916006919060040161208a565b600060405180830381865af4158015610c6c573d6000803e3d6000fd5b505050506040513d6000823e601f3d908101601f19168201604052610c94919081019061198e565b60035461010089015160405163108e6af960e21b815273F95E41C14C45798A8A60b20E8C92495C12416e6692634239abe492610ce2926001600160a01b03909216916008919060040161208a565b600060405180830381865af4158015610cff573d6000803e3d6000fd5b505050506040513d6000823e601f3d908101601f19168201604052610d27919081019061198e565b600354895160405163108e6af960e21b815273F95E41C14C45798A8A60b20E8C92495C12416e6692634239abe492610d71926001600160a01b03909216916000919060040161208a565b600060405180830381865af4158015610d8e573d6000803e3d6000fd5b505050506040513d6000823e601f3d908101601f19168201604052610db6919081019061198e565b60035460e08b015160405163108e6af960e21b815273F95E41C14C45798A8A60b20E8C92495C12416e6692634239abe492610e03926001600160a01b03909216916007919060040161208a565b600060405180830381865af4158015610e20573d6000803e3d6000fd5b505050506040513d6000823e601f3d908101601f19168201604052610e48919081019061198e565b6101208b0151600114610e77576040805160048082528183019092529060208201818036833701905050610f04565b60035460405163108e6af960e21b815273F95E41C14C45798A8A60b20E8C92495C12416e6691634239abe491610ebf916001600160a01b0316906009906000906004016120b2565b600060405180830381865af4158015610edc573d6000803e3d6000fd5b505050506040513d6000823e601f3d908101601f19168201604052610f04919081019061198e565b6040516020016104129a999897969594939291906120da565b6000546001600160a01b03163314610f475760405162461bcd60e51b81526004016107d190611f80565b6001600160a01b038116610f6d5760405162461bcd60e51b81526004016107d19061215f565b610f76816110d2565b50565b60035481516001600160a01b0390911690610f9390611054565b6003805473ffffffffffffffffffffffffffffffffffffffff19166001600160a01b039290921691909117905560408201518051610fd991600491602090910190611164565b506020808301518051610ff09260059201906111c1565b506060820151805161100a9160069160209091019061121a565b506003546040517f2b6ca4cbda96534ab1e865e0e9686ed13f63f1ad6e54185bde7686f0ed726a5e916110489184916001600160a01b0316906121c0565b60405180910390a15050565b60008061107f8360405160200161106b91906121e6565b60405160208183030381529060405261112f565b90508051602082016000f091506001600160a01b0382166110cc576040517f08d4abb600000000000000000000000000000000000000000000000000000000815260040160405180910390fd5b50919050565b600080546001600160a01b0383811673ffffffffffffffffffffffffffffffffffffffff19831681178455604051919092169283917f8be0079c531659141344cd1fd0a4f28419497f9722a3daafe3b4186f6b6457e09190a35050565b606081518260405160200161041292919061223e565b604051806101400160405280600a906020820280368337509192915050565b8280548282559060005260206000209081019282156111b1579160200282015b828111156111b157825180516111a191849160209091019061121a565b5091602001919060010190611184565b506111bd92915061129a565b5090565b82805482825590600052602060002090810192821561120e579160200282015b8281111561120e57825180516111fe918491602090910190611164565b50916020019190600101906111e1565b506111bd9291506112b7565b82805461122690611ba6565b90600052602060002090601f016020900481019282611248576000855561128e565b82601f1061126157805160ff191683800117855561128e565b8280016001018555821561128e579182015b8281111561128e578251825591602001919060010190611273565b506111bd9291506112d4565b808211156111bd5760006112ae82826112e9565b5060010161129a565b808211156111bd5760006112cb8282611323565b506001016112b7565b5b808211156111bd57600081556001016112d5565b5080546112f590611ba6565b6000825580601f10611305575050565b601f016020900490600052602060002090810190610f7691906112d4565b5080546000825590600052602060002090810190610f76919061129a565b634e487b7160e01b600052604160045260246000fd5b601f19601f830116810181811067ffffffffffffffff8211171561137d5761137d611341565b6040525050565b600061138f60405190565b905061139b8282611357565b919050565b600067ffffffffffffffff8211156113ba576113ba611341565b5060200290565b805b8114610f7657600080fd5b8035610576816113c1565b60006113ec6113e7846113a0565b611384565b9050806020840283018581111561140557611405600080fd5b835b818110156114275761141987826113ce565b835260209283019201611407565b5050509392505050565b600082601f83011261144557611445600080fd5b600a6114528482856113d9565b949350505050565b6000610140828403121561147057611470600080fd5b60006114528484611431565b60005b8381101561149757818101518382015260200161147f565b838111156114a6576000848401525b50505050565b60006114b6825190565b8084526020840193506114cd81856020860161147c565b601f01601f19169290920192915050565b602080825281016114ef81846114ac565b9392505050565b600067ffffffffffffffff82111561151057611510611341565b601f19601f83011660200192915050565b82818337506000910152565b600061153b6113e7846114f6565b90508281526020810184848401111561155657611556600080fd5b611561848285611521565b509392505050565b600082601f83011261157d5761157d600080fd5b813561145284826020860161152d565b6000602082840312156115a2576115a2600080fd5b813567ffffffffffffffff8111156115bc576115bc600080fd5b61145284828501611569565b60ff81166113c3565b8035610576816115c8565b600080604083850312156115f2576115f2600080fd5b60006115fe85856113ce565b925050602061160f858286016115d1565b9150509250929050565b60006001600160a01b038216610576565b61163381611619565b82525050565b60208101610576828461162a565b80611633565b6116578282611647565b5060200190565b60200190565b600a8160005b8281101561168f57815161167e868261164d565b95505060208201915060010161166a565b5050505050565b61014081016105768284611664565b6113c381611619565b8035610576816116a5565b6000602082840312156116ce576116ce600080fd5b600061145284846116ae565b600067ffffffffffffffff8211156116f4576116f4611341565b5060209081020190565b600061170c6113e7846116da565b8381529050602080820190840283018581111561172b5761172b600080fd5b835b8181101561142757803567ffffffffffffffff81111561174f5761174f600080fd5b850161175b8882611569565b8452506020928301920161172d565b600082601f83011261177e5761177e600080fd5b81356114528482602086016116fe565b600061179c6113e7846116da565b838152905060208082019084028301858111156117bb576117bb600080fd5b835b8181101561142757803567ffffffffffffffff8111156117df576117df600080fd5b85016117eb888261176a565b845250602092830192016117bd565b600082601f83011261180e5761180e600080fd5b813561145284826020860161178e565b60006080828403121561183357611833600080fd5b61183d6080611384565b9050813567ffffffffffffffff81111561185957611859600080fd5b61186584828501611569565b825250602082013567ffffffffffffffff81111561188557611885600080fd5b611891848285016117fa565b602083015250604082013567ffffffffffffffff8111156118b4576118b4600080fd5b6118c08482850161176a565b604083015250606082013567ffffffffffffffff8111156118e3576118e3600080fd5b6118ef84828501611569565b60608301525092915050565b60006020828403121561191057611910600080fd5b813567ffffffffffffffff81111561192a5761192a600080fd5b6114528482850161181e565b60006119446113e7846114f6565b90508281526020810184848401111561195f5761195f600080fd5b61156184828561147c565b600082601f83011261197e5761197e600080fd5b8151611452848260208601611936565b6000602082840312156119a3576119a3600080fd5b815167ffffffffffffffff8111156119bd576119bd600080fd5b6114528482850161196a565b60006119d76113e7846116da565b838152905060208082019084028301858111156119f6576119f6600080fd5b835b8181101561142757805167ffffffffffffffff811115611a1a57611a1a600080fd5b8501611a26888261196a565b845250602092830192016119f8565b600082601f830112611a4957611a49600080fd5b81516114528482602086016119c9565b600060208284031215611a6e57611a6e600080fd5b815167ffffffffffffffff811115611a8857611a88600080fd5b61145284828501611a35565b60006114ef83836114ac565b6000611aaa825190565b80845260208401935083602082028501611ac48560200190565b60005b84811015611af85783830388528151611ae08482611a94565b93505060208201602098909801979150600101611ac7565b50909695505050505050565b60408082528101611b1581856114ac565b905081810360208301526114528184611aa0565b6000611b33825190565b611b4181856020860161147c565b9290920192915050565b611b558186611b29565b9050611b618185611b29565b9050611b6d8184611b29565b9050611b798183611b29565b95945050505050565b602081016105768284611647565b634e487b7160e01b600052602260045260246000fd5b600281046001821680611bba57607f821691505b602082108114156110cc576110cc611b90565b60008154611bda81611ba6565b600182168015611bf15760018114611c2057611c50565b7fffffffffffffffffffffffffffffffffffffffffffffffffffffffffffffff00831686528186019350611c50565b60008581526020902060005b83811015611c4857815488820152600190910190602001611c2c565b505081860193505b50505092915050565b7f646174613a6170706c69636174696f6e2f6a736f6e2c000000000000000000008152601601611ca8817f7b22696d616765223a20220000000000000000000000000000000000000000009052565b600b01611cb58186611b29565b601160f91b81529050600101611cea817f2c226465736372697074696f6e223a20220000000000000000000000000000009052565b601101611cf78185611bcd565b601160f91b81529050600101611d2c817f2c226e616d65223a2022436f2d426f74202300000000000000000000000000009052565b601201611d398184611b29565b601160f91b81529050600101611d6e817f2c2261747472696275746573223a2000000000000000000000000000000000009052565b600f01611d7b8183611b29565b7f7d00000000000000000000000000000000000000000000000000000000000000815260010195945050505050565b634e487b7160e01b600052603260045260246000fd5b7f7b2274726169745f74797065223a2022000000000000000000000000000000008152601001611df08184611bcd565b7f222c202276616c7565223a20220000000000000000000000000000000000000081529050600d01611e228183611bcd565b7f227d00000000000000000000000000000000000000000000000000000000000081526002019392505050565b634e487b7160e01b600052601160045260246000fd5b60007fffffffffffffffffffffffffffffffffffffffffffffffffffffffffffffffff821415611e9757611e97611e4f565b5060010190565b60018152602081017f2c000000000000000000000000000000000000000000000000000000000000008152905061165e565b60408082528101611ee18184611aa0565b905081810360208301526114ef81611e9e565b7f5b000000000000000000000000000000000000000000000000000000000000008152600101611f248183611b29565b7f5d00000000000000000000000000000000000000000000000000000000000000815260010192915050565b60208082527f4f776e61626c653a2063616c6c6572206973206e6f7420746865206f776e6572910190815261165e565b6020808252810161057681611f50565b634e487b7160e01b600052601260045260246000fd5b60ff9081169082165b9150600082611fc057611fc0611f90565b500690565b60ff8116611633565b60408101611fdc8285611647565b6114ef6020830184611fc5565b8051610576816113c1565b6000806000806080858703121561200d5761200d600080fd5b60006120198787611fe9565b945050602061202a87828801611fe9565b935050604061203b87828801611fe9565b925050606061204c87828801611fe9565b91505092959194509250565b60008261206757612067611f90565b500490565b81611faf565b600061057661207e8381565b90565b61163381612072565b60608101612098828661162a565b6120a56020830185612081565b6114526040830184611647565b606081016120c0828661162a565b6120cd6020830185612081565b6114526040830184612081565b6120e4818c611b29565b90506120f0818b611b29565b90506120fc818a611b29565b90506121088189611b29565b90506121148188611b29565b90506121208187611b29565b905061212c8186611b29565b90506121388185611b29565b90506121448184611b29565b90506121508183611b29565b9b9a5050505050505050505050565b6020808252810161057681602681527f4f776e61626c653a206e6577206f776e657220697320746865207a65726f206160208201527f6464726573730000000000000000000000000000000000000000000000000000604082015260600190565b604081016121ce828561162a565b6114ef602083018461162a565b600081525b60010190565b6121ef816121db565b90506105768183611b29565b7f630000000000000000000000000000000000000000000000000000000000000081526121e0565b60006105768260e01b90565b61163363ffffffff8216612223565b612247816121fb565b9050612253818461222f565b600401612283817f80600e6000396000f30000000000000000000000000000000000000000000000815260090190565b90506114ef8183611b2956fea26469706673582212208337a9a62b77c5a00d2887091bf19004c28d3cc8db55a35066702b389cefbf4964736f6c634300080c0033",
  "deployedBytecode": "0x608060405234801561001057600080fd5b50600436106100be5760003560e01c80638da5cb5b11610076578063ec71d0ff1161005b578063ec71d0ff14610168578063f2fde38b1461017b578063fad3492a1461018e57600080fd5b80638da5cb5b1461012f578063e50fe81e1461014857600080fd5b80635cc518ba116100a75780635cc518ba1461010157806365fafc0814610114578063715018a61461012757600080fd5b8063323cd367146100c35780634f31249b146100ec575b600080fd5b6100d66100d136600461145a565b6101a1565b6040516100e391906114de565b60405180910390f35b6100ff6100fa36600461158d565b610428565b005b6100d661010f3660046115dc565b610496565b6100d661012236600461145a565b61057c565b6100ff6107a7565b6000546001600160a01b03166040516100e39190611639565b61015b6101563660046115dc565b6107e6565b6040516100e39190611696565b6100d661017636600461145a565b61092c565b6100ff6101893660046116b9565b610f1d565b6100ff61019c3660046118fb565b610f79565b604080518082018252601381527f646174613a696d6167652f7376672b786d6c2c00000000000000000000000000602082015260075482517f480bc3c800000000000000000000000000000000000000000000000000000000815292516060936001600160a01b039092169163480bc3c89160048083019260009291908290030181865afa158015610237573d6000803e3d6000fd5b505050506040513d6000823e601f3d908101601f1916820160405261025f919081019061198e565b73__$8dbeda65cfccd7ed7a91dea9e4074110db$__63999086e36102828661092c565b6002546040517f657fb2e100000000000000000000000000000000000000000000000000000000815273__$75a5c6c1ddcd30c79038ef22d8e93ac41a$__9163657fb2e1916102dd916001600160a01b031690600401611639565b600060405180830381865af41580156102fa573d6000803e3d6000fd5b505050506040513d6000823e601f3d908101601f191682016040526103229190810190611a59565b6040518363ffffffff1660e01b815260040161033f929190611b04565b600060405180830381865af415801561035c573d6000803e3d6000fd5b505050506040513d6000823e601f3d908101601f19168201604052610384919081019061198e565b600760009054906101000a90046001600160a01b03166001600160a01b0316636f5c723b6040518163ffffffff1660e01b8152600401600060405180830381865afa1580156103d7573d6000803e3d6000fd5b505050506040513d6000823e601f3d908101601f191682016040526103ff919081019061198e565b6040516020016104129493929190611b4b565b6040516020818303038152906040529050919050565b61043181611054565b6002805473ffffffffffffffffffffffffffffffffffffffff19166001600160a01b039290921691821790556040517f85b1f2b178b7000a8540a7f228e335a4d91d556bd54438839f6e821fede2b4a49161048b91611639565b60405180910390a150565b606060006104a484846107e6565b90506104af816101a1565b6040517f6900a3ae00000000000000000000000000000000000000000000000000000000815260069073__$2a9b762fd8664b1aa3edd8569463e9cda4$__90636900a3ae90610502908990600401611b82565b600060405180830381865af415801561051f573d6000803e3d6000fd5b505050506040513d6000823e601f3d908101601f19168201604052610547919081019061198e565b6105508461057c565b6040516020016105639493929190611c59565b6040516020818303038152906040529150505b92915050565b6040805160a081018252600681526008602082015260008183018190526007606080840191909152600960808401528351600580825260c082019095529093816020015b60608152602001906001900390816105c057905050905060005b60058110156106e95760048382600581106105f7576105f7611daa565b602002015160ff168154811061060f5761060f611daa565b90600052602060002001600584836005811061062d5761062d611daa565b602002015160ff168154811061064557610645611daa565b906000526020600020018685846005811061066257610662611daa565b602002015160ff16600a811061067a5761067a611daa565b60200201518154811061068f5761068f611daa565b906000526020600020016040516020016106aa929190611dc0565b6040516020818303038152906040528282815181106106cb576106cb611daa565b602002602001018190525080806106e190611e65565b9150506105da565b506040517ffca1c0b900000000000000000000000000000000000000000000000000000000815273__$c94a70db6e173404880f68bb6708b44c9d$__9063fca1c0b99061073a908490600401611ed0565b600060405180830381865af4158015610757573d6000803e3d6000fd5b505050506040513d6000823e601f3d908101601f1916820160405261077f919081019061198e565b60405160200161078f9190611ef4565b60405160208183030381529060405292505050919050565b6000546001600160a01b031633146107da5760405162461bcd60e51b81526004016107d190611f80565b60405180910390fd5b6107e460006110d2565b565b6107ee611145565b6000808080806107ff600288611fa6565b6007546040517f47bf48f300000000000000000000000000000000000000000000000000000000815260ff9290921692506001600160a01b0316906347bf48f390610850908b908b90600401611fce565b608060405180830381865afa15801561086d573d6000803e3d6000fd5b505050506040513d601f19601f820116820180604052508101906108919190611ff4565b929750909550935091506108a3611145565b838152600060208201526108b96103e88a612058565b6040820152600a6108cb60648b612058565b6108d5919061206c565b6060820152600a6108e6818b612058565b6108f0919061206c565b6080820152610900600a8a61206c565b60a082015260c081019590955260e0850191909152610100840192909252506101208201529392505050565b600354602082015160405163108e6af960e21b815260609273__$8dbeda65cfccd7ed7a91dea9e4074110db$__92634239abe492610979926001600160a01b03169160019160040161208a565b600060405180830381865af4158015610996573d6000803e3d6000fd5b505050506040513d6000823e601f3d908101601f191682016040526109be919081019061198e565b600354604080850151905163108e6af960e21b815273__$8dbeda65cfccd7ed7a91dea9e4074110db$__92634239abe492610a0b926001600160a01b03909216916002919060040161208a565b600060405180830381865af4158015610a28573d6000803e3d6000fd5b505050506040513d6000823e601f3d908101601f19168201604052610a50919081019061198e565b60038054606086015160405163108e6af960e21b815273__$8dbeda65cfccd7ed7a91dea9e4074110db$__93634239abe493610a9a936001600160a01b039091169260040161208a565b600060405180830381865af4158015610ab7573d6000803e3d6000fd5b505050506040513d6000823e601f3d908101601f19168201604052610adf919081019061198e565b600354608086015160405163108e6af960e21b815273__$8dbeda65cfccd7ed7a91dea9e4074110db$__92634239abe492610b2b926001600160a01b039092169160049190820161208a565b600060405180830381865af4158015610b48573d6000803e3d6000fd5b505050506040513d6000823e601f3d908101601f19168201604052610b70919081019061198e565b60035460a087015160405163108e6af960e21b815273__$8dbeda65cfccd7ed7a91dea9e4074110db$__92634239abe492610bbd926001600160a01b03909216916005919060040161208a565b600060405180830381865af4158015610bda573d6000803e3d6000fd5b505050506040513d6000823e601f3d908101601f19168201604052610c02919081019061198e565b60035460c088015160405163108e6af960e21b815273__$8dbeda65cfccd7ed7a91dea9e4074110db$__92634239abe492610c4f926001600160a01b03909216916006919060040161208a565b600060405180830381865af4158015610c6c573d6000803e3d6000fd5b505050506040513d6000823e601f3d908101601f19168201604052610c94919081019061198e565b60035461010089015160405163108e6af960e21b815273__$8dbeda65cfccd7ed7a91dea9e4074110db$__92634239abe492610ce2926001600160a01b03909216916008919060040161208a565b600060405180830381865af4158015610cff573d6000803e3d6000fd5b505050506040513d6000823e601f3d908101601f19168201604052610d27919081019061198e565b600354895160405163108e6af960e21b815273__$8dbeda65cfccd7ed7a91dea9e4074110db$__92634239abe492610d71926001600160a01b03909216916000919060040161208a565b600060405180830381865af4158015610d8e573d6000803e3d6000fd5b505050506040513d6000823e601f3d908101601f19168201604052610db6919081019061198e565b60035460e08b015160405163108e6af960e21b815273__$8dbeda65cfccd7ed7a91dea9e4074110db$__92634239abe492610e03926001600160a01b03909216916007919060040161208a565b600060405180830381865af4158015610e20573d6000803e3d6000fd5b505050506040513d6000823e601f3d908101601f19168201604052610e48919081019061198e565b6101208b0151600114610e77576040805160048082528183019092529060208201818036833701905050610f04565b60035460405163108e6af960e21b815273__$8dbeda65cfccd7ed7a91dea9e4074110db$__91634239abe491610ebf916001600160a01b0316906009906000906004016120b2565b600060405180830381865af4158015610edc573d6000803e3d6000fd5b505050506040513d6000823e601f3d908101601f19168201604052610f04919081019061198e565b6040516020016104129a999897969594939291906120da565b6000546001600160a01b03163314610f475760405162461bcd60e51b81526004016107d190611f80565b6001600160a01b038116610f6d5760405162461bcd60e51b81526004016107d19061215f565b610f76816110d2565b50565b60035481516001600160a01b0390911690610f9390611054565b6003805473ffffffffffffffffffffffffffffffffffffffff19166001600160a01b039290921691909117905560408201518051610fd991600491602090910190611164565b506020808301518051610ff09260059201906111c1565b506060820151805161100a9160069160209091019061121a565b506003546040517f2b6ca4cbda96534ab1e865e0e9686ed13f63f1ad6e54185bde7686f0ed726a5e916110489184916001600160a01b0316906121c0565b60405180910390a15050565b60008061107f8360405160200161106b91906121e6565b60405160208183030381529060405261112f565b90508051602082016000f091506001600160a01b0382166110cc576040517f08d4abb600000000000000000000000000000000000000000000000000000000815260040160405180910390fd5b50919050565b600080546001600160a01b0383811673ffffffffffffffffffffffffffffffffffffffff19831681178455604051919092169283917f8be0079c531659141344cd1fd0a4f28419497f9722a3daafe3b4186f6b6457e09190a35050565b606081518260405160200161041292919061223e565b604051806101400160405280600a906020820280368337509192915050565b8280548282559060005260206000209081019282156111b1579160200282015b828111156111b157825180516111a191849160209091019061121a565b5091602001919060010190611184565b506111bd92915061129a565b5090565b82805482825590600052602060002090810192821561120e579160200282015b8281111561120e57825180516111fe918491602090910190611164565b50916020019190600101906111e1565b506111bd9291506112b7565b82805461122690611ba6565b90600052602060002090601f016020900481019282611248576000855561128e565b82601f1061126157805160ff191683800117855561128e565b8280016001018555821561128e579182015b8281111561128e578251825591602001919060010190611273565b506111bd9291506112d4565b808211156111bd5760006112ae82826112e9565b5060010161129a565b808211156111bd5760006112cb8282611323565b506001016112b7565b5b808211156111bd57600081556001016112d5565b5080546112f590611ba6565b6000825580601f10611305575050565b601f016020900490600052602060002090810190610f7691906112d4565b5080546000825590600052602060002090810190610f76919061129a565b634e487b7160e01b600052604160045260246000fd5b601f19601f830116810181811067ffffffffffffffff8211171561137d5761137d611341565b6040525050565b600061138f60405190565b905061139b8282611357565b919050565b600067ffffffffffffffff8211156113ba576113ba611341565b5060200290565b805b8114610f7657600080fd5b8035610576816113c1565b60006113ec6113e7846113a0565b611384565b9050806020840283018581111561140557611405600080fd5b835b818110156114275761141987826113ce565b835260209283019201611407565b5050509392505050565b600082601f83011261144557611445600080fd5b600a6114528482856113d9565b949350505050565b6000610140828403121561147057611470600080fd5b60006114528484611431565b60005b8381101561149757818101518382015260200161147f565b838111156114a6576000848401525b50505050565b60006114b6825190565b8084526020840193506114cd81856020860161147c565b601f01601f19169290920192915050565b602080825281016114ef81846114ac565b9392505050565b600067ffffffffffffffff82111561151057611510611341565b601f19601f83011660200192915050565b82818337506000910152565b600061153b6113e7846114f6565b90508281526020810184848401111561155657611556600080fd5b611561848285611521565b509392505050565b600082601f83011261157d5761157d600080fd5b813561145284826020860161152d565b6000602082840312156115a2576115a2600080fd5b813567ffffffffffffffff8111156115bc576115bc600080fd5b61145284828501611569565b60ff81166113c3565b8035610576816115c8565b600080604083850312156115f2576115f2600080fd5b60006115fe85856113ce565b925050602061160f858286016115d1565b9150509250929050565b60006001600160a01b038216610576565b61163381611619565b82525050565b60208101610576828461162a565b80611633565b6116578282611647565b5060200190565b60200190565b600a8160005b8281101561168f57815161167e868261164d565b95505060208201915060010161166a565b5050505050565b61014081016105768284611664565b6113c381611619565b8035610576816116a5565b6000602082840312156116ce576116ce600080fd5b600061145284846116ae565b600067ffffffffffffffff8211156116f4576116f4611341565b5060209081020190565b600061170c6113e7846116da565b8381529050602080820190840283018581111561172b5761172b600080fd5b835b8181101561142757803567ffffffffffffffff81111561174f5761174f600080fd5b850161175b8882611569565b8452506020928301920161172d565b600082601f83011261177e5761177e600080fd5b81356114528482602086016116fe565b600061179c6113e7846116da565b838152905060208082019084028301858111156117bb576117bb600080fd5b835b8181101561142757803567ffffffffffffffff8111156117df576117df600080fd5b85016117eb888261176a565b845250602092830192016117bd565b600082601f83011261180e5761180e600080fd5b813561145284826020860161178e565b60006080828403121561183357611833600080fd5b61183d6080611384565b9050813567ffffffffffffffff81111561185957611859600080fd5b61186584828501611569565b825250602082013567ffffffffffffffff81111561188557611885600080fd5b611891848285016117fa565b602083015250604082013567ffffffffffffffff8111156118b4576118b4600080fd5b6118c08482850161176a565b604083015250606082013567ffffffffffffffff8111156118e3576118e3600080fd5b6118ef84828501611569565b60608301525092915050565b60006020828403121561191057611910600080fd5b813567ffffffffffffffff81111561192a5761192a600080fd5b6114528482850161181e565b60006119446113e7846114f6565b90508281526020810184848401111561195f5761195f600080fd5b61156184828561147c565b600082601f83011261197e5761197e600080fd5b8151611452848260208601611936565b6000602082840312156119a3576119a3600080fd5b815167ffffffffffffffff8111156119bd576119bd600080fd5b6114528482850161196a565b60006119d76113e7846116da565b838152905060208082019084028301858111156119f6576119f6600080fd5b835b8181101561142757805167ffffffffffffffff811115611a1a57611a1a600080fd5b8501611a26888261196a565b845250602092830192016119f8565b600082601f830112611a4957611a49600080fd5b81516114528482602086016119c9565b600060208284031215611a6e57611a6e600080fd5b815167ffffffffffffffff811115611a8857611a88600080fd5b61145284828501611a35565b60006114ef83836114ac565b6000611aaa825190565b80845260208401935083602082028501611ac48560200190565b60005b84811015611af85783830388528151611ae08482611a94565b93505060208201602098909801979150600101611ac7565b50909695505050505050565b60408082528101611b1581856114ac565b905081810360208301526114528184611aa0565b6000611b33825190565b611b4181856020860161147c565b9290920192915050565b611b558186611b29565b9050611b618185611b29565b9050611b6d8184611b29565b9050611b798183611b29565b95945050505050565b602081016105768284611647565b634e487b7160e01b600052602260045260246000fd5b600281046001821680611bba57607f821691505b602082108114156110cc576110cc611b90565b60008154611bda81611ba6565b600182168015611bf15760018114611c2057611c50565b7fffffffffffffffffffffffffffffffffffffffffffffffffffffffffffffff00831686528186019350611c50565b60008581526020902060005b83811015611c4857815488820152600190910190602001611c2c565b505081860193505b50505092915050565b7f646174613a6170706c69636174696f6e2f6a736f6e2c000000000000000000008152601601611ca8817f7b22696d616765223a20220000000000000000000000000000000000000000009052565b600b01611cb58186611b29565b601160f91b81529050600101611cea817f2c226465736372697074696f6e223a20220000000000000000000000000000009052565b601101611cf78185611bcd565b601160f91b81529050600101611d2c817f2c226e616d65223a2022436f2d426f74202300000000000000000000000000009052565b601201611d398184611b29565b601160f91b81529050600101611d6e817f2c2261747472696275746573223a2000000000000000000000000000000000009052565b600f01611d7b8183611b29565b7f7d00000000000000000000000000000000000000000000000000000000000000815260010195945050505050565b634e487b7160e01b600052603260045260246000fd5b7f7b2274726169745f74797065223a2022000000000000000000000000000000008152601001611df08184611bcd565b7f222c202276616c7565223a20220000000000000000000000000000000000000081529050600d01611e228183611bcd565b7f227d00000000000000000000000000000000000000000000000000000000000081526002019392505050565b634e487b7160e01b600052601160045260246000fd5b60007fffffffffffffffffffffffffffffffffffffffffffffffffffffffffffffffff821415611e9757611e97611e4f565b5060010190565b60018152602081017f2c000000000000000000000000000000000000000000000000000000000000008152905061165e565b60408082528101611ee18184611aa0565b905081810360208301526114ef81611e9e565b7f5b000000000000000000000000000000000000000000000000000000000000008152600101611f248183611b29565b7f5d00000000000000000000000000000000000000000000000000000000000000815260010192915050565b60208082527f4f776e61626c653a2063616c6c6572206973206e6f7420746865206f776e6572910190815261165e565b6020808252810161057681611f50565b634e487b7160e01b600052601260045260246000fd5b60ff9081169082165b9150600082611fc057611fc0611f90565b500690565b60ff8116611633565b60408101611fdc8285611647565b6114ef6020830184611fc5565b8051610576816113c1565b6000806000806080858703121561200d5761200d600080fd5b60006120198787611fe9565b945050602061202a87828801611fe9565b935050604061203b87828801611fe9565b925050606061204c87828801611fe9565b91505092959194509250565b60008261206757612067611f90565b500490565b81611faf565b600061057661207e8381565b90565b61163381612072565b60608101612098828661162a565b6120a56020830185612081565b6114526040830184611647565b606081016120c0828661162a565b6120cd6020830185612081565b6114526040830184612081565b6120e4818c611b29565b90506120f0818b611b29565b90506120fc818a611b29565b90506121088189611b29565b90506121148188611b29565b90506121208187611b29565b905061212c8186611b29565b90506121388185611b29565b90506121448184611b29565b90506121508183611b29565b9b9a5050505050505050505050565b6020808252810161057681602681527f4f776e61626c653a206e6577206f776e657220697320746865207a65726f206160208201527f6464726573730000000000000000000000000000000000000000000000000000604082015260600190565b604081016121ce828561162a565b6114ef602083018461162a565b600081525b60010190565b6121ef816121db565b90506105768183611b29565b7f630000000000000000000000000000000000000000000000000000000000000081526121e0565b60006105768260e01b90565b61163363ffffffff8216612223565b612247816121fb565b9050612253818461222f565b600401612283817f80600e6000396000f30000000000000000000000000000000000000000000000815260090190565b90506114ef8183611b2956fea26469706673582212208337a9a62b77c5a00d2887091bf19004c28d3cc8db55a35066702b389cefbf4964736f6c634300080c0033",
  "libraries": {
    "RendererCommons": "0xA040dB259B37219C3C18e987BE9Bc871C7340801",
    "RectRenderer": "0xF95E41C14C45798A8A60b20E8C92495C12416e66",
    "RectEncoder": "0xd753E89a83FCC1D72f4353946E8ca96644D6ec54",
    "Array": "0x1FA6A2152871D5A4D1f56511110C9a353CA48339",
    "Integers": "0xFD60cDD345feB6011fDeb4Dc3d69aD2319f8508C"
  },
  "devdoc": {
    "kind": "dev",
    "methods": {
      "owner()": {
        "details": "Returns the address of the current owner."
      },
      "renounceOwnership()": {
        "details": "Leaves the contract without owner. It will not be possible to call `onlyOwner` functions anymore. Can only be called by the current owner. NOTE: Renouncing ownership will leave the contract without an owner, thereby removing any functionality that is only available to the owner."
      },
      "transferOwnership(address)": {
        "details": "Transfers ownership of the contract to a new account (`newOwner`). Can only be called by the current owner."
      }
    },
    "version": 1
  },
  "userdoc": {
    "kind": "user",
    "methods": {},
    "version": 1
  },
  "storageLayout": {
    "storage": [
      {
        "astId": 6342,
        "contract": "contracts/co-bots/CoBotsRendererV2.sol:CoBotsRendererV2",
        "label": "_owner",
        "offset": 0,
        "slot": "0",
        "type": "t_address"
      },
      {
        "astId": 6450,
        "contract": "contracts/co-bots/CoBotsRendererV2.sol:CoBotsRendererV2",
        "label": "_status",
        "offset": 0,
        "slot": "1",
        "type": "t_uint256"
      },
      {
        "astId": 10006,
        "contract": "contracts/co-bots/CoBotsRendererV2.sol:CoBotsRendererV2",
        "label": "palettePointer",
        "offset": 0,
        "slot": "2",
        "type": "t_address"
      },
      {
        "astId": 10008,
        "contract": "contracts/co-bots/CoBotsRendererV2.sol:CoBotsRendererV2",
        "label": "collectionPointer",
        "offset": 0,
        "slot": "3",
        "type": "t_address"
      },
      {
        "astId": 10011,
        "contract": "contracts/co-bots/CoBotsRendererV2.sol:CoBotsRendererV2",
        "label": "characteristicNames",
        "offset": 0,
        "slot": "4",
        "type": "t_array(t_string_storage)dyn_storage"
      },
      {
        "astId": 10015,
        "contract": "contracts/co-bots/CoBotsRendererV2.sol:CoBotsRendererV2",
        "label": "traitNames",
        "offset": 0,
        "slot": "5",
        "type": "t_array(t_array(t_string_storage)dyn_storage)dyn_storage"
      },
      {
        "astId": 10017,
        "contract": "contracts/co-bots/CoBotsRendererV2.sol:CoBotsRendererV2",
        "label": "description",
        "offset": 0,
        "slot": "6",
        "type": "t_string_storage"
      },
      {
        "astId": 10020,
        "contract": "contracts/co-bots/CoBotsRendererV2.sol:CoBotsRendererV2",
        "label": "coBotsRenderer",
        "offset": 0,
        "slot": "7",
        "type": "t_contract(ICoBotsRenderer)11999"
      }
    ],
    "types": {
      "t_address": {
        "encoding": "inplace",
        "label": "address",
        "numberOfBytes": "20"
      },
      "t_array(t_array(t_string_storage)dyn_storage)dyn_storage": {
        "base": "t_array(t_string_storage)dyn_storage",
        "encoding": "dynamic_array",
        "label": "string[][]",
        "numberOfBytes": "32"
      },
      "t_array(t_string_storage)dyn_storage": {
        "base": "t_string_storage",
        "encoding": "dynamic_array",
        "label": "string[]",
        "numberOfBytes": "32"
      },
      "t_contract(ICoBotsRenderer)11999": {
        "encoding": "inplace",
        "label": "contract ICoBotsRenderer",
        "numberOfBytes": "20"
      },
      "t_string_storage": {
        "encoding": "bytes",
        "label": "string",
        "numberOfBytes": "32"
      },
      "t_uint256": {
        "encoding": "inplace",
        "label": "uint256",
        "numberOfBytes": "32"
      }
    }
  }
}