{
  "address": "0xfF2b82B12e869065Db2800C62D25b91069B7804c",
  "abi": [
    {
      "inputs": [
        {
          "internalType": "string",
          "name": "name_",
          "type": "string"
        },
        {
          "internalType": "string",
          "name": "symbol_",
          "type": "string"
        },
        {
          "internalType": "address",
          "name": "_rendererAddress",
          "type": "address"
        },
        {
          "internalType": "address",
          "name": "_opensea",
          "type": "address"
        },
        {
          "internalType": "address",
          "name": "_looksrare",
          "type": "address"
        },
        {
          "internalType": "address",
          "name": "vrfCoordinator",
          "type": "address"
        },
        {
          "internalType": "address",
          "name": "link",
          "type": "address"
        },
        {
          "internalType": "bytes32",
          "name": "keyHash",
          "type": "bytes32"
        }
      ],
      "stateMutability": "nonpayable",
      "type": "constructor"
    },
    {
      "inputs": [],
      "name": "ApprovalCallerNotOwnerNorApproved",
      "type": "error"
    },
    {
      "inputs": [],
      "name": "ApprovalQueryForNonexistentToken",
      "type": "error"
    },
    {
      "inputs": [],
      "name": "ApprovalToCurrentOwner",
      "type": "error"
    },
    {
      "inputs": [],
      "name": "ApproveToCaller",
      "type": "error"
    },
    {
      "inputs": [],
      "name": "BalanceQueryForZeroAddress",
      "type": "error"
    },
    {
      "inputs": [],
      "name": "MintToZeroAddress",
      "type": "error"
    },
    {
      "inputs": [],
      "name": "MintZeroQuantity",
      "type": "error"
    },
    {
      "inputs": [
        {
          "internalType": "address",
          "name": "have",
          "type": "address"
        },
        {
          "internalType": "address",
          "name": "want",
          "type": "address"
        }
      ],
      "name": "OnlyCoordinatorCanFulfill",
      "type": "error"
    },
    {
      "inputs": [],
      "name": "OwnerIndexOutOfBounds",
      "type": "error"
    },
    {
      "inputs": [],
      "name": "OwnerQueryForNonexistentToken",
      "type": "error"
    },
    {
      "inputs": [],
      "name": "TokenIndexOutOfBounds",
      "type": "error"
    },
    {
      "inputs": [],
      "name": "TransferCallerNotOwnerNorApproved",
      "type": "error"
    },
    {
      "inputs": [],
      "name": "TransferFromIncorrectOwner",
      "type": "error"
    },
    {
      "inputs": [],
      "name": "TransferToNonERC721ReceiverImplementer",
      "type": "error"
    },
    {
      "inputs": [],
      "name": "TransferToZeroAddress",
      "type": "error"
    },
    {
      "anonymous": false,
      "inputs": [
        {
          "indexed": true,
          "internalType": "address",
          "name": "owner",
          "type": "address"
        },
        {
          "indexed": true,
          "internalType": "address",
          "name": "approved",
          "type": "address"
        },
        {
          "indexed": true,
          "internalType": "uint256",
          "name": "tokenId",
          "type": "uint256"
        }
      ],
      "name": "Approval",
      "type": "event"
    },
    {
      "anonymous": false,
      "inputs": [
        {
          "indexed": true,
          "internalType": "address",
          "name": "owner",
          "type": "address"
        },
        {
          "indexed": true,
          "internalType": "address",
          "name": "operator",
          "type": "address"
        },
        {
          "indexed": false,
          "internalType": "bool",
          "name": "approved",
          "type": "bool"
        }
      ],
      "name": "ApprovalForAll",
      "type": "event"
    },
    {
      "anonymous": false,
      "inputs": [
        {
          "indexed": true,
          "internalType": "address",
          "name": "previousOwner",
          "type": "address"
        },
        {
          "indexed": true,
          "internalType": "address",
          "name": "newOwner",
          "type": "address"
        }
      ],
      "name": "OwnershipTransferred",
      "type": "event"
    },
    {
      "anonymous": false,
      "inputs": [
        {
          "indexed": true,
          "internalType": "address",
          "name": "from",
          "type": "address"
        },
        {
          "indexed": true,
          "internalType": "address",
          "name": "to",
          "type": "address"
        },
        {
          "indexed": true,
          "internalType": "uint256",
          "name": "tokenId",
          "type": "uint256"
        }
      ],
      "name": "Transfer",
      "type": "event"
    },
    {
      "inputs": [],
      "name": "COBOTS_MINT_DURATION",
      "outputs": [
        {
          "internalType": "uint256",
          "name": "",
          "type": "uint256"
        }
      ],
      "stateMutability": "view",
      "type": "function"
    },
    {
      "inputs": [],
      "name": "COBOTS_MINT_RAFFLE_DELAY",
      "outputs": [
        {
          "internalType": "uint256",
          "name": "",
          "type": "uint256"
        }
      ],
      "stateMutability": "view",
      "type": "function"
    },
    {
      "inputs": [],
      "name": "COBOTS_REFUND_DURATION",
      "outputs": [
        {
          "internalType": "uint256",
          "name": "",
          "type": "uint256"
        }
      ],
      "stateMutability": "view",
      "type": "function"
    },
    {
      "inputs": [],
      "name": "COORDINATION_RAFFLE_PRIZE",
      "outputs": [
        {
          "internalType": "uint256",
          "name": "",
          "type": "uint256"
        }
      ],
      "stateMutability": "view",
      "type": "function"
    },
    {
      "inputs": [],
      "name": "COORDINATION_RAFFLE_THRESHOLD",
      "outputs": [
        {
          "internalType": "uint16",
          "name": "",
          "type": "uint16"
        }
      ],
      "stateMutability": "view",
      "type": "function"
    },
    {
      "inputs": [],
      "name": "COORDINATION_RAFFLE_WINNERS_COUNT",
      "outputs": [
        {
          "internalType": "uint8",
          "name": "",
          "type": "uint8"
        }
      ],
      "stateMutability": "view",
      "type": "function"
    },
    {
      "inputs": [],
      "name": "MAIN_RAFFLE_PRIZE",
      "outputs": [
        {
          "internalType": "uint256",
          "name": "",
          "type": "uint256"
        }
      ],
      "stateMutability": "view",
      "type": "function"
    },
    {
      "inputs": [],
      "name": "MAIN_RAFFLE_WINNERS_COUNT",
      "outputs": [
        {
          "internalType": "uint8",
          "name": "",
          "type": "uint8"
        }
      ],
      "stateMutability": "view",
      "type": "function"
    },
    {
      "inputs": [],
      "name": "MAX_COBOTS",
      "outputs": [
        {
          "internalType": "uint256",
          "name": "",
          "type": "uint256"
        }
      ],
      "stateMutability": "view",
      "type": "function"
    },
    {
      "inputs": [],
      "name": "MAX_MINT_PER_ADDRESS",
      "outputs": [
        {
          "internalType": "uint8",
          "name": "",
          "type": "uint8"
        }
      ],
      "stateMutability": "view",
      "type": "function"
    },
    {
      "inputs": [],
      "name": "MINT_FOUNDERS_AND_GIVEAWAYS",
      "outputs": [
        {
          "internalType": "uint8",
          "name": "",
          "type": "uint8"
        }
      ],
      "stateMutability": "view",
      "type": "function"
    },
    {
      "inputs": [],
      "name": "MINT_GIVEAWAYS",
      "outputs": [
        {
          "internalType": "uint8",
          "name": "",
          "type": "uint8"
        }
      ],
      "stateMutability": "view",
      "type": "function"
    },
    {
      "inputs": [],
      "name": "MINT_PUBLIC_PRICE",
      "outputs": [
        {
          "internalType": "uint256",
          "name": "",
          "type": "uint256"
        }
      ],
      "stateMutability": "view",
      "type": "function"
    },
    {
      "inputs": [],
      "name": "RAFFLE_DRAW_DELAY",
      "outputs": [
        {
          "internalType": "uint256",
          "name": "",
          "type": "uint256"
        }
      ],
      "stateMutability": "view",
      "type": "function"
    },
    {
      "inputs": [
        {
          "internalType": "address",
          "name": "to",
          "type": "address"
        },
        {
          "internalType": "uint256",
          "name": "tokenId",
          "type": "uint256"
        }
      ],
      "name": "approve",
      "outputs": [],
      "stateMutability": "nonpayable",
      "type": "function"
    },
    {
      "inputs": [
        {
          "internalType": "address",
          "name": "owner",
          "type": "address"
        }
      ],
      "name": "balanceOf",
      "outputs": [
        {
          "internalType": "uint256",
          "name": "",
          "type": "uint256"
        }
      ],
      "stateMutability": "view",
      "type": "function"
    },
    {
      "inputs": [],
      "name": "cancelSubscription",
      "outputs": [],
      "stateMutability": "nonpayable",
      "type": "function"
    },
    {
      "inputs": [
        {
          "internalType": "uint256[]",
          "name": "tokenIds",
          "type": "uint256[]"
        }
      ],
      "name": "claimRefund",
      "outputs": [],
      "stateMutability": "nonpayable",
      "type": "function"
    },
    {
      "inputs": [],
      "name": "coBotsColorAgreement",
      "outputs": [
        {
          "internalType": "uint16",
          "name": "",
          "type": "uint16"
        }
      ],
      "stateMutability": "view",
      "type": "function"
    },
    {
      "inputs": [
        {
          "internalType": "uint256",
          "name": "",
          "type": "uint256"
        }
      ],
      "name": "coBotsColors",
      "outputs": [
        {
          "internalType": "bool",
          "name": "",
          "type": "bool"
        }
      ],
      "stateMutability": "view",
      "type": "function"
    },
    {
      "inputs": [
        {
          "internalType": "uint256",
          "name": "",
          "type": "uint256"
        }
      ],
      "name": "coBotsRefunded",
      "outputs": [
        {
          "internalType": "bool",
          "name": "",
          "type": "bool"
        }
      ],
      "stateMutability": "view",
      "type": "function"
    },
    {
      "inputs": [
        {
          "internalType": "uint256",
          "name": "",
          "type": "uint256"
        }
      ],
      "name": "coBotsSeeds",
      "outputs": [
        {
          "internalType": "uint8",
          "name": "",
          "type": "uint8"
        }
      ],
      "stateMutability": "view",
      "type": "function"
    },
    {
      "inputs": [
        {
          "internalType": "uint256",
          "name": "",
          "type": "uint256"
        }
      ],
      "name": "coBotsStatusDisabled",
      "outputs": [
        {
          "internalType": "bool",
          "name": "",
          "type": "bool"
        }
      ],
      "stateMutability": "view",
      "type": "function"
    },
    {
      "inputs": [],
      "name": "contractURI",
      "outputs": [
        {
          "internalType": "string",
          "name": "",
          "type": "string"
        }
      ],
      "stateMutability": "pure",
      "type": "function"
    },
    {
      "inputs": [],
      "name": "cooperativeRaffleEnabled",
      "outputs": [
        {
          "internalType": "bool",
          "name": "",
          "type": "bool"
        }
      ],
      "stateMutability": "view",
      "type": "function"
    },
    {
      "inputs": [
        {
          "internalType": "uint96",
          "name": "amount",
          "type": "uint96"
        }
      ],
      "name": "createSubscriptionAndFund",
      "outputs": [],
      "stateMutability": "nonpayable",
      "type": "function"
    },
    {
      "inputs": [],
      "name": "draw",
      "outputs": [
        {
          "internalType": "uint256",
          "name": "",
          "type": "uint256"
        }
      ],
      "stateMutability": "nonpayable",
      "type": "function"
    },
    {
      "inputs": [],
      "name": "drawCount",
      "outputs": [
        {
          "internalType": "uint16",
          "name": "",
          "type": "uint16"
        }
      ],
      "stateMutability": "view",
      "type": "function"
    },
    {
      "inputs": [
        {
          "internalType": "uint256",
          "name": "_tokenId",
          "type": "uint256"
        }
      ],
      "name": "exists",
      "outputs": [
        {
          "internalType": "bool",
          "name": "",
          "type": "bool"
        }
      ],
      "stateMutability": "view",
      "type": "function"
    },
    {
      "inputs": [
        {
          "internalType": "address",
          "name": "proxyAddress",
          "type": "address"
        }
      ],
      "name": "flipProxyState",
      "outputs": [],
      "stateMutability": "nonpayable",
      "type": "function"
    },
    {
      "inputs": [
        {
          "internalType": "uint256",
          "name": "tokenId",
          "type": "uint256"
        }
      ],
      "name": "getApproved",
      "outputs": [
        {
          "internalType": "address",
          "name": "",
          "type": "address"
        }
      ],
      "stateMutability": "view",
      "type": "function"
    },
    {
      "inputs": [
        {
          "internalType": "address",
          "name": "owner",
          "type": "address"
        },
        {
          "internalType": "address",
          "name": "operator",
          "type": "address"
        }
      ],
      "name": "isApprovedForAll",
      "outputs": [
        {
          "internalType": "bool",
          "name": "",
          "type": "bool"
        }
      ],
      "stateMutability": "view",
      "type": "function"
    },
    {
      "inputs": [],
      "name": "isDrawOpen",
      "outputs": [
        {
          "internalType": "bool",
          "name": "",
          "type": "bool"
        }
      ],
      "stateMutability": "view",
      "type": "function"
    },
    {
      "inputs": [],
      "name": "isMintedOut",
      "outputs": [
        {
          "internalType": "bool",
          "name": "",
          "type": "bool"
        }
      ],
      "stateMutability": "view",
      "type": "function"
    },
    {
      "inputs": [],
      "name": "isPublicSaleOpen",
      "outputs": [
        {
          "internalType": "bool",
          "name": "",
          "type": "bool"
        }
      ],
      "stateMutability": "view",
      "type": "function"
    },
    {
      "inputs": [],
      "name": "lastDrawTimestamp",
      "outputs": [
        {
          "internalType": "uint256",
          "name": "",
          "type": "uint256"
        }
      ],
      "stateMutability": "view",
      "type": "function"
    },
    {
      "inputs": [],
      "name": "looksrare",
      "outputs": [
        {
          "internalType": "address",
          "name": "",
          "type": "address"
        }
      ],
      "stateMutability": "view",
      "type": "function"
    },
    {
      "inputs": [
        {
          "internalType": "address",
          "name": "to",
          "type": "address"
        },
        {
          "internalType": "uint256",
          "name": "quantity",
          "type": "uint256"
        }
      ],
      "name": "mintFoundersAndGiveaways",
      "outputs": [],
      "stateMutability": "nonpayable",
      "type": "function"
    },
    {
      "inputs": [
        {
          "internalType": "uint256",
          "name": "quantity",
          "type": "uint256"
        }
      ],
      "name": "mintPublicSale",
      "outputs": [],
      "stateMutability": "payable",
      "type": "function"
    },
    {
      "inputs": [],
      "name": "mintedOutTimestamp",
      "outputs": [
        {
          "internalType": "uint256",
          "name": "",
          "type": "uint256"
        }
      ],
      "stateMutability": "view",
      "type": "function"
    },
    {
      "inputs": [],
      "name": "name",
      "outputs": [
        {
          "internalType": "string",
          "name": "",
          "type": "string"
        }
      ],
      "stateMutability": "view",
      "type": "function"
    },
    {
      "inputs": [],
      "name": "openPublicSale",
      "outputs": [],
      "stateMutability": "nonpayable",
      "type": "function"
    },
    {
      "inputs": [],
      "name": "opensea",
      "outputs": [
        {
          "internalType": "address",
          "name": "",
          "type": "address"
        }
      ],
      "stateMutability": "view",
      "type": "function"
    },
    {
      "inputs": [],
      "name": "owner",
      "outputs": [
        {
          "internalType": "address",
          "name": "",
          "type": "address"
        }
      ],
      "stateMutability": "view",
      "type": "function"
    },
    {
      "inputs": [
        {
          "internalType": "uint256",
          "name": "tokenId",
          "type": "uint256"
        }
      ],
      "name": "ownerOf",
      "outputs": [
        {
          "internalType": "address",
          "name": "",
          "type": "address"
        }
      ],
      "stateMutability": "view",
      "type": "function"
    },
    {
      "inputs": [
        {
          "internalType": "address",
          "name": "",
          "type": "address"
        }
      ],
      "name": "prizePerAddress",
      "outputs": [
        {
          "internalType": "uint256",
          "name": "",
          "type": "uint256"
        }
      ],
      "stateMutability": "view",
      "type": "function"
    },
    {
      "inputs": [
        {
          "internalType": "uint256",
          "name": "",
          "type": "uint256"
        }
      ],
      "name": "prizePerDraw",
      "outputs": [
        {
          "internalType": "uint256",
          "name": "",
          "type": "uint256"
        }
      ],
      "stateMutability": "view",
      "type": "function"
    },
    {
      "inputs": [],
      "name": "publicSaleStartTimestamp",
      "outputs": [
        {
          "internalType": "uint256",
          "name": "",
          "type": "uint256"
        }
      ],
      "stateMutability": "view",
      "type": "function"
    },
    {
      "inputs": [
        {
          "internalType": "uint256",
          "name": "requestId",
          "type": "uint256"
        },
        {
          "internalType": "uint256[]",
          "name": "randomWords",
          "type": "uint256[]"
        }
      ],
      "name": "rawFulfillRandomWords",
      "outputs": [],
      "stateMutability": "nonpayable",
      "type": "function"
    },
    {
      "inputs": [],
      "name": "renderingContractAddress",
      "outputs": [
        {
          "internalType": "address",
          "name": "",
          "type": "address"
        }
      ],
      "stateMutability": "view",
      "type": "function"
    },
    {
      "inputs": [],
      "name": "renounceOwnership",
      "outputs": [],
      "stateMutability": "nonpayable",
      "type": "function"
    },
    {
      "inputs": [],
      "name": "s_subId",
      "outputs": [
        {
          "internalType": "uint64",
          "name": "",
          "type": "uint64"
        }
      ],
      "stateMutability": "view",
      "type": "function"
    },
    {
      "inputs": [
        {
          "internalType": "address",
          "name": "from",
          "type": "address"
        },
        {
          "internalType": "address",
          "name": "to",
          "type": "address"
        },
        {
          "internalType": "uint256",
          "name": "tokenId",
          "type": "uint256"
        }
      ],
      "name": "safeTransferFrom",
      "outputs": [],
      "stateMutability": "nonpayable",
      "type": "function"
    },
    {
      "inputs": [
        {
          "internalType": "address",
          "name": "from",
          "type": "address"
        },
        {
          "internalType": "address",
          "name": "to",
          "type": "address"
        },
        {
          "internalType": "uint256",
          "name": "tokenId",
          "type": "uint256"
        },
        {
          "internalType": "bytes",
          "name": "_data",
          "type": "bytes"
        }
      ],
      "name": "safeTransferFrom",
      "outputs": [],
      "stateMutability": "nonpayable",
      "type": "function"
    },
    {
      "inputs": [
        {
          "internalType": "address",
          "name": "operator",
          "type": "address"
        },
        {
          "internalType": "bool",
          "name": "approved",
          "type": "bool"
        }
      ],
      "name": "setApprovalForAll",
      "outputs": [],
      "stateMutability": "nonpayable",
      "type": "function"
    },
    {
      "inputs": [
        {
          "internalType": "address",
          "name": "looksrare_",
          "type": "address"
        }
      ],
      "name": "setLooksrare",
      "outputs": [],
      "stateMutability": "nonpayable",
      "type": "function"
    },
    {
      "inputs": [
        {
          "internalType": "address",
          "name": "opensea_",
          "type": "address"
        }
      ],
      "name": "setOpensea",
      "outputs": [],
      "stateMutability": "nonpayable",
      "type": "function"
    },
    {
      "inputs": [
        {
          "internalType": "address",
          "name": "_renderingContractAddress",
          "type": "address"
        }
      ],
      "name": "setRenderingContractAddress",
      "outputs": [],
      "stateMutability": "nonpayable",
      "type": "function"
    },
    {
      "inputs": [
        {
          "internalType": "bytes4",
          "name": "interfaceId",
          "type": "bytes4"
        }
      ],
      "name": "supportsInterface",
      "outputs": [
        {
          "internalType": "bool",
          "name": "",
          "type": "bool"
        }
      ],
      "stateMutability": "view",
      "type": "function"
    },
    {
      "inputs": [],
      "name": "symbol",
      "outputs": [
        {
          "internalType": "string",
          "name": "",
          "type": "string"
        }
      ],
      "stateMutability": "view",
      "type": "function"
    },
    {
      "inputs": [
        {
          "internalType": "uint256",
          "name": "tokenId",
          "type": "uint256"
        }
      ],
      "name": "toggleColor",
      "outputs": [],
      "stateMutability": "nonpayable",
      "type": "function"
    },
    {
      "inputs": [
        {
          "internalType": "uint256[]",
          "name": "tokenIds",
          "type": "uint256[]"
        }
      ],
      "name": "toggleColors",
      "outputs": [],
      "stateMutability": "nonpayable",
      "type": "function"
    },
    {
      "inputs": [
        {
          "internalType": "uint256",
          "name": "tokenId",
          "type": "uint256"
        }
      ],
      "name": "toggleStatus",
      "outputs": [],
      "stateMutability": "nonpayable",
      "type": "function"
    },
    {
      "inputs": [
        {
          "internalType": "uint256[]",
          "name": "tokenIds",
          "type": "uint256[]"
        }
      ],
      "name": "toggleStatuses",
      "outputs": [],
      "stateMutability": "nonpayable",
      "type": "function"
    },
    {
      "inputs": [
        {
          "internalType": "uint256",
          "name": "index",
          "type": "uint256"
        }
      ],
      "name": "tokenByIndex",
      "outputs": [
        {
          "internalType": "uint256",
          "name": "",
          "type": "uint256"
        }
      ],
      "stateMutability": "view",
      "type": "function"
    },
    {
      "inputs": [
        {
          "internalType": "address",
          "name": "owner",
          "type": "address"
        },
        {
          "internalType": "uint256",
          "name": "index",
          "type": "uint256"
        }
      ],
      "name": "tokenOfOwnerByIndex",
      "outputs": [
        {
          "internalType": "uint256",
          "name": "",
          "type": "uint256"
        }
      ],
      "stateMutability": "view",
      "type": "function"
    },
    {
      "inputs": [
        {
          "internalType": "uint256",
          "name": "_tokenId",
          "type": "uint256"
        }
      ],
      "name": "tokenURI",
      "outputs": [
        {
          "internalType": "string",
          "name": "",
          "type": "string"
        }
      ],
      "stateMutability": "view",
      "type": "function"
    },
    {
      "inputs": [],
      "name": "totalSupply",
      "outputs": [
        {
          "internalType": "uint256",
          "name": "",
          "type": "uint256"
        }
      ],
      "stateMutability": "view",
      "type": "function"
    },
    {
      "inputs": [
        {
          "internalType": "address",
          "name": "from",
          "type": "address"
        },
        {
          "internalType": "address",
          "name": "to",
          "type": "address"
        },
        {
          "internalType": "uint256",
          "name": "tokenId",
          "type": "uint256"
        }
      ],
      "name": "transferFrom",
      "outputs": [],
      "stateMutability": "nonpayable",
      "type": "function"
    },
    {
      "inputs": [
        {
          "internalType": "address",
          "name": "newOwner",
          "type": "address"
        }
      ],
      "name": "transferOwnership",
      "outputs": [],
      "stateMutability": "nonpayable",
      "type": "function"
    },
    {
      "inputs": [
        {
          "internalType": "uint256",
          "name": "",
          "type": "uint256"
        }
      ],
      "name": "winners",
      "outputs": [
        {
          "internalType": "address",
          "name": "",
          "type": "address"
        }
      ],
      "stateMutability": "view",
      "type": "function"
    },
    {
      "inputs": [],
      "name": "withdraw",
      "outputs": [],
      "stateMutability": "nonpayable",
      "type": "function"
    },
    {
      "stateMutability": "payable",
      "type": "receive"
    }
  ],
  "transactionHash": "0x5636430f28a8c5cebd100dbca9b685464f693d1f441763eb4c56c45d570f8237",
  "args": [
    "Co-Bots",
    "CBTS",
    "0x56f56FCA0C42f1272D064B8C244640fd96E00322",
    "0xa5409ec958c83c3f309868babaca7c86dcb077c1",
    "0xf42aa99f011a1fa7cda90e5e98b277e306bca83e",
    "0x6168499c0cFfCaCD319c818142124B7A15E857ab",
    "0x01BE23585060835E02B77ef475b0Cc51aA1e0709",
    "0xd89b2bf150e3b9e13446986e571fb9cab24b13cea0a43ea20a6049a85cc807cc"
  ],
  "numDeployments": 9,
  "solcInputHash": "16b19cddc2359566cccc239d923a31b4",
  "bytecode": "0x60a06040526104ed805461ffff19166113881790553480156200002157600080fd5b5060405162004b7238038062004b728339810160408190526200004491620003e6565b82888881600190805190602001906200005f929190620001b5565b50805162000075906002906020840190620001b5565b5050506001600160a01b03166080526200008f33620000ff565b60016008556200009f8662000151565b6104f080546001600160a01b03199081166001600160a01b03978816179091556104f180548216958716959095179094556104f580548516938616939093179092556104f6805490931693169290921790556104f7555062000566915050565b600780546001600160a01b038381166001600160a01b0319831681179093556040519116919082907f8be0079c531659141344cd1fd0a4f28419497f9722a3daafe3b4186f6b6457e090600090a35050565b6007546001600160a01b03163314620001875760405162461bcd60e51b81526004016200017e90620004e4565b60405180910390fd5b6104f380546001600160a01b039092166001600160a01b031992831681179091556104f48054909216179055565b828054620001c39062000535565b90600052602060002090601f016020900481019282620001e7576000855562000232565b82601f106200020257805160ff191683800117855562000232565b8280016001018555821562000232579182015b828111156200023257825182559160200191906001019062000215565b506200024092915062000244565b5090565b5b8082111562000240576000815560010162000245565b634e487b7160e01b600052604160045260246000fd5b601f19601f83011681016001600160401b03811182821017156200029957620002996200025b565b6040525050565b6000620002ac60405190565b9050620002ba828262000271565b919050565b60006001600160401b03821115620002db57620002db6200025b565b601f19601f83011660200192915050565b60005b8381101562000309578181015183820152602001620002ef565b8381111562000319576000848401525b50505050565b6000620003366200033084620002bf565b620002a0565b905082815260208101848484011115620003535762000353600080fd5b62000360848285620002ec565b509392505050565b600082601f8301126200037e576200037e600080fd5b8151620003908482602086016200031f565b949350505050565b60006001600160a01b0382165b92915050565b620003b68162000398565b8114620003c257600080fd5b50565b8051620003a581620003ab565b80620003b6565b8051620003a581620003d2565b600080600080600080600080610100898b031215620004085762000408600080fd5b88516001600160401b03811115620004235762000423600080fd5b620004318b828c0162000368565b60208b015190995090506001600160401b03811115620004545762000454600080fd5b620004628b828c0162000368565b9750506040620004758b828c01620003c5565b9650506060620004888b828c01620003c5565b95505060806200049b8b828c01620003c5565b94505060a0620004ae8b828c01620003c5565b93505060c0620004c18b828c01620003c5565b92505060e0620004d48b828c01620003d9565b9150509295985092959890939650565b60208082528181019081527f4f776e61626c653a2063616c6c6572206973206e6f7420746865206f776e6572604083015260608201620003a5565b634e487b7160e01b600052602260045260246000fd5b6002810460018216806200054a57607f821691505b602082108114156200056057620005606200051f565b50919050565b6080516145e962000589600039600081816112d201526112fa01526145e96000f3fe60806040526004361061049f5760003560e01c8063706da1ca1161025e578063b06a01f411610143578063cef46f0d116100bb578063e985e9c51161008a578063f54a6f831161006f578063f54a6f8314610ca9578063f73c814b14610cc9578063fc749b3c14610ce957600080fd5b8063e985e9c514610c69578063f2fde38b14610c8957600080fd5b8063cef46f0d14610bfc578063cf62c8ab14610c1d578063d7822c9914610c3d578063e8a3d48514610c5457600080fd5b8063b88d4fde11610112578063c45ca310116100f7578063c45ca31014610bbc578063c7994510146109b4578063c87b56dd14610bdc57600080fd5b8063b88d4fde14610b7b578063c074f41214610b9b57600080fd5b8063b06a01f41461079a578063b4b294d914610b2a578063b585209b14610b46578063b776c8a614610b5b57600080fd5b80639c51792a116101d6578063a7473383116101a5578063abb7a28f1161018a578063abb7a28f14610adf578063ac483b9314610af5578063adb19dc314610b0a57600080fd5b8063a747338314610aa1578063a8e90b5714610abe57600080fd5b80639c51792a14610a2a578063a22cb46514610a45578063a2fb117514610a65578063a3b1763f14610a8557600080fd5b8063743521e41161022d5780638c21460b116102125780638c21460b146109e05780638da5cb5b146109f757806395d89b4114610a1557600080fd5b8063743521e4146109b457806378af6b85146109cb57600080fd5b8063706da1ca1461093b57806370a082311461096a578063715018a61461098a57806373cd7d881461099f57600080fd5b806324e9edb0116103845780634f6ccce7116102fc5780635a5e5d58116102cb5780636352211e116102b05780636352211e146108d85780636445b238146108f857806368d99f7c1461091857600080fd5b80635a5e5d58146108a55780635dad667c146108b857600080fd5b80634f6ccce7146108245780634fb9462a14610844578063511ed3821461086457806351db2e761461088557600080fd5b80633acd6cb21161035357806342842e0e1161033857806342842e0e146107c457806347a3650b146107e45780634f558e791461080457600080fd5b80633acd6cb21461079a5780633ccfd60b146107af57600080fd5b806324e9edb0146107225780632f745c59146107375780632fd573a51461075757806330d1bda11461076c57600080fd5b80630eecae21116104175780631a6949e3116103e65780631fafadbc116103cb5780631fafadbc146106c25780631fe543e3146106e257806323b872dd1461070257600080fd5b80631a6949e31461068d5780631e8858fb146106a257600080fd5b80630eecae211461060557806312b40a9f1461061a57806316d870c21461063a57806318160ddd1461065157600080fd5b806306fdde031161046e57806308222d581161045357806308222d58146105a4578063095ea7b3146105cd5780630bb4d042146105ef57600080fd5b806306fdde0314610555578063081812fc1461057757600080fd5b806301d2a00b146104ab57806301ffc9a7146104ef57806303e48f661461051c57806304035a921461053e57600080fd5b366104a657005b600080fd5b3480156104b757600080fd5b506104d96104c63660046132d3565b6104fc6020526000908152604090205481565b6040516104e691906132fc565b60405180910390f35b3480156104fb57600080fd5b5061050f61050a366004613325565b610d09565b6040516104e6919061334e565b34801561052857600080fd5b50610531603281565b6040516104e69190613365565b34801561054a57600080fd5b506104d96104ef5481565b34801561056157600080fd5b5061056a610dda565b6040516104e691906133d1565b34801561058357600080fd5b506105976105923660046132d3565b610e6c565b6040516104e691906133fc565b3480156105b057600080fd5b506104fd546105c09061ffff1681565b6040516104e69190613414565b3480156105d957600080fd5b506105ed6105e8366004613436565b610ec9565b005b3480156105fb57600080fd5b506104d961271081565b34801561061157600080fd5b506104d9610f89565b34801561062657600080fd5b506105ed610635366004613473565b6111a4565b34801561064657600080fd5b506104d96201518081565b34801561065d57600080fd5b506104d96000546001600160801b0370010000000000000000000000000000000082048116918116919091031690565b34801561069957600080fd5b5061050f611209565b3480156106ae57600080fd5b506105ed6106bd366004613473565b611242565b3480156106ce57600080fd5b506105316106dd3660046132d3565b61129c565b3480156106ee57600080fd5b506105ed6106fd366004613599565b6112c7565b34801561070e57600080fd5b506105ed61071d3660046135e7565b61135b565b34801561072e57600080fd5b506105ed611366565b34801561074357600080fd5b506104d9610752366004613436565b611431565b34801561076357600080fd5b506104d9603c81565b34801561077857600080fd5b506104d9610787366004613473565b6104fa6020526000908152604090205481565b3480156107a657600080fd5b50610531601481565b3480156107bb57600080fd5b506105ed611547565b3480156107d057600080fd5b506105ed6107df3660046135e7565b611651565b3480156107f057600080fd5b506105ed6107ff366004613689565b61166c565b34801561081057600080fd5b5061050f61081f3660046132d3565b6116dc565b34801561083057600080fd5b506104d961083f3660046132d3565b6116e7565b34801561085057600080fd5b5061050f61085f3660046132d3565b6117ab565b34801561087057600080fd5b506104f054610597906001600160a01b031681565b34801561089157600080fd5b506105ed6108a03660046132d3565b6117bd565b6105ed6108b33660046132d3565b611880565b3480156108c457600080fd5b506105ed6108d33660046132d3565b6119a3565b3480156108e457600080fd5b506105976108f33660046132d3565b611ac6565b34801561090457600080fd5b5061050f6109133660046132d3565b611ad8565b34801561092457600080fd5b5061050f6000546001600160801b03166127101490565b34801561094757600080fd5b506104f95461095d9067ffffffffffffffff1681565b6040516104e691906136e1565b34801561097657600080fd5b506104d9610985366004613473565b611aea565b34801561099657600080fd5b506105ed611b52565b3480156109ab57600080fd5b50610531600a81565b3480156109c057600080fd5b506104d962093a8081565b3480156109d757600080fd5b50610531601e81565b3480156109ec57600080fd5b506104d96104f85481565b348015610a0357600080fd5b506007546001600160a01b0316610597565b348015610a2157600080fd5b5061056a611b88565b348015610a3657600080fd5b506104d966b1a2bc2ec5000081565b348015610a5157600080fd5b506105ed610a60366004613702565b611b97565b348015610a7157600080fd5b50610597610a803660046132d3565b611c49565b348015610a9157600080fd5b506104d96722b1c8c1227a000081565b348015610aad57600080fd5b506104d968015af1d78b58c4000081565b348015610aca57600080fd5b506104f154610597906001600160a01b031681565b348015610aeb57600080fd5b506105c061251c81565b348015610b0157600080fd5b5061050f611c74565b348015610b1657600080fd5b506105ed610b25366004613689565b611cac565b348015610b3657600080fd5b506104ed546105c09061ffff1681565b348015610b5257600080fd5b506105ed611eb4565b348015610b6757600080fd5b506105ed610b76366004613473565b611ee5565b348015610b8757600080fd5b506105ed610b963660046137cc565b611f3f565b348015610ba757600080fd5b506104f354610597906001600160a01b031681565b348015610bc857600080fd5b506105ed610bd7366004613436565b611f79565b348015610be857600080fd5b5061056a610bf73660046132d3565b612008565b348015610c0857600080fd5b506104fd5461050f9062010000900460ff1681565b348015610c2957600080fd5b506105ed610c3836600461386a565b61214c565b348015610c4957600080fd5b506104d96104ee5481565b348015610c6057600080fd5b5061056a61234e565b348015610c7557600080fd5b5061050f610c8436600461388b565b612373565b348015610c9557600080fd5b506105ed610ca4366004613473565b612487565b348015610cb557600080fd5b506105ed610cc4366004613689565b6124e0565b348015610cd557600080fd5b506105ed610ce4366004613473565b61271e565b348015610cf557600080fd5b5061050f610d043660046132d3565b612772565b60006001600160e01b031982167f80ac58cd000000000000000000000000000000000000000000000000000000001480610d6c57506001600160e01b031982167f5b5e139f00000000000000000000000000000000000000000000000000000000145b80610da057506001600160e01b031982167f780e9d6300000000000000000000000000000000000000000000000000000000145b80610dd457507f01ffc9a7000000000000000000000000000000000000000000000000000000006001600160e01b03198316145b92915050565b606060018054610de9906138d4565b80601f0160208091040260200160405190810160405280929190818152602001828054610e15906138d4565b8015610e625780601f10610e3757610100808354040283529160200191610e62565b820191906000526020600020905b815481529060010190602001808311610e4557829003601f168201915b5050505050905090565b6000610e7782612784565b610ead576040517fcf4700e400000000000000000000000000000000000000000000000000000000815260040160405180910390fd5b506000908152600560205260409020546001600160a01b031690565b6000610ed482611ac6565b9050806001600160a01b0316836001600160a01b03161415610f22576040517f943f7b8c00000000000000000000000000000000000000000000000000000000815260040160405180910390fd5b336001600160a01b03821614801590610f425750610f408133612373565b155b15610f79576040517fcfb3b94200000000000000000000000000000000000000000000000000000000815260040160405180910390fd5b610f848383836127b8565b505050565b600060026008541415610fb75760405162461bcd60e51b8152600401610fae90613935565b60405180910390fd5b6002600855610fc4611c74565b610fe05760405162461bcd60e51b8152600401610fae90613977565b6104fd5462010000900460ff16610ff857600a611004565b6110046014600a61399d565b6104fd5460ff9190911661ffff909116106110315760405162461bcd60e51b8152600401610fae906139f5565b42603c6104f8546110429190613a05565b11158061105457506104fd5461ffff16155b6110705760405162461bcd60e51b8152600401610fae90613a48565b426104f8556104fd54600090600a61ffff90911610611097576722b1c8c1227a00006110a2565b68015af1d78b58c400005b6104fd805491925061ffff9091169060006110bc83613a58565b825461ffff9182166101009390930a9283029190920219909116179055506104f5546104f7546104f9546040517f5d3b1d300000000000000000000000000000000000000000000000000000000081526000936001600160a01b031692635d3b1d30926111439267ffffffffffffffff909116906005906207a12090600190600401613aaf565b6020604051808303816000875af1158015611162573d6000803e3d6000fd5b505050506040513d601f19601f820116820180604052508101906111869190613b06565b60008181526104fc6020526040902092909255509050600160085590565b6007546001600160a01b031633146111ce5760405162461bcd60e51b8152600401610fae90613b57565b6104f380546001600160a01b0390921673ffffffffffffffffffffffffffffffffffffffff1992831681179091556104f48054909216179055565b60006104ee5460001415801561122157506104ee5442115b801561123d575062093a806104ee5461123a9190613a05565b42105b905090565b6007546001600160a01b0316331461126c5760405162461bcd60e51b8152600401610fae90613b57565b6104f1805473ffffffffffffffffffffffffffffffffffffffff19166001600160a01b0392909216919091179055565b60098161271081106112ad57600080fd5b60209182820401919006915054906101000a900460ff1681565b336001600160a01b037f0000000000000000000000000000000000000000000000000000000000000000161461134d57337f00000000000000000000000000000000000000000000000000000000000000006040517f1cf993f4000000000000000000000000000000000000000000000000000000008152600401610fae929190613b67565b6113578282612821565b5050565b610f848383836129a9565b6007546001600160a01b031633146113905760405162461bcd60e51b8152600401610fae90613b57565b6104f5546104f9546040517fd7ae1d300000000000000000000000000000000000000000000000000000000081526001600160a01b039092169163d7ae1d30916113eb9167ffffffffffffffff909116903390600401613b82565b600060405180830381600087803b15801561140557600080fd5b505af1158015611419573d6000803e3d6000fd5b50506104f9805467ffffffffffffffff191690555050565b600061143c83611aea565b8210611474576040517f0ddac30e00000000000000000000000000000000000000000000000000000000815260040160405180910390fd5b600080546001600160801b03169080805b8381101561154157600081815260036020908152604091829020825160608101845290546001600160a01b0381168252600160a01b810467ffffffffffffffff1692820192909252600160e01b90910460ff1615801592820192909252906114ed5750611539565b80516001600160a01b03161561150257805192505b876001600160a01b0316836001600160a01b03161415611537578684141561153057509350610dd492505050565b6001909301925b505b600101611485565b50600080fd5b6007546001600160a01b031633146115715760405162461bcd60e51b8152600401610fae90613b57565b6104fd5462010000900460ff1661158957600a611595565b6115956014600a61399d565b6104fd5461ffff1660ff9190911614806115ca575062093a80806104ee546115bd9190613a05565b6115c79190613a05565b42115b6115e65760405162461bcd60e51b8152600401610fae90613bea565b604051600090339047908381818185875af1925050503d8060008114611628576040519150601f19603f3d011682016040523d82523d6000602084013e61162d565b606091505b505090508061164e5760405162461bcd60e51b8152600401610fae90613c2c565b50565b610f8483838360405180602001604052806000815250611f3f565b6002600854141561168f5760405162461bcd60e51b8152600401610fae90613935565b600260085560005b818110156116d2576116c08383838181106116b4576116b4613c3c565b905060200201356117bd565b806116ca81613c52565b915050611697565b5050600160085550565b6000610dd482612784565b600080546001600160801b031681805b8281101561177857600081815260036020908152604091829020825160608101845290546001600160a01b0381168252600160a01b810467ffffffffffffffff1692820192909252600160e01b90910460ff1615159181018290529061176f57858314156117685750949350505050565b6001909201915b506001016116f7565b506040517fa723001c00000000000000000000000000000000000000000000000000000000815260040160405180910390fd5b61027b8161271081106112ad57600080fd5b600260085414156117e05760405162461bcd60e51b8152600401610fae90613935565b6002600855336117ef82611ac6565b6001600160a01b0316146118155760405162461bcd60e51b8152600401610fae90613c98565b61014281612710811061182a5761182a613c3c565b602081049091015460ff601f9092166101000a9004161561014282612710811061185657611856613c3c565b602091828204019190066101000a81548160ff021916908315150217905550600160088190555050565b611888611209565b6118a45760405162461bcd60e51b8152600401610fae90613cda565b600260085414156118c75760405162461bcd60e51b8152600401610fae90613935565b60026008556118dd8166b1a2bc2ec50000613cea565b34146118fb5760405162461bcd60e51b8152600401610fae90613d3b565b6119086127106001613a05565b60005461191f9083906001600160801b0316613a05565b1061193c5760405162461bcd60e51b8152600401610fae90613da3565b60148161194833611aea565b6119529190613a05565b11156119705760405162461bcd60e51b8152600401610fae90613e0b565b61197a3382612c11565b6119906000546001600160801b03166127101490565b1561199b57426104ef555b506001600855565b600260085414156119c65760405162461bcd60e51b8152600401610fae90613935565b6002600855336119d582611ac6565b6001600160a01b0316146119fb5760405162461bcd60e51b8152600401610fae90613e4d565b61027b816127108110611a1057611a10613c3c565b602081049091015460ff601f9092166101000a9004161561027b826127108110611a3c57611a3c613c3c565b602091828204019190066101000a81548160ff02191690831515021790555061027b816127108110611a7057611a70613c3c565b602081049091015460ff601f9092166101000a900416611a9b576104ed5461ffff1660001901611aa7565b6104ed5461ffff166001015b6104ed805461ffff191661ffff9290921691909117905561199b612d31565b6000611ad182612de4565b5192915050565b6103b48161271081106112ad57600080fd5b60006001600160a01b038216611b2c576040517f8f4eb60400000000000000000000000000000000000000000000000000000000815260040160405180910390fd5b506001600160a01b031660009081526004602052604090205467ffffffffffffffff1690565b6007546001600160a01b03163314611b7c5760405162461bcd60e51b8152600401610fae90613b57565b611b866000612f21565b565b606060028054610de9906138d4565b6001600160a01b038216331415611bda576040517fb06307db00000000000000000000000000000000000000000000000000000000815260040160405180910390fd5b3360008181526006602090815260408083206001600160a01b038716808552925291829020805460ff191685151517905590519091907f17307eab39ab6107e8899845ad3d59bd9653f200f220920489ca2b5937696c3190611c3d90859061334e565b60405180910390a35050565b6104fb8181548110611c5a57600080fd5b6000918252602090912001546001600160a01b0316905081565b6000611c8c6000546001600160801b03166127101490565b801561123d5750620151806104ef54611ca59190613a05565b4211905090565b60026008541415611ccf5760405162461bcd60e51b8152600401610fae90613935565b6002600855600061027b83838381611ce957611ce9613c3c565b905060200201356127108110611d0157611d01613c3c565b602081049091015460ff601f9092166101000a900416905060005b82811015611e745733611d46858584818110611d3a57611d3a613c3c565b90506020020135611ac6565b6001600160a01b031614611d6c5760405162461bcd60e51b8152600401610fae90613e4d565b61027b848483818110611d8157611d81613c3c565b905060200201356127108110611d9957611d99613c3c565b602091828204019190069054906101000a900460ff16151582151514611dd15760405162461bcd60e51b8152600401610fae90613eb5565b61027b848483818110611de657611de6613c3c565b905060200201356127108110611dfe57611dfe613c3c565b602081049091015460ff601f9092166101000a9004161561027b858584818110611e2a57611e2a613c3c565b905060200201356127108110611e4257611e42613c3c565b602091828204019190066101000a81548160ff0219169083151502179055508080611e6c90613c52565b915050611d1c565b5080611e8a576104ed5461ffff16829003611e95565b6104ed5461ffff1682015b6104ed805461ffff191661ffff929092169190911790556116d2612d31565b6007546001600160a01b03163314611ede5760405162461bcd60e51b8152600401610fae90613b57565b426104ee55565b6007546001600160a01b03163314611f0f5760405162461bcd60e51b8152600401610fae90613b57565b6104f0805473ffffffffffffffffffffffffffffffffffffffff19166001600160a01b0392909216919091179055565b611f4a8484846129a9565b611f5684848484612f80565b611f73576040516368d2bf6b60e11b815260040160405180910390fd5b50505050565b6007546001600160a01b03163314611fa35760405162461bcd60e51b8152600401610fae90613b57565b600054603290611fbc906001600160801b031683613a05565b1115611fda5760405162461bcd60e51b8152600401610fae90613f1d565b611fe48282612c11565b611ffa6000546001600160801b03166127101490565b1561135757426104ef555050565b606061201382612784565b61202f5760405162461bcd60e51b8152600401610fae90613f85565b6104f3546001600160a01b031661205457505060408051602081019091526000815290565b6104f4546001600160a01b0316632da7b4e983600981612710811061207b5761207b613c3c565b602081049091015460ff601f9092166101000a9004166101428661271081106120a6576120a6613c3c565b602081049091015460ff601f9092166101000a9004161561027b8761271081106120d2576120d2613c3c565b602091828204019190069054906101000a900460ff166040518563ffffffff1660e01b81526004016121079493929190613f95565b600060405180830381865afa158015612124573d6000803e3d6000fd5b505050506040513d6000823e601f3d908101601f19168201604052610dd4919081019061402b565b6007546001600160a01b031633146121765760405162461bcd60e51b8152600401610fae90613b57565b6104f95467ffffffffffffffff166122a2576104f560009054906101000a90046001600160a01b03166001600160a01b031663a21a23e46040518163ffffffff1660e01b81526004016020604051808303816000875af11580156121de573d6000803e3d6000fd5b505050506040513d601f19601f820116820180604052508101906122029190614081565b6104f9805467ffffffffffffffff191667ffffffffffffffff9290921691821790556104f5546040517f7341c10c0000000000000000000000000000000000000000000000000000000081526001600160a01b0390911691637341c10c9161226f91903090600401613b82565b600060405180830381600087803b15801561228957600080fd5b505af115801561229d573d6000803e3d6000fd5b505050505b6104f6546104f5546104f9546040516001600160a01b0393841693634000aea093169185916122de9167ffffffffffffffff16906020016136e1565b6040516020818303038152906040526040518463ffffffff1660e01b815260040161230b939291906140c5565b6020604051808303816000875af115801561232a573d6000803e3d6000fd5b505050506040513d601f19601f8201168201806040525081019061135791906140fd565b606060405160200161235f9061411e565b604051602081830303815290604052905090565b6104f0546040517fc45527910000000000000000000000000000000000000000000000000000000081526000916001600160a01b03169063c4552791906123be9086906004016133fc565b602060405180830381865afa1580156123db573d6000803e3d6000fd5b505050506040513d601f19601f820116820180604052508101906123ff9190614233565b6001600160a01b0316826001600160a01b0316148061242c57506104f1546001600160a01b038381169116145b8061245057506001600160a01b03821660009081526104f2602052604090205460ff165b8061248057506001600160a01b0380841660009081526006602090815260408083209386168352929052205460ff165b9392505050565b6007546001600160a01b031633146124b15760405162461bcd60e51b8152600401610fae90613b57565b6001600160a01b0381166124d75760405162461bcd60e51b8152600401610fae906142ac565b61164e81612f21565b600260085414156125035760405162461bcd60e51b8152600401610fae90613935565b60026008556104ee5461251a9062093a8090613a05565b42118015612543575062093a80806104ee546125369190613a05565b6125409190613a05565b42105b61255f5760405162461bcd60e51b8152600401610fae906142ee565b6125756000546001600160801b03166127101490565b156125925760405162461bcd60e51b8152600401610fae90614330565b6000805b8281101561268a5760008484838181106125b2576125b2613c3c565b905060200201359050603260ff168110156125cd5750612678565b336125d782611ac6565b6001600160a01b0316146125fd5760405162461bcd60e51b8152600401610fae90614398565b6103b481612710811061261257612612613c3c565b602081049091015460ff601f9092166101000a9004166126765761263d66b1a2bc2ec5000084613a05565b925060016103b482612710811061265657612656613c3c565b602091828204019190066101000a81548160ff0219169083151502179055505b505b8061268281613c52565b915050612596565b50600081116126ab5760405162461bcd60e51b8152600401610fae906143da565b604051600090339083908381818185875af1925050503d80600081146126ed576040519150601f19603f3d011682016040523d82523d6000602084013e6126f2565b606091505b50509050806127135760405162461bcd60e51b8152600401610fae90613c2c565b505060016008555050565b6007546001600160a01b031633146127485760405162461bcd60e51b8152600401610fae90613b57565b6001600160a01b031660009081526104f260205260409020805460ff19811660ff90911615179055565b6101428161271081106112ad57600080fd5b600080546001600160801b031682108015610dd4575050600090815260036020526040902054600160e01b900460ff161590565b600082815260056020526040808220805473ffffffffffffffffffffffffffffffffffffffff19166001600160a01b0387811691821790925591518593918516917f8c5be1e5ebec7d5bd14f71427d1e84f3dd0314c0f7b2291e5b200ac8c7c3b92591a4505050565b60008160008151811061283657612836613c3c565b602002602001015190506000612853612710836108f39190614400565b90505b6001600160a01b03811660009081526104fa602052604090205415158061289f5750601e61288661271084614400565b1015801561289f5750603261289d61271084614400565b105b156128c15760019190911c906128ba6108f361271084614400565b9050612856565b6104fb8054600181019091557f200df897059037f9a7cc5cc28e6528fd97d128146c0f27be9a2e550363fd553701805473ffffffffffffffffffffffffffffffffffffffff19166001600160a01b03831690811790915560008581526104fc60208181526040808420548585526104fa835281852081905589855292909152519192918381818185875af1925050503d806000811461297c576040519150601f19603f3d011682016040523d82523d6000602084013e612981565b606091505b50509050806129a25760405162461bcd60e51b8152600401610fae90614446565b5050505050565b60006129b482612de4565b80519091506000906001600160a01b0316336001600160a01b031614806129e2575081516129e29033612373565b806129fd5750336129f284610e6c565b6001600160a01b0316145b905080612a36576040517f59c896be00000000000000000000000000000000000000000000000000000000815260040160405180910390fd5b846001600160a01b031682600001516001600160a01b031614612a85576040517fa114810000000000000000000000000000000000000000000000000000000000815260040160405180910390fd5b6001600160a01b038416612ac5576040517fea553b3400000000000000000000000000000000000000000000000000000000815260040160405180910390fd5b612ad560008484600001516127b8565b6001600160a01b038581166000908152600460209081526040808320805467ffffffffffffffff1980821667ffffffffffffffff92831660001901831617909255898616808652838620805493841693831660019081018416949094179055898652600390945282852080546001600160e01b031916909417600160a01b429092169190910217909255908601808352912054909116612bca576000546001600160801b0316811015612bca578251600082815260036020908152604090912080549186015167ffffffffffffffff16600160a01b026001600160e01b03199092166001600160a01b03909316929092171790555b5082846001600160a01b0316866001600160a01b03167fddf252ad1be2c89b69c2b068fc378daa952ba7f163c4a11628f55a4df523b3ef60405160405180910390a46129a2565b60208110612c315760405162461bcd60e51b8152600401610fae906144ae565b60008133344244604051602001612c4c9594939291906144ec565b60405160208183030381529060405280519060200120905060005b82811015612d265760008054612c879083906001600160801b0316613a05565b9050828260208110612c9b57612c9b613c3c565b1a6009826127108110612cb057612cb0613c3c565b602091828204019190066101000a81548160ff021916908360ff160217905550600281612cdd9190614400565b1561027b826127108110612cf357612cf3613c3c565b602091828204019190066101000a81548160ff021916908315150217905550508080612d1e90613c52565b915050612c67565b50610f8483836130b2565b620151806104ef54612d439190613a05565b421080612d7a57506104ef54158015612d7a57506201518062093a806104ee54612d6d9190613a05565b612d779190613a05565b42105b8015612daf57506104ed5461251c61ffff909116101580612daf5750612da461251c612710614536565b6104ed5461ffff1611155b15611b86576104fd80547fffffffffffffffffffffffffffffffffffffffffffffffffffffffffff00ffff1662010000179055565b60408051606081018252600080825260208201819052918101829052905482906001600160801b0316811015612eef57600081815260036020908152604091829020825160608101845290546001600160a01b0381168252600160a01b810467ffffffffffffffff1692820192909252600160e01b90910460ff16151591810182905290612eed5780516001600160a01b031615612e83579392505050565b5060001901600081815260036020908152604091829020825160608101845290546001600160a01b038116808352600160a01b820467ffffffffffffffff1693830193909352600160e01b900460ff1615159281019290925215612ee8579392505050565b612e83565b505b6040517fdf2d9b4200000000000000000000000000000000000000000000000000000000815260040160405180910390fd5b600780546001600160a01b0383811673ffffffffffffffffffffffffffffffffffffffff19831681179093556040519116919082907f8be0079c531659141344cd1fd0a4f28419497f9722a3daafe3b4186f6b6457e090600090a35050565b60006001600160a01b0384163b156130a6576040517f150b7a020000000000000000000000000000000000000000000000000000000081526001600160a01b0385169063150b7a0290612fdd90339089908890889060040161454d565b6020604051808303816000875af1925050508015613018575060408051601f3d908101601f1916820190925261301591810190614592565b60015b613073573d808015613046576040519150601f19603f3d011682016040523d82523d6000602084013e61304b565b606091505b50805161306b576040516368d2bf6b60e11b815260040160405180910390fd5b805181602001fd5b6001600160e01b0319167f150b7a02000000000000000000000000000000000000000000000000000000001490506130aa565b5060015b949350505050565b611357828260405180602001604052806000815250610f8483838360016000546001600160801b03166001600160a01b03851661311b576040517f2e07630000000000000000000000000000000000000000000000000000000000815260040160405180910390fd5b83613152576040517fb562e8dd00000000000000000000000000000000000000000000000000000000815260040160405180910390fd5b6001600160a01b038516600081815260046020908152604080832080547fffffffffffffffffffffffffffffffff00000000000000000000000000000000811667ffffffffffffffff8083168c0181169182176801000000000000000067ffffffffffffffff1990941690921783900481168c018116909202179091558584526003909252822080546001600160e01b031916909317600160a01b42909216919091021790915581905b8581101561327d5760405182906001600160a01b038916906000907fddf252ad1be2c89b69c2b068fc378daa952ba7f163c4a11628f55a4df523b3ef908290a483801561325357506132516000888488612f80565b155b15613271576040516368d2bf6b60e11b815260040160405180910390fd5b600191820191016131fc565b50600080547fffffffffffffffffffffffffffffffff00000000000000000000000000000000166001600160801b03929092169190911790556129a2565b805b811461164e57600080fd5b8035610dd4816132bb565b6000602082840312156132e8576132e8600080fd5b60006130aa84846132c8565b805b82525050565b60208101610dd482846132f4565b6001600160e01b031981166132bd565b8035610dd48161330a565b60006020828403121561333a5761333a600080fd5b60006130aa848461331a565b8015156132f6565b60208101610dd48284613346565b60ff81166132f6565b60208101610dd4828461335c565b60005b8381101561338e578181015183820152602001613376565b83811115611f735750506000910152565b60006133a9825190565b8084526020840193506133c0818560208601613373565b601f01601f19169290920192915050565b60208082528101612480818461339f565b60006001600160a01b038216610dd4565b6132f6816133e2565b60208101610dd482846133f3565b61ffff81166132f6565b60208101610dd4828461340a565b6132bd816133e2565b8035610dd481613422565b6000806040838503121561344c5761344c600080fd5b6000613458858561342b565b9250506020613469858286016132c8565b9150509250929050565b60006020828403121561348857613488600080fd5b60006130aa848461342b565b634e487b7160e01b600052604160045260246000fd5b601f19601f830116810181811067ffffffffffffffff821117156134d0576134d0613494565b6040525050565b60006134e260405190565b90506134ee82826134aa565b919050565b600067ffffffffffffffff82111561350d5761350d613494565b5060209081020190565b600061352a613525846134f3565b6134d7565b8381529050602080820190840283018581111561354957613549600080fd5b835b8181101561356b5761355d87826132c8565b83526020928301920161354b565b5050509392505050565b600082601f83011261358957613589600080fd5b81356130aa848260208601613517565b600080604083850312156135af576135af600080fd5b60006135bb85856132c8565b925050602083013567ffffffffffffffff8111156135db576135db600080fd5b61346985828601613575565b6000806000606084860312156135ff576135ff600080fd5b600061360b868661342b565b935050602061361c8682870161342b565b925050604061362d868287016132c8565b9150509250925092565b60008083601f84011261364c5761364c600080fd5b50813567ffffffffffffffff81111561366757613667600080fd5b60208301915083602082028301111561368257613682600080fd5b9250929050565b6000806020838503121561369f5761369f600080fd5b823567ffffffffffffffff8111156136b9576136b9600080fd5b6136c585828601613637565b92509250509250929050565b67ffffffffffffffff81166132f6565b60208101610dd482846136d1565b8015156132bd565b8035610dd4816136ef565b6000806040838503121561371857613718600080fd5b6000613724858561342b565b9250506020613469858286016136f7565b600067ffffffffffffffff82111561374f5761374f613494565b601f19601f83011660200192915050565b82818337506000910152565b600061377a61352584613735565b90508281526020810184848401111561379557613795600080fd5b6137a0848285613760565b509392505050565b600082601f8301126137bc576137bc600080fd5b81356130aa84826020860161376c565b600080600080608085870312156137e5576137e5600080fd5b60006137f1878761342b565b94505060206138028782880161342b565b9350506040613813878288016132c8565b925050606085013567ffffffffffffffff81111561383357613833600080fd5b61383f878288016137a8565b91505092959194509250565b6bffffffffffffffffffffffff81166132bd565b8035610dd48161384b565b60006020828403121561387f5761387f600080fd5b60006130aa848461385f565b600080604083850312156138a1576138a1600080fd5b60006138ad858561342b565b92505060206134698582860161342b565b634e487b7160e01b600052602260045260246000fd5b6002810460018216806138e857607f821691505b602082108114156138fb576138fb6138be565b50919050565b601f8152602081017f5265656e7472616e637947756172643a207265656e7472616e742063616c6c00815290505b60200190565b60208082528101610dd481613901565b600f8152602081017f44726177206e6f742061637469766500000000000000000000000000000000008152905061392f565b60208082528101610dd481613945565b634e487b7160e01b600052601160045260246000fd5b60ff8116905060ff8216915060008260ff038211156139be576139be613987565b500190565b60128152602081017f44726177206c696d6974207265616368656400000000000000000000000000008152905061392f565b60208082528101610dd4816139c3565b600082198211156139be576139be613987565b60208082527f44726177732074616b6520706c616365206f6e636520706572206d696e757465910190815261392f565b60208082528101610dd481613a18565b61ffff81169050600061ffff821415613a7357613a73613987565b5060010190565b6000610dd482613a88565b90565b61ffff1690565b6132f681613a7a565b600063ffffffff8216610dd4565b6132f681613a98565b60a08101613abd82886132f4565b613aca60208301876136d1565b613ad76040830186613a8f565b613ae46060830185613aa6565b613af16080830184613aa6565b9695505050505050565b8051610dd4816132bb565b600060208284031215613b1b57613b1b600080fd5b60006130aa8484613afb565b60208082527f4f776e61626c653a2063616c6c6572206973206e6f7420746865206f776e6572910190815261392f565b60208082528101610dd481613b27565b60408101613b7582856133f3565b61248060208301846133f3565b60408101613b7582856136d1565b602e8152602081017f4465762063616e6e6f74207769746864726177206265666f726520746865206581527f6e64206f66207468652067616d65000000000000000000000000000000000000602082015290505b60400190565b60208082528101610dd481613b90565b60118152602081017f5769746864726177616c206661696c65640000000000000000000000000000008152905061392f565b60208082528101610dd481613bfa565b634e487b7160e01b600052603260045260246000fd5b6000600019821415613a7357613a73613987565b601c8152602081017f4f6e6c79206f776e65722063616e20746f67676c6520737461747573000000008152905061392f565b60208082528101610dd481613c66565b60148152602081017f5075626c69632073616c65206e6f74206f70656e0000000000000000000000008152905061392f565b60208082528101610dd481613ca8565b6000816000190483118215151615613d0457613d04613987565b500290565b60148152602081017f507269636520646f6573206e6f74206d617463680000000000000000000000008152905061392f565b60208082528101610dd481613d09565b60358152602081017f546865726520617265206e6f7420656e6f75676820436f2d426f7473206c656681527f7420746f206d696e74207468617420616d6f756e74000000000000000000000060208201529050613be4565b60208082528101610dd481613d4b565b603b8152602081017f436f2d426f74733a2074686520726571756573746564207175616e746974792081527f6578636565647320746865206d6178696d756d20616c6c6f776564000000000060208201529050613be4565b60208082528101610dd481613db3565b601b8152602081017f4f6e6c79206f776e65722063616e20746f67676c6520636f6c6f7200000000008152905061392f565b60208082528101610dd481613e1b565b60288152602081017f546f67676c696e6720636f6c6f727320696e2074776f20646966666572656e7481527f20636f6c6f72732100000000000000000000000000000000000000000000000060208201529050613be4565b60208082528101610dd481613e5d565b60318152602081017f5175616e74697479206578636565647320666f756e6465727320616e6420676981527f7665617761797320616c6c6f77616e636500000000000000000000000000000060208201529050613be4565b60208082528101610dd481613ec5565b60278152602081017f4552433732313a2055524920717565727920666f72206e6f6e6578697374656e81527f7420746f6b656e0000000000000000000000000000000000000000000000000060208201529050613be4565b60208082528101610dd481613f2d565b60808101613fa382876132f4565b613fb0602083018661335c565b613fbd6040830185613346565b613fca6060830184613346565b95945050505050565b6000613fe161352584613735565b905082815260208101848484011115613ffc57613ffc600080fd5b6137a0848285613373565b600082601f83011261401b5761401b600080fd5b81516130aa848260208601613fd3565b60006020828403121561404057614040600080fd5b815167ffffffffffffffff81111561405a5761405a600080fd5b6130aa84828501614007565b67ffffffffffffffff81166132bd565b8051610dd481614066565b60006020828403121561409657614096600080fd5b60006130aa8484614076565b6000610dd4613a856bffffffffffffffffffffffff841681565b6132f6816140a2565b606081016140d382866133f3565b6140e060208301856140bc565b8181036040830152613fca818461339f565b8051610dd4816136ef565b60006020828403121561411257614112600080fd5b60006130aa84846140f2565b7f646174613a6170706c69636174696f6e2f6a736f6e2c7b000000000000000000815260170161416d817f226e616d65223a2022436f2d426f7473222c00000000000000000000000000009052565b6012016141e9817f226465736372697074696f6e223a2022436f2d426f74732061726520636f6f7081527f65726174696f6e20726f626f74732e0a43433020262031303025204f6e2d436860208201527f61696e2e0a0a636f2d626f74732e636f6d2e2200000000000000000000000000604082015260530190565b7f7d000000000000000000000000000000000000000000000000000000000000008152905060010190565b6000610dd4826133e2565b6132bd81614214565b8051610dd48161421f565b60006020828403121561424857614248600080fd5b60006130aa8484614228565b60268152602081017f4f776e61626c653a206e6577206f776e657220697320746865207a65726f206181527f646472657373000000000000000000000000000000000000000000000000000060208201529050613be4565b60208082528101610dd481614254565b60168152602081017f526566756e6420706572696f64206e6f74206f70656e000000000000000000008152905061392f565b60208082528101610dd4816142bc565b60168152602081017f436f2d426f747320617265206d696e746564206f7574000000000000000000008152905061392f565b60208082528101610dd4816142fe565b60348152602081017f596f752063616e6e6f7420636c61696d206120726566756e6420666f7220612081527f746f6b656e20796f7520646f206e6f74206f776e00000000000000000000000060208201529050613be4565b60208082528101610dd481614340565b60148152602081017f4e6f20436f2d426f747320746f20726566756e640000000000000000000000008152905061392f565b60208082528101610dd4816143a8565b634e487b7160e01b600052601260045260246000fd5b60008261440f5761440f6143ea565b500690565b60108152602081017f5472616e73666572206661696c65642e000000000000000000000000000000008152905061392f565b60208082528101610dd481614414565b60258152602081017f546f6f206d616e7920436f2d426f747320746f206d696e7420696e206f6e652081527f626174636800000000000000000000000000000000000000000000000000000060208201529050613be4565b60208082528101610dd481614456565b806132f6565b6000610dd48260601b90565b6000610dd4826144c4565b6132f66144e7826133e2565b6144d0565b6144f681876144be565b60200161450381866144db565b60140161451081856144be565b60200161451d81846144be565b60200161452a81836144be565b60200195945050505050565b60008282101561454857614548613987565b500390565b6080810161455b82876133f3565b61456860208301866133f3565b61457560408301856132f4565b8181036060830152613af1818461339f565b8051610dd48161330a565b6000602082840312156145a7576145a7600080fd5b60006130aa848461458756fea26469706673582212203e8457770c73596b9b60f10e6c494b365e6a96fbc106f8abe7a49d0d6a81510864736f6c634300080c0033",
  "devdoc": {
    "kind": "dev",
    "methods": {
      "approve(address,uint256)": {
        "details": "See {IERC721-approve}."
      },
      "balanceOf(address)": {
        "details": "See {IERC721-balanceOf}."
      },
      "getApproved(uint256)": {
        "details": "See {IERC721-getApproved}."
      },
      "isApprovedForAll(address,address)": {
        "details": "Modified for opensea and looksrare pre-approve."
      },
      "name()": {
        "details": "See {IERC721Metadata-name}."
      },
      "owner()": {
        "details": "Returns the address of the current owner."
      },
      "ownerOf(uint256)": {
        "details": "See {IERC721-ownerOf}."
      },
      "renounceOwnership()": {
        "details": "Leaves the contract without owner. It will not be possible to call `onlyOwner` functions anymore. Can only be called by the current owner. NOTE: Renouncing ownership will leave the contract without an owner, thereby removing any functionality that is only available to the owner."
      },
      "safeTransferFrom(address,address,uint256)": {
        "details": "See {IERC721-safeTransferFrom}."
      },
      "safeTransferFrom(address,address,uint256,bytes)": {
        "details": "See {IERC721-safeTransferFrom}."
      },
      "setApprovalForAll(address,bool)": {
        "details": "See {IERC721-setApprovalForAll}."
      },
      "supportsInterface(bytes4)": {
        "details": "See {IERC165-supportsInterface}."
      },
      "symbol()": {
        "details": "See {IERC721Metadata-symbol}."
      },
      "tokenByIndex(uint256)": {
        "details": "See {IERC721Enumerable-tokenByIndex}. This read function is O(totalSupply). If calling from a separate contract, be sure to test gas first. It may also degrade with extremely large collection sizes (e.g >> 10000), test for your use case."
      },
      "tokenOfOwnerByIndex(address,uint256)": {
        "details": "See {IERC721Enumerable-tokenOfOwnerByIndex}. This read function is O(totalSupply). If calling from a separate contract, be sure to test gas first. It may also degrade with extremely large collection sizes (e.g >> 10000), test for your use case."
      },
      "totalSupply()": {
        "details": "See {IERC721Enumerable-totalSupply}."
      },
      "transferFrom(address,address,uint256)": {
        "details": "See {IERC721-transferFrom}."
      },
      "transferOwnership(address)": {
        "details": "Transfers ownership of the contract to a new account (`newOwner`). Can only be called by the current owner."
      }
    },
    "version": 1
  },
  "userdoc": {
    "kind": "user",
    "methods": {
      "flipProxyState(address)": {
        "notice": "Approve the communication and interaction with cross-collection interactions."
      },
      "setLooksrare(address)": {
        "notice": "Set looksrare to `looksrare_`."
      },
      "setOpensea(address)": {
        "notice": "Set opensea to `opensea_`."
      }
    },
    "version": 1
  },
  "storageLayout": {
    "storage": [
      {
        "astId": 8143,
        "contract": "contracts/co-bots/CoBots.sol:CoBots",
        "label": "_currentIndex",
        "offset": 0,
        "slot": "0",
        "type": "t_uint128"
      },
      {
        "astId": 8145,
        "contract": "contracts/co-bots/CoBots.sol:CoBots",
        "label": "_burnCounter",
        "offset": 16,
        "slot": "0",
        "type": "t_uint128"
      },
      {
        "astId": 8147,
        "contract": "contracts/co-bots/CoBots.sol:CoBots",
        "label": "_name",
        "offset": 0,
        "slot": "1",
        "type": "t_string_storage"
      },
      {
        "astId": 8149,
        "contract": "contracts/co-bots/CoBots.sol:CoBots",
        "label": "_symbol",
        "offset": 0,
        "slot": "2",
        "type": "t_string_storage"
      },
      {
        "astId": 8154,
        "contract": "contracts/co-bots/CoBots.sol:CoBots",
        "label": "_ownerships",
        "offset": 0,
        "slot": "3",
        "type": "t_mapping(t_uint256,t_struct(TokenOwnership)8134_storage)"
      },
      {
        "astId": 8159,
        "contract": "contracts/co-bots/CoBots.sol:CoBots",
        "label": "_addressData",
        "offset": 0,
        "slot": "4",
        "type": "t_mapping(t_address,t_struct(AddressData)8141_storage)"
      },
      {
        "astId": 8163,
        "contract": "contracts/co-bots/CoBots.sol:CoBots",
        "label": "_tokenApprovals",
        "offset": 0,
        "slot": "5",
        "type": "t_mapping(t_uint256,t_address)"
      },
      {
        "astId": 8169,
        "contract": "contracts/co-bots/CoBots.sol:CoBots",
        "label": "_operatorApprovals",
        "offset": 0,
        "slot": "6",
        "type": "t_mapping(t_address,t_mapping(t_address,t_bool))"
      },
      {
        "astId": 4185,
        "contract": "contracts/co-bots/CoBots.sol:CoBots",
        "label": "_owner",
        "offset": 0,
        "slot": "7",
        "type": "t_address"
      },
      {
        "astId": 4293,
        "contract": "contracts/co-bots/CoBots.sol:CoBots",
        "label": "_status",
        "offset": 0,
        "slot": "8",
        "type": "t_uint256"
      },
      {
        "astId": 5140,
        "contract": "contracts/co-bots/CoBots.sol:CoBots",
        "label": "coBotsSeeds",
        "offset": 0,
        "slot": "9",
        "type": "t_array(t_uint8)10000_storage"
      },
      {
        "astId": 5144,
        "contract": "contracts/co-bots/CoBots.sol:CoBots",
        "label": "coBotsStatusDisabled",
        "offset": 0,
        "slot": "322",
        "type": "t_array(t_bool)10000_storage"
      },
      {
        "astId": 5148,
        "contract": "contracts/co-bots/CoBots.sol:CoBots",
        "label": "coBotsColors",
        "offset": 0,
        "slot": "635",
        "type": "t_array(t_bool)10000_storage"
      },
      {
        "astId": 5152,
        "contract": "contracts/co-bots/CoBots.sol:CoBots",
        "label": "coBotsRefunded",
        "offset": 0,
        "slot": "948",
        "type": "t_array(t_bool)10000_storage"
      },
      {
        "astId": 5155,
        "contract": "contracts/co-bots/CoBots.sol:CoBots",
        "label": "coBotsColorAgreement",
        "offset": 0,
        "slot": "1261",
        "type": "t_uint16"
      },
      {
        "astId": 5157,
        "contract": "contracts/co-bots/CoBots.sol:CoBots",
        "label": "publicSaleStartTimestamp",
        "offset": 0,
        "slot": "1262",
        "type": "t_uint256"
      },
      {
        "astId": 5159,
        "contract": "contracts/co-bots/CoBots.sol:CoBots",
        "label": "mintedOutTimestamp",
        "offset": 0,
        "slot": "1263",
        "type": "t_uint256"
      },
      {
        "astId": 5246,
        "contract": "contracts/co-bots/CoBots.sol:CoBots",
        "label": "opensea",
        "offset": 0,
        "slot": "1264",
        "type": "t_address"
      },
      {
        "astId": 5248,
        "contract": "contracts/co-bots/CoBots.sol:CoBots",
        "label": "looksrare",
        "offset": 0,
        "slot": "1265",
        "type": "t_address"
      },
      {
        "astId": 5252,
        "contract": "contracts/co-bots/CoBots.sol:CoBots",
        "label": "proxyToApproved",
        "offset": 0,
        "slot": "1266",
        "type": "t_mapping(t_address,t_bool)"
      },
      {
        "astId": 5337,
        "contract": "contracts/co-bots/CoBots.sol:CoBots",
        "label": "renderingContractAddress",
        "offset": 0,
        "slot": "1267",
        "type": "t_address"
      },
      {
        "astId": 5340,
        "contract": "contracts/co-bots/CoBots.sol:CoBots",
        "label": "renderer",
        "offset": 0,
        "slot": "1268",
        "type": "t_contract(ICoBotsRenderer)7757"
      },
      {
        "astId": 5940,
        "contract": "contracts/co-bots/CoBots.sol:CoBots",
        "label": "COORDINATOR",
        "offset": 0,
        "slot": "1269",
        "type": "t_contract(VRFCoordinatorV2Interface)4116"
      },
      {
        "astId": 5943,
        "contract": "contracts/co-bots/CoBots.sol:CoBots",
        "label": "LINKTOKEN",
        "offset": 0,
        "slot": "1270",
        "type": "t_contract(LinkTokenInterface)4003"
      },
      {
        "astId": 5945,
        "contract": "contracts/co-bots/CoBots.sol:CoBots",
        "label": "gasKeyHash",
        "offset": 0,
        "slot": "1271",
        "type": "t_bytes32"
      },
      {
        "astId": 5947,
        "contract": "contracts/co-bots/CoBots.sol:CoBots",
        "label": "lastDrawTimestamp",
        "offset": 0,
        "slot": "1272",
        "type": "t_uint256"
      },
      {
        "astId": 5949,
        "contract": "contracts/co-bots/CoBots.sol:CoBots",
        "label": "s_subId",
        "offset": 0,
        "slot": "1273",
        "type": "t_uint64"
      },
      {
        "astId": 5953,
        "contract": "contracts/co-bots/CoBots.sol:CoBots",
        "label": "prizePerAddress",
        "offset": 0,
        "slot": "1274",
        "type": "t_mapping(t_address,t_uint256)"
      },
      {
        "astId": 5956,
        "contract": "contracts/co-bots/CoBots.sol:CoBots",
        "label": "winners",
        "offset": 0,
        "slot": "1275",
        "type": "t_array(t_address)dyn_storage"
      },
      {
        "astId": 5960,
        "contract": "contracts/co-bots/CoBots.sol:CoBots",
        "label": "prizePerDraw",
        "offset": 0,
        "slot": "1276",
        "type": "t_mapping(t_uint256,t_uint256)"
      },
      {
        "astId": 5962,
        "contract": "contracts/co-bots/CoBots.sol:CoBots",
        "label": "drawCount",
        "offset": 0,
        "slot": "1277",
        "type": "t_uint16"
      },
      {
        "astId": 5964,
        "contract": "contracts/co-bots/CoBots.sol:CoBots",
        "label": "cooperativeRaffleEnabled",
        "offset": 2,
        "slot": "1277",
        "type": "t_bool"
      }
    ],
    "types": {
      "t_address": {
        "encoding": "inplace",
        "label": "address",
        "numberOfBytes": "20"
      },
      "t_array(t_address)dyn_storage": {
        "base": "t_address",
        "encoding": "dynamic_array",
        "label": "address[]",
        "numberOfBytes": "32"
      },
      "t_array(t_bool)10000_storage": {
        "base": "t_bool",
        "encoding": "inplace",
        "label": "bool[10000]",
        "numberOfBytes": "10016"
      },
      "t_array(t_uint8)10000_storage": {
        "base": "t_uint8",
        "encoding": "inplace",
        "label": "uint8[10000]",
        "numberOfBytes": "10016"
      },
      "t_bool": {
        "encoding": "inplace",
        "label": "bool",
        "numberOfBytes": "1"
      },
      "t_bytes32": {
        "encoding": "inplace",
        "label": "bytes32",
        "numberOfBytes": "32"
      },
      "t_contract(ICoBotsRenderer)7757": {
        "encoding": "inplace",
        "label": "contract ICoBotsRenderer",
        "numberOfBytes": "20"
      },
      "t_contract(LinkTokenInterface)4003": {
        "encoding": "inplace",
        "label": "contract LinkTokenInterface",
        "numberOfBytes": "20"
      },
      "t_contract(VRFCoordinatorV2Interface)4116": {
        "encoding": "inplace",
        "label": "contract VRFCoordinatorV2Interface",
        "numberOfBytes": "20"
      },
      "t_mapping(t_address,t_bool)": {
        "encoding": "mapping",
        "key": "t_address",
        "label": "mapping(address => bool)",
        "numberOfBytes": "32",
        "value": "t_bool"
      },
      "t_mapping(t_address,t_mapping(t_address,t_bool))": {
        "encoding": "mapping",
        "key": "t_address",
        "label": "mapping(address => mapping(address => bool))",
        "numberOfBytes": "32",
        "value": "t_mapping(t_address,t_bool)"
      },
      "t_mapping(t_address,t_struct(AddressData)8141_storage)": {
        "encoding": "mapping",
        "key": "t_address",
        "label": "mapping(address => struct ERC721A.AddressData)",
        "numberOfBytes": "32",
        "value": "t_struct(AddressData)8141_storage"
      },
      "t_mapping(t_address,t_uint256)": {
        "encoding": "mapping",
        "key": "t_address",
        "label": "mapping(address => uint256)",
        "numberOfBytes": "32",
        "value": "t_uint256"
      },
      "t_mapping(t_uint256,t_address)": {
        "encoding": "mapping",
        "key": "t_uint256",
        "label": "mapping(uint256 => address)",
        "numberOfBytes": "32",
        "value": "t_address"
      },
      "t_mapping(t_uint256,t_struct(TokenOwnership)8134_storage)": {
        "encoding": "mapping",
        "key": "t_uint256",
        "label": "mapping(uint256 => struct ERC721A.TokenOwnership)",
        "numberOfBytes": "32",
        "value": "t_struct(TokenOwnership)8134_storage"
      },
      "t_mapping(t_uint256,t_uint256)": {
        "encoding": "mapping",
        "key": "t_uint256",
        "label": "mapping(uint256 => uint256)",
        "numberOfBytes": "32",
        "value": "t_uint256"
      },
      "t_string_storage": {
        "encoding": "bytes",
        "label": "string",
        "numberOfBytes": "32"
      },
      "t_struct(AddressData)8141_storage": {
        "encoding": "inplace",
        "label": "struct ERC721A.AddressData",
        "members": [
          {
            "astId": 8136,
            "contract": "contracts/co-bots/CoBots.sol:CoBots",
            "label": "balance",
            "offset": 0,
            "slot": "0",
            "type": "t_uint64"
          },
          {
            "astId": 8138,
            "contract": "contracts/co-bots/CoBots.sol:CoBots",
            "label": "numberMinted",
            "offset": 8,
            "slot": "0",
            "type": "t_uint64"
          },
          {
            "astId": 8140,
            "contract": "contracts/co-bots/CoBots.sol:CoBots",
            "label": "numberBurned",
            "offset": 16,
            "slot": "0",
            "type": "t_uint64"
          }
        ],
        "numberOfBytes": "32"
      },
      "t_struct(TokenOwnership)8134_storage": {
        "encoding": "inplace",
        "label": "struct ERC721A.TokenOwnership",
        "members": [
          {
            "astId": 8129,
            "contract": "contracts/co-bots/CoBots.sol:CoBots",
            "label": "addr",
            "offset": 0,
            "slot": "0",
            "type": "t_address"
          },
          {
            "astId": 8131,
            "contract": "contracts/co-bots/CoBots.sol:CoBots",
            "label": "startTimestamp",
            "offset": 20,
            "slot": "0",
            "type": "t_uint64"
          },
          {
            "astId": 8133,
            "contract": "contracts/co-bots/CoBots.sol:CoBots",
            "label": "burned",
            "offset": 28,
            "slot": "0",
            "type": "t_bool"
          }
        ],
        "numberOfBytes": "32"
      },
      "t_uint128": {
        "encoding": "inplace",
        "label": "uint128",
        "numberOfBytes": "16"
      },
      "t_uint16": {
        "encoding": "inplace",
        "label": "uint16",
        "numberOfBytes": "2"
      },
      "t_uint256": {
        "encoding": "inplace",
        "label": "uint256",
        "numberOfBytes": "32"
      },
      "t_uint64": {
        "encoding": "inplace",
        "label": "uint64",
        "numberOfBytes": "8"
      },
      "t_uint8": {
        "encoding": "inplace",
        "label": "uint8",
        "numberOfBytes": "1"
      }
    }
  }
}