{
  "address": "0xF0894e18c5Caef17EEE706Dd7c1C4749f83e542D",
  "abi": [
    {
      "inputs": [
        {
          "internalType": "address",
          "name": "_coBotsRenderer",
          "type": "address"
        }
      ],
      "stateMutability": "nonpayable",
      "type": "constructor"
    },
    {
      "inputs": [],
      "name": "WriteError",
      "type": "error"
    },
    {
      "anonymous": false,
      "inputs": [
        {
          "indexed": false,
          "internalType": "address",
          "name": "prevPointer",
          "type": "address"
        },
        {
          "indexed": false,
          "internalType": "address",
          "name": "newPointer",
          "type": "address"
        }
      ],
      "name": "CollectionChanged",
      "type": "event"
    },
    {
      "anonymous": false,
      "inputs": [
        {
          "indexed": false,
          "internalType": "address",
          "name": "prevPointer",
          "type": "address"
        },
        {
          "indexed": false,
          "internalType": "address",
          "name": "newPointer",
          "type": "address"
        }
      ],
      "name": "ColorPaletteChanged",
      "type": "event"
    },
    {
      "anonymous": false,
      "inputs": [
        {
          "indexed": true,
          "internalType": "address",
          "name": "previousOwner",
          "type": "address"
        },
        {
          "indexed": true,
          "internalType": "address",
          "name": "newOwner",
          "type": "address"
        }
      ],
      "name": "OwnershipTransferred",
      "type": "event"
    },
    {
      "inputs": [
        {
          "internalType": "uint256[]",
          "name": "items",
          "type": "uint256[]"
        }
      ],
      "name": "getCoBotAttributes",
      "outputs": [
        {
          "internalType": "string",
          "name": "",
          "type": "string"
        }
      ],
      "stateMutability": "pure",
      "type": "function"
    },
    {
      "inputs": [
        {
          "internalType": "uint256",
          "name": "tokenId",
          "type": "uint256"
        },
        {
          "internalType": "uint8",
          "name": "seed",
          "type": "uint8"
        }
      ],
      "name": "getCoBotItems",
      "outputs": [
        {
          "internalType": "uint256[]",
          "name": "",
          "type": "uint256[]"
        }
      ],
      "stateMutability": "view",
      "type": "function"
    },
    {
      "inputs": [
        {
          "internalType": "uint256[]",
          "name": "items",
          "type": "uint256[]"
        }
      ],
      "name": "imageURI",
      "outputs": [
        {
          "internalType": "string",
          "name": "",
          "type": "string"
        }
      ],
      "stateMutability": "view",
      "type": "function"
    },
    {
      "inputs": [],
      "name": "owner",
      "outputs": [
        {
          "internalType": "address",
          "name": "",
          "type": "address"
        }
      ],
      "stateMutability": "view",
      "type": "function"
    },
    {
      "inputs": [],
      "name": "renounceOwnership",
      "outputs": [],
      "stateMutability": "nonpayable",
      "type": "function"
    },
    {
      "inputs": [
        {
          "internalType": "bytes",
          "name": "traits",
          "type": "bytes"
        }
      ],
      "name": "storeCollection",
      "outputs": [],
      "stateMutability": "nonpayable",
      "type": "function"
    },
    {
      "inputs": [
        {
          "internalType": "bytes",
          "name": "palette",
          "type": "bytes"
        }
      ],
      "name": "storePalette",
      "outputs": [],
      "stateMutability": "nonpayable",
      "type": "function"
    },
    {
      "inputs": [
        {
          "internalType": "uint256",
          "name": "tokenId",
          "type": "uint256"
        },
        {
          "internalType": "uint8",
          "name": "seed",
          "type": "uint8"
        }
      ],
      "name": "tokenURI",
      "outputs": [
        {
          "internalType": "string",
          "name": "",
          "type": "string"
        }
      ],
      "stateMutability": "view",
      "type": "function"
    },
    {
      "inputs": [
        {
          "internalType": "address",
          "name": "newOwner",
          "type": "address"
        }
      ],
      "name": "transferOwnership",
      "outputs": [],
      "stateMutability": "nonpayable",
      "type": "function"
    }
  ],
  "transactionHash": "0xc6ee3b6d37d2e4a5c361d9e34d31f50fbb961608818dccc927dee1bfeb6486be",
  "args": [
    "0xAB23145aC706A2454cCAD3ED7c76569CAf3D3fAD"
  ],
  "numDeployments": 5,
  "solcInputHash": "f1416a8a60babb052e0941b181f3c9fb",
  "bytecode": "0x60806040523480156200001157600080fd5b50604051620024b6380380620024b68339810160408190526200003491620000f3565b6200003f3362000069565b60018055600480546001600160a01b0319166001600160a01b039290921691909117905562000120565b600080546001600160a01b038381166001600160a01b0319831681178455604051919092169283917f8be0079c531659141344cd1fd0a4f28419497f9722a3daafe3b4186f6b6457e09190a35050565b60006001600160a01b0382165b92915050565b620000d781620000b9565b8114620000e357600080fd5b50565b8051620000c681620000cc565b6000602082840312156200010a576200010a600080fd5b6000620001188484620000e6565b949350505050565b61238680620001306000396000f3fe608060405234801561001057600080fd5b50600436106100a35760003560e01c806388d4c6cf11610076578063e50fe81e1161005b578063e50fe81e1461012d578063f1e12d6a1461014d578063f2fde38b1461016057600080fd5b806388d4c6cf146101015780638da5cb5b1461011457600080fd5b80633cc54c23146100a85780634f31249b146100bd5780635cc518ba146100d0578063715018a6146100f9575b600080fd5b6100bb6100b636600461176a565b610173565b005b6100bb6100cb36600461176a565b6101f1565b6100e36100de3660046117d1565b610263565b6040516100f09190611870565b60405180910390f35b6100bb610345565b6100e361010f366004611929565b610384565b6000546001600160a01b03166040516100f09190611984565b61014061013b3660046117d1565b61069e565b6040516100f091906119f6565b6100e361015b366004611929565b6108f7565b6100bb61016e366004611a1b565b61151a565b6003546001600160a01b031661018882611576565b6003805473ffffffffffffffffffffffffffffffffffffffff19166001600160a01b039290921691821790556040517f2b6ca4cbda96534ab1e865e0e9686ed13f63f1ad6e54185bde7686f0ed726a5e916101e591849190611a3c565b60405180910390a15050565b6002546001600160a01b031661020682611576565b6002805473ffffffffffffffffffffffffffffffffffffffff19166001600160a01b039290921691821790556040517f7376cd5cdde023cd48fdd9dd3023f01d63441ac9d6b9b52e3b750f0c3dc25267916101e591849190611a3c565b60606000610271848461069e565b905061027c81610384565b6040517f6900a3ae00000000000000000000000000000000000000000000000000000000815273FD60cDD345feB6011fDeb4Dc3d69aD2319f8508C90636900a3ae906102cc908890600401611a57565b600060405180830381865af41580156102e9573d6000803e3d6000fd5b505050506040513d6000823e601f3d908101601f191682016040526103119190810190611abd565b61031a836108f7565b60405160200161032c93929190611b1a565b6040516020818303038152906040529150505b92915050565b6000546001600160a01b031633146103785760405162461bcd60e51b815260040161036f90611ccd565b60405180910390fd5b61038260006115f4565b565b604080518082018252601381527f646174613a696d6167652f7376672b786d6c2c0000000000000000000000000060208201526004805483517f480bc3c800000000000000000000000000000000000000000000000000000000815293516060946001600160a01b039092169263480bc3c8928082019260009290918290030181865afa158015610419573d6000803e3d6000fd5b505050506040513d6000823e601f3d908101601f191682016040526104419190810190611abd565b6003546040517ff3ab4be7000000000000000000000000000000000000000000000000000000008152739D7FeA76a906A67DE351b657CD73E6bf8F04b8409163999086e391839163f3ab4be7916104a6916001600160a01b0316908a90600401611d1a565b600060405180830381865af41580156104c3573d6000803e3d6000fd5b505050506040513d6000823e601f3d908101601f191682016040526104eb9190810190611abd565b6002546040517f657fb2e10000000000000000000000000000000000000000000000000000000081527391F59E8d53061DD2F7C4a405984D9a4297C54A0C9163657fb2e191610546916001600160a01b031690600401611984565b600060405180830381865af4158015610563573d6000803e3d6000fd5b505050506040513d6000823e601f3d908101601f1916820160405261058b9190810190611dca565b6040518363ffffffff1660e01b81526004016105a8929190611e75565b600060405180830381865af41580156105c5573d6000803e3d6000fd5b505050506040513d6000823e601f3d908101601f191682016040526105ed9190810190611abd565b60048054604080517f6f5c723b00000000000000000000000000000000000000000000000000000000815290516001600160a01b0390921692636f5c723b9282820192600092908290030181865afa15801561064d573d6000803e3d6000fd5b505050506040513d6000823e601f3d908101601f191682016040526106759190810190611abd565b6040516020016106889493929190611e9a565b6040516020818303038152906040529050919050565b600480546040517f47bf48f30000000000000000000000000000000000000000000000000000000081526060926000928392839283926001600160a01b0316916347bf48f3916106f2918b918b9101611eda565b608060405180830381865afa15801561070f573d6000803e3d6000fd5b505050506040513d601f19601f820116820180604052508101906107339190611f00565b60408051600a8082526101608201909252949850929650909450925060009190602082016101408036833701905050905060008160008151811061077957610779611f64565b60209081029190910101526107906103e889611f90565b816001815181106107a3576107a3611f64565b6020908102919091010152600a6107bb60648a611f90565b6107c59190611fa4565b816002815181106107d8576107d8611f64565b6020908102919091010152600a6107ef818a611f90565b6107f99190611fa4565b8160038151811061080c5761080c611f64565b6020908102919091010152610822600a89611fa4565b8160048151811061083557610835611f64565b602002602001018181525050848160058151811061085557610855611f64565b602002602001018181525050838160068151811061087557610875611f64565b602002602001018181525050828160078151811061089557610895611f64565b60200260200101818152505081816008815181106108b5576108b5611f64565b60209081029190910101526108cb600288611fbc565b60ff16816009815181106108e1576108e1611f64565b6020908102919091010152979650505050505050565b6060600060405180610180016040528060405180604001604052806007815260200166436c617373696360c81b81525081526020016040518060400160405280600781526020017f536572696f75730000000000000000000000000000000000000000000000000081525081526020016040518060400160405280600581526020017f4a756d707900000000000000000000000000000000000000000000000000000081525081526020016040518060400160405280600681526020017f42757a7a6564000000000000000000000000000000000000000000000000000081525081526020016040518060400160405280600581526020017f427567677900000000000000000000000000000000000000000000000000000081525081526020016040518060400160405280600481526020017f50756e6b0000000000000000000000000000000000000000000000000000000081525081526020016040518060400160405280600781526020017f416e67656c69630000000000000000000000000000000000000000000000000081525081526020016040518060400160405280600681526020017f496d70697368000000000000000000000000000000000000000000000000000081525081526020016040518060400160405280600781526020017f48756d626c65640000000000000000000000000000000000000000000000000081525081526020016040518060400160405280600781526020017f5765737465726e0000000000000000000000000000000000000000000000000081525081526020016040518060400160405280600581526020017f526f79616c00000000000000000000000000000000000000000000000000000081525081526020016040518060400160405280600581526020017f4861636b790000000000000000000000000000000000000000000000000000008152508152509050600060405180610180016040528060405180604001604052806007815260200166436c617373696360c81b81525081526020016040518060400160405280600781526020017f4379636c6f70730000000000000000000000000000000000000000000000000081525081526020016040518060400160405280600681526020017f41776f6b656e000000000000000000000000000000000000000000000000000081525081526020016040518060400160405280600681526020017f466c69727479000000000000000000000000000000000000000000000000000081525081526020016040518060400160405280600381526020017f5a656e000000000000000000000000000000000000000000000000000000000081525081526020016040518060400160405280600881526020017f536164686170707900000000000000000000000000000000000000000000000081525081526020016040518060400160405280600981526020017f556e616c69676e6564000000000000000000000000000000000000000000000081525081526020016040518060400160405280600781526020017f536d697474656e0000000000000000000000000000000000000000000000000081525081526020016040518060400160405280600a81526020017f4f7074696d69737469630000000000000000000000000000000000000000000081525081526020016040518060400160405280600581526020017f4861636b7900000000000000000000000000000000000000000000000000000081525081526020016040518060400160405280600581526020017f537570657200000000000000000000000000000000000000000000000000000081525081526020016040518060400160405280600781526020017f4e6f756e697368000000000000000000000000000000000000000000000000008152508152509050600060405180610160016040528060405180604001604052806007815260200166436c617373696360c81b81525081526020016040518060400160405280600a81526020017f486561767920447574790000000000000000000000000000000000000000000081525081526020016040518060400160405280600581526020017f466972657900000000000000000000000000000000000000000000000000000081525081526020016040518060400160405280600c81526020017f4c6974746c65204669726579000000000000000000000000000000000000000081525081526020016040518060400160405280600681526020017f526f6c6c6572000000000000000000000000000000000000000000000000000081525081526020016040518060400160405280600d81526020017f4c6974746c6520526f6c6c65720000000000000000000000000000000000000081525081526020016040518060400160405280600981526020017f456e65726765746963000000000000000000000000000000000000000000000081525081526020016040518060400160405280601081526020017f4c6974746c6520456e657267657469630000000000000000000000000000000081525081526020016040518060400160405280600781526020017f486f62626c65640000000000000000000000000000000000000000000000000081525081526020016040518060400160405280600781526020017f47686f73746c790000000000000000000000000000000000000000000000000081525081526020016040518060400160405280600581526020017f50757368790000000000000000000000000000000000000000000000000000008152508152509050600060405180604001604052806040518060400160405280600381526020017f4f6666000000000000000000000000000000000000000000000000000000000081525081526020016040518060400160405280600281526020017f4f6e0000000000000000000000000000000000000000000000000000000000008152508152509050600060405180610160016040528060405180604001604052806007815260200166436c617373696360c81b81525081526020016040518060400160405280600781526020017f576f72726965640000000000000000000000000000000000000000000000000081525081526020016040518060400160405280600881526020017f4b6e696768746c7900000000000000000000000000000000000000000000000081525081526020016040518060400160405280600381526020017f536879000000000000000000000000000000000000000000000000000000000081525081526020016040518060400160405280600581526020017f486170707900000000000000000000000000000000000000000000000000000081525081526020016040518060400160405280600681526020017f426967736164000000000000000000000000000000000000000000000000000081525081526020016040518060400160405280600481526020017f536d75670000000000000000000000000000000000000000000000000000000081525081526020016040518060400160405280600581526020017f576f77656400000000000000000000000000000000000000000000000000000081525081526020016040518060400160405280600781526020017f546869727374790000000000000000000000000000000000000000000000000081525081526020016040518060400160405280600a81526020017f56696c6c61696e6f75730000000000000000000000000000000000000000000081525081526020016040518060400160405280600581526020017f53686164790000000000000000000000000000000000000000000000000000008152508152509050838760058151811061140a5761140a611f64565b6020026020010151600c811061142257611422611f64565b6020020151838860088151811061143b5761143b611f64565b6020026020010151600b811061145357611453611f64565b6020020151838960098151811061146c5761146c611f64565b60200260200101516002811061148457611484611f64565b6020020151838a60068151811061149d5761149d611f64565b6020026020010151600b81106114b5576114b5611f64565b6020020151888b6007815181106114ce576114ce611f64565b6020026020010151600c81106114e6576114e6611f64565b60200201516040516020016114ff9594939291906120cd565b60405160208183030381529060405295505050505050919050565b6000546001600160a01b031633146115445760405162461bcd60e51b815260040161036f90611ccd565b6001600160a01b03811661156a5760405162461bcd60e51b815260040161036f9061223b565b611573816115f4565b50565b6000806115a18360405160200161158d91906122a7565b604051602081830303815290604052611651565b90508051602082016000f091506001600160a01b0382166115ee576040517f08d4abb600000000000000000000000000000000000000000000000000000000815260040160405180910390fd5b50919050565b600080546001600160a01b0383811673ffffffffffffffffffffffffffffffffffffffff19831681178455604051919092169283917f8be0079c531659141344cd1fd0a4f28419497f9722a3daafe3b4186f6b6457e09190a35050565b60608151826040516020016106889291906122ff565b634e487b7160e01b600052604160045260246000fd5b601f19601f830116810181811067ffffffffffffffff821117156116a3576116a3611667565b6040525050565b60006116b560405190565b90506116c1828261167d565b919050565b600067ffffffffffffffff8211156116e0576116e0611667565b601f19601f83011660200192915050565b82818337506000910152565b600061171061170b846116c6565b6116aa565b90508281526020810184848401111561172b5761172b600080fd5b6117368482856116f1565b509392505050565b600082601f83011261175257611752600080fd5b81356117628482602086016116fd565b949350505050565b60006020828403121561177f5761177f600080fd5b813567ffffffffffffffff81111561179957611799600080fd5b6117628482850161173e565b805b811461157357600080fd5b803561033f816117a5565b60ff81166117a7565b803561033f816117bd565b600080604083850312156117e7576117e7600080fd5b60006117f385856117b2565b9250506020611804858286016117c6565b9150509250929050565b60005b83811015611829578181015183820152602001611811565b83811115611838576000848401525b50505050565b6000611848825190565b80845260208401935061185f81856020860161180e565b601f01601f19169290920192915050565b60208082528101611881818461183e565b9392505050565b600067ffffffffffffffff8211156118a2576118a2611667565b5060209081020190565b60006118ba61170b84611888565b838152905060208082019084028301858111156118d9576118d9600080fd5b835b818110156118fb576118ed87826117b2565b8352602092830192016118db565b5050509392505050565b600082601f83011261191957611919600080fd5b81356117628482602086016118ac565b60006020828403121561193e5761193e600080fd5b813567ffffffffffffffff81111561195857611958600080fd5b61176284828501611905565b60006001600160a01b03821661033f565b61197e81611964565b82525050565b6020810161033f8284611975565b8061197e565b6119a28282611992565b5060200190565b60200190565b60006119b9825190565b808452602093840193830160005b828110156119ec5781516119db8782611998565b9650506020820191506001016119c7565b5093949350505050565b6020808252810161188181846119af565b6117a781611964565b803561033f81611a07565b600060208284031215611a3057611a30600080fd5b60006117628484611a10565b60408101611a4a8285611975565b6118816020830184611975565b6020810161033f8284611992565b6000611a7361170b846116c6565b905082815260208101848484011115611a8e57611a8e600080fd5b61173684828561180e565b600082601f830112611aad57611aad600080fd5b8151611762848260208601611a65565b600060208284031215611ad257611ad2600080fd5b815167ffffffffffffffff811115611aec57611aec600080fd5b61176284828501611a99565b6000611b02825190565b611b1081856020860161180e565b9290920192915050565b7f646174613a6170706c69636174696f6e2f6a736f6e2c000000000000000000008152601601611b69817f7b22696d616765223a20220000000000000000000000000000000000000000009052565b600b01611b768185611af8565b601160f91b81529050600101611bfb817f2c226465736372697074696f6e223a2022436f2d426f74732061726520636f6f81527f7065726174696f6e20726f626f7473207c2043433020262031303025204f6e2d60208201527f436861696e207c20636f2d626f74732e636f6d2e220000000000000000000000604082015260550190565b7f2c226e616d65223a2022436f2d426f742023000000000000000000000000000081529050601201611c2d8184611af8565b601160f91b81529050600101611c62817f2c2261747472696275746573223a2000000000000000000000000000000000009052565b600f01611c6f8183611af8565b7f7d000000000000000000000000000000000000000000000000000000000000008152600101949350505050565b60208082527f4f776e61626c653a2063616c6c6572206973206e6f7420746865206f776e657291019081526119a9565b6020808252810161033f81611c9d565b6000611ce7825190565b808452602093840193830160005b828110156119ec578151611d098782611998565b965050602082019150600101611cf5565b60408101611d288285611975565b81810360208301526117628184611cdd565b6000611d4861170b84611888565b83815290506020808201908402830185811115611d6757611d67600080fd5b835b818110156118fb57805167ffffffffffffffff811115611d8b57611d8b600080fd5b8501611d978882611a99565b84525060209283019201611d69565b600082601f830112611dba57611dba600080fd5b8151611762848260208601611d3a565b600060208284031215611ddf57611ddf600080fd5b815167ffffffffffffffff811115611df957611df9600080fd5b61176284828501611da6565b6000611881838361183e565b6000611e1b825190565b80845260208401935083602082028501611e358560200190565b60005b84811015611e695783830388528151611e518482611e05565b93505060208201602098909801979150600101611e38565b50909695505050505050565b60408082528101611e86818561183e565b905081810360208301526117628184611e11565b611ea48186611af8565b9050611eb08185611af8565b9050611ebc8184611af8565b9050611ec88183611af8565b95945050505050565b60ff811661197e565b60408101611ee88285611992565b6118816020830184611ed1565b805161033f816117a5565b60008060008060808587031215611f1957611f19600080fd5b6000611f258787611ef5565b9450506020611f3687828801611ef5565b9350506040611f4787828801611ef5565b9250506060611f5887828801611ef5565b91505092959194509250565b634e487b7160e01b600052603260045260246000fd5b634e487b7160e01b600052601260045260246000fd5b600082611f9f57611f9f611f7a565b500490565b815b9150600082611fb757611fb7611f7a565b500690565b60ff908116908216611fa6565b7f7b2274726169745f74797065223a202245796573222c202276616c7565223a208152601160f91b60208201525b60210190565b7f7b2274726169745f74797065223a202246656574222c202276616c7565223a208152601160f91b6020820152611ff7565b7f7b2274726169745f74797065223a20224d65747461222c202276616c7565223a81527f202200000000000000000000000000000000000000000000000000000000000060208201525b60220190565b7f7b2274726169745f74797065223a20224d6f757468222c202276616c7565223a81527f20220000000000000000000000000000000000000000000000000000000000006020820152612079565b7f5b0000000000000000000000000000000000000000000000000000000000000081526001016120fc81611fc9565b90506121088187611af8565b62089f4b60ea1b8152905060030161211f81611ffd565b905061212b8186611af8565b62089f4b60ea1b815290506003016121428161202f565b905061214e8185611af8565b62089f4b60ea1b815290506003016121658161207f565b90506121718184611af8565b62089f4b60ea1b815290506003016121d2817f7b2274726169745f74797065223a2022416e74656e6e61222c202276616c756581527f223a202200000000000000000000000000000000000000000000000000000000602082015260240190565b90506121de8183611af8565b7f227d0000000000000000000000000000000000000000000000000000000000008152905060020161222f817f5d000000000000000000000000000000000000000000000000000000000000009052565b60010195945050505050565b6020808252810161033f81602681527f4f776e61626c653a206e6577206f776e657220697320746865207a65726f206160208201527f6464726573730000000000000000000000000000000000000000000000000000604082015260600190565b600081525b60010190565b6122b08161229c565b905061033f8183611af8565b7f630000000000000000000000000000000000000000000000000000000000000081526122a1565b600061033f8260e01b90565b61197e63ffffffff82166122e4565b612308816122bc565b905061231481846122f0565b600401612344817f80600e6000396000f30000000000000000000000000000000000000000000000815260090190565b90506118818183611af856fea2646970667358221220ab21eb1a98571167d1e93b91b60c364eaf730680c062fd674e1f9da2343ef42664736f6c634300080c0033",
  "deployedBytecode": "0x608060405234801561001057600080fd5b50600436106100a35760003560e01c806388d4c6cf11610076578063e50fe81e1161005b578063e50fe81e1461012d578063f1e12d6a1461014d578063f2fde38b1461016057600080fd5b806388d4c6cf146101015780638da5cb5b1461011457600080fd5b80633cc54c23146100a85780634f31249b146100bd5780635cc518ba146100d0578063715018a6146100f9575b600080fd5b6100bb6100b636600461176a565b610173565b005b6100bb6100cb36600461176a565b6101f1565b6100e36100de3660046117d1565b610263565b6040516100f09190611870565b60405180910390f35b6100bb610345565b6100e361010f366004611929565b610384565b6000546001600160a01b03166040516100f09190611984565b61014061013b3660046117d1565b61069e565b6040516100f091906119f6565b6100e361015b366004611929565b6108f7565b6100bb61016e366004611a1b565b61151a565b6003546001600160a01b031661018882611576565b6003805473ffffffffffffffffffffffffffffffffffffffff19166001600160a01b039290921691821790556040517f2b6ca4cbda96534ab1e865e0e9686ed13f63f1ad6e54185bde7686f0ed726a5e916101e591849190611a3c565b60405180910390a15050565b6002546001600160a01b031661020682611576565b6002805473ffffffffffffffffffffffffffffffffffffffff19166001600160a01b039290921691821790556040517f7376cd5cdde023cd48fdd9dd3023f01d63441ac9d6b9b52e3b750f0c3dc25267916101e591849190611a3c565b60606000610271848461069e565b905061027c81610384565b6040517f6900a3ae00000000000000000000000000000000000000000000000000000000815273__$2a9b762fd8664b1aa3edd8569463e9cda4$__90636900a3ae906102cc908890600401611a57565b600060405180830381865af41580156102e9573d6000803e3d6000fd5b505050506040513d6000823e601f3d908101601f191682016040526103119190810190611abd565b61031a836108f7565b60405160200161032c93929190611b1a565b6040516020818303038152906040529150505b92915050565b6000546001600160a01b031633146103785760405162461bcd60e51b815260040161036f90611ccd565b60405180910390fd5b61038260006115f4565b565b604080518082018252601381527f646174613a696d6167652f7376672b786d6c2c0000000000000000000000000060208201526004805483517f480bc3c800000000000000000000000000000000000000000000000000000000815293516060946001600160a01b039092169263480bc3c8928082019260009290918290030181865afa158015610419573d6000803e3d6000fd5b505050506040513d6000823e601f3d908101601f191682016040526104419190810190611abd565b6003546040517ff3ab4be700000000000000000000000000000000000000000000000000000000815273__$8dbeda65cfccd7ed7a91dea9e4074110db$__9163999086e391839163f3ab4be7916104a6916001600160a01b0316908a90600401611d1a565b600060405180830381865af41580156104c3573d6000803e3d6000fd5b505050506040513d6000823e601f3d908101601f191682016040526104eb9190810190611abd565b6002546040517f657fb2e100000000000000000000000000000000000000000000000000000000815273__$75a5c6c1ddcd30c79038ef22d8e93ac41a$__9163657fb2e191610546916001600160a01b031690600401611984565b600060405180830381865af4158015610563573d6000803e3d6000fd5b505050506040513d6000823e601f3d908101601f1916820160405261058b9190810190611dca565b6040518363ffffffff1660e01b81526004016105a8929190611e75565b600060405180830381865af41580156105c5573d6000803e3d6000fd5b505050506040513d6000823e601f3d908101601f191682016040526105ed9190810190611abd565b60048054604080517f6f5c723b00000000000000000000000000000000000000000000000000000000815290516001600160a01b0390921692636f5c723b9282820192600092908290030181865afa15801561064d573d6000803e3d6000fd5b505050506040513d6000823e601f3d908101601f191682016040526106759190810190611abd565b6040516020016106889493929190611e9a565b6040516020818303038152906040529050919050565b600480546040517f47bf48f30000000000000000000000000000000000000000000000000000000081526060926000928392839283926001600160a01b0316916347bf48f3916106f2918b918b9101611eda565b608060405180830381865afa15801561070f573d6000803e3d6000fd5b505050506040513d601f19601f820116820180604052508101906107339190611f00565b60408051600a8082526101608201909252949850929650909450925060009190602082016101408036833701905050905060008160008151811061077957610779611f64565b60209081029190910101526107906103e889611f90565b816001815181106107a3576107a3611f64565b6020908102919091010152600a6107bb60648a611f90565b6107c59190611fa4565b816002815181106107d8576107d8611f64565b6020908102919091010152600a6107ef818a611f90565b6107f99190611fa4565b8160038151811061080c5761080c611f64565b6020908102919091010152610822600a89611fa4565b8160048151811061083557610835611f64565b602002602001018181525050848160058151811061085557610855611f64565b602002602001018181525050838160068151811061087557610875611f64565b602002602001018181525050828160078151811061089557610895611f64565b60200260200101818152505081816008815181106108b5576108b5611f64565b60209081029190910101526108cb600288611fbc565b60ff16816009815181106108e1576108e1611f64565b6020908102919091010152979650505050505050565b6060600060405180610180016040528060405180604001604052806007815260200166436c617373696360c81b81525081526020016040518060400160405280600781526020017f536572696f75730000000000000000000000000000000000000000000000000081525081526020016040518060400160405280600581526020017f4a756d707900000000000000000000000000000000000000000000000000000081525081526020016040518060400160405280600681526020017f42757a7a6564000000000000000000000000000000000000000000000000000081525081526020016040518060400160405280600581526020017f427567677900000000000000000000000000000000000000000000000000000081525081526020016040518060400160405280600481526020017f50756e6b0000000000000000000000000000000000000000000000000000000081525081526020016040518060400160405280600781526020017f416e67656c69630000000000000000000000000000000000000000000000000081525081526020016040518060400160405280600681526020017f496d70697368000000000000000000000000000000000000000000000000000081525081526020016040518060400160405280600781526020017f48756d626c65640000000000000000000000000000000000000000000000000081525081526020016040518060400160405280600781526020017f5765737465726e0000000000000000000000000000000000000000000000000081525081526020016040518060400160405280600581526020017f526f79616c00000000000000000000000000000000000000000000000000000081525081526020016040518060400160405280600581526020017f4861636b790000000000000000000000000000000000000000000000000000008152508152509050600060405180610180016040528060405180604001604052806007815260200166436c617373696360c81b81525081526020016040518060400160405280600781526020017f4379636c6f70730000000000000000000000000000000000000000000000000081525081526020016040518060400160405280600681526020017f41776f6b656e000000000000000000000000000000000000000000000000000081525081526020016040518060400160405280600681526020017f466c69727479000000000000000000000000000000000000000000000000000081525081526020016040518060400160405280600381526020017f5a656e000000000000000000000000000000000000000000000000000000000081525081526020016040518060400160405280600881526020017f536164686170707900000000000000000000000000000000000000000000000081525081526020016040518060400160405280600981526020017f556e616c69676e6564000000000000000000000000000000000000000000000081525081526020016040518060400160405280600781526020017f536d697474656e0000000000000000000000000000000000000000000000000081525081526020016040518060400160405280600a81526020017f4f7074696d69737469630000000000000000000000000000000000000000000081525081526020016040518060400160405280600581526020017f4861636b7900000000000000000000000000000000000000000000000000000081525081526020016040518060400160405280600581526020017f537570657200000000000000000000000000000000000000000000000000000081525081526020016040518060400160405280600781526020017f4e6f756e697368000000000000000000000000000000000000000000000000008152508152509050600060405180610160016040528060405180604001604052806007815260200166436c617373696360c81b81525081526020016040518060400160405280600a81526020017f486561767920447574790000000000000000000000000000000000000000000081525081526020016040518060400160405280600581526020017f466972657900000000000000000000000000000000000000000000000000000081525081526020016040518060400160405280600c81526020017f4c6974746c65204669726579000000000000000000000000000000000000000081525081526020016040518060400160405280600681526020017f526f6c6c6572000000000000000000000000000000000000000000000000000081525081526020016040518060400160405280600d81526020017f4c6974746c6520526f6c6c65720000000000000000000000000000000000000081525081526020016040518060400160405280600981526020017f456e65726765746963000000000000000000000000000000000000000000000081525081526020016040518060400160405280601081526020017f4c6974746c6520456e657267657469630000000000000000000000000000000081525081526020016040518060400160405280600781526020017f486f62626c65640000000000000000000000000000000000000000000000000081525081526020016040518060400160405280600781526020017f47686f73746c790000000000000000000000000000000000000000000000000081525081526020016040518060400160405280600581526020017f50757368790000000000000000000000000000000000000000000000000000008152508152509050600060405180604001604052806040518060400160405280600381526020017f4f6666000000000000000000000000000000000000000000000000000000000081525081526020016040518060400160405280600281526020017f4f6e0000000000000000000000000000000000000000000000000000000000008152508152509050600060405180610160016040528060405180604001604052806007815260200166436c617373696360c81b81525081526020016040518060400160405280600781526020017f576f72726965640000000000000000000000000000000000000000000000000081525081526020016040518060400160405280600881526020017f4b6e696768746c7900000000000000000000000000000000000000000000000081525081526020016040518060400160405280600381526020017f536879000000000000000000000000000000000000000000000000000000000081525081526020016040518060400160405280600581526020017f486170707900000000000000000000000000000000000000000000000000000081525081526020016040518060400160405280600681526020017f426967736164000000000000000000000000000000000000000000000000000081525081526020016040518060400160405280600481526020017f536d75670000000000000000000000000000000000000000000000000000000081525081526020016040518060400160405280600581526020017f576f77656400000000000000000000000000000000000000000000000000000081525081526020016040518060400160405280600781526020017f546869727374790000000000000000000000000000000000000000000000000081525081526020016040518060400160405280600a81526020017f56696c6c61696e6f75730000000000000000000000000000000000000000000081525081526020016040518060400160405280600581526020017f53686164790000000000000000000000000000000000000000000000000000008152508152509050838760058151811061140a5761140a611f64565b6020026020010151600c811061142257611422611f64565b6020020151838860088151811061143b5761143b611f64565b6020026020010151600b811061145357611453611f64565b6020020151838960098151811061146c5761146c611f64565b60200260200101516002811061148457611484611f64565b6020020151838a60068151811061149d5761149d611f64565b6020026020010151600b81106114b5576114b5611f64565b6020020151888b6007815181106114ce576114ce611f64565b6020026020010151600c81106114e6576114e6611f64565b60200201516040516020016114ff9594939291906120cd565b60405160208183030381529060405295505050505050919050565b6000546001600160a01b031633146115445760405162461bcd60e51b815260040161036f90611ccd565b6001600160a01b03811661156a5760405162461bcd60e51b815260040161036f9061223b565b611573816115f4565b50565b6000806115a18360405160200161158d91906122a7565b604051602081830303815290604052611651565b90508051602082016000f091506001600160a01b0382166115ee576040517f08d4abb600000000000000000000000000000000000000000000000000000000815260040160405180910390fd5b50919050565b600080546001600160a01b0383811673ffffffffffffffffffffffffffffffffffffffff19831681178455604051919092169283917f8be0079c531659141344cd1fd0a4f28419497f9722a3daafe3b4186f6b6457e09190a35050565b60608151826040516020016106889291906122ff565b634e487b7160e01b600052604160045260246000fd5b601f19601f830116810181811067ffffffffffffffff821117156116a3576116a3611667565b6040525050565b60006116b560405190565b90506116c1828261167d565b919050565b600067ffffffffffffffff8211156116e0576116e0611667565b601f19601f83011660200192915050565b82818337506000910152565b600061171061170b846116c6565b6116aa565b90508281526020810184848401111561172b5761172b600080fd5b6117368482856116f1565b509392505050565b600082601f83011261175257611752600080fd5b81356117628482602086016116fd565b949350505050565b60006020828403121561177f5761177f600080fd5b813567ffffffffffffffff81111561179957611799600080fd5b6117628482850161173e565b805b811461157357600080fd5b803561033f816117a5565b60ff81166117a7565b803561033f816117bd565b600080604083850312156117e7576117e7600080fd5b60006117f385856117b2565b9250506020611804858286016117c6565b9150509250929050565b60005b83811015611829578181015183820152602001611811565b83811115611838576000848401525b50505050565b6000611848825190565b80845260208401935061185f81856020860161180e565b601f01601f19169290920192915050565b60208082528101611881818461183e565b9392505050565b600067ffffffffffffffff8211156118a2576118a2611667565b5060209081020190565b60006118ba61170b84611888565b838152905060208082019084028301858111156118d9576118d9600080fd5b835b818110156118fb576118ed87826117b2565b8352602092830192016118db565b5050509392505050565b600082601f83011261191957611919600080fd5b81356117628482602086016118ac565b60006020828403121561193e5761193e600080fd5b813567ffffffffffffffff81111561195857611958600080fd5b61176284828501611905565b60006001600160a01b03821661033f565b61197e81611964565b82525050565b6020810161033f8284611975565b8061197e565b6119a28282611992565b5060200190565b60200190565b60006119b9825190565b808452602093840193830160005b828110156119ec5781516119db8782611998565b9650506020820191506001016119c7565b5093949350505050565b6020808252810161188181846119af565b6117a781611964565b803561033f81611a07565b600060208284031215611a3057611a30600080fd5b60006117628484611a10565b60408101611a4a8285611975565b6118816020830184611975565b6020810161033f8284611992565b6000611a7361170b846116c6565b905082815260208101848484011115611a8e57611a8e600080fd5b61173684828561180e565b600082601f830112611aad57611aad600080fd5b8151611762848260208601611a65565b600060208284031215611ad257611ad2600080fd5b815167ffffffffffffffff811115611aec57611aec600080fd5b61176284828501611a99565b6000611b02825190565b611b1081856020860161180e565b9290920192915050565b7f646174613a6170706c69636174696f6e2f6a736f6e2c000000000000000000008152601601611b69817f7b22696d616765223a20220000000000000000000000000000000000000000009052565b600b01611b768185611af8565b601160f91b81529050600101611bfb817f2c226465736372697074696f6e223a2022436f2d426f74732061726520636f6f81527f7065726174696f6e20726f626f7473207c2043433020262031303025204f6e2d60208201527f436861696e207c20636f2d626f74732e636f6d2e220000000000000000000000604082015260550190565b7f2c226e616d65223a2022436f2d426f742023000000000000000000000000000081529050601201611c2d8184611af8565b601160f91b81529050600101611c62817f2c2261747472696275746573223a2000000000000000000000000000000000009052565b600f01611c6f8183611af8565b7f7d000000000000000000000000000000000000000000000000000000000000008152600101949350505050565b60208082527f4f776e61626c653a2063616c6c6572206973206e6f7420746865206f776e657291019081526119a9565b6020808252810161033f81611c9d565b6000611ce7825190565b808452602093840193830160005b828110156119ec578151611d098782611998565b965050602082019150600101611cf5565b60408101611d288285611975565b81810360208301526117628184611cdd565b6000611d4861170b84611888565b83815290506020808201908402830185811115611d6757611d67600080fd5b835b818110156118fb57805167ffffffffffffffff811115611d8b57611d8b600080fd5b8501611d978882611a99565b84525060209283019201611d69565b600082601f830112611dba57611dba600080fd5b8151611762848260208601611d3a565b600060208284031215611ddf57611ddf600080fd5b815167ffffffffffffffff811115611df957611df9600080fd5b61176284828501611da6565b6000611881838361183e565b6000611e1b825190565b80845260208401935083602082028501611e358560200190565b60005b84811015611e695783830388528151611e518482611e05565b93505060208201602098909801979150600101611e38565b50909695505050505050565b60408082528101611e86818561183e565b905081810360208301526117628184611e11565b611ea48186611af8565b9050611eb08185611af8565b9050611ebc8184611af8565b9050611ec88183611af8565b95945050505050565b60ff811661197e565b60408101611ee88285611992565b6118816020830184611ed1565b805161033f816117a5565b60008060008060808587031215611f1957611f19600080fd5b6000611f258787611ef5565b9450506020611f3687828801611ef5565b9350506040611f4787828801611ef5565b9250506060611f5887828801611ef5565b91505092959194509250565b634e487b7160e01b600052603260045260246000fd5b634e487b7160e01b600052601260045260246000fd5b600082611f9f57611f9f611f7a565b500490565b815b9150600082611fb757611fb7611f7a565b500690565b60ff908116908216611fa6565b7f7b2274726169745f74797065223a202245796573222c202276616c7565223a208152601160f91b60208201525b60210190565b7f7b2274726169745f74797065223a202246656574222c202276616c7565223a208152601160f91b6020820152611ff7565b7f7b2274726169745f74797065223a20224d65747461222c202276616c7565223a81527f202200000000000000000000000000000000000000000000000000000000000060208201525b60220190565b7f7b2274726169745f74797065223a20224d6f757468222c202276616c7565223a81527f20220000000000000000000000000000000000000000000000000000000000006020820152612079565b7f5b0000000000000000000000000000000000000000000000000000000000000081526001016120fc81611fc9565b90506121088187611af8565b62089f4b60ea1b8152905060030161211f81611ffd565b905061212b8186611af8565b62089f4b60ea1b815290506003016121428161202f565b905061214e8185611af8565b62089f4b60ea1b815290506003016121658161207f565b90506121718184611af8565b62089f4b60ea1b815290506003016121d2817f7b2274726169745f74797065223a2022416e74656e6e61222c202276616c756581527f223a202200000000000000000000000000000000000000000000000000000000602082015260240190565b90506121de8183611af8565b7f227d0000000000000000000000000000000000000000000000000000000000008152905060020161222f817f5d000000000000000000000000000000000000000000000000000000000000009052565b60010195945050505050565b6020808252810161033f81602681527f4f776e61626c653a206e6577206f776e657220697320746865207a65726f206160208201527f6464726573730000000000000000000000000000000000000000000000000000604082015260600190565b600081525b60010190565b6122b08161229c565b905061033f8183611af8565b7f630000000000000000000000000000000000000000000000000000000000000081526122a1565b600061033f8260e01b90565b61197e63ffffffff82166122e4565b612308816122bc565b905061231481846122f0565b600401612344817f80600e6000396000f30000000000000000000000000000000000000000000000815260090190565b90506118818183611af856fea2646970667358221220ab21eb1a98571167d1e93b91b60c364eaf730680c062fd674e1f9da2343ef42664736f6c634300080c0033",
  "libraries": {
    "RendererCommons": "0x91F59E8d53061DD2F7C4a405984D9a4297C54A0C",
    "RectRenderer": "0x9D7FeA76a906A67DE351b657CD73E6bf8F04b840",
    "RectEncoder": "0xc8AD48942deb7BAa9B15665aa72656A259277eaF",
    "Array": "0x1FA6A2152871D5A4D1f56511110C9a353CA48339",
    "Integers": "0xFD60cDD345feB6011fDeb4Dc3d69aD2319f8508C"
  },
  "devdoc": {
    "kind": "dev",
    "methods": {
      "owner()": {
        "details": "Returns the address of the current owner."
      },
      "renounceOwnership()": {
        "details": "Leaves the contract without owner. It will not be possible to call `onlyOwner` functions anymore. Can only be called by the current owner. NOTE: Renouncing ownership will leave the contract without an owner, thereby removing any functionality that is only available to the owner."
      },
      "transferOwnership(address)": {
        "details": "Transfers ownership of the contract to a new account (`newOwner`). Can only be called by the current owner."
      }
    },
    "version": 1
  },
  "userdoc": {
    "kind": "user",
    "methods": {},
    "version": 1
  },
  "storageLayout": {
    "storage": [
      {
        "astId": 5974,
        "contract": "contracts/co-bots/CoBotsRendererV2.sol:CoBotsRendererV2",
        "label": "_owner",
        "offset": 0,
        "slot": "0",
        "type": "t_address"
      },
      {
        "astId": 6082,
        "contract": "contracts/co-bots/CoBotsRendererV2.sol:CoBotsRendererV2",
        "label": "_status",
        "offset": 0,
        "slot": "1",
        "type": "t_uint256"
      },
      {
        "astId": 9640,
        "contract": "contracts/co-bots/CoBotsRendererV2.sol:CoBotsRendererV2",
        "label": "palettePointer",
        "offset": 0,
        "slot": "2",
        "type": "t_address"
      },
      {
        "astId": 9642,
        "contract": "contracts/co-bots/CoBotsRendererV2.sol:CoBotsRendererV2",
        "label": "collectionPointer",
        "offset": 0,
        "slot": "3",
        "type": "t_address"
      },
      {
        "astId": 9645,
        "contract": "contracts/co-bots/CoBotsRendererV2.sol:CoBotsRendererV2",
        "label": "coBotsRenderer",
        "offset": 0,
        "slot": "4",
        "type": "t_contract(ICoBotsRenderer)11552"
      }
    ],
    "types": {
      "t_address": {
        "encoding": "inplace",
        "label": "address",
        "numberOfBytes": "20"
      },
      "t_contract(ICoBotsRenderer)11552": {
        "encoding": "inplace",
        "label": "contract ICoBotsRenderer",
        "numberOfBytes": "20"
      },
      "t_uint256": {
        "encoding": "inplace",
        "label": "uint256",
        "numberOfBytes": "32"
      }
    }
  }
}