{
  "address": "0x541718E5BCBAA764016D3167fF6875Bb7F52B832",
  "abi": [
    {
      "inputs": [
        {
          "internalType": "address",
          "name": "_coBotsRenderer",
          "type": "address"
        }
      ],
      "stateMutability": "nonpayable",
      "type": "constructor"
    },
    {
      "inputs": [],
      "name": "WriteError",
      "type": "error"
    },
    {
      "anonymous": false,
      "inputs": [
        {
          "indexed": false,
          "internalType": "address",
          "name": "prevPointer",
          "type": "address"
        },
        {
          "indexed": false,
          "internalType": "address",
          "name": "newPointer",
          "type": "address"
        }
      ],
      "name": "CollectionChanged",
      "type": "event"
    },
    {
      "anonymous": false,
      "inputs": [
        {
          "indexed": false,
          "internalType": "address",
          "name": "prevPointer",
          "type": "address"
        },
        {
          "indexed": false,
          "internalType": "address",
          "name": "newPointer",
          "type": "address"
        }
      ],
      "name": "ColorPaletteChanged",
      "type": "event"
    },
    {
      "anonymous": false,
      "inputs": [
        {
          "indexed": true,
          "internalType": "address",
          "name": "previousOwner",
          "type": "address"
        },
        {
          "indexed": true,
          "internalType": "address",
          "name": "newOwner",
          "type": "address"
        }
      ],
      "name": "OwnershipTransferred",
      "type": "event"
    },
    {
      "inputs": [
        {
          "internalType": "uint256",
          "name": "tokenId",
          "type": "uint256"
        },
        {
          "internalType": "uint8",
          "name": "seed",
          "type": "uint8"
        }
      ],
      "name": "getCoBotItems",
      "outputs": [
        {
          "internalType": "uint256[]",
          "name": "",
          "type": "uint256[]"
        }
      ],
      "stateMutability": "view",
      "type": "function"
    },
    {
      "inputs": [
        {
          "internalType": "uint256[]",
          "name": "items",
          "type": "uint256[]"
        }
      ],
      "name": "imageURI",
      "outputs": [
        {
          "internalType": "string",
          "name": "",
          "type": "string"
        }
      ],
      "stateMutability": "view",
      "type": "function"
    },
    {
      "inputs": [],
      "name": "owner",
      "outputs": [
        {
          "internalType": "address",
          "name": "",
          "type": "address"
        }
      ],
      "stateMutability": "view",
      "type": "function"
    },
    {
      "inputs": [],
      "name": "renounceOwnership",
      "outputs": [],
      "stateMutability": "nonpayable",
      "type": "function"
    },
    {
      "inputs": [
        {
          "internalType": "bytes",
          "name": "traits",
          "type": "bytes"
        }
      ],
      "name": "storeCollection",
      "outputs": [],
      "stateMutability": "nonpayable",
      "type": "function"
    },
    {
      "inputs": [
        {
          "internalType": "bytes",
          "name": "palette",
          "type": "bytes"
        }
      ],
      "name": "storePalette",
      "outputs": [],
      "stateMutability": "nonpayable",
      "type": "function"
    },
    {
      "inputs": [
        {
          "internalType": "uint256",
          "name": "tokenId",
          "type": "uint256"
        },
        {
          "internalType": "uint8",
          "name": "seed",
          "type": "uint8"
        }
      ],
      "name": "tokenData",
      "outputs": [
        {
          "components": [
            {
              "internalType": "string",
              "name": "image",
              "type": "string"
            },
            {
              "internalType": "string",
              "name": "description",
              "type": "string"
            },
            {
              "internalType": "string",
              "name": "name",
              "type": "string"
            },
            {
              "components": [
                {
                  "internalType": "string",
                  "name": "trait_type",
                  "type": "string"
                },
                {
                  "internalType": "string",
                  "name": "value",
                  "type": "string"
                }
              ],
              "internalType": "struct Attribute[]",
              "name": "attributes",
              "type": "tuple[]"
            }
          ],
          "internalType": "struct TokenData",
          "name": "",
          "type": "tuple"
        }
      ],
      "stateMutability": "view",
      "type": "function"
    },
    {
      "inputs": [
        {
          "internalType": "uint256",
          "name": "tokenId",
          "type": "uint256"
        },
        {
          "internalType": "uint8",
          "name": "seed",
          "type": "uint8"
        }
      ],
      "name": "tokenURI",
      "outputs": [
        {
          "internalType": "string",
          "name": "",
          "type": "string"
        }
      ],
      "stateMutability": "view",
      "type": "function"
    },
    {
      "inputs": [
        {
          "internalType": "address",
          "name": "newOwner",
          "type": "address"
        }
      ],
      "name": "transferOwnership",
      "outputs": [],
      "stateMutability": "nonpayable",
      "type": "function"
    }
  ],
  "transactionHash": "0x8589ea70ec55df8f1d083f71cca936936de6eade19c56e057aefd92b82b50d75",
  "args": [
    "0xAB23145aC706A2454cCAD3ED7c76569CAf3D3fAD"
  ],
  "numDeployments": 7,
  "solcInputHash": "a9313f4639a9f048ba2c4b6f449a6e5d",
  "bytecode": "0x60806040523480156200001157600080fd5b5060405162002998380380620029988339810160408190526200003491620000f3565b6200003f3362000069565b60018055600480546001600160a01b0319166001600160a01b039290921691909117905562000120565b600080546001600160a01b038381166001600160a01b0319831681178455604051919092169283917f8be0079c531659141344cd1fd0a4f28419497f9722a3daafe3b4186f6b6457e09190a35050565b60006001600160a01b0382165b92915050565b620000d781620000b9565b8114620000e357600080fd5b50565b8051620000c681620000cc565b6000602082840312156200010a576200010a600080fd5b6000620001188484620000e6565b949350505050565b61286880620001306000396000f3fe608060405234801561001057600080fd5b50600436106100a35760003560e01c8063715018a6116100765780638da5cb5b1161005b5780638da5cb5b14610134578063e50fe81e1461014d578063f2fde38b1461016d57600080fd5b8063715018a61461011957806388d4c6cf1461012157600080fd5b80633cc54c23146100a857806344ec3631146100bd5780634f31249b146100e65780635cc518ba146100f9575b600080fd5b6100bb6100b6366004611be3565b610180565b005b6100d06100cb366004611c4a565b6101fe565b6040516100dd9190611e07565b60405180910390f35b6100bb6100f4366004611be3565b611197565b61010c610107366004611c4a565b611209565b6040516100dd9190611e18565b6100bb6113e1565b61010c61012f366004611eca565b611420565b6000546001600160a01b03166040516100dd9190611f25565b61016061015b366004611c4a565b61173a565b6040516100dd9190611f91565b6100bb61017b366004611fb6565b611993565b6003546001600160a01b0316610195826119ef565b6003805473ffffffffffffffffffffffffffffffffffffffff19166001600160a01b039290921691821790556040517f2b6ca4cbda96534ab1e865e0e9686ed13f63f1ad6e54185bde7686f0ed726a5e916101f291849190611fd7565b60405180910390a15050565b6102296040518060800160405280606081526020016060815260200160608152602001606081525090565b6000610235848461173a565b9050600060405180610180016040528060405180604001604052806007815260200166436c617373696360c81b81525081526020016040518060400160405280600781526020017f536572696f75730000000000000000000000000000000000000000000000000081525081526020016040518060400160405280600581526020017f4a756d707900000000000000000000000000000000000000000000000000000081525081526020016040518060400160405280600681526020017f42757a7a6564000000000000000000000000000000000000000000000000000081525081526020016040518060400160405280600581526020017f427567677900000000000000000000000000000000000000000000000000000081525081526020016040518060400160405280600481526020017f50756e6b0000000000000000000000000000000000000000000000000000000081525081526020016040518060400160405280600781526020017f416e67656c69630000000000000000000000000000000000000000000000000081525081526020016040518060400160405280600681526020017f496d70697368000000000000000000000000000000000000000000000000000081525081526020016040518060400160405280600781526020017f48756d626c65640000000000000000000000000000000000000000000000000081525081526020016040518060400160405280600781526020017f5765737465726e0000000000000000000000000000000000000000000000000081525081526020016040518060400160405280600581526020017f526f79616c00000000000000000000000000000000000000000000000000000081525081526020016040518060400160405280600581526020017f4861636b790000000000000000000000000000000000000000000000000000008152508152509050600060405180610180016040528060405180604001604052806007815260200166436c617373696360c81b81525081526020016040518060400160405280600781526020017f4379636c6f70730000000000000000000000000000000000000000000000000081525081526020016040518060400160405280600681526020017f41776f6b656e000000000000000000000000000000000000000000000000000081525081526020016040518060400160405280600681526020017f466c69727479000000000000000000000000000000000000000000000000000081525081526020016040518060400160405280600381526020017f5a656e000000000000000000000000000000000000000000000000000000000081525081526020016040518060400160405280600881526020017f536164686170707900000000000000000000000000000000000000000000000081525081526020016040518060400160405280600981526020017f556e616c69676e6564000000000000000000000000000000000000000000000081525081526020016040518060400160405280600781526020017f536d697474656e0000000000000000000000000000000000000000000000000081525081526020016040518060400160405280600a81526020017f4f7074696d69737469630000000000000000000000000000000000000000000081525081526020016040518060400160405280600581526020017f4861636b7900000000000000000000000000000000000000000000000000000081525081526020016040518060400160405280600581526020017f537570657200000000000000000000000000000000000000000000000000000081525081526020016040518060400160405280600781526020017f4e6f756e697368000000000000000000000000000000000000000000000000008152508152509050600060405180610160016040528060405180604001604052806007815260200166436c617373696360c81b81525081526020016040518060400160405280600a81526020017f486561767920447574790000000000000000000000000000000000000000000081525081526020016040518060400160405280600581526020017f466972657900000000000000000000000000000000000000000000000000000081525081526020016040518060400160405280600c81526020017f4c6974746c65204669726579000000000000000000000000000000000000000081525081526020016040518060400160405280600681526020017f526f6c6c6572000000000000000000000000000000000000000000000000000081525081526020016040518060400160405280600d81526020017f4c6974746c6520526f6c6c65720000000000000000000000000000000000000081525081526020016040518060400160405280600981526020017f456e65726765746963000000000000000000000000000000000000000000000081525081526020016040518060400160405280601081526020017f4c6974746c6520456e657267657469630000000000000000000000000000000081525081526020016040518060400160405280600781526020017f486f62626c65640000000000000000000000000000000000000000000000000081525081526020016040518060400160405280600781526020017f47686f73746c790000000000000000000000000000000000000000000000000081525081526020016040518060400160405280600581526020017f50757368790000000000000000000000000000000000000000000000000000008152508152509050600060405180604001604052806040518060400160405280600381526020017f4f6666000000000000000000000000000000000000000000000000000000000081525081526020016040518060400160405280600281526020017f4f6e0000000000000000000000000000000000000000000000000000000000008152508152509050600060405180610160016040528060405180604001604052806007815260200166436c617373696360c81b81525081526020016040518060400160405280600781526020017f576f72726965640000000000000000000000000000000000000000000000000081525081526020016040518060400160405280600881526020017f4b6e696768746c7900000000000000000000000000000000000000000000000081525081526020016040518060400160405280600381526020017f536879000000000000000000000000000000000000000000000000000000000081525081526020016040518060400160405280600581526020017f486170707900000000000000000000000000000000000000000000000000000081525081526020016040518060400160405280600681526020017f426967736164000000000000000000000000000000000000000000000000000081525081526020016040518060400160405280600481526020017f536d75670000000000000000000000000000000000000000000000000000000081525081526020016040518060400160405280600581526020017f576f77656400000000000000000000000000000000000000000000000000000081525081526020016040518060400160405280600781526020017f546869727374790000000000000000000000000000000000000000000000000081525081526020016040518060400160405280600a81526020017f56696c6c61696e6f75730000000000000000000000000000000000000000000081525081526020016040518060400160405280600581526020017f536861647900000000000000000000000000000000000000000000000000000081525081525090506000600567ffffffffffffffff811115610d5057610d50611ae0565b604051908082528060200260200182016040528015610d9557816020015b6040805180820190915260608082526020820152815260200190600190039081610d6e5790505b50905060405180604001604052806040518060400160405280600781526020017f416e74656e6e610000000000000000000000000000000000000000000000000081525081526020018789600781518110610df257610df2611ff2565b6020026020010151600c8110610e0a57610e0a611ff2565b602002015181525081600081518110610e2557610e25611ff2565b602002602001018190525060405180604001604052806040518060400160405280600481526020017f457965730000000000000000000000000000000000000000000000000000000081525081526020018689600581518110610e8a57610e8a611ff2565b6020026020010151600c8110610ea257610ea2611ff2565b602002015181525081600181518110610ebd57610ebd611ff2565b602002602001018190525060405180604001604052806040518060400160405280600481526020017f466565740000000000000000000000000000000000000000000000000000000081525081526020018589600881518110610f2257610f22611ff2565b6020026020010151600b8110610f3a57610f3a611ff2565b602002015181525081600281518110610f5557610f55611ff2565b602002602001018190525060405180604001604052806040518060400160405280600581526020017f4d6574746100000000000000000000000000000000000000000000000000000081525081526020018489600981518110610fba57610fba611ff2565b602002602001015160028110610fd257610fd2611ff2565b602002015181525081600381518110610fed57610fed611ff2565b602002602001018190525060405180604001604052806040518060400160405280600581526020017f4d6f7574680000000000000000000000000000000000000000000000000000008152508152602001838960068151811061105257611052611ff2565b6020026020010151600b811061106a5761106a611ff2565b60200201518152508160048151811061108557611085611ff2565b602002602001018190525060405180608001604052806110a489611420565b81526020016040518060800160405280604381526020016127f06043913981526040517f6900a3ae00000000000000000000000000000000000000000000000000000000815260209091019073FD60cDD345feB6011fDeb4Dc3d69aD2319f8508C90636900a3ae9061111a908f90600401612008565b600060405180830381865af4158015611137573d6000803e3d6000fd5b505050506040513d6000823e601f3d908101601f1916820160405261115f919081019061206e565b60405160200161116f91906120cb565b6040516020818303038152906040528152602001828152509750505050505050505b92915050565b6002546001600160a01b03166111ac826119ef565b6002805473ffffffffffffffffffffffffffffffffffffffff19166001600160a01b039290921691821790556040517f7376cd5cdde023cd48fdd9dd3023f01d63441ac9d6b9b52e3b750f0c3dc25267916101f291849190611fd7565b6060600061121784846101fe565b9050600081606001515167ffffffffffffffff81111561123957611239611ae0565b60405190808252806020026020018201604052801561126c57816020015b60608152602001906001900390816112575790505b50905060005b826060015151811015611313578260600151818151811061129557611295611ff2565b602002602001015160000151836060015182815181106112b7576112b7611ff2565b6020026020010151602001516040516020016112d49291906120fb565b6040516020818303038152906040528282815181106112f5576112f5611ff2565b6020026020010181905250808061130b906121a0565b915050611272565b508151602083015160408085015190517ffca1c0b9000000000000000000000000000000000000000000000000000000008152731FA6A2152871D5A4D1f56511110C9a353CA483399063fca1c0b99061137090879060040161226f565b600060405180830381865af415801561138d573d6000803e3d6000fd5b505050506040513d6000823e601f3d908101601f191682016040526113b5919081019061206e565b6040516020016113c89493929190612293565b6040516020818303038152906040529250505092915050565b6000546001600160a01b031633146114145760405162461bcd60e51b815260040161140b9061246d565b60405180910390fd5b61141e6000611a6d565b565b604080518082018252601381527f646174613a696d6167652f7376672b786d6c2c0000000000000000000000000060208201526004805483517f480bc3c800000000000000000000000000000000000000000000000000000000815293516060946001600160a01b039092169263480bc3c8928082019260009290918290030181865afa1580156114b5573d6000803e3d6000fd5b505050506040513d6000823e601f3d908101601f191682016040526114dd919081019061206e565b6003546040517ff3ab4be7000000000000000000000000000000000000000000000000000000008152739D7FeA76a906A67DE351b657CD73E6bf8F04b8409163999086e391839163f3ab4be791611542916001600160a01b0316908a906004016124ba565b600060405180830381865af415801561155f573d6000803e3d6000fd5b505050506040513d6000823e601f3d908101601f19168201604052611587919081019061206e565b6002546040517f657fb2e10000000000000000000000000000000000000000000000000000000081527391F59E8d53061DD2F7C4a405984D9a4297C54A0C9163657fb2e1916115e2916001600160a01b031690600401611f25565b600060405180830381865af41580156115ff573d6000803e3d6000fd5b505050506040513d6000823e601f3d908101601f19168201604052611627919081019061256a565b6040518363ffffffff1660e01b81526004016116449291906125a5565b600060405180830381865af4158015611661573d6000803e3d6000fd5b505050506040513d6000823e601f3d908101601f19168201604052611689919081019061206e565b60048054604080517f6f5c723b00000000000000000000000000000000000000000000000000000000815290516001600160a01b0390921692636f5c723b9282820192600092908290030181865afa1580156116e9573d6000803e3d6000fd5b505050506040513d6000823e601f3d908101601f19168201604052611711919081019061206e565b60405160200161172494939291906125ca565b6040516020818303038152906040529050919050565b600480546040517f47bf48f30000000000000000000000000000000000000000000000000000000081526060926000928392839283926001600160a01b0316916347bf48f39161178e918b918b9101612601565b608060405180830381865afa1580156117ab573d6000803e3d6000fd5b505050506040513d601f19601f820116820180604052508101906117cf9190612627565b60408051600a8082526101608201909252949850929650909450925060009190602082016101408036833701905050905060008160008151811061181557611815611ff2565b602090810291909101015261182c6103e8896126a1565b8160018151811061183f5761183f611ff2565b6020908102919091010152600a61185760648a6126a1565b61186191906126b5565b8160028151811061187457611874611ff2565b6020908102919091010152600a61188b818a6126a1565b61189591906126b5565b816003815181106118a8576118a8611ff2565b60209081029190910101526118be600a896126b5565b816004815181106118d1576118d1611ff2565b60200260200101818152505084816005815181106118f1576118f1611ff2565b602002602001018181525050838160068151811061191157611911611ff2565b602002602001018181525050828160078151811061193157611931611ff2565b602002602001018181525050818160088151811061195157611951611ff2565b60209081029190910101526119676002886126cd565b60ff168160098151811061197d5761197d611ff2565b6020908102919091010152979650505050505050565b6000546001600160a01b031633146119bd5760405162461bcd60e51b815260040161140b9061246d565b6001600160a01b0381166119e35760405162461bcd60e51b815260040161140b906126da565b6119ec81611a6d565b50565b600080611a1a83604051602001611a069190612746565b604051602081830303815290604052611aca565b90508051602082016000f091506001600160a01b038216611a67576040517f08d4abb600000000000000000000000000000000000000000000000000000000815260040160405180910390fd5b50919050565b600080546001600160a01b0383811673ffffffffffffffffffffffffffffffffffffffff19831681178455604051919092169283917f8be0079c531659141344cd1fd0a4f28419497f9722a3daafe3b4186f6b6457e09190a35050565b606081518260405160200161172492919061279e565b634e487b7160e01b600052604160045260246000fd5b601f19601f830116810181811067ffffffffffffffff82111715611b1c57611b1c611ae0565b6040525050565b6000611b2e60405190565b9050611b3a8282611af6565b919050565b600067ffffffffffffffff821115611b5957611b59611ae0565b601f19601f83011660200192915050565b82818337506000910152565b6000611b89611b8484611b3f565b611b23565b905082815260208101848484011115611ba457611ba4600080fd5b611baf848285611b6a565b509392505050565b600082601f830112611bcb57611bcb600080fd5b8135611bdb848260208601611b76565b949350505050565b600060208284031215611bf857611bf8600080fd5b813567ffffffffffffffff811115611c1257611c12600080fd5b611bdb84828501611bb7565b805b81146119ec57600080fd5b803561119181611c1e565b60ff8116611c20565b803561119181611c36565b60008060408385031215611c6057611c60600080fd5b6000611c6c8585611c2b565b9250506020611c7d85828601611c3f565b9150509250929050565b60005b83811015611ca2578181015183820152602001611c8a565b83811115611cb1576000848401525b50505050565b6000611cc1825190565b808452602084019350611cd8818560208601611c87565b601f01601f19169290920192915050565b8051604080845260009190840190611d018282611cb7565b91505060208301518482036020860152611d1b8282611cb7565b95945050505050565b6000611d308383611ce9565b9392505050565b60200190565b6000611d47825190565b80845260208401935083602082028501611d618560200190565b60005b84811015611d955783830388528151611d7d8482611d24565b93505060208201602098909801979150600101611d64565b50909695505050505050565b8051608080845260009190840190611db98282611cb7565b91505060208301518482036020860152611dd38282611cb7565b91505060408301518482036040860152611ded8282611cb7565b91505060608301518482036060860152611d1b8282611d3d565b60208082528101611d308184611da1565b60208082528101611d308184611cb7565b600067ffffffffffffffff821115611e4357611e43611ae0565b5060209081020190565b6000611e5b611b8484611e29565b83815290506020808201908402830185811115611e7a57611e7a600080fd5b835b81811015611e9c57611e8e8782611c2b565b835260209283019201611e7c565b5050509392505050565b600082601f830112611eba57611eba600080fd5b8135611bdb848260208601611e4d565b600060208284031215611edf57611edf600080fd5b813567ffffffffffffffff811115611ef957611ef9600080fd5b611bdb84828501611ea6565b60006001600160a01b038216611191565b611f1f81611f05565b82525050565b602081016111918284611f16565b80611f1f565b611f438282611f33565b5060200190565b6000611f54825190565b808452602093840193830160005b82811015611f87578151611f768782611f39565b965050602082019150600101611f62565b5093949350505050565b60208082528101611d308184611f4a565b611c2081611f05565b803561119181611fa2565b600060208284031215611fcb57611fcb600080fd5b6000611bdb8484611fab565b60408101611fe58285611f16565b611d306020830184611f16565b634e487b7160e01b600052603260045260246000fd5b602081016111918284611f33565b6000612024611b8484611b3f565b90508281526020810184848401111561203f5761203f600080fd5b611baf848285611c87565b600082601f83011261205e5761205e600080fd5b8151611bdb848260208601612016565b60006020828403121561208357612083600080fd5b815167ffffffffffffffff81111561209d5761209d600080fd5b611bdb8482850161204a565b60006120b3825190565b6120c1818560208601611c87565b9290920192915050565b7f436f2d426f742023000000000000000000000000000000000000000000000000815260080161119181836120a9565b7f7b2274726169745f74797065223a202200000000000000000000000000000000815260100161212b81846120a9565b7f222c202276616c7565223a20220000000000000000000000000000000000000081529050600d0161215d81836120a9565b7f227d00000000000000000000000000000000000000000000000000000000000081526002019392505050565b634e487b7160e01b600052601160045260246000fd5b60007fffffffffffffffffffffffffffffffffffffffffffffffffffffffffffffffff8214156121d2576121d261218a565b5060010190565b6000611d308383611cb7565b60006121ef825190565b808452602084019350836020820285016122098560200190565b60005b84811015611d95578383038852815161222584826121d9565b9350506020820160209890980197915060010161220c565b60018152602081017f2c0000000000000000000000000000000000000000000000000000000000000081529050611d37565b6040808252810161228081846121e5565b90508181036020830152611d308161223d565b7f646174613a6170706c69636174696f6e2f6a736f6e2c0000000000000000000081526016016122e2817f7b22696d616765223a20220000000000000000000000000000000000000000009052565b600b016122ef81866120a9565b601160f91b81529050600101612324817f2c226465736372697074696f6e223a20220000000000000000000000000000009052565b60110161233181856120a9565b601160f91b81529050600101612366817f2c226e616d65223a2022000000000000000000000000000000000000000000009052565b600a0161237381846120a9565b601160f91b815290506001016123a8817f2c2261747472696275746573223a2000000000000000000000000000000000009052565b600f016123d4817f5b000000000000000000000000000000000000000000000000000000000000009052565b6001016123e181836120a9565b7f5d0000000000000000000000000000000000000000000000000000000000000081529050600101612432817f7d000000000000000000000000000000000000000000000000000000000000009052565b600101949350505050565b60208082527f4f776e61626c653a2063616c6c6572206973206e6f7420746865206f776e65729101908152611d37565b602080825281016111918161243d565b6000612487825190565b808452602093840193830160005b82811015611f875781516124a98782611f39565b965050602082019150600101612495565b604081016124c88285611f16565b8181036020830152611bdb818461247d565b60006124e8611b8484611e29565b8381529050602080820190840283018581111561250757612507600080fd5b835b81811015611e9c57805167ffffffffffffffff81111561252b5761252b600080fd5b8501612537888261204a565b84525060209283019201612509565b600082601f83011261255a5761255a600080fd5b8151611bdb8482602086016124da565b60006020828403121561257f5761257f600080fd5b815167ffffffffffffffff81111561259957612599600080fd5b611bdb84828501612546565b604080825281016125b68185611cb7565b90508181036020830152611bdb81846121e5565b6125d481866120a9565b90506125e081856120a9565b90506125ec81846120a9565b9050611d1b81836120a9565b60ff8116611f1f565b6040810161260f8285611f33565b611d3060208301846125f8565b805161119181611c1e565b6000806000806080858703121561264057612640600080fd5b600061264c878761261c565b945050602061265d8782880161261c565b935050604061266e8782880161261c565b925050606061267f8782880161261c565b91505092959194509250565b634e487b7160e01b600052601260045260246000fd5b6000826126b0576126b061268b565b500490565b815b91506000826126c8576126c861268b565b500690565b60ff9081169082166126b7565b6020808252810161119181602681527f4f776e61626c653a206e6577206f776e657220697320746865207a65726f206160208201527f6464726573730000000000000000000000000000000000000000000000000000604082015260600190565b600081525b60010190565b61274f8161273b565b905061119181836120a9565b7f63000000000000000000000000000000000000000000000000000000000000008152612740565b60006111918260e01b90565b611f1f63ffffffff8216612783565b6127a78161275b565b90506127b3818461278f565b6004016127e3817f80600e6000396000f30000000000000000000000000000000000000000000000815260090190565b9050611d3081836120a956fe436f2d426f74732061726520636f6f7065726174696f6e20726f626f7473207c2043433020262031303025204f6e2d436861696e207c20636f2d626f74732e636f6d2ea26469706673582212200cb9ca0d3ea9407bbc7c9ea2b19ce56924eb85d807fce7e70b3948a58ffe40fa64736f6c634300080c0033",
  "deployedBytecode": "0x608060405234801561001057600080fd5b50600436106100a35760003560e01c8063715018a6116100765780638da5cb5b1161005b5780638da5cb5b14610134578063e50fe81e1461014d578063f2fde38b1461016d57600080fd5b8063715018a61461011957806388d4c6cf1461012157600080fd5b80633cc54c23146100a857806344ec3631146100bd5780634f31249b146100e65780635cc518ba146100f9575b600080fd5b6100bb6100b6366004611be3565b610180565b005b6100d06100cb366004611c4a565b6101fe565b6040516100dd9190611e07565b60405180910390f35b6100bb6100f4366004611be3565b611197565b61010c610107366004611c4a565b611209565b6040516100dd9190611e18565b6100bb6113e1565b61010c61012f366004611eca565b611420565b6000546001600160a01b03166040516100dd9190611f25565b61016061015b366004611c4a565b61173a565b6040516100dd9190611f91565b6100bb61017b366004611fb6565b611993565b6003546001600160a01b0316610195826119ef565b6003805473ffffffffffffffffffffffffffffffffffffffff19166001600160a01b039290921691821790556040517f2b6ca4cbda96534ab1e865e0e9686ed13f63f1ad6e54185bde7686f0ed726a5e916101f291849190611fd7565b60405180910390a15050565b6102296040518060800160405280606081526020016060815260200160608152602001606081525090565b6000610235848461173a565b9050600060405180610180016040528060405180604001604052806007815260200166436c617373696360c81b81525081526020016040518060400160405280600781526020017f536572696f75730000000000000000000000000000000000000000000000000081525081526020016040518060400160405280600581526020017f4a756d707900000000000000000000000000000000000000000000000000000081525081526020016040518060400160405280600681526020017f42757a7a6564000000000000000000000000000000000000000000000000000081525081526020016040518060400160405280600581526020017f427567677900000000000000000000000000000000000000000000000000000081525081526020016040518060400160405280600481526020017f50756e6b0000000000000000000000000000000000000000000000000000000081525081526020016040518060400160405280600781526020017f416e67656c69630000000000000000000000000000000000000000000000000081525081526020016040518060400160405280600681526020017f496d70697368000000000000000000000000000000000000000000000000000081525081526020016040518060400160405280600781526020017f48756d626c65640000000000000000000000000000000000000000000000000081525081526020016040518060400160405280600781526020017f5765737465726e0000000000000000000000000000000000000000000000000081525081526020016040518060400160405280600581526020017f526f79616c00000000000000000000000000000000000000000000000000000081525081526020016040518060400160405280600581526020017f4861636b790000000000000000000000000000000000000000000000000000008152508152509050600060405180610180016040528060405180604001604052806007815260200166436c617373696360c81b81525081526020016040518060400160405280600781526020017f4379636c6f70730000000000000000000000000000000000000000000000000081525081526020016040518060400160405280600681526020017f41776f6b656e000000000000000000000000000000000000000000000000000081525081526020016040518060400160405280600681526020017f466c69727479000000000000000000000000000000000000000000000000000081525081526020016040518060400160405280600381526020017f5a656e000000000000000000000000000000000000000000000000000000000081525081526020016040518060400160405280600881526020017f536164686170707900000000000000000000000000000000000000000000000081525081526020016040518060400160405280600981526020017f556e616c69676e6564000000000000000000000000000000000000000000000081525081526020016040518060400160405280600781526020017f536d697474656e0000000000000000000000000000000000000000000000000081525081526020016040518060400160405280600a81526020017f4f7074696d69737469630000000000000000000000000000000000000000000081525081526020016040518060400160405280600581526020017f4861636b7900000000000000000000000000000000000000000000000000000081525081526020016040518060400160405280600581526020017f537570657200000000000000000000000000000000000000000000000000000081525081526020016040518060400160405280600781526020017f4e6f756e697368000000000000000000000000000000000000000000000000008152508152509050600060405180610160016040528060405180604001604052806007815260200166436c617373696360c81b81525081526020016040518060400160405280600a81526020017f486561767920447574790000000000000000000000000000000000000000000081525081526020016040518060400160405280600581526020017f466972657900000000000000000000000000000000000000000000000000000081525081526020016040518060400160405280600c81526020017f4c6974746c65204669726579000000000000000000000000000000000000000081525081526020016040518060400160405280600681526020017f526f6c6c6572000000000000000000000000000000000000000000000000000081525081526020016040518060400160405280600d81526020017f4c6974746c6520526f6c6c65720000000000000000000000000000000000000081525081526020016040518060400160405280600981526020017f456e65726765746963000000000000000000000000000000000000000000000081525081526020016040518060400160405280601081526020017f4c6974746c6520456e657267657469630000000000000000000000000000000081525081526020016040518060400160405280600781526020017f486f62626c65640000000000000000000000000000000000000000000000000081525081526020016040518060400160405280600781526020017f47686f73746c790000000000000000000000000000000000000000000000000081525081526020016040518060400160405280600581526020017f50757368790000000000000000000000000000000000000000000000000000008152508152509050600060405180604001604052806040518060400160405280600381526020017f4f6666000000000000000000000000000000000000000000000000000000000081525081526020016040518060400160405280600281526020017f4f6e0000000000000000000000000000000000000000000000000000000000008152508152509050600060405180610160016040528060405180604001604052806007815260200166436c617373696360c81b81525081526020016040518060400160405280600781526020017f576f72726965640000000000000000000000000000000000000000000000000081525081526020016040518060400160405280600881526020017f4b6e696768746c7900000000000000000000000000000000000000000000000081525081526020016040518060400160405280600381526020017f536879000000000000000000000000000000000000000000000000000000000081525081526020016040518060400160405280600581526020017f486170707900000000000000000000000000000000000000000000000000000081525081526020016040518060400160405280600681526020017f426967736164000000000000000000000000000000000000000000000000000081525081526020016040518060400160405280600481526020017f536d75670000000000000000000000000000000000000000000000000000000081525081526020016040518060400160405280600581526020017f576f77656400000000000000000000000000000000000000000000000000000081525081526020016040518060400160405280600781526020017f546869727374790000000000000000000000000000000000000000000000000081525081526020016040518060400160405280600a81526020017f56696c6c61696e6f75730000000000000000000000000000000000000000000081525081526020016040518060400160405280600581526020017f536861647900000000000000000000000000000000000000000000000000000081525081525090506000600567ffffffffffffffff811115610d5057610d50611ae0565b604051908082528060200260200182016040528015610d9557816020015b6040805180820190915260608082526020820152815260200190600190039081610d6e5790505b50905060405180604001604052806040518060400160405280600781526020017f416e74656e6e610000000000000000000000000000000000000000000000000081525081526020018789600781518110610df257610df2611ff2565b6020026020010151600c8110610e0a57610e0a611ff2565b602002015181525081600081518110610e2557610e25611ff2565b602002602001018190525060405180604001604052806040518060400160405280600481526020017f457965730000000000000000000000000000000000000000000000000000000081525081526020018689600581518110610e8a57610e8a611ff2565b6020026020010151600c8110610ea257610ea2611ff2565b602002015181525081600181518110610ebd57610ebd611ff2565b602002602001018190525060405180604001604052806040518060400160405280600481526020017f466565740000000000000000000000000000000000000000000000000000000081525081526020018589600881518110610f2257610f22611ff2565b6020026020010151600b8110610f3a57610f3a611ff2565b602002015181525081600281518110610f5557610f55611ff2565b602002602001018190525060405180604001604052806040518060400160405280600581526020017f4d6574746100000000000000000000000000000000000000000000000000000081525081526020018489600981518110610fba57610fba611ff2565b602002602001015160028110610fd257610fd2611ff2565b602002015181525081600381518110610fed57610fed611ff2565b602002602001018190525060405180604001604052806040518060400160405280600581526020017f4d6f7574680000000000000000000000000000000000000000000000000000008152508152602001838960068151811061105257611052611ff2565b6020026020010151600b811061106a5761106a611ff2565b60200201518152508160048151811061108557611085611ff2565b602002602001018190525060405180608001604052806110a489611420565b81526020016040518060800160405280604381526020016127f06043913981526040517f6900a3ae00000000000000000000000000000000000000000000000000000000815260209091019073__$2a9b762fd8664b1aa3edd8569463e9cda4$__90636900a3ae9061111a908f90600401612008565b600060405180830381865af4158015611137573d6000803e3d6000fd5b505050506040513d6000823e601f3d908101601f1916820160405261115f919081019061206e565b60405160200161116f91906120cb565b6040516020818303038152906040528152602001828152509750505050505050505b92915050565b6002546001600160a01b03166111ac826119ef565b6002805473ffffffffffffffffffffffffffffffffffffffff19166001600160a01b039290921691821790556040517f7376cd5cdde023cd48fdd9dd3023f01d63441ac9d6b9b52e3b750f0c3dc25267916101f291849190611fd7565b6060600061121784846101fe565b9050600081606001515167ffffffffffffffff81111561123957611239611ae0565b60405190808252806020026020018201604052801561126c57816020015b60608152602001906001900390816112575790505b50905060005b826060015151811015611313578260600151818151811061129557611295611ff2565b602002602001015160000151836060015182815181106112b7576112b7611ff2565b6020026020010151602001516040516020016112d49291906120fb565b6040516020818303038152906040528282815181106112f5576112f5611ff2565b6020026020010181905250808061130b906121a0565b915050611272565b508151602083015160408085015190517ffca1c0b900000000000000000000000000000000000000000000000000000000815273__$c94a70db6e173404880f68bb6708b44c9d$__9063fca1c0b99061137090879060040161226f565b600060405180830381865af415801561138d573d6000803e3d6000fd5b505050506040513d6000823e601f3d908101601f191682016040526113b5919081019061206e565b6040516020016113c89493929190612293565b6040516020818303038152906040529250505092915050565b6000546001600160a01b031633146114145760405162461bcd60e51b815260040161140b9061246d565b60405180910390fd5b61141e6000611a6d565b565b604080518082018252601381527f646174613a696d6167652f7376672b786d6c2c0000000000000000000000000060208201526004805483517f480bc3c800000000000000000000000000000000000000000000000000000000815293516060946001600160a01b039092169263480bc3c8928082019260009290918290030181865afa1580156114b5573d6000803e3d6000fd5b505050506040513d6000823e601f3d908101601f191682016040526114dd919081019061206e565b6003546040517ff3ab4be700000000000000000000000000000000000000000000000000000000815273__$8dbeda65cfccd7ed7a91dea9e4074110db$__9163999086e391839163f3ab4be791611542916001600160a01b0316908a906004016124ba565b600060405180830381865af415801561155f573d6000803e3d6000fd5b505050506040513d6000823e601f3d908101601f19168201604052611587919081019061206e565b6002546040517f657fb2e100000000000000000000000000000000000000000000000000000000815273__$75a5c6c1ddcd30c79038ef22d8e93ac41a$__9163657fb2e1916115e2916001600160a01b031690600401611f25565b600060405180830381865af41580156115ff573d6000803e3d6000fd5b505050506040513d6000823e601f3d908101601f19168201604052611627919081019061256a565b6040518363ffffffff1660e01b81526004016116449291906125a5565b600060405180830381865af4158015611661573d6000803e3d6000fd5b505050506040513d6000823e601f3d908101601f19168201604052611689919081019061206e565b60048054604080517f6f5c723b00000000000000000000000000000000000000000000000000000000815290516001600160a01b0390921692636f5c723b9282820192600092908290030181865afa1580156116e9573d6000803e3d6000fd5b505050506040513d6000823e601f3d908101601f19168201604052611711919081019061206e565b60405160200161172494939291906125ca565b6040516020818303038152906040529050919050565b600480546040517f47bf48f30000000000000000000000000000000000000000000000000000000081526060926000928392839283926001600160a01b0316916347bf48f39161178e918b918b9101612601565b608060405180830381865afa1580156117ab573d6000803e3d6000fd5b505050506040513d601f19601f820116820180604052508101906117cf9190612627565b60408051600a8082526101608201909252949850929650909450925060009190602082016101408036833701905050905060008160008151811061181557611815611ff2565b602090810291909101015261182c6103e8896126a1565b8160018151811061183f5761183f611ff2565b6020908102919091010152600a61185760648a6126a1565b61186191906126b5565b8160028151811061187457611874611ff2565b6020908102919091010152600a61188b818a6126a1565b61189591906126b5565b816003815181106118a8576118a8611ff2565b60209081029190910101526118be600a896126b5565b816004815181106118d1576118d1611ff2565b60200260200101818152505084816005815181106118f1576118f1611ff2565b602002602001018181525050838160068151811061191157611911611ff2565b602002602001018181525050828160078151811061193157611931611ff2565b602002602001018181525050818160088151811061195157611951611ff2565b60209081029190910101526119676002886126cd565b60ff168160098151811061197d5761197d611ff2565b6020908102919091010152979650505050505050565b6000546001600160a01b031633146119bd5760405162461bcd60e51b815260040161140b9061246d565b6001600160a01b0381166119e35760405162461bcd60e51b815260040161140b906126da565b6119ec81611a6d565b50565b600080611a1a83604051602001611a069190612746565b604051602081830303815290604052611aca565b90508051602082016000f091506001600160a01b038216611a67576040517f08d4abb600000000000000000000000000000000000000000000000000000000815260040160405180910390fd5b50919050565b600080546001600160a01b0383811673ffffffffffffffffffffffffffffffffffffffff19831681178455604051919092169283917f8be0079c531659141344cd1fd0a4f28419497f9722a3daafe3b4186f6b6457e09190a35050565b606081518260405160200161172492919061279e565b634e487b7160e01b600052604160045260246000fd5b601f19601f830116810181811067ffffffffffffffff82111715611b1c57611b1c611ae0565b6040525050565b6000611b2e60405190565b9050611b3a8282611af6565b919050565b600067ffffffffffffffff821115611b5957611b59611ae0565b601f19601f83011660200192915050565b82818337506000910152565b6000611b89611b8484611b3f565b611b23565b905082815260208101848484011115611ba457611ba4600080fd5b611baf848285611b6a565b509392505050565b600082601f830112611bcb57611bcb600080fd5b8135611bdb848260208601611b76565b949350505050565b600060208284031215611bf857611bf8600080fd5b813567ffffffffffffffff811115611c1257611c12600080fd5b611bdb84828501611bb7565b805b81146119ec57600080fd5b803561119181611c1e565b60ff8116611c20565b803561119181611c36565b60008060408385031215611c6057611c60600080fd5b6000611c6c8585611c2b565b9250506020611c7d85828601611c3f565b9150509250929050565b60005b83811015611ca2578181015183820152602001611c8a565b83811115611cb1576000848401525b50505050565b6000611cc1825190565b808452602084019350611cd8818560208601611c87565b601f01601f19169290920192915050565b8051604080845260009190840190611d018282611cb7565b91505060208301518482036020860152611d1b8282611cb7565b95945050505050565b6000611d308383611ce9565b9392505050565b60200190565b6000611d47825190565b80845260208401935083602082028501611d618560200190565b60005b84811015611d955783830388528151611d7d8482611d24565b93505060208201602098909801979150600101611d64565b50909695505050505050565b8051608080845260009190840190611db98282611cb7565b91505060208301518482036020860152611dd38282611cb7565b91505060408301518482036040860152611ded8282611cb7565b91505060608301518482036060860152611d1b8282611d3d565b60208082528101611d308184611da1565b60208082528101611d308184611cb7565b600067ffffffffffffffff821115611e4357611e43611ae0565b5060209081020190565b6000611e5b611b8484611e29565b83815290506020808201908402830185811115611e7a57611e7a600080fd5b835b81811015611e9c57611e8e8782611c2b565b835260209283019201611e7c565b5050509392505050565b600082601f830112611eba57611eba600080fd5b8135611bdb848260208601611e4d565b600060208284031215611edf57611edf600080fd5b813567ffffffffffffffff811115611ef957611ef9600080fd5b611bdb84828501611ea6565b60006001600160a01b038216611191565b611f1f81611f05565b82525050565b602081016111918284611f16565b80611f1f565b611f438282611f33565b5060200190565b6000611f54825190565b808452602093840193830160005b82811015611f87578151611f768782611f39565b965050602082019150600101611f62565b5093949350505050565b60208082528101611d308184611f4a565b611c2081611f05565b803561119181611fa2565b600060208284031215611fcb57611fcb600080fd5b6000611bdb8484611fab565b60408101611fe58285611f16565b611d306020830184611f16565b634e487b7160e01b600052603260045260246000fd5b602081016111918284611f33565b6000612024611b8484611b3f565b90508281526020810184848401111561203f5761203f600080fd5b611baf848285611c87565b600082601f83011261205e5761205e600080fd5b8151611bdb848260208601612016565b60006020828403121561208357612083600080fd5b815167ffffffffffffffff81111561209d5761209d600080fd5b611bdb8482850161204a565b60006120b3825190565b6120c1818560208601611c87565b9290920192915050565b7f436f2d426f742023000000000000000000000000000000000000000000000000815260080161119181836120a9565b7f7b2274726169745f74797065223a202200000000000000000000000000000000815260100161212b81846120a9565b7f222c202276616c7565223a20220000000000000000000000000000000000000081529050600d0161215d81836120a9565b7f227d00000000000000000000000000000000000000000000000000000000000081526002019392505050565b634e487b7160e01b600052601160045260246000fd5b60007fffffffffffffffffffffffffffffffffffffffffffffffffffffffffffffffff8214156121d2576121d261218a565b5060010190565b6000611d308383611cb7565b60006121ef825190565b808452602084019350836020820285016122098560200190565b60005b84811015611d95578383038852815161222584826121d9565b9350506020820160209890980197915060010161220c565b60018152602081017f2c0000000000000000000000000000000000000000000000000000000000000081529050611d37565b6040808252810161228081846121e5565b90508181036020830152611d308161223d565b7f646174613a6170706c69636174696f6e2f6a736f6e2c0000000000000000000081526016016122e2817f7b22696d616765223a20220000000000000000000000000000000000000000009052565b600b016122ef81866120a9565b601160f91b81529050600101612324817f2c226465736372697074696f6e223a20220000000000000000000000000000009052565b60110161233181856120a9565b601160f91b81529050600101612366817f2c226e616d65223a2022000000000000000000000000000000000000000000009052565b600a0161237381846120a9565b601160f91b815290506001016123a8817f2c2261747472696275746573223a2000000000000000000000000000000000009052565b600f016123d4817f5b000000000000000000000000000000000000000000000000000000000000009052565b6001016123e181836120a9565b7f5d0000000000000000000000000000000000000000000000000000000000000081529050600101612432817f7d000000000000000000000000000000000000000000000000000000000000009052565b600101949350505050565b60208082527f4f776e61626c653a2063616c6c6572206973206e6f7420746865206f776e65729101908152611d37565b602080825281016111918161243d565b6000612487825190565b808452602093840193830160005b82811015611f875781516124a98782611f39565b965050602082019150600101612495565b604081016124c88285611f16565b8181036020830152611bdb818461247d565b60006124e8611b8484611e29565b8381529050602080820190840283018581111561250757612507600080fd5b835b81811015611e9c57805167ffffffffffffffff81111561252b5761252b600080fd5b8501612537888261204a565b84525060209283019201612509565b600082601f83011261255a5761255a600080fd5b8151611bdb8482602086016124da565b60006020828403121561257f5761257f600080fd5b815167ffffffffffffffff81111561259957612599600080fd5b611bdb84828501612546565b604080825281016125b68185611cb7565b90508181036020830152611bdb81846121e5565b6125d481866120a9565b90506125e081856120a9565b90506125ec81846120a9565b9050611d1b81836120a9565b60ff8116611f1f565b6040810161260f8285611f33565b611d3060208301846125f8565b805161119181611c1e565b6000806000806080858703121561264057612640600080fd5b600061264c878761261c565b945050602061265d8782880161261c565b935050604061266e8782880161261c565b925050606061267f8782880161261c565b91505092959194509250565b634e487b7160e01b600052601260045260246000fd5b6000826126b0576126b061268b565b500490565b815b91506000826126c8576126c861268b565b500690565b60ff9081169082166126b7565b6020808252810161119181602681527f4f776e61626c653a206e6577206f776e657220697320746865207a65726f206160208201527f6464726573730000000000000000000000000000000000000000000000000000604082015260600190565b600081525b60010190565b61274f8161273b565b905061119181836120a9565b7f63000000000000000000000000000000000000000000000000000000000000008152612740565b60006111918260e01b90565b611f1f63ffffffff8216612783565b6127a78161275b565b90506127b3818461278f565b6004016127e3817f80600e6000396000f30000000000000000000000000000000000000000000000815260090190565b9050611d3081836120a956fe436f2d426f74732061726520636f6f7065726174696f6e20726f626f7473207c2043433020262031303025204f6e2d436861696e207c20636f2d626f74732e636f6d2ea26469706673582212200cb9ca0d3ea9407bbc7c9ea2b19ce56924eb85d807fce7e70b3948a58ffe40fa64736f6c634300080c0033",
  "libraries": {
    "RendererCommons": "0x91F59E8d53061DD2F7C4a405984D9a4297C54A0C",
    "RectRenderer": "0x9D7FeA76a906A67DE351b657CD73E6bf8F04b840",
    "RectEncoder": "0xc8AD48942deb7BAa9B15665aa72656A259277eaF",
    "Array": "0x1FA6A2152871D5A4D1f56511110C9a353CA48339",
    "Integers": "0xFD60cDD345feB6011fDeb4Dc3d69aD2319f8508C"
  },
  "devdoc": {
    "kind": "dev",
    "methods": {
      "owner()": {
        "details": "Returns the address of the current owner."
      },
      "renounceOwnership()": {
        "details": "Leaves the contract without owner. It will not be possible to call `onlyOwner` functions anymore. Can only be called by the current owner. NOTE: Renouncing ownership will leave the contract without an owner, thereby removing any functionality that is only available to the owner."
      },
      "transferOwnership(address)": {
        "details": "Transfers ownership of the contract to a new account (`newOwner`). Can only be called by the current owner."
      }
    },
    "version": 1
  },
  "userdoc": {
    "kind": "user",
    "methods": {},
    "version": 1
  },
  "storageLayout": {
    "storage": [
      {
        "astId": 6106,
        "contract": "contracts/co-bots/CoBotsRendererV2.sol:CoBotsRendererV2",
        "label": "_owner",
        "offset": 0,
        "slot": "0",
        "type": "t_address"
      },
      {
        "astId": 6214,
        "contract": "contracts/co-bots/CoBotsRendererV2.sol:CoBotsRendererV2",
        "label": "_status",
        "offset": 0,
        "slot": "1",
        "type": "t_uint256"
      },
      {
        "astId": 9772,
        "contract": "contracts/co-bots/CoBotsRendererV2.sol:CoBotsRendererV2",
        "label": "palettePointer",
        "offset": 0,
        "slot": "2",
        "type": "t_address"
      },
      {
        "astId": 9774,
        "contract": "contracts/co-bots/CoBotsRendererV2.sol:CoBotsRendererV2",
        "label": "collectionPointer",
        "offset": 0,
        "slot": "3",
        "type": "t_address"
      },
      {
        "astId": 9777,
        "contract": "contracts/co-bots/CoBotsRendererV2.sol:CoBotsRendererV2",
        "label": "coBotsRenderer",
        "offset": 0,
        "slot": "4",
        "type": "t_contract(ICoBotsRenderer)12060"
      }
    ],
    "types": {
      "t_address": {
        "encoding": "inplace",
        "label": "address",
        "numberOfBytes": "20"
      },
      "t_contract(ICoBotsRenderer)12060": {
        "encoding": "inplace",
        "label": "contract ICoBotsRenderer",
        "numberOfBytes": "20"
      },
      "t_uint256": {
        "encoding": "inplace",
        "label": "uint256",
        "numberOfBytes": "32"
      }
    }
  }
}