{
  "address": "0x72754769B0990D9C4473F194E2F506aa3715A9A0",
  "abi": [
    {
      "inputs": [
        {
          "internalType": "string",
          "name": "name_",
          "type": "string"
        },
        {
          "internalType": "string",
          "name": "symbol_",
          "type": "string"
        },
        {
          "internalType": "address",
          "name": "_rendererAddress",
          "type": "address"
        },
        {
          "internalType": "address",
          "name": "_opensea",
          "type": "address"
        },
        {
          "internalType": "address",
          "name": "_looksrare",
          "type": "address"
        },
        {
          "internalType": "address",
          "name": "vrfCoordinator",
          "type": "address"
        },
        {
          "internalType": "address",
          "name": "link",
          "type": "address"
        },
        {
          "internalType": "bytes32",
          "name": "keyHash",
          "type": "bytes32"
        }
      ],
      "stateMutability": "nonpayable",
      "type": "constructor"
    },
    {
      "inputs": [],
      "name": "ApprovalCallerNotOwnerNorApproved",
      "type": "error"
    },
    {
      "inputs": [],
      "name": "ApprovalQueryForNonexistentToken",
      "type": "error"
    },
    {
      "inputs": [],
      "name": "ApprovalToCurrentOwner",
      "type": "error"
    },
    {
      "inputs": [],
      "name": "ApproveToCaller",
      "type": "error"
    },
    {
      "inputs": [],
      "name": "BalanceQueryForZeroAddress",
      "type": "error"
    },
    {
      "inputs": [],
      "name": "MintToZeroAddress",
      "type": "error"
    },
    {
      "inputs": [],
      "name": "MintZeroQuantity",
      "type": "error"
    },
    {
      "inputs": [
        {
          "internalType": "address",
          "name": "have",
          "type": "address"
        },
        {
          "internalType": "address",
          "name": "want",
          "type": "address"
        }
      ],
      "name": "OnlyCoordinatorCanFulfill",
      "type": "error"
    },
    {
      "inputs": [],
      "name": "OwnerIndexOutOfBounds",
      "type": "error"
    },
    {
      "inputs": [],
      "name": "OwnerQueryForNonexistentToken",
      "type": "error"
    },
    {
      "inputs": [],
      "name": "TokenIndexOutOfBounds",
      "type": "error"
    },
    {
      "inputs": [],
      "name": "TransferCallerNotOwnerNorApproved",
      "type": "error"
    },
    {
      "inputs": [],
      "name": "TransferFromIncorrectOwner",
      "type": "error"
    },
    {
      "inputs": [],
      "name": "TransferToNonERC721ReceiverImplementer",
      "type": "error"
    },
    {
      "inputs": [],
      "name": "TransferToZeroAddress",
      "type": "error"
    },
    {
      "anonymous": false,
      "inputs": [
        {
          "indexed": true,
          "internalType": "address",
          "name": "owner",
          "type": "address"
        },
        {
          "indexed": true,
          "internalType": "address",
          "name": "approved",
          "type": "address"
        },
        {
          "indexed": true,
          "internalType": "uint256",
          "name": "tokenId",
          "type": "uint256"
        }
      ],
      "name": "Approval",
      "type": "event"
    },
    {
      "anonymous": false,
      "inputs": [
        {
          "indexed": true,
          "internalType": "address",
          "name": "owner",
          "type": "address"
        },
        {
          "indexed": true,
          "internalType": "address",
          "name": "operator",
          "type": "address"
        },
        {
          "indexed": false,
          "internalType": "bool",
          "name": "approved",
          "type": "bool"
        }
      ],
      "name": "ApprovalForAll",
      "type": "event"
    },
    {
      "anonymous": false,
      "inputs": [
        {
          "indexed": true,
          "internalType": "address",
          "name": "previousOwner",
          "type": "address"
        },
        {
          "indexed": true,
          "internalType": "address",
          "name": "newOwner",
          "type": "address"
        }
      ],
      "name": "OwnershipTransferred",
      "type": "event"
    },
    {
      "anonymous": false,
      "inputs": [
        {
          "indexed": true,
          "internalType": "address",
          "name": "from",
          "type": "address"
        },
        {
          "indexed": true,
          "internalType": "address",
          "name": "to",
          "type": "address"
        },
        {
          "indexed": true,
          "internalType": "uint256",
          "name": "tokenId",
          "type": "uint256"
        }
      ],
      "name": "Transfer",
      "type": "event"
    },
    {
      "inputs": [],
      "name": "COBOTS_MINT_DURATION",
      "outputs": [
        {
          "internalType": "uint256",
          "name": "",
          "type": "uint256"
        }
      ],
      "stateMutability": "view",
      "type": "function"
    },
    {
      "inputs": [],
      "name": "COBOTS_MINT_RAFFLE_DELAY",
      "outputs": [
        {
          "internalType": "uint256",
          "name": "",
          "type": "uint256"
        }
      ],
      "stateMutability": "view",
      "type": "function"
    },
    {
      "inputs": [],
      "name": "COBOTS_REFUND_DURATION",
      "outputs": [
        {
          "internalType": "uint256",
          "name": "",
          "type": "uint256"
        }
      ],
      "stateMutability": "view",
      "type": "function"
    },
    {
      "inputs": [],
      "name": "COORDINATION_RAFFLE_PRIZE",
      "outputs": [
        {
          "internalType": "uint256",
          "name": "",
          "type": "uint256"
        }
      ],
      "stateMutability": "view",
      "type": "function"
    },
    {
      "inputs": [],
      "name": "COORDINATION_RAFFLE_THRESHOLD",
      "outputs": [
        {
          "internalType": "uint16",
          "name": "",
          "type": "uint16"
        }
      ],
      "stateMutability": "view",
      "type": "function"
    },
    {
      "inputs": [],
      "name": "COORDINATION_RAFFLE_WINNERS_COUNT",
      "outputs": [
        {
          "internalType": "uint8",
          "name": "",
          "type": "uint8"
        }
      ],
      "stateMutability": "view",
      "type": "function"
    },
    {
      "inputs": [],
      "name": "MAIN_RAFFLE_PRIZE",
      "outputs": [
        {
          "internalType": "uint256",
          "name": "",
          "type": "uint256"
        }
      ],
      "stateMutability": "view",
      "type": "function"
    },
    {
      "inputs": [],
      "name": "MAIN_RAFFLE_WINNERS_COUNT",
      "outputs": [
        {
          "internalType": "uint8",
          "name": "",
          "type": "uint8"
        }
      ],
      "stateMutability": "view",
      "type": "function"
    },
    {
      "inputs": [],
      "name": "MAX_COBOTS",
      "outputs": [
        {
          "internalType": "uint256",
          "name": "",
          "type": "uint256"
        }
      ],
      "stateMutability": "view",
      "type": "function"
    },
    {
      "inputs": [],
      "name": "MAX_MINT_PER_ADDRESS",
      "outputs": [
        {
          "internalType": "uint8",
          "name": "",
          "type": "uint8"
        }
      ],
      "stateMutability": "view",
      "type": "function"
    },
    {
      "inputs": [],
      "name": "MINT_FOUNDERS_AND_GIVEAWAYS",
      "outputs": [
        {
          "internalType": "uint8",
          "name": "",
          "type": "uint8"
        }
      ],
      "stateMutability": "view",
      "type": "function"
    },
    {
      "inputs": [],
      "name": "MINT_GIVEAWAYS",
      "outputs": [
        {
          "internalType": "uint8",
          "name": "",
          "type": "uint8"
        }
      ],
      "stateMutability": "view",
      "type": "function"
    },
    {
      "inputs": [],
      "name": "MINT_PUBLIC_PRICE",
      "outputs": [
        {
          "internalType": "uint256",
          "name": "",
          "type": "uint256"
        }
      ],
      "stateMutability": "view",
      "type": "function"
    },
    {
      "inputs": [],
      "name": "RAFFLE_DRAW_DELAY",
      "outputs": [
        {
          "internalType": "uint256",
          "name": "",
          "type": "uint256"
        }
      ],
      "stateMutability": "view",
      "type": "function"
    },
    {
      "inputs": [
        {
          "internalType": "address",
          "name": "to",
          "type": "address"
        },
        {
          "internalType": "uint256",
          "name": "tokenId",
          "type": "uint256"
        }
      ],
      "name": "approve",
      "outputs": [],
      "stateMutability": "nonpayable",
      "type": "function"
    },
    {
      "inputs": [
        {
          "internalType": "address",
          "name": "owner",
          "type": "address"
        }
      ],
      "name": "balanceOf",
      "outputs": [
        {
          "internalType": "uint256",
          "name": "",
          "type": "uint256"
        }
      ],
      "stateMutability": "view",
      "type": "function"
    },
    {
      "inputs": [],
      "name": "cancelSubscription",
      "outputs": [],
      "stateMutability": "nonpayable",
      "type": "function"
    },
    {
      "inputs": [],
      "name": "claimRefund",
      "outputs": [],
      "stateMutability": "nonpayable",
      "type": "function"
    },
    {
      "inputs": [
        {
          "internalType": "uint256[]",
          "name": "tokenIds",
          "type": "uint256[]"
        }
      ],
      "name": "claimRefund",
      "outputs": [],
      "stateMutability": "nonpayable",
      "type": "function"
    },
    {
      "inputs": [],
      "name": "coBotsColorAgreement",
      "outputs": [
        {
          "internalType": "uint16",
          "name": "",
          "type": "uint16"
        }
      ],
      "stateMutability": "view",
      "type": "function"
    },
    {
      "inputs": [
        {
          "internalType": "uint256",
          "name": "",
          "type": "uint256"
        }
      ],
      "name": "coBotsColors",
      "outputs": [
        {
          "internalType": "bool",
          "name": "",
          "type": "bool"
        }
      ],
      "stateMutability": "view",
      "type": "function"
    },
    {
      "inputs": [
        {
          "internalType": "uint256",
          "name": "",
          "type": "uint256"
        }
      ],
      "name": "coBotsRefunded",
      "outputs": [
        {
          "internalType": "bool",
          "name": "",
          "type": "bool"
        }
      ],
      "stateMutability": "view",
      "type": "function"
    },
    {
      "inputs": [
        {
          "internalType": "uint256",
          "name": "",
          "type": "uint256"
        }
      ],
      "name": "coBotsSeeds",
      "outputs": [
        {
          "internalType": "uint8",
          "name": "",
          "type": "uint8"
        }
      ],
      "stateMutability": "view",
      "type": "function"
    },
    {
      "inputs": [
        {
          "internalType": "uint256",
          "name": "",
          "type": "uint256"
        }
      ],
      "name": "coBotsStatusDisabled",
      "outputs": [
        {
          "internalType": "bool",
          "name": "",
          "type": "bool"
        }
      ],
      "stateMutability": "view",
      "type": "function"
    },
    {
      "inputs": [],
      "name": "cooperativeRaffleEnabled",
      "outputs": [
        {
          "internalType": "bool",
          "name": "",
          "type": "bool"
        }
      ],
      "stateMutability": "view",
      "type": "function"
    },
    {
      "inputs": [
        {
          "internalType": "uint96",
          "name": "amount",
          "type": "uint96"
        }
      ],
      "name": "createSubscriptionAndFund",
      "outputs": [],
      "stateMutability": "nonpayable",
      "type": "function"
    },
    {
      "inputs": [],
      "name": "draw",
      "outputs": [
        {
          "internalType": "uint256",
          "name": "",
          "type": "uint256"
        }
      ],
      "stateMutability": "nonpayable",
      "type": "function"
    },
    {
      "inputs": [],
      "name": "drawCount",
      "outputs": [
        {
          "internalType": "uint16",
          "name": "",
          "type": "uint16"
        }
      ],
      "stateMutability": "view",
      "type": "function"
    },
    {
      "inputs": [
        {
          "internalType": "uint256",
          "name": "_tokenId",
          "type": "uint256"
        }
      ],
      "name": "exists",
      "outputs": [
        {
          "internalType": "bool",
          "name": "",
          "type": "bool"
        }
      ],
      "stateMutability": "view",
      "type": "function"
    },
    {
      "inputs": [
        {
          "internalType": "address",
          "name": "proxyAddress",
          "type": "address"
        }
      ],
      "name": "flipProxyState",
      "outputs": [],
      "stateMutability": "nonpayable",
      "type": "function"
    },
    {
      "inputs": [
        {
          "internalType": "uint256",
          "name": "tokenId",
          "type": "uint256"
        }
      ],
      "name": "getApproved",
      "outputs": [
        {
          "internalType": "address",
          "name": "",
          "type": "address"
        }
      ],
      "stateMutability": "view",
      "type": "function"
    },
    {
      "inputs": [
        {
          "internalType": "address",
          "name": "owner",
          "type": "address"
        },
        {
          "internalType": "address",
          "name": "operator",
          "type": "address"
        }
      ],
      "name": "isApprovedForAll",
      "outputs": [
        {
          "internalType": "bool",
          "name": "",
          "type": "bool"
        }
      ],
      "stateMutability": "view",
      "type": "function"
    },
    {
      "inputs": [],
      "name": "isDrawOpen",
      "outputs": [
        {
          "internalType": "bool",
          "name": "",
          "type": "bool"
        }
      ],
      "stateMutability": "view",
      "type": "function"
    },
    {
      "inputs": [],
      "name": "isMintedOut",
      "outputs": [
        {
          "internalType": "bool",
          "name": "",
          "type": "bool"
        }
      ],
      "stateMutability": "view",
      "type": "function"
    },
    {
      "inputs": [],
      "name": "isPublicSaleOpen",
      "outputs": [
        {
          "internalType": "bool",
          "name": "",
          "type": "bool"
        }
      ],
      "stateMutability": "view",
      "type": "function"
    },
    {
      "inputs": [],
      "name": "lastDrawTimestamp",
      "outputs": [
        {
          "internalType": "uint256",
          "name": "",
          "type": "uint256"
        }
      ],
      "stateMutability": "view",
      "type": "function"
    },
    {
      "inputs": [],
      "name": "looksrare",
      "outputs": [
        {
          "internalType": "address",
          "name": "",
          "type": "address"
        }
      ],
      "stateMutability": "view",
      "type": "function"
    },
    {
      "inputs": [
        {
          "internalType": "address",
          "name": "to",
          "type": "address"
        },
        {
          "internalType": "uint256",
          "name": "quantity",
          "type": "uint256"
        }
      ],
      "name": "mintFoundersAndGiveaways",
      "outputs": [],
      "stateMutability": "nonpayable",
      "type": "function"
    },
    {
      "inputs": [
        {
          "internalType": "uint256",
          "name": "quantity",
          "type": "uint256"
        }
      ],
      "name": "mintPublicSale",
      "outputs": [],
      "stateMutability": "payable",
      "type": "function"
    },
    {
      "inputs": [],
      "name": "name",
      "outputs": [
        {
          "internalType": "string",
          "name": "",
          "type": "string"
        }
      ],
      "stateMutability": "view",
      "type": "function"
    },
    {
      "inputs": [],
      "name": "opensea",
      "outputs": [
        {
          "internalType": "address",
          "name": "",
          "type": "address"
        }
      ],
      "stateMutability": "view",
      "type": "function"
    },
    {
      "inputs": [],
      "name": "owner",
      "outputs": [
        {
          "internalType": "address",
          "name": "",
          "type": "address"
        }
      ],
      "stateMutability": "view",
      "type": "function"
    },
    {
      "inputs": [
        {
          "internalType": "uint256",
          "name": "tokenId",
          "type": "uint256"
        }
      ],
      "name": "ownerOf",
      "outputs": [
        {
          "internalType": "address",
          "name": "",
          "type": "address"
        }
      ],
      "stateMutability": "view",
      "type": "function"
    },
    {
      "inputs": [
        {
          "internalType": "address",
          "name": "",
          "type": "address"
        }
      ],
      "name": "prizePerAddress",
      "outputs": [
        {
          "internalType": "uint256",
          "name": "",
          "type": "uint256"
        }
      ],
      "stateMutability": "view",
      "type": "function"
    },
    {
      "inputs": [
        {
          "internalType": "uint256",
          "name": "",
          "type": "uint256"
        }
      ],
      "name": "prizePerDraw",
      "outputs": [
        {
          "internalType": "uint256",
          "name": "",
          "type": "uint256"
        }
      ],
      "stateMutability": "view",
      "type": "function"
    },
    {
      "inputs": [],
      "name": "publicSaleStartTimestamp",
      "outputs": [
        {
          "internalType": "uint256",
          "name": "",
          "type": "uint256"
        }
      ],
      "stateMutability": "view",
      "type": "function"
    },
    {
      "inputs": [
        {
          "internalType": "uint256",
          "name": "requestId",
          "type": "uint256"
        },
        {
          "internalType": "uint256[]",
          "name": "randomWords",
          "type": "uint256[]"
        }
      ],
      "name": "rawFulfillRandomWords",
      "outputs": [],
      "stateMutability": "nonpayable",
      "type": "function"
    },
    {
      "inputs": [],
      "name": "renderingContractAddress",
      "outputs": [
        {
          "internalType": "address",
          "name": "",
          "type": "address"
        }
      ],
      "stateMutability": "view",
      "type": "function"
    },
    {
      "inputs": [],
      "name": "renounceOwnership",
      "outputs": [],
      "stateMutability": "nonpayable",
      "type": "function"
    },
    {
      "inputs": [
        {
          "internalType": "address",
          "name": "from",
          "type": "address"
        },
        {
          "internalType": "address",
          "name": "to",
          "type": "address"
        },
        {
          "internalType": "uint256",
          "name": "tokenId",
          "type": "uint256"
        }
      ],
      "name": "safeTransferFrom",
      "outputs": [],
      "stateMutability": "nonpayable",
      "type": "function"
    },
    {
      "inputs": [
        {
          "internalType": "address",
          "name": "from",
          "type": "address"
        },
        {
          "internalType": "address",
          "name": "to",
          "type": "address"
        },
        {
          "internalType": "uint256",
          "name": "tokenId",
          "type": "uint256"
        },
        {
          "internalType": "bytes",
          "name": "_data",
          "type": "bytes"
        }
      ],
      "name": "safeTransferFrom",
      "outputs": [],
      "stateMutability": "nonpayable",
      "type": "function"
    },
    {
      "inputs": [
        {
          "internalType": "address",
          "name": "operator",
          "type": "address"
        },
        {
          "internalType": "bool",
          "name": "approved",
          "type": "bool"
        }
      ],
      "name": "setApprovalForAll",
      "outputs": [],
      "stateMutability": "nonpayable",
      "type": "function"
    },
    {
      "inputs": [
        {
          "internalType": "address",
          "name": "looksrare_",
          "type": "address"
        }
      ],
      "name": "setLooksrare",
      "outputs": [],
      "stateMutability": "nonpayable",
      "type": "function"
    },
    {
      "inputs": [
        {
          "internalType": "address",
          "name": "opensea_",
          "type": "address"
        }
      ],
      "name": "setOpensea",
      "outputs": [],
      "stateMutability": "nonpayable",
      "type": "function"
    },
    {
      "inputs": [
        {
          "internalType": "uint256",
          "name": "timestamp",
          "type": "uint256"
        }
      ],
      "name": "setPublicSaleTimestamp",
      "outputs": [],
      "stateMutability": "nonpayable",
      "type": "function"
    },
    {
      "inputs": [
        {
          "internalType": "address",
          "name": "_renderingContractAddress",
          "type": "address"
        }
      ],
      "name": "setRenderingContractAddress",
      "outputs": [],
      "stateMutability": "nonpayable",
      "type": "function"
    },
    {
      "inputs": [
        {
          "internalType": "bytes4",
          "name": "interfaceId",
          "type": "bytes4"
        }
      ],
      "name": "supportsInterface",
      "outputs": [
        {
          "internalType": "bool",
          "name": "",
          "type": "bool"
        }
      ],
      "stateMutability": "view",
      "type": "function"
    },
    {
      "inputs": [],
      "name": "symbol",
      "outputs": [
        {
          "internalType": "string",
          "name": "",
          "type": "string"
        }
      ],
      "stateMutability": "view",
      "type": "function"
    },
    {
      "inputs": [
        {
          "internalType": "uint256",
          "name": "tokenId",
          "type": "uint256"
        }
      ],
      "name": "toggleColor",
      "outputs": [],
      "stateMutability": "nonpayable",
      "type": "function"
    },
    {
      "inputs": [
        {
          "internalType": "uint256[]",
          "name": "tokenIds",
          "type": "uint256[]"
        }
      ],
      "name": "toggleColors",
      "outputs": [],
      "stateMutability": "nonpayable",
      "type": "function"
    },
    {
      "inputs": [
        {
          "internalType": "uint256",
          "name": "tokenId",
          "type": "uint256"
        }
      ],
      "name": "toggleStatus",
      "outputs": [],
      "stateMutability": "nonpayable",
      "type": "function"
    },
    {
      "inputs": [
        {
          "internalType": "uint256[]",
          "name": "tokenIds",
          "type": "uint256[]"
        }
      ],
      "name": "toggleStatuses",
      "outputs": [],
      "stateMutability": "nonpayable",
      "type": "function"
    },
    {
      "inputs": [
        {
          "internalType": "uint256",
          "name": "index",
          "type": "uint256"
        }
      ],
      "name": "tokenByIndex",
      "outputs": [
        {
          "internalType": "uint256",
          "name": "",
          "type": "uint256"
        }
      ],
      "stateMutability": "view",
      "type": "function"
    },
    {
      "inputs": [
        {
          "internalType": "address",
          "name": "owner",
          "type": "address"
        },
        {
          "internalType": "uint256",
          "name": "index",
          "type": "uint256"
        }
      ],
      "name": "tokenOfOwnerByIndex",
      "outputs": [
        {
          "internalType": "uint256",
          "name": "",
          "type": "uint256"
        }
      ],
      "stateMutability": "view",
      "type": "function"
    },
    {
      "inputs": [
        {
          "internalType": "uint256",
          "name": "_tokenId",
          "type": "uint256"
        }
      ],
      "name": "tokenURI",
      "outputs": [
        {
          "internalType": "string",
          "name": "",
          "type": "string"
        }
      ],
      "stateMutability": "view",
      "type": "function"
    },
    {
      "inputs": [],
      "name": "totalSupply",
      "outputs": [
        {
          "internalType": "uint256",
          "name": "",
          "type": "uint256"
        }
      ],
      "stateMutability": "view",
      "type": "function"
    },
    {
      "inputs": [
        {
          "internalType": "address",
          "name": "from",
          "type": "address"
        },
        {
          "internalType": "address",
          "name": "to",
          "type": "address"
        },
        {
          "internalType": "uint256",
          "name": "tokenId",
          "type": "uint256"
        }
      ],
      "name": "transferFrom",
      "outputs": [],
      "stateMutability": "nonpayable",
      "type": "function"
    },
    {
      "inputs": [
        {
          "internalType": "address",
          "name": "newOwner",
          "type": "address"
        }
      ],
      "name": "transferOwnership",
      "outputs": [],
      "stateMutability": "nonpayable",
      "type": "function"
    },
    {
      "inputs": [
        {
          "internalType": "uint256",
          "name": "",
          "type": "uint256"
        }
      ],
      "name": "winners",
      "outputs": [
        {
          "internalType": "address",
          "name": "",
          "type": "address"
        }
      ],
      "stateMutability": "view",
      "type": "function"
    },
    {
      "inputs": [],
      "name": "withdraw",
      "outputs": [],
      "stateMutability": "nonpayable",
      "type": "function"
    },
    {
      "stateMutability": "payable",
      "type": "receive"
    }
  ],
  "transactionHash": "0x5752a9bbec37dc570a35d9c828ce457111d57855b7d4f67b9829bf77bfbb403d",
  "args": [
    "Co-Bots",
    "CBTS",
    "0xA2144E75337A787Df08ac777e91734DE6442173B",
    "0xa5409ec958c83c3f309868babaca7c86dcb077c1",
    "0xf42aa99f011a1fa7cda90e5e98b277e306bca83e",
    "0x6168499c0cFfCaCD319c818142124B7A15E857ab",
    "0x01BE23585060835E02B77ef475b0Cc51aA1e0709",
    "0xd89b2bf150e3b9e13446986e571fb9cab24b13cea0a43ea20a6049a85cc807cc"
  ],
  "numDeployments": 6,
  "solcInputHash": "9696ee073323eed10de2e3cca9fea5fe",
  "bytecode": "0x60a06040526104ed805461ffff19166113881790553480156200002157600080fd5b5060405162004bee38038062004bee8339810160408190526200004491620003e6565b82888881600190805190602001906200005f929190620001b5565b50805162000075906002906020840190620001b5565b5050506001600160a01b03166080526200008f33620000ff565b60016008556200009f8662000151565b6104ef80546001600160a01b03199081166001600160a01b03978816179091556104f080548216958716959095179094556104f480548516938616939093179092556104f5805490931693169290921790556104f6555062000566915050565b600780546001600160a01b038381166001600160a01b0319831681179093556040519116919082907f8be0079c531659141344cd1fd0a4f28419497f9722a3daafe3b4186f6b6457e090600090a35050565b6007546001600160a01b03163314620001875760405162461bcd60e51b81526004016200017e90620004e4565b60405180910390fd5b6104f280546001600160a01b039092166001600160a01b031992831681179091556104f38054909216179055565b828054620001c39062000535565b90600052602060002090601f016020900481019282620001e7576000855562000232565b82601f106200020257805160ff191683800117855562000232565b8280016001018555821562000232579182015b828111156200023257825182559160200191906001019062000215565b506200024092915062000244565b5090565b5b8082111562000240576000815560010162000245565b634e487b7160e01b600052604160045260246000fd5b601f19601f83011681016001600160401b03811182821017156200029957620002996200025b565b6040525050565b6000620002ac60405190565b9050620002ba828262000271565b919050565b60006001600160401b03821115620002db57620002db6200025b565b601f19601f83011660200192915050565b60005b8381101562000309578181015183820152602001620002ef565b8381111562000319576000848401525b50505050565b6000620003366200033084620002bf565b620002a0565b905082815260208101848484011115620003535762000353600080fd5b62000360848285620002ec565b509392505050565b600082601f8301126200037e576200037e600080fd5b8151620003908482602086016200031f565b949350505050565b60006001600160a01b0382165b92915050565b620003b68162000398565b8114620003c257600080fd5b50565b8051620003a581620003ab565b80620003b6565b8051620003a581620003d2565b600080600080600080600080610100898b031215620004085762000408600080fd5b88516001600160401b03811115620004235762000423600080fd5b620004318b828c0162000368565b60208b015190995090506001600160401b03811115620004545762000454600080fd5b620004628b828c0162000368565b9750506040620004758b828c01620003c5565b9650506060620004888b828c01620003c5565b95505060806200049b8b828c01620003c5565b94505060a0620004ae8b828c01620003c5565b93505060c0620004c18b828c01620003c5565b92505060e0620004d48b828c01620003d9565b9150509295985092959890939650565b60208082528181019081527f4f776e61626c653a2063616c6c6572206973206e6f7420746865206f776e6572604083015260608201620003a5565b634e487b7160e01b600052602260045260246000fd5b6002810460018216806200054a57607f821691505b602082108114156200056057620005606200051f565b50919050565b608051614665620005896000396000818161129101526112b901526146656000f3fe6080604052600436106104695760003560e01c806368d99f7c11610243578063adb19dc311610143578063c87b56dd116100bb578063e985e9c51161008a578063f54a6f831161006f578063f54a6f8314610c38578063f73c814b14610c58578063fc749b3c14610c7857600080fd5b8063e985e9c514610bf8578063f2fde38b14610c1857600080fd5b8063c87b56dd14610b80578063cef46f0d14610ba0578063cf62c8ab14610bc1578063d7822c9914610be157600080fd5b8063b776c8a611610112578063c074f412116100f7578063c074f41214610b3f578063c45ca31014610b60578063c79945101461095857600080fd5b8063b776c8a614610aff578063b88d4fde14610b1f57600080fd5b8063adb19dc314610aae578063b06a01f41461074d578063b4b294d914610ace578063b5545a3c14610aea57600080fd5b806395d89b41116101d6578063a3b1763f116101a5578063a8e90b571161018a578063a8e90b5714610a62578063abb7a28f14610a83578063ac483b9314610a9957600080fd5b8063a3b1763f14610a29578063a747338314610a4557600080fd5b806395d89b41146109b95780639c51792a146109ce578063a22cb465146109e9578063a2fb117514610a0957600080fd5b8063743521e411610212578063743521e41461095857806378af6b851461096f5780638c21460b146109845780638da5cb5b1461099b57600080fd5b806368d99f7c146108eb57806370a082311461090e578063715018a61461092e57806373cd7d881461094357600080fd5b806324e9edb0116103695780634f6ccce7116102e157806351db2e76116102b05780635dad667c116102955780635dad667c1461088b5780636352211e146108ab5780636445b238146108cb57600080fd5b806351db2e76146108585780635a5e5d581461087857600080fd5b80634f6ccce7146107d75780634fb9462a146107f7578063511a960514610817578063511ed3821461083757600080fd5b80633acd6cb21161033857806342842e0e1161031d57806342842e0e1461077757806347a3650b146107975780634f558e79146107b757600080fd5b80633acd6cb21461074d5780633ccfd60b1461076257600080fd5b806324e9edb0146106d55780632f745c59146106ea5780632fd573a51461070a57806330d1bda11461071f57600080fd5b80630eecae21116103fc5780631a6949e3116103cb5780631fafadbc116103b05780631fafadbc146106755780631fe543e31461069557806323b872dd146106b557600080fd5b80631a6949e3146106405780631e8858fb1461065557600080fd5b80630eecae21146105b857806312b40a9f146105cd57806316d870c2146105ed57806318160ddd1461060457600080fd5b8063081812fc11610438578063081812fc1461052a57806308222d5814610557578063095ea7b3146105805780630bb4d042146105a257600080fd5b806301d2a00b1461047557806301ffc9a7146104b957806303e48f66146104e657806306fdde031461050857600080fd5b3661047057005b600080fd5b34801561048157600080fd5b506104a3610490366004613403565b6104fb6020526000908152604090205481565b6040516104b0919061342c565b60405180910390f35b3480156104c557600080fd5b506104d96104d4366004613455565b610c98565b6040516104b0919061347e565b3480156104f257600080fd5b506104fb603281565b6040516104b09190613495565b34801561051457600080fd5b5061051d610d69565b6040516104b09190613501565b34801561053657600080fd5b5061054a610545366004613403565b610dfb565b6040516104b0919061352c565b34801561056357600080fd5b506104fc546105739061ffff1681565b6040516104b09190613544565b34801561058c57600080fd5b506105a061059b366004613566565b610e58565b005b3480156105ae57600080fd5b506104a361271081565b3480156105c457600080fd5b506104a3610f18565b3480156105d957600080fd5b506105a06105e83660046135a3565b611165565b3480156105f957600080fd5b506104a36201518081565b34801561061057600080fd5b506104a36000546001600160801b0370010000000000000000000000000000000082048116918116919091031690565b34801561064c57600080fd5b506104d96111ca565b34801561066157600080fd5b506105a06106703660046135a3565b611201565b34801561068157600080fd5b506104fb610690366004613403565b61125b565b3480156106a157600080fd5b506105a06106b03660046136c9565b611286565b3480156106c157600080fd5b506105a06106d0366004613717565b61131a565b3480156106e157600080fd5b506105a0611325565b3480156106f657600080fd5b506104a3610705366004613566565b6113f0565b34801561071657600080fd5b506104a3603c81565b34801561072b57600080fd5b506104a361073a3660046135a3565b6104f96020526000908152604090205481565b34801561075957600080fd5b506104fb601481565b34801561076e57600080fd5b506105a0611506565b34801561078357600080fd5b506105a0610792366004613717565b611610565b3480156107a357600080fd5b506105a06107b23660046137b9565b61162b565b3480156107c357600080fd5b506104d96107d2366004613403565b61169b565b3480156107e357600080fd5b506104a36107f2366004613403565b6116a6565b34801561080357600080fd5b506104d9610812366004613403565b61176a565b34801561082357600080fd5b506105a0610832366004613403565b61177c565b34801561084357600080fd5b506104ef5461054a906001600160a01b031681565b34801561086457600080fd5b506105a0610873366004613403565b6117ac565b6105a0610886366004613403565b61186f565b34801561089757600080fd5b506105a06108a6366004613403565b611971565b3480156108b757600080fd5b5061054a6108c6366004613403565b611a94565b3480156108d757600080fd5b506104d96108e6366004613403565b611aa6565b3480156108f757600080fd5b506104d96000546001600160801b03166127101490565b34801561091a57600080fd5b506104a36109293660046135a3565b611ab8565b34801561093a57600080fd5b506105a0611b20565b34801561094f57600080fd5b506104fb600a81565b34801561096457600080fd5b506104a362093a8081565b34801561097b57600080fd5b506104fb601e81565b34801561099057600080fd5b506104a36104f75481565b3480156109a757600080fd5b506007546001600160a01b031661054a565b3480156109c557600080fd5b5061051d611b56565b3480156109da57600080fd5b506104a366b1a2bc2ec5000081565b3480156109f557600080fd5b506105a0610a04366004613814565b611b65565b348015610a1557600080fd5b5061054a610a24366004613403565b611c17565b348015610a3557600080fd5b506104a36722b1c8c1227a000081565b348015610a5157600080fd5b506104a368015af1d78b58c4000081565b348015610a6e57600080fd5b506104f05461054a906001600160a01b031681565b348015610a8f57600080fd5b5061057361251c81565b348015610aa557600080fd5b506104d9611c42565b348015610aba57600080fd5b506105a0610ac93660046137b9565b611c7b565b348015610ada57600080fd5b506104ed546105739061ffff1681565b348015610af657600080fd5b506105a0611e83565b348015610b0b57600080fd5b506105a0610b1a3660046135a3565b612085565b348015610b2b57600080fd5b506105a0610b3a3660046138de565b6120df565b348015610b4b57600080fd5b506104f25461054a906001600160a01b031681565b348015610b6c57600080fd5b506105a0610b7b366004613566565b612119565b348015610b8c57600080fd5b5061051d610b9b366004613403565b612184565b348015610bac57600080fd5b506104fc546104d99062010000900460ff1681565b348015610bcd57600080fd5b506105a0610bdc36600461397c565b6122c8565b348015610bed57600080fd5b506104a36104ee5481565b348015610c0457600080fd5b506104d9610c1336600461399d565b6124ca565b348015610c2457600080fd5b506105a0610c333660046135a3565b6125de565b348015610c4457600080fd5b506105a0610c533660046137b9565b612637565b348015610c6457600080fd5b506105a0610c733660046135a3565b612875565b348015610c8457600080fd5b506104d9610c93366004613403565b6128c9565b60006001600160e01b031982167f80ac58cd000000000000000000000000000000000000000000000000000000001480610cfb57506001600160e01b031982167f5b5e139f00000000000000000000000000000000000000000000000000000000145b80610d2f57506001600160e01b031982167f780e9d6300000000000000000000000000000000000000000000000000000000145b80610d6357507f01ffc9a7000000000000000000000000000000000000000000000000000000006001600160e01b03198316145b92915050565b606060018054610d78906139e6565b80601f0160208091040260200160405190810160405280929190818152602001828054610da4906139e6565b8015610df15780601f10610dc657610100808354040283529160200191610df1565b820191906000526020600020905b815481529060010190602001808311610dd457829003601f168201915b5050505050905090565b6000610e06826128db565b610e3c576040517fcf4700e400000000000000000000000000000000000000000000000000000000815260040160405180910390fd5b506000908152600560205260409020546001600160a01b031690565b6000610e6382611a94565b9050806001600160a01b0316836001600160a01b03161415610eb1576040517f943f7b8c00000000000000000000000000000000000000000000000000000000815260040160405180910390fd5b336001600160a01b03821614801590610ed15750610ecf81336124ca565b155b15610f08576040517fcfb3b94200000000000000000000000000000000000000000000000000000000815260040160405180910390fd5b610f1383838361290f565b505050565b600060026008541415610f465760405162461bcd60e51b8152600401610f3d90613a47565b60405180910390fd5b6002600855610f53611c42565b610f6f5760405162461bcd60e51b8152600401610f3d90613a89565b610f856000546001600160801b03166127101490565b610fa15760405162461bcd60e51b8152600401610f3d90613acb565b6104fc5462010000900460ff16610fb957600a610fc5565b610fc56014600a613af1565b6104fc5460ff9190911661ffff90911610610ff25760405162461bcd60e51b8152600401610f3d90613b49565b42603c6104f7546110039190613b59565b11158061101557506104fc5461ffff16155b6110315760405162461bcd60e51b8152600401610f3d90613b9c565b426104f7556104fc54600090600a61ffff90911610611058576722b1c8c1227a0000611063565b68015af1d78b58c400005b6104fc805491925061ffff90911690600061107d83613bac565b825461ffff9182166101009390930a9283029190920219909116179055506104f4546104f6546104f8546040517f5d3b1d300000000000000000000000000000000000000000000000000000000081526000936001600160a01b031692635d3b1d30926111049267ffffffffffffffff909116906005906207a12090600190600401613c13565b6020604051808303816000875af1158015611123573d6000803e3d6000fd5b505050506040513d601f19601f820116820180604052508101906111479190613c6a565b60008181526104fb6020526040902092909255509050600160085590565b6007546001600160a01b0316331461118f5760405162461bcd60e51b8152600401610f3d90613cbb565b6104f280546001600160a01b0390921673ffffffffffffffffffffffffffffffffffffffff1992831681179091556104f38054909216179055565b60006104ee54421180156111e057506104ee5415155b80156111fc575062093a806104ee546111f99190613b59565b42105b905090565b6007546001600160a01b0316331461122b5760405162461bcd60e51b8152600401610f3d90613cbb565b6104f0805473ffffffffffffffffffffffffffffffffffffffff19166001600160a01b0392909216919091179055565b600981612710811061126c57600080fd5b60209182820401919006915054906101000a900460ff1681565b336001600160a01b037f0000000000000000000000000000000000000000000000000000000000000000161461130c57337f00000000000000000000000000000000000000000000000000000000000000006040517f1cf993f4000000000000000000000000000000000000000000000000000000008152600401610f3d929190613ccb565b6113168282612978565b5050565b610f13838383612b00565b6007546001600160a01b0316331461134f5760405162461bcd60e51b8152600401610f3d90613cbb565b6104f4546104f8546040517fd7ae1d300000000000000000000000000000000000000000000000000000000081526001600160a01b039092169163d7ae1d30916113aa9167ffffffffffffffff909116903390600401613ce6565b600060405180830381600087803b1580156113c457600080fd5b505af11580156113d8573d6000803e3d6000fd5b50506104f8805467ffffffffffffffff191690555050565b60006113fb83611ab8565b8210611433576040517f0ddac30e00000000000000000000000000000000000000000000000000000000815260040160405180910390fd5b600080546001600160801b03169080805b8381101561150057600081815260036020908152604091829020825160608101845290546001600160a01b0381168252600160a01b810467ffffffffffffffff1692820192909252600160e01b90910460ff1615801592820192909252906114ac57506114f8565b80516001600160a01b0316156114c157805192505b876001600160a01b0316836001600160a01b031614156114f657868414156114ef57509350610d6392505050565b6001909301925b505b600101611444565b50600080fd5b6007546001600160a01b031633146115305760405162461bcd60e51b8152600401610f3d90613cbb565b6104fc5462010000900460ff1661154857600a611554565b6115546014600a613af1565b6104fc5461ffff1660ff919091161480611589575062093a80806104ee5461157c9190613b59565b6115869190613b59565b42115b6115a55760405162461bcd60e51b8152600401610f3d90613d4e565b604051600090339047908381818185875af1925050503d80600081146115e7576040519150601f19603f3d011682016040523d82523d6000602084013e6115ec565b606091505b505090508061160d5760405162461bcd60e51b8152600401610f3d90613d90565b50565b610f13838383604051806020016040528060008152506120df565b6002600854141561164e5760405162461bcd60e51b8152600401610f3d90613a47565b600260085560005b818110156116915761167f83838381811061167357611673613da0565b905060200201356117ac565b8061168981613db6565b915050611656565b5050600160085550565b6000610d63826128db565b600080546001600160801b031681805b8281101561173757600081815260036020908152604091829020825160608101845290546001600160a01b0381168252600160a01b810467ffffffffffffffff1692820192909252600160e01b90910460ff1615159181018290529061172e57858314156117275750949350505050565b6001909201915b506001016116b6565b506040517fa723001c00000000000000000000000000000000000000000000000000000000815260040160405180910390fd5b61027b81612710811061126c57600080fd5b6007546001600160a01b031633146117a65760405162461bcd60e51b8152600401610f3d90613cbb565b6104ee55565b600260085414156117cf5760405162461bcd60e51b8152600401610f3d90613a47565b6002600855336117de82611a94565b6001600160a01b0316146118045760405162461bcd60e51b8152600401610f3d90613dfc565b61014281612710811061181957611819613da0565b602081049091015460ff601f9092166101000a9004161561014282612710811061184557611845613da0565b602091828204019190066101000a81548160ff021916908315150217905550600160088190555050565b6118776111ca565b6118935760405162461bcd60e51b8152600401610f3d90613e3e565b600260085414156118b65760405162461bcd60e51b8152600401610f3d90613a47565b60026008556118cc8166b1a2bc2ec50000613e4e565b34146118ea5760405162461bcd60e51b8152600401610f3d90613e9f565b6118f76127106001613b59565b60005461190e9083906001600160801b0316613b59565b1061192b5760405162461bcd60e51b8152600401610f3d90613f07565b60148161193733611ab8565b6119419190613b59565b111561195f5760405162461bcd60e51b8152600401610f3d90613f6f565b6119693382612d68565b506001600855565b600260085414156119945760405162461bcd60e51b8152600401610f3d90613a47565b6002600855336119a382611a94565b6001600160a01b0316146119c95760405162461bcd60e51b8152600401610f3d90613fb1565b61027b8161271081106119de576119de613da0565b602081049091015460ff601f9092166101000a9004161561027b826127108110611a0a57611a0a613da0565b602091828204019190066101000a81548160ff02191690831515021790555061027b816127108110611a3e57611a3e613da0565b602081049091015460ff601f9092166101000a900416611a69576104ed5461ffff1660001901611a75565b6104ed5461ffff166001015b6104ed805461ffff191661ffff92909216919091179055611969612e88565b6000611a9f82612f14565b5192915050565b6103b481612710811061126c57600080fd5b60006001600160a01b038216611afa576040517f8f4eb60400000000000000000000000000000000000000000000000000000000815260040160405180910390fd5b506001600160a01b031660009081526004602052604090205467ffffffffffffffff1690565b6007546001600160a01b03163314611b4a5760405162461bcd60e51b8152600401610f3d90613cbb565b611b546000613051565b565b606060028054610d78906139e6565b6001600160a01b038216331415611ba8576040517fb06307db00000000000000000000000000000000000000000000000000000000815260040160405180910390fd5b3360008181526006602090815260408083206001600160a01b038716808552925291829020805460ff191685151517905590519091907f17307eab39ab6107e8899845ad3d59bd9653f200f220920489ca2b5937696c3190611c0b90859061347e565b60405180910390a35050565b6104fa8181548110611c2857600080fd5b6000918252602090912001546001600160a01b0316905081565b6000611c4c6111ca565b1580156111fc57506201518062093a806104ee54611c6a9190613b59565b611c749190613b59565b4211905090565b60026008541415611c9e5760405162461bcd60e51b8152600401610f3d90613a47565b6002600855600061027b83838381611cb857611cb8613da0565b905060200201356127108110611cd057611cd0613da0565b602081049091015460ff601f9092166101000a900416905060005b82811015611e435733611d15858584818110611d0957611d09613da0565b90506020020135611a94565b6001600160a01b031614611d3b5760405162461bcd60e51b8152600401610f3d90613fb1565b61027b848483818110611d5057611d50613da0565b905060200201356127108110611d6857611d68613da0565b602091828204019190069054906101000a900460ff16151582151514611da05760405162461bcd60e51b8152600401610f3d90614019565b61027b848483818110611db557611db5613da0565b905060200201356127108110611dcd57611dcd613da0565b602081049091015460ff601f9092166101000a9004161561027b858584818110611df957611df9613da0565b905060200201356127108110611e1157611e11613da0565b602091828204019190066101000a81548160ff0219169083151502179055508080611e3b90613db6565b915050611ceb565b5080611e59576104ed5461ffff16829003611e64565b6104ed5461ffff1682015b6104ed805461ffff191661ffff92909216919091179055611691612e88565b60026008541415611ea65760405162461bcd60e51b8152600401610f3d90613a47565b60026008556104ee54611ebd9062093a8090613b59565b42118015611ee6575062093a80806104ee54611ed99190613b59565b611ee39190613b59565b42105b611f025760405162461bcd60e51b8152600401610f3d9061405b565b611f186000546001600160801b03166127101490565b15611f355760405162461bcd60e51b8152600401610f3d9061409d565b6000805b611f4233611ab8565b811015611ff3576000611f5533836113f0565b90506032811015611f665750611fe1565b6103b4816127108110611f7b57611f7b613da0565b602081049091015460ff601f9092166101000a900416611fdf57611fa666b1a2bc2ec5000084613b59565b925060016103b4826127108110611fbf57611fbf613da0565b602091828204019190066101000a81548160ff0219169083151502179055505b505b80611feb81613db6565b915050611f39565b50600081116120145760405162461bcd60e51b8152600401610f3d906140df565b604051600090339083908381818185875af1925050503d8060008114612056576040519150601f19603f3d011682016040523d82523d6000602084013e61205b565b606091505b505090508061207c5760405162461bcd60e51b8152600401610f3d90613d90565b50506001600855565b6007546001600160a01b031633146120af5760405162461bcd60e51b8152600401610f3d90613cbb565b6104ef805473ffffffffffffffffffffffffffffffffffffffff19166001600160a01b0392909216919091179055565b6120ea848484612b00565b6120f6848484846130b0565b612113576040516368d2bf6b60e11b815260040160405180910390fd5b50505050565b6007546001600160a01b031633146121435760405162461bcd60e51b8152600401610f3d90613cbb565b60005460329061215c906001600160801b031683613b59565b111561217a5760405162461bcd60e51b8152600401610f3d90614147565b6113168282612d68565b606061218f826128db565b6121ab5760405162461bcd60e51b8152600401610f3d906141af565b6104f2546001600160a01b03166121d057505060408051602081019091526000815290565b6104f3546001600160a01b0316632da7b4e98360098161271081106121f7576121f7613da0565b602081049091015460ff601f9092166101000a90041661014286612710811061222257612222613da0565b602081049091015460ff601f9092166101000a9004161561027b87612710811061224e5761224e613da0565b602091828204019190069054906101000a900460ff166040518563ffffffff1660e01b815260040161228394939291906141bf565b600060405180830381865afa1580156122a0573d6000803e3d6000fd5b505050506040513d6000823e601f3d908101601f19168201604052610d639190810190614255565b6007546001600160a01b031633146122f25760405162461bcd60e51b8152600401610f3d90613cbb565b6104f85467ffffffffffffffff1661241e576104f460009054906101000a90046001600160a01b03166001600160a01b031663a21a23e46040518163ffffffff1660e01b81526004016020604051808303816000875af115801561235a573d6000803e3d6000fd5b505050506040513d601f19601f8201168201806040525081019061237e91906142ab565b6104f8805467ffffffffffffffff191667ffffffffffffffff9290921691821790556104f4546040517f7341c10c0000000000000000000000000000000000000000000000000000000081526001600160a01b0390911691637341c10c916123eb91903090600401613ce6565b600060405180830381600087803b15801561240557600080fd5b505af1158015612419573d6000803e3d6000fd5b505050505b6104f5546104f4546104f8546040516001600160a01b0393841693634000aea0931691859161245a9167ffffffffffffffff16906020016142cc565b6040516020818303038152906040526040518463ffffffff1660e01b8152600401612487939291906142fd565b6020604051808303816000875af11580156124a6573d6000803e3d6000fd5b505050506040513d601f19601f820116820180604052508101906113169190614335565b6104ef546040517fc45527910000000000000000000000000000000000000000000000000000000081526000916001600160a01b03169063c45527919061251590869060040161352c565b602060405180830381865afa158015612532573d6000803e3d6000fd5b505050506040513d601f19601f820116820180604052508101906125569190614375565b6001600160a01b0316826001600160a01b0316148061258357506104f0546001600160a01b038381169116145b806125a757506001600160a01b03821660009081526104f1602052604090205460ff165b806125d757506001600160a01b0380841660009081526006602090815260408083209386168352929052205460ff165b9392505050565b6007546001600160a01b031633146126085760405162461bcd60e51b8152600401610f3d90613cbb565b6001600160a01b03811661262e5760405162461bcd60e51b8152600401610f3d906143ee565b61160d81613051565b6002600854141561265a5760405162461bcd60e51b8152600401610f3d90613a47565b60026008556104ee546126719062093a8090613b59565b4211801561269a575062093a80806104ee5461268d9190613b59565b6126979190613b59565b42105b6126b65760405162461bcd60e51b8152600401610f3d9061405b565b6126cc6000546001600160801b03166127101490565b156126e95760405162461bcd60e51b8152600401610f3d9061409d565b6000805b828110156127e157600084848381811061270957612709613da0565b905060200201359050603260ff1681101561272457506127cf565b3361272e82611a94565b6001600160a01b0316146127545760405162461bcd60e51b8152600401610f3d90614456565b6103b481612710811061276957612769613da0565b602081049091015460ff601f9092166101000a9004166127cd5761279466b1a2bc2ec5000084613b59565b925060016103b48261271081106127ad576127ad613da0565b602091828204019190066101000a81548160ff0219169083151502179055505b505b806127d981613db6565b9150506126ed565b50600081116128025760405162461bcd60e51b8152600401610f3d906140df565b604051600090339083908381818185875af1925050503d8060008114612844576040519150601f19603f3d011682016040523d82523d6000602084013e612849565b606091505b505090508061286a5760405162461bcd60e51b8152600401610f3d90613d90565b505060016008555050565b6007546001600160a01b0316331461289f5760405162461bcd60e51b8152600401610f3d90613cbb565b6001600160a01b031660009081526104f160205260409020805460ff19811660ff90911615179055565b61014281612710811061126c57600080fd5b600080546001600160801b031682108015610d63575050600090815260036020526040902054600160e01b900460ff161590565b600082815260056020526040808220805473ffffffffffffffffffffffffffffffffffffffff19166001600160a01b0387811691821790925591518593918516917f8c5be1e5ebec7d5bd14f71427d1e84f3dd0314c0f7b2291e5b200ac8c7c3b92591a4505050565b60008160008151811061298d5761298d613da0565b6020026020010151905060006129aa612710836108c6919061447c565b90505b6001600160a01b03811660009081526104f960205260409020541515806129f65750601e6129dd6127108461447c565b101580156129f6575060326129f46127108461447c565b105b15612a185760019190911c90612a116108c66127108461447c565b90506129ad565b6104fa8054600181019091557f8578dec3a67e7958cbaf1c107c9cc5bc02ef32c21e168feb34624eda0e7c58ae01805473ffffffffffffffffffffffffffffffffffffffff19166001600160a01b03831690811790915560008581526104fb60208181526040808420548585526104f9835281852081905589855292909152519192918381818185875af1925050503d8060008114612ad3576040519150601f19603f3d011682016040523d82523d6000602084013e612ad8565b606091505b5050905080612af95760405162461bcd60e51b8152600401610f3d906144c2565b5050505050565b6000612b0b82612f14565b80519091506000906001600160a01b0316336001600160a01b03161480612b3957508151612b3990336124ca565b80612b54575033612b4984610dfb565b6001600160a01b0316145b905080612b8d576040517f59c896be00000000000000000000000000000000000000000000000000000000815260040160405180910390fd5b846001600160a01b031682600001516001600160a01b031614612bdc576040517fa114810000000000000000000000000000000000000000000000000000000000815260040160405180910390fd5b6001600160a01b038416612c1c576040517fea553b3400000000000000000000000000000000000000000000000000000000815260040160405180910390fd5b612c2c600084846000015161290f565b6001600160a01b038581166000908152600460209081526040808320805467ffffffffffffffff1980821667ffffffffffffffff92831660001901831617909255898616808652838620805493841693831660019081018416949094179055898652600390945282852080546001600160e01b031916909417600160a01b429092169190910217909255908601808352912054909116612d21576000546001600160801b0316811015612d21578251600082815260036020908152604090912080549186015167ffffffffffffffff16600160a01b026001600160e01b03199092166001600160a01b03909316929092171790555b5082846001600160a01b0316866001600160a01b03167fddf252ad1be2c89b69c2b068fc378daa952ba7f163c4a11628f55a4df523b3ef60405160405180910390a4612af9565b60208110612d885760405162461bcd60e51b8152600401610f3d9061452a565b60008133344244604051602001612da3959493929190614568565b60405160208183030381529060405280519060200120905060005b82811015612e7d5760008054612dde9083906001600160801b0316613b59565b9050828260208110612df257612df2613da0565b1a6009826127108110612e0757612e07613da0565b602091828204019190066101000a81548160ff021916908360ff160217905550600281612e34919061447c565b1561027b826127108110612e4a57612e4a613da0565b602091828204019190066101000a81548160ff021916908315150217905550508080612e7590613db6565b915050612dbe565b50610f1383836131e2565b426201518062093a806104ee54612e9f9190613b59565b612ea99190613b59565b118015612edf57506104ed5461251c61ffff909116101580612edf5750612ed461251c6127106145b2565b6104ed5461ffff1611155b15611b54576104fc80547fffffffffffffffffffffffffffffffffffffffffffffffffffffffffff00ffff1662010000179055565b60408051606081018252600080825260208201819052918101829052905482906001600160801b031681101561301f57600081815260036020908152604091829020825160608101845290546001600160a01b0381168252600160a01b810467ffffffffffffffff1692820192909252600160e01b90910460ff1615159181018290529061301d5780516001600160a01b031615612fb3579392505050565b5060001901600081815260036020908152604091829020825160608101845290546001600160a01b038116808352600160a01b820467ffffffffffffffff1693830193909352600160e01b900460ff1615159281019290925215613018579392505050565b612fb3565b505b6040517fdf2d9b4200000000000000000000000000000000000000000000000000000000815260040160405180910390fd5b600780546001600160a01b0383811673ffffffffffffffffffffffffffffffffffffffff19831681179093556040519116919082907f8be0079c531659141344cd1fd0a4f28419497f9722a3daafe3b4186f6b6457e090600090a35050565b60006001600160a01b0384163b156131d6576040517f150b7a020000000000000000000000000000000000000000000000000000000081526001600160a01b0385169063150b7a029061310d9033908990889088906004016145c9565b6020604051808303816000875af1925050508015613148575060408051601f3d908101601f191682019092526131459181019061460e565b60015b6131a3573d808015613176576040519150601f19603f3d011682016040523d82523d6000602084013e61317b565b606091505b50805161319b576040516368d2bf6b60e11b815260040160405180910390fd5b805181602001fd5b6001600160e01b0319167f150b7a02000000000000000000000000000000000000000000000000000000001490506131da565b5060015b949350505050565b611316828260405180602001604052806000815250610f1383838360016000546001600160801b03166001600160a01b03851661324b576040517f2e07630000000000000000000000000000000000000000000000000000000000815260040160405180910390fd5b83613282576040517fb562e8dd00000000000000000000000000000000000000000000000000000000815260040160405180910390fd5b6001600160a01b038516600081815260046020908152604080832080547fffffffffffffffffffffffffffffffff00000000000000000000000000000000811667ffffffffffffffff8083168c0181169182176801000000000000000067ffffffffffffffff1990941690921783900481168c018116909202179091558584526003909252822080546001600160e01b031916909317600160a01b42909216919091021790915581905b858110156133ad5760405182906001600160a01b038916906000907fddf252ad1be2c89b69c2b068fc378daa952ba7f163c4a11628f55a4df523b3ef908290a4838015613383575061338160008884886130b0565b155b156133a1576040516368d2bf6b60e11b815260040160405180910390fd5b6001918201910161332c565b50600080547fffffffffffffffffffffffffffffffff00000000000000000000000000000000166001600160801b0392909216919091179055612af9565b805b811461160d57600080fd5b8035610d63816133eb565b60006020828403121561341857613418600080fd5b60006131da84846133f8565b805b82525050565b60208101610d638284613424565b6001600160e01b031981166133ed565b8035610d638161343a565b60006020828403121561346a5761346a600080fd5b60006131da848461344a565b801515613426565b60208101610d638284613476565b60ff8116613426565b60208101610d63828461348c565b60005b838110156134be5781810151838201526020016134a6565b838111156121135750506000910152565b60006134d9825190565b8084526020840193506134f08185602086016134a3565b601f01601f19169290920192915050565b602080825281016125d781846134cf565b60006001600160a01b038216610d63565b61342681613512565b60208101610d638284613523565b61ffff8116613426565b60208101610d63828461353a565b6133ed81613512565b8035610d6381613552565b6000806040838503121561357c5761357c600080fd5b6000613588858561355b565b9250506020613599858286016133f8565b9150509250929050565b6000602082840312156135b8576135b8600080fd5b60006131da848461355b565b634e487b7160e01b600052604160045260246000fd5b601f19601f830116810181811067ffffffffffffffff82111715613600576136006135c4565b6040525050565b600061361260405190565b905061361e82826135da565b919050565b600067ffffffffffffffff82111561363d5761363d6135c4565b5060209081020190565b600061365a61365584613623565b613607565b8381529050602080820190840283018581111561367957613679600080fd5b835b8181101561369b5761368d87826133f8565b83526020928301920161367b565b5050509392505050565b600082601f8301126136b9576136b9600080fd5b81356131da848260208601613647565b600080604083850312156136df576136df600080fd5b60006136eb85856133f8565b925050602083013567ffffffffffffffff81111561370b5761370b600080fd5b613599858286016136a5565b60008060006060848603121561372f5761372f600080fd5b600061373b868661355b565b935050602061374c8682870161355b565b925050604061375d868287016133f8565b9150509250925092565b60008083601f84011261377c5761377c600080fd5b50813567ffffffffffffffff81111561379757613797600080fd5b6020830191508360208202830111156137b2576137b2600080fd5b9250929050565b600080602083850312156137cf576137cf600080fd5b823567ffffffffffffffff8111156137e9576137e9600080fd5b6137f585828601613767565b92509250509250929050565b8015156133ed565b8035610d6381613801565b6000806040838503121561382a5761382a600080fd5b6000613836858561355b565b925050602061359985828601613809565b600067ffffffffffffffff821115613861576138616135c4565b601f19601f83011660200192915050565b82818337506000910152565b600061388c61365584613847565b9050828152602081018484840111156138a7576138a7600080fd5b6138b2848285613872565b509392505050565b600082601f8301126138ce576138ce600080fd5b81356131da84826020860161387e565b600080600080608085870312156138f7576138f7600080fd5b6000613903878761355b565b94505060206139148782880161355b565b9350506040613925878288016133f8565b925050606085013567ffffffffffffffff81111561394557613945600080fd5b613951878288016138ba565b91505092959194509250565b6bffffffffffffffffffffffff81166133ed565b8035610d638161395d565b60006020828403121561399157613991600080fd5b60006131da8484613971565b600080604083850312156139b3576139b3600080fd5b60006139bf858561355b565b92505060206135998582860161355b565b634e487b7160e01b600052602260045260246000fd5b6002810460018216806139fa57607f821691505b60208210811415613a0d57613a0d6139d0565b50919050565b601f8152602081017f5265656e7472616e637947756172643a207265656e7472616e742063616c6c00815290505b60200190565b60208082528101610d6381613a13565b600f8152602081017f44726177206e6f7420616374697665000000000000000000000000000000000081529050613a41565b60208082528101610d6381613a57565b601a8152602081017f436f2d426f747320617265206e6f74206d696e746564206f757400000000000081529050613a41565b60208082528101610d6381613a99565b634e487b7160e01b600052601160045260246000fd5b60ff8116905060ff8216915060008260ff03821115613b1257613b12613adb565b500190565b60128152602081017f44726177206c696d69742072656163686564000000000000000000000000000081529050613a41565b60208082528101610d6381613b17565b60008219821115613b1257613b12613adb565b60208082527f44726177732074616b6520706c616365206f6e636520706572206d696e7574659101908152613a41565b60208082528101610d6381613b6c565b61ffff81169050600061ffff821415613bc757613bc7613adb565b5060010190565b67ffffffffffffffff8116613426565b6000610d6382613bec565b90565b61ffff1690565b61342681613bde565b600063ffffffff8216610d63565b61342681613bfc565b60a08101613c218288613424565b613c2e6020830187613bce565b613c3b6040830186613bf3565b613c486060830185613c0a565b613c556080830184613c0a565b9695505050505050565b8051610d63816133eb565b600060208284031215613c7f57613c7f600080fd5b60006131da8484613c5f565b60208082527f4f776e61626c653a2063616c6c6572206973206e6f7420746865206f776e65729101908152613a41565b60208082528101610d6381613c8b565b60408101613cd98285613523565b6125d76020830184613523565b60408101613cd98285613bce565b602e8152602081017f4465762063616e6e6f74207769746864726177206265666f726520746865206581527f6e64206f66207468652067616d65000000000000000000000000000000000000602082015290505b60400190565b60208082528101610d6381613cf4565b60118152602081017f5769746864726177616c206661696c656400000000000000000000000000000081529050613a41565b60208082528101610d6381613d5e565b634e487b7160e01b600052603260045260246000fd5b6000600019821415613bc757613bc7613adb565b601c8152602081017f4f6e6c79206f776e65722063616e20746f67676c65207374617475730000000081529050613a41565b60208082528101610d6381613dca565b60148152602081017f5075626c69632073616c65206e6f74206f70656e00000000000000000000000081529050613a41565b60208082528101610d6381613e0c565b6000816000190483118215151615613e6857613e68613adb565b500290565b60148152602081017f507269636520646f6573206e6f74206d6174636800000000000000000000000081529050613a41565b60208082528101610d6381613e6d565b60358152602081017f546865726520617265206e6f7420656e6f75676820436f2d426f7473206c656681527f7420746f206d696e74207468617420616d6f756e74000000000000000000000060208201529050613d48565b60208082528101610d6381613eaf565b603b8152602081017f436f2d426f74733a2074686520726571756573746564207175616e746974792081527f6578636565647320746865206d6178696d756d20616c6c6f776564000000000060208201529050613d48565b60208082528101610d6381613f17565b601b8152602081017f4f6e6c79206f776e65722063616e20746f67676c6520636f6c6f72000000000081529050613a41565b60208082528101610d6381613f7f565b60288152602081017f546f67676c696e6720636f6c6f727320696e2074776f20646966666572656e7481527f20636f6c6f72732100000000000000000000000000000000000000000000000060208201529050613d48565b60208082528101610d6381613fc1565b60168152602081017f526566756e6420706572696f64206e6f74206f70656e0000000000000000000081529050613a41565b60208082528101610d6381614029565b60168152602081017f436f2d426f747320617265206d696e746564206f75740000000000000000000081529050613a41565b60208082528101610d638161406b565b60148152602081017f4e6f20436f2d426f747320746f20726566756e6400000000000000000000000081529050613a41565b60208082528101610d63816140ad565b60318152602081017f5175616e74697479206578636565647320666f756e6465727320616e6420676981527f7665617761797320616c6c6f77616e636500000000000000000000000000000060208201529050613d48565b60208082528101610d63816140ef565b60278152602081017f4552433732313a2055524920717565727920666f72206e6f6e6578697374656e81527f7420746f6b656e0000000000000000000000000000000000000000000000000060208201529050613d48565b60208082528101610d6381614157565b608081016141cd8287613424565b6141da602083018661348c565b6141e76040830185613476565b6141f46060830184613476565b95945050505050565b600061420b61365584613847565b90508281526020810184848401111561422657614226600080fd5b6138b28482856134a3565b600082601f83011261424557614245600080fd5b81516131da8482602086016141fd565b60006020828403121561426a5761426a600080fd5b815167ffffffffffffffff81111561428457614284600080fd5b6131da84828501614231565b67ffffffffffffffff81166133ed565b8051610d6381614290565b6000602082840312156142c0576142c0600080fd5b60006131da84846142a0565b60208101610d638284613bce565b6000610d63613be96bffffffffffffffffffffffff841681565b613426816142da565b6060810161430b8286613523565b61431860208301856142f4565b81810360408301526141f481846134cf565b8051610d6381613801565b60006020828403121561434a5761434a600080fd5b60006131da848461432a565b6000610d6382613512565b6133ed81614356565b8051610d6381614361565b60006020828403121561438a5761438a600080fd5b60006131da848461436a565b60268152602081017f4f776e61626c653a206e6577206f776e657220697320746865207a65726f206181527f646472657373000000000000000000000000000000000000000000000000000060208201529050613d48565b60208082528101610d6381614396565b60348152602081017f596f752063616e6e6f7420636c61696d206120726566756e6420666f7220612081527f746f6b656e20796f7520646f206e6f74206f776e00000000000000000000000060208201529050613d48565b60208082528101610d63816143fe565b634e487b7160e01b600052601260045260246000fd5b60008261448b5761448b614466565b500690565b60108152602081017f5472616e73666572206661696c65642e0000000000000000000000000000000081529050613a41565b60208082528101610d6381614490565b60258152602081017f546f6f206d616e7920436f2d426f747320746f206d696e7420696e206f6e652081527f626174636800000000000000000000000000000000000000000000000000000060208201529050613d48565b60208082528101610d63816144d2565b80613426565b6000610d638260601b90565b6000610d6382614540565b61342661456382613512565b61454c565b614572818761453a565b60200161457f8186614557565b60140161458c818561453a565b602001614599818461453a565b6020016145a6818361453a565b60200195945050505050565b6000828210156145c4576145c4613adb565b500390565b608081016145d78287613523565b6145e46020830186613523565b6145f16040830185613424565b8181036060830152613c5581846134cf565b8051610d638161343a565b60006020828403121561462357614623600080fd5b60006131da848461460356fea2646970667358221220129fb2019894a1f3624571216d0eec1d541f8105bae0f229aa75a5059638408364736f6c634300080c0033",
  "devdoc": {
    "kind": "dev",
    "methods": {
      "approve(address,uint256)": {
        "details": "See {IERC721-approve}."
      },
      "balanceOf(address)": {
        "details": "See {IERC721-balanceOf}."
      },
      "getApproved(uint256)": {
        "details": "See {IERC721-getApproved}."
      },
      "isApprovedForAll(address,address)": {
        "details": "Modified for opensea and looksrare pre-approve."
      },
      "name()": {
        "details": "See {IERC721Metadata-name}."
      },
      "owner()": {
        "details": "Returns the address of the current owner."
      },
      "ownerOf(uint256)": {
        "details": "See {IERC721-ownerOf}."
      },
      "renounceOwnership()": {
        "details": "Leaves the contract without owner. It will not be possible to call `onlyOwner` functions anymore. Can only be called by the current owner. NOTE: Renouncing ownership will leave the contract without an owner, thereby removing any functionality that is only available to the owner."
      },
      "safeTransferFrom(address,address,uint256)": {
        "details": "See {IERC721-safeTransferFrom}."
      },
      "safeTransferFrom(address,address,uint256,bytes)": {
        "details": "See {IERC721-safeTransferFrom}."
      },
      "setApprovalForAll(address,bool)": {
        "details": "See {IERC721-setApprovalForAll}."
      },
      "supportsInterface(bytes4)": {
        "details": "See {IERC165-supportsInterface}."
      },
      "symbol()": {
        "details": "See {IERC721Metadata-symbol}."
      },
      "tokenByIndex(uint256)": {
        "details": "See {IERC721Enumerable-tokenByIndex}. This read function is O(totalSupply). If calling from a separate contract, be sure to test gas first. It may also degrade with extremely large collection sizes (e.g >> 10000), test for your use case."
      },
      "tokenOfOwnerByIndex(address,uint256)": {
        "details": "See {IERC721Enumerable-tokenOfOwnerByIndex}. This read function is O(totalSupply). If calling from a separate contract, be sure to test gas first. It may also degrade with extremely large collection sizes (e.g >> 10000), test for your use case."
      },
      "totalSupply()": {
        "details": "See {IERC721Enumerable-totalSupply}."
      },
      "transferFrom(address,address,uint256)": {
        "details": "See {IERC721-transferFrom}."
      },
      "transferOwnership(address)": {
        "details": "Transfers ownership of the contract to a new account (`newOwner`). Can only be called by the current owner."
      }
    },
    "version": 1
  },
  "userdoc": {
    "kind": "user",
    "methods": {
      "flipProxyState(address)": {
        "notice": "Approve the communication and interaction with cross-collection interactions."
      },
      "setLooksrare(address)": {
        "notice": "Set looksrare to `looksrare_`."
      },
      "setOpensea(address)": {
        "notice": "Set opensea to `opensea_`."
      }
    },
    "version": 1
  },
  "storageLayout": {
    "storage": [
      {
        "astId": 8182,
        "contract": "contracts/co-bots/CoBots.sol:CoBots",
        "label": "_currentIndex",
        "offset": 0,
        "slot": "0",
        "type": "t_uint128"
      },
      {
        "astId": 8184,
        "contract": "contracts/co-bots/CoBots.sol:CoBots",
        "label": "_burnCounter",
        "offset": 16,
        "slot": "0",
        "type": "t_uint128"
      },
      {
        "astId": 8186,
        "contract": "contracts/co-bots/CoBots.sol:CoBots",
        "label": "_name",
        "offset": 0,
        "slot": "1",
        "type": "t_string_storage"
      },
      {
        "astId": 8188,
        "contract": "contracts/co-bots/CoBots.sol:CoBots",
        "label": "_symbol",
        "offset": 0,
        "slot": "2",
        "type": "t_string_storage"
      },
      {
        "astId": 8193,
        "contract": "contracts/co-bots/CoBots.sol:CoBots",
        "label": "_ownerships",
        "offset": 0,
        "slot": "3",
        "type": "t_mapping(t_uint256,t_struct(TokenOwnership)8173_storage)"
      },
      {
        "astId": 8198,
        "contract": "contracts/co-bots/CoBots.sol:CoBots",
        "label": "_addressData",
        "offset": 0,
        "slot": "4",
        "type": "t_mapping(t_address,t_struct(AddressData)8180_storage)"
      },
      {
        "astId": 8202,
        "contract": "contracts/co-bots/CoBots.sol:CoBots",
        "label": "_tokenApprovals",
        "offset": 0,
        "slot": "5",
        "type": "t_mapping(t_uint256,t_address)"
      },
      {
        "astId": 8208,
        "contract": "contracts/co-bots/CoBots.sol:CoBots",
        "label": "_operatorApprovals",
        "offset": 0,
        "slot": "6",
        "type": "t_mapping(t_address,t_mapping(t_address,t_bool))"
      },
      {
        "astId": 4185,
        "contract": "contracts/co-bots/CoBots.sol:CoBots",
        "label": "_owner",
        "offset": 0,
        "slot": "7",
        "type": "t_address"
      },
      {
        "astId": 4293,
        "contract": "contracts/co-bots/CoBots.sol:CoBots",
        "label": "_status",
        "offset": 0,
        "slot": "8",
        "type": "t_uint256"
      },
      {
        "astId": 5140,
        "contract": "contracts/co-bots/CoBots.sol:CoBots",
        "label": "coBotsSeeds",
        "offset": 0,
        "slot": "9",
        "type": "t_array(t_uint8)10000_storage"
      },
      {
        "astId": 5144,
        "contract": "contracts/co-bots/CoBots.sol:CoBots",
        "label": "coBotsStatusDisabled",
        "offset": 0,
        "slot": "322",
        "type": "t_array(t_bool)10000_storage"
      },
      {
        "astId": 5148,
        "contract": "contracts/co-bots/CoBots.sol:CoBots",
        "label": "coBotsColors",
        "offset": 0,
        "slot": "635",
        "type": "t_array(t_bool)10000_storage"
      },
      {
        "astId": 5152,
        "contract": "contracts/co-bots/CoBots.sol:CoBots",
        "label": "coBotsRefunded",
        "offset": 0,
        "slot": "948",
        "type": "t_array(t_bool)10000_storage"
      },
      {
        "astId": 5155,
        "contract": "contracts/co-bots/CoBots.sol:CoBots",
        "label": "coBotsColorAgreement",
        "offset": 0,
        "slot": "1261",
        "type": "t_uint16"
      },
      {
        "astId": 5157,
        "contract": "contracts/co-bots/CoBots.sol:CoBots",
        "label": "publicSaleStartTimestamp",
        "offset": 0,
        "slot": "1262",
        "type": "t_uint256"
      },
      {
        "astId": 5245,
        "contract": "contracts/co-bots/CoBots.sol:CoBots",
        "label": "opensea",
        "offset": 0,
        "slot": "1263",
        "type": "t_address"
      },
      {
        "astId": 5247,
        "contract": "contracts/co-bots/CoBots.sol:CoBots",
        "label": "looksrare",
        "offset": 0,
        "slot": "1264",
        "type": "t_address"
      },
      {
        "astId": 5251,
        "contract": "contracts/co-bots/CoBots.sol:CoBots",
        "label": "proxyToApproved",
        "offset": 0,
        "slot": "1265",
        "type": "t_mapping(t_address,t_bool)"
      },
      {
        "astId": 5336,
        "contract": "contracts/co-bots/CoBots.sol:CoBots",
        "label": "renderingContractAddress",
        "offset": 0,
        "slot": "1266",
        "type": "t_address"
      },
      {
        "astId": 5339,
        "contract": "contracts/co-bots/CoBots.sol:CoBots",
        "label": "renderer",
        "offset": 0,
        "slot": "1267",
        "type": "t_contract(ICoBotsRenderer)7796"
      },
      {
        "astId": 5892,
        "contract": "contracts/co-bots/CoBots.sol:CoBots",
        "label": "COORDINATOR",
        "offset": 0,
        "slot": "1268",
        "type": "t_contract(VRFCoordinatorV2Interface)4116"
      },
      {
        "astId": 5895,
        "contract": "contracts/co-bots/CoBots.sol:CoBots",
        "label": "LINKTOKEN",
        "offset": 0,
        "slot": "1269",
        "type": "t_contract(LinkTokenInterface)4003"
      },
      {
        "astId": 5897,
        "contract": "contracts/co-bots/CoBots.sol:CoBots",
        "label": "gasKeyHash",
        "offset": 0,
        "slot": "1270",
        "type": "t_bytes32"
      },
      {
        "astId": 5899,
        "contract": "contracts/co-bots/CoBots.sol:CoBots",
        "label": "lastDrawTimestamp",
        "offset": 0,
        "slot": "1271",
        "type": "t_uint256"
      },
      {
        "astId": 5901,
        "contract": "contracts/co-bots/CoBots.sol:CoBots",
        "label": "s_subId",
        "offset": 0,
        "slot": "1272",
        "type": "t_uint64"
      },
      {
        "astId": 5905,
        "contract": "contracts/co-bots/CoBots.sol:CoBots",
        "label": "prizePerAddress",
        "offset": 0,
        "slot": "1273",
        "type": "t_mapping(t_address,t_uint256)"
      },
      {
        "astId": 5908,
        "contract": "contracts/co-bots/CoBots.sol:CoBots",
        "label": "winners",
        "offset": 0,
        "slot": "1274",
        "type": "t_array(t_address)dyn_storage"
      },
      {
        "astId": 5912,
        "contract": "contracts/co-bots/CoBots.sol:CoBots",
        "label": "prizePerDraw",
        "offset": 0,
        "slot": "1275",
        "type": "t_mapping(t_uint256,t_uint256)"
      },
      {
        "astId": 5914,
        "contract": "contracts/co-bots/CoBots.sol:CoBots",
        "label": "drawCount",
        "offset": 0,
        "slot": "1276",
        "type": "t_uint16"
      },
      {
        "astId": 5916,
        "contract": "contracts/co-bots/CoBots.sol:CoBots",
        "label": "cooperativeRaffleEnabled",
        "offset": 2,
        "slot": "1276",
        "type": "t_bool"
      }
    ],
    "types": {
      "t_address": {
        "encoding": "inplace",
        "label": "address",
        "numberOfBytes": "20"
      },
      "t_array(t_address)dyn_storage": {
        "base": "t_address",
        "encoding": "dynamic_array",
        "label": "address[]",
        "numberOfBytes": "32"
      },
      "t_array(t_bool)10000_storage": {
        "base": "t_bool",
        "encoding": "inplace",
        "label": "bool[10000]",
        "numberOfBytes": "10016"
      },
      "t_array(t_uint8)10000_storage": {
        "base": "t_uint8",
        "encoding": "inplace",
        "label": "uint8[10000]",
        "numberOfBytes": "10016"
      },
      "t_bool": {
        "encoding": "inplace",
        "label": "bool",
        "numberOfBytes": "1"
      },
      "t_bytes32": {
        "encoding": "inplace",
        "label": "bytes32",
        "numberOfBytes": "32"
      },
      "t_contract(ICoBotsRenderer)7796": {
        "encoding": "inplace",
        "label": "contract ICoBotsRenderer",
        "numberOfBytes": "20"
      },
      "t_contract(LinkTokenInterface)4003": {
        "encoding": "inplace",
        "label": "contract LinkTokenInterface",
        "numberOfBytes": "20"
      },
      "t_contract(VRFCoordinatorV2Interface)4116": {
        "encoding": "inplace",
        "label": "contract VRFCoordinatorV2Interface",
        "numberOfBytes": "20"
      },
      "t_mapping(t_address,t_bool)": {
        "encoding": "mapping",
        "key": "t_address",
        "label": "mapping(address => bool)",
        "numberOfBytes": "32",
        "value": "t_bool"
      },
      "t_mapping(t_address,t_mapping(t_address,t_bool))": {
        "encoding": "mapping",
        "key": "t_address",
        "label": "mapping(address => mapping(address => bool))",
        "numberOfBytes": "32",
        "value": "t_mapping(t_address,t_bool)"
      },
      "t_mapping(t_address,t_struct(AddressData)8180_storage)": {
        "encoding": "mapping",
        "key": "t_address",
        "label": "mapping(address => struct ERC721A.AddressData)",
        "numberOfBytes": "32",
        "value": "t_struct(AddressData)8180_storage"
      },
      "t_mapping(t_address,t_uint256)": {
        "encoding": "mapping",
        "key": "t_address",
        "label": "mapping(address => uint256)",
        "numberOfBytes": "32",
        "value": "t_uint256"
      },
      "t_mapping(t_uint256,t_address)": {
        "encoding": "mapping",
        "key": "t_uint256",
        "label": "mapping(uint256 => address)",
        "numberOfBytes": "32",
        "value": "t_address"
      },
      "t_mapping(t_uint256,t_struct(TokenOwnership)8173_storage)": {
        "encoding": "mapping",
        "key": "t_uint256",
        "label": "mapping(uint256 => struct ERC721A.TokenOwnership)",
        "numberOfBytes": "32",
        "value": "t_struct(TokenOwnership)8173_storage"
      },
      "t_mapping(t_uint256,t_uint256)": {
        "encoding": "mapping",
        "key": "t_uint256",
        "label": "mapping(uint256 => uint256)",
        "numberOfBytes": "32",
        "value": "t_uint256"
      },
      "t_string_storage": {
        "encoding": "bytes",
        "label": "string",
        "numberOfBytes": "32"
      },
      "t_struct(AddressData)8180_storage": {
        "encoding": "inplace",
        "label": "struct ERC721A.AddressData",
        "members": [
          {
            "astId": 8175,
            "contract": "contracts/co-bots/CoBots.sol:CoBots",
            "label": "balance",
            "offset": 0,
            "slot": "0",
            "type": "t_uint64"
          },
          {
            "astId": 8177,
            "contract": "contracts/co-bots/CoBots.sol:CoBots",
            "label": "numberMinted",
            "offset": 8,
            "slot": "0",
            "type": "t_uint64"
          },
          {
            "astId": 8179,
            "contract": "contracts/co-bots/CoBots.sol:CoBots",
            "label": "numberBurned",
            "offset": 16,
            "slot": "0",
            "type": "t_uint64"
          }
        ],
        "numberOfBytes": "32"
      },
      "t_struct(TokenOwnership)8173_storage": {
        "encoding": "inplace",
        "label": "struct ERC721A.TokenOwnership",
        "members": [
          {
            "astId": 8168,
            "contract": "contracts/co-bots/CoBots.sol:CoBots",
            "label": "addr",
            "offset": 0,
            "slot": "0",
            "type": "t_address"
          },
          {
            "astId": 8170,
            "contract": "contracts/co-bots/CoBots.sol:CoBots",
            "label": "startTimestamp",
            "offset": 20,
            "slot": "0",
            "type": "t_uint64"
          },
          {
            "astId": 8172,
            "contract": "contracts/co-bots/CoBots.sol:CoBots",
            "label": "burned",
            "offset": 28,
            "slot": "0",
            "type": "t_bool"
          }
        ],
        "numberOfBytes": "32"
      },
      "t_uint128": {
        "encoding": "inplace",
        "label": "uint128",
        "numberOfBytes": "16"
      },
      "t_uint16": {
        "encoding": "inplace",
        "label": "uint16",
        "numberOfBytes": "2"
      },
      "t_uint256": {
        "encoding": "inplace",
        "label": "uint256",
        "numberOfBytes": "32"
      },
      "t_uint64": {
        "encoding": "inplace",
        "label": "uint64",
        "numberOfBytes": "8"
      },
      "t_uint8": {
        "encoding": "inplace",
        "label": "uint8",
        "numberOfBytes": "1"
      }
    }
  }
}