{
  "address": "0x13b46dE0468eA323A9D6E581Bed123ed5D841eAB",
  "abi": [
    {
      "inputs": [
        {
          "internalType": "string",
          "name": "name_",
          "type": "string"
        },
        {
          "internalType": "string",
          "name": "symbol_",
          "type": "string"
        },
        {
          "internalType": "address",
          "name": "_rendererAddress",
          "type": "address"
        },
        {
          "internalType": "address",
          "name": "vrfCoordinator",
          "type": "address"
        },
        {
          "internalType": "address",
          "name": "link",
          "type": "address"
        },
        {
          "internalType": "bytes32",
          "name": "keyHash",
          "type": "bytes32"
        },
        {
          "components": [
            {
              "internalType": "uint8",
              "name": "cobotsV1Discount",
              "type": "uint8"
            },
            {
              "internalType": "uint16",
              "name": "mintOutFoundersWithdrawalDelay",
              "type": "uint16"
            },
            {
              "internalType": "uint16",
              "name": "grandPrizeDelay",
              "type": "uint16"
            },
            {
              "internalType": "uint16",
              "name": "maxCobots",
              "type": "uint16"
            },
            {
              "internalType": "uint24",
              "name": "contestDuration",
              "type": "uint24"
            },
            {
              "internalType": "uint72",
              "name": "mintPublicPrice",
              "type": "uint72"
            }
          ],
          "internalType": "struct CoBotsV2.Parameters",
          "name": "_parameters",
          "type": "tuple"
        },
        {
          "components": [
            {
              "internalType": "uint16",
              "name": "checkpoint",
              "type": "uint16"
            },
            {
              "internalType": "uint72",
              "name": "amount",
              "type": "uint72"
            },
            {
              "internalType": "bool",
              "name": "isContest",
              "type": "bool"
            }
          ],
          "internalType": "struct CoBotsV2.Prize[]",
          "name": "_prizes",
          "type": "tuple[]"
        },
        {
          "internalType": "address",
          "name": "ens",
          "type": "address"
        },
        {
          "internalType": "address",
          "name": "cobotsV1",
          "type": "address"
        },
        {
          "components": [
            {
              "internalType": "uint256",
              "name": "ensId",
              "type": "uint256"
            },
            {
              "internalType": "uint256",
              "name": "value",
              "type": "uint256"
            },
            {
              "internalType": "uint8",
              "name": "prizeIndex",
              "type": "uint8"
            }
          ],
          "internalType": "struct CoBotsV2.MysteryChallenge",
          "name": "_mysteryChallenge",
          "type": "tuple"
        }
      ],
      "stateMutability": "nonpayable",
      "type": "constructor"
    },
    {
      "inputs": [],
      "name": "AllocationExceeded",
      "type": "error"
    },
    {
      "inputs": [],
      "name": "ApprovalCallerNotOwnerNorApproved",
      "type": "error"
    },
    {
      "inputs": [],
      "name": "ApprovalQueryForNonexistentToken",
      "type": "error"
    },
    {
      "inputs": [],
      "name": "ApprovalToCurrentOwner",
      "type": "error"
    },
    {
      "inputs": [],
      "name": "ApproveToCaller",
      "type": "error"
    },
    {
      "inputs": [],
      "name": "BalanceQueryForZeroAddress",
      "type": "error"
    },
    {
      "inputs": [],
      "name": "BatchLimitExceeded",
      "type": "error"
    },
    {
      "inputs": [],
      "name": "ChainlinkSubscriptionNotFound",
      "type": "error"
    },
    {
      "inputs": [],
      "name": "FulfillRequestForNonExistentContest",
      "type": "error"
    },
    {
      "inputs": [],
      "name": "FulfillRequestWithTokenNotOwnedByWinner",
      "type": "error"
    },
    {
      "inputs": [],
      "name": "FulfillmentAlreadyFulfilled",
      "type": "error"
    },
    {
      "inputs": [],
      "name": "InsufficientFunds",
      "type": "error"
    },
    {
      "inputs": [],
      "name": "MintToZeroAddress",
      "type": "error"
    },
    {
      "inputs": [],
      "name": "MintZeroQuantity",
      "type": "error"
    },
    {
      "inputs": [],
      "name": "MysteryChallengeSenderDoesNotOwnENS",
      "type": "error"
    },
    {
      "inputs": [],
      "name": "MysteryChallengeValueDoesNotMatch",
      "type": "error"
    },
    {
      "inputs": [],
      "name": "NoGiveawayToTrigger",
      "type": "error"
    },
    {
      "inputs": [
        {
          "internalType": "address",
          "name": "have",
          "type": "address"
        },
        {
          "internalType": "address",
          "name": "want",
          "type": "address"
        }
      ],
      "name": "OnlyCoordinatorCanFulfill",
      "type": "error"
    },
    {
      "inputs": [],
      "name": "OwnerIndexOutOfBounds",
      "type": "error"
    },
    {
      "inputs": [],
      "name": "OwnerQueryForNonexistentToken",
      "type": "error"
    },
    {
      "inputs": [],
      "name": "PublicSaleNotOpen",
      "type": "error"
    },
    {
      "inputs": [],
      "name": "PublicSaleOpen",
      "type": "error"
    },
    {
      "inputs": [],
      "name": "RedeemTokenNotOwner",
      "type": "error"
    },
    {
      "inputs": [],
      "name": "ToggleMettaCallerNotOwner",
      "type": "error"
    },
    {
      "inputs": [],
      "name": "TokenIndexOutOfBounds",
      "type": "error"
    },
    {
      "inputs": [],
      "name": "TotalSupplyExceeded",
      "type": "error"
    },
    {
      "inputs": [],
      "name": "TransferCallerNotOwnerNorApproved",
      "type": "error"
    },
    {
      "inputs": [],
      "name": "TransferFailed",
      "type": "error"
    },
    {
      "inputs": [],
      "name": "TransferFromIncorrectOwner",
      "type": "error"
    },
    {
      "inputs": [],
      "name": "TransferToNonERC721ReceiverImplementer",
      "type": "error"
    },
    {
      "inputs": [],
      "name": "TransferToZeroAddress",
      "type": "error"
    },
    {
      "inputs": [],
      "name": "URIQueryForNonexistentToken",
      "type": "error"
    },
    {
      "inputs": [],
      "name": "WithdrawalFailed",
      "type": "error"
    },
    {
      "inputs": [],
      "name": "WrongPrice",
      "type": "error"
    },
    {
      "anonymous": false,
      "inputs": [
        {
          "indexed": true,
          "internalType": "address",
          "name": "owner",
          "type": "address"
        },
        {
          "indexed": true,
          "internalType": "address",
          "name": "approved",
          "type": "address"
        },
        {
          "indexed": true,
          "internalType": "uint256",
          "name": "tokenId",
          "type": "uint256"
        }
      ],
      "name": "Approval",
      "type": "event"
    },
    {
      "anonymous": false,
      "inputs": [
        {
          "indexed": true,
          "internalType": "address",
          "name": "owner",
          "type": "address"
        },
        {
          "indexed": true,
          "internalType": "address",
          "name": "operator",
          "type": "address"
        },
        {
          "indexed": false,
          "internalType": "bool",
          "name": "approved",
          "type": "bool"
        }
      ],
      "name": "ApprovalForAll",
      "type": "event"
    },
    {
      "anonymous": false,
      "inputs": [
        {
          "indexed": true,
          "internalType": "uint256",
          "name": "requestId",
          "type": "uint256"
        },
        {
          "components": [
            {
              "internalType": "uint16",
              "name": "checkpoint",
              "type": "uint16"
            },
            {
              "internalType": "uint72",
              "name": "amount",
              "type": "uint72"
            },
            {
              "internalType": "bool",
              "name": "isContest",
              "type": "bool"
            }
          ],
          "indexed": false,
          "internalType": "struct CoBotsV2.Prize",
          "name": "prize",
          "type": "tuple"
        }
      ],
      "name": "CheckpointDrawn",
      "type": "event"
    },
    {
      "anonymous": false,
      "inputs": [
        {
          "indexed": true,
          "internalType": "uint256",
          "name": "requestId",
          "type": "uint256"
        },
        {
          "components": [
            {
              "internalType": "uint16",
              "name": "checkpoint",
              "type": "uint16"
            },
            {
              "internalType": "uint72",
              "name": "amount",
              "type": "uint72"
            },
            {
              "internalType": "bool",
              "name": "isContest",
              "type": "bool"
            }
          ],
          "indexed": false,
          "internalType": "struct CoBotsV2.Prize",
          "name": "prize",
          "type": "tuple"
        },
        {
          "components": [
            {
              "internalType": "address",
              "name": "winner",
              "type": "address"
            },
            {
              "internalType": "uint16",
              "name": "tokenId",
              "type": "uint16"
            }
          ],
          "indexed": false,
          "internalType": "struct CoBotsV2.Winner",
          "name": "winner",
          "type": "tuple"
        }
      ],
      "name": "CheckpointFulfilled",
      "type": "event"
    },
    {
      "anonymous": false,
      "inputs": [],
      "name": "GiveawayFinished",
      "type": "event"
    },
    {
      "anonymous": false,
      "inputs": [
        {
          "indexed": true,
          "internalType": "uint256",
          "name": "tokenId",
          "type": "uint256"
        },
        {
          "indexed": false,
          "internalType": "bool",
          "name": "isMetta",
          "type": "bool"
        }
      ],
      "name": "MettaToggled",
      "type": "event"
    },
    {
      "anonymous": false,
      "inputs": [
        {
          "indexed": true,
          "internalType": "address",
          "name": "previousOwner",
          "type": "address"
        },
        {
          "indexed": true,
          "internalType": "address",
          "name": "newOwner",
          "type": "address"
        }
      ],
      "name": "OwnershipTransferred",
      "type": "event"
    },
    {
      "anonymous": false,
      "inputs": [
        {
          "indexed": true,
          "internalType": "address",
          "name": "renderer",
          "type": "address"
        }
      ],
      "name": "RendererContractUpdated",
      "type": "event"
    },
    {
      "anonymous": false,
      "inputs": [
        {
          "indexed": true,
          "internalType": "address",
          "name": "from",
          "type": "address"
        },
        {
          "indexed": true,
          "internalType": "address",
          "name": "to",
          "type": "address"
        },
        {
          "indexed": true,
          "internalType": "uint256",
          "name": "tokenId",
          "type": "uint256"
        }
      ],
      "name": "Transfer",
      "type": "event"
    },
    {
      "anonymous": false,
      "inputs": [
        {
          "indexed": false,
          "internalType": "uint256",
          "name": "amount",
          "type": "uint256"
        }
      ],
      "name": "Withdrawal",
      "type": "event"
    },
    {
      "inputs": [],
      "name": "MINT_BATCH_LIMIT",
      "outputs": [
        {
          "internalType": "uint8",
          "name": "",
          "type": "uint8"
        }
      ],
      "stateMutability": "view",
      "type": "function"
    },
    {
      "inputs": [],
      "name": "MINT_FOUNDERS",
      "outputs": [
        {
          "internalType": "uint8",
          "name": "",
          "type": "uint8"
        }
      ],
      "stateMutability": "view",
      "type": "function"
    },
    {
      "inputs": [],
      "name": "PARAMETERS",
      "outputs": [
        {
          "internalType": "uint8",
          "name": "cobotsV1Discount",
          "type": "uint8"
        },
        {
          "internalType": "uint16",
          "name": "mintOutFoundersWithdrawalDelay",
          "type": "uint16"
        },
        {
          "internalType": "uint16",
          "name": "grandPrizeDelay",
          "type": "uint16"
        },
        {
          "internalType": "uint16",
          "name": "maxCobots",
          "type": "uint16"
        },
        {
          "internalType": "uint24",
          "name": "contestDuration",
          "type": "uint24"
        },
        {
          "internalType": "uint72",
          "name": "mintPublicPrice",
          "type": "uint72"
        }
      ],
      "stateMutability": "view",
      "type": "function"
    },
    {
      "inputs": [
        {
          "internalType": "uint256",
          "name": "",
          "type": "uint256"
        }
      ],
      "name": "PRIZES",
      "outputs": [
        {
          "internalType": "uint16",
          "name": "checkpoint",
          "type": "uint16"
        },
        {
          "internalType": "uint72",
          "name": "amount",
          "type": "uint72"
        },
        {
          "internalType": "bool",
          "name": "isContest",
          "type": "bool"
        }
      ],
      "stateMutability": "view",
      "type": "function"
    },
    {
      "inputs": [
        {
          "internalType": "uint256",
          "name": "value",
          "type": "uint256"
        },
        {
          "internalType": "uint256",
          "name": "tokenId",
          "type": "uint256"
        }
      ],
      "name": "TheAnswer",
      "outputs": [],
      "stateMutability": "nonpayable",
      "type": "function"
    },
    {
      "inputs": [
        {
          "internalType": "address",
          "name": "to",
          "type": "address"
        },
        {
          "internalType": "uint256",
          "name": "tokenId",
          "type": "uint256"
        }
      ],
      "name": "approve",
      "outputs": [],
      "stateMutability": "nonpayable",
      "type": "function"
    },
    {
      "inputs": [
        {
          "internalType": "address",
          "name": "owner",
          "type": "address"
        }
      ],
      "name": "balanceOf",
      "outputs": [
        {
          "internalType": "uint256",
          "name": "",
          "type": "uint256"
        }
      ],
      "stateMutability": "view",
      "type": "function"
    },
    {
      "inputs": [],
      "name": "cancelSubscription",
      "outputs": [],
      "stateMutability": "nonpayable",
      "type": "function"
    },
    {
      "inputs": [],
      "name": "chainlinkSubscriptionId",
      "outputs": [
        {
          "internalType": "uint64",
          "name": "",
          "type": "uint64"
        }
      ],
      "stateMutability": "view",
      "type": "function"
    },
    {
      "inputs": [
        {
          "internalType": "uint256",
          "name": "",
          "type": "uint256"
        }
      ],
      "name": "coBotsSeeds",
      "outputs": [
        {
          "internalType": "uint8",
          "name": "",
          "type": "uint8"
        }
      ],
      "stateMutability": "view",
      "type": "function"
    },
    {
      "inputs": [
        {
          "internalType": "uint256",
          "name": "",
          "type": "uint256"
        }
      ],
      "name": "coBotsV1Redeemed",
      "outputs": [
        {
          "internalType": "bool",
          "name": "",
          "type": "bool"
        }
      ],
      "stateMutability": "view",
      "type": "function"
    },
    {
      "inputs": [
        {
          "internalType": "uint96",
          "name": "amount",
          "type": "uint96"
        }
      ],
      "name": "createSubscriptionAndFund",
      "outputs": [],
      "stateMutability": "nonpayable",
      "type": "function"
    },
    {
      "inputs": [],
      "name": "draw",
      "outputs": [],
      "stateMutability": "nonpayable",
      "type": "function"
    },
    {
      "inputs": [],
      "name": "drawnAmount",
      "outputs": [
        {
          "internalType": "uint256",
          "name": "",
          "type": "uint256"
        }
      ],
      "stateMutability": "view",
      "type": "function"
    },
    {
      "inputs": [
        {
          "internalType": "uint256",
          "name": "_tokenId",
          "type": "uint256"
        }
      ],
      "name": "exists",
      "outputs": [
        {
          "internalType": "bool",
          "name": "",
          "type": "bool"
        }
      ],
      "stateMutability": "view",
      "type": "function"
    },
    {
      "inputs": [
        {
          "internalType": "uint256",
          "name": "giveawayIndex",
          "type": "uint256"
        },
        {
          "internalType": "address",
          "name": "winner",
          "type": "address"
        },
        {
          "internalType": "uint256",
          "name": "selectedToken",
          "type": "uint256"
        }
      ],
      "name": "fulfillContest",
      "outputs": [],
      "stateMutability": "nonpayable",
      "type": "function"
    },
    {
      "inputs": [
        {
          "internalType": "uint256",
          "name": "",
          "type": "uint256"
        }
      ],
      "name": "fulfillments",
      "outputs": [
        {
          "components": [
            {
              "internalType": "uint16",
              "name": "checkpoint",
              "type": "uint16"
            },
            {
              "internalType": "uint72",
              "name": "amount",
              "type": "uint72"
            },
            {
              "internalType": "bool",
              "name": "isContest",
              "type": "bool"
            }
          ],
          "internalType": "struct CoBotsV2.Prize",
          "name": "prize",
          "type": "tuple"
        },
        {
          "internalType": "bool",
          "name": "fulfilled",
          "type": "bool"
        },
        {
          "components": [
            {
              "internalType": "address",
              "name": "winner",
              "type": "address"
            },
            {
              "internalType": "uint16",
              "name": "tokenId",
              "type": "uint16"
            }
          ],
          "internalType": "struct CoBotsV2.Winner",
          "name": "winner",
          "type": "tuple"
        }
      ],
      "stateMutability": "view",
      "type": "function"
    },
    {
      "inputs": [
        {
          "internalType": "uint256",
          "name": "tokenId",
          "type": "uint256"
        }
      ],
      "name": "getApproved",
      "outputs": [
        {
          "internalType": "address",
          "name": "",
          "type": "address"
        }
      ],
      "stateMutability": "view",
      "type": "function"
    },
    {
      "inputs": [],
      "name": "getOrderedFulfillments",
      "outputs": [
        {
          "components": [
            {
              "components": [
                {
                  "internalType": "uint16",
                  "name": "checkpoint",
                  "type": "uint16"
                },
                {
                  "internalType": "uint72",
                  "name": "amount",
                  "type": "uint72"
                },
                {
                  "internalType": "bool",
                  "name": "isContest",
                  "type": "bool"
                }
              ],
              "internalType": "struct CoBotsV2.Prize",
              "name": "prize",
              "type": "tuple"
            },
            {
              "internalType": "bool",
              "name": "fulfilled",
              "type": "bool"
            },
            {
              "components": [
                {
                  "internalType": "address",
                  "name": "winner",
                  "type": "address"
                },
                {
                  "internalType": "uint16",
                  "name": "tokenId",
                  "type": "uint16"
                }
              ],
              "internalType": "struct CoBotsV2.Winner",
              "name": "winner",
              "type": "tuple"
            }
          ],
          "internalType": "struct CoBotsV2.Fulfillment[]",
          "name": "",
          "type": "tuple[]"
        }
      ],
      "stateMutability": "view",
      "type": "function"
    },
    {
      "inputs": [
        {
          "internalType": "address",
          "name": "owner",
          "type": "address"
        },
        {
          "internalType": "address",
          "name": "operator",
          "type": "address"
        }
      ],
      "name": "isApprovedForAll",
      "outputs": [
        {
          "internalType": "bool",
          "name": "",
          "type": "bool"
        }
      ],
      "stateMutability": "view",
      "type": "function"
    },
    {
      "inputs": [
        {
          "internalType": "uint256",
          "name": "tokenId",
          "type": "uint256"
        }
      ],
      "name": "isMettaEnabled",
      "outputs": [
        {
          "internalType": "bool",
          "name": "",
          "type": "bool"
        }
      ],
      "stateMutability": "view",
      "type": "function"
    },
    {
      "inputs": [],
      "name": "isMintedOut",
      "outputs": [
        {
          "internalType": "bool",
          "name": "",
          "type": "bool"
        }
      ],
      "stateMutability": "view",
      "type": "function"
    },
    {
      "inputs": [],
      "name": "isPublicSaleOpen",
      "outputs": [
        {
          "internalType": "bool",
          "name": "",
          "type": "bool"
        }
      ],
      "stateMutability": "view",
      "type": "function"
    },
    {
      "inputs": [
        {
          "internalType": "address",
          "name": "to",
          "type": "address"
        },
        {
          "internalType": "uint256",
          "name": "quantity",
          "type": "uint256"
        }
      ],
      "name": "mintFounders",
      "outputs": [],
      "stateMutability": "nonpayable",
      "type": "function"
    },
    {
      "inputs": [
        {
          "internalType": "uint256",
          "name": "quantity",
          "type": "uint256"
        },
        {
          "internalType": "uint256[]",
          "name": "tokenIdsV1",
          "type": "uint256[]"
        }
      ],
      "name": "mintPublicSale",
      "outputs": [],
      "stateMutability": "payable",
      "type": "function"
    },
    {
      "inputs": [],
      "name": "mintedOutTimestamp",
      "outputs": [
        {
          "internalType": "uint256",
          "name": "",
          "type": "uint256"
        }
      ],
      "stateMutability": "view",
      "type": "function"
    },
    {
      "inputs": [],
      "name": "name",
      "outputs": [
        {
          "internalType": "string",
          "name": "",
          "type": "string"
        }
      ],
      "stateMutability": "view",
      "type": "function"
    },
    {
      "inputs": [],
      "name": "openPublicSale",
      "outputs": [],
      "stateMutability": "nonpayable",
      "type": "function"
    },
    {
      "inputs": [],
      "name": "owner",
      "outputs": [
        {
          "internalType": "address",
          "name": "",
          "type": "address"
        }
      ],
      "stateMutability": "view",
      "type": "function"
    },
    {
      "inputs": [
        {
          "internalType": "uint256",
          "name": "tokenId",
          "type": "uint256"
        }
      ],
      "name": "ownerOf",
      "outputs": [
        {
          "internalType": "address",
          "name": "",
          "type": "address"
        }
      ],
      "stateMutability": "view",
      "type": "function"
    },
    {
      "inputs": [],
      "name": "publicSaleStartTimestamp",
      "outputs": [
        {
          "internalType": "uint256",
          "name": "",
          "type": "uint256"
        }
      ],
      "stateMutability": "view",
      "type": "function"
    },
    {
      "inputs": [
        {
          "internalType": "uint256",
          "name": "requestId",
          "type": "uint256"
        },
        {
          "internalType": "uint256[]",
          "name": "randomWords",
          "type": "uint256[]"
        }
      ],
      "name": "rawFulfillRandomWords",
      "outputs": [],
      "stateMutability": "nonpayable",
      "type": "function"
    },
    {
      "inputs": [],
      "name": "renderer",
      "outputs": [
        {
          "internalType": "contract ICoBotsRendererV2",
          "name": "",
          "type": "address"
        }
      ],
      "stateMutability": "view",
      "type": "function"
    },
    {
      "inputs": [],
      "name": "renderingContractAddress",
      "outputs": [
        {
          "internalType": "address",
          "name": "",
          "type": "address"
        }
      ],
      "stateMutability": "view",
      "type": "function"
    },
    {
      "inputs": [],
      "name": "renounceOwnership",
      "outputs": [],
      "stateMutability": "nonpayable",
      "type": "function"
    },
    {
      "inputs": [
        {
          "internalType": "uint256",
          "name": "",
          "type": "uint256"
        }
      ],
      "name": "requestIds",
      "outputs": [
        {
          "internalType": "uint256",
          "name": "",
          "type": "uint256"
        }
      ],
      "stateMutability": "view",
      "type": "function"
    },
    {
      "inputs": [
        {
          "internalType": "address",
          "name": "from",
          "type": "address"
        },
        {
          "internalType": "address",
          "name": "to",
          "type": "address"
        },
        {
          "internalType": "uint256",
          "name": "tokenId",
          "type": "uint256"
        }
      ],
      "name": "safeTransferFrom",
      "outputs": [],
      "stateMutability": "nonpayable",
      "type": "function"
    },
    {
      "inputs": [
        {
          "internalType": "address",
          "name": "from",
          "type": "address"
        },
        {
          "internalType": "address",
          "name": "to",
          "type": "address"
        },
        {
          "internalType": "uint256",
          "name": "tokenId",
          "type": "uint256"
        },
        {
          "internalType": "bytes",
          "name": "_data",
          "type": "bytes"
        }
      ],
      "name": "safeTransferFrom",
      "outputs": [],
      "stateMutability": "nonpayable",
      "type": "function"
    },
    {
      "inputs": [
        {
          "internalType": "address",
          "name": "operator",
          "type": "address"
        },
        {
          "internalType": "bool",
          "name": "approved",
          "type": "bool"
        }
      ],
      "name": "setApprovalForAll",
      "outputs": [],
      "stateMutability": "nonpayable",
      "type": "function"
    },
    {
      "inputs": [
        {
          "internalType": "address",
          "name": "_renderingContractAddress",
          "type": "address"
        }
      ],
      "name": "setRenderingContractAddress",
      "outputs": [],
      "stateMutability": "nonpayable",
      "type": "function"
    },
    {
      "inputs": [
        {
          "internalType": "bytes4",
          "name": "interfaceId",
          "type": "bytes4"
        }
      ],
      "name": "supportsInterface",
      "outputs": [
        {
          "internalType": "bool",
          "name": "",
          "type": "bool"
        }
      ],
      "stateMutability": "view",
      "type": "function"
    },
    {
      "inputs": [],
      "name": "symbol",
      "outputs": [
        {
          "internalType": "string",
          "name": "",
          "type": "string"
        }
      ],
      "stateMutability": "view",
      "type": "function"
    },
    {
      "inputs": [
        {
          "internalType": "uint256[]",
          "name": "tokenIds",
          "type": "uint256[]"
        }
      ],
      "name": "toggleMetta",
      "outputs": [],
      "stateMutability": "nonpayable",
      "type": "function"
    },
    {
      "inputs": [
        {
          "internalType": "uint256",
          "name": "index",
          "type": "uint256"
        }
      ],
      "name": "tokenByIndex",
      "outputs": [
        {
          "internalType": "uint256",
          "name": "",
          "type": "uint256"
        }
      ],
      "stateMutability": "view",
      "type": "function"
    },
    {
      "inputs": [
        {
          "internalType": "address",
          "name": "owner",
          "type": "address"
        },
        {
          "internalType": "uint256",
          "name": "index",
          "type": "uint256"
        }
      ],
      "name": "tokenOfOwnerByIndex",
      "outputs": [
        {
          "internalType": "uint256",
          "name": "",
          "type": "uint256"
        }
      ],
      "stateMutability": "view",
      "type": "function"
    },
    {
      "inputs": [
        {
          "internalType": "uint256",
          "name": "_tokenId",
          "type": "uint256"
        }
      ],
      "name": "tokenURI",
      "outputs": [
        {
          "internalType": "string",
          "name": "",
          "type": "string"
        }
      ],
      "stateMutability": "view",
      "type": "function"
    },
    {
      "inputs": [],
      "name": "totalSupply",
      "outputs": [
        {
          "internalType": "uint256",
          "name": "",
          "type": "uint256"
        }
      ],
      "stateMutability": "view",
      "type": "function"
    },
    {
      "inputs": [
        {
          "internalType": "address",
          "name": "from",
          "type": "address"
        },
        {
          "internalType": "address",
          "name": "to",
          "type": "address"
        },
        {
          "internalType": "uint256",
          "name": "tokenId",
          "type": "uint256"
        }
      ],
      "name": "transferFrom",
      "outputs": [],
      "stateMutability": "nonpayable",
      "type": "function"
    },
    {
      "inputs": [
        {
          "internalType": "address",
          "name": "newOwner",
          "type": "address"
        }
      ],
      "name": "transferOwnership",
      "outputs": [],
      "stateMutability": "nonpayable",
      "type": "function"
    },
    {
      "inputs": [],
      "name": "withdraw",
      "outputs": [],
      "stateMutability": "nonpayable",
      "type": "function"
    },
    {
      "stateMutability": "payable",
      "type": "receive"
    }
  ],
  "transactionHash": "0xb4963643bdc082bc896e6689c5792b60e13dea8ebea7a5cf1e332cda23b0abb0",
  "args": [
    "Co-Bots 2.0",
    "CBTE",
    "0x5D4584ca07F542EB66AE5c9A0E8c065e9772E30b",
    "0x6168499c0cFfCaCD319c818142124B7A15E857ab",
    "0x01BE23585060835E02B77ef475b0Cc51aA1e0709",
    "0xd89b2bf150e3b9e13446986e571fb9cab24b13cea0a43ea20a6049a85cc807cc",
    {
      "cobotsV1Discount": 2,
      "mintOutFoundersWithdrawalDelay": 7200,
      "grandPrizeDelay": 3600,
      "maxCobots": 10000,
      "contestDuration": 2419200,
      "mintPublicPrice": "50000000000000000"
    },
    [
      {
        "checkpoint": 100,
        "amount": "1000000000000000000",
        "isContest": false
      },
      {
        "checkpoint": 200,
        "amount": "2000000000000000000",
        "isContest": false
      },
      {
        "checkpoint": 300,
        "amount": "3000000000000000000",
        "isContest": false
      },
      {
        "checkpoint": 400,
        "amount": "4000000000000000000",
        "isContest": false
      },
      {
        "checkpoint": 500,
        "amount": "1000000000000000000",
        "isContest": true
      },
      {
        "checkpoint": 500,
        "amount": "1000000000000000000",
        "isContest": true
      },
      {
        "checkpoint": 500,
        "amount": "1000000000000000000",
        "isContest": true
      },
      {
        "checkpoint": 500,
        "amount": "1000000000000000000",
        "isContest": true
      },
      {
        "checkpoint": 500,
        "amount": "1000000000000000000",
        "isContest": true
      },
      {
        "checkpoint": 750,
        "amount": "6000000000000000000",
        "isContest": false
      },
      {
        "checkpoint": 1000,
        "amount": "7000000000000000000",
        "isContest": false
      },
      {
        "checkpoint": 1500,
        "amount": "8000000000000000000",
        "isContest": false
      },
      {
        "checkpoint": 2000,
        "amount": "9000000000000000000",
        "isContest": false
      },
      {
        "checkpoint": 3000,
        "amount": "2000000000000000000",
        "isContest": true
      },
      {
        "checkpoint": 3000,
        "amount": "2000000000000000000",
        "isContest": true
      },
      {
        "checkpoint": 3000,
        "amount": "2000000000000000000",
        "isContest": true
      },
      {
        "checkpoint": 3000,
        "amount": "2000000000000000000",
        "isContest": true
      },
      {
        "checkpoint": 3000,
        "amount": "2000000000000000000",
        "isContest": true
      },
      {
        "checkpoint": 4000,
        "amount": "12000000000000000000",
        "isContest": false
      },
      {
        "checkpoint": 5000,
        "amount": "14000000000000000000",
        "isContest": false
      },
      {
        "checkpoint": 5000,
        "amount": "50000000000000000000",
        "isContest": true
      },
      {
        "checkpoint": 6000,
        "amount": "16000000000000000000",
        "isContest": false
      },
      {
        "checkpoint": 7000,
        "amount": "18000000000000000000",
        "isContest": false
      },
      {
        "checkpoint": 8000,
        "amount": "4000000000000000000",
        "isContest": true
      },
      {
        "checkpoint": 8000,
        "amount": "4000000000000000000",
        "isContest": true
      },
      {
        "checkpoint": 8000,
        "amount": "4000000000000000000",
        "isContest": true
      },
      {
        "checkpoint": 8000,
        "amount": "4000000000000000000",
        "isContest": true
      },
      {
        "checkpoint": 8000,
        "amount": "4000000000000000000",
        "isContest": true
      },
      {
        "checkpoint": 9000,
        "amount": "22000000000000000000",
        "isContest": false
      },
      {
        "checkpoint": 10000,
        "amount": "24000000000000000000",
        "isContest": false
      },
      {
        "checkpoint": 10000,
        "amount": "69000000000000000000",
        "isContest": false
      }
    ],
    "0x57f1887a8BF19b14fC0dF6Fd9B2acc9Af147eA85",
    "0x1dffc87aAd86c95ca8bD611b2e63BB017578b77e",
    {
      "ensId": "50339762084112735281647694152894396699789156759838299774246919152996091353870",
      "value": 42,
      "prizeIndex": 20
    }
  ],
  "numDeployments": 2,
  "solcInputHash": "8c3c15720fdb2ca28c850773cb6cc041",
  "bytecode": "0x60a06040523480156200001157600080fd5b5060405162004f0038038062004f00833981016040819052620000349162000827565b878b8b81600190805190602001906200004f92919062000372565b5080516200006590600290602084019062000372565b5050506001600160a01b03166080526200007f3362000294565b60016008556200008f89620002e6565b601780546001600160a01b03808b166001600160a01b03199283161790925560188054928a169290911691909117905560198690558451600b80546020880151604089015160608a015160808b015160a08c01516001600160481b03166a010000000000000000000002600160501b600160981b031962ffffff9092166701000000000000000291909116600160381b600160981b031961ffff938416650100000000000261ffff60281b199585166301000000029590951666ffffffff00000019949096166101000262ffffff1990971660ff9099169890981795909517919091169290921717939093161791909117905560005b84518110156200022f57600c858281518110620001a657620001a662000988565b60209081029190910181015182546001810184556000938452928290208151930180549282015160409092015115156b0100000000000000000000000260ff60581b196001600160481b0390931662010000026001600160581b031990941661ffff909516949094179290921716919091179055806200022681620009b4565b91505062000185565b50601080546001600160a01b03199081166001600160a01b03958616179091556011805490911692909316919091179091558051600d556020810151600e5560400151600f805460ff191660ff9092169190911790555062000a549650505050505050565b600780546001600160a01b038381166001600160a01b0319831681179093556040519116919082907f8be0079c531659141344cd1fd0a4f28419497f9722a3daafe3b4186f6b6457e090600090a35050565b6007546001600160a01b031633146200031c5760405162461bcd60e51b81526004016200031390620009d2565b60405180910390fd5b601280546001600160a01b0383166001600160a01b0319918216811790925560138054909116821790556040517f2926c01a1380ae82a404a8c554ad486a6842a4a320d80b770e2930d763825e4f90600090a250565b828054620003809062000a23565b90600052602060002090601f016020900481019282620003a45760008555620003ef565b82601f10620003bf57805160ff1916838001178555620003ef565b82800160010185558215620003ef579182015b82811115620003ef578251825591602001919060010190620003d2565b50620003fd92915062000401565b5090565b5b80821115620003fd576000815560010162000402565b634e487b7160e01b600052604160045260246000fd5b601f19601f83011681016001600160401b038111828210171562000456576200045662000418565b6040525050565b60006200046960405190565b90506200047782826200042e565b919050565b60006001600160401b0382111562000498576200049862000418565b601f19601f83011660200192915050565b60005b83811015620004c6578181015183820152602001620004ac565b83811115620004d6576000848401525b50505050565b6000620004f3620004ed846200047c565b6200045d565b905082815260208101848484011115620005105762000510600080fd5b6200051d848285620004a9565b509392505050565b600082601f8301126200053b576200053b600080fd5b81516200054d848260208601620004dc565b949350505050565b60006001600160a01b0382165b92915050565b620005738162000555565b81146200057f57600080fd5b50565b8051620005628162000568565b8062000573565b805162000562816200058f565b60ff811662000573565b80516200056281620005a3565b61ffff811662000573565b80516200056281620005ba565b62ffffff811662000573565b80516200056281620005d2565b6001600160481b03811662000573565b80516200056281620005eb565b600060c082840312156200061f576200061f600080fd5b6200062b60c06200045d565b905060006200063b8484620005ad565b9082015260206200064f84848301620005c5565b9082015260406200066384848301620005c5565b9082015260606200067784848301620005c5565b9082015260806200068b84848301620005de565b9082015260a06200069f84848301620005fb565b9082015292915050565b60006001600160401b03821115620006c557620006c562000418565b5060209081020190565b80151562000573565b80516200056281620006cf565b600060608284031215620006fc57620006fc600080fd5b6200070860606200045d565b90506000620007188484620005c5565b9082015260206200072c84848301620005fb565b9082015260406200069f84848301620006d8565b600062000751620004ed84620006a9565b83815290506020810160608402830185811115620007725762000772600080fd5b835b818110156200079a57620007898782620006e5565b835260209092019160600162000774565b5050509392505050565b600082601f830112620007ba57620007ba600080fd5b81516200054d84826020860162000740565b600060608284031215620007e357620007e3600080fd5b620007ef60606200045d565b90506000620007ff848462000596565b908201526020620008138484830162000596565b9082015260406200069f84848301620005ad565b60008060008060008060008060008060006102408c8e0312156200084e576200084e600080fd5b8b516001600160401b03811115620008695762000869600080fd5b620008778e828f0162000525565b60208e0151909c5090506001600160401b038111156200089a576200089a600080fd5b620008a88e828f0162000525565b9a50506040620008bb8e828f0162000582565b9950506060620008ce8e828f0162000582565b9850506080620008e18e828f0162000582565b97505060a0620008f48e828f0162000596565b96505060c0620009078e828f0162000608565b6101808e015190965090506001600160401b038111156200092b576200092b600080fd5b620009398e828f01620007a4565b9450506101a06200094d8e828f0162000582565b9350506101c0620009618e828f0162000582565b9250506101e0620009758e828f01620007cc565b9150509295989b509295989b9093969950565b634e487b7160e01b600052603260045260246000fd5b634e487b7160e01b600052601160045260246000fd5b6000600019821415620009cb57620009cb6200099e565b5060010190565b60208082528181019081527f4f776e61626c653a2063616c6c6572206973206e6f7420746865206f776e657260408301526060820162000562565b634e487b7160e01b600052602260045260246000fd5b60028104600182168062000a3857607f821691505b6020821081141562000a4e5762000a4e62000a0d565b50919050565b60805161448962000a776000396000818161149a01526114c201526144896000f3fe60806040526004361061032d5760003560e01c80635a08cae5116101a5578063a22cb465116100ec578063c87b56dd11610095578063dfc7e2c91161006f578063dfc7e2c9146109f1578063e10a64dd14610a11578063e985e9c514610a24578063f2fde38b14610a6d57600080fd5b8063c87b56dd1461099b578063cf62c8ab146109bb578063d7822c99146109db57600080fd5b8063b585209b116100c6578063b585209b14610946578063b88d4fde1461095b578063c074f4121461097b57600080fd5b8063a22cb4651461088b578063a715b15b146108ab578063a9b5898f146108cd57600080fd5b806386758e711161014e5780638da5cb5b116101285780638da5cb5b1461084257806395d89b41146108605780639a14f79d1461087557600080fd5b806386758e71146107d55780638796ba8c146107f55780638ada6b0f1461081557600080fd5b806370a082311161017f57806370a0823114610770578063715018a61461079057806372c64f16146107a557600080fd5b80635a08cae5146106875780636352211e1461073957806368d99f7c1461075957600080fd5b80631fafadbc116102745780632f745c591161021d57806349cae612116101f757806349cae612146106075780634e02099f146106275780634f558e79146106475780634f6ccce71461066757600080fd5b80632f745c59146105b25780633ccfd60b146105d257806342842e0e146105e757600080fd5b806320c5780c1161024e57806320c5780c1461054f57806323b872dd1461057d57806324e9edb01461059d57600080fd5b80631fafadbc146104e05780631fd9d081146105005780631fe543e31461052f57600080fd5b80630eecae21116102d6578063143a3f92116102b0578063143a3f921461047a57806318160ddd1461048f5780631a6949e3146104cb57600080fd5b80630eecae21146104235780630f8236081461043857806312b40a9f1461045a57600080fd5b8063081812fc11610307578063081812fc146103b4578063095ea7b3146103e15780630badbd071461040357600080fd5b806301ffc9a71461033957806304035a921461036f57806306fdde031461039257600080fd5b3661033457005b600080fd5b34801561034557600080fd5b506103596103543660046135df565b610a8d565b604051610366919061360a565b60405180910390f35b34801561037b57600080fd5b50610385600a5481565b604051610366919061361e565b34801561039e57600080fd5b506103a7610b5e565b604051610366919061368a565b3480156103c057600080fd5b506103d46103cf3660046136b3565b610bf0565b60405161036691906136ee565b3480156103ed57600080fd5b506104016103fc366004613710565b610c4d565b005b34801561040f57600080fd5b5061040161041e36600461374d565b610d0d565b34801561042f57600080fd5b50610401610e68565b34801561044457600080fd5b5061044d600381565b6040516103669190613778565b34801561046657600080fd5b50610401610475366004613786565b611369565b34801561048657600080fd5b5061044d602081565b34801561049b57600080fd5b506103856000546001600160801b0370010000000000000000000000000000000082048116918116919091031690565b3480156104d757600080fd5b506103596113f6565b3480156104ec57600080fd5b5061044d6104fb3660046136b3565b611411565b34801561050c57600080fd5b5061052061051b3660046136b3565b611445565b604051610366939291906137c2565b34801561053b57600080fd5b5061040161054a3660046138ef565b61148f565b34801561055b57600080fd5b50601a546105709067ffffffffffffffff1681565b604051610366919061394d565b34801561058957600080fd5b5061040161059836600461395b565b611523565b3480156105a957600080fd5b5061040161152e565b3480156105be57600080fd5b506103856105cd366004613710565b6115f6565b3480156105de57600080fd5b5061040161170c565b3480156105f357600080fd5b5061040161060236600461395b565b611b83565b34801561061357600080fd5b506104016106223660046139ab565b611b9e565b34801561063357600080fd5b50610401610642366004613710565b611c13565b34801561065357600080fd5b506103596106623660046136b3565b611c98565b34801561067357600080fd5b506103856106823660046136b3565b611ca3565b34801561069357600080fd5b5061072a6106a23660046136b3565b601b602090815260009182526040918290208251606081018452815461ffff808216835268ffffffffffffffffff620100008304168386015260ff6b0100000000000000000000009092048216151583870152600184015486518088019097526002909401546001600160a01b0381168752600160a01b900416938501939093529291169083565b60405161036693929190613a20565b34801561074557600080fd5b506103d46107543660046136b3565b611d67565b34801561076557600080fd5b50600a541515610359565b34801561077c57600080fd5b5061038561078b366004613786565b611d79565b34801561079c57600080fd5b50610401611de1565b3480156107b157600080fd5b506103596107c03660046136b3565b60156020526000908152604090205460ff1681565b3480156107e157600080fd5b506103596107f03660046136b3565b611e17565b34801561080157600080fd5b506103856108103660046136b3565b611e54565b34801561082157600080fd5b50601354610835906001600160a01b031681565b6040516103669190613a8a565b34801561084e57600080fd5b506007546001600160a01b03166103d4565b34801561086c57600080fd5b506103a7611e75565b34801561088157600080fd5b50610385601d5481565b34801561089757600080fd5b506104016108a6366004613aab565b611e84565b3480156108b757600080fd5b506108c0611f36565b6040516103669190613b6e565b3480156108d957600080fd5b50600b546109349060ff81169061ffff610100820481169163010000008104821691650100000000008204169062ffffff6701000000000000008204169068ffffffffffffffffff6a01000000000000000000009091041686565b60405161036696959493929190613b8a565b34801561095257600080fd5b506104016120c8565b34801561096757600080fd5b50610401610976366004613c7b565b612137565b34801561098757600080fd5b506012546103d4906001600160a01b031681565b3480156109a757600080fd5b506103a76109b63660046136b3565b612171565b3480156109c757600080fd5b506104016109d6366004613d19565b612283565b3480156109e757600080fd5b5061038560095481565b3480156109fd57600080fd5b50610401610a0c366004613d8c565b61247c565b610401610a1f3660046138ef565b6124ec565b348015610a3057600080fd5b50610359610a3f366004613dd4565b6001600160a01b03918216600090815260066020908152604080832093909416825291909152205460ff1690565b348015610a7957600080fd5b50610401610a88366004613786565b612835565b60006001600160e01b031982167f80ac58cd000000000000000000000000000000000000000000000000000000001480610af057506001600160e01b031982167f5b5e139f00000000000000000000000000000000000000000000000000000000145b80610b2457506001600160e01b031982167f780e9d6300000000000000000000000000000000000000000000000000000000145b80610b5857507f01ffc9a7000000000000000000000000000000000000000000000000000000006001600160e01b03198316145b92915050565b606060018054610b6d90613e1d565b80601f0160208091040260200160405190810160405280929190818152602001828054610b9990613e1d565b8015610be65780601f10610bbb57610100808354040283529160200191610be6565b820191906000526020600020905b815481529060010190602001808311610bc957829003601f168201915b5050505050905090565b6000610bfb82612891565b610c31576040517fcf4700e400000000000000000000000000000000000000000000000000000000815260040160405180910390fd5b506000908152600560205260409020546001600160a01b031690565b6000610c5882611d67565b9050806001600160a01b0316836001600160a01b03161415610ca6576040517f943f7b8c00000000000000000000000000000000000000000000000000000000815260040160405180910390fd5b336001600160a01b03821614801590610cc65750610cc48133610a3f565b155b15610cfd576040517fcfb3b94200000000000000000000000000000000000000000000000000000000815260040160405180910390fd5b610d088383836128c5565b505050565b60026008541415610d395760405162461bcd60e51b8152600401610d3090613e76565b60405180910390fd5b6002600855601054600d546040517f6352211e00000000000000000000000000000000000000000000000000000000815233926001600160a01b031691636352211e91610d89919060040161361e565b602060405180830381865afa158015610da6573d6000803e3d6000fd5b505050506040513d601f19601f82011682018060405250810190610dca9190613e91565b6001600160a01b031614610e0a576040517fb2c6179c00000000000000000000000000000000000000000000000000000000815260040160405180910390fd5b600e548214610e45576040517f8f6d9d6300000000000000000000000000000000000000000000000000000000815260040160405180910390fd5b600f54610e5f90610e589060ff1661292e565b3383612969565b50506001600855565b60026008541415610e8b5760405162461bcd60e51b8152600401610d3090613e76565b6002600855601c54601a5467ffffffffffffffff16610ed6576040517f15cd15ad00000000000000000000000000000000000000000000000000000000815260040160405180910390fd5b610ede612bd6565b610f14576040517fc3a7d74d00000000000000000000000000000000000000000000000000000000815260040160405180910390fd5b600054610f2b906001600160801b03166001613ec8565b6001600160801b0316600c8281548110610f4757610f47613f00565b60009182526020909120015461ffff161015611360576000600c8281548110610f7257610f72613f00565b6000918252602090912001546b010000000000000000000000900460ff168015610fba5750600b54600954610fb791670100000000000000900462ffffff1690613f16565b42105b80610fc95750600f5460ff1682145b15610fde57610fd78261292e565b905061108b565b601754601954601a546040517f5d3b1d300000000000000000000000000000000000000000000000000000000081526001600160a01b0390931692635d3b1d309261104592909167ffffffffffffffff909116906005906207a12090600190600401613f57565b6020604051808303816000875af1158015611064573d6000803e3d6000fd5b505050506040513d601f19601f820116820180604052508101906110889190613fae565b90505b600c828154811061109e5761109e613f00565b6000918252602082200154601d80546201000090920468ffffffffffffffffff169290916110cd908490613f16565b925050819055506040518060600160405280600c84815481106110f2576110f2613f00565b6000918252602080832060408051606081018252939091015461ffff80821685526201000080830468ffffffffffffffffff908116878701526b0100000000000000000000009384900460ff161515878601529588528785018790528351808501855287815280860188905297840197909752888652601b84529482902087518051825482870151928601519189167fffffffffffffffffffffffffffffffffffffffffff00000000000000000000009091161791909616909702969096177fffffffffffffffffffffffffffffffffffffffff00ffffffffffffffffffffff16931515029290921784558481015160018501805460ff191691151591909117905593015180516002909301805491909401516001600160a01b039093167fffffffffffffffffffff0000000000000000000000000000000000000000000090911617600160a01b9290911691909102179055600c805482917fb40531e03f8d4be5f5bb24f4d1811140fbead25a449a04cdb8e941384a810702918590811061127d5761127d613f00565b906000526020600020016040516112949190614051565b60405180910390a2816112a68161405f565b601c8054600181810183556000929092527f0e4562a10381dec21b205ed72637e6b1b523bdd0e4d4d50af5cd23dd4500a21101849055600c549194506112ed92509061407a565b821480156113145750600b54600a54611311916301000000900461ffff1690613f16565b42105b15611320575050611362565b600c5482141561135a576040517fc4f545db975f34de8f12b4353fa42dd295e802239df19ebbe5fd3c245dad0a5a90600090a15050611362565b50610f14565b505b6001600855565b6007546001600160a01b031633146113935760405162461bcd60e51b8152600401610d30906140c1565b601280546001600160a01b03831673ffffffffffffffffffffffffffffffffffffffff19918216811790925560138054909116821790556040517f2926c01a1380ae82a404a8c554ad486a6842a4a320d80b770e2930d763825e4f90600090a250565b600060095460001415801561140c575060095442115b905090565b6014818154811061142157600080fd5b9060005260206000209060209182820401919006915054906101000a900460ff1681565b600c818154811061145557600080fd5b60009182526020909120015461ffff8116915062010000810468ffffffffffffffffff16906b010000000000000000000000900460ff1683565b336001600160a01b037f0000000000000000000000000000000000000000000000000000000000000000161461151557337f00000000000000000000000000000000000000000000000000000000000000006040517f1cf993f4000000000000000000000000000000000000000000000000000000008152600401610d309291906140d1565b61151f8282612c77565b5050565b610d08838383612cd5565b6007546001600160a01b031633146115585760405162461bcd60e51b8152600401610d30906140c1565b601754601a546040517fd7ae1d300000000000000000000000000000000000000000000000000000000081526001600160a01b039092169163d7ae1d30916115b19167ffffffffffffffff9091169033906004016140ec565b600060405180830381600087803b1580156115cb57600080fd5b505af11580156115df573d6000803e3d6000fd5b5050601a805467ffffffffffffffff191690555050565b600061160183611d79565b8210611639576040517f0ddac30e00000000000000000000000000000000000000000000000000000000815260040160405180910390fd5b600080546001600160801b03169080805b8381101561170657600081815260036020908152604091829020825160608101845290546001600160a01b0381168252600160a01b810467ffffffffffffffff1692820192909252600160e01b90910460ff1615801592820192909252906116b257506116fe565b80516001600160a01b0316156116c757805192505b876001600160a01b0316836001600160a01b031614156116fc57868414156116f557509350610b5892505050565b6001909301925b505b60010161164a565b50600080fd5b6007546001600160a01b031633146117365760405162461bcd60e51b8152600401610d30906140c1565b61173e612bd6565b1561174b5761174b610e68565b4760005b601c548110156117fa57601b6000601c838154811061177057611770613f00565b6000918252602080832090910154835282019290925260400190206001015460ff166117e857601b6000601c83815481106117ad576117ad613f00565b600091825260208083209091015483528201929092526040019020546117e59068ffffffffffffffffff62010000909104168361407a565b91505b806117f28161405f565b91505061174f565b508080611833576040517f356680b700000000000000000000000000000000000000000000000000000000815260040160405180910390fd5b601654601154604080517f18160ddd0000000000000000000000000000000000000000000000000000000081529051600093926001600160a01b0316916318160ddd9160048083019260209291908290030181865afa15801561189a573d6000803e3d6000fd5b505050506040513d601f19601f820116820180604052508101906118be9190613fae565b6118c8919061407a565b600054601c549192506001600160801b0316905b600c54811015611ac257600082600c83815481106118fc576118fc613f00565b600091825260209091200154611916919061ffff1661407a565b90508084111561197c57600b5461194a9060ff8116906a0100000000000000000000900468ffffffffffffffffff16614110565b61195f9068ffffffffffffffffff1682614133565b6119699087613f16565b9550611975818561407a565b9350611a06565b600b546a0100000000000000000000900468ffffffffffffffffff166119a2858361407a565b6119ac9190614133565b600b546119d69060ff8116906a0100000000000000000000900468ffffffffffffffffff16614110565b6119eb9068ffffffffffffffffff1686614133565b6119f59190613f16565b6119ff9087613f16565b9550600093505b600c8281548110611a1957611a19613f00565b600091825260209091200154611a409062010000900468ffffffffffffffffff168761407a565b95506001861015611a7d576040517f356680b700000000000000000000000000000000000000000000000000000000815260040160405180910390fd5b84861015611a89578594505b600c8281548110611a9c57611a9c613f00565b60009182526020909120015461ffff169250819050611aba8161405f565b9150506118dc565b50604051600090339085908381818185875af1925050503d8060008114611b05576040519150601f19603f3d011682016040523d82523d6000602084013e611b0a565b606091505b5050905080611b45576040517f27fcd9d100000000000000000000000000000000000000000000000000000000815260040160405180910390fd5b7f4e70a604b23a8edee2b1d0a656e9b9c00b73ad8bb1afc2c59381ee9f69197de784604051611b74919061361e565b60405180910390a15050505050565b610d0883838360405180602001604052806000815250612137565b60026008541415611bc15760405162461bcd60e51b8152600401610d3090613e76565b60026008556007546001600160a01b03163314611bf05760405162461bcd60e51b8152600401610d30906140c1565b6000611bfb8461292e565b9050611c08818484612969565b505060016008555050565b6007546001600160a01b03163314611c3d5760405162461bcd60e51b8152600401610d30906140c1565b600054600390611c56906001600160801b031683613f16565b1115611c8e576040517f74a5d1f500000000000000000000000000000000000000000000000000000000815260040160405180910390fd5b61151f8282612f3d565b6000610b5882612891565b600080546001600160801b031681805b82811015611d3457600081815260036020908152604091829020825160608101845290546001600160a01b0381168252600160a01b810467ffffffffffffffff1692820192909252600160e01b90910460ff16151591810182905290611d2b5785831415611d245750949350505050565b6001909201915b50600101611cb3565b506040517fa723001c00000000000000000000000000000000000000000000000000000000815260040160405180910390fd5b6000611d7282613026565b5192915050565b60006001600160a01b038216611dbb576040517f8f4eb60400000000000000000000000000000000000000000000000000000000815260040160405180910390fd5b506001600160a01b031660009081526004602052604090205467ffffffffffffffff1690565b6007546001600160a01b03163314611e0b5760405162461bcd60e51b8152600401610d30906140c1565b611e156000613163565b565b600060148281548110611e2c57611e2c613f00565b6000918252602091829020918104909101546001601f9092166101000a900481161492915050565b601c8181548110611e6457600080fd5b600091825260209091200154905081565b606060028054610b6d90613e1d565b6001600160a01b038216331415611ec7576040517fb06307db00000000000000000000000000000000000000000000000000000000815260040160405180910390fd5b3360008181526006602090815260408083206001600160a01b038716808552925291829020805460ff191685151517905590519091907f17307eab39ab6107e8899845ad3d59bd9653f200f220920489ca2b5937696c3190611f2a90859061360a565b60405180910390a35050565b601c5460609060009067ffffffffffffffff811115611f5757611f576137ea565b604051908082528060200260200182016040528015611fc757816020015b6040805160c0810182526000606082018181526080830182905260a08301829052825260208083018290528351808501855282815280820192909252928201528252600019909201910181611f755790505b50905060005b601c548110156120c257601b6000601c8381548110611fee57611fee613f00565b600091825260208083209091015483528281019390935260409182019020815160c081018352815461ffff8082166060840190815268ffffffffffffffffff62010000840416608085015260ff6b0100000000000000000000009093048316151560a085015283526001840154909116151582860152835180850185526002909301546001600160a01b0381168452600160a01b900416938201939093529082015282518390839081106120a4576120a4613f00565b602002602001018190525080806120ba9061405f565b915050611fcd565b50919050565b6007546001600160a01b031633146120f25760405162461bcd60e51b8152600401610d30906140c1565b6120fa6113f6565b15612131576040517fd205ec1b00000000000000000000000000000000000000000000000000000000815260040160405180910390fd5b42600955565b612142848484612cd5565b61214e848484846131c2565b61216b576040516368d2bf6b60e11b815260040160405180910390fd5b50505050565b606061217c82612891565b6121b2576040517fa14c4b5000000000000000000000000000000000000000000000000000000000815260040160405180910390fd5b6012546001600160a01b03166121d657505060408051602081019091526000815290565b601354601480546001600160a01b0390921691635cc518ba9185918290811061220157612201613f00565b90600052602060002090602091828204019190069054906101000a900460ff166040518363ffffffff1660e01b815260040161223e929190614152565b600060405180830381865afa15801561225b573d6000803e3d6000fd5b505050506040513d6000823e601f3d908101601f19168201604052610b5891908101906141c5565b600260085414156122a65760405162461bcd60e51b8152600401610d3090613e76565b6002600855601a5467ffffffffffffffff166123d357601760009054906101000a90046001600160a01b03166001600160a01b031663a21a23e46040518163ffffffff1660e01b81526004016020604051808303816000875af1158015612311573d6000803e3d6000fd5b505050506040513d601f19601f82011682018060405250810190612335919061421b565b601a805467ffffffffffffffff191667ffffffffffffffff9290921691821790556017546040517f7341c10c0000000000000000000000000000000000000000000000000000000081526001600160a01b0390911691637341c10c916123a0919030906004016140ec565b600060405180830381600087803b1580156123ba57600080fd5b505af11580156123ce573d6000803e3d6000fd5b505050505b601854601754601a546040516001600160a01b0393841693634000aea0931691859161240c9167ffffffffffffffff169060200161394d565b6040516020818303038152906040526040518463ffffffff1660e01b81526004016124399392919061425f565b6020604051808303816000875af1158015612458573d6000803e3d6000fd5b505050506040513d601f19601f82011682018060405250810190610e5f91906142a0565b6002600854141561249f5760405162461bcd60e51b8152600401610d3090613e76565b600260085560005b818110156124e2576124d08383838181106124c4576124c4613f00565b905060200201356132f4565b806124da8161405f565b9150506124a7565b5050600160085550565b6124f46113f6565b61252a576040517f63a2de0f00000000000000000000000000000000000000000000000000000000815260040160405180910390fd5b6002600854141561254d5760405162461bcd60e51b8152600401610d3090613e76565b6002600855600b546000546501000000000090910461ffff169061257b9084906001600160801b0316613f16565b11156125b3576040517ffd59427a00000000000000000000000000000000000000000000000000000000815260040160405180910390fd5b600b546000906125dd9084906a0100000000000000000000900468ffffffffffffffffff16614133565b90506000805b83518110156127a757601154845133916001600160a01b031690636352211e9087908590811061261557612615613f00565b60200260200101516040518263ffffffff1660e01b8152600401612639919061361e565b602060405180830381865afa158015612656573d6000803e3d6000fd5b505050506040513d601f19601f8201168201806040525081019061267a9190613e91565b6001600160a01b0316146126ba576040517f5246352300000000000000000000000000000000000000000000000000000000815260040160405180910390fd5b601560008583815181106126d0576126d0613f00565b60209081029190910181015182528101919091526040016000205460ff161580156126fa57508482105b156127955760016015600086848151811061271757612717613f00565b6020026020010151815260200190815260200160002060006101000a81548160ff021916908315150217905550818061274f9061405f565b600b5490935061277d915060ff8116906a0100000000000000000000900468ffffffffffffffffff16614110565b6127929068ffffffffffffffffff168461407a565b92505b8061279f8161405f565b9150506125e3565b5080601660008282546127ba9190613f16565b90915550503482146127f8576040517ff7760f2500000000000000000000000000000000000000000000000000000000815260040160405180910390fd5b600b546000546501000000000090910461ffff1690612820906001600160801b031686613f16565b141561282b5742600a555b611c083385612f3d565b6007546001600160a01b0316331461285f5760405162461bcd60e51b8152600401610d30906140c1565b6001600160a01b0381166128855760405162461bcd60e51b8152600401610d30906142c1565b61288e81613163565b50565b600080546001600160801b031682108015610b58575050600090815260036020526040902054600160e01b900460ff161590565b600082815260056020526040808220805473ffffffffffffffffffffffffffffffffffffffff19166001600160a01b0387811691821790925591518593918516917f8c5be1e5ebec7d5bd14f71427d1e84f3dd0314c0f7b2291e5b200ac8c7c3b92591a4505050565b600061293b60ff83614322565b60405160200161294b919061434e565b60408051601f19818403018152919052805160209091012092915050565b6000838152601b602052604090206001015460ff16156129b5576040517f636d49d300000000000000000000000000000000000000000000000000000000815260040160405180910390fd5b6000838152601b602052604090205462010000900468ffffffffffffffffff16612a0b576040517f8e1773d800000000000000000000000000000000000000000000000000000000815260040160405180910390fd5b816001600160a01b0316612a1e82611d67565b6001600160a01b031614612a5e576040517f03e21ec200000000000000000000000000000000000000000000000000000000815260040160405180910390fd5b6000838152601b602081815260408084206001818101805460ff19169091179055815180830183526001600160a01b0380891680835261ffff808a168488019081528c8a529790965282516002850180549851909716600160a01b027fffffffffffffffffffff00000000000000000000000000000000000000000000909816921691909117959095179093555490519193929168ffffffffffffffffff62010000909204919091169060006040518083038185875af1925050503d8060008114612b45576040519150601f19603f3d011682016040523d82523d6000602084013e612b4a565b606091505b5050905080612b85576040517f90b8ec1800000000000000000000000000000000000000000000000000000000815260040160405180910390fd5b6000858152601b602052604090819020905186917f7d2db4ed55b360e8ea7d70390d6f63a1404136410fa6f3f94a41d1cf99488a7f91612bc791908690614360565b60405180910390a25050505050565b600c54601c546000911415612beb5750600090565b600c54612bfa9060019061407a565b601c54148015612c235750600b54600a54612c20916301000000900461ffff1690613f16565b42105b15612c2e5750600090565b600054601c54600c80546001600160801b03909316929091908110612c5557612c55613f00565b60009182526020909120015461ffff161115612c715750600090565b50600190565b6000828152601b6020526040812054825161ffff9091169190829084908390612ca257612ca2613f00565b6020026020010151612cb49190614322565b90506000612cc182611d67565b9050612cce858284612969565b5050505050565b6000612ce082613026565b80519091506000906001600160a01b0316336001600160a01b03161480612d0e57508151612d0e9033610a3f565b80612d29575033612d1e84610bf0565b6001600160a01b0316145b905080612d62576040517f59c896be00000000000000000000000000000000000000000000000000000000815260040160405180910390fd5b846001600160a01b031682600001516001600160a01b031614612db1576040517fa114810000000000000000000000000000000000000000000000000000000000815260040160405180910390fd5b6001600160a01b038416612df1576040517fea553b3400000000000000000000000000000000000000000000000000000000815260040160405180910390fd5b612e0160008484600001516128c5565b6001600160a01b038581166000908152600460209081526040808320805467ffffffffffffffff1980821667ffffffffffffffff92831660001901831617909255898616808652838620805493841693831660019081018416949094179055898652600390945282852080546001600160e01b031916909417600160a01b429092169190910217909255908601808352912054909116612ef6576000546001600160801b0316811015612ef6578251600082815260036020908152604090912080549186015167ffffffffffffffff16600160a01b026001600160e01b03199092166001600160a01b03909316929092171790555b5082846001600160a01b0316866001600160a01b03167fddf252ad1be2c89b69c2b068fc378daa952ba7f163c4a11628f55a4df523b3ef60405160405180910390a4612cce565b6020811115612f78576040517f359fd04400000000000000000000000000000000000000000000000000000000815260040160405180910390fd5b60008133344244604051602001612f939594939291906143a3565b60405160208183030381529060405280519060200120905060005b8281101561301b5760146001838360208110612fcc57612fcc613f00565b8354600181018555600094855260209485902094810490940180549290911a90921b60ff908116601f9094166101000a93840293021916919091179055806130138161405f565b915050612fae565b50610d0883836133b4565b60408051606081018252600080825260208201819052918101829052905482906001600160801b031681101561313157600081815260036020908152604091829020825160608101845290546001600160a01b0381168252600160a01b810467ffffffffffffffff1692820192909252600160e01b90910460ff1615159181018290529061312f5780516001600160a01b0316156130c5579392505050565b5060001901600081815260036020908152604091829020825160608101845290546001600160a01b038116808352600160a01b820467ffffffffffffffff1693830193909352600160e01b900460ff161515928101929092521561312a579392505050565b6130c5565b505b6040517fdf2d9b4200000000000000000000000000000000000000000000000000000000815260040160405180910390fd5b600780546001600160a01b0383811673ffffffffffffffffffffffffffffffffffffffff19831681179093556040519116919082907f8be0079c531659141344cd1fd0a4f28419497f9722a3daafe3b4186f6b6457e090600090a35050565b60006001600160a01b0384163b156132e8576040517f150b7a020000000000000000000000000000000000000000000000000000000081526001600160a01b0385169063150b7a029061321f9033908990889088906004016143ed565b6020604051808303816000875af192505050801561325a575060408051601f3d908101601f1916820190925261325791810190614432565b60015b6132b5573d808015613288576040519150601f19603f3d011682016040523d82523d6000602084013e61328d565b606091505b5080516132ad576040516368d2bf6b60e11b815260040160405180910390fd5b805181602001fd5b6001600160e01b0319167f150b7a02000000000000000000000000000000000000000000000000000000001490506132ec565b5060015b949350505050565b336132fe82611d67565b6001600160a01b03161461333e576040517fff68d35d00000000000000000000000000000000000000000000000000000000815260040160405180910390fd5b6014818154811061335157613351613f00565b90600052602060002090602091828204019190069054906101000a900460ff166001186014828154811061338757613387613f00565b90600052602060002090602091828204019190066101000a81548160ff021916908360ff16021790555050565b61151f828260405180602001604052806000815250610d0883838360016000546001600160801b03166001600160a01b03851661341d576040517f2e07630000000000000000000000000000000000000000000000000000000000815260040160405180910390fd5b83613454576040517fb562e8dd00000000000000000000000000000000000000000000000000000000815260040160405180910390fd5b6001600160a01b038516600081815260046020908152604080832080547fffffffffffffffffffffffffffffffff00000000000000000000000000000000811667ffffffffffffffff8083168c0181169182176801000000000000000067ffffffffffffffff1990941690921783900481168c018116909202179091558584526003909252822080546001600160e01b031916909317600160a01b42909216919091021790915581905b8581101561357f5760405182906001600160a01b038916906000907fddf252ad1be2c89b69c2b068fc378daa952ba7f163c4a11628f55a4df523b3ef908290a4838015613555575061355360008884886131c2565b155b15613573576040516368d2bf6b60e11b815260040160405180910390fd5b600191820191016134fe565b50600080547fffffffffffffffffffffffffffffffff00000000000000000000000000000000166001600160801b0392909216919091179055612cce565b6001600160e01b031981165b811461288e57600080fd5b8035610b58816135bd565b6000602082840312156135f4576135f4600080fd5b60006132ec84846135d4565b8015155b82525050565b60208101610b588284613600565b80613604565b60208101610b588284613618565b60005b8381101561364757818101518382015260200161362f565b8381111561216b5750506000910152565b6000613662825190565b80845260208401935061367981856020860161362c565b601f01601f19169290920192915050565b6020808252810161369b8184613658565b9392505050565b806135c9565b8035610b58816136a2565b6000602082840312156136c8576136c8600080fd5b60006132ec84846136a8565b60006001600160a01b038216610b58565b613604816136d4565b60208101610b5882846136e5565b6135c9816136d4565b8035610b58816136fc565b6000806040838503121561372657613726600080fd5b60006137328585613705565b9250506020613743858286016136a8565b9150509250929050565b6000806040838503121561376357613763600080fd5b600061373285856136a8565b60ff8116613604565b60208101610b58828461376f565b60006020828403121561379b5761379b600080fd5b60006132ec8484613705565b61ffff8116613604565b68ffffffffffffffffff8116613604565b606081016137d082866137a7565b6137dd60208301856137b1565b6132ec6040830184613600565b634e487b7160e01b600052604160045260246000fd5b601f19601f830116810181811067ffffffffffffffff82111715613826576138266137ea565b6040525050565b600061383860405190565b90506138448282613800565b919050565b600067ffffffffffffffff821115613863576138636137ea565b5060209081020190565b600061388061387b84613849565b61382d565b8381529050602080820190840283018581111561389f5761389f600080fd5b835b818110156138c1576138b387826136a8565b8352602092830192016138a1565b5050509392505050565b600082601f8301126138df576138df600080fd5b81356132ec84826020860161386d565b6000806040838503121561390557613905600080fd5b600061391185856136a8565b925050602083013567ffffffffffffffff81111561393157613931600080fd5b613743858286016138cb565b67ffffffffffffffff8116613604565b60208101610b58828461393d565b60008060006060848603121561397357613973600080fd5b600061397f8686613705565b935050602061399086828701613705565b92505060406139a1868287016136a8565b9150509250925092565b6000806000606084860312156139c3576139c3600080fd5b600061397f86866136a8565b80516139db83826137a7565b5060208101516139ee60208401826137b1565b506040810151610d086040840182613600565b8051613a0d83826136e5565b506020810151610d0860208401826137a7565b60c08101613a2e82866139cf565b613a3b6060830185613600565b6132ec6080830184613a01565b6000610b586001600160a01b038316613a5f565b90565b6001600160a01b031690565b6000610b5882613a48565b6000610b5882613a6b565b61360481613a76565b60208101610b588284613a81565b8015156135c9565b8035610b5881613a98565b60008060408385031215613ac157613ac1600080fd5b6000613acd8585613705565b925050602061374385828601613aa0565b8051613aea83826139cf565b506020810151613afd6060840182613600565b506040810151610d086080840182613a01565b613b1a8282613ade565b5060c00190565b60200190565b6000613b31825190565b808452602093840193830160005b82811015613b64578151613b538782613b10565b965050602082019150600101613b3f565b5093949350505050565b6020808252810161369b8184613b27565b62ffffff8116613604565b60c08101613b98828961376f565b613ba560208301886137a7565b613bb260408301876137a7565b613bbf60608301866137a7565b613bcc6080830185613b7f565b613bd960a08301846137b1565b979650505050505050565b600067ffffffffffffffff821115613bfe57613bfe6137ea565b601f19601f83011660200192915050565b82818337506000910152565b6000613c2961387b84613be4565b905082815260208101848484011115613c4457613c44600080fd5b613c4f848285613c0f565b509392505050565b600082601f830112613c6b57613c6b600080fd5b81356132ec848260208601613c1b565b60008060008060808587031215613c9457613c94600080fd5b6000613ca08787613705565b9450506020613cb187828801613705565b9350506040613cc2878288016136a8565b925050606085013567ffffffffffffffff811115613ce257613ce2600080fd5b613cee87828801613c57565b91505092959194509250565b6bffffffffffffffffffffffff81166135c9565b8035610b5881613cfa565b600060208284031215613d2e57613d2e600080fd5b60006132ec8484613d0e565b60008083601f840112613d4f57613d4f600080fd5b50813567ffffffffffffffff811115613d6a57613d6a600080fd5b602083019150836020820283011115613d8557613d85600080fd5b9250929050565b60008060208385031215613da257613da2600080fd5b823567ffffffffffffffff811115613dbc57613dbc600080fd5b613dc885828601613d3a565b92509250509250929050565b60008060408385031215613dea57613dea600080fd5b6000613df68585613705565b925050602061374385828601613705565b634e487b7160e01b600052602260045260246000fd5b600281046001821680613e3157607f821691505b602082108114156120c2576120c2613e07565b601f8152602081017f5265656e7472616e637947756172643a207265656e7472616e742063616c6c0081529050613b21565b60208082528101610b5881613e44565b8051610b58816136fc565b600060208284031215613ea657613ea6600080fd5b60006132ec8484613e86565b634e487b7160e01b600052601160045260246000fd5b6001600160801b03811690506001600160801b03821691506000826001600160801b0303821115613efb57613efb613eb2565b500190565b634e487b7160e01b600052603260045260246000fd5b60008219821115613efb57613efb613eb2565b6000610b58825b61ffff1690565b61360481613f29565b600063ffffffff8216610b58565b61360481613f40565b60a08101613f658288613618565b613f72602083018761393d565b613f7f6040830186613f37565b613f8c6060830185613f4e565b613f996080830184613f4e565b9695505050505050565b8051610b58816136a2565b600060208284031215613fc357613fc3600080fd5b60006132ec8484613fa3565b6000610b5882613f30565b6000610b58613fe98360101c90565b68ffffffffffffffffff1690565b6000610b586140068360581c90565b60ff1690565b805461401781613fcf565b61402184826137a7565b5061402b81613fda565b61403860208501826137b1565b5061404281613ff7565b9050610d086040840182613600565b60608101610b58828461400c565b600060001982141561407357614073613eb2565b5060010190565b60008282101561408c5761408c613eb2565b500390565b60208082527f4f776e61626c653a2063616c6c6572206973206e6f7420746865206f776e65729101908152613b21565b60208082528101610b5881614091565b604081016140df82856136e5565b61369b60208301846136e5565b604081016140df828561393d565b634e487b7160e01b600052601260045260246000fd5b68ffffffffffffffffff918216911660008261412e5761412e6140fa565b500490565b600081600019048311821515161561414d5761414d613eb2565b500290565b604081016141608285613618565b61369b602083018461376f565b600061417b61387b84613be4565b90508281526020810184848401111561419657614196600080fd5b613c4f84828561362c565b600082601f8301126141b5576141b5600080fd5b81516132ec84826020860161416d565b6000602082840312156141da576141da600080fd5b815167ffffffffffffffff8111156141f4576141f4600080fd5b6132ec848285016141a1565b67ffffffffffffffff81166135c9565b8051610b5881614200565b60006020828403121561423057614230600080fd5b60006132ec8484614210565b6000610b58613a5c6bffffffffffffffffffffffff841681565b6136048161423c565b6060810161426d82866136e5565b61427a6020830185614256565b818103604083015261428c8184613658565b95945050505050565b8051610b5881613a98565b6000602082840312156142b5576142b5600080fd5b60006132ec8484614295565b60208082528101610b5881602681527f4f776e61626c653a206e6577206f776e657220697320746865207a65726f206160208201527f6464726573730000000000000000000000000000000000000000000000000000604082015260600190565b600082614331576143316140fa565b500690565b6000610b588260f81b90565b61360460ff8216614336565b6143588183614342565b600101919050565b60a0810161436e828561400c565b61369b6060830184613a01565b6000610b588260601b90565b6000610b588261437b565b61360461439e826136d4565b614387565b6143ad8187613618565b6020016143ba8186614392565b6014016143c78185613618565b6020016143d48184613618565b6020016143e18183613618565b60200195945050505050565b608081016143fb82876136e5565b61440860208301866136e5565b6144156040830185613618565b8181036060830152613f998184613658565b8051610b58816135bd565b60006020828403121561444757614447600080fd5b60006132ec848461442756fea2646970667358221220c792b75e6bd1c63d34af8d859715d25c8cfcc3eaa0f721f3441b9f5cc1ebf18064736f6c634300080c0033",
  "devdoc": {
    "kind": "dev",
    "methods": {
      "TheAnswer(uint256,uint256)": {
        "params": {
          "tokenId": "The selected token to be displayed on the website. This should be owned by the winner.",
          "value": "Word biggest mysteries are solved with this single value."
        }
      },
      "approve(address,uint256)": {
        "details": "See {IERC721-approve}."
      },
      "balanceOf(address)": {
        "details": "See {IERC721-balanceOf}."
      },
      "fulfillContest(uint256,address,uint256)": {
        "params": {
          "giveawayIndex": "The index of the giveaway to fulfill, 0 based (the first giveaway is index 0).",
          "selectedToken": "The selected token to be displayed on the website.",
          "winner": "The selected winner address."
        }
      },
      "getApproved(uint256)": {
        "details": "See {IERC721-getApproved}."
      },
      "isApprovedForAll(address,address)": {
        "details": "See {IERC721-isApprovedForAll}."
      },
      "isMettaEnabled(uint256)": {
        "params": {
          "tokenId": "The Co-Bot token ID"
        }
      },
      "mintPublicSale(uint256,uint256[])": {
        "details": "The tokenIdsV1 parameter can be empty. The call will revert only if the sender pretends to own some      Co-Bots V1 that they actually don't. However it accepts already redeemed token and just ignore them silently.      This is to make it easier for people using etherscan to copy a bunch of token Ids without having to      manually check if they are redeemed or not. However, it is optimal in terms of gas fees to only give      tokenIds if they can actually be redeemed.",
        "params": {
          "quantity": "The number of COBOTS to mint.",
          "tokenIdsV1": "A list of V1 Co-Bots token Ids owned by the sender, used to determine the discount."
        }
      },
      "name()": {
        "details": "See {IERC721Metadata-name}."
      },
      "owner()": {
        "details": "Returns the address of the current owner."
      },
      "ownerOf(uint256)": {
        "details": "See {IERC721-ownerOf}."
      },
      "renounceOwnership()": {
        "details": "Leaves the contract without owner. It will not be possible to call `onlyOwner` functions anymore. Can only be called by the current owner. NOTE: Renouncing ownership will leave the contract without an owner, thereby removing any functionality that is only available to the owner."
      },
      "safeTransferFrom(address,address,uint256)": {
        "details": "See {IERC721-safeTransferFrom}."
      },
      "safeTransferFrom(address,address,uint256,bytes)": {
        "details": "See {IERC721-safeTransferFrom}."
      },
      "setApprovalForAll(address,bool)": {
        "details": "See {IERC721-setApprovalForAll}."
      },
      "supportsInterface(bytes4)": {
        "details": "See {IERC165-supportsInterface}."
      },
      "symbol()": {
        "details": "See {IERC721Metadata-symbol}."
      },
      "tokenByIndex(uint256)": {
        "details": "See {IERC721Enumerable-tokenByIndex}. This read function is O(totalSupply). If calling from a separate contract, be sure to test gas first. It may also degrade with extremely large collection sizes (e.g >> 10000), test for your use case."
      },
      "tokenOfOwnerByIndex(address,uint256)": {
        "details": "See {IERC721Enumerable-tokenOfOwnerByIndex}. This read function is O(totalSupply). If calling from a separate contract, be sure to test gas first. It may also degrade with extremely large collection sizes (e.g >> 10000), test for your use case."
      },
      "totalSupply()": {
        "details": "See {IERC721Enumerable-totalSupply}."
      },
      "transferFrom(address,address,uint256)": {
        "details": "See {IERC721-transferFrom}."
      },
      "transferOwnership(address)": {
        "details": "Transfers ownership of the contract to a new account (`newOwner`). Can only be called by the current owner."
      }
    },
    "version": 1
  },
  "userdoc": {
    "kind": "user",
    "methods": {
      "TheAnswer(uint256,uint256)": {
        "notice": "Call this when, you know, you probably know what you're doing here.         revert."
      },
      "draw()": {
        "notice": "This function can be called at any time by anyone to trigger the unlocked giveaways. It will         revert if there is nothing to unlock to prevent anon from making useless tx. (Usually wallet, e.g.         metamask, warn this before signing).         Giveaways that use Chainlink VRF oracle will be fulfilled automatically by Chainlink. Giveaways that         require founders to unlock will be fulfilled by the founders."
      },
      "fulfillContest(uint256,address,uint256)": {
        "notice": "This function lets the owner fulfill a giveaway. If the giveaway has not been unlocked, this will         revert."
      },
      "getOrderedFulfillments()": {
        "notice": "Use this to retrieve the ordered list of winners with their corresponding prizes and token Id.          Pending fulfillments are included (no winner drawn yet, probably waiting for Chainlink to fulfill)."
      },
      "isMettaEnabled(uint256)": {
        "notice": "Return true if the Co-Bot displays metta screen"
      },
      "mintPublicSale(uint256,uint256[])": {
        "notice": "Mints a batch of Co-Bots to the sender."
      },
      "withdraw()": {
        "notice": "At any point in time, founders can withdraw only up to the required balance to insure that the giveaways          will be paid. We take a conservative approach considering that all the remaining discounted bots will be minted          as soon as possible."
      }
    },
    "version": 1
  },
  "storageLayout": {
    "storage": [
      {
        "astId": 12378,
        "contract": "contracts/co-bots/CoBotsV2.sol:CoBotsV2",
        "label": "_currentIndex",
        "offset": 0,
        "slot": "0",
        "type": "t_uint128"
      },
      {
        "astId": 12380,
        "contract": "contracts/co-bots/CoBotsV2.sol:CoBotsV2",
        "label": "_burnCounter",
        "offset": 16,
        "slot": "0",
        "type": "t_uint128"
      },
      {
        "astId": 12382,
        "contract": "contracts/co-bots/CoBotsV2.sol:CoBotsV2",
        "label": "_name",
        "offset": 0,
        "slot": "1",
        "type": "t_string_storage"
      },
      {
        "astId": 12384,
        "contract": "contracts/co-bots/CoBotsV2.sol:CoBotsV2",
        "label": "_symbol",
        "offset": 0,
        "slot": "2",
        "type": "t_string_storage"
      },
      {
        "astId": 12389,
        "contract": "contracts/co-bots/CoBotsV2.sol:CoBotsV2",
        "label": "_ownerships",
        "offset": 0,
        "slot": "3",
        "type": "t_mapping(t_uint256,t_struct(TokenOwnership)12369_storage)"
      },
      {
        "astId": 12394,
        "contract": "contracts/co-bots/CoBotsV2.sol:CoBotsV2",
        "label": "_addressData",
        "offset": 0,
        "slot": "4",
        "type": "t_mapping(t_address,t_struct(AddressData)12376_storage)"
      },
      {
        "astId": 12398,
        "contract": "contracts/co-bots/CoBotsV2.sol:CoBotsV2",
        "label": "_tokenApprovals",
        "offset": 0,
        "slot": "5",
        "type": "t_mapping(t_uint256,t_address)"
      },
      {
        "astId": 12404,
        "contract": "contracts/co-bots/CoBotsV2.sol:CoBotsV2",
        "label": "_operatorApprovals",
        "offset": 0,
        "slot": "6",
        "type": "t_mapping(t_address,t_mapping(t_address,t_bool))"
      },
      {
        "astId": 6342,
        "contract": "contracts/co-bots/CoBotsV2.sol:CoBotsV2",
        "label": "_owner",
        "offset": 0,
        "slot": "7",
        "type": "t_address"
      },
      {
        "astId": 6450,
        "contract": "contracts/co-bots/CoBotsV2.sol:CoBotsV2",
        "label": "_status",
        "offset": 0,
        "slot": "8",
        "type": "t_uint256"
      },
      {
        "astId": 11856,
        "contract": "contracts/co-bots/CoBotsV2.sol:CoBotsV2",
        "label": "publicSaleStartTimestamp",
        "offset": 0,
        "slot": "9",
        "type": "t_uint256"
      },
      {
        "astId": 11858,
        "contract": "contracts/co-bots/CoBotsV2.sol:CoBotsV2",
        "label": "mintedOutTimestamp",
        "offset": 0,
        "slot": "10",
        "type": "t_uint256"
      },
      {
        "astId": 10594,
        "contract": "contracts/co-bots/CoBotsV2.sol:CoBotsV2",
        "label": "PARAMETERS",
        "offset": 0,
        "slot": "11",
        "type": "t_struct(Parameters)10585_storage"
      },
      {
        "astId": 10598,
        "contract": "contracts/co-bots/CoBotsV2.sol:CoBotsV2",
        "label": "PRIZES",
        "offset": 0,
        "slot": "12",
        "type": "t_array(t_struct(Prize)10565_storage)dyn_storage"
      },
      {
        "astId": 10601,
        "contract": "contracts/co-bots/CoBotsV2.sol:CoBotsV2",
        "label": "MYSTERY_CHALLENGE",
        "offset": 0,
        "slot": "13",
        "type": "t_struct(MysteryChallenge)10572_storage"
      },
      {
        "astId": 10604,
        "contract": "contracts/co-bots/CoBotsV2.sol:CoBotsV2",
        "label": "ENS",
        "offset": 0,
        "slot": "16",
        "type": "t_contract(IERC721)6595"
      },
      {
        "astId": 10607,
        "contract": "contracts/co-bots/CoBotsV2.sol:CoBotsV2",
        "label": "COBOTS_V1",
        "offset": 0,
        "slot": "17",
        "type": "t_contract(IERC721Enumerable)6644"
      },
      {
        "astId": 10609,
        "contract": "contracts/co-bots/CoBotsV2.sol:CoBotsV2",
        "label": "renderingContractAddress",
        "offset": 0,
        "slot": "18",
        "type": "t_address"
      },
      {
        "astId": 10612,
        "contract": "contracts/co-bots/CoBotsV2.sol:CoBotsV2",
        "label": "renderer",
        "offset": 0,
        "slot": "19",
        "type": "t_contract(ICoBotsRendererV2)11992"
      },
      {
        "astId": 10615,
        "contract": "contracts/co-bots/CoBotsV2.sol:CoBotsV2",
        "label": "coBotsSeeds",
        "offset": 0,
        "slot": "20",
        "type": "t_array(t_uint8)dyn_storage"
      },
      {
        "astId": 10619,
        "contract": "contracts/co-bots/CoBotsV2.sol:CoBotsV2",
        "label": "coBotsV1Redeemed",
        "offset": 0,
        "slot": "21",
        "type": "t_mapping(t_uint256,t_bool)"
      },
      {
        "astId": 10621,
        "contract": "contracts/co-bots/CoBotsV2.sol:CoBotsV2",
        "label": "_redeemedCount",
        "offset": 0,
        "slot": "22",
        "type": "t_uint256"
      },
      {
        "astId": 11273,
        "contract": "contracts/co-bots/CoBotsV2.sol:CoBotsV2",
        "label": "COORDINATOR",
        "offset": 0,
        "slot": "23",
        "type": "t_contract(VRFCoordinatorV2Interface)4116"
      },
      {
        "astId": 11276,
        "contract": "contracts/co-bots/CoBotsV2.sol:CoBotsV2",
        "label": "LINKTOKEN",
        "offset": 0,
        "slot": "24",
        "type": "t_contract(LinkTokenInterface)4003"
      },
      {
        "astId": 11278,
        "contract": "contracts/co-bots/CoBotsV2.sol:CoBotsV2",
        "label": "gasKeyHash",
        "offset": 0,
        "slot": "25",
        "type": "t_bytes32"
      },
      {
        "astId": 11280,
        "contract": "contracts/co-bots/CoBotsV2.sol:CoBotsV2",
        "label": "chainlinkSubscriptionId",
        "offset": 0,
        "slot": "26",
        "type": "t_uint64"
      },
      {
        "astId": 11360,
        "contract": "contracts/co-bots/CoBotsV2.sol:CoBotsV2",
        "label": "fulfillments",
        "offset": 0,
        "slot": "27",
        "type": "t_mapping(t_uint256,t_struct(Fulfillment)11355_storage)"
      },
      {
        "astId": 11363,
        "contract": "contracts/co-bots/CoBotsV2.sol:CoBotsV2",
        "label": "requestIds",
        "offset": 0,
        "slot": "28",
        "type": "t_array(t_uint256)dyn_storage"
      },
      {
        "astId": 11365,
        "contract": "contracts/co-bots/CoBotsV2.sol:CoBotsV2",
        "label": "drawnAmount",
        "offset": 0,
        "slot": "29",
        "type": "t_uint256"
      }
    ],
    "types": {
      "t_address": {
        "encoding": "inplace",
        "label": "address",
        "numberOfBytes": "20"
      },
      "t_array(t_struct(Prize)10565_storage)dyn_storage": {
        "base": "t_struct(Prize)10565_storage",
        "encoding": "dynamic_array",
        "label": "struct CoBotsV2.Prize[]",
        "numberOfBytes": "32"
      },
      "t_array(t_uint256)dyn_storage": {
        "base": "t_uint256",
        "encoding": "dynamic_array",
        "label": "uint256[]",
        "numberOfBytes": "32"
      },
      "t_array(t_uint8)dyn_storage": {
        "base": "t_uint8",
        "encoding": "dynamic_array",
        "label": "uint8[]",
        "numberOfBytes": "32"
      },
      "t_bool": {
        "encoding": "inplace",
        "label": "bool",
        "numberOfBytes": "1"
      },
      "t_bytes32": {
        "encoding": "inplace",
        "label": "bytes32",
        "numberOfBytes": "32"
      },
      "t_contract(ICoBotsRendererV2)11992": {
        "encoding": "inplace",
        "label": "contract ICoBotsRendererV2",
        "numberOfBytes": "20"
      },
      "t_contract(IERC721)6595": {
        "encoding": "inplace",
        "label": "contract IERC721",
        "numberOfBytes": "20"
      },
      "t_contract(IERC721Enumerable)6644": {
        "encoding": "inplace",
        "label": "contract IERC721Enumerable",
        "numberOfBytes": "20"
      },
      "t_contract(LinkTokenInterface)4003": {
        "encoding": "inplace",
        "label": "contract LinkTokenInterface",
        "numberOfBytes": "20"
      },
      "t_contract(VRFCoordinatorV2Interface)4116": {
        "encoding": "inplace",
        "label": "contract VRFCoordinatorV2Interface",
        "numberOfBytes": "20"
      },
      "t_mapping(t_address,t_bool)": {
        "encoding": "mapping",
        "key": "t_address",
        "label": "mapping(address => bool)",
        "numberOfBytes": "32",
        "value": "t_bool"
      },
      "t_mapping(t_address,t_mapping(t_address,t_bool))": {
        "encoding": "mapping",
        "key": "t_address",
        "label": "mapping(address => mapping(address => bool))",
        "numberOfBytes": "32",
        "value": "t_mapping(t_address,t_bool)"
      },
      "t_mapping(t_address,t_struct(AddressData)12376_storage)": {
        "encoding": "mapping",
        "key": "t_address",
        "label": "mapping(address => struct ERC721A.AddressData)",
        "numberOfBytes": "32",
        "value": "t_struct(AddressData)12376_storage"
      },
      "t_mapping(t_uint256,t_address)": {
        "encoding": "mapping",
        "key": "t_uint256",
        "label": "mapping(uint256 => address)",
        "numberOfBytes": "32",
        "value": "t_address"
      },
      "t_mapping(t_uint256,t_bool)": {
        "encoding": "mapping",
        "key": "t_uint256",
        "label": "mapping(uint256 => bool)",
        "numberOfBytes": "32",
        "value": "t_bool"
      },
      "t_mapping(t_uint256,t_struct(Fulfillment)11355_storage)": {
        "encoding": "mapping",
        "key": "t_uint256",
        "label": "mapping(uint256 => struct CoBotsV2.Fulfillment)",
        "numberOfBytes": "32",
        "value": "t_struct(Fulfillment)11355_storage"
      },
      "t_mapping(t_uint256,t_struct(TokenOwnership)12369_storage)": {
        "encoding": "mapping",
        "key": "t_uint256",
        "label": "mapping(uint256 => struct ERC721A.TokenOwnership)",
        "numberOfBytes": "32",
        "value": "t_struct(TokenOwnership)12369_storage"
      },
      "t_string_storage": {
        "encoding": "bytes",
        "label": "string",
        "numberOfBytes": "32"
      },
      "t_struct(AddressData)12376_storage": {
        "encoding": "inplace",
        "label": "struct ERC721A.AddressData",
        "members": [
          {
            "astId": 12371,
            "contract": "contracts/co-bots/CoBotsV2.sol:CoBotsV2",
            "label": "balance",
            "offset": 0,
            "slot": "0",
            "type": "t_uint64"
          },
          {
            "astId": 12373,
            "contract": "contracts/co-bots/CoBotsV2.sol:CoBotsV2",
            "label": "numberMinted",
            "offset": 8,
            "slot": "0",
            "type": "t_uint64"
          },
          {
            "astId": 12375,
            "contract": "contracts/co-bots/CoBotsV2.sol:CoBotsV2",
            "label": "numberBurned",
            "offset": 16,
            "slot": "0",
            "type": "t_uint64"
          }
        ],
        "numberOfBytes": "32"
      },
      "t_struct(Fulfillment)11355_storage": {
        "encoding": "inplace",
        "label": "struct CoBotsV2.Fulfillment",
        "members": [
          {
            "astId": 11349,
            "contract": "contracts/co-bots/CoBotsV2.sol:CoBotsV2",
            "label": "prize",
            "offset": 0,
            "slot": "0",
            "type": "t_struct(Prize)10565_storage"
          },
          {
            "astId": 11351,
            "contract": "contracts/co-bots/CoBotsV2.sol:CoBotsV2",
            "label": "fulfilled",
            "offset": 0,
            "slot": "1",
            "type": "t_bool"
          },
          {
            "astId": 11354,
            "contract": "contracts/co-bots/CoBotsV2.sol:CoBotsV2",
            "label": "winner",
            "offset": 0,
            "slot": "2",
            "type": "t_struct(Winner)11346_storage"
          }
        ],
        "numberOfBytes": "96"
      },
      "t_struct(MysteryChallenge)10572_storage": {
        "encoding": "inplace",
        "label": "struct CoBotsV2.MysteryChallenge",
        "members": [
          {
            "astId": 10567,
            "contract": "contracts/co-bots/CoBotsV2.sol:CoBotsV2",
            "label": "ensId",
            "offset": 0,
            "slot": "0",
            "type": "t_uint256"
          },
          {
            "astId": 10569,
            "contract": "contracts/co-bots/CoBotsV2.sol:CoBotsV2",
            "label": "value",
            "offset": 0,
            "slot": "1",
            "type": "t_uint256"
          },
          {
            "astId": 10571,
            "contract": "contracts/co-bots/CoBotsV2.sol:CoBotsV2",
            "label": "prizeIndex",
            "offset": 0,
            "slot": "2",
            "type": "t_uint8"
          }
        ],
        "numberOfBytes": "96"
      },
      "t_struct(Parameters)10585_storage": {
        "encoding": "inplace",
        "label": "struct CoBotsV2.Parameters",
        "members": [
          {
            "astId": 10574,
            "contract": "contracts/co-bots/CoBotsV2.sol:CoBotsV2",
            "label": "cobotsV1Discount",
            "offset": 0,
            "slot": "0",
            "type": "t_uint8"
          },
          {
            "astId": 10576,
            "contract": "contracts/co-bots/CoBotsV2.sol:CoBotsV2",
            "label": "mintOutFoundersWithdrawalDelay",
            "offset": 1,
            "slot": "0",
            "type": "t_uint16"
          },
          {
            "astId": 10578,
            "contract": "contracts/co-bots/CoBotsV2.sol:CoBotsV2",
            "label": "grandPrizeDelay",
            "offset": 3,
            "slot": "0",
            "type": "t_uint16"
          },
          {
            "astId": 10580,
            "contract": "contracts/co-bots/CoBotsV2.sol:CoBotsV2",
            "label": "maxCobots",
            "offset": 5,
            "slot": "0",
            "type": "t_uint16"
          },
          {
            "astId": 10582,
            "contract": "contracts/co-bots/CoBotsV2.sol:CoBotsV2",
            "label": "contestDuration",
            "offset": 7,
            "slot": "0",
            "type": "t_uint24"
          },
          {
            "astId": 10584,
            "contract": "contracts/co-bots/CoBotsV2.sol:CoBotsV2",
            "label": "mintPublicPrice",
            "offset": 10,
            "slot": "0",
            "type": "t_uint72"
          }
        ],
        "numberOfBytes": "32"
      },
      "t_struct(Prize)10565_storage": {
        "encoding": "inplace",
        "label": "struct CoBotsV2.Prize",
        "members": [
          {
            "astId": 10560,
            "contract": "contracts/co-bots/CoBotsV2.sol:CoBotsV2",
            "label": "checkpoint",
            "offset": 0,
            "slot": "0",
            "type": "t_uint16"
          },
          {
            "astId": 10562,
            "contract": "contracts/co-bots/CoBotsV2.sol:CoBotsV2",
            "label": "amount",
            "offset": 2,
            "slot": "0",
            "type": "t_uint72"
          },
          {
            "astId": 10564,
            "contract": "contracts/co-bots/CoBotsV2.sol:CoBotsV2",
            "label": "isContest",
            "offset": 11,
            "slot": "0",
            "type": "t_bool"
          }
        ],
        "numberOfBytes": "32"
      },
      "t_struct(TokenOwnership)12369_storage": {
        "encoding": "inplace",
        "label": "struct ERC721A.TokenOwnership",
        "members": [
          {
            "astId": 12364,
            "contract": "contracts/co-bots/CoBotsV2.sol:CoBotsV2",
            "label": "addr",
            "offset": 0,
            "slot": "0",
            "type": "t_address"
          },
          {
            "astId": 12366,
            "contract": "contracts/co-bots/CoBotsV2.sol:CoBotsV2",
            "label": "startTimestamp",
            "offset": 20,
            "slot": "0",
            "type": "t_uint64"
          },
          {
            "astId": 12368,
            "contract": "contracts/co-bots/CoBotsV2.sol:CoBotsV2",
            "label": "burned",
            "offset": 28,
            "slot": "0",
            "type": "t_bool"
          }
        ],
        "numberOfBytes": "32"
      },
      "t_struct(Winner)11346_storage": {
        "encoding": "inplace",
        "label": "struct CoBotsV2.Winner",
        "members": [
          {
            "astId": 11343,
            "contract": "contracts/co-bots/CoBotsV2.sol:CoBotsV2",
            "label": "winner",
            "offset": 0,
            "slot": "0",
            "type": "t_address"
          },
          {
            "astId": 11345,
            "contract": "contracts/co-bots/CoBotsV2.sol:CoBotsV2",
            "label": "tokenId",
            "offset": 20,
            "slot": "0",
            "type": "t_uint16"
          }
        ],
        "numberOfBytes": "32"
      },
      "t_uint128": {
        "encoding": "inplace",
        "label": "uint128",
        "numberOfBytes": "16"
      },
      "t_uint16": {
        "encoding": "inplace",
        "label": "uint16",
        "numberOfBytes": "2"
      },
      "t_uint24": {
        "encoding": "inplace",
        "label": "uint24",
        "numberOfBytes": "3"
      },
      "t_uint256": {
        "encoding": "inplace",
        "label": "uint256",
        "numberOfBytes": "32"
      },
      "t_uint64": {
        "encoding": "inplace",
        "label": "uint64",
        "numberOfBytes": "8"
      },
      "t_uint72": {
        "encoding": "inplace",
        "label": "uint72",
        "numberOfBytes": "9"
      },
      "t_uint8": {
        "encoding": "inplace",
        "label": "uint8",
        "numberOfBytes": "1"
      }
    }
  }
}