{
  "address": "0xF7B403DE6E49eC9e94fD7bb261F8550552bE76F5",
  "abi": [
    {
      "inputs": [
        {
          "internalType": "string",
          "name": "name_",
          "type": "string"
        },
        {
          "internalType": "string",
          "name": "symbol_",
          "type": "string"
        },
        {
          "internalType": "address",
          "name": "_rendererAddress",
          "type": "address"
        },
        {
          "internalType": "address",
          "name": "vrfCoordinator",
          "type": "address"
        },
        {
          "internalType": "address",
          "name": "link",
          "type": "address"
        },
        {
          "internalType": "bytes32",
          "name": "keyHash",
          "type": "bytes32"
        },
        {
          "components": [
            {
              "internalType": "uint16",
              "name": "mintOutFoundersWithdrawalDelay",
              "type": "uint16"
            },
            {
              "internalType": "uint16",
              "name": "grandPrizeDelay",
              "type": "uint16"
            },
            {
              "internalType": "uint16",
              "name": "maxCobots",
              "type": "uint16"
            },
            {
              "internalType": "uint24",
              "name": "contestDuration",
              "type": "uint24"
            },
            {
              "internalType": "uint72",
              "name": "mintPublicPrice",
              "type": "uint72"
            },
            {
              "internalType": "uint72",
              "name": "cobotsV1Discount",
              "type": "uint72"
            }
          ],
          "internalType": "struct CoBotsV2.Parameters",
          "name": "_parameters",
          "type": "tuple"
        },
        {
          "components": [
            {
              "internalType": "uint16",
              "name": "checkpoint",
              "type": "uint16"
            },
            {
              "internalType": "uint72",
              "name": "amount",
              "type": "uint72"
            },
            {
              "internalType": "bool",
              "name": "isContest",
              "type": "bool"
            }
          ],
          "internalType": "struct CoBotsV2.Prize[]",
          "name": "_prizes",
          "type": "tuple[]"
        },
        {
          "internalType": "address",
          "name": "ens",
          "type": "address"
        },
        {
          "internalType": "address",
          "name": "cobotsV1",
          "type": "address"
        },
        {
          "components": [
            {
              "internalType": "uint256",
              "name": "ensId",
              "type": "uint256"
            },
            {
              "internalType": "uint256",
              "name": "value",
              "type": "uint256"
            },
            {
              "internalType": "uint8",
              "name": "prizeIndex",
              "type": "uint8"
            }
          ],
          "internalType": "struct CoBotsV2.MysteryChallenge",
          "name": "_mysteryChallenge",
          "type": "tuple"
        }
      ],
      "stateMutability": "nonpayable",
      "type": "constructor"
    },
    {
      "inputs": [],
      "name": "AllocationExceeded",
      "type": "error"
    },
    {
      "inputs": [],
      "name": "ApprovalCallerNotOwnerNorApproved",
      "type": "error"
    },
    {
      "inputs": [],
      "name": "ApprovalQueryForNonexistentToken",
      "type": "error"
    },
    {
      "inputs": [],
      "name": "ApprovalToCurrentOwner",
      "type": "error"
    },
    {
      "inputs": [],
      "name": "ApproveToCaller",
      "type": "error"
    },
    {
      "inputs": [],
      "name": "BalanceQueryForZeroAddress",
      "type": "error"
    },
    {
      "inputs": [],
      "name": "BatchLimitExceeded",
      "type": "error"
    },
    {
      "inputs": [],
      "name": "ChainlinkSubscriptionNotFound",
      "type": "error"
    },
    {
      "inputs": [],
      "name": "FailSafeWithdrawalNotEnabled",
      "type": "error"
    },
    {
      "inputs": [],
      "name": "FulfillRequestForNonExistentContest",
      "type": "error"
    },
    {
      "inputs": [],
      "name": "FulfillRequestRedrawn",
      "type": "error"
    },
    {
      "inputs": [],
      "name": "FulfillRequestWithTokenNotOwnedByWinner",
      "type": "error"
    },
    {
      "inputs": [],
      "name": "FulfillRequestWithTokenOutOfBounds",
      "type": "error"
    },
    {
      "inputs": [],
      "name": "FulfillmentAlreadyFulfilled",
      "type": "error"
    },
    {
      "inputs": [],
      "name": "InsufficientFunds",
      "type": "error"
    },
    {
      "inputs": [],
      "name": "MintToZeroAddress",
      "type": "error"
    },
    {
      "inputs": [],
      "name": "MintZeroQuantity",
      "type": "error"
    },
    {
      "inputs": [],
      "name": "MysteryChallengeSenderDoesNotOwnENS",
      "type": "error"
    },
    {
      "inputs": [],
      "name": "MysteryChallengeValueDoesNotMatch",
      "type": "error"
    },
    {
      "inputs": [],
      "name": "NoGiveawayToTrigger",
      "type": "error"
    },
    {
      "inputs": [],
      "name": "NonexistentRenderer",
      "type": "error"
    },
    {
      "inputs": [
        {
          "internalType": "address",
          "name": "have",
          "type": "address"
        },
        {
          "internalType": "address",
          "name": "want",
          "type": "address"
        }
      ],
      "name": "OnlyCoordinatorCanFulfill",
      "type": "error"
    },
    {
      "inputs": [],
      "name": "OwnerIndexOutOfBounds",
      "type": "error"
    },
    {
      "inputs": [],
      "name": "OwnerQueryForNonexistentToken",
      "type": "error"
    },
    {
      "inputs": [],
      "name": "PublicSaleNotOpen",
      "type": "error"
    },
    {
      "inputs": [],
      "name": "PublicSaleOpen",
      "type": "error"
    },
    {
      "inputs": [],
      "name": "RedeemTokenNotOwner",
      "type": "error"
    },
    {
      "inputs": [],
      "name": "ToggleMettaCallerNotOwner",
      "type": "error"
    },
    {
      "inputs": [],
      "name": "TokenIndexOutOfBounds",
      "type": "error"
    },
    {
      "inputs": [],
      "name": "TokenNotMintedOut",
      "type": "error"
    },
    {
      "inputs": [],
      "name": "TotalSupplyExceeded",
      "type": "error"
    },
    {
      "inputs": [],
      "name": "TransferCallerNotOwnerNorApproved",
      "type": "error"
    },
    {
      "inputs": [],
      "name": "TransferFailed",
      "type": "error"
    },
    {
      "inputs": [],
      "name": "TransferFromIncorrectOwner",
      "type": "error"
    },
    {
      "inputs": [],
      "name": "TransferToNonERC721ReceiverImplementer",
      "type": "error"
    },
    {
      "inputs": [],
      "name": "TransferToZeroAddress",
      "type": "error"
    },
    {
      "inputs": [],
      "name": "URIQueryForNonexistentToken",
      "type": "error"
    },
    {
      "inputs": [],
      "name": "WithdrawalFailed",
      "type": "error"
    },
    {
      "inputs": [
        {
          "internalType": "uint256",
          "name": "paidPrice",
          "type": "uint256"
        },
        {
          "internalType": "uint256",
          "name": "expectedPrice",
          "type": "uint256"
        }
      ],
      "name": "WrongPrice",
      "type": "error"
    },
    {
      "anonymous": false,
      "inputs": [
        {
          "indexed": true,
          "internalType": "address",
          "name": "owner",
          "type": "address"
        },
        {
          "indexed": true,
          "internalType": "address",
          "name": "approved",
          "type": "address"
        },
        {
          "indexed": true,
          "internalType": "uint256",
          "name": "tokenId",
          "type": "uint256"
        }
      ],
      "name": "Approval",
      "type": "event"
    },
    {
      "anonymous": false,
      "inputs": [
        {
          "indexed": true,
          "internalType": "address",
          "name": "owner",
          "type": "address"
        },
        {
          "indexed": true,
          "internalType": "address",
          "name": "operator",
          "type": "address"
        },
        {
          "indexed": false,
          "internalType": "bool",
          "name": "approved",
          "type": "bool"
        }
      ],
      "name": "ApprovalForAll",
      "type": "event"
    },
    {
      "anonymous": false,
      "inputs": [
        {
          "indexed": true,
          "internalType": "uint256",
          "name": "requestId",
          "type": "uint256"
        },
        {
          "components": [
            {
              "internalType": "uint16",
              "name": "checkpoint",
              "type": "uint16"
            },
            {
              "internalType": "uint72",
              "name": "amount",
              "type": "uint72"
            },
            {
              "internalType": "bool",
              "name": "isContest",
              "type": "bool"
            }
          ],
          "indexed": false,
          "internalType": "struct CoBotsV2.Prize",
          "name": "prize",
          "type": "tuple"
        }
      ],
      "name": "CheckpointDrawn",
      "type": "event"
    },
    {
      "anonymous": false,
      "inputs": [
        {
          "indexed": true,
          "internalType": "uint256",
          "name": "requestId",
          "type": "uint256"
        },
        {
          "components": [
            {
              "internalType": "uint16",
              "name": "checkpoint",
              "type": "uint16"
            },
            {
              "internalType": "uint72",
              "name": "amount",
              "type": "uint72"
            },
            {
              "internalType": "bool",
              "name": "isContest",
              "type": "bool"
            }
          ],
          "indexed": false,
          "internalType": "struct CoBotsV2.Prize",
          "name": "prize",
          "type": "tuple"
        },
        {
          "components": [
            {
              "internalType": "address",
              "name": "winner",
              "type": "address"
            },
            {
              "internalType": "uint16",
              "name": "tokenId",
              "type": "uint16"
            }
          ],
          "indexed": false,
          "internalType": "struct CoBotsV2.Winner",
          "name": "winner",
          "type": "tuple"
        }
      ],
      "name": "CheckpointFulfilled",
      "type": "event"
    },
    {
      "anonymous": false,
      "inputs": [],
      "name": "DrawBeforeWithdrawal",
      "type": "event"
    },
    {
      "anonymous": false,
      "inputs": [],
      "name": "GiveawayFinished",
      "type": "event"
    },
    {
      "anonymous": false,
      "inputs": [
        {
          "indexed": true,
          "internalType": "uint256",
          "name": "tokenId",
          "type": "uint256"
        },
        {
          "indexed": false,
          "internalType": "bool",
          "name": "isMetta",
          "type": "bool"
        }
      ],
      "name": "MettaToggled",
      "type": "event"
    },
    {
      "anonymous": false,
      "inputs": [
        {
          "indexed": true,
          "internalType": "address",
          "name": "previousOwner",
          "type": "address"
        },
        {
          "indexed": true,
          "internalType": "address",
          "name": "newOwner",
          "type": "address"
        }
      ],
      "name": "OwnershipTransferred",
      "type": "event"
    },
    {
      "anonymous": false,
      "inputs": [
        {
          "indexed": true,
          "internalType": "address",
          "name": "renderer",
          "type": "address"
        }
      ],
      "name": "RendererContractUpdated",
      "type": "event"
    },
    {
      "anonymous": false,
      "inputs": [
        {
          "indexed": true,
          "internalType": "address",
          "name": "from",
          "type": "address"
        },
        {
          "indexed": true,
          "internalType": "address",
          "name": "to",
          "type": "address"
        },
        {
          "indexed": true,
          "internalType": "uint256",
          "name": "tokenId",
          "type": "uint256"
        }
      ],
      "name": "Transfer",
      "type": "event"
    },
    {
      "anonymous": false,
      "inputs": [
        {
          "indexed": false,
          "internalType": "uint256",
          "name": "amount",
          "type": "uint256"
        }
      ],
      "name": "Withdrawal",
      "type": "event"
    },
    {
      "inputs": [],
      "name": "COORDINATOR",
      "outputs": [
        {
          "internalType": "contract VRFCoordinatorV2Interface",
          "name": "",
          "type": "address"
        }
      ],
      "stateMutability": "view",
      "type": "function"
    },
    {
      "inputs": [],
      "name": "LINKTOKEN",
      "outputs": [
        {
          "internalType": "contract LinkTokenInterface",
          "name": "",
          "type": "address"
        }
      ],
      "stateMutability": "view",
      "type": "function"
    },
    {
      "inputs": [],
      "name": "MINT_BATCH_LIMIT",
      "outputs": [
        {
          "internalType": "uint8",
          "name": "",
          "type": "uint8"
        }
      ],
      "stateMutability": "view",
      "type": "function"
    },
    {
      "inputs": [],
      "name": "MINT_FOUNDERS",
      "outputs": [
        {
          "internalType": "uint8",
          "name": "",
          "type": "uint8"
        }
      ],
      "stateMutability": "view",
      "type": "function"
    },
    {
      "inputs": [],
      "name": "PARAMETERS",
      "outputs": [
        {
          "internalType": "uint16",
          "name": "mintOutFoundersWithdrawalDelay",
          "type": "uint16"
        },
        {
          "internalType": "uint16",
          "name": "grandPrizeDelay",
          "type": "uint16"
        },
        {
          "internalType": "uint16",
          "name": "maxCobots",
          "type": "uint16"
        },
        {
          "internalType": "uint24",
          "name": "contestDuration",
          "type": "uint24"
        },
        {
          "internalType": "uint72",
          "name": "mintPublicPrice",
          "type": "uint72"
        },
        {
          "internalType": "uint72",
          "name": "cobotsV1Discount",
          "type": "uint72"
        }
      ],
      "stateMutability": "view",
      "type": "function"
    },
    {
      "inputs": [
        {
          "internalType": "uint256",
          "name": "",
          "type": "uint256"
        }
      ],
      "name": "PRIZES",
      "outputs": [
        {
          "internalType": "uint16",
          "name": "checkpoint",
          "type": "uint16"
        },
        {
          "internalType": "uint72",
          "name": "amount",
          "type": "uint72"
        },
        {
          "internalType": "bool",
          "name": "isContest",
          "type": "bool"
        }
      ],
      "stateMutability": "view",
      "type": "function"
    },
    {
      "inputs": [
        {
          "internalType": "uint256",
          "name": "value",
          "type": "uint256"
        },
        {
          "internalType": "uint256",
          "name": "tokenId",
          "type": "uint256"
        }
      ],
      "name": "TheAnswer",
      "outputs": [],
      "stateMutability": "nonpayable",
      "type": "function"
    },
    {
      "inputs": [
        {
          "internalType": "address",
          "name": "to",
          "type": "address"
        },
        {
          "internalType": "uint256",
          "name": "tokenId",
          "type": "uint256"
        }
      ],
      "name": "approve",
      "outputs": [],
      "stateMutability": "nonpayable",
      "type": "function"
    },
    {
      "inputs": [
        {
          "internalType": "address",
          "name": "owner",
          "type": "address"
        }
      ],
      "name": "balanceOf",
      "outputs": [
        {
          "internalType": "uint256",
          "name": "",
          "type": "uint256"
        }
      ],
      "stateMutability": "view",
      "type": "function"
    },
    {
      "inputs": [],
      "name": "cancelSubscription",
      "outputs": [],
      "stateMutability": "nonpayable",
      "type": "function"
    },
    {
      "inputs": [],
      "name": "chainlinkSubscriptionId",
      "outputs": [
        {
          "internalType": "uint64",
          "name": "",
          "type": "uint64"
        }
      ],
      "stateMutability": "view",
      "type": "function"
    },
    {
      "inputs": [
        {
          "internalType": "uint256",
          "name": "",
          "type": "uint256"
        }
      ],
      "name": "coBotsSeeds",
      "outputs": [
        {
          "internalType": "uint8",
          "name": "",
          "type": "uint8"
        }
      ],
      "stateMutability": "view",
      "type": "function"
    },
    {
      "inputs": [
        {
          "internalType": "uint256",
          "name": "",
          "type": "uint256"
        }
      ],
      "name": "coBotsV1Redeemed",
      "outputs": [
        {
          "internalType": "bool",
          "name": "",
          "type": "bool"
        }
      ],
      "stateMutability": "view",
      "type": "function"
    },
    {
      "inputs": [
        {
          "internalType": "uint96",
          "name": "amount",
          "type": "uint96"
        }
      ],
      "name": "createSubscriptionAndFund",
      "outputs": [],
      "stateMutability": "nonpayable",
      "type": "function"
    },
    {
      "inputs": [],
      "name": "draw",
      "outputs": [],
      "stateMutability": "nonpayable",
      "type": "function"
    },
    {
      "inputs": [],
      "name": "drawnAmount",
      "outputs": [
        {
          "internalType": "uint256",
          "name": "",
          "type": "uint256"
        }
      ],
      "stateMutability": "view",
      "type": "function"
    },
    {
      "inputs": [
        {
          "internalType": "uint256",
          "name": "_tokenId",
          "type": "uint256"
        }
      ],
      "name": "exists",
      "outputs": [
        {
          "internalType": "bool",
          "name": "",
          "type": "bool"
        }
      ],
      "stateMutability": "view",
      "type": "function"
    },
    {
      "inputs": [],
      "name": "failsafeWithdraw",
      "outputs": [],
      "stateMutability": "nonpayable",
      "type": "function"
    },
    {
      "inputs": [
        {
          "internalType": "uint256",
          "name": "giveawayIndex",
          "type": "uint256"
        },
        {
          "internalType": "address",
          "name": "winner",
          "type": "address"
        },
        {
          "internalType": "uint256",
          "name": "selectedToken",
          "type": "uint256"
        }
      ],
      "name": "fulfillContest",
      "outputs": [],
      "stateMutability": "nonpayable",
      "type": "function"
    },
    {
      "inputs": [
        {
          "internalType": "uint256",
          "name": "",
          "type": "uint256"
        }
      ],
      "name": "fulfillments",
      "outputs": [
        {
          "components": [
            {
              "internalType": "uint16",
              "name": "checkpoint",
              "type": "uint16"
            },
            {
              "internalType": "uint72",
              "name": "amount",
              "type": "uint72"
            },
            {
              "internalType": "bool",
              "name": "isContest",
              "type": "bool"
            }
          ],
          "internalType": "struct CoBotsV2.Prize",
          "name": "prize",
          "type": "tuple"
        },
        {
          "internalType": "bool",
          "name": "fulfilled",
          "type": "bool"
        },
        {
          "components": [
            {
              "internalType": "address",
              "name": "winner",
              "type": "address"
            },
            {
              "internalType": "uint16",
              "name": "tokenId",
              "type": "uint16"
            }
          ],
          "internalType": "struct CoBotsV2.Winner",
          "name": "winner",
          "type": "tuple"
        }
      ],
      "stateMutability": "view",
      "type": "function"
    },
    {
      "inputs": [],
      "name": "gasKeyHash",
      "outputs": [
        {
          "internalType": "bytes32",
          "name": "",
          "type": "bytes32"
        }
      ],
      "stateMutability": "view",
      "type": "function"
    },
    {
      "inputs": [
        {
          "internalType": "uint256",
          "name": "tokenId",
          "type": "uint256"
        }
      ],
      "name": "getApproved",
      "outputs": [
        {
          "internalType": "address",
          "name": "",
          "type": "address"
        }
      ],
      "stateMutability": "view",
      "type": "function"
    },
    {
      "inputs": [],
      "name": "getOrderedFulfillments",
      "outputs": [
        {
          "components": [
            {
              "components": [
                {
                  "internalType": "uint16",
                  "name": "checkpoint",
                  "type": "uint16"
                },
                {
                  "internalType": "uint72",
                  "name": "amount",
                  "type": "uint72"
                },
                {
                  "internalType": "bool",
                  "name": "isContest",
                  "type": "bool"
                }
              ],
              "internalType": "struct CoBotsV2.Prize",
              "name": "prize",
              "type": "tuple"
            },
            {
              "internalType": "bool",
              "name": "fulfilled",
              "type": "bool"
            },
            {
              "components": [
                {
                  "internalType": "address",
                  "name": "winner",
                  "type": "address"
                },
                {
                  "internalType": "uint16",
                  "name": "tokenId",
                  "type": "uint16"
                }
              ],
              "internalType": "struct CoBotsV2.Winner",
              "name": "winner",
              "type": "tuple"
            }
          ],
          "internalType": "struct CoBotsV2.Fulfillment[]",
          "name": "",
          "type": "tuple[]"
        }
      ],
      "stateMutability": "view",
      "type": "function"
    },
    {
      "inputs": [
        {
          "internalType": "address",
          "name": "owner",
          "type": "address"
        },
        {
          "internalType": "address",
          "name": "operator",
          "type": "address"
        }
      ],
      "name": "isApprovedForAll",
      "outputs": [
        {
          "internalType": "bool",
          "name": "",
          "type": "bool"
        }
      ],
      "stateMutability": "view",
      "type": "function"
    },
    {
      "inputs": [
        {
          "internalType": "uint256",
          "name": "tokenId",
          "type": "uint256"
        }
      ],
      "name": "isMettaEnabled",
      "outputs": [
        {
          "internalType": "bool",
          "name": "",
          "type": "bool"
        }
      ],
      "stateMutability": "view",
      "type": "function"
    },
    {
      "inputs": [],
      "name": "isMintedOut",
      "outputs": [
        {
          "internalType": "bool",
          "name": "",
          "type": "bool"
        }
      ],
      "stateMutability": "view",
      "type": "function"
    },
    {
      "inputs": [],
      "name": "isPublicSaleOpen",
      "outputs": [
        {
          "internalType": "bool",
          "name": "",
          "type": "bool"
        }
      ],
      "stateMutability": "view",
      "type": "function"
    },
    {
      "inputs": [
        {
          "internalType": "address",
          "name": "to",
          "type": "address"
        },
        {
          "internalType": "uint256",
          "name": "quantity",
          "type": "uint256"
        }
      ],
      "name": "mintFounders",
      "outputs": [],
      "stateMutability": "nonpayable",
      "type": "function"
    },
    {
      "inputs": [
        {
          "internalType": "uint256",
          "name": "quantity",
          "type": "uint256"
        },
        {
          "internalType": "uint256[]",
          "name": "tokenIdsV1",
          "type": "uint256[]"
        }
      ],
      "name": "mintPublicSale",
      "outputs": [],
      "stateMutability": "payable",
      "type": "function"
    },
    {
      "inputs": [],
      "name": "mintedOutTimestamp",
      "outputs": [
        {
          "internalType": "uint256",
          "name": "",
          "type": "uint256"
        }
      ],
      "stateMutability": "view",
      "type": "function"
    },
    {
      "inputs": [],
      "name": "name",
      "outputs": [
        {
          "internalType": "string",
          "name": "",
          "type": "string"
        }
      ],
      "stateMutability": "view",
      "type": "function"
    },
    {
      "inputs": [],
      "name": "openPublicSale",
      "outputs": [],
      "stateMutability": "nonpayable",
      "type": "function"
    },
    {
      "inputs": [],
      "name": "owner",
      "outputs": [
        {
          "internalType": "address",
          "name": "",
          "type": "address"
        }
      ],
      "stateMutability": "view",
      "type": "function"
    },
    {
      "inputs": [
        {
          "internalType": "uint256",
          "name": "tokenId",
          "type": "uint256"
        }
      ],
      "name": "ownerOf",
      "outputs": [
        {
          "internalType": "address",
          "name": "",
          "type": "address"
        }
      ],
      "stateMutability": "view",
      "type": "function"
    },
    {
      "inputs": [],
      "name": "publicSaleStartTimestamp",
      "outputs": [
        {
          "internalType": "uint256",
          "name": "",
          "type": "uint256"
        }
      ],
      "stateMutability": "view",
      "type": "function"
    },
    {
      "inputs": [
        {
          "internalType": "uint256",
          "name": "requestId",
          "type": "uint256"
        },
        {
          "internalType": "uint256[]",
          "name": "randomWords",
          "type": "uint256[]"
        }
      ],
      "name": "rawFulfillRandomWords",
      "outputs": [],
      "stateMutability": "nonpayable",
      "type": "function"
    },
    {
      "inputs": [],
      "name": "redrawPendingFulfillments",
      "outputs": [],
      "stateMutability": "nonpayable",
      "type": "function"
    },
    {
      "inputs": [],
      "name": "renderer",
      "outputs": [
        {
          "internalType": "contract ICoBotsRendererV2",
          "name": "",
          "type": "address"
        }
      ],
      "stateMutability": "view",
      "type": "function"
    },
    {
      "inputs": [],
      "name": "renderingContractAddress",
      "outputs": [
        {
          "internalType": "address",
          "name": "",
          "type": "address"
        }
      ],
      "stateMutability": "view",
      "type": "function"
    },
    {
      "inputs": [],
      "name": "renounceOwnership",
      "outputs": [],
      "stateMutability": "nonpayable",
      "type": "function"
    },
    {
      "inputs": [
        {
          "internalType": "uint256",
          "name": "",
          "type": "uint256"
        }
      ],
      "name": "requestIds",
      "outputs": [
        {
          "internalType": "uint256",
          "name": "",
          "type": "uint256"
        }
      ],
      "stateMutability": "view",
      "type": "function"
    },
    {
      "inputs": [
        {
          "internalType": "address",
          "name": "from",
          "type": "address"
        },
        {
          "internalType": "address",
          "name": "to",
          "type": "address"
        },
        {
          "internalType": "uint256",
          "name": "tokenId",
          "type": "uint256"
        }
      ],
      "name": "safeTransferFrom",
      "outputs": [],
      "stateMutability": "nonpayable",
      "type": "function"
    },
    {
      "inputs": [
        {
          "internalType": "address",
          "name": "from",
          "type": "address"
        },
        {
          "internalType": "address",
          "name": "to",
          "type": "address"
        },
        {
          "internalType": "uint256",
          "name": "tokenId",
          "type": "uint256"
        },
        {
          "internalType": "bytes",
          "name": "_data",
          "type": "bytes"
        }
      ],
      "name": "safeTransferFrom",
      "outputs": [],
      "stateMutability": "nonpayable",
      "type": "function"
    },
    {
      "inputs": [
        {
          "internalType": "address",
          "name": "operator",
          "type": "address"
        },
        {
          "internalType": "bool",
          "name": "approved",
          "type": "bool"
        }
      ],
      "name": "setApprovalForAll",
      "outputs": [],
      "stateMutability": "nonpayable",
      "type": "function"
    },
    {
      "inputs": [
        {
          "internalType": "address",
          "name": "_renderingContractAddress",
          "type": "address"
        }
      ],
      "name": "setRenderingContractAddress",
      "outputs": [],
      "stateMutability": "nonpayable",
      "type": "function"
    },
    {
      "inputs": [
        {
          "internalType": "bytes4",
          "name": "interfaceId",
          "type": "bytes4"
        }
      ],
      "name": "supportsInterface",
      "outputs": [
        {
          "internalType": "bool",
          "name": "",
          "type": "bool"
        }
      ],
      "stateMutability": "view",
      "type": "function"
    },
    {
      "inputs": [],
      "name": "symbol",
      "outputs": [
        {
          "internalType": "string",
          "name": "",
          "type": "string"
        }
      ],
      "stateMutability": "view",
      "type": "function"
    },
    {
      "inputs": [
        {
          "internalType": "uint256[]",
          "name": "tokenIds",
          "type": "uint256[]"
        }
      ],
      "name": "toggleMetta",
      "outputs": [],
      "stateMutability": "nonpayable",
      "type": "function"
    },
    {
      "inputs": [
        {
          "internalType": "uint256",
          "name": "index",
          "type": "uint256"
        }
      ],
      "name": "tokenByIndex",
      "outputs": [
        {
          "internalType": "uint256",
          "name": "",
          "type": "uint256"
        }
      ],
      "stateMutability": "view",
      "type": "function"
    },
    {
      "inputs": [
        {
          "internalType": "uint256",
          "name": "_tokenId",
          "type": "uint256"
        }
      ],
      "name": "tokenData",
      "outputs": [
        {
          "components": [
            {
              "internalType": "string",
              "name": "image",
              "type": "string"
            },
            {
              "internalType": "string",
              "name": "description",
              "type": "string"
            },
            {
              "internalType": "string",
              "name": "name",
              "type": "string"
            },
            {
              "components": [
                {
                  "internalType": "string",
                  "name": "trait_type",
                  "type": "string"
                },
                {
                  "internalType": "string",
                  "name": "value",
                  "type": "string"
                }
              ],
              "internalType": "struct Attribute[]",
              "name": "attributes",
              "type": "tuple[]"
            }
          ],
          "internalType": "struct TokenData",
          "name": "",
          "type": "tuple"
        }
      ],
      "stateMutability": "view",
      "type": "function"
    },
    {
      "inputs": [
        {
          "internalType": "address",
          "name": "owner",
          "type": "address"
        },
        {
          "internalType": "uint256",
          "name": "index",
          "type": "uint256"
        }
      ],
      "name": "tokenOfOwnerByIndex",
      "outputs": [
        {
          "internalType": "uint256",
          "name": "",
          "type": "uint256"
        }
      ],
      "stateMutability": "view",
      "type": "function"
    },
    {
      "inputs": [
        {
          "internalType": "uint256",
          "name": "_tokenId",
          "type": "uint256"
        }
      ],
      "name": "tokenURI",
      "outputs": [
        {
          "internalType": "string",
          "name": "",
          "type": "string"
        }
      ],
      "stateMutability": "view",
      "type": "function"
    },
    {
      "inputs": [],
      "name": "totalSupply",
      "outputs": [
        {
          "internalType": "uint256",
          "name": "",
          "type": "uint256"
        }
      ],
      "stateMutability": "view",
      "type": "function"
    },
    {
      "inputs": [
        {
          "internalType": "address",
          "name": "from",
          "type": "address"
        },
        {
          "internalType": "address",
          "name": "to",
          "type": "address"
        },
        {
          "internalType": "uint256",
          "name": "tokenId",
          "type": "uint256"
        }
      ],
      "name": "transferFrom",
      "outputs": [],
      "stateMutability": "nonpayable",
      "type": "function"
    },
    {
      "inputs": [
        {
          "internalType": "address",
          "name": "newOwner",
          "type": "address"
        }
      ],
      "name": "transferOwnership",
      "outputs": [],
      "stateMutability": "nonpayable",
      "type": "function"
    },
    {
      "inputs": [],
      "name": "withdraw",
      "outputs": [],
      "stateMutability": "nonpayable",
      "type": "function"
    },
    {
      "stateMutability": "payable",
      "type": "receive"
    }
  ],
  "transactionHash": "0x0fac1d6c35a49ceaabe3f29e490b98aca5c676e43822f60ee6d10f85cc5b5c7a",
  "args": [
    "Co-Bots 2.0",
    "CBTE",
    "0x541718E5BCBAA764016D3167fF6875Bb7F52B832",
    "0x6168499c0cFfCaCD319c818142124B7A15E857ab",
    "0x01BE23585060835E02B77ef475b0Cc51aA1e0709",
    "0xd89b2bf150e3b9e13446986e571fb9cab24b13cea0a43ea20a6049a85cc807cc",
    {
      "cobotsV1Discount": "2",
      "mintOutFoundersWithdrawalDelay": 7200,
      "grandPrizeDelay": 3600,
      "maxCobots": 10000,
      "contestDuration": 2419200,
      "mintPublicPrice": "50000000000000"
    },
    [
      {
        "checkpoint": 100,
        "amount": "1000000000000000",
        "isContest": false
      },
      {
        "checkpoint": 200,
        "amount": "2000000000000000",
        "isContest": false
      },
      {
        "checkpoint": 300,
        "amount": "3000000000000000",
        "isContest": false
      },
      {
        "checkpoint": 400,
        "amount": "4000000000000000",
        "isContest": false
      },
      {
        "checkpoint": 500,
        "amount": "1000000000000000",
        "isContest": true
      },
      {
        "checkpoint": 500,
        "amount": "1000000000000000",
        "isContest": true
      },
      {
        "checkpoint": 500,
        "amount": "1000000000000000",
        "isContest": true
      },
      {
        "checkpoint": 500,
        "amount": "1000000000000000",
        "isContest": true
      },
      {
        "checkpoint": 500,
        "amount": "1000000000000000",
        "isContest": true
      },
      {
        "checkpoint": 750,
        "amount": "6000000000000000",
        "isContest": false
      },
      {
        "checkpoint": 1000,
        "amount": "7000000000000000",
        "isContest": false
      },
      {
        "checkpoint": 1500,
        "amount": "8000000000000000",
        "isContest": false
      },
      {
        "checkpoint": 2000,
        "amount": "9000000000000000",
        "isContest": false
      },
      {
        "checkpoint": 3000,
        "amount": "2000000000000000",
        "isContest": true
      },
      {
        "checkpoint": 3000,
        "amount": "2000000000000000",
        "isContest": true
      },
      {
        "checkpoint": 3000,
        "amount": "2000000000000000",
        "isContest": true
      },
      {
        "checkpoint": 3000,
        "amount": "2000000000000000",
        "isContest": true
      },
      {
        "checkpoint": 3000,
        "amount": "2000000000000000",
        "isContest": true
      },
      {
        "checkpoint": 4000,
        "amount": "12000000000000000",
        "isContest": false
      },
      {
        "checkpoint": 5000,
        "amount": "14000000000000000",
        "isContest": false
      },
      {
        "checkpoint": 5000,
        "amount": "50000000000000000",
        "isContest": true
      },
      {
        "checkpoint": 6000,
        "amount": "16000000000000000",
        "isContest": false
      },
      {
        "checkpoint": 7000,
        "amount": "18000000000000000",
        "isContest": false
      },
      {
        "checkpoint": 8000,
        "amount": "4000000000000000",
        "isContest": true
      },
      {
        "checkpoint": 8000,
        "amount": "4000000000000000",
        "isContest": true
      },
      {
        "checkpoint": 8000,
        "amount": "4000000000000000",
        "isContest": true
      },
      {
        "checkpoint": 8000,
        "amount": "4000000000000000",
        "isContest": true
      },
      {
        "checkpoint": 8000,
        "amount": "4000000000000000",
        "isContest": true
      },
      {
        "checkpoint": 9000,
        "amount": "22000000000000000",
        "isContest": false
      },
      {
        "checkpoint": 10000,
        "amount": "24000000000000000",
        "isContest": false
      },
      {
        "checkpoint": 10000,
        "amount": "69000000000000000",
        "isContest": false
      }
    ],
    "0x57f1887a8BF19b14fC0dF6Fd9B2acc9Af147eA85",
    "0x1dffc87aAd86c95ca8bD611b2e63BB017578b77e",
    {
      "ensId": "50339762084112735281647694152894396699789156759838299774246919152996091353870",
      "value": 42,
      "prizeIndex": 20
    }
  ],
  "numDeployments": 8,
  "solcInputHash": "a9313f4639a9f048ba2c4b6f449a6e5d",
  "bytecode": "0x6101406040523480156200001257600080fd5b5060405162005c2638038062005c268339810160408190526200003591620007e0565b878b8b8160019080519060200190620000509291906200032b565b508051620000669060029060208401906200032b565b5050506001600160a01b031660805262000080336200024d565b600160085562000090896200029f565b6001600160a01b0380891660e0528716610100526101208690528451600b80546020880151604089015160608a015160808b015160a08c01516001600160481b03908116600160901b02600160901b600160d81b03199190921669010000000000000000000216600160481b600160d81b031962ffffff90931666010000000000000262ffffff60301b1961ffff958616640100000000021664ffffffffff60201b19968616620100000263ffffffff199098169590991694909417959095179390931695909517179390931617919091179055835160005b818110156200020557600c86828151811062000189576200018962000941565b6020908102919091018101518254600181810185556000948552938390208251910180549383015160409093015115156b0100000000000000000000000260ff60581b196001600160481b0390941662010000026001600160581b031990951661ffff9093169290921793909317919091161790550162000169565b50506001600160a01b0392831660a052911660c0528051600d556020810151600e5560400151600f805460ff191660ff90921691909117905550620009d99650505050505050565b600780546001600160a01b038381166001600160a01b0319831681179093556040519116919082907f8be0079c531659141344cd1fd0a4f28419497f9722a3daafe3b4186f6b6457e090600090a35050565b6007546001600160a01b03163314620002d55760405162461bcd60e51b8152600401620002cc9062000957565b60405180910390fd5b601080546001600160a01b0383166001600160a01b0319918216811790925560118054909116821790556040517f2926c01a1380ae82a404a8c554ad486a6842a4a320d80b770e2930d763825e4f90600090a250565b8280546200033990620009a8565b90600052602060002090601f0160209004810192826200035d5760008555620003a8565b82601f106200037857805160ff1916838001178555620003a8565b82800160010185558215620003a8579182015b82811115620003a85782518255916020019190600101906200038b565b50620003b6929150620003ba565b5090565b5b80821115620003b65760008155600101620003bb565b634e487b7160e01b600052604160045260246000fd5b601f19601f83011681016001600160401b03811182821017156200040f576200040f620003d1565b6040525050565b60006200042260405190565b9050620004308282620003e7565b919050565b60006001600160401b03821115620004515762000451620003d1565b601f19601f83011660200192915050565b60005b838110156200047f57818101518382015260200162000465565b838111156200048f576000848401525b50505050565b6000620004ac620004a68462000435565b62000416565b905082815260208101848484011115620004c957620004c9600080fd5b620004d684828562000462565b509392505050565b600082601f830112620004f457620004f4600080fd5b81516200050684826020860162000495565b949350505050565b60006001600160a01b0382165b92915050565b6200052c816200050e565b81146200053857600080fd5b50565b80516200051b8162000521565b806200052c565b80516200051b8162000548565b61ffff81166200052c565b80516200051b816200055c565b62ffffff81166200052c565b80516200051b8162000574565b6001600160481b0381166200052c565b80516200051b816200058d565b600060c08284031215620005c157620005c1600080fd5b620005cd60c062000416565b90506000620005dd848462000567565b908201526020620005f18484830162000567565b908201526040620006058484830162000567565b908201526060620006198484830162000580565b9082015260806200062d848483016200059d565b9082015260a062000641848483016200059d565b9082015292915050565b60006001600160401b03821115620006675762000667620003d1565b5060209081020190565b8015156200052c565b80516200051b8162000671565b6000606082840312156200069e576200069e600080fd5b620006aa606062000416565b90506000620006ba848462000567565b908201526020620006ce848483016200059d565b90820152604062000641848483016200067a565b6000620006f3620004a6846200064b565b83815290506020810160608402830185811115620007145762000714600080fd5b835b818110156200073c576200072b878262000687565b835260209092019160600162000716565b5050509392505050565b600082601f8301126200075c576200075c600080fd5b815162000506848260208601620006e2565b60ff81166200052c565b80516200051b816200076e565b6000606082840312156200079c576200079c600080fd5b620007a8606062000416565b90506000620007b884846200054f565b908201526020620007cc848483016200054f565b908201526040620006418484830162000778565b60008060008060008060008060008060006102408c8e031215620008075762000807600080fd5b8b516001600160401b03811115620008225762000822600080fd5b620008308e828f01620004de565b60208e0151909c5090506001600160401b03811115620008535762000853600080fd5b620008618e828f01620004de565b9a50506040620008748e828f016200053b565b9950506060620008878e828f016200053b565b98505060806200089a8e828f016200053b565b97505060a0620008ad8e828f016200054f565b96505060c0620008c08e828f01620005aa565b6101808e015190965090506001600160401b03811115620008e457620008e4600080fd5b620008f28e828f0162000746565b9450506101a0620009068e828f016200053b565b9350506101c06200091a8e828f016200053b565b9250506101e06200092e8e828f0162000785565b9150509295989b509295989b9093969950565b634e487b7160e01b600052603260045260246000fd5b60208082528181019081527f4f776e61626c653a2063616c6c6572206973206e6f7420746865206f776e65726040830152606082016200051b565b634e487b7160e01b600052602260045260246000fd5b600281046001821680620009bd57607f821691505b60208210811415620009d357620009d362000992565b50919050565b60805160a05160c05160e05161010051610120516151b062000a7660003960008181610bab0152818161119a01526122ef0152600081816107310152612cc501526000818161063b0152818161116d0152818161185e015281816122c201528181612b7901528181612c440152612cee015260008181611b480152612f0201526000610eab0152600081816115fe015261162601526151b06000f3fe60806040526004361061036f5760003560e01c80635a08cae5116101c6578063a715b15b116100f7578063cf62c8ab11610095578063e10a64dd1161006f578063e10a64dd14610b1d578063e985e9c514610b30578063f2fde38b14610b79578063ffae2b5614610b9957600080fd5b8063cf62c8ab14610ac7578063d7822c9914610ae7578063dfc7e2c914610afd57600080fd5b8063b585209b116100d1578063b585209b14610a52578063b88d4fde14610a67578063c074f41214610a87578063c87b56dd14610aa757600080fd5b8063a715b15b1461097f578063a9b5898f146109a1578063b4b5b48f14610a2557600080fd5b806386758e71116101645780638da5cb5b1161013e5780638da5cb5b1461091657806395d89b41146109345780639a14f79d14610949578063a22cb4651461095f57600080fd5b806386758e71146108b65780638796ba8c146108d65780638ada6b0f146108f657600080fd5b806370a08231116101a057806370a082311461083c578063715018a61461085c57806372c64f161461087157806381870fd1146108a157600080fd5b80635a08cae5146107535780636352211e1461080557806368d99f7c1461082557600080fd5b80631fe543e3116102a05780633ccfd60b1161023e5780634e02099f116102185780634e02099f146106bf5780634f558e79146106df5780634f6ccce7146106ff57806355380dfb1461071f57600080fd5b80633ccfd60b1461066a57806342842e0e1461067f57806349cae6121461069f57600080fd5b806323b872dd1161027a57806323b872dd146105d457806324e9edb0146105f45780632f745c59146106095780633b2bcbf11461062957600080fd5b80631fe543e31461057157806320c5780c1461059157806321e18208146105bf57600080fd5b80630f8236081161030d57806318160ddd116102e757806318160ddd146104d15780631a6949e31461050d5780631fafadbc146105225780631fd9d0811461054257600080fd5b80630f8236081461047a57806312b40a9f1461049c578063143a3f92146104bc57600080fd5b8063081812fc11610349578063081812fc146103f6578063095ea7b3146104235780630badbd07146104455780630eecae211461046557600080fd5b806301ffc9a71461037b57806304035a92146103b157806306fdde03146103d457600080fd5b3661037657005b600080fd5b34801561038757600080fd5b5061039b610396366004613f97565b610bcd565b6040516103a89190613fc2565b60405180910390f35b3480156103bd57600080fd5b506103c7600a5481565b6040516103a89190613fd6565b3480156103e057600080fd5b506103e9610c9e565b6040516103a89190614042565b34801561040257600080fd5b5061041661041136600461406b565b610d30565b6040516103a891906140a6565b34801561042f57600080fd5b5061044361043e3660046140c8565b610d8d565b005b34801561045157600080fd5b50610443610460366004614105565b610e4d565b34801561047157600080fd5b50610443610fc5565b34801561048657600080fd5b5061048f600381565b6040516103a89190614130565b3480156104a857600080fd5b506104436104b736600461413e565b6114cd565b3480156104c857600080fd5b5061048f602081565b3480156104dd57600080fd5b506103c76000546001600160801b0370010000000000000000000000000000000082048116918116919091031690565b34801561051957600080fd5b5061039b61155a565b34801561052e57600080fd5b5061048f61053d36600461406b565b611575565b34801561054e57600080fd5b5061056261055d36600461406b565b6115a9565b6040516103a89392919061417a565b34801561057d57600080fd5b5061044361058c3660046142a7565b6115f3565b34801561059d57600080fd5b506015546105b29067ffffffffffffffff1681565b6040516103a89190614305565b3480156105cb57600080fd5b50610443611687565b3480156105e057600080fd5b506104436105ef366004614313565b6117f6565b34801561060057600080fd5b50610443611801565b34801561061557600080fd5b506103c76106243660046140c8565b6118e3565b34801561063557600080fd5b5061065d7f000000000000000000000000000000000000000000000000000000000000000081565b6040516103a891906143a5565b34801561067657600080fd5b506104436119f9565b34801561068b57600080fd5b5061044361069a366004614313565b611eac565b3480156106ab57600080fd5b506104436106ba3660046143b3565b611ec7565b3480156106cb57600080fd5b506104436106da3660046140c8565b611f3c565b3480156106eb57600080fd5b5061039b6106fa36600461406b565b612022565b34801561070b57600080fd5b506103c761071a36600461406b565b61202d565b34801561072b57600080fd5b5061065d7f000000000000000000000000000000000000000000000000000000000000000081565b34801561075f57600080fd5b506107f661076e36600461406b565b6016602090815260009182526040918290208251606081018452815461ffff808216835268ffffffffffffffffff620100008304168386015260ff6b0100000000000000000000009092048216151583870152600184015486518088019097526002909401546001600160a01b0381168752600160a01b900416938501939093529291169083565b6040516103a893929190614428565b34801561081157600080fd5b5061041661082036600461406b565b6120f1565b34801561083157600080fd5b50600a54151561039b565b34801561084857600080fd5b506103c761085736600461413e565b612103565b34801561086857600080fd5b5061044361216b565b34801561087d57600080fd5b5061039b61088c36600461406b565b60136020526000908152604090205460ff1681565b3480156108ad57600080fd5b506104436121a1565b3480156108c257600080fd5b5061039b6108d136600461406b565b612579565b3480156108e257600080fd5b506103c76108f136600461406b565b6125b6565b34801561090257600080fd5b5060115461065d906001600160a01b031681565b34801561092257600080fd5b506007546001600160a01b0316610416565b34801561094057600080fd5b506103e96125d7565b34801561095557600080fd5b506103c760185481565b34801561096b57600080fd5b5061044361097a366004614463565b6125e6565b34801561098b57600080fd5b50610994612698565b6040516103a89190614526565b3480156109ad57600080fd5b50600b54610a139061ffff808216916201000081048216916401000000008204169062ffffff66010000000000008204169068ffffffffffffffffff69010000000000000000008204811691720100000000000000000000000000000000000090041686565b6040516103a896959493929190614542565b348015610a3157600080fd5b50610a45610a4036600461406b565b61282a565b6040516103a891906146ad565b348015610a5e57600080fd5b50610443612983565b348015610a7357600080fd5b50610443610a82366004614755565b6129f2565b348015610a9357600080fd5b50601054610416906001600160a01b031681565b348015610ab357600080fd5b506103e9610ac236600461406b565b612a2c565b348015610ad357600080fd5b50610443610ae23660046147f3565b612b3e565b348015610af357600080fd5b506103c760095481565b348015610b0957600080fd5b50610443610b18366004614866565b612d97565b610443610b2b3660046142a7565b612df4565b348015610b3c57600080fd5b5061039b610b4b3660046148ae565b6001600160a01b03918216600090815260066020908152604080832093909416825291909152205460ff1690565b348015610b8557600080fd5b50610443610b9436600461413e565b613148565b348015610ba557600080fd5b506103c77f000000000000000000000000000000000000000000000000000000000000000081565b60006001600160e01b031982167f80ac58cd000000000000000000000000000000000000000000000000000000001480610c3057506001600160e01b031982167f5b5e139f00000000000000000000000000000000000000000000000000000000145b80610c6457506001600160e01b031982167f780e9d6300000000000000000000000000000000000000000000000000000000145b80610c9857507f01ffc9a7000000000000000000000000000000000000000000000000000000006001600160e01b03198316145b92915050565b606060018054610cad906148f7565b80601f0160208091040260200160405190810160405280929190818152602001828054610cd9906148f7565b8015610d265780601f10610cfb57610100808354040283529160200191610d26565b820191906000526020600020905b815481529060010190602001808311610d0957829003601f168201915b5050505050905090565b6000610d3b826131a4565b610d71576040517fcf4700e400000000000000000000000000000000000000000000000000000000815260040160405180910390fd5b506000908152600560205260409020546001600160a01b031690565b6000610d98826120f1565b9050806001600160a01b0316836001600160a01b03161415610de6576040517f943f7b8c00000000000000000000000000000000000000000000000000000000815260040160405180910390fd5b336001600160a01b03821614801590610e065750610e048133610b4b565b155b15610e3d576040517fcfb3b94200000000000000000000000000000000000000000000000000000000815260040160405180910390fd5b610e488383836131d8565b505050565b60026008541415610e795760405162461bcd60e51b8152600401610e7090614950565b60405180910390fd5b6002600855600d546040517f6352211e00000000000000000000000000000000000000000000000000000000815233917f00000000000000000000000000000000000000000000000000000000000000006001600160a01b031691636352211e91610ee691600401613fd6565b602060405180830381865afa158015610f03573d6000803e3d6000fd5b505050506040513d601f19601f82011682018060405250810190610f27919061496b565b6001600160a01b031614610f67576040517fb2c6179c00000000000000000000000000000000000000000000000000000000815260040160405180910390fd5b600e548214610fa2576040517f8f6d9d6300000000000000000000000000000000000000000000000000000000815260040160405180910390fd5b600f54610fbc90610fb59060ff16613241565b338361327c565b50506001600855565b60026008541415610fe85760405162461bcd60e51b8152600401610e7090614950565b600260085560175460155467ffffffffffffffff16611033576040517f15cd15ad00000000000000000000000000000000000000000000000000000000815260040160405180910390fd5b61103b61353c565b611071576040517fc3a7d74d00000000000000000000000000000000000000000000000000000000815260040160405180910390fd5b600054611088906001600160801b031660016149a2565b6001600160801b0316600c82815481106110a4576110a46149da565b60009182526020909120015461ffff1610156114c4576000600c82815481106110cf576110cf6149da565b6000918252602090912001546b010000000000000000000000900460ff1680156111165750600b54600954611113916601000000000000900462ffffff16906149f0565b42105b806111255750600f5460ff1682145b1561113a5761113382613241565b9050611220565b6015546040517f5d3b1d300000000000000000000000000000000000000000000000000000000081526001600160a01b037f00000000000000000000000000000000000000000000000000000000000000001691635d3b1d30916111da917f00000000000000000000000000000000000000000000000000000000000000009167ffffffffffffffff909116906005906207a12090600190600401614a31565b6020604051808303816000875af11580156111f9573d6000803e3d6000fd5b505050506040513d601f19601f8201168201806040525081019061121d9190614a88565b90505b600c8281548110611233576112336149da565b6000918252602082200154601880546201000090920468ffffffffffffffffff169290916112629084906149f0565b925050819055506040518060600160405280600c8481548110611287576112876149da565b6000918252602080832060408051606081018252939091015461ffff80821685526201000080830468ffffffffffffffffff908116878701526b0100000000000000000000009384900460ff161515878601529588528785018790528351808501855287815280860188905297840197909752888652601684529482902087518051825482870151928601519189166affffffffffffffffffffff199091161791909616909702969096176bff00000000000000000000001916931515029290921784558481015160018501805460ff191691151591909117905593015180516002909301805491909401516001600160a01b0390931675ffffffffffffffffffffffffffffffffffffffffffff1990911617600160a01b9290911691909102179055600c805482917fb40531e03f8d4be5f5bb24f4d1811140fbead25a449a04cdb8e941384a81070291859081106113e2576113e26149da565b906000526020600020016040516113f99190614b2b565b60405180910390a28161140b81614b39565b60178054600181810183556000929092527fc624b66cc0138b8fabc209247f72d758e1cf3343756d543badbf24212bed8c1501849055600c54919450611452925090614b54565b821480156114785750600b54600a546114759162010000900461ffff16906149f0565b42105b156114845750506114c6565b600c548214156114be576040517fc4f545db975f34de8f12b4353fa42dd295e802239df19ebbe5fd3c245dad0a5a90600090a150506114c6565b50611071565b505b6001600855565b6007546001600160a01b031633146114f75760405162461bcd60e51b8152600401610e7090614b9f565b601080546001600160a01b03831673ffffffffffffffffffffffffffffffffffffffff19918216811790925560118054909116821790556040517f2926c01a1380ae82a404a8c554ad486a6842a4a320d80b770e2930d763825e4f90600090a250565b6000600954600014158015611570575060095442115b905090565b6012818154811061158557600080fd5b9060005260206000209060209182820401919006915054906101000a900460ff1681565b600c81815481106115b957600080fd5b60009182526020909120015461ffff8116915062010000810468ffffffffffffffffff16906b010000000000000000000000900460ff1683565b336001600160a01b037f0000000000000000000000000000000000000000000000000000000000000000161461167957337f00000000000000000000000000000000000000000000000000000000000000006040517f1cf993f4000000000000000000000000000000000000000000000000000000008152600401610e70929190614baf565b61168382826135dc565b5050565b6007546001600160a01b031633146116b15760405162461bcd60e51b8152600401610e7090614b9f565b600a546116ea576040517fe5b93aca00000000000000000000000000000000000000000000000000000000815260040160405180910390fd5b600b54600a546116fe9161ffff16906149f0565b421015611737576040517f3e8e963c00000000000000000000000000000000000000000000000000000000815260040160405180910390fd5b6040514790600090339083908381818185875af1925050503d806000811461177b576040519150601f19603f3d011682016040523d82523d6000602084013e611780565b606091505b50509050806117bb576040517f27fcd9d100000000000000000000000000000000000000000000000000000000815260040160405180910390fd5b7f4e70a604b23a8edee2b1d0a656e9b9c00b73ad8bb1afc2c59381ee9f69197de7826040516117ea9190613fd6565b60405180910390a15050565b610e4883838361366f565b6007546001600160a01b0316331461182b5760405162461bcd60e51b8152600401610e7090614b9f565b6015546040517fd7ae1d300000000000000000000000000000000000000000000000000000000081526001600160a01b037f0000000000000000000000000000000000000000000000000000000000000000169163d7ae1d309161189e9167ffffffffffffffff16903390600401614bca565b600060405180830381600087803b1580156118b857600080fd5b505af11580156118cc573d6000803e3d6000fd5b50506015805467ffffffffffffffff191690555050565b60006118ee83612103565b8210611926576040517f0ddac30e00000000000000000000000000000000000000000000000000000000815260040160405180910390fd5b600080546001600160801b03169080805b838110156119f357600081815260036020908152604091829020825160608101845290546001600160a01b0381168252600160a01b810467ffffffffffffffff1692820192909252600160e01b90910460ff16158015928201929092529061199f57506119eb565b80516001600160a01b0316156119b457805192505b876001600160a01b0316836001600160a01b031614156119e957868414156119e257509350610c9892505050565b6001909301925b505b600101611937565b50600080fd5b6007546001600160a01b03163314611a235760405162461bcd60e51b8152600401610e7090614b9f565b611a2b61353c565b15611a61576040517fa8ad87cbcccddb5ba11ee5851b9075d95af2c88adb9ad0ae9a4f40b810b74cb590600090a1611a61610fc5565b601754479060005b81811015611b08576016600060178381548110611a8857611a886149da565b6000918252602080832090910154835282019290925260400190206001015460ff16611b00576016600060178381548110611ac557611ac56149da565b60009182526020808320909101548352820192909252604001902054611afd9068ffffffffffffffffff620100009091041684614b54565b92505b600101611a69565b508180611b41576040517f356680b700000000000000000000000000000000000000000000000000000000815260040160405180910390fd5b60006014547f00000000000000000000000000000000000000000000000000000000000000006001600160a01b03166318160ddd6040518163ffffffff1660e01b8152600401602060405180830381865afa158015611ba4573d6000803e3d6000fd5b505050506040513d601f19601f82011682018060405250810190611bc89190614a88565b611bd29190614b54565b600054600c546017549293506001600160801b03909116915b81811015611de957600083600c8381548110611c0957611c096149da565b600091825260209091200154611c23919061ffff16614b54565b905080851115611c9c57600b54611c6a9068ffffffffffffffffff720100000000000000000000000000000000000082048116916901000000000000000000900416614bee565b611c7f9068ffffffffffffffffff1682614c11565b611c8990896149f0565b9750611c958186614b54565b9450611d38565b600b546901000000000000000000900468ffffffffffffffffff16611cc18683614b54565b611ccb9190614c11565b600b54611d089068ffffffffffffffffff720100000000000000000000000000000000000082048116916901000000000000000000900416614bee565b611d1d9068ffffffffffffffffff1687614c11565b611d2791906149f0565b611d3190896149f0565b9750600094505b600c8281548110611d4b57611d4b6149da565b600091825260209091200154611d729062010000900468ffffffffffffffffff1689614b54565b97506001881015611daf576040517f356680b700000000000000000000000000000000000000000000000000000000815260040160405180910390fd5b85881015611dbb578795505b600c8281548110611dce57611dce6149da565b60009182526020909120015461ffff16935050600101611beb565b50604051600090339086908381818185875af1925050503d8060008114611e2c576040519150601f19603f3d011682016040523d82523d6000602084013e611e31565b606091505b5050905080611e6c576040517f27fcd9d100000000000000000000000000000000000000000000000000000000815260040160405180910390fd5b7f4e70a604b23a8edee2b1d0a656e9b9c00b73ad8bb1afc2c59381ee9f69197de785604051611e9b9190613fd6565b60405180910390a150505050505050565b610e48838383604051806020016040528060008152506129f2565b60026008541415611eea5760405162461bcd60e51b8152600401610e7090614950565b60026008556007546001600160a01b03163314611f195760405162461bcd60e51b8152600401610e7090614b9f565b6000611f2484613241565b9050611f3181848461327c565b505060016008555050565b6007546001600160a01b03163314611f665760405162461bcd60e51b8152600401610e7090614b9f565b600b546000548291640100000000900461ffff1690611f8f9083906001600160801b03166149f0565b1115611fc7576040517ffd59427a00000000000000000000000000000000000000000000000000000000815260040160405180910390fd5b600054600390611fe0906001600160801b0316846149f0565b1115612018576040517f74a5d1f500000000000000000000000000000000000000000000000000000000815260040160405180910390fd5b610e4883836138d7565b6000610c98826131a4565b600080546001600160801b031681805b828110156120be57600081815260036020908152604091829020825160608101845290546001600160a01b0381168252600160a01b810467ffffffffffffffff1692820192909252600160e01b90910460ff161515918101829052906120b557858314156120ae5750949350505050565b6001909201915b5060010161203d565b506040517fa723001c00000000000000000000000000000000000000000000000000000000815260040160405180910390fd5b60006120fc826139de565b5192915050565b60006001600160a01b038216612145576040517f8f4eb60400000000000000000000000000000000000000000000000000000000815260040160405180910390fd5b506001600160a01b031660009081526004602052604090205467ffffffffffffffff1690565b6007546001600160a01b031633146121955760405162461bcd60e51b8152600401610e7090614b9f565b61219f6000613b1b565b565b600260085414156121c45760405162461bcd60e51b8152600401610e7090614950565b600260085560175460005b81811015610fbc5760166000601783815481106121ee576121ee6149da565b6000918252602080832090910154835282019290925260400190206001015460ff161580156122875750601660006017838154811061222f5761222f6149da565b6000918252602080832090910154835282019290925260400190205460ff6b0100000000000000000000009091041615806122875750600b54600954612284916601000000000000900462ffffff16906149f0565b42115b15612571576015546040517f5d3b1d300000000000000000000000000000000000000000000000000000000081526000916001600160a01b037f00000000000000000000000000000000000000000000000000000000000000001691635d3b1d309161232d917f00000000000000000000000000000000000000000000000000000000000000009167ffffffffffffffff16906005906207a12090600190600401614a31565b6020604051808303816000875af115801561234c573d6000803e3d6000fd5b505050506040513d601f19601f820116820180604052508101906123709190614a88565b905060405180606001604052806016600060178681548110612394576123946149da565b600091825260208083209190910154835282810193909352604091820181208251606081018452905461ffff80821683526201000080830468ffffffffffffffffff908116858901526b0100000000000000000000009384900460ff1615158588015293885287870185905285518087018752858152808801869052978601979097528884526016808752858520895180518254828b0151928a01519186166affffffffffffffffffffff199091161791909616909902989098176bff000000000000000000000019169315159092029290921786558685015160018701805460ff1916911515919091179055959092015180516002909501805491909401516001600160a01b0390951675ffffffffffffffffffffffffffffffffffffffffffff1990911617600160a01b949092169390930217905560178054859081106124df576124df6149da565b60009182526020808320909101548352820192909252604001902080547fffffffffffffffffffffffffffffffffffffffff00000000000000000000000016815560018101805460ff19169055600201805475ffffffffffffffffffffffffffffffffffffffffffff191690556017805482919084908110612563576125636149da565b600091825260209091200155505b6001016121cf565b60006012828154811061258e5761258e6149da565b6000918252602091829020918104909101546001601f9092166101000a900481161492915050565b601781815481106125c657600080fd5b600091825260209091200154905081565b606060028054610cad906148f7565b6001600160a01b038216331415612629576040517fb06307db00000000000000000000000000000000000000000000000000000000815260040160405180910390fd5b3360008181526006602090815260408083206001600160a01b038716808552925291829020805460ff191685151517905590519091907f17307eab39ab6107e8899845ad3d59bd9653f200f220920489ca2b5937696c319061268c908590613fc2565b60405180910390a35050565b60175460609060009067ffffffffffffffff8111156126b9576126b96141a2565b60405190808252806020026020018201604052801561272957816020015b6040805160c0810182526000606082018181526080830182905260a083018290528252602080830182905283518085018552828152808201929092529282015282526000199092019101816126d75790505b50905060005b601754811015612824576016600060178381548110612750576127506149da565b600091825260208083209091015483528281019390935260409182019020815160c081018352815461ffff8082166060840190815268ffffffffffffffffff62010000840416608085015260ff6b0100000000000000000000009093048316151560a085015283526001840154909116151582860152835180850185526002909301546001600160a01b0381168452600160a01b90041693820193909352908201528251839083908110612806576128066149da565b6020026020010181905250808061281c90614b39565b91505061272f565b50919050565b6128556040518060800160405280606081526020016060815260200160608152602001606081525090565b61285e826131a4565b612894576040517fa14c4b5000000000000000000000000000000000000000000000000000000000815260040160405180910390fd5b6010546001600160a01b03166128d6576040517f38bdd72700000000000000000000000000000000000000000000000000000000815260040160405180910390fd5b601154601280546001600160a01b03909216916344ec363191859182908110612901576129016149da565b90600052602060002090602091828204019190069054906101000a900460ff166040518363ffffffff1660e01b815260040161293e929190614c30565b600060405180830381865afa15801561295b573d6000803e3d6000fd5b505050506040513d6000823e601f3d908101601f19168201604052610c989190810190614e91565b6007546001600160a01b031633146129ad5760405162461bcd60e51b8152600401610e7090614b9f565b6129b561155a565b156129ec576040517fd205ec1b00000000000000000000000000000000000000000000000000000000815260040160405180910390fd5b42600955565b6129fd84848461366f565b612a0984848484613b7a565b612a26576040516368d2bf6b60e11b815260040160405180910390fd5b50505050565b6060612a37826131a4565b612a6d576040517fa14c4b5000000000000000000000000000000000000000000000000000000000815260040160405180910390fd5b6010546001600160a01b0316612a9157505060408051602081019091526000815290565b601154601280546001600160a01b0390921691635cc518ba91859182908110612abc57612abc6149da565b90600052602060002090602091828204019190069054906101000a900460ff166040518363ffffffff1660e01b8152600401612af9929190614c30565b600060405180830381865afa158015612b16573d6000803e3d6000fd5b505050506040513d6000823e601f3d908101601f19168201604052610c989190810190614ecc565b60026008541415612b615760405162461bcd60e51b8152600401610e7090614950565b600260085560155467ffffffffffffffff16612cb5577f00000000000000000000000000000000000000000000000000000000000000006001600160a01b031663a21a23e46040518163ffffffff1660e01b81526004016020604051808303816000875af1158015612bd7573d6000803e3d6000fd5b505050506040513d601f19601f82011682018060405250810190612bfb9190614f22565b6015805467ffffffffffffffff191667ffffffffffffffff9290921691821790556040517f7341c10c0000000000000000000000000000000000000000000000000000000081527f00000000000000000000000000000000000000000000000000000000000000006001600160a01b031691637341c10c91612c8291903090600401614bca565b600060405180830381600087803b158015612c9c57600080fd5b505af1158015612cb0573d6000803e3d6000fd5b505050505b6015546040516001600160a01b037f00000000000000000000000000000000000000000000000000000000000000001691634000aea0917f0000000000000000000000000000000000000000000000000000000000000000918591612d279167ffffffffffffffff1690602001614305565b6040516020818303038152906040526040518463ffffffff1660e01b8152600401612d5493929190614f66565b6020604051808303816000875af1158015612d73573d6000803e3d6000fd5b505050506040513d601f19601f82011682018060405250810190610fbc9190614f9e565b60026008541415612dba5760405162461bcd60e51b8152600401610e7090614950565b60026008558060005b81811015611f3157612dec848483818110612de057612de06149da565b90506020020135613cac565b600101612dc3565b612dfc61155a565b612e32576040517f63a2de0f00000000000000000000000000000000000000000000000000000000815260040160405180910390fd5b600b546000548391640100000000900461ffff1690612e5b9083906001600160801b03166149f0565b1115612e93576040517ffd59427a00000000000000000000000000000000000000000000000000000000815260040160405180910390fd5b60026008541415612eb65760405162461bcd60e51b8152600401610e7090614950565b6002600855600b54600090612ee49085906901000000000000000000900468ffffffffffffffffff16614c11565b8351909150600090815b818110156130dc57336001600160a01b03167f00000000000000000000000000000000000000000000000000000000000000006001600160a01b0316636352211e888481518110612f4157612f416149da565b60200260200101516040518263ffffffff1660e01b8152600401612f659190613fd6565b602060405180830381865afa158015612f82573d6000803e3d6000fd5b505050506040513d601f19601f82011682018060405250810190612fa6919061496b565b6001600160a01b031614612fe6576040517f5246352300000000000000000000000000000000000000000000000000000000815260040160405180910390fd5b60136000878381518110612ffc57612ffc6149da565b60209081029190910181015182528101919091526040016000205460ff1615801561302657508683105b156130d457600160136000888481518110613043576130436149da565b6020026020010151815260200190815260200160002060006101000a81548160ff021916908315150217905550828061307b90614b39565b600b549094506130bc915068ffffffffffffffffff720100000000000000000000000000000000000082048116916901000000000000000000900416614bee565b6130d19068ffffffffffffffffff1685614b54565b93505b600101612eee565b5081601460008282546130ef91906149f0565b90915550503483146131315782346040517f6871963e000000000000000000000000000000000000000000000000000000008152600401610e70929190614fbf565b61313b33876138d7565b5050600160085550505050565b6007546001600160a01b031633146131725760405162461bcd60e51b8152600401610e7090614b9f565b6001600160a01b0381166131985760405162461bcd60e51b8152600401610e7090614fda565b6131a181613b1b565b50565b600080546001600160801b031682108015610c98575050600090815260036020526040902054600160e01b900460ff161590565b600082815260056020526040808220805473ffffffffffffffffffffffffffffffffffffffff19166001600160a01b0387811691821790925591518593918516917f8c5be1e5ebec7d5bd14f71427d1e84f3dd0314c0f7b2291e5b200ac8c7c3b92591a4505050565b600061324e60ff8361503b565b60405160200161325e9190615067565b60408051601f19818403018152919052805160209091012092915050565b60008381526016602052604090206001015460ff16156132c8576040517f636d49d300000000000000000000000000000000000000000000000000000000815260040160405180910390fd5b60008381526016602052604090205462010000900468ffffffffffffffffff1661331e576040517f8e1773d800000000000000000000000000000000000000000000000000000000815260040160405180910390fd5b816001600160a01b0316613331826120f1565b6001600160a01b031614613371576040517f03e21ec200000000000000000000000000000000000000000000000000000000815260040160405180910390fd5b6000838152601660205260409020546133909060019061ffff16615079565b61ffff168111156133cd576040517f518af55d00000000000000000000000000000000000000000000000000000000815260040160405180910390fd5b60008381526016602081815260408084206001818101805460ff19169091179055815180830183526001600160a01b0380891680835261ffff808a168488019081528c8a529790965282516002850180549851909716600160a01b0275ffffffffffffffffffffffffffffffffffffffffffff19909816921691909117959095179093555490519193929168ffffffffffffffffff62010000909204919091169060006040518083038185875af1925050503d80600081146134ab576040519150601f19603f3d011682016040523d82523d6000602084013e6134b0565b606091505b50509050806134eb576040517f90b8ec1800000000000000000000000000000000000000000000000000000000815260040160405180910390fd5b60008581526016602052604090819020905186917f7d2db4ed55b360e8ea7d70390d6f63a1404136410fa6f3f94a41d1cf99488a7f9161352d91908690615087565b60405180910390a25050505050565b600c5460175460009114156135515750600090565b600c5461356090600190614b54565b6017541480156135885750600b54600a546135859162010000900461ffff16906149f0565b42105b156135935750600090565b600054601754600c80546001600160801b039093169290919081106135ba576135ba6149da565b60009182526020909120015461ffff1611156135d65750600090565b50600190565b60008281526016602052604090205461ffff1680613626576040517f018bd28900000000000000000000000000000000000000000000000000000000815260040160405180910390fd5b6000818360008151811061363c5761363c6149da565b602002602001015161364e919061503b565b9050600061365b826120f1565b905061366885828461327c565b5050505050565b600061367a826139de565b80519091506000906001600160a01b0316336001600160a01b031614806136a8575081516136a89033610b4b565b806136c35750336136b884610d30565b6001600160a01b0316145b9050806136fc576040517f59c896be00000000000000000000000000000000000000000000000000000000815260040160405180910390fd5b846001600160a01b031682600001516001600160a01b03161461374b576040517fa114810000000000000000000000000000000000000000000000000000000000815260040160405180910390fd5b6001600160a01b03841661378b576040517fea553b3400000000000000000000000000000000000000000000000000000000815260040160405180910390fd5b61379b60008484600001516131d8565b6001600160a01b038581166000908152600460209081526040808320805467ffffffffffffffff1980821667ffffffffffffffff92831660001901831617909255898616808652838620805493841693831660019081018416949094179055898652600390945282852080546001600160e01b031916909417600160a01b429092169190910217909255908601808352912054909116613890576000546001600160801b0316811015613890578251600082815260036020908152604090912080549186015167ffffffffffffffff16600160a01b026001600160e01b03199092166001600160a01b03909316929092171790555b5082846001600160a01b0316866001600160a01b03167fddf252ad1be2c89b69c2b068fc378daa952ba7f163c4a11628f55a4df523b3ef60405160405180910390a4613668565b6020811115613912576040517f359fd04400000000000000000000000000000000000000000000000000000000815260040160405180910390fd5b6000813334424460405160200161392d9594939291906150ca565b60405160208183030381529060405280519060200120905060005b828110156139a65760126001838360208110613966576139666149da565b83546001808201865560009586526020958690209582049095018054601f9092166101000a60ff818102199093169490931a90941b160217905501613948565b506139b18383613d6c565b600b5460005464010000000090910461ffff166001600160801b039091161415610e485742600a55505050565b60408051606081018252600080825260208201819052918101829052905482906001600160801b0316811015613ae957600081815260036020908152604091829020825160608101845290546001600160a01b0381168252600160a01b810467ffffffffffffffff1692820192909252600160e01b90910460ff16151591810182905290613ae75780516001600160a01b031615613a7d579392505050565b5060001901600081815260036020908152604091829020825160608101845290546001600160a01b038116808352600160a01b820467ffffffffffffffff1693830193909352600160e01b900460ff1615159281019290925215613ae2579392505050565b613a7d565b505b6040517fdf2d9b4200000000000000000000000000000000000000000000000000000000815260040160405180910390fd5b600780546001600160a01b0383811673ffffffffffffffffffffffffffffffffffffffff19831681179093556040519116919082907f8be0079c531659141344cd1fd0a4f28419497f9722a3daafe3b4186f6b6457e090600090a35050565b60006001600160a01b0384163b15613ca0576040517f150b7a020000000000000000000000000000000000000000000000000000000081526001600160a01b0385169063150b7a0290613bd7903390899088908890600401615114565b6020604051808303816000875af1925050508015613c12575060408051601f3d908101601f19168201909252613c0f91810190615159565b60015b613c6d573d808015613c40576040519150601f19603f3d011682016040523d82523d6000602084013e613c45565b606091505b508051613c65576040516368d2bf6b60e11b815260040160405180910390fd5b805181602001fd5b6001600160e01b0319167f150b7a0200000000000000000000000000000000000000000000000000000000149050613ca4565b5060015b949350505050565b33613cb6826120f1565b6001600160a01b031614613cf6576040517fff68d35d00000000000000000000000000000000000000000000000000000000815260040160405180910390fd5b60128181548110613d0957613d096149da565b90600052602060002090602091828204019190069054906101000a900460ff1660011860128281548110613d3f57613d3f6149da565b90600052602060002090602091828204019190066101000a81548160ff021916908360ff16021790555050565b611683828260405180602001604052806000815250610e4883838360016000546001600160801b03166001600160a01b038516613dd5576040517f2e07630000000000000000000000000000000000000000000000000000000000815260040160405180910390fd5b83613e0c576040517fb562e8dd00000000000000000000000000000000000000000000000000000000815260040160405180910390fd5b6001600160a01b038516600081815260046020908152604080832080547fffffffffffffffffffffffffffffffff00000000000000000000000000000000811667ffffffffffffffff8083168c0181169182176801000000000000000067ffffffffffffffff1990941690921783900481168c018116909202179091558584526003909252822080546001600160e01b031916909317600160a01b42909216919091021790915581905b85811015613f375760405182906001600160a01b038916906000907fddf252ad1be2c89b69c2b068fc378daa952ba7f163c4a11628f55a4df523b3ef908290a4838015613f0d5750613f0b6000888488613b7a565b155b15613f2b576040516368d2bf6b60e11b815260040160405180910390fd5b60019182019101613eb6565b50600080547fffffffffffffffffffffffffffffffff00000000000000000000000000000000166001600160801b0392909216919091179055613668565b6001600160e01b031981165b81146131a157600080fd5b8035610c9881613f75565b600060208284031215613fac57613fac600080fd5b6000613ca48484613f8c565b8015155b82525050565b60208101610c988284613fb8565b80613fbc565b60208101610c988284613fd0565b60005b83811015613fff578181015183820152602001613fe7565b83811115612a265750506000910152565b600061401a825190565b808452602084019350614031818560208601613fe4565b601f01601f19169290920192915050565b602080825281016140538184614010565b9392505050565b80613f81565b8035610c988161405a565b60006020828403121561408057614080600080fd5b6000613ca48484614060565b60006001600160a01b038216610c98565b613fbc8161408c565b60208101610c98828461409d565b613f818161408c565b8035610c98816140b4565b600080604083850312156140de576140de600080fd5b60006140ea85856140bd565b92505060206140fb85828601614060565b9150509250929050565b6000806040838503121561411b5761411b600080fd5b60006140ea8585614060565b60ff8116613fbc565b60208101610c988284614127565b60006020828403121561415357614153600080fd5b6000613ca484846140bd565b61ffff8116613fbc565b68ffffffffffffffffff8116613fbc565b60608101614188828661415f565b6141956020830185614169565b613ca46040830184613fb8565b634e487b7160e01b600052604160045260246000fd5b601f19601f830116810181811067ffffffffffffffff821117156141de576141de6141a2565b6040525050565b60006141f060405190565b90506141fc82826141b8565b919050565b600067ffffffffffffffff82111561421b5761421b6141a2565b5060209081020190565b600061423861423384614201565b6141e5565b8381529050602080820190840283018581111561425757614257600080fd5b835b818110156142795761426b8782614060565b835260209283019201614259565b5050509392505050565b600082601f83011261429757614297600080fd5b8135613ca4848260208601614225565b600080604083850312156142bd576142bd600080fd5b60006142c98585614060565b925050602083013567ffffffffffffffff8111156142e9576142e9600080fd5b6140fb85828601614283565b67ffffffffffffffff8116613fbc565b60208101610c9882846142f5565b60008060006060848603121561432b5761432b600080fd5b600061433786866140bd565b9350506020614348868287016140bd565b925050604061435986828701614060565b9150509250925092565b6000610c986001600160a01b03831661437a565b90565b6001600160a01b031690565b6000610c9882614363565b6000610c9882614386565b613fbc81614391565b60208101610c98828461439c565b6000806000606084860312156143cb576143cb600080fd5b60006143378686614060565b80516143e3838261415f565b5060208101516143f66020840182614169565b506040810151610e486040840182613fb8565b8051614415838261409d565b506020810151610e48602084018261415f565b60c0810161443682866143d7565b6144436060830185613fb8565b613ca46080830184614409565b801515613f81565b8035610c9881614450565b6000806040838503121561447957614479600080fd5b600061448585856140bd565b92505060206140fb85828601614458565b80516144a283826143d7565b5060208101516144b56060840182613fb8565b506040810151610e486080840182614409565b6144d28282614496565b5060c00190565b60200190565b60006144e9825190565b808452602093840193830160005b8281101561451c57815161450b87826144c8565b9650506020820191506001016144f7565b5093949350505050565b6020808252810161405381846144df565b62ffffff8116613fbc565b60c08101614550828961415f565b61455d602083018861415f565b61456a604083018761415f565b6145776060830186614537565b6145846080830185614169565b61459160a0830184614169565b979650505050505050565b80516040808452600091908401906145b48282614010565b915050602083015184820360208601526145ce8282614010565b95945050505050565b6000614053838361459c565b60006145ed825190565b808452602084019350836020820285016146078560200190565b60005b8481101561463b578383038852815161462384826145d7565b9350506020820160209890980197915060010161460a565b50909695505050505050565b805160808084526000919084019061465f8282614010565b915050602083015184820360208601526146798282614010565b915050604083015184820360408601526146938282614010565b915050606083015184820360608601526145ce82826145e3565b602080825281016140538184614647565b600067ffffffffffffffff8211156146d8576146d86141a2565b601f19601f83011660200192915050565b82818337506000910152565b6000614703614233846146be565b90508281526020810184848401111561471e5761471e600080fd5b6147298482856146e9565b509392505050565b600082601f83011261474557614745600080fd5b8135613ca48482602086016146f5565b6000806000806080858703121561476e5761476e600080fd5b600061477a87876140bd565b945050602061478b878288016140bd565b935050604061479c87828801614060565b925050606085013567ffffffffffffffff8111156147bc576147bc600080fd5b6147c887828801614731565b91505092959194509250565b6bffffffffffffffffffffffff8116613f81565b8035610c98816147d4565b60006020828403121561480857614808600080fd5b6000613ca484846147e8565b60008083601f84011261482957614829600080fd5b50813567ffffffffffffffff81111561484457614844600080fd5b60208301915083602082028301111561485f5761485f600080fd5b9250929050565b6000806020838503121561487c5761487c600080fd5b823567ffffffffffffffff81111561489657614896600080fd5b6148a285828601614814565b92509250509250929050565b600080604083850312156148c4576148c4600080fd5b60006148d085856140bd565b92505060206140fb858286016140bd565b634e487b7160e01b600052602260045260246000fd5b60028104600182168061490b57607f821691505b60208210811415612824576128246148e1565b601f8152602081017f5265656e7472616e637947756172643a207265656e7472616e742063616c6c00815290506144d9565b60208082528101610c988161491e565b8051610c98816140b4565b60006020828403121561498057614980600080fd5b6000613ca48484614960565b634e487b7160e01b600052601160045260246000fd5b6001600160801b03811690506001600160801b03821691506000826001600160801b03038211156149d5576149d561498c565b500190565b634e487b7160e01b600052603260045260246000fd5b600082198211156149d5576149d561498c565b6000610c98825b61ffff1690565b613fbc81614a03565b600063ffffffff8216610c98565b613fbc81614a1a565b60a08101614a3f8288613fd0565b614a4c60208301876142f5565b614a596040830186614a11565b614a666060830185614a28565b614a736080830184614a28565b9695505050505050565b8051610c988161405a565b600060208284031215614a9d57614a9d600080fd5b6000613ca48484614a7d565b6000610c9882614a0a565b6000610c98614ac38360101c90565b68ffffffffffffffffff1690565b6000610c98614ae08360581c90565b60ff1690565b8054614af181614aa9565b614afb848261415f565b50614b0581614ab4565b614b126020850182614169565b50614b1c81614ad1565b9050610e486040840182613fb8565b60608101610c988284614ae6565b6000600019821415614b4d57614b4d61498c565b5060010190565b815b9150600082821015614b6a57614b6a61498c565b500390565b60208082527f4f776e61626c653a2063616c6c6572206973206e6f7420746865206f776e657291019081526144d9565b60208082528101610c9881614b6f565b60408101614bbd828561409d565b614053602083018461409d565b60408101614bbd82856142f5565b634e487b7160e01b600052601260045260246000fd5b68ffffffffffffffffff9182169116600082614c0c57614c0c614bd8565b500490565b6000816000190483118215151615614c2b57614c2b61498c565b500290565b60408101614c3e8285613fd0565b6140536020830184614127565b6000614c59614233846146be565b905082815260208101848484011115614c7457614c74600080fd5b614729848285613fe4565b600082601f830112614c9357614c93600080fd5b8151613ca4848260208601614c4b565b600060408284031215614cb857614cb8600080fd5b614cc260406141e5565b825190915067ffffffffffffffff811115614cdf57614cdf600080fd5b614ceb84828501614c7f565b825250602082015167ffffffffffffffff811115614d0b57614d0b600080fd5b614d1784828501614c7f565b60208301525092915050565b6000614d3161423384614201565b83815290506020808201908402830185811115614d5057614d50600080fd5b835b8181101561427957805167ffffffffffffffff811115614d7457614d74600080fd5b8501614d808882614ca3565b84525060209283019201614d52565b600082601f830112614da357614da3600080fd5b8151613ca4848260208601614d23565b600060808284031215614dc857614dc8600080fd5b614dd260806141e5565b825190915067ffffffffffffffff811115614def57614def600080fd5b614dfb84828501614c7f565b825250602082015167ffffffffffffffff811115614e1b57614e1b600080fd5b614e2784828501614c7f565b602083015250604082015167ffffffffffffffff811115614e4a57614e4a600080fd5b614e5684828501614c7f565b604083015250606082015167ffffffffffffffff811115614e7957614e79600080fd5b614e8584828501614d8f565b60608301525092915050565b600060208284031215614ea657614ea6600080fd5b815167ffffffffffffffff811115614ec057614ec0600080fd5b613ca484828501614db3565b600060208284031215614ee157614ee1600080fd5b815167ffffffffffffffff811115614efb57614efb600080fd5b613ca484828501614c7f565b67ffffffffffffffff8116613f81565b8051610c9881614f07565b600060208284031215614f3757614f37600080fd5b6000613ca48484614f17565b6000610c986143776bffffffffffffffffffffffff841681565b613fbc81614f43565b60608101614f74828661409d565b614f816020830185614f5d565b81810360408301526145ce8184614010565b8051610c9881614450565b600060208284031215614fb357614fb3600080fd5b6000613ca48484614f93565b60408101614fcd8285613fd0565b6140536020830184613fd0565b60208082528101610c9881602681527f4f776e61626c653a206e6577206f776e657220697320746865207a65726f206160208201527f6464726573730000000000000000000000000000000000000000000000000000604082015260600190565b60008261504a5761504a614bd8565b500690565b6000610c988260f81b90565b613fbc60ff821661504f565b615071818361505b565b600101919050565b61ffff908116908216614b56565b60a081016150958285614ae6565b6140536060830184614409565b6000610c988260601b90565b6000610c98826150a2565b613fbc6150c58261408c565b6150ae565b6150d48187613fd0565b6020016150e181866150b9565b6014016150ee8185613fd0565b6020016150fb8184613fd0565b6020016151088183613fd0565b60200195945050505050565b60808101615122828761409d565b61512f602083018661409d565b61513c6040830185613fd0565b8181036060830152614a738184614010565b8051610c9881613f75565b60006020828403121561516e5761516e600080fd5b6000613ca4848461514e56fea26469706673582212201c0bb8561c6467767ee620c876808e2173688d9d75d23f96d1326159e6b4ea3d64736f6c634300080c0033",
  "devdoc": {
    "kind": "dev",
    "methods": {
      "TheAnswer(uint256,uint256)": {
        "params": {
          "tokenId": "The selected token to be displayed on the website. This should be owned by the winner.",
          "value": "Word biggest mysteries are solved with this single value."
        }
      },
      "approve(address,uint256)": {
        "details": "See {IERC721-approve}."
      },
      "balanceOf(address)": {
        "details": "See {IERC721-balanceOf}."
      },
      "fulfillContest(uint256,address,uint256)": {
        "params": {
          "giveawayIndex": "The index of the giveaway to fulfill, 0 based (the first giveaway is index 0).",
          "selectedToken": "The selected token to be displayed on the website.",
          "winner": "The selected winner address."
        }
      },
      "getApproved(uint256)": {
        "details": "See {IERC721-getApproved}."
      },
      "isApprovedForAll(address,address)": {
        "details": "See {IERC721-isApprovedForAll}."
      },
      "isMettaEnabled(uint256)": {
        "params": {
          "tokenId": "The Co-Bot token ID"
        }
      },
      "mintPublicSale(uint256,uint256[])": {
        "details": "The tokenIdsV1 parameter can be empty. The call will revert only if the sender pretends to own some      Co-Bots V1 that they actually don't. However it accepts already redeemed token and just ignore them silently.      This is to make it easier for people using etherscan to copy a bunch of token Ids without having to      manually check if they are redeemed or not. However, it is optimal in terms of gas fees to only give      tokenIds if they can actually be redeemed.",
        "params": {
          "quantity": "The number of COBOTS to mint.",
          "tokenIdsV1": "A list of V1 Co-Bots token Ids owned by the sender, used to determine the discount."
        }
      },
      "name()": {
        "details": "See {IERC721Metadata-name}."
      },
      "owner()": {
        "details": "Returns the address of the current owner."
      },
      "ownerOf(uint256)": {
        "details": "See {IERC721-ownerOf}."
      },
      "renounceOwnership()": {
        "details": "Leaves the contract without owner. It will not be possible to call `onlyOwner` functions anymore. Can only be called by the current owner. NOTE: Renouncing ownership will leave the contract without an owner, thereby removing any functionality that is only available to the owner."
      },
      "safeTransferFrom(address,address,uint256)": {
        "details": "See {IERC721-safeTransferFrom}."
      },
      "safeTransferFrom(address,address,uint256,bytes)": {
        "details": "See {IERC721-safeTransferFrom}."
      },
      "setApprovalForAll(address,bool)": {
        "details": "See {IERC721-setApprovalForAll}."
      },
      "supportsInterface(bytes4)": {
        "details": "See {IERC165-supportsInterface}."
      },
      "symbol()": {
        "details": "See {IERC721Metadata-symbol}."
      },
      "tokenByIndex(uint256)": {
        "details": "See {IERC721Enumerable-tokenByIndex}. This read function is O(totalSupply). If calling from a separate contract, be sure to test gas first. It may also degrade with extremely large collection sizes (e.g >> 10000), test for your use case."
      },
      "tokenOfOwnerByIndex(address,uint256)": {
        "details": "See {IERC721Enumerable-tokenOfOwnerByIndex}. This read function is O(totalSupply). If calling from a separate contract, be sure to test gas first. It may also degrade with extremely large collection sizes (e.g >> 10000), test for your use case."
      },
      "totalSupply()": {
        "details": "See {IERC721Enumerable-totalSupply}."
      },
      "transferFrom(address,address,uint256)": {
        "details": "See {IERC721-transferFrom}."
      },
      "transferOwnership(address)": {
        "details": "Transfers ownership of the contract to a new account (`newOwner`). Can only be called by the current owner."
      }
    },
    "version": 1
  },
  "userdoc": {
    "kind": "user",
    "methods": {
      "TheAnswer(uint256,uint256)": {
        "notice": "Call this when, you know, you probably know what you're doing here.         revert."
      },
      "draw()": {
        "notice": "This function can be called at any time by anyone to trigger the unlocked giveaways. It will         revert if there is nothing to unlock to prevent anon from making useless tx. (Usually wallet, e.g.         metamask, warn this before signing).         Giveaways that use Chainlink VRF oracle will be fulfilled automatically by Chainlink. Giveaways that         require founders to unlock will be fulfilled by the founders."
      },
      "failsafeWithdraw()": {
        "notice": "A very basic function to act as a failsafe if the contract has a bug somewhere in the fulfill functions."
      },
      "fulfillContest(uint256,address,uint256)": {
        "notice": "This function lets the owner fulfill a giveaway. If the giveaway has not been unlocked, this will         revert."
      },
      "getOrderedFulfillments()": {
        "notice": "Use this to retrieve the ordered list of winners with their corresponding prizes and token Id.          Pending fulfillments are included (no winner drawn yet, probably waiting for Chainlink to fulfill)."
      },
      "isMettaEnabled(uint256)": {
        "notice": "Return true if the Co-Bot displays metta screen"
      },
      "mintPublicSale(uint256,uint256[])": {
        "notice": "Mints a batch of Co-Bots to the sender."
      },
      "redrawPendingFulfillments()": {
        "notice": "This function is a failsafe in case a Chainlink VRF request does not resolve          (behaviour experimented on rinkeby).          The new draws will override the previous ones."
      },
      "withdraw()": {
        "notice": "At any point in time, founders can withdraw only up to the required balance to insure that the giveaways          will be paid. We take a conservative approach considering that all the remaining discounted bots will be minted          as soon as possible."
      }
    },
    "version": 1
  },
  "storageLayout": {
    "storage": [
      {
        "astId": 12484,
        "contract": "contracts/co-bots/CoBotsV2.sol:CoBotsV2",
        "label": "_currentIndex",
        "offset": 0,
        "slot": "0",
        "type": "t_uint128"
      },
      {
        "astId": 12486,
        "contract": "contracts/co-bots/CoBotsV2.sol:CoBotsV2",
        "label": "_burnCounter",
        "offset": 16,
        "slot": "0",
        "type": "t_uint128"
      },
      {
        "astId": 12488,
        "contract": "contracts/co-bots/CoBotsV2.sol:CoBotsV2",
        "label": "_name",
        "offset": 0,
        "slot": "1",
        "type": "t_string_storage"
      },
      {
        "astId": 12490,
        "contract": "contracts/co-bots/CoBotsV2.sol:CoBotsV2",
        "label": "_symbol",
        "offset": 0,
        "slot": "2",
        "type": "t_string_storage"
      },
      {
        "astId": 12495,
        "contract": "contracts/co-bots/CoBotsV2.sol:CoBotsV2",
        "label": "_ownerships",
        "offset": 0,
        "slot": "3",
        "type": "t_mapping(t_uint256,t_struct(TokenOwnership)12475_storage)"
      },
      {
        "astId": 12500,
        "contract": "contracts/co-bots/CoBotsV2.sol:CoBotsV2",
        "label": "_addressData",
        "offset": 0,
        "slot": "4",
        "type": "t_mapping(t_address,t_struct(AddressData)12482_storage)"
      },
      {
        "astId": 12504,
        "contract": "contracts/co-bots/CoBotsV2.sol:CoBotsV2",
        "label": "_tokenApprovals",
        "offset": 0,
        "slot": "5",
        "type": "t_mapping(t_uint256,t_address)"
      },
      {
        "astId": 12510,
        "contract": "contracts/co-bots/CoBotsV2.sol:CoBotsV2",
        "label": "_operatorApprovals",
        "offset": 0,
        "slot": "6",
        "type": "t_mapping(t_address,t_mapping(t_address,t_bool))"
      },
      {
        "astId": 6106,
        "contract": "contracts/co-bots/CoBotsV2.sol:CoBotsV2",
        "label": "_owner",
        "offset": 0,
        "slot": "7",
        "type": "t_address"
      },
      {
        "astId": 6214,
        "contract": "contracts/co-bots/CoBotsV2.sol:CoBotsV2",
        "label": "_status",
        "offset": 0,
        "slot": "8",
        "type": "t_uint256"
      },
      {
        "astId": 11936,
        "contract": "contracts/co-bots/CoBotsV2.sol:CoBotsV2",
        "label": "publicSaleStartTimestamp",
        "offset": 0,
        "slot": "9",
        "type": "t_uint256"
      },
      {
        "astId": 11938,
        "contract": "contracts/co-bots/CoBotsV2.sol:CoBotsV2",
        "label": "mintedOutTimestamp",
        "offset": 0,
        "slot": "10",
        "type": "t_uint256"
      },
      {
        "astId": 10428,
        "contract": "contracts/co-bots/CoBotsV2.sol:CoBotsV2",
        "label": "PARAMETERS",
        "offset": 0,
        "slot": "11",
        "type": "t_struct(Parameters)10419_storage"
      },
      {
        "astId": 10432,
        "contract": "contracts/co-bots/CoBotsV2.sol:CoBotsV2",
        "label": "PRIZES",
        "offset": 0,
        "slot": "12",
        "type": "t_array(t_struct(Prize)10399_storage)dyn_storage"
      },
      {
        "astId": 10435,
        "contract": "contracts/co-bots/CoBotsV2.sol:CoBotsV2",
        "label": "MYSTERY_CHALLENGE",
        "offset": 0,
        "slot": "13",
        "type": "t_struct(MysteryChallenge)10406_storage"
      },
      {
        "astId": 10443,
        "contract": "contracts/co-bots/CoBotsV2.sol:CoBotsV2",
        "label": "renderingContractAddress",
        "offset": 0,
        "slot": "16",
        "type": "t_address"
      },
      {
        "astId": 10446,
        "contract": "contracts/co-bots/CoBotsV2.sol:CoBotsV2",
        "label": "renderer",
        "offset": 0,
        "slot": "17",
        "type": "t_contract(ICoBotsRendererV2)12098"
      },
      {
        "astId": 10449,
        "contract": "contracts/co-bots/CoBotsV2.sol:CoBotsV2",
        "label": "coBotsSeeds",
        "offset": 0,
        "slot": "18",
        "type": "t_array(t_uint8)dyn_storage"
      },
      {
        "astId": 10453,
        "contract": "contracts/co-bots/CoBotsV2.sol:CoBotsV2",
        "label": "coBotsV1Redeemed",
        "offset": 0,
        "slot": "19",
        "type": "t_mapping(t_uint256,t_bool)"
      },
      {
        "astId": 10455,
        "contract": "contracts/co-bots/CoBotsV2.sol:CoBotsV2",
        "label": "_redeemedCount",
        "offset": 0,
        "slot": "20",
        "type": "t_uint256"
      },
      {
        "astId": 11242,
        "contract": "contracts/co-bots/CoBotsV2.sol:CoBotsV2",
        "label": "chainlinkSubscriptionId",
        "offset": 0,
        "slot": "21",
        "type": "t_uint64"
      },
      {
        "astId": 11322,
        "contract": "contracts/co-bots/CoBotsV2.sol:CoBotsV2",
        "label": "fulfillments",
        "offset": 0,
        "slot": "22",
        "type": "t_mapping(t_uint256,t_struct(Fulfillment)11317_storage)"
      },
      {
        "astId": 11325,
        "contract": "contracts/co-bots/CoBotsV2.sol:CoBotsV2",
        "label": "requestIds",
        "offset": 0,
        "slot": "23",
        "type": "t_array(t_uint256)dyn_storage"
      },
      {
        "astId": 11327,
        "contract": "contracts/co-bots/CoBotsV2.sol:CoBotsV2",
        "label": "drawnAmount",
        "offset": 0,
        "slot": "24",
        "type": "t_uint256"
      }
    ],
    "types": {
      "t_address": {
        "encoding": "inplace",
        "label": "address",
        "numberOfBytes": "20"
      },
      "t_array(t_struct(Prize)10399_storage)dyn_storage": {
        "base": "t_struct(Prize)10399_storage",
        "encoding": "dynamic_array",
        "label": "struct CoBotsV2.Prize[]",
        "numberOfBytes": "32"
      },
      "t_array(t_uint256)dyn_storage": {
        "base": "t_uint256",
        "encoding": "dynamic_array",
        "label": "uint256[]",
        "numberOfBytes": "32"
      },
      "t_array(t_uint8)dyn_storage": {
        "base": "t_uint8",
        "encoding": "dynamic_array",
        "label": "uint8[]",
        "numberOfBytes": "32"
      },
      "t_bool": {
        "encoding": "inplace",
        "label": "bool",
        "numberOfBytes": "1"
      },
      "t_contract(ICoBotsRendererV2)12098": {
        "encoding": "inplace",
        "label": "contract ICoBotsRendererV2",
        "numberOfBytes": "20"
      },
      "t_mapping(t_address,t_bool)": {
        "encoding": "mapping",
        "key": "t_address",
        "label": "mapping(address => bool)",
        "numberOfBytes": "32",
        "value": "t_bool"
      },
      "t_mapping(t_address,t_mapping(t_address,t_bool))": {
        "encoding": "mapping",
        "key": "t_address",
        "label": "mapping(address => mapping(address => bool))",
        "numberOfBytes": "32",
        "value": "t_mapping(t_address,t_bool)"
      },
      "t_mapping(t_address,t_struct(AddressData)12482_storage)": {
        "encoding": "mapping",
        "key": "t_address",
        "label": "mapping(address => struct ERC721A.AddressData)",
        "numberOfBytes": "32",
        "value": "t_struct(AddressData)12482_storage"
      },
      "t_mapping(t_uint256,t_address)": {
        "encoding": "mapping",
        "key": "t_uint256",
        "label": "mapping(uint256 => address)",
        "numberOfBytes": "32",
        "value": "t_address"
      },
      "t_mapping(t_uint256,t_bool)": {
        "encoding": "mapping",
        "key": "t_uint256",
        "label": "mapping(uint256 => bool)",
        "numberOfBytes": "32",
        "value": "t_bool"
      },
      "t_mapping(t_uint256,t_struct(Fulfillment)11317_storage)": {
        "encoding": "mapping",
        "key": "t_uint256",
        "label": "mapping(uint256 => struct CoBotsV2.Fulfillment)",
        "numberOfBytes": "32",
        "value": "t_struct(Fulfillment)11317_storage"
      },
      "t_mapping(t_uint256,t_struct(TokenOwnership)12475_storage)": {
        "encoding": "mapping",
        "key": "t_uint256",
        "label": "mapping(uint256 => struct ERC721A.TokenOwnership)",
        "numberOfBytes": "32",
        "value": "t_struct(TokenOwnership)12475_storage"
      },
      "t_string_storage": {
        "encoding": "bytes",
        "label": "string",
        "numberOfBytes": "32"
      },
      "t_struct(AddressData)12482_storage": {
        "encoding": "inplace",
        "label": "struct ERC721A.AddressData",
        "members": [
          {
            "astId": 12477,
            "contract": "contracts/co-bots/CoBotsV2.sol:CoBotsV2",
            "label": "balance",
            "offset": 0,
            "slot": "0",
            "type": "t_uint64"
          },
          {
            "astId": 12479,
            "contract": "contracts/co-bots/CoBotsV2.sol:CoBotsV2",
            "label": "numberMinted",
            "offset": 8,
            "slot": "0",
            "type": "t_uint64"
          },
          {
            "astId": 12481,
            "contract": "contracts/co-bots/CoBotsV2.sol:CoBotsV2",
            "label": "numberBurned",
            "offset": 16,
            "slot": "0",
            "type": "t_uint64"
          }
        ],
        "numberOfBytes": "32"
      },
      "t_struct(Fulfillment)11317_storage": {
        "encoding": "inplace",
        "label": "struct CoBotsV2.Fulfillment",
        "members": [
          {
            "astId": 11311,
            "contract": "contracts/co-bots/CoBotsV2.sol:CoBotsV2",
            "label": "prize",
            "offset": 0,
            "slot": "0",
            "type": "t_struct(Prize)10399_storage"
          },
          {
            "astId": 11313,
            "contract": "contracts/co-bots/CoBotsV2.sol:CoBotsV2",
            "label": "fulfilled",
            "offset": 0,
            "slot": "1",
            "type": "t_bool"
          },
          {
            "astId": 11316,
            "contract": "contracts/co-bots/CoBotsV2.sol:CoBotsV2",
            "label": "winner",
            "offset": 0,
            "slot": "2",
            "type": "t_struct(Winner)11308_storage"
          }
        ],
        "numberOfBytes": "96"
      },
      "t_struct(MysteryChallenge)10406_storage": {
        "encoding": "inplace",
        "label": "struct CoBotsV2.MysteryChallenge",
        "members": [
          {
            "astId": 10401,
            "contract": "contracts/co-bots/CoBotsV2.sol:CoBotsV2",
            "label": "ensId",
            "offset": 0,
            "slot": "0",
            "type": "t_uint256"
          },
          {
            "astId": 10403,
            "contract": "contracts/co-bots/CoBotsV2.sol:CoBotsV2",
            "label": "value",
            "offset": 0,
            "slot": "1",
            "type": "t_uint256"
          },
          {
            "astId": 10405,
            "contract": "contracts/co-bots/CoBotsV2.sol:CoBotsV2",
            "label": "prizeIndex",
            "offset": 0,
            "slot": "2",
            "type": "t_uint8"
          }
        ],
        "numberOfBytes": "96"
      },
      "t_struct(Parameters)10419_storage": {
        "encoding": "inplace",
        "label": "struct CoBotsV2.Parameters",
        "members": [
          {
            "astId": 10408,
            "contract": "contracts/co-bots/CoBotsV2.sol:CoBotsV2",
            "label": "mintOutFoundersWithdrawalDelay",
            "offset": 0,
            "slot": "0",
            "type": "t_uint16"
          },
          {
            "astId": 10410,
            "contract": "contracts/co-bots/CoBotsV2.sol:CoBotsV2",
            "label": "grandPrizeDelay",
            "offset": 2,
            "slot": "0",
            "type": "t_uint16"
          },
          {
            "astId": 10412,
            "contract": "contracts/co-bots/CoBotsV2.sol:CoBotsV2",
            "label": "maxCobots",
            "offset": 4,
            "slot": "0",
            "type": "t_uint16"
          },
          {
            "astId": 10414,
            "contract": "contracts/co-bots/CoBotsV2.sol:CoBotsV2",
            "label": "contestDuration",
            "offset": 6,
            "slot": "0",
            "type": "t_uint24"
          },
          {
            "astId": 10416,
            "contract": "contracts/co-bots/CoBotsV2.sol:CoBotsV2",
            "label": "mintPublicPrice",
            "offset": 9,
            "slot": "0",
            "type": "t_uint72"
          },
          {
            "astId": 10418,
            "contract": "contracts/co-bots/CoBotsV2.sol:CoBotsV2",
            "label": "cobotsV1Discount",
            "offset": 18,
            "slot": "0",
            "type": "t_uint72"
          }
        ],
        "numberOfBytes": "32"
      },
      "t_struct(Prize)10399_storage": {
        "encoding": "inplace",
        "label": "struct CoBotsV2.Prize",
        "members": [
          {
            "astId": 10394,
            "contract": "contracts/co-bots/CoBotsV2.sol:CoBotsV2",
            "label": "checkpoint",
            "offset": 0,
            "slot": "0",
            "type": "t_uint16"
          },
          {
            "astId": 10396,
            "contract": "contracts/co-bots/CoBotsV2.sol:CoBotsV2",
            "label": "amount",
            "offset": 2,
            "slot": "0",
            "type": "t_uint72"
          },
          {
            "astId": 10398,
            "contract": "contracts/co-bots/CoBotsV2.sol:CoBotsV2",
            "label": "isContest",
            "offset": 11,
            "slot": "0",
            "type": "t_bool"
          }
        ],
        "numberOfBytes": "32"
      },
      "t_struct(TokenOwnership)12475_storage": {
        "encoding": "inplace",
        "label": "struct ERC721A.TokenOwnership",
        "members": [
          {
            "astId": 12470,
            "contract": "contracts/co-bots/CoBotsV2.sol:CoBotsV2",
            "label": "addr",
            "offset": 0,
            "slot": "0",
            "type": "t_address"
          },
          {
            "astId": 12472,
            "contract": "contracts/co-bots/CoBotsV2.sol:CoBotsV2",
            "label": "startTimestamp",
            "offset": 20,
            "slot": "0",
            "type": "t_uint64"
          },
          {
            "astId": 12474,
            "contract": "contracts/co-bots/CoBotsV2.sol:CoBotsV2",
            "label": "burned",
            "offset": 28,
            "slot": "0",
            "type": "t_bool"
          }
        ],
        "numberOfBytes": "32"
      },
      "t_struct(Winner)11308_storage": {
        "encoding": "inplace",
        "label": "struct CoBotsV2.Winner",
        "members": [
          {
            "astId": 11305,
            "contract": "contracts/co-bots/CoBotsV2.sol:CoBotsV2",
            "label": "winner",
            "offset": 0,
            "slot": "0",
            "type": "t_address"
          },
          {
            "astId": 11307,
            "contract": "contracts/co-bots/CoBotsV2.sol:CoBotsV2",
            "label": "tokenId",
            "offset": 20,
            "slot": "0",
            "type": "t_uint16"
          }
        ],
        "numberOfBytes": "32"
      },
      "t_uint128": {
        "encoding": "inplace",
        "label": "uint128",
        "numberOfBytes": "16"
      },
      "t_uint16": {
        "encoding": "inplace",
        "label": "uint16",
        "numberOfBytes": "2"
      },
      "t_uint24": {
        "encoding": "inplace",
        "label": "uint24",
        "numberOfBytes": "3"
      },
      "t_uint256": {
        "encoding": "inplace",
        "label": "uint256",
        "numberOfBytes": "32"
      },
      "t_uint64": {
        "encoding": "inplace",
        "label": "uint64",
        "numberOfBytes": "8"
      },
      "t_uint72": {
        "encoding": "inplace",
        "label": "uint72",
        "numberOfBytes": "9"
      },
      "t_uint8": {
        "encoding": "inplace",
        "label": "uint8",
        "numberOfBytes": "1"
      }
    }
  }
}