{
  "address": "0xaeF74734F1283fD57378E5D6a300A4dE20F5Bcab",
  "abi": [
    {
      "inputs": [
        {
          "internalType": "string",
          "name": "name_",
          "type": "string"
        },
        {
          "internalType": "string",
          "name": "symbol_",
          "type": "string"
        },
        {
          "internalType": "address",
          "name": "_rendererAddress",
          "type": "address"
        },
        {
          "internalType": "address",
          "name": "_opensea",
          "type": "address"
        },
        {
          "internalType": "address",
          "name": "_looksrare",
          "type": "address"
        },
        {
          "internalType": "address",
          "name": "vrfCoordinator",
          "type": "address"
        },
        {
          "internalType": "address",
          "name": "link",
          "type": "address"
        },
        {
          "internalType": "bytes32",
          "name": "keyHash",
          "type": "bytes32"
        }
      ],
      "stateMutability": "nonpayable",
      "type": "constructor"
    },
    {
      "inputs": [],
      "name": "ApprovalCallerNotOwnerNorApproved",
      "type": "error"
    },
    {
      "inputs": [],
      "name": "ApprovalQueryForNonexistentToken",
      "type": "error"
    },
    {
      "inputs": [],
      "name": "ApprovalToCurrentOwner",
      "type": "error"
    },
    {
      "inputs": [],
      "name": "ApproveToCaller",
      "type": "error"
    },
    {
      "inputs": [],
      "name": "BalanceQueryForZeroAddress",
      "type": "error"
    },
    {
      "inputs": [],
      "name": "MintToZeroAddress",
      "type": "error"
    },
    {
      "inputs": [],
      "name": "MintZeroQuantity",
      "type": "error"
    },
    {
      "inputs": [
        {
          "internalType": "address",
          "name": "have",
          "type": "address"
        },
        {
          "internalType": "address",
          "name": "want",
          "type": "address"
        }
      ],
      "name": "OnlyCoordinatorCanFulfill",
      "type": "error"
    },
    {
      "inputs": [],
      "name": "OwnerIndexOutOfBounds",
      "type": "error"
    },
    {
      "inputs": [],
      "name": "OwnerQueryForNonexistentToken",
      "type": "error"
    },
    {
      "inputs": [],
      "name": "TokenIndexOutOfBounds",
      "type": "error"
    },
    {
      "inputs": [],
      "name": "TransferCallerNotOwnerNorApproved",
      "type": "error"
    },
    {
      "inputs": [],
      "name": "TransferFromIncorrectOwner",
      "type": "error"
    },
    {
      "inputs": [],
      "name": "TransferToNonERC721ReceiverImplementer",
      "type": "error"
    },
    {
      "inputs": [],
      "name": "TransferToZeroAddress",
      "type": "error"
    },
    {
      "anonymous": false,
      "inputs": [
        {
          "indexed": true,
          "internalType": "address",
          "name": "owner",
          "type": "address"
        },
        {
          "indexed": true,
          "internalType": "address",
          "name": "approved",
          "type": "address"
        },
        {
          "indexed": true,
          "internalType": "uint256",
          "name": "tokenId",
          "type": "uint256"
        }
      ],
      "name": "Approval",
      "type": "event"
    },
    {
      "anonymous": false,
      "inputs": [
        {
          "indexed": true,
          "internalType": "address",
          "name": "owner",
          "type": "address"
        },
        {
          "indexed": true,
          "internalType": "address",
          "name": "operator",
          "type": "address"
        },
        {
          "indexed": false,
          "internalType": "bool",
          "name": "approved",
          "type": "bool"
        }
      ],
      "name": "ApprovalForAll",
      "type": "event"
    },
    {
      "anonymous": false,
      "inputs": [
        {
          "indexed": true,
          "internalType": "address",
          "name": "previousOwner",
          "type": "address"
        },
        {
          "indexed": true,
          "internalType": "address",
          "name": "newOwner",
          "type": "address"
        }
      ],
      "name": "OwnershipTransferred",
      "type": "event"
    },
    {
      "anonymous": false,
      "inputs": [
        {
          "indexed": true,
          "internalType": "address",
          "name": "from",
          "type": "address"
        },
        {
          "indexed": true,
          "internalType": "address",
          "name": "to",
          "type": "address"
        },
        {
          "indexed": true,
          "internalType": "uint256",
          "name": "tokenId",
          "type": "uint256"
        }
      ],
      "name": "Transfer",
      "type": "event"
    },
    {
      "inputs": [],
      "name": "COBOTS_MINT_DURATION",
      "outputs": [
        {
          "internalType": "uint256",
          "name": "",
          "type": "uint256"
        }
      ],
      "stateMutability": "view",
      "type": "function"
    },
    {
      "inputs": [],
      "name": "COBOTS_MINT_RAFFLE_DELAY",
      "outputs": [
        {
          "internalType": "uint256",
          "name": "",
          "type": "uint256"
        }
      ],
      "stateMutability": "view",
      "type": "function"
    },
    {
      "inputs": [],
      "name": "COBOTS_REFUND_DURATION",
      "outputs": [
        {
          "internalType": "uint256",
          "name": "",
          "type": "uint256"
        }
      ],
      "stateMutability": "view",
      "type": "function"
    },
    {
      "inputs": [],
      "name": "COORDINATION_RAFFLE_PRIZE",
      "outputs": [
        {
          "internalType": "uint256",
          "name": "",
          "type": "uint256"
        }
      ],
      "stateMutability": "view",
      "type": "function"
    },
    {
      "inputs": [],
      "name": "COORDINATION_RAFFLE_THRESHOLD",
      "outputs": [
        {
          "internalType": "uint16",
          "name": "",
          "type": "uint16"
        }
      ],
      "stateMutability": "view",
      "type": "function"
    },
    {
      "inputs": [],
      "name": "COORDINATION_RAFFLE_WINNERS_COUNT",
      "outputs": [
        {
          "internalType": "uint8",
          "name": "",
          "type": "uint8"
        }
      ],
      "stateMutability": "view",
      "type": "function"
    },
    {
      "inputs": [],
      "name": "MAIN_RAFFLE_PRIZE",
      "outputs": [
        {
          "internalType": "uint256",
          "name": "",
          "type": "uint256"
        }
      ],
      "stateMutability": "view",
      "type": "function"
    },
    {
      "inputs": [],
      "name": "MAIN_RAFFLE_WINNERS_COUNT",
      "outputs": [
        {
          "internalType": "uint8",
          "name": "",
          "type": "uint8"
        }
      ],
      "stateMutability": "view",
      "type": "function"
    },
    {
      "inputs": [],
      "name": "MAX_COBOTS",
      "outputs": [
        {
          "internalType": "uint256",
          "name": "",
          "type": "uint256"
        }
      ],
      "stateMutability": "view",
      "type": "function"
    },
    {
      "inputs": [],
      "name": "MAX_MINT_PER_ADDRESS",
      "outputs": [
        {
          "internalType": "uint8",
          "name": "",
          "type": "uint8"
        }
      ],
      "stateMutability": "view",
      "type": "function"
    },
    {
      "inputs": [],
      "name": "MINT_FOUNDERS_AND_GIVEAWAYS",
      "outputs": [
        {
          "internalType": "uint8",
          "name": "",
          "type": "uint8"
        }
      ],
      "stateMutability": "view",
      "type": "function"
    },
    {
      "inputs": [],
      "name": "MINT_GIVEAWAYS",
      "outputs": [
        {
          "internalType": "uint8",
          "name": "",
          "type": "uint8"
        }
      ],
      "stateMutability": "view",
      "type": "function"
    },
    {
      "inputs": [],
      "name": "MINT_PUBLIC_PRICE",
      "outputs": [
        {
          "internalType": "uint256",
          "name": "",
          "type": "uint256"
        }
      ],
      "stateMutability": "view",
      "type": "function"
    },
    {
      "inputs": [],
      "name": "RAFFLE_DRAW_DELAY",
      "outputs": [
        {
          "internalType": "uint256",
          "name": "",
          "type": "uint256"
        }
      ],
      "stateMutability": "view",
      "type": "function"
    },
    {
      "inputs": [
        {
          "internalType": "address",
          "name": "to",
          "type": "address"
        },
        {
          "internalType": "uint256",
          "name": "tokenId",
          "type": "uint256"
        }
      ],
      "name": "approve",
      "outputs": [],
      "stateMutability": "nonpayable",
      "type": "function"
    },
    {
      "inputs": [
        {
          "internalType": "address",
          "name": "owner",
          "type": "address"
        }
      ],
      "name": "balanceOf",
      "outputs": [
        {
          "internalType": "uint256",
          "name": "",
          "type": "uint256"
        }
      ],
      "stateMutability": "view",
      "type": "function"
    },
    {
      "inputs": [],
      "name": "cancelSubscription",
      "outputs": [],
      "stateMutability": "nonpayable",
      "type": "function"
    },
    {
      "inputs": [],
      "name": "claimRefund",
      "outputs": [],
      "stateMutability": "nonpayable",
      "type": "function"
    },
    {
      "inputs": [
        {
          "internalType": "uint256[]",
          "name": "tokenIds",
          "type": "uint256[]"
        }
      ],
      "name": "claimRefund",
      "outputs": [],
      "stateMutability": "nonpayable",
      "type": "function"
    },
    {
      "inputs": [],
      "name": "coBotsColorAgreement",
      "outputs": [
        {
          "internalType": "uint16",
          "name": "",
          "type": "uint16"
        }
      ],
      "stateMutability": "view",
      "type": "function"
    },
    {
      "inputs": [
        {
          "internalType": "uint256",
          "name": "",
          "type": "uint256"
        }
      ],
      "name": "coBotsColors",
      "outputs": [
        {
          "internalType": "bool",
          "name": "",
          "type": "bool"
        }
      ],
      "stateMutability": "view",
      "type": "function"
    },
    {
      "inputs": [
        {
          "internalType": "uint256",
          "name": "",
          "type": "uint256"
        }
      ],
      "name": "coBotsRefunded",
      "outputs": [
        {
          "internalType": "bool",
          "name": "",
          "type": "bool"
        }
      ],
      "stateMutability": "view",
      "type": "function"
    },
    {
      "inputs": [
        {
          "internalType": "uint256",
          "name": "",
          "type": "uint256"
        }
      ],
      "name": "coBotsSeeds",
      "outputs": [
        {
          "internalType": "uint8",
          "name": "",
          "type": "uint8"
        }
      ],
      "stateMutability": "view",
      "type": "function"
    },
    {
      "inputs": [
        {
          "internalType": "uint256",
          "name": "",
          "type": "uint256"
        }
      ],
      "name": "coBotsStatusDisabled",
      "outputs": [
        {
          "internalType": "bool",
          "name": "",
          "type": "bool"
        }
      ],
      "stateMutability": "view",
      "type": "function"
    },
    {
      "inputs": [],
      "name": "cooperativeRaffleEnabled",
      "outputs": [
        {
          "internalType": "bool",
          "name": "",
          "type": "bool"
        }
      ],
      "stateMutability": "view",
      "type": "function"
    },
    {
      "inputs": [
        {
          "internalType": "uint96",
          "name": "amount",
          "type": "uint96"
        }
      ],
      "name": "createSubscriptionAndFund",
      "outputs": [],
      "stateMutability": "nonpayable",
      "type": "function"
    },
    {
      "inputs": [],
      "name": "draw",
      "outputs": [
        {
          "internalType": "uint256",
          "name": "",
          "type": "uint256"
        }
      ],
      "stateMutability": "nonpayable",
      "type": "function"
    },
    {
      "inputs": [],
      "name": "drawCount",
      "outputs": [
        {
          "internalType": "uint16",
          "name": "",
          "type": "uint16"
        }
      ],
      "stateMutability": "view",
      "type": "function"
    },
    {
      "inputs": [
        {
          "internalType": "uint256",
          "name": "_tokenId",
          "type": "uint256"
        }
      ],
      "name": "exists",
      "outputs": [
        {
          "internalType": "bool",
          "name": "",
          "type": "bool"
        }
      ],
      "stateMutability": "view",
      "type": "function"
    },
    {
      "inputs": [
        {
          "internalType": "address",
          "name": "proxyAddress",
          "type": "address"
        }
      ],
      "name": "flipProxyState",
      "outputs": [],
      "stateMutability": "nonpayable",
      "type": "function"
    },
    {
      "inputs": [
        {
          "internalType": "uint256",
          "name": "tokenId",
          "type": "uint256"
        }
      ],
      "name": "getApproved",
      "outputs": [
        {
          "internalType": "address",
          "name": "",
          "type": "address"
        }
      ],
      "stateMutability": "view",
      "type": "function"
    },
    {
      "inputs": [
        {
          "internalType": "address",
          "name": "owner",
          "type": "address"
        },
        {
          "internalType": "address",
          "name": "operator",
          "type": "address"
        }
      ],
      "name": "isApprovedForAll",
      "outputs": [
        {
          "internalType": "bool",
          "name": "",
          "type": "bool"
        }
      ],
      "stateMutability": "view",
      "type": "function"
    },
    {
      "inputs": [],
      "name": "isDrawOpen",
      "outputs": [
        {
          "internalType": "bool",
          "name": "",
          "type": "bool"
        }
      ],
      "stateMutability": "view",
      "type": "function"
    },
    {
      "inputs": [],
      "name": "isMintedOut",
      "outputs": [
        {
          "internalType": "bool",
          "name": "",
          "type": "bool"
        }
      ],
      "stateMutability": "view",
      "type": "function"
    },
    {
      "inputs": [],
      "name": "isPublicSaleOpen",
      "outputs": [
        {
          "internalType": "bool",
          "name": "",
          "type": "bool"
        }
      ],
      "stateMutability": "view",
      "type": "function"
    },
    {
      "inputs": [],
      "name": "lastDrawTimestamp",
      "outputs": [
        {
          "internalType": "uint256",
          "name": "",
          "type": "uint256"
        }
      ],
      "stateMutability": "view",
      "type": "function"
    },
    {
      "inputs": [],
      "name": "looksrare",
      "outputs": [
        {
          "internalType": "address",
          "name": "",
          "type": "address"
        }
      ],
      "stateMutability": "view",
      "type": "function"
    },
    {
      "inputs": [
        {
          "internalType": "address",
          "name": "to",
          "type": "address"
        },
        {
          "internalType": "uint256",
          "name": "quantity",
          "type": "uint256"
        }
      ],
      "name": "mintFoundersAndGiveaways",
      "outputs": [],
      "stateMutability": "nonpayable",
      "type": "function"
    },
    {
      "inputs": [
        {
          "internalType": "uint256",
          "name": "quantity",
          "type": "uint256"
        }
      ],
      "name": "mintPublicSale",
      "outputs": [],
      "stateMutability": "payable",
      "type": "function"
    },
    {
      "inputs": [],
      "name": "name",
      "outputs": [
        {
          "internalType": "string",
          "name": "",
          "type": "string"
        }
      ],
      "stateMutability": "view",
      "type": "function"
    },
    {
      "inputs": [],
      "name": "opensea",
      "outputs": [
        {
          "internalType": "address",
          "name": "",
          "type": "address"
        }
      ],
      "stateMutability": "view",
      "type": "function"
    },
    {
      "inputs": [],
      "name": "owner",
      "outputs": [
        {
          "internalType": "address",
          "name": "",
          "type": "address"
        }
      ],
      "stateMutability": "view",
      "type": "function"
    },
    {
      "inputs": [
        {
          "internalType": "uint256",
          "name": "tokenId",
          "type": "uint256"
        }
      ],
      "name": "ownerOf",
      "outputs": [
        {
          "internalType": "address",
          "name": "",
          "type": "address"
        }
      ],
      "stateMutability": "view",
      "type": "function"
    },
    {
      "inputs": [
        {
          "internalType": "address",
          "name": "",
          "type": "address"
        }
      ],
      "name": "prizePerAddress",
      "outputs": [
        {
          "internalType": "uint256",
          "name": "",
          "type": "uint256"
        }
      ],
      "stateMutability": "view",
      "type": "function"
    },
    {
      "inputs": [
        {
          "internalType": "uint256",
          "name": "",
          "type": "uint256"
        }
      ],
      "name": "prizePerDraw",
      "outputs": [
        {
          "internalType": "uint256",
          "name": "",
          "type": "uint256"
        }
      ],
      "stateMutability": "view",
      "type": "function"
    },
    {
      "inputs": [],
      "name": "publicSaleStartTimestamp",
      "outputs": [
        {
          "internalType": "uint256",
          "name": "",
          "type": "uint256"
        }
      ],
      "stateMutability": "view",
      "type": "function"
    },
    {
      "inputs": [
        {
          "internalType": "uint256",
          "name": "requestId",
          "type": "uint256"
        },
        {
          "internalType": "uint256[]",
          "name": "randomWords",
          "type": "uint256[]"
        }
      ],
      "name": "rawFulfillRandomWords",
      "outputs": [],
      "stateMutability": "nonpayable",
      "type": "function"
    },
    {
      "inputs": [],
      "name": "renderingContractAddress",
      "outputs": [
        {
          "internalType": "address",
          "name": "",
          "type": "address"
        }
      ],
      "stateMutability": "view",
      "type": "function"
    },
    {
      "inputs": [],
      "name": "renounceOwnership",
      "outputs": [],
      "stateMutability": "nonpayable",
      "type": "function"
    },
    {
      "inputs": [
        {
          "internalType": "address",
          "name": "from",
          "type": "address"
        },
        {
          "internalType": "address",
          "name": "to",
          "type": "address"
        },
        {
          "internalType": "uint256",
          "name": "tokenId",
          "type": "uint256"
        }
      ],
      "name": "safeTransferFrom",
      "outputs": [],
      "stateMutability": "nonpayable",
      "type": "function"
    },
    {
      "inputs": [
        {
          "internalType": "address",
          "name": "from",
          "type": "address"
        },
        {
          "internalType": "address",
          "name": "to",
          "type": "address"
        },
        {
          "internalType": "uint256",
          "name": "tokenId",
          "type": "uint256"
        },
        {
          "internalType": "bytes",
          "name": "_data",
          "type": "bytes"
        }
      ],
      "name": "safeTransferFrom",
      "outputs": [],
      "stateMutability": "nonpayable",
      "type": "function"
    },
    {
      "inputs": [
        {
          "internalType": "address",
          "name": "operator",
          "type": "address"
        },
        {
          "internalType": "bool",
          "name": "approved",
          "type": "bool"
        }
      ],
      "name": "setApprovalForAll",
      "outputs": [],
      "stateMutability": "nonpayable",
      "type": "function"
    },
    {
      "inputs": [
        {
          "internalType": "address",
          "name": "looksrare_",
          "type": "address"
        }
      ],
      "name": "setLooksrare",
      "outputs": [],
      "stateMutability": "nonpayable",
      "type": "function"
    },
    {
      "inputs": [
        {
          "internalType": "address",
          "name": "opensea_",
          "type": "address"
        }
      ],
      "name": "setOpensea",
      "outputs": [],
      "stateMutability": "nonpayable",
      "type": "function"
    },
    {
      "inputs": [
        {
          "internalType": "uint256",
          "name": "timestamp",
          "type": "uint256"
        }
      ],
      "name": "setPublicSaleTimestamp",
      "outputs": [],
      "stateMutability": "nonpayable",
      "type": "function"
    },
    {
      "inputs": [
        {
          "internalType": "address",
          "name": "_renderingContractAddress",
          "type": "address"
        }
      ],
      "name": "setRenderingContractAddress",
      "outputs": [],
      "stateMutability": "nonpayable",
      "type": "function"
    },
    {
      "inputs": [
        {
          "internalType": "bytes4",
          "name": "interfaceId",
          "type": "bytes4"
        }
      ],
      "name": "supportsInterface",
      "outputs": [
        {
          "internalType": "bool",
          "name": "",
          "type": "bool"
        }
      ],
      "stateMutability": "view",
      "type": "function"
    },
    {
      "inputs": [],
      "name": "symbol",
      "outputs": [
        {
          "internalType": "string",
          "name": "",
          "type": "string"
        }
      ],
      "stateMutability": "view",
      "type": "function"
    },
    {
      "inputs": [
        {
          "internalType": "uint256",
          "name": "tokenId",
          "type": "uint256"
        }
      ],
      "name": "toggleColor",
      "outputs": [],
      "stateMutability": "nonpayable",
      "type": "function"
    },
    {
      "inputs": [
        {
          "internalType": "uint256[]",
          "name": "tokenIds",
          "type": "uint256[]"
        }
      ],
      "name": "toggleColors",
      "outputs": [],
      "stateMutability": "nonpayable",
      "type": "function"
    },
    {
      "inputs": [
        {
          "internalType": "uint256",
          "name": "tokenId",
          "type": "uint256"
        }
      ],
      "name": "toggleStatus",
      "outputs": [],
      "stateMutability": "nonpayable",
      "type": "function"
    },
    {
      "inputs": [
        {
          "internalType": "uint256[]",
          "name": "tokenIds",
          "type": "uint256[]"
        }
      ],
      "name": "toggleStatuses",
      "outputs": [],
      "stateMutability": "nonpayable",
      "type": "function"
    },
    {
      "inputs": [
        {
          "internalType": "uint256",
          "name": "index",
          "type": "uint256"
        }
      ],
      "name": "tokenByIndex",
      "outputs": [
        {
          "internalType": "uint256",
          "name": "",
          "type": "uint256"
        }
      ],
      "stateMutability": "view",
      "type": "function"
    },
    {
      "inputs": [
        {
          "internalType": "address",
          "name": "owner",
          "type": "address"
        },
        {
          "internalType": "uint256",
          "name": "index",
          "type": "uint256"
        }
      ],
      "name": "tokenOfOwnerByIndex",
      "outputs": [
        {
          "internalType": "uint256",
          "name": "",
          "type": "uint256"
        }
      ],
      "stateMutability": "view",
      "type": "function"
    },
    {
      "inputs": [
        {
          "internalType": "uint256",
          "name": "_tokenId",
          "type": "uint256"
        }
      ],
      "name": "tokenURI",
      "outputs": [
        {
          "internalType": "string",
          "name": "",
          "type": "string"
        }
      ],
      "stateMutability": "view",
      "type": "function"
    },
    {
      "inputs": [],
      "name": "totalSupply",
      "outputs": [
        {
          "internalType": "uint256",
          "name": "",
          "type": "uint256"
        }
      ],
      "stateMutability": "view",
      "type": "function"
    },
    {
      "inputs": [
        {
          "internalType": "address",
          "name": "from",
          "type": "address"
        },
        {
          "internalType": "address",
          "name": "to",
          "type": "address"
        },
        {
          "internalType": "uint256",
          "name": "tokenId",
          "type": "uint256"
        }
      ],
      "name": "transferFrom",
      "outputs": [],
      "stateMutability": "nonpayable",
      "type": "function"
    },
    {
      "inputs": [
        {
          "internalType": "address",
          "name": "newOwner",
          "type": "address"
        }
      ],
      "name": "transferOwnership",
      "outputs": [],
      "stateMutability": "nonpayable",
      "type": "function"
    },
    {
      "inputs": [
        {
          "internalType": "uint256",
          "name": "",
          "type": "uint256"
        }
      ],
      "name": "winners",
      "outputs": [
        {
          "internalType": "address",
          "name": "",
          "type": "address"
        }
      ],
      "stateMutability": "view",
      "type": "function"
    },
    {
      "inputs": [],
      "name": "withdraw",
      "outputs": [],
      "stateMutability": "nonpayable",
      "type": "function"
    },
    {
      "stateMutability": "payable",
      "type": "receive"
    }
  ],
  "transactionHash": "0x1a77a2b2a8e5640b17c680613ac9f104d7e5d696ae4275650fdf66de2eeb2cf2",
  "args": [
    "Co-Bots",
    "CBTS",
    "0xA2144E75337A787Df08ac777e91734DE6442173B",
    "0xa5409ec958c83c3f309868babaca7c86dcb077c1",
    "0xf42aa99f011a1fa7cda90e5e98b277e306bca83e",
    "0x6168499c0cFfCaCD319c818142124B7A15E857ab",
    "0x01BE23585060835E02B77ef475b0Cc51aA1e0709",
    "0xd89b2bf150e3b9e13446986e571fb9cab24b13cea0a43ea20a6049a85cc807cc"
  ],
  "numDeployments": 4,
  "solcInputHash": "fd741553d7b2c7084b88a4f708af76e9",
  "bytecode": "0x60a06040526104ed805461ffff19166113881790553480156200002157600080fd5b5060405162004bd638038062004bd68339810160408190526200004491620003e6565b82888881600190805190602001906200005f929190620001b5565b50805162000075906002906020840190620001b5565b5050506001600160a01b03166080526200008f33620000ff565b60016008556200009f8662000151565b6104ef80546001600160a01b03199081166001600160a01b03978816179091556104f080548216958716959095179094556104f480548516938616939093179092556104f5805490931693169290921790556104f6555062000566915050565b600780546001600160a01b038381166001600160a01b0319831681179093556040519116919082907f8be0079c531659141344cd1fd0a4f28419497f9722a3daafe3b4186f6b6457e090600090a35050565b6007546001600160a01b03163314620001875760405162461bcd60e51b81526004016200017e90620004e4565b60405180910390fd5b6104f280546001600160a01b039092166001600160a01b031992831681179091556104f38054909216179055565b828054620001c39062000535565b90600052602060002090601f016020900481019282620001e7576000855562000232565b82601f106200020257805160ff191683800117855562000232565b8280016001018555821562000232579182015b828111156200023257825182559160200191906001019062000215565b506200024092915062000244565b5090565b5b8082111562000240576000815560010162000245565b634e487b7160e01b600052604160045260246000fd5b601f19601f83011681016001600160401b03811182821017156200029957620002996200025b565b6040525050565b6000620002ac60405190565b9050620002ba828262000271565b919050565b60006001600160401b03821115620002db57620002db6200025b565b601f19601f83011660200192915050565b60005b8381101562000309578181015183820152602001620002ef565b8381111562000319576000848401525b50505050565b6000620003366200033084620002bf565b620002a0565b905082815260208101848484011115620003535762000353600080fd5b62000360848285620002ec565b509392505050565b600082601f8301126200037e576200037e600080fd5b8151620003908482602086016200031f565b949350505050565b60006001600160a01b0382165b92915050565b620003b68162000398565b8114620003c257600080fd5b50565b8051620003a581620003ab565b80620003b6565b8051620003a581620003d2565b600080600080600080600080610100898b031215620004085762000408600080fd5b88516001600160401b03811115620004235762000423600080fd5b620004318b828c0162000368565b60208b015190995090506001600160401b03811115620004545762000454600080fd5b620004628b828c0162000368565b9750506040620004758b828c01620003c5565b9650506060620004888b828c01620003c5565b95505060806200049b8b828c01620003c5565b94505060a0620004ae8b828c01620003c5565b93505060c0620004c18b828c01620003c5565b92505060e0620004d48b828c01620003d9565b9150509295985092959890939650565b60208082528181019081527f4f776e61626c653a2063616c6c6572206973206e6f7420746865206f776e6572604083015260608201620003a5565b634e487b7160e01b600052602260045260246000fd5b6002810460018216806200054a57607f821691505b602082108114156200056057620005606200051f565b50919050565b60805161464d620005896000396000818161129101526112b9015261464d6000f3fe6080604052600436106104695760003560e01c806368d99f7c11610243578063adb19dc311610143578063c87b56dd116100bb578063e985e9c51161008a578063f54a6f831161006f578063f54a6f8314610c38578063f73c814b14610c58578063fc749b3c14610c7857600080fd5b8063e985e9c514610bf8578063f2fde38b14610c1857600080fd5b8063c87b56dd14610b80578063cef46f0d14610ba0578063cf62c8ab14610bc1578063d7822c9914610be157600080fd5b8063b776c8a611610112578063c074f412116100f7578063c074f41214610b3f578063c45ca31014610b60578063c79945101461095857600080fd5b8063b776c8a614610aff578063b88d4fde14610b1f57600080fd5b8063adb19dc314610aae578063b06a01f41461074d578063b4b294d914610ace578063b5545a3c14610aea57600080fd5b806395d89b41116101d6578063a3b1763f116101a5578063a8e90b571161018a578063a8e90b5714610a62578063abb7a28f14610a83578063ac483b9314610a9957600080fd5b8063a3b1763f14610a29578063a747338314610a4557600080fd5b806395d89b41146109b95780639c51792a146109ce578063a22cb465146109e9578063a2fb117514610a0957600080fd5b8063743521e411610212578063743521e41461095857806378af6b851461096f5780638c21460b146109845780638da5cb5b1461099b57600080fd5b806368d99f7c146108eb57806370a082311461090e578063715018a61461092e57806373cd7d881461094357600080fd5b806324e9edb0116103695780634f6ccce7116102e157806351db2e76116102b05780635dad667c116102955780635dad667c1461088b5780636352211e146108ab5780636445b238146108cb57600080fd5b806351db2e76146108585780635a5e5d581461087857600080fd5b80634f6ccce7146107d75780634fb9462a146107f7578063511a960514610817578063511ed3821461083757600080fd5b80633acd6cb21161033857806342842e0e1161031d57806342842e0e1461077757806347a3650b146107975780634f558e79146107b757600080fd5b80633acd6cb21461074d5780633ccfd60b1461076257600080fd5b806324e9edb0146106d55780632f745c59146106ea5780632fd573a51461070a57806330d1bda11461071f57600080fd5b80630eecae21116103fc5780631a6949e3116103cb5780631fafadbc116103b05780631fafadbc146106755780631fe543e31461069557806323b872dd146106b557600080fd5b80631a6949e3146106405780631e8858fb1461065557600080fd5b80630eecae21146105b857806312b40a9f146105cd57806316d870c2146105ed57806318160ddd1461060457600080fd5b8063081812fc11610438578063081812fc1461052a57806308222d5814610557578063095ea7b3146105805780630bb4d042146105a257600080fd5b806301d2a00b1461047557806301ffc9a7146104b957806303e48f66146104e657806306fdde031461050857600080fd5b3661047057005b600080fd5b34801561048157600080fd5b506104a36104903660046133eb565b6104fb6020526000908152604090205481565b6040516104b09190613414565b60405180910390f35b3480156104c557600080fd5b506104d96104d436600461343d565b610c98565b6040516104b09190613466565b3480156104f257600080fd5b506104fb603281565b6040516104b0919061347d565b34801561051457600080fd5b5061051d610d69565b6040516104b091906134e9565b34801561053657600080fd5b5061054a6105453660046133eb565b610dfb565b6040516104b09190613514565b34801561056357600080fd5b506104fc546105739061ffff1681565b6040516104b0919061352c565b34801561058c57600080fd5b506105a061059b36600461354e565b610e58565b005b3480156105ae57600080fd5b506104a361271081565b3480156105c457600080fd5b506104a3610f18565b3480156105d957600080fd5b506105a06105e836600461358b565b611165565b3480156105f957600080fd5b506104a36201518081565b34801561061057600080fd5b506104a36000546001600160801b0370010000000000000000000000000000000082048116918116919091031690565b34801561064c57600080fd5b506104d96111ca565b34801561066157600080fd5b506105a061067036600461358b565b611201565b34801561068157600080fd5b506104fb6106903660046133eb565b61125b565b3480156106a157600080fd5b506105a06106b03660046136b1565b611286565b3480156106c157600080fd5b506105a06106d03660046136ff565b61131a565b3480156106e157600080fd5b506105a0611325565b3480156106f657600080fd5b506104a361070536600461354e565b6113de565b34801561071657600080fd5b506104a3603c81565b34801561072b57600080fd5b506104a361073a36600461358b565b6104f96020526000908152604090205481565b34801561075957600080fd5b506104fb601481565b34801561076e57600080fd5b506105a06114f4565b34801561078357600080fd5b506105a06107923660046136ff565b6115fe565b3480156107a357600080fd5b506105a06107b23660046137a1565b611619565b3480156107c357600080fd5b506104d96107d23660046133eb565b611689565b3480156107e357600080fd5b506104a36107f23660046133eb565b611694565b34801561080357600080fd5b506104d96108123660046133eb565b611758565b34801561082357600080fd5b506105a06108323660046133eb565b61176a565b34801561084357600080fd5b506104ef5461054a906001600160a01b031681565b34801561086457600080fd5b506105a06108733660046133eb565b61179a565b6105a06108863660046133eb565b61185d565b34801561089757600080fd5b506105a06108a63660046133eb565b61195f565b3480156108b757600080fd5b5061054a6108c63660046133eb565b611a82565b3480156108d757600080fd5b506104d96108e63660046133eb565b611a94565b3480156108f757600080fd5b506104d96000546001600160801b03166127101490565b34801561091a57600080fd5b506104a361092936600461358b565b611aa6565b34801561093a57600080fd5b506105a0611b0e565b34801561094f57600080fd5b506104fb600a81565b34801561096457600080fd5b506104a362093a8081565b34801561097b57600080fd5b506104fb601e81565b34801561099057600080fd5b506104a36104f75481565b3480156109a757600080fd5b506007546001600160a01b031661054a565b3480156109c557600080fd5b5061051d611b44565b3480156109da57600080fd5b506104a366b1a2bc2ec5000081565b3480156109f557600080fd5b506105a0610a043660046137fc565b611b53565b348015610a1557600080fd5b5061054a610a243660046133eb565b611c05565b348015610a3557600080fd5b506104a36722b1c8c1227a000081565b348015610a5157600080fd5b506104a368015af1d78b58c4000081565b348015610a6e57600080fd5b506104f05461054a906001600160a01b031681565b348015610a8f57600080fd5b5061057361251c81565b348015610aa557600080fd5b506104d9611c30565b348015610aba57600080fd5b506105a0610ac93660046137a1565b611c69565b348015610ada57600080fd5b506104ed546105739061ffff1681565b348015610af657600080fd5b506105a0611e71565b348015610b0b57600080fd5b506105a0610b1a36600461358b565b612073565b348015610b2b57600080fd5b506105a0610b3a3660046138c6565b6120cd565b348015610b4b57600080fd5b506104f25461054a906001600160a01b031681565b348015610b6c57600080fd5b506105a0610b7b36600461354e565b612101565b348015610b8c57600080fd5b5061051d610b9b3660046133eb565b61216c565b348015610bac57600080fd5b506104fc546104d99062010000900460ff1681565b348015610bcd57600080fd5b506105a0610bdc366004613964565b6122b0565b348015610bed57600080fd5b506104a36104ee5481565b348015610c0457600080fd5b506104d9610c13366004613985565b6124b2565b348015610c2457600080fd5b506105a0610c3336600461358b565b6125c6565b348015610c4457600080fd5b506105a0610c533660046137a1565b61261f565b348015610c6457600080fd5b506105a0610c7336600461358b565b61285d565b348015610c8457600080fd5b506104d9610c933660046133eb565b6128b1565b60006001600160e01b031982167f80ac58cd000000000000000000000000000000000000000000000000000000001480610cfb57506001600160e01b031982167f5b5e139f00000000000000000000000000000000000000000000000000000000145b80610d2f57506001600160e01b031982167f780e9d6300000000000000000000000000000000000000000000000000000000145b80610d6357507f01ffc9a7000000000000000000000000000000000000000000000000000000006001600160e01b03198316145b92915050565b606060018054610d78906139ce565b80601f0160208091040260200160405190810160405280929190818152602001828054610da4906139ce565b8015610df15780601f10610dc657610100808354040283529160200191610df1565b820191906000526020600020905b815481529060010190602001808311610dd457829003601f168201915b5050505050905090565b6000610e06826128c3565b610e3c576040517fcf4700e400000000000000000000000000000000000000000000000000000000815260040160405180910390fd5b506000908152600560205260409020546001600160a01b031690565b6000610e6382611a82565b9050806001600160a01b0316836001600160a01b03161415610eb1576040517f943f7b8c00000000000000000000000000000000000000000000000000000000815260040160405180910390fd5b336001600160a01b03821614801590610ed15750610ecf81336124b2565b155b15610f08576040517fcfb3b94200000000000000000000000000000000000000000000000000000000815260040160405180910390fd5b610f138383836128f7565b505050565b600060026008541415610f465760405162461bcd60e51b8152600401610f3d90613a2f565b60405180910390fd5b6002600855610f53611c30565b610f6f5760405162461bcd60e51b8152600401610f3d90613a71565b610f856000546001600160801b03166127101490565b610fa15760405162461bcd60e51b8152600401610f3d90613ab3565b6104fc5462010000900460ff16610fb957600a610fc5565b610fc56014600a613ad9565b6104fc5460ff9190911661ffff90911610610ff25760405162461bcd60e51b8152600401610f3d90613b31565b42603c6104f7546110039190613b41565b11158061101557506104fc5461ffff16155b6110315760405162461bcd60e51b8152600401610f3d90613b84565b426104f7556104fc54600090600a61ffff90911610611058576722b1c8c1227a0000611063565b68015af1d78b58c400005b6104fc805491925061ffff90911690600061107d83613b94565b825461ffff9182166101009390930a9283029190920219909116179055506104f4546104f6546104f8546040517f5d3b1d300000000000000000000000000000000000000000000000000000000081526000936001600160a01b031692635d3b1d30926111049267ffffffffffffffff909116906005906207a12090600190600401613bfb565b6020604051808303816000875af1158015611123573d6000803e3d6000fd5b505050506040513d601f19601f820116820180604052508101906111479190613c52565b60008181526104fb6020526040902092909255509050600160085590565b6007546001600160a01b0316331461118f5760405162461bcd60e51b8152600401610f3d90613ca3565b6104f280546001600160a01b0390921673ffffffffffffffffffffffffffffffffffffffff1992831681179091556104f38054909216179055565b60006104ee54421180156111e057506104ee5415155b80156111fc575062093a806104ee546111f99190613b41565b42105b905090565b6007546001600160a01b0316331461122b5760405162461bcd60e51b8152600401610f3d90613ca3565b6104f0805473ffffffffffffffffffffffffffffffffffffffff19166001600160a01b0392909216919091179055565b600981612710811061126c57600080fd5b60209182820401919006915054906101000a900460ff1681565b336001600160a01b037f0000000000000000000000000000000000000000000000000000000000000000161461130c57337f00000000000000000000000000000000000000000000000000000000000000006040517f1cf993f4000000000000000000000000000000000000000000000000000000008152600401610f3d929190613cb3565b6113168282612960565b5050565b610f13838383612ae8565b6007546001600160a01b0316331461134f5760405162461bcd60e51b8152600401610f3d90613ca3565b6104f4546104f8546040517fd7ae1d300000000000000000000000000000000000000000000000000000000081526001600160a01b039092169163d7ae1d30916113aa9167ffffffffffffffff909116903390600401613cce565b600060405180830381600087803b1580156113c457600080fd5b505af11580156113d8573d6000803e3d6000fd5b50505050565b60006113e983611aa6565b8210611421576040517f0ddac30e00000000000000000000000000000000000000000000000000000000815260040160405180910390fd5b600080546001600160801b03169080805b838110156114ee57600081815260036020908152604091829020825160608101845290546001600160a01b0381168252600160a01b810467ffffffffffffffff1692820192909252600160e01b90910460ff16158015928201929092529061149a57506114e6565b80516001600160a01b0316156114af57805192505b876001600160a01b0316836001600160a01b031614156114e457868414156114dd57509350610d6392505050565b6001909301925b505b600101611432565b50600080fd5b6007546001600160a01b0316331461151e5760405162461bcd60e51b8152600401610f3d90613ca3565b6104fc5462010000900460ff1661153657600a611542565b6115426014600a613ad9565b6104fc5461ffff1660ff919091161480611577575062093a80806104ee5461156a9190613b41565b6115749190613b41565b42115b6115935760405162461bcd60e51b8152600401610f3d90613d36565b604051600090339047908381818185875af1925050503d80600081146115d5576040519150601f19603f3d011682016040523d82523d6000602084013e6115da565b606091505b50509050806115fb5760405162461bcd60e51b8152600401610f3d90613d78565b50565b610f13838383604051806020016040528060008152506120cd565b6002600854141561163c5760405162461bcd60e51b8152600401610f3d90613a2f565b600260085560005b8181101561167f5761166d83838381811061166157611661613d88565b9050602002013561179a565b8061167781613d9e565b915050611644565b5050600160085550565b6000610d63826128c3565b600080546001600160801b031681805b8281101561172557600081815260036020908152604091829020825160608101845290546001600160a01b0381168252600160a01b810467ffffffffffffffff1692820192909252600160e01b90910460ff1615159181018290529061171c57858314156117155750949350505050565b6001909201915b506001016116a4565b506040517fa723001c00000000000000000000000000000000000000000000000000000000815260040160405180910390fd5b61027b81612710811061126c57600080fd5b6007546001600160a01b031633146117945760405162461bcd60e51b8152600401610f3d90613ca3565b6104ee55565b600260085414156117bd5760405162461bcd60e51b8152600401610f3d90613a2f565b6002600855336117cc82611a82565b6001600160a01b0316146117f25760405162461bcd60e51b8152600401610f3d90613de4565b61014281612710811061180757611807613d88565b602081049091015460ff601f9092166101000a9004161561014282612710811061183357611833613d88565b602091828204019190066101000a81548160ff021916908315150217905550600160088190555050565b6118656111ca565b6118815760405162461bcd60e51b8152600401610f3d90613e26565b600260085414156118a45760405162461bcd60e51b8152600401610f3d90613a2f565b60026008556118ba8166b1a2bc2ec50000613e36565b34146118d85760405162461bcd60e51b8152600401610f3d90613e87565b6118e56127106001613b41565b6000546118fc9083906001600160801b0316613b41565b106119195760405162461bcd60e51b8152600401610f3d90613eef565b60148161192533611aa6565b61192f9190613b41565b111561194d5760405162461bcd60e51b8152600401610f3d90613f57565b6119573382612d50565b506001600855565b600260085414156119825760405162461bcd60e51b8152600401610f3d90613a2f565b60026008553361199182611a82565b6001600160a01b0316146119b75760405162461bcd60e51b8152600401610f3d90613f99565b61027b8161271081106119cc576119cc613d88565b602081049091015460ff601f9092166101000a9004161561027b8261271081106119f8576119f8613d88565b602091828204019190066101000a81548160ff02191690831515021790555061027b816127108110611a2c57611a2c613d88565b602081049091015460ff601f9092166101000a900416611a57576104ed5461ffff1660001901611a63565b6104ed5461ffff166001015b6104ed805461ffff191661ffff92909216919091179055611957612e70565b6000611a8d82612efc565b5192915050565b6103b481612710811061126c57600080fd5b60006001600160a01b038216611ae8576040517f8f4eb60400000000000000000000000000000000000000000000000000000000815260040160405180910390fd5b506001600160a01b031660009081526004602052604090205467ffffffffffffffff1690565b6007546001600160a01b03163314611b385760405162461bcd60e51b8152600401610f3d90613ca3565b611b426000613039565b565b606060028054610d78906139ce565b6001600160a01b038216331415611b96576040517fb06307db00000000000000000000000000000000000000000000000000000000815260040160405180910390fd5b3360008181526006602090815260408083206001600160a01b038716808552925291829020805460ff191685151517905590519091907f17307eab39ab6107e8899845ad3d59bd9653f200f220920489ca2b5937696c3190611bf9908590613466565b60405180910390a35050565b6104fa8181548110611c1657600080fd5b6000918252602090912001546001600160a01b0316905081565b6000611c3a6111ca565b1580156111fc57506201518062093a806104ee54611c589190613b41565b611c629190613b41565b4211905090565b60026008541415611c8c5760405162461bcd60e51b8152600401610f3d90613a2f565b6002600855600061027b83838381611ca657611ca6613d88565b905060200201356127108110611cbe57611cbe613d88565b602081049091015460ff601f9092166101000a900416905060005b82811015611e315733611d03858584818110611cf757611cf7613d88565b90506020020135611a82565b6001600160a01b031614611d295760405162461bcd60e51b8152600401610f3d90613f99565b61027b848483818110611d3e57611d3e613d88565b905060200201356127108110611d5657611d56613d88565b602091828204019190069054906101000a900460ff16151582151514611d8e5760405162461bcd60e51b8152600401610f3d90614001565b61027b848483818110611da357611da3613d88565b905060200201356127108110611dbb57611dbb613d88565b602081049091015460ff601f9092166101000a9004161561027b858584818110611de757611de7613d88565b905060200201356127108110611dff57611dff613d88565b602091828204019190066101000a81548160ff0219169083151502179055508080611e2990613d9e565b915050611cd9565b5080611e47576104ed5461ffff16829003611e52565b6104ed5461ffff1682015b6104ed805461ffff191661ffff9290921691909117905561167f612e70565b60026008541415611e945760405162461bcd60e51b8152600401610f3d90613a2f565b60026008556104ee54611eab9062093a8090613b41565b42118015611ed4575062093a80806104ee54611ec79190613b41565b611ed19190613b41565b42105b611ef05760405162461bcd60e51b8152600401610f3d90614043565b611f066000546001600160801b03166127101490565b15611f235760405162461bcd60e51b8152600401610f3d90614085565b6000805b611f3033611aa6565b811015611fe1576000611f4333836113de565b90506032811015611f545750611fcf565b6103b4816127108110611f6957611f69613d88565b602081049091015460ff601f9092166101000a900416611fcd57611f9466b1a2bc2ec5000084613b41565b925060016103b4826127108110611fad57611fad613d88565b602091828204019190066101000a81548160ff0219169083151502179055505b505b80611fd981613d9e565b915050611f27565b50600081116120025760405162461bcd60e51b8152600401610f3d906140c7565b604051600090339083908381818185875af1925050503d8060008114612044576040519150601f19603f3d011682016040523d82523d6000602084013e612049565b606091505b505090508061206a5760405162461bcd60e51b8152600401610f3d90613d78565b50506001600855565b6007546001600160a01b0316331461209d5760405162461bcd60e51b8152600401610f3d90613ca3565b6104ef805473ffffffffffffffffffffffffffffffffffffffff19166001600160a01b0392909216919091179055565b6120d8848484612ae8565b6120e484848484613098565b6113d8576040516368d2bf6b60e11b815260040160405180910390fd5b6007546001600160a01b0316331461212b5760405162461bcd60e51b8152600401610f3d90613ca3565b600054603290612144906001600160801b031683613b41565b11156121625760405162461bcd60e51b8152600401610f3d9061412f565b6113168282612d50565b6060612177826128c3565b6121935760405162461bcd60e51b8152600401610f3d90614197565b6104f2546001600160a01b03166121b857505060408051602081019091526000815290565b6104f3546001600160a01b0316632da7b4e98360098161271081106121df576121df613d88565b602081049091015460ff601f9092166101000a90041661014286612710811061220a5761220a613d88565b602081049091015460ff601f9092166101000a9004161561027b87612710811061223657612236613d88565b602091828204019190069054906101000a900460ff166040518563ffffffff1660e01b815260040161226b94939291906141a7565b600060405180830381865afa158015612288573d6000803e3d6000fd5b505050506040513d6000823e601f3d908101601f19168201604052610d63919081019061423d565b6007546001600160a01b031633146122da5760405162461bcd60e51b8152600401610f3d90613ca3565b6104f85467ffffffffffffffff16612406576104f460009054906101000a90046001600160a01b03166001600160a01b031663a21a23e46040518163ffffffff1660e01b81526004016020604051808303816000875af1158015612342573d6000803e3d6000fd5b505050506040513d601f19601f820116820180604052508101906123669190614293565b6104f8805467ffffffffffffffff191667ffffffffffffffff9290921691821790556104f4546040517f7341c10c0000000000000000000000000000000000000000000000000000000081526001600160a01b0390911691637341c10c916123d391903090600401613cce565b600060405180830381600087803b1580156123ed57600080fd5b505af1158015612401573d6000803e3d6000fd5b505050505b6104f5546104f4546104f8546040516001600160a01b0393841693634000aea093169185916124429167ffffffffffffffff16906020016142b4565b6040516020818303038152906040526040518463ffffffff1660e01b815260040161246f939291906142e5565b6020604051808303816000875af115801561248e573d6000803e3d6000fd5b505050506040513d601f19601f82011682018060405250810190611316919061431d565b6104ef546040517fc45527910000000000000000000000000000000000000000000000000000000081526000916001600160a01b03169063c4552791906124fd908690600401613514565b602060405180830381865afa15801561251a573d6000803e3d6000fd5b505050506040513d601f19601f8201168201806040525081019061253e919061435d565b6001600160a01b0316826001600160a01b0316148061256b57506104f0546001600160a01b038381169116145b8061258f57506001600160a01b03821660009081526104f1602052604090205460ff165b806125bf57506001600160a01b0380841660009081526006602090815260408083209386168352929052205460ff165b9392505050565b6007546001600160a01b031633146125f05760405162461bcd60e51b8152600401610f3d90613ca3565b6001600160a01b0381166126165760405162461bcd60e51b8152600401610f3d906143d6565b6115fb81613039565b600260085414156126425760405162461bcd60e51b8152600401610f3d90613a2f565b60026008556104ee546126599062093a8090613b41565b42118015612682575062093a80806104ee546126759190613b41565b61267f9190613b41565b42105b61269e5760405162461bcd60e51b8152600401610f3d90614043565b6126b46000546001600160801b03166127101490565b156126d15760405162461bcd60e51b8152600401610f3d90614085565b6000805b828110156127c95760008484838181106126f1576126f1613d88565b905060200201359050603260ff1681101561270c57506127b7565b3361271682611a82565b6001600160a01b03161461273c5760405162461bcd60e51b8152600401610f3d9061443e565b6103b481612710811061275157612751613d88565b602081049091015460ff601f9092166101000a9004166127b55761277c66b1a2bc2ec5000084613b41565b925060016103b482612710811061279557612795613d88565b602091828204019190066101000a81548160ff0219169083151502179055505b505b806127c181613d9e565b9150506126d5565b50600081116127ea5760405162461bcd60e51b8152600401610f3d906140c7565b604051600090339083908381818185875af1925050503d806000811461282c576040519150601f19603f3d011682016040523d82523d6000602084013e612831565b606091505b50509050806128525760405162461bcd60e51b8152600401610f3d90613d78565b505060016008555050565b6007546001600160a01b031633146128875760405162461bcd60e51b8152600401610f3d90613ca3565b6001600160a01b031660009081526104f160205260409020805460ff19811660ff90911615179055565b61014281612710811061126c57600080fd5b600080546001600160801b031682108015610d63575050600090815260036020526040902054600160e01b900460ff161590565b600082815260056020526040808220805473ffffffffffffffffffffffffffffffffffffffff19166001600160a01b0387811691821790925591518593918516917f8c5be1e5ebec7d5bd14f71427d1e84f3dd0314c0f7b2291e5b200ac8c7c3b92591a4505050565b60008160008151811061297557612975613d88565b602002602001015190506000612992612710836108c69190614464565b90505b6001600160a01b03811660009081526104f960205260409020541515806129de5750601e6129c561271084614464565b101580156129de575060326129dc61271084614464565b105b15612a005760019190911c906129f96108c661271084614464565b9050612995565b6104fa8054600181019091557f8578dec3a67e7958cbaf1c107c9cc5bc02ef32c21e168feb34624eda0e7c58ae01805473ffffffffffffffffffffffffffffffffffffffff19166001600160a01b03831690811790915560008581526104fb60208181526040808420548585526104f9835281852081905589855292909152519192918381818185875af1925050503d8060008114612abb576040519150601f19603f3d011682016040523d82523d6000602084013e612ac0565b606091505b5050905080612ae15760405162461bcd60e51b8152600401610f3d906144aa565b5050505050565b6000612af382612efc565b80519091506000906001600160a01b0316336001600160a01b03161480612b2157508151612b2190336124b2565b80612b3c575033612b3184610dfb565b6001600160a01b0316145b905080612b75576040517f59c896be00000000000000000000000000000000000000000000000000000000815260040160405180910390fd5b846001600160a01b031682600001516001600160a01b031614612bc4576040517fa114810000000000000000000000000000000000000000000000000000000000815260040160405180910390fd5b6001600160a01b038416612c04576040517fea553b3400000000000000000000000000000000000000000000000000000000815260040160405180910390fd5b612c1460008484600001516128f7565b6001600160a01b038581166000908152600460209081526040808320805467ffffffffffffffff1980821667ffffffffffffffff92831660001901831617909255898616808652838620805493841693831660019081018416949094179055898652600390945282852080546001600160e01b031916909417600160a01b429092169190910217909255908601808352912054909116612d09576000546001600160801b0316811015612d09578251600082815260036020908152604090912080549186015167ffffffffffffffff16600160a01b026001600160e01b03199092166001600160a01b03909316929092171790555b5082846001600160a01b0316866001600160a01b03167fddf252ad1be2c89b69c2b068fc378daa952ba7f163c4a11628f55a4df523b3ef60405160405180910390a4612ae1565b60208110612d705760405162461bcd60e51b8152600401610f3d90614512565b60008133344244604051602001612d8b959493929190614550565b60405160208183030381529060405280519060200120905060005b82811015612e655760008054612dc69083906001600160801b0316613b41565b9050828260208110612dda57612dda613d88565b1a6009826127108110612def57612def613d88565b602091828204019190066101000a81548160ff021916908360ff160217905550600281612e1c9190614464565b1561027b826127108110612e3257612e32613d88565b602091828204019190066101000a81548160ff021916908315150217905550508080612e5d90613d9e565b915050612da6565b50610f1383836131ca565b426201518062093a806104ee54612e879190613b41565b612e919190613b41565b118015612ec757506104ed5461251c61ffff909116101580612ec75750612ebc61251c61271061459a565b6104ed5461ffff1611155b15611b42576104fc80547fffffffffffffffffffffffffffffffffffffffffffffffffffffffffff00ffff1662010000179055565b60408051606081018252600080825260208201819052918101829052905482906001600160801b031681101561300757600081815260036020908152604091829020825160608101845290546001600160a01b0381168252600160a01b810467ffffffffffffffff1692820192909252600160e01b90910460ff161515918101829052906130055780516001600160a01b031615612f9b579392505050565b5060001901600081815260036020908152604091829020825160608101845290546001600160a01b038116808352600160a01b820467ffffffffffffffff1693830193909352600160e01b900460ff1615159281019290925215613000579392505050565b612f9b565b505b6040517fdf2d9b4200000000000000000000000000000000000000000000000000000000815260040160405180910390fd5b600780546001600160a01b0383811673ffffffffffffffffffffffffffffffffffffffff19831681179093556040519116919082907f8be0079c531659141344cd1fd0a4f28419497f9722a3daafe3b4186f6b6457e090600090a35050565b60006001600160a01b0384163b156131be576040517f150b7a020000000000000000000000000000000000000000000000000000000081526001600160a01b0385169063150b7a02906130f59033908990889088906004016145b1565b6020604051808303816000875af1925050508015613130575060408051601f3d908101601f1916820190925261312d918101906145f6565b60015b61318b573d80801561315e576040519150601f19603f3d011682016040523d82523d6000602084013e613163565b606091505b508051613183576040516368d2bf6b60e11b815260040160405180910390fd5b805181602001fd5b6001600160e01b0319167f150b7a02000000000000000000000000000000000000000000000000000000001490506131c2565b5060015b949350505050565b611316828260405180602001604052806000815250610f1383838360016000546001600160801b03166001600160a01b038516613233576040517f2e07630000000000000000000000000000000000000000000000000000000000815260040160405180910390fd5b8361326a576040517fb562e8dd00000000000000000000000000000000000000000000000000000000815260040160405180910390fd5b6001600160a01b038516600081815260046020908152604080832080547fffffffffffffffffffffffffffffffff00000000000000000000000000000000811667ffffffffffffffff8083168c0181169182176801000000000000000067ffffffffffffffff1990941690921783900481168c018116909202179091558584526003909252822080546001600160e01b031916909317600160a01b42909216919091021790915581905b858110156133955760405182906001600160a01b038916906000907fddf252ad1be2c89b69c2b068fc378daa952ba7f163c4a11628f55a4df523b3ef908290a483801561336b57506133696000888488613098565b155b15613389576040516368d2bf6b60e11b815260040160405180910390fd5b60019182019101613314565b50600080547fffffffffffffffffffffffffffffffff00000000000000000000000000000000166001600160801b0392909216919091179055612ae1565b805b81146115fb57600080fd5b8035610d63816133d3565b60006020828403121561340057613400600080fd5b60006131c284846133e0565b805b82525050565b60208101610d63828461340c565b6001600160e01b031981166133d5565b8035610d6381613422565b60006020828403121561345257613452600080fd5b60006131c28484613432565b80151561340e565b60208101610d63828461345e565b60ff811661340e565b60208101610d638284613474565b60005b838110156134a657818101518382015260200161348e565b838111156113d85750506000910152565b60006134c1825190565b8084526020840193506134d881856020860161348b565b601f01601f19169290920192915050565b602080825281016125bf81846134b7565b60006001600160a01b038216610d63565b61340e816134fa565b60208101610d63828461350b565b61ffff811661340e565b60208101610d638284613522565b6133d5816134fa565b8035610d638161353a565b6000806040838503121561356457613564600080fd5b60006135708585613543565b9250506020613581858286016133e0565b9150509250929050565b6000602082840312156135a0576135a0600080fd5b60006131c28484613543565b634e487b7160e01b600052604160045260246000fd5b601f19601f830116810181811067ffffffffffffffff821117156135e8576135e86135ac565b6040525050565b60006135fa60405190565b905061360682826135c2565b919050565b600067ffffffffffffffff821115613625576136256135ac565b5060209081020190565b600061364261363d8461360b565b6135ef565b8381529050602080820190840283018581111561366157613661600080fd5b835b818110156136835761367587826133e0565b835260209283019201613663565b5050509392505050565b600082601f8301126136a1576136a1600080fd5b81356131c284826020860161362f565b600080604083850312156136c7576136c7600080fd5b60006136d385856133e0565b925050602083013567ffffffffffffffff8111156136f3576136f3600080fd5b6135818582860161368d565b60008060006060848603121561371757613717600080fd5b60006137238686613543565b935050602061373486828701613543565b9250506040613745868287016133e0565b9150509250925092565b60008083601f84011261376457613764600080fd5b50813567ffffffffffffffff81111561377f5761377f600080fd5b60208301915083602082028301111561379a5761379a600080fd5b9250929050565b600080602083850312156137b7576137b7600080fd5b823567ffffffffffffffff8111156137d1576137d1600080fd5b6137dd8582860161374f565b92509250509250929050565b8015156133d5565b8035610d63816137e9565b6000806040838503121561381257613812600080fd5b600061381e8585613543565b9250506020613581858286016137f1565b600067ffffffffffffffff821115613849576138496135ac565b601f19601f83011660200192915050565b82818337506000910152565b600061387461363d8461382f565b90508281526020810184848401111561388f5761388f600080fd5b61389a84828561385a565b509392505050565b600082601f8301126138b6576138b6600080fd5b81356131c2848260208601613866565b600080600080608085870312156138df576138df600080fd5b60006138eb8787613543565b94505060206138fc87828801613543565b935050604061390d878288016133e0565b925050606085013567ffffffffffffffff81111561392d5761392d600080fd5b613939878288016138a2565b91505092959194509250565b6bffffffffffffffffffffffff81166133d5565b8035610d6381613945565b60006020828403121561397957613979600080fd5b60006131c28484613959565b6000806040838503121561399b5761399b600080fd5b60006139a78585613543565b925050602061358185828601613543565b634e487b7160e01b600052602260045260246000fd5b6002810460018216806139e257607f821691505b602082108114156139f5576139f56139b8565b50919050565b601f8152602081017f5265656e7472616e637947756172643a207265656e7472616e742063616c6c00815290505b60200190565b60208082528101610d63816139fb565b600f8152602081017f44726177206e6f7420616374697665000000000000000000000000000000000081529050613a29565b60208082528101610d6381613a3f565b601a8152602081017f436f2d426f747320617265206e6f74206d696e746564206f757400000000000081529050613a29565b60208082528101610d6381613a81565b634e487b7160e01b600052601160045260246000fd5b60ff8116905060ff8216915060008260ff03821115613afa57613afa613ac3565b500190565b60128152602081017f44726177206c696d69742072656163686564000000000000000000000000000081529050613a29565b60208082528101610d6381613aff565b60008219821115613afa57613afa613ac3565b60208082527f44726177732074616b6520706c616365206f6e636520706572206d696e7574659101908152613a29565b60208082528101610d6381613b54565b61ffff81169050600061ffff821415613baf57613baf613ac3565b5060010190565b67ffffffffffffffff811661340e565b6000610d6382613bd4565b90565b61ffff1690565b61340e81613bc6565b600063ffffffff8216610d63565b61340e81613be4565b60a08101613c09828861340c565b613c166020830187613bb6565b613c236040830186613bdb565b613c306060830185613bf2565b613c3d6080830184613bf2565b9695505050505050565b8051610d63816133d3565b600060208284031215613c6757613c67600080fd5b60006131c28484613c47565b60208082527f4f776e61626c653a2063616c6c6572206973206e6f7420746865206f776e65729101908152613a29565b60208082528101610d6381613c73565b60408101613cc1828561350b565b6125bf602083018461350b565b60408101613cc18285613bb6565b602e8152602081017f4465762063616e6e6f74207769746864726177206265666f726520746865206581527f6e64206f66207468652067616d65000000000000000000000000000000000000602082015290505b60400190565b60208082528101610d6381613cdc565b60118152602081017f5769746864726177616c206661696c656400000000000000000000000000000081529050613a29565b60208082528101610d6381613d46565b634e487b7160e01b600052603260045260246000fd5b6000600019821415613baf57613baf613ac3565b601c8152602081017f4f6e6c79206f776e65722063616e20746f67676c65207374617475730000000081529050613a29565b60208082528101610d6381613db2565b60148152602081017f5075626c69632073616c65206e6f74206f70656e00000000000000000000000081529050613a29565b60208082528101610d6381613df4565b6000816000190483118215151615613e5057613e50613ac3565b500290565b60148152602081017f507269636520646f6573206e6f74206d6174636800000000000000000000000081529050613a29565b60208082528101610d6381613e55565b60358152602081017f546865726520617265206e6f7420656e6f75676820436f2d426f7473206c656681527f7420746f206d696e74207468617420616d6f756e74000000000000000000000060208201529050613d30565b60208082528101610d6381613e97565b603b8152602081017f436f2d426f74733a2074686520726571756573746564207175616e746974792081527f6578636565647320746865206d6178696d756d20616c6c6f776564000000000060208201529050613d30565b60208082528101610d6381613eff565b601b8152602081017f4f6e6c79206f776e65722063616e20746f67676c6520636f6c6f72000000000081529050613a29565b60208082528101610d6381613f67565b60288152602081017f546f67676c696e6720636f6c6f727320696e2074776f20646966666572656e7481527f20636f6c6f72732100000000000000000000000000000000000000000000000060208201529050613d30565b60208082528101610d6381613fa9565b60168152602081017f526566756e6420706572696f64206e6f74206f70656e0000000000000000000081529050613a29565b60208082528101610d6381614011565b60168152602081017f436f2d426f747320617265206d696e746564206f75740000000000000000000081529050613a29565b60208082528101610d6381614053565b60148152602081017f4e6f20436f2d426f747320746f20726566756e6400000000000000000000000081529050613a29565b60208082528101610d6381614095565b60318152602081017f5175616e74697479206578636565647320666f756e6465727320616e6420676981527f7665617761797320616c6c6f77616e636500000000000000000000000000000060208201529050613d30565b60208082528101610d63816140d7565b60278152602081017f4552433732313a2055524920717565727920666f72206e6f6e6578697374656e81527f7420746f6b656e0000000000000000000000000000000000000000000000000060208201529050613d30565b60208082528101610d638161413f565b608081016141b5828761340c565b6141c26020830186613474565b6141cf604083018561345e565b6141dc606083018461345e565b95945050505050565b60006141f361363d8461382f565b90508281526020810184848401111561420e5761420e600080fd5b61389a84828561348b565b600082601f83011261422d5761422d600080fd5b81516131c28482602086016141e5565b60006020828403121561425257614252600080fd5b815167ffffffffffffffff81111561426c5761426c600080fd5b6131c284828501614219565b67ffffffffffffffff81166133d5565b8051610d6381614278565b6000602082840312156142a8576142a8600080fd5b60006131c28484614288565b60208101610d638284613bb6565b6000610d63613bd16bffffffffffffffffffffffff841681565b61340e816142c2565b606081016142f3828661350b565b61430060208301856142dc565b81810360408301526141dc81846134b7565b8051610d63816137e9565b60006020828403121561433257614332600080fd5b60006131c28484614312565b6000610d63826134fa565b6133d58161433e565b8051610d6381614349565b60006020828403121561437257614372600080fd5b60006131c28484614352565b60268152602081017f4f776e61626c653a206e6577206f776e657220697320746865207a65726f206181527f646472657373000000000000000000000000000000000000000000000000000060208201529050613d30565b60208082528101610d638161437e565b60348152602081017f596f752063616e6e6f7420636c61696d206120726566756e6420666f7220612081527f746f6b656e20796f7520646f206e6f74206f776e00000000000000000000000060208201529050613d30565b60208082528101610d63816143e6565b634e487b7160e01b600052601260045260246000fd5b6000826144735761447361444e565b500690565b60108152602081017f5472616e73666572206661696c65642e0000000000000000000000000000000081529050613a29565b60208082528101610d6381614478565b60258152602081017f546f6f206d616e7920436f2d426f747320746f206d696e7420696e206f6e652081527f626174636800000000000000000000000000000000000000000000000000000060208201529050613d30565b60208082528101610d63816144ba565b8061340e565b6000610d638260601b90565b6000610d6382614528565b61340e61454b826134fa565b614534565b61455a8187614522565b602001614567818661453f565b6014016145748185614522565b6020016145818184614522565b60200161458e8183614522565b60200195945050505050565b6000828210156145ac576145ac613ac3565b500390565b608081016145bf828761350b565b6145cc602083018661350b565b6145d9604083018561340c565b8181036060830152613c3d81846134b7565b8051610d6381613422565b60006020828403121561460b5761460b600080fd5b60006131c284846145eb56fea264697066735822122072d886b7ec0e6853cbdcdc17d8027d8245d2c2f0f97616f7ac9c5356f6d323fe64736f6c634300080c0033",
  "devdoc": {
    "kind": "dev",
    "methods": {
      "approve(address,uint256)": {
        "details": "See {IERC721-approve}."
      },
      "balanceOf(address)": {
        "details": "See {IERC721-balanceOf}."
      },
      "getApproved(uint256)": {
        "details": "See {IERC721-getApproved}."
      },
      "isApprovedForAll(address,address)": {
        "details": "Modified for opensea and looksrare pre-approve."
      },
      "name()": {
        "details": "See {IERC721Metadata-name}."
      },
      "owner()": {
        "details": "Returns the address of the current owner."
      },
      "ownerOf(uint256)": {
        "details": "See {IERC721-ownerOf}."
      },
      "renounceOwnership()": {
        "details": "Leaves the contract without owner. It will not be possible to call `onlyOwner` functions anymore. Can only be called by the current owner. NOTE: Renouncing ownership will leave the contract without an owner, thereby removing any functionality that is only available to the owner."
      },
      "safeTransferFrom(address,address,uint256)": {
        "details": "See {IERC721-safeTransferFrom}."
      },
      "safeTransferFrom(address,address,uint256,bytes)": {
        "details": "See {IERC721-safeTransferFrom}."
      },
      "setApprovalForAll(address,bool)": {
        "details": "See {IERC721-setApprovalForAll}."
      },
      "supportsInterface(bytes4)": {
        "details": "See {IERC165-supportsInterface}."
      },
      "symbol()": {
        "details": "See {IERC721Metadata-symbol}."
      },
      "tokenByIndex(uint256)": {
        "details": "See {IERC721Enumerable-tokenByIndex}. This read function is O(totalSupply). If calling from a separate contract, be sure to test gas first. It may also degrade with extremely large collection sizes (e.g >> 10000), test for your use case."
      },
      "tokenOfOwnerByIndex(address,uint256)": {
        "details": "See {IERC721Enumerable-tokenOfOwnerByIndex}. This read function is O(totalSupply). If calling from a separate contract, be sure to test gas first. It may also degrade with extremely large collection sizes (e.g >> 10000), test for your use case."
      },
      "totalSupply()": {
        "details": "See {IERC721Enumerable-totalSupply}."
      },
      "transferFrom(address,address,uint256)": {
        "details": "See {IERC721-transferFrom}."
      },
      "transferOwnership(address)": {
        "details": "Transfers ownership of the contract to a new account (`newOwner`). Can only be called by the current owner."
      }
    },
    "version": 1
  },
  "userdoc": {
    "kind": "user",
    "methods": {
      "flipProxyState(address)": {
        "notice": "Approve the communication and interaction with cross-collection interactions."
      },
      "setLooksrare(address)": {
        "notice": "Set looksrare to `looksrare_`."
      },
      "setOpensea(address)": {
        "notice": "Set opensea to `opensea_`."
      }
    },
    "version": 1
  },
  "storageLayout": {
    "storage": [
      {
        "astId": 8178,
        "contract": "contracts/co-bots/CoBots.sol:CoBots",
        "label": "_currentIndex",
        "offset": 0,
        "slot": "0",
        "type": "t_uint128"
      },
      {
        "astId": 8180,
        "contract": "contracts/co-bots/CoBots.sol:CoBots",
        "label": "_burnCounter",
        "offset": 16,
        "slot": "0",
        "type": "t_uint128"
      },
      {
        "astId": 8182,
        "contract": "contracts/co-bots/CoBots.sol:CoBots",
        "label": "_name",
        "offset": 0,
        "slot": "1",
        "type": "t_string_storage"
      },
      {
        "astId": 8184,
        "contract": "contracts/co-bots/CoBots.sol:CoBots",
        "label": "_symbol",
        "offset": 0,
        "slot": "2",
        "type": "t_string_storage"
      },
      {
        "astId": 8189,
        "contract": "contracts/co-bots/CoBots.sol:CoBots",
        "label": "_ownerships",
        "offset": 0,
        "slot": "3",
        "type": "t_mapping(t_uint256,t_struct(TokenOwnership)8169_storage)"
      },
      {
        "astId": 8194,
        "contract": "contracts/co-bots/CoBots.sol:CoBots",
        "label": "_addressData",
        "offset": 0,
        "slot": "4",
        "type": "t_mapping(t_address,t_struct(AddressData)8176_storage)"
      },
      {
        "astId": 8198,
        "contract": "contracts/co-bots/CoBots.sol:CoBots",
        "label": "_tokenApprovals",
        "offset": 0,
        "slot": "5",
        "type": "t_mapping(t_uint256,t_address)"
      },
      {
        "astId": 8204,
        "contract": "contracts/co-bots/CoBots.sol:CoBots",
        "label": "_operatorApprovals",
        "offset": 0,
        "slot": "6",
        "type": "t_mapping(t_address,t_mapping(t_address,t_bool))"
      },
      {
        "astId": 4185,
        "contract": "contracts/co-bots/CoBots.sol:CoBots",
        "label": "_owner",
        "offset": 0,
        "slot": "7",
        "type": "t_address"
      },
      {
        "astId": 4293,
        "contract": "contracts/co-bots/CoBots.sol:CoBots",
        "label": "_status",
        "offset": 0,
        "slot": "8",
        "type": "t_uint256"
      },
      {
        "astId": 5140,
        "contract": "contracts/co-bots/CoBots.sol:CoBots",
        "label": "coBotsSeeds",
        "offset": 0,
        "slot": "9",
        "type": "t_array(t_uint8)10000_storage"
      },
      {
        "astId": 5144,
        "contract": "contracts/co-bots/CoBots.sol:CoBots",
        "label": "coBotsStatusDisabled",
        "offset": 0,
        "slot": "322",
        "type": "t_array(t_bool)10000_storage"
      },
      {
        "astId": 5148,
        "contract": "contracts/co-bots/CoBots.sol:CoBots",
        "label": "coBotsColors",
        "offset": 0,
        "slot": "635",
        "type": "t_array(t_bool)10000_storage"
      },
      {
        "astId": 5152,
        "contract": "contracts/co-bots/CoBots.sol:CoBots",
        "label": "coBotsRefunded",
        "offset": 0,
        "slot": "948",
        "type": "t_array(t_bool)10000_storage"
      },
      {
        "astId": 5155,
        "contract": "contracts/co-bots/CoBots.sol:CoBots",
        "label": "coBotsColorAgreement",
        "offset": 0,
        "slot": "1261",
        "type": "t_uint16"
      },
      {
        "astId": 5157,
        "contract": "contracts/co-bots/CoBots.sol:CoBots",
        "label": "publicSaleStartTimestamp",
        "offset": 0,
        "slot": "1262",
        "type": "t_uint256"
      },
      {
        "astId": 5245,
        "contract": "contracts/co-bots/CoBots.sol:CoBots",
        "label": "opensea",
        "offset": 0,
        "slot": "1263",
        "type": "t_address"
      },
      {
        "astId": 5247,
        "contract": "contracts/co-bots/CoBots.sol:CoBots",
        "label": "looksrare",
        "offset": 0,
        "slot": "1264",
        "type": "t_address"
      },
      {
        "astId": 5251,
        "contract": "contracts/co-bots/CoBots.sol:CoBots",
        "label": "proxyToApproved",
        "offset": 0,
        "slot": "1265",
        "type": "t_mapping(t_address,t_bool)"
      },
      {
        "astId": 5336,
        "contract": "contracts/co-bots/CoBots.sol:CoBots",
        "label": "renderingContractAddress",
        "offset": 0,
        "slot": "1266",
        "type": "t_address"
      },
      {
        "astId": 5339,
        "contract": "contracts/co-bots/CoBots.sol:CoBots",
        "label": "renderer",
        "offset": 0,
        "slot": "1267",
        "type": "t_contract(ICoBotsRenderer)7792"
      },
      {
        "astId": 5892,
        "contract": "contracts/co-bots/CoBots.sol:CoBots",
        "label": "COORDINATOR",
        "offset": 0,
        "slot": "1268",
        "type": "t_contract(VRFCoordinatorV2Interface)4116"
      },
      {
        "astId": 5895,
        "contract": "contracts/co-bots/CoBots.sol:CoBots",
        "label": "LINKTOKEN",
        "offset": 0,
        "slot": "1269",
        "type": "t_contract(LinkTokenInterface)4003"
      },
      {
        "astId": 5897,
        "contract": "contracts/co-bots/CoBots.sol:CoBots",
        "label": "gasKeyHash",
        "offset": 0,
        "slot": "1270",
        "type": "t_bytes32"
      },
      {
        "astId": 5899,
        "contract": "contracts/co-bots/CoBots.sol:CoBots",
        "label": "lastDrawTimestamp",
        "offset": 0,
        "slot": "1271",
        "type": "t_uint256"
      },
      {
        "astId": 5901,
        "contract": "contracts/co-bots/CoBots.sol:CoBots",
        "label": "s_subId",
        "offset": 0,
        "slot": "1272",
        "type": "t_uint64"
      },
      {
        "astId": 5905,
        "contract": "contracts/co-bots/CoBots.sol:CoBots",
        "label": "prizePerAddress",
        "offset": 0,
        "slot": "1273",
        "type": "t_mapping(t_address,t_uint256)"
      },
      {
        "astId": 5908,
        "contract": "contracts/co-bots/CoBots.sol:CoBots",
        "label": "winners",
        "offset": 0,
        "slot": "1274",
        "type": "t_array(t_address)dyn_storage"
      },
      {
        "astId": 5912,
        "contract": "contracts/co-bots/CoBots.sol:CoBots",
        "label": "prizePerDraw",
        "offset": 0,
        "slot": "1275",
        "type": "t_mapping(t_uint256,t_uint256)"
      },
      {
        "astId": 5914,
        "contract": "contracts/co-bots/CoBots.sol:CoBots",
        "label": "drawCount",
        "offset": 0,
        "slot": "1276",
        "type": "t_uint16"
      },
      {
        "astId": 5916,
        "contract": "contracts/co-bots/CoBots.sol:CoBots",
        "label": "cooperativeRaffleEnabled",
        "offset": 2,
        "slot": "1276",
        "type": "t_bool"
      }
    ],
    "types": {
      "t_address": {
        "encoding": "inplace",
        "label": "address",
        "numberOfBytes": "20"
      },
      "t_array(t_address)dyn_storage": {
        "base": "t_address",
        "encoding": "dynamic_array",
        "label": "address[]",
        "numberOfBytes": "32"
      },
      "t_array(t_bool)10000_storage": {
        "base": "t_bool",
        "encoding": "inplace",
        "label": "bool[10000]",
        "numberOfBytes": "10016"
      },
      "t_array(t_uint8)10000_storage": {
        "base": "t_uint8",
        "encoding": "inplace",
        "label": "uint8[10000]",
        "numberOfBytes": "10016"
      },
      "t_bool": {
        "encoding": "inplace",
        "label": "bool",
        "numberOfBytes": "1"
      },
      "t_bytes32": {
        "encoding": "inplace",
        "label": "bytes32",
        "numberOfBytes": "32"
      },
      "t_contract(ICoBotsRenderer)7792": {
        "encoding": "inplace",
        "label": "contract ICoBotsRenderer",
        "numberOfBytes": "20"
      },
      "t_contract(LinkTokenInterface)4003": {
        "encoding": "inplace",
        "label": "contract LinkTokenInterface",
        "numberOfBytes": "20"
      },
      "t_contract(VRFCoordinatorV2Interface)4116": {
        "encoding": "inplace",
        "label": "contract VRFCoordinatorV2Interface",
        "numberOfBytes": "20"
      },
      "t_mapping(t_address,t_bool)": {
        "encoding": "mapping",
        "key": "t_address",
        "label": "mapping(address => bool)",
        "numberOfBytes": "32",
        "value": "t_bool"
      },
      "t_mapping(t_address,t_mapping(t_address,t_bool))": {
        "encoding": "mapping",
        "key": "t_address",
        "label": "mapping(address => mapping(address => bool))",
        "numberOfBytes": "32",
        "value": "t_mapping(t_address,t_bool)"
      },
      "t_mapping(t_address,t_struct(AddressData)8176_storage)": {
        "encoding": "mapping",
        "key": "t_address",
        "label": "mapping(address => struct ERC721A.AddressData)",
        "numberOfBytes": "32",
        "value": "t_struct(AddressData)8176_storage"
      },
      "t_mapping(t_address,t_uint256)": {
        "encoding": "mapping",
        "key": "t_address",
        "label": "mapping(address => uint256)",
        "numberOfBytes": "32",
        "value": "t_uint256"
      },
      "t_mapping(t_uint256,t_address)": {
        "encoding": "mapping",
        "key": "t_uint256",
        "label": "mapping(uint256 => address)",
        "numberOfBytes": "32",
        "value": "t_address"
      },
      "t_mapping(t_uint256,t_struct(TokenOwnership)8169_storage)": {
        "encoding": "mapping",
        "key": "t_uint256",
        "label": "mapping(uint256 => struct ERC721A.TokenOwnership)",
        "numberOfBytes": "32",
        "value": "t_struct(TokenOwnership)8169_storage"
      },
      "t_mapping(t_uint256,t_uint256)": {
        "encoding": "mapping",
        "key": "t_uint256",
        "label": "mapping(uint256 => uint256)",
        "numberOfBytes": "32",
        "value": "t_uint256"
      },
      "t_string_storage": {
        "encoding": "bytes",
        "label": "string",
        "numberOfBytes": "32"
      },
      "t_struct(AddressData)8176_storage": {
        "encoding": "inplace",
        "label": "struct ERC721A.AddressData",
        "members": [
          {
            "astId": 8171,
            "contract": "contracts/co-bots/CoBots.sol:CoBots",
            "label": "balance",
            "offset": 0,
            "slot": "0",
            "type": "t_uint64"
          },
          {
            "astId": 8173,
            "contract": "contracts/co-bots/CoBots.sol:CoBots",
            "label": "numberMinted",
            "offset": 8,
            "slot": "0",
            "type": "t_uint64"
          },
          {
            "astId": 8175,
            "contract": "contracts/co-bots/CoBots.sol:CoBots",
            "label": "numberBurned",
            "offset": 16,
            "slot": "0",
            "type": "t_uint64"
          }
        ],
        "numberOfBytes": "32"
      },
      "t_struct(TokenOwnership)8169_storage": {
        "encoding": "inplace",
        "label": "struct ERC721A.TokenOwnership",
        "members": [
          {
            "astId": 8164,
            "contract": "contracts/co-bots/CoBots.sol:CoBots",
            "label": "addr",
            "offset": 0,
            "slot": "0",
            "type": "t_address"
          },
          {
            "astId": 8166,
            "contract": "contracts/co-bots/CoBots.sol:CoBots",
            "label": "startTimestamp",
            "offset": 20,
            "slot": "0",
            "type": "t_uint64"
          },
          {
            "astId": 8168,
            "contract": "contracts/co-bots/CoBots.sol:CoBots",
            "label": "burned",
            "offset": 28,
            "slot": "0",
            "type": "t_bool"
          }
        ],
        "numberOfBytes": "32"
      },
      "t_uint128": {
        "encoding": "inplace",
        "label": "uint128",
        "numberOfBytes": "16"
      },
      "t_uint16": {
        "encoding": "inplace",
        "label": "uint16",
        "numberOfBytes": "2"
      },
      "t_uint256": {
        "encoding": "inplace",
        "label": "uint256",
        "numberOfBytes": "32"
      },
      "t_uint64": {
        "encoding": "inplace",
        "label": "uint64",
        "numberOfBytes": "8"
      },
      "t_uint8": {
        "encoding": "inplace",
        "label": "uint8",
        "numberOfBytes": "1"
      }
    }
  }
}