{
  "address": "0x5D4584ca07F542EB66AE5c9A0E8c065e9772E30b",
  "abi": [
    {
      "inputs": [
        {
          "internalType": "address",
          "name": "_coBotsRenderer",
          "type": "address"
        }
      ],
      "stateMutability": "nonpayable",
      "type": "constructor"
    },
    {
      "inputs": [],
      "name": "WriteError",
      "type": "error"
    },
    {
      "anonymous": false,
      "inputs": [
        {
          "indexed": false,
          "internalType": "address",
          "name": "prevPointer",
          "type": "address"
        },
        {
          "indexed": false,
          "internalType": "address",
          "name": "newPointer",
          "type": "address"
        }
      ],
      "name": "CollectionChanged",
      "type": "event"
    },
    {
      "anonymous": false,
      "inputs": [
        {
          "indexed": false,
          "internalType": "address",
          "name": "_palette",
          "type": "address"
        }
      ],
      "name": "ColorPaletteChanged",
      "type": "event"
    },
    {
      "anonymous": false,
      "inputs": [
        {
          "indexed": true,
          "internalType": "address",
          "name": "previousOwner",
          "type": "address"
        },
        {
          "indexed": true,
          "internalType": "address",
          "name": "newOwner",
          "type": "address"
        }
      ],
      "name": "OwnershipTransferred",
      "type": "event"
    },
    {
      "inputs": [
        {
          "internalType": "uint256[10]",
          "name": "items",
          "type": "uint256[10]"
        }
      ],
      "name": "getCoBotAttributes",
      "outputs": [
        {
          "internalType": "string",
          "name": "",
          "type": "string"
        }
      ],
      "stateMutability": "view",
      "type": "function"
    },
    {
      "inputs": [
        {
          "internalType": "uint256[10]",
          "name": "items",
          "type": "uint256[10]"
        }
      ],
      "name": "getCoBotBytes",
      "outputs": [
        {
          "internalType": "bytes",
          "name": "",
          "type": "bytes"
        }
      ],
      "stateMutability": "view",
      "type": "function"
    },
    {
      "inputs": [
        {
          "internalType": "uint256",
          "name": "tokenId",
          "type": "uint256"
        },
        {
          "internalType": "uint8",
          "name": "seed",
          "type": "uint8"
        }
      ],
      "name": "getCoBotItems",
      "outputs": [
        {
          "internalType": "uint256[10]",
          "name": "",
          "type": "uint256[10]"
        }
      ],
      "stateMutability": "view",
      "type": "function"
    },
    {
      "inputs": [
        {
          "internalType": "uint256[10]",
          "name": "items",
          "type": "uint256[10]"
        }
      ],
      "name": "imageURI",
      "outputs": [
        {
          "internalType": "string",
          "name": "",
          "type": "string"
        }
      ],
      "stateMutability": "view",
      "type": "function"
    },
    {
      "inputs": [],
      "name": "owner",
      "outputs": [
        {
          "internalType": "address",
          "name": "",
          "type": "address"
        }
      ],
      "stateMutability": "view",
      "type": "function"
    },
    {
      "inputs": [],
      "name": "renounceOwnership",
      "outputs": [],
      "stateMutability": "nonpayable",
      "type": "function"
    },
    {
      "inputs": [
        {
          "components": [
            {
              "internalType": "bytes",
              "name": "traits",
              "type": "bytes"
            },
            {
              "internalType": "string[][]",
              "name": "traitNames",
              "type": "string[][]"
            },
            {
              "internalType": "string[]",
              "name": "characteristicNames",
              "type": "string[]"
            },
            {
              "internalType": "string",
              "name": "description",
              "type": "string"
            }
          ],
          "internalType": "struct CollectionEncoded",
          "name": "collection",
          "type": "tuple"
        }
      ],
      "name": "storeCollection",
      "outputs": [],
      "stateMutability": "nonpayable",
      "type": "function"
    },
    {
      "inputs": [
        {
          "internalType": "bytes",
          "name": "palette",
          "type": "bytes"
        }
      ],
      "name": "storePalette",
      "outputs": [],
      "stateMutability": "nonpayable",
      "type": "function"
    },
    {
      "inputs": [
        {
          "internalType": "uint256",
          "name": "tokenId",
          "type": "uint256"
        },
        {
          "internalType": "uint8",
          "name": "seed",
          "type": "uint8"
        }
      ],
      "name": "tokenURI",
      "outputs": [
        {
          "internalType": "string",
          "name": "",
          "type": "string"
        }
      ],
      "stateMutability": "view",
      "type": "function"
    },
    {
      "inputs": [
        {
          "internalType": "address",
          "name": "newOwner",
          "type": "address"
        }
      ],
      "name": "transferOwnership",
      "outputs": [],
      "stateMutability": "nonpayable",
      "type": "function"
    }
  ],
  "transactionHash": "0xe4f31c368afd3c78176deaceef19057bee11a8bed096cd5497f1f470614be16f",
  "args": [
    "0xAB23145aC706A2454cCAD3ED7c76569CAf3D3fAD"
  ],
  "numDeployments": 2,
  "solcInputHash": "8c3c15720fdb2ca28c850773cb6cc041",
  "bytecode": "0x60806040523480156200001157600080fd5b50604051620023d8380380620023d88339810160408190526200003491620000f3565b6200003f3362000069565b60018055600780546001600160a01b0319166001600160a01b039290921691909117905562000120565b600080546001600160a01b038381166001600160a01b0319831681178455604051919092169283917f8be0079c531659141344cd1fd0a4f28419497f9722a3daafe3b4186f6b6457e09190a35050565b60006001600160a01b0382165b92915050565b620000d781620000b9565b8114620000e357600080fd5b50565b8051620000c681620000cc565b6000602082840312156200010a576200010a600080fd5b6000620001188484620000e6565b949350505050565b6122a880620001306000396000f3fe608060405234801561001057600080fd5b50600436106100be5760003560e01c80638da5cb5b11610076578063ec71d0ff1161005b578063ec71d0ff14610168578063f2fde38b1461017b578063fad3492a1461018e57600080fd5b80638da5cb5b1461012f578063e50fe81e1461014857600080fd5b80635cc518ba116100a75780635cc518ba1461010157806365fafc0814610114578063715018a61461012757600080fd5b8063323cd367146100c35780634f31249b146100ec575b600080fd5b6100d66100d136600461143b565b6101a1565b6040516100e391906114bf565b60405180910390f35b6100ff6100fa36600461156e565b610428565b005b6100d661010f3660046115bd565b610496565b6100d661012236600461143b565b61057c565b6100ff6107a7565b6000546001600160a01b03166040516100e3919061161a565b61015b6101563660046115bd565b6107e6565b6040516100e39190611677565b6100d661017636600461143b565b610936565b6100ff61018936600461169a565b610efe565b6100ff61019c3660046118dc565b610f5a565b604080518082018252601381527f646174613a696d6167652f7376672b786d6c2c00000000000000000000000000602082015260075482517f480bc3c800000000000000000000000000000000000000000000000000000000815292516060936001600160a01b039092169163480bc3c89160048083019260009291908290030181865afa158015610237573d6000803e3d6000fd5b505050506040513d6000823e601f3d908101601f1916820160405261025f919081019061196f565b73F95E41C14C45798A8A60b20E8C92495C12416e6663999086e361028286610936565b6002546040517f657fb2e100000000000000000000000000000000000000000000000000000000815273A040dB259B37219C3C18e987BE9Bc871C73408019163657fb2e1916102dd916001600160a01b03169060040161161a565b600060405180830381865af41580156102fa573d6000803e3d6000fd5b505050506040513d6000823e601f3d908101601f191682016040526103229190810190611a3a565b6040518363ffffffff1660e01b815260040161033f929190611ae5565b600060405180830381865af415801561035c573d6000803e3d6000fd5b505050506040513d6000823e601f3d908101601f19168201604052610384919081019061196f565b600760009054906101000a90046001600160a01b03166001600160a01b0316636f5c723b6040518163ffffffff1660e01b8152600401600060405180830381865afa1580156103d7573d6000803e3d6000fd5b505050506040513d6000823e601f3d908101601f191682016040526103ff919081019061196f565b6040516020016104129493929190611b2c565b6040516020818303038152906040529050919050565b61043181611035565b6002805473ffffffffffffffffffffffffffffffffffffffff19166001600160a01b039290921691821790556040517f85b1f2b178b7000a8540a7f228e335a4d91d556bd54438839f6e821fede2b4a49161048b9161161a565b60405180910390a150565b606060006104a484846107e6565b90506104af816101a1565b6040517f6900a3ae00000000000000000000000000000000000000000000000000000000815260069073FD60cDD345feB6011fDeb4Dc3d69aD2319f8508C90636900a3ae90610502908990600401611b63565b600060405180830381865af415801561051f573d6000803e3d6000fd5b505050506040513d6000823e601f3d908101601f19168201604052610547919081019061196f565b6105508461057c565b6040516020016105639493929190611c3a565b6040516020818303038152906040529150505b92915050565b6040805160a081018252600681526008602082015260008183018190526007606080840191909152600960808401528351600580825260c082019095529093816020015b60608152602001906001900390816105c057905050905060005b60058110156106e95760048382600581106105f7576105f7611d8b565b602002015160ff168154811061060f5761060f611d8b565b90600052602060002001600584836005811061062d5761062d611d8b565b602002015160ff168154811061064557610645611d8b565b906000526020600020018685846005811061066257610662611d8b565b602002015160ff16600a811061067a5761067a611d8b565b60200201518154811061068f5761068f611d8b565b906000526020600020016040516020016106aa929190611da1565b6040516020818303038152906040528282815181106106cb576106cb611d8b565b602002602001018190525080806106e190611e46565b9150506105da565b506040517ffca1c0b9000000000000000000000000000000000000000000000000000000008152731FA6A2152871D5A4D1f56511110C9a353CA483399063fca1c0b99061073a908490600401611eb1565b600060405180830381865af4158015610757573d6000803e3d6000fd5b505050506040513d6000823e601f3d908101601f1916820160405261077f919081019061196f565b60405160200161078f9190611ed5565b60405160208183030381529060405292505050919050565b6000546001600160a01b031633146107da5760405162461bcd60e51b81526004016107d190611f61565b60405180910390fd5b6107e460006110b3565b565b6107ee611126565b6007546040517f47bf48f30000000000000000000000000000000000000000000000000000000081526000918291829182916001600160a01b03909116906347bf48f390610842908a908a90600401611f7a565b608060405180830381865afa15801561085f573d6000803e3d6000fd5b505050506040513d601f19601f820116820180604052508101906108839190611fa0565b9350935093509350610893611126565b828152600060208201526108a96103e88961201a565b6040820152600a6108bb60648a61201a565b6108c5919061202e565b6060820152600a6108d6818a61201a565b6108e0919061202e565b60808201526108f0600a8961202e565b60a082015260c0810185905260e0810182905261090e600288612046565b610919906002612053565b60ff16610100820152610120810193909352509095945050505050565b600354602082015160405163108e6af960e21b815260609273F95E41C14C45798A8A60b20E8C92495C12416e6692634239abe492610983926001600160a01b031691600191600401612095565b600060405180830381865af41580156109a0573d6000803e3d6000fd5b505050506040513d6000823e601f3d908101601f191682016040526109c8919081019061196f565b600354604080850151905163108e6af960e21b815273F95E41C14C45798A8A60b20E8C92495C12416e6692634239abe492610a15926001600160a01b039092169160029190600401612095565b600060405180830381865af4158015610a32573d6000803e3d6000fd5b505050506040513d6000823e601f3d908101601f19168201604052610a5a919081019061196f565b60038054606086015160405163108e6af960e21b815273F95E41C14C45798A8A60b20E8C92495C12416e6693634239abe493610aa4936001600160a01b0390911692600401612095565b600060405180830381865af4158015610ac1573d6000803e3d6000fd5b505050506040513d6000823e601f3d908101601f19168201604052610ae9919081019061196f565b600354608086015160405163108e6af960e21b815273F95E41C14C45798A8A60b20E8C92495C12416e6692634239abe492610b35926001600160a01b0390921691600491908201612095565b600060405180830381865af4158015610b52573d6000803e3d6000fd5b505050506040513d6000823e601f3d908101601f19168201604052610b7a919081019061196f565b60035460a087015160405163108e6af960e21b815273F95E41C14C45798A8A60b20E8C92495C12416e6692634239abe492610bc7926001600160a01b039092169160059190600401612095565b600060405180830381865af4158015610be4573d6000803e3d6000fd5b505050506040513d6000823e601f3d908101601f19168201604052610c0c919081019061196f565b60035460c088015160405163108e6af960e21b815273F95E41C14C45798A8A60b20E8C92495C12416e6692634239abe492610c59926001600160a01b039092169160069190600401612095565b600060405180830381865af4158015610c76573d6000803e3d6000fd5b505050506040513d6000823e601f3d908101601f19168201604052610c9e919081019061196f565b60035461012089015160405163108e6af960e21b815273F95E41C14C45798A8A60b20E8C92495C12416e6692634239abe492610cec926001600160a01b039092169160099190600401612095565b600060405180830381865af4158015610d09573d6000803e3d6000fd5b505050506040513d6000823e601f3d908101601f19168201604052610d31919081019061196f565b600354895160405163108e6af960e21b815273F95E41C14C45798A8A60b20E8C92495C12416e6692634239abe492610d7b926001600160a01b039092169160009190600401612095565b600060405180830381865af4158015610d98573d6000803e3d6000fd5b505050506040513d6000823e601f3d908101601f19168201604052610dc0919081019061196f565b60035460e08b015160405163108e6af960e21b815273F95E41C14C45798A8A60b20E8C92495C12416e6692634239abe492610e0d926001600160a01b039092169160079190600401612095565b600060405180830381865af4158015610e2a573d6000803e3d6000fd5b505050506040513d6000823e601f3d908101601f19168201604052610e52919081019061196f565b6003546101008c015160405163108e6af960e21b815273F95E41C14C45798A8A60b20E8C92495C12416e6692634239abe492610ea0926001600160a01b039092169160089190600401612095565b600060405180830381865af4158015610ebd573d6000803e3d6000fd5b505050506040513d6000823e601f3d908101601f19168201604052610ee5919081019061196f565b6040516020016104129a999897969594939291906120bd565b6000546001600160a01b03163314610f285760405162461bcd60e51b81526004016107d190611f61565b6001600160a01b038116610f4e5760405162461bcd60e51b81526004016107d190612142565b610f57816110b3565b50565b60035481516001600160a01b0390911690610f7490611035565b6003805473ffffffffffffffffffffffffffffffffffffffff19166001600160a01b039290921691909117905560408201518051610fba91600491602090910190611145565b506020808301518051610fd19260059201906111a2565b5060608201518051610feb916006916020909101906111fb565b506003546040517f2b6ca4cbda96534ab1e865e0e9686ed13f63f1ad6e54185bde7686f0ed726a5e916110299184916001600160a01b0316906121a3565b60405180910390a15050565b6000806110608360405160200161104c91906121c9565b604051602081830303815290604052611110565b90508051602082016000f091506001600160a01b0382166110ad576040517f08d4abb600000000000000000000000000000000000000000000000000000000815260040160405180910390fd5b50919050565b600080546001600160a01b0383811673ffffffffffffffffffffffffffffffffffffffff19831681178455604051919092169283917f8be0079c531659141344cd1fd0a4f28419497f9722a3daafe3b4186f6b6457e09190a35050565b6060815182604051602001610412929190612221565b604051806101400160405280600a906020820280368337509192915050565b828054828255906000526020600020908101928215611192579160200282015b8281111561119257825180516111829184916020909101906111fb565b5091602001919060010190611165565b5061119e92915061127b565b5090565b8280548282559060005260206000209081019282156111ef579160200282015b828111156111ef57825180516111df918491602090910190611145565b50916020019190600101906111c2565b5061119e929150611298565b82805461120790611b87565b90600052602060002090601f016020900481019282611229576000855561126f565b82601f1061124257805160ff191683800117855561126f565b8280016001018555821561126f579182015b8281111561126f578251825591602001919060010190611254565b5061119e9291506112b5565b8082111561119e57600061128f82826112ca565b5060010161127b565b8082111561119e5760006112ac8282611304565b50600101611298565b5b8082111561119e57600081556001016112b6565b5080546112d690611b87565b6000825580601f106112e6575050565b601f016020900490600052602060002090810190610f5791906112b5565b5080546000825590600052602060002090810190610f57919061127b565b634e487b7160e01b600052604160045260246000fd5b601f19601f830116810181811067ffffffffffffffff8211171561135e5761135e611322565b6040525050565b600061137060405190565b905061137c8282611338565b919050565b600067ffffffffffffffff82111561139b5761139b611322565b5060200290565b805b8114610f5757600080fd5b8035610576816113a2565b60006113cd6113c884611381565b611365565b905080602084028301858111156113e6576113e6600080fd5b835b81811015611408576113fa87826113af565b8352602092830192016113e8565b5050509392505050565b600082601f83011261142657611426600080fd5b600a6114338482856113ba565b949350505050565b6000610140828403121561145157611451600080fd5b60006114338484611412565b60005b83811015611478578181015183820152602001611460565b83811115611487576000848401525b50505050565b6000611497825190565b8084526020840193506114ae81856020860161145d565b601f01601f19169290920192915050565b602080825281016114d0818461148d565b9392505050565b600067ffffffffffffffff8211156114f1576114f1611322565b601f19601f83011660200192915050565b82818337506000910152565b600061151c6113c8846114d7565b90508281526020810184848401111561153757611537600080fd5b611542848285611502565b509392505050565b600082601f83011261155e5761155e600080fd5b813561143384826020860161150e565b60006020828403121561158357611583600080fd5b813567ffffffffffffffff81111561159d5761159d600080fd5b6114338482850161154a565b60ff81166113a4565b8035610576816115a9565b600080604083850312156115d3576115d3600080fd5b60006115df85856113af565b92505060206115f0858286016115b2565b9150509250929050565b60006001600160a01b038216610576565b611614816115fa565b82525050565b60208101610576828461160b565b80611614565b6116388282611628565b5060200190565b60200190565b600a8160005b8281101561167057815161165f868261162e565b95505060208201915060010161164b565b5050505050565b61014081016105768284611645565b6113a4816115fa565b803561057681611686565b6000602082840312156116af576116af600080fd5b6000611433848461168f565b600067ffffffffffffffff8211156116d5576116d5611322565b5060209081020190565b60006116ed6113c8846116bb565b8381529050602080820190840283018581111561170c5761170c600080fd5b835b8181101561140857803567ffffffffffffffff81111561173057611730600080fd5b850161173c888261154a565b8452506020928301920161170e565b600082601f83011261175f5761175f600080fd5b81356114338482602086016116df565b600061177d6113c8846116bb565b8381529050602080820190840283018581111561179c5761179c600080fd5b835b8181101561140857803567ffffffffffffffff8111156117c0576117c0600080fd5b85016117cc888261174b565b8452506020928301920161179e565b600082601f8301126117ef576117ef600080fd5b813561143384826020860161176f565b60006080828403121561181457611814600080fd5b61181e6080611365565b9050813567ffffffffffffffff81111561183a5761183a600080fd5b6118468482850161154a565b825250602082013567ffffffffffffffff81111561186657611866600080fd5b611872848285016117db565b602083015250604082013567ffffffffffffffff81111561189557611895600080fd5b6118a18482850161174b565b604083015250606082013567ffffffffffffffff8111156118c4576118c4600080fd5b6118d08482850161154a565b60608301525092915050565b6000602082840312156118f1576118f1600080fd5b813567ffffffffffffffff81111561190b5761190b600080fd5b611433848285016117ff565b60006119256113c8846114d7565b90508281526020810184848401111561194057611940600080fd5b61154284828561145d565b600082601f83011261195f5761195f600080fd5b8151611433848260208601611917565b60006020828403121561198457611984600080fd5b815167ffffffffffffffff81111561199e5761199e600080fd5b6114338482850161194b565b60006119b86113c8846116bb565b838152905060208082019084028301858111156119d7576119d7600080fd5b835b8181101561140857805167ffffffffffffffff8111156119fb576119fb600080fd5b8501611a07888261194b565b845250602092830192016119d9565b600082601f830112611a2a57611a2a600080fd5b81516114338482602086016119aa565b600060208284031215611a4f57611a4f600080fd5b815167ffffffffffffffff811115611a6957611a69600080fd5b61143384828501611a16565b60006114d0838361148d565b6000611a8b825190565b80845260208401935083602082028501611aa58560200190565b60005b84811015611ad95783830388528151611ac18482611a75565b93505060208201602098909801979150600101611aa8565b50909695505050505050565b60408082528101611af6818561148d565b905081810360208301526114338184611a81565b6000611b14825190565b611b2281856020860161145d565b9290920192915050565b611b368186611b0a565b9050611b428185611b0a565b9050611b4e8184611b0a565b9050611b5a8183611b0a565b95945050505050565b602081016105768284611628565b634e487b7160e01b600052602260045260246000fd5b600281046001821680611b9b57607f821691505b602082108114156110ad576110ad611b71565b60008154611bbb81611b87565b600182168015611bd25760018114611c0157611c31565b7fffffffffffffffffffffffffffffffffffffffffffffffffffffffffffffff00831686528186019350611c31565b60008581526020902060005b83811015611c2957815488820152600190910190602001611c0d565b505081860193505b50505092915050565b7f646174613a6170706c69636174696f6e2f6a736f6e2c000000000000000000008152601601611c89817f7b22696d616765223a20220000000000000000000000000000000000000000009052565b600b01611c968186611b0a565b601160f91b81529050600101611ccb817f2c226465736372697074696f6e223a20220000000000000000000000000000009052565b601101611cd88185611bae565b601160f91b81529050600101611d0d817f2c226e616d65223a2022436f2d426f74202300000000000000000000000000009052565b601201611d1a8184611b0a565b601160f91b81529050600101611d4f817f2c2261747472696275746573223a2000000000000000000000000000000000009052565b600f01611d5c8183611b0a565b7f7d00000000000000000000000000000000000000000000000000000000000000815260010195945050505050565b634e487b7160e01b600052603260045260246000fd5b7f7b2274726169745f74797065223a2022000000000000000000000000000000008152601001611dd18184611bae565b7f222c202276616c7565223a20220000000000000000000000000000000000000081529050600d01611e038183611bae565b7f227d00000000000000000000000000000000000000000000000000000000000081526002019392505050565b634e487b7160e01b600052601160045260246000fd5b60007fffffffffffffffffffffffffffffffffffffffffffffffffffffffffffffffff821415611e7857611e78611e30565b5060010190565b60018152602081017f2c000000000000000000000000000000000000000000000000000000000000008152905061163f565b60408082528101611ec28184611a81565b905081810360208301526114d081611e7f565b7f5b000000000000000000000000000000000000000000000000000000000000008152600101611f058183611b0a565b7f5d00000000000000000000000000000000000000000000000000000000000000815260010192915050565b60208082527f4f776e61626c653a2063616c6c6572206973206e6f7420746865206f776e6572910190815261163f565b6020808252810161057681611f31565b60ff8116611614565b60408101611f888285611628565b6114d06020830184611f71565b8051610576816113a2565b60008060008060808587031215611fb957611fb9600080fd5b6000611fc58787611f95565b9450506020611fd687828801611f95565b9350506040611fe787828801611f95565b9250506060611ff887828801611f95565b91505092959194509250565b634e487b7160e01b600052601260045260246000fd5b60008261202957612029612004565b500490565b815b915060008261204157612041612004565b500690565b60ff908116908216612030565b60ff8116905060ff8216915060008160ff048311821515161561207857612078611e30565b500290565b60006105766120898381565b90565b6116148161207d565b606081016120a3828661160b565b6120b0602083018561208c565b6114336040830184611628565b6120c7818c611b0a565b90506120d3818b611b0a565b90506120df818a611b0a565b90506120eb8189611b0a565b90506120f78188611b0a565b90506121038187611b0a565b905061210f8186611b0a565b905061211b8185611b0a565b90506121278184611b0a565b90506121338183611b0a565b9b9a5050505050505050505050565b6020808252810161057681602681527f4f776e61626c653a206e6577206f776e657220697320746865207a65726f206160208201527f6464726573730000000000000000000000000000000000000000000000000000604082015260600190565b604081016121b1828561160b565b6114d0602083018461160b565b600081525b60010190565b6121d2816121be565b90506105768183611b0a565b7f630000000000000000000000000000000000000000000000000000000000000081526121c3565b60006105768260e01b90565b61161463ffffffff8216612206565b61222a816121de565b90506122368184612212565b600401612266817f80600e6000396000f30000000000000000000000000000000000000000000000815260090190565b90506114d08183611b0a56fea26469706673582212206efd2c63e4c36815d3f8dfd25df64cfba52012ec6e5188f7b01c707eb772149c64736f6c634300080c0033",
  "deployedBytecode": "0x608060405234801561001057600080fd5b50600436106100be5760003560e01c80638da5cb5b11610076578063ec71d0ff1161005b578063ec71d0ff14610168578063f2fde38b1461017b578063fad3492a1461018e57600080fd5b80638da5cb5b1461012f578063e50fe81e1461014857600080fd5b80635cc518ba116100a75780635cc518ba1461010157806365fafc0814610114578063715018a61461012757600080fd5b8063323cd367146100c35780634f31249b146100ec575b600080fd5b6100d66100d136600461143b565b6101a1565b6040516100e391906114bf565b60405180910390f35b6100ff6100fa36600461156e565b610428565b005b6100d661010f3660046115bd565b610496565b6100d661012236600461143b565b61057c565b6100ff6107a7565b6000546001600160a01b03166040516100e3919061161a565b61015b6101563660046115bd565b6107e6565b6040516100e39190611677565b6100d661017636600461143b565b610936565b6100ff61018936600461169a565b610efe565b6100ff61019c3660046118dc565b610f5a565b604080518082018252601381527f646174613a696d6167652f7376672b786d6c2c00000000000000000000000000602082015260075482517f480bc3c800000000000000000000000000000000000000000000000000000000815292516060936001600160a01b039092169163480bc3c89160048083019260009291908290030181865afa158015610237573d6000803e3d6000fd5b505050506040513d6000823e601f3d908101601f1916820160405261025f919081019061196f565b73__$8dbeda65cfccd7ed7a91dea9e4074110db$__63999086e361028286610936565b6002546040517f657fb2e100000000000000000000000000000000000000000000000000000000815273__$75a5c6c1ddcd30c79038ef22d8e93ac41a$__9163657fb2e1916102dd916001600160a01b03169060040161161a565b600060405180830381865af41580156102fa573d6000803e3d6000fd5b505050506040513d6000823e601f3d908101601f191682016040526103229190810190611a3a565b6040518363ffffffff1660e01b815260040161033f929190611ae5565b600060405180830381865af415801561035c573d6000803e3d6000fd5b505050506040513d6000823e601f3d908101601f19168201604052610384919081019061196f565b600760009054906101000a90046001600160a01b03166001600160a01b0316636f5c723b6040518163ffffffff1660e01b8152600401600060405180830381865afa1580156103d7573d6000803e3d6000fd5b505050506040513d6000823e601f3d908101601f191682016040526103ff919081019061196f565b6040516020016104129493929190611b2c565b6040516020818303038152906040529050919050565b61043181611035565b6002805473ffffffffffffffffffffffffffffffffffffffff19166001600160a01b039290921691821790556040517f85b1f2b178b7000a8540a7f228e335a4d91d556bd54438839f6e821fede2b4a49161048b9161161a565b60405180910390a150565b606060006104a484846107e6565b90506104af816101a1565b6040517f6900a3ae00000000000000000000000000000000000000000000000000000000815260069073__$2a9b762fd8664b1aa3edd8569463e9cda4$__90636900a3ae90610502908990600401611b63565b600060405180830381865af415801561051f573d6000803e3d6000fd5b505050506040513d6000823e601f3d908101601f19168201604052610547919081019061196f565b6105508461057c565b6040516020016105639493929190611c3a565b6040516020818303038152906040529150505b92915050565b6040805160a081018252600681526008602082015260008183018190526007606080840191909152600960808401528351600580825260c082019095529093816020015b60608152602001906001900390816105c057905050905060005b60058110156106e95760048382600581106105f7576105f7611d8b565b602002015160ff168154811061060f5761060f611d8b565b90600052602060002001600584836005811061062d5761062d611d8b565b602002015160ff168154811061064557610645611d8b565b906000526020600020018685846005811061066257610662611d8b565b602002015160ff16600a811061067a5761067a611d8b565b60200201518154811061068f5761068f611d8b565b906000526020600020016040516020016106aa929190611da1565b6040516020818303038152906040528282815181106106cb576106cb611d8b565b602002602001018190525080806106e190611e46565b9150506105da565b506040517ffca1c0b900000000000000000000000000000000000000000000000000000000815273__$c94a70db6e173404880f68bb6708b44c9d$__9063fca1c0b99061073a908490600401611eb1565b600060405180830381865af4158015610757573d6000803e3d6000fd5b505050506040513d6000823e601f3d908101601f1916820160405261077f919081019061196f565b60405160200161078f9190611ed5565b60405160208183030381529060405292505050919050565b6000546001600160a01b031633146107da5760405162461bcd60e51b81526004016107d190611f61565b60405180910390fd5b6107e460006110b3565b565b6107ee611126565b6007546040517f47bf48f30000000000000000000000000000000000000000000000000000000081526000918291829182916001600160a01b03909116906347bf48f390610842908a908a90600401611f7a565b608060405180830381865afa15801561085f573d6000803e3d6000fd5b505050506040513d601f19601f820116820180604052508101906108839190611fa0565b9350935093509350610893611126565b828152600060208201526108a96103e88961201a565b6040820152600a6108bb60648a61201a565b6108c5919061202e565b6060820152600a6108d6818a61201a565b6108e0919061202e565b60808201526108f0600a8961202e565b60a082015260c0810185905260e0810182905261090e600288612046565b610919906002612053565b60ff16610100820152610120810193909352509095945050505050565b600354602082015160405163108e6af960e21b815260609273__$8dbeda65cfccd7ed7a91dea9e4074110db$__92634239abe492610983926001600160a01b031691600191600401612095565b600060405180830381865af41580156109a0573d6000803e3d6000fd5b505050506040513d6000823e601f3d908101601f191682016040526109c8919081019061196f565b600354604080850151905163108e6af960e21b815273__$8dbeda65cfccd7ed7a91dea9e4074110db$__92634239abe492610a15926001600160a01b039092169160029190600401612095565b600060405180830381865af4158015610a32573d6000803e3d6000fd5b505050506040513d6000823e601f3d908101601f19168201604052610a5a919081019061196f565b60038054606086015160405163108e6af960e21b815273__$8dbeda65cfccd7ed7a91dea9e4074110db$__93634239abe493610aa4936001600160a01b0390911692600401612095565b600060405180830381865af4158015610ac1573d6000803e3d6000fd5b505050506040513d6000823e601f3d908101601f19168201604052610ae9919081019061196f565b600354608086015160405163108e6af960e21b815273__$8dbeda65cfccd7ed7a91dea9e4074110db$__92634239abe492610b35926001600160a01b0390921691600491908201612095565b600060405180830381865af4158015610b52573d6000803e3d6000fd5b505050506040513d6000823e601f3d908101601f19168201604052610b7a919081019061196f565b60035460a087015160405163108e6af960e21b815273__$8dbeda65cfccd7ed7a91dea9e4074110db$__92634239abe492610bc7926001600160a01b039092169160059190600401612095565b600060405180830381865af4158015610be4573d6000803e3d6000fd5b505050506040513d6000823e601f3d908101601f19168201604052610c0c919081019061196f565b60035460c088015160405163108e6af960e21b815273__$8dbeda65cfccd7ed7a91dea9e4074110db$__92634239abe492610c59926001600160a01b039092169160069190600401612095565b600060405180830381865af4158015610c76573d6000803e3d6000fd5b505050506040513d6000823e601f3d908101601f19168201604052610c9e919081019061196f565b60035461012089015160405163108e6af960e21b815273__$8dbeda65cfccd7ed7a91dea9e4074110db$__92634239abe492610cec926001600160a01b039092169160099190600401612095565b600060405180830381865af4158015610d09573d6000803e3d6000fd5b505050506040513d6000823e601f3d908101601f19168201604052610d31919081019061196f565b600354895160405163108e6af960e21b815273__$8dbeda65cfccd7ed7a91dea9e4074110db$__92634239abe492610d7b926001600160a01b039092169160009190600401612095565b600060405180830381865af4158015610d98573d6000803e3d6000fd5b505050506040513d6000823e601f3d908101601f19168201604052610dc0919081019061196f565b60035460e08b015160405163108e6af960e21b815273__$8dbeda65cfccd7ed7a91dea9e4074110db$__92634239abe492610e0d926001600160a01b039092169160079190600401612095565b600060405180830381865af4158015610e2a573d6000803e3d6000fd5b505050506040513d6000823e601f3d908101601f19168201604052610e52919081019061196f565b6003546101008c015160405163108e6af960e21b815273__$8dbeda65cfccd7ed7a91dea9e4074110db$__92634239abe492610ea0926001600160a01b039092169160089190600401612095565b600060405180830381865af4158015610ebd573d6000803e3d6000fd5b505050506040513d6000823e601f3d908101601f19168201604052610ee5919081019061196f565b6040516020016104129a999897969594939291906120bd565b6000546001600160a01b03163314610f285760405162461bcd60e51b81526004016107d190611f61565b6001600160a01b038116610f4e5760405162461bcd60e51b81526004016107d190612142565b610f57816110b3565b50565b60035481516001600160a01b0390911690610f7490611035565b6003805473ffffffffffffffffffffffffffffffffffffffff19166001600160a01b039290921691909117905560408201518051610fba91600491602090910190611145565b506020808301518051610fd19260059201906111a2565b5060608201518051610feb916006916020909101906111fb565b506003546040517f2b6ca4cbda96534ab1e865e0e9686ed13f63f1ad6e54185bde7686f0ed726a5e916110299184916001600160a01b0316906121a3565b60405180910390a15050565b6000806110608360405160200161104c91906121c9565b604051602081830303815290604052611110565b90508051602082016000f091506001600160a01b0382166110ad576040517f08d4abb600000000000000000000000000000000000000000000000000000000815260040160405180910390fd5b50919050565b600080546001600160a01b0383811673ffffffffffffffffffffffffffffffffffffffff19831681178455604051919092169283917f8be0079c531659141344cd1fd0a4f28419497f9722a3daafe3b4186f6b6457e09190a35050565b6060815182604051602001610412929190612221565b604051806101400160405280600a906020820280368337509192915050565b828054828255906000526020600020908101928215611192579160200282015b8281111561119257825180516111829184916020909101906111fb565b5091602001919060010190611165565b5061119e92915061127b565b5090565b8280548282559060005260206000209081019282156111ef579160200282015b828111156111ef57825180516111df918491602090910190611145565b50916020019190600101906111c2565b5061119e929150611298565b82805461120790611b87565b90600052602060002090601f016020900481019282611229576000855561126f565b82601f1061124257805160ff191683800117855561126f565b8280016001018555821561126f579182015b8281111561126f578251825591602001919060010190611254565b5061119e9291506112b5565b8082111561119e57600061128f82826112ca565b5060010161127b565b8082111561119e5760006112ac8282611304565b50600101611298565b5b8082111561119e57600081556001016112b6565b5080546112d690611b87565b6000825580601f106112e6575050565b601f016020900490600052602060002090810190610f5791906112b5565b5080546000825590600052602060002090810190610f57919061127b565b634e487b7160e01b600052604160045260246000fd5b601f19601f830116810181811067ffffffffffffffff8211171561135e5761135e611322565b6040525050565b600061137060405190565b905061137c8282611338565b919050565b600067ffffffffffffffff82111561139b5761139b611322565b5060200290565b805b8114610f5757600080fd5b8035610576816113a2565b60006113cd6113c884611381565b611365565b905080602084028301858111156113e6576113e6600080fd5b835b81811015611408576113fa87826113af565b8352602092830192016113e8565b5050509392505050565b600082601f83011261142657611426600080fd5b600a6114338482856113ba565b949350505050565b6000610140828403121561145157611451600080fd5b60006114338484611412565b60005b83811015611478578181015183820152602001611460565b83811115611487576000848401525b50505050565b6000611497825190565b8084526020840193506114ae81856020860161145d565b601f01601f19169290920192915050565b602080825281016114d0818461148d565b9392505050565b600067ffffffffffffffff8211156114f1576114f1611322565b601f19601f83011660200192915050565b82818337506000910152565b600061151c6113c8846114d7565b90508281526020810184848401111561153757611537600080fd5b611542848285611502565b509392505050565b600082601f83011261155e5761155e600080fd5b813561143384826020860161150e565b60006020828403121561158357611583600080fd5b813567ffffffffffffffff81111561159d5761159d600080fd5b6114338482850161154a565b60ff81166113a4565b8035610576816115a9565b600080604083850312156115d3576115d3600080fd5b60006115df85856113af565b92505060206115f0858286016115b2565b9150509250929050565b60006001600160a01b038216610576565b611614816115fa565b82525050565b60208101610576828461160b565b80611614565b6116388282611628565b5060200190565b60200190565b600a8160005b8281101561167057815161165f868261162e565b95505060208201915060010161164b565b5050505050565b61014081016105768284611645565b6113a4816115fa565b803561057681611686565b6000602082840312156116af576116af600080fd5b6000611433848461168f565b600067ffffffffffffffff8211156116d5576116d5611322565b5060209081020190565b60006116ed6113c8846116bb565b8381529050602080820190840283018581111561170c5761170c600080fd5b835b8181101561140857803567ffffffffffffffff81111561173057611730600080fd5b850161173c888261154a565b8452506020928301920161170e565b600082601f83011261175f5761175f600080fd5b81356114338482602086016116df565b600061177d6113c8846116bb565b8381529050602080820190840283018581111561179c5761179c600080fd5b835b8181101561140857803567ffffffffffffffff8111156117c0576117c0600080fd5b85016117cc888261174b565b8452506020928301920161179e565b600082601f8301126117ef576117ef600080fd5b813561143384826020860161176f565b60006080828403121561181457611814600080fd5b61181e6080611365565b9050813567ffffffffffffffff81111561183a5761183a600080fd5b6118468482850161154a565b825250602082013567ffffffffffffffff81111561186657611866600080fd5b611872848285016117db565b602083015250604082013567ffffffffffffffff81111561189557611895600080fd5b6118a18482850161174b565b604083015250606082013567ffffffffffffffff8111156118c4576118c4600080fd5b6118d08482850161154a565b60608301525092915050565b6000602082840312156118f1576118f1600080fd5b813567ffffffffffffffff81111561190b5761190b600080fd5b611433848285016117ff565b60006119256113c8846114d7565b90508281526020810184848401111561194057611940600080fd5b61154284828561145d565b600082601f83011261195f5761195f600080fd5b8151611433848260208601611917565b60006020828403121561198457611984600080fd5b815167ffffffffffffffff81111561199e5761199e600080fd5b6114338482850161194b565b60006119b86113c8846116bb565b838152905060208082019084028301858111156119d7576119d7600080fd5b835b8181101561140857805167ffffffffffffffff8111156119fb576119fb600080fd5b8501611a07888261194b565b845250602092830192016119d9565b600082601f830112611a2a57611a2a600080fd5b81516114338482602086016119aa565b600060208284031215611a4f57611a4f600080fd5b815167ffffffffffffffff811115611a6957611a69600080fd5b61143384828501611a16565b60006114d0838361148d565b6000611a8b825190565b80845260208401935083602082028501611aa58560200190565b60005b84811015611ad95783830388528151611ac18482611a75565b93505060208201602098909801979150600101611aa8565b50909695505050505050565b60408082528101611af6818561148d565b905081810360208301526114338184611a81565b6000611b14825190565b611b2281856020860161145d565b9290920192915050565b611b368186611b0a565b9050611b428185611b0a565b9050611b4e8184611b0a565b9050611b5a8183611b0a565b95945050505050565b602081016105768284611628565b634e487b7160e01b600052602260045260246000fd5b600281046001821680611b9b57607f821691505b602082108114156110ad576110ad611b71565b60008154611bbb81611b87565b600182168015611bd25760018114611c0157611c31565b7fffffffffffffffffffffffffffffffffffffffffffffffffffffffffffffff00831686528186019350611c31565b60008581526020902060005b83811015611c2957815488820152600190910190602001611c0d565b505081860193505b50505092915050565b7f646174613a6170706c69636174696f6e2f6a736f6e2c000000000000000000008152601601611c89817f7b22696d616765223a20220000000000000000000000000000000000000000009052565b600b01611c968186611b0a565b601160f91b81529050600101611ccb817f2c226465736372697074696f6e223a20220000000000000000000000000000009052565b601101611cd88185611bae565b601160f91b81529050600101611d0d817f2c226e616d65223a2022436f2d426f74202300000000000000000000000000009052565b601201611d1a8184611b0a565b601160f91b81529050600101611d4f817f2c2261747472696275746573223a2000000000000000000000000000000000009052565b600f01611d5c8183611b0a565b7f7d00000000000000000000000000000000000000000000000000000000000000815260010195945050505050565b634e487b7160e01b600052603260045260246000fd5b7f7b2274726169745f74797065223a2022000000000000000000000000000000008152601001611dd18184611bae565b7f222c202276616c7565223a20220000000000000000000000000000000000000081529050600d01611e038183611bae565b7f227d00000000000000000000000000000000000000000000000000000000000081526002019392505050565b634e487b7160e01b600052601160045260246000fd5b60007fffffffffffffffffffffffffffffffffffffffffffffffffffffffffffffffff821415611e7857611e78611e30565b5060010190565b60018152602081017f2c000000000000000000000000000000000000000000000000000000000000008152905061163f565b60408082528101611ec28184611a81565b905081810360208301526114d081611e7f565b7f5b000000000000000000000000000000000000000000000000000000000000008152600101611f058183611b0a565b7f5d00000000000000000000000000000000000000000000000000000000000000815260010192915050565b60208082527f4f776e61626c653a2063616c6c6572206973206e6f7420746865206f776e6572910190815261163f565b6020808252810161057681611f31565b60ff8116611614565b60408101611f888285611628565b6114d06020830184611f71565b8051610576816113a2565b60008060008060808587031215611fb957611fb9600080fd5b6000611fc58787611f95565b9450506020611fd687828801611f95565b9350506040611fe787828801611f95565b9250506060611ff887828801611f95565b91505092959194509250565b634e487b7160e01b600052601260045260246000fd5b60008261202957612029612004565b500490565b815b915060008261204157612041612004565b500690565b60ff908116908216612030565b60ff8116905060ff8216915060008160ff048311821515161561207857612078611e30565b500290565b60006105766120898381565b90565b6116148161207d565b606081016120a3828661160b565b6120b0602083018561208c565b6114336040830184611628565b6120c7818c611b0a565b90506120d3818b611b0a565b90506120df818a611b0a565b90506120eb8189611b0a565b90506120f78188611b0a565b90506121038187611b0a565b905061210f8186611b0a565b905061211b8185611b0a565b90506121278184611b0a565b90506121338183611b0a565b9b9a5050505050505050505050565b6020808252810161057681602681527f4f776e61626c653a206e6577206f776e657220697320746865207a65726f206160208201527f6464726573730000000000000000000000000000000000000000000000000000604082015260600190565b604081016121b1828561160b565b6114d0602083018461160b565b600081525b60010190565b6121d2816121be565b90506105768183611b0a565b7f630000000000000000000000000000000000000000000000000000000000000081526121c3565b60006105768260e01b90565b61161463ffffffff8216612206565b61222a816121de565b90506122368184612212565b600401612266817f80600e6000396000f30000000000000000000000000000000000000000000000815260090190565b90506114d08183611b0a56fea26469706673582212206efd2c63e4c36815d3f8dfd25df64cfba52012ec6e5188f7b01c707eb772149c64736f6c634300080c0033",
  "libraries": {
    "RendererCommons": "0xA040dB259B37219C3C18e987BE9Bc871C7340801",
    "RectRenderer": "0xF95E41C14C45798A8A60b20E8C92495C12416e66",
    "RectEncoder": "0xd753E89a83FCC1D72f4353946E8ca96644D6ec54",
    "Array": "0x1FA6A2152871D5A4D1f56511110C9a353CA48339",
    "Integers": "0xFD60cDD345feB6011fDeb4Dc3d69aD2319f8508C"
  },
  "devdoc": {
    "kind": "dev",
    "methods": {
      "owner()": {
        "details": "Returns the address of the current owner."
      },
      "renounceOwnership()": {
        "details": "Leaves the contract without owner. It will not be possible to call `onlyOwner` functions anymore. Can only be called by the current owner. NOTE: Renouncing ownership will leave the contract without an owner, thereby removing any functionality that is only available to the owner."
      },
      "transferOwnership(address)": {
        "details": "Transfers ownership of the contract to a new account (`newOwner`). Can only be called by the current owner."
      }
    },
    "version": 1
  },
  "userdoc": {
    "kind": "user",
    "methods": {},
    "version": 1
  },
  "storageLayout": {
    "storage": [
      {
        "astId": 6342,
        "contract": "contracts/co-bots/CoBotsRendererV2.sol:CoBotsRendererV2",
        "label": "_owner",
        "offset": 0,
        "slot": "0",
        "type": "t_address"
      },
      {
        "astId": 6450,
        "contract": "contracts/co-bots/CoBotsRendererV2.sol:CoBotsRendererV2",
        "label": "_status",
        "offset": 0,
        "slot": "1",
        "type": "t_uint256"
      },
      {
        "astId": 10006,
        "contract": "contracts/co-bots/CoBotsRendererV2.sol:CoBotsRendererV2",
        "label": "palettePointer",
        "offset": 0,
        "slot": "2",
        "type": "t_address"
      },
      {
        "astId": 10008,
        "contract": "contracts/co-bots/CoBotsRendererV2.sol:CoBotsRendererV2",
        "label": "collectionPointer",
        "offset": 0,
        "slot": "3",
        "type": "t_address"
      },
      {
        "astId": 10011,
        "contract": "contracts/co-bots/CoBotsRendererV2.sol:CoBotsRendererV2",
        "label": "characteristicNames",
        "offset": 0,
        "slot": "4",
        "type": "t_array(t_string_storage)dyn_storage"
      },
      {
        "astId": 10015,
        "contract": "contracts/co-bots/CoBotsRendererV2.sol:CoBotsRendererV2",
        "label": "traitNames",
        "offset": 0,
        "slot": "5",
        "type": "t_array(t_array(t_string_storage)dyn_storage)dyn_storage"
      },
      {
        "astId": 10017,
        "contract": "contracts/co-bots/CoBotsRendererV2.sol:CoBotsRendererV2",
        "label": "description",
        "offset": 0,
        "slot": "6",
        "type": "t_string_storage"
      },
      {
        "astId": 10020,
        "contract": "contracts/co-bots/CoBotsRendererV2.sol:CoBotsRendererV2",
        "label": "coBotsRenderer",
        "offset": 0,
        "slot": "7",
        "type": "t_contract(ICoBotsRenderer)11980"
      }
    ],
    "types": {
      "t_address": {
        "encoding": "inplace",
        "label": "address",
        "numberOfBytes": "20"
      },
      "t_array(t_array(t_string_storage)dyn_storage)dyn_storage": {
        "base": "t_array(t_string_storage)dyn_storage",
        "encoding": "dynamic_array",
        "label": "string[][]",
        "numberOfBytes": "32"
      },
      "t_array(t_string_storage)dyn_storage": {
        "base": "t_string_storage",
        "encoding": "dynamic_array",
        "label": "string[]",
        "numberOfBytes": "32"
      },
      "t_contract(ICoBotsRenderer)11980": {
        "encoding": "inplace",
        "label": "contract ICoBotsRenderer",
        "numberOfBytes": "20"
      },
      "t_string_storage": {
        "encoding": "bytes",
        "label": "string",
        "numberOfBytes": "32"
      },
      "t_uint256": {
        "encoding": "inplace",
        "label": "uint256",
        "numberOfBytes": "32"
      }
    }
  }
}